:1000000038C100000C94C5120C949A120C946F1213
:100010000C9444120C9419120C94EE110C94C3110C
:100020000C94981157C1000055C1000053C1000045
:1000300051C100004FC100004DC100004BC1000084
:1000400049C100000C94241445C1000043C10000C4
:1000500041C100003FC100003DC100000C944E11A1
:1000600039C100000C94151D35C1000033C10000DA
:1000700031C100002FC100002DC100002BC10000C4
:100080000C94F71327C1000025C1000023C1000014
:1000900021C100001FC100001DC100001BC10000E4
:1000A00019C1000017C100000C94CA1313C100004D
:1000B00011C100000FC100000DC100000C949D1380
:1000C00009C1000007C1000005C1000003C1000014
:1000D00001C10000FFC00000FDC00000FBC0000027
:1000E000F9C00000CA02FC0258032E033303380390
:1000F0003D03420346034B035003F007E707E907BC
:10010000F007F207F407F607FC07FE07D40FD70F36
:10011000C60FCA0FD00F0E10DB0FDF0FE50FE90F70
:10012000ED0FF30FF70FFB0F0E1001100510091064
:100130000A1300130213041306130C130E13351CB9
:100140003C1C191C201C271C2E1C431C4A1C000094
:100150002100240027002A002D0030003300010177
:100160000000040107010A0100000A0B02090C0D3E
:100170000E0807030401000000000000000000005A
:10018000000000000000000000000000000000006F
:10019000000000001211100000000000000000002C
:1001A000000000000000000000000000000000004F
:1001B00020002300260029002C002F00320000011F
:1001C00000000301060109010000220025002800AB
:1001D0002B002E003100340002010000050108014F
:1001E0000B010505050507050808080802020202BB
:1001F0000A0A0808040404040101010101010101C3
:100200000303030303030303040707070C0C0C0C8D
:100210000C0C0C0C02020202060606060606060676
:100220000B0B0B0B0B0B0B0B010210202008081003
:100230002040102040800201020108040201010256
:10024000040810204080804020100804020180042F
:10025000020180402010080402010804020101028A
:10026000040810204080010204081020408017225A
:100270003B1E11241FBECFEFD1E2DEBFCDBF00E099
:100280000CBF12E0A0E0B2E0EAE6FEE400E00BBF43
:1002900002C007900D92AA35B107D9F725E0AAE56B
:1002A000B2E001C01D92A136B207E1F711E0C8E348
:1002B000D1E000E006C021970109802FFE010E94D5
:1002C000AB25C733D10780E00807A9F70E94411E7C
:1002D0000C94242795CE2F923F924F925F926F926B
:1002E0007F928F929F92AF92BF92CF92DF92EF92C6
:1002F000FF920F931F93CF93DF93CDB7DEB769972C
:100300000FB6F894DEBF0FBECDBF10925205E82E97
:10031000F12C22E3D22EDE9C8001DF9C100D1124F3
:1003200003511B4FD80114969C91963109F4E4C4F3
:1003300008F0B4C0903109F477C308F09BC0933043
:1003400009F4CFC140F4913009F4D9C0923009F4D6
:10035000FDC00C94CC0E943009F4C9C2953011F054
:100360000C94CC0E82E580939C0282E480939D02E3
:1003700010929E02F801838180939F029093520510
:1003800081E00E94A51B8093A0021091520581E09C
:10039000810F8093520582E00E94A51BE12F110F6F
:1003A000FF0BE456FD4F80831091520581E0810FD1
:1003B0008093520583E00E94A51BE12F110FFF0BD4
:1003C000E456FD4F80831091520581E0810F8093A8
:1003D000520584E00E94A51BE12F110FFF0BE4568C
:1003E000FD4F80831091520581E0810F809352056B
:1003F00085E00E94A51BE12F110FFF0BE456FD4F76
:1004000080831091520581E0810F8093520586E030
:100410000E94A51BE12F110FFF0BE456FD4F8083B7
:100420001091520581E0810F8093520587E00E9470
:10043000A51BE12F110FFF0BE456FD4F8083109198
:10044000520581E0810F8093520588E00E94A51B30
:10045000E12F110FFF0BE456FD4F808320915205D1
:1004600081E0820F80939E0260E090E0022E000CFB
:10047000330BCCC2933109F466C440F4913109F4D2
:10048000FCC2923109F4D3C30C94CC0E943109F41C
:10049000C5C4953109F43FC40C94CC0E923A09F4CA
:1004A000C7C7A8F4993109F4B2C548F4973111F4DB
:1004B0000C947F0E983109F470C50C94CC0E9A31CF
:1004C00009F405C6913A09F404C70C94CC0E953A88
:1004D00011F40C94620B48F4933A09F4F3C7943A7C
:1004E00011F40C94CB0A0C94CC0E963A11F40C94A3
:1004F000E70C973A11F40C949B0D0C94CC0E82E50A
:1005000080939C0282E480939D02F8018381809312
:100510009F029093A00282E08093A10284E08093E6
:10052000A20288E080939E02ECE9F2E080E022E003
:10053000E33AF20719F09191890FF9CF98E090937F
:1005400052058093A30288E00C94650E82E58093A7
:100550009C0282E480939D0210929E0284E080932C
:100560005205D80113968C91139780939F0215968C
:10057000EC918E2FEE0F990BAA0BBB0BFC01329660
:10058000EB30F10508F094C08827EE58FF4F8F4FED
:100590000C94AB2511E01093530585E08093520530
:1005A0001092A0028EEF0E94A51B892BB1F443E6A6
:1005B00050E060E070E085E693E00E94991564E603
:1005C00070E080E090E00E94161140E050E0BA0137
:1005D00085E693E00E9499150CC0E091520581E0F8
:1005E0008E0F809352050E2E000CFF0BE456FD4F2C
:1005F0001083109253055CC011E01093510585E003
:10060000809352051092A0028FEF0E94A51B892BA8
:10061000B1F443E650E060E070E083E294E00E94D1
:10062000991564E670E080E090E00E94161140E0C9
:1006300050E0BA0183E294E00E9499150CC0E09169
:10064000520581E08E0F809352050E2E000CFF0B99
:10065000E456FD4F1083109251052AC085E0809327
:10066000520581E021C085E08093520582E01CC0E4
:1006700085E08093520583E017C085E080935205A2
:1006800084E012C085E0809352050EC085E080931F
:10069000520586E009C085E08093520587E004C0DA
:1006A00085E08093520588E00E94A51B8093A002FC
:1006B0002091520581E0820F80939E0260E090E0DD
:1006C000022E000C330B462F50E04217530714F054
:1006D0000C94530EFA01E456FD4F4081940F6F5F66
:1006E000F2CF82E580939C0282E480939D02109277
:1006F0009E02F801838180939F0211E010935305BD
:1007000085E0809352051092A0028EEF0E94A51BF7
:10071000892BB1F443E650E060E070E085E693E0B9
:100720000E94991564E670E080E090E00E94161146
:1007300040E050E0BA0185E693E00E9499150CC0B4
:10074000E091520581E08E0F809352050E2E000C31
:10075000FF0BE456FD4F10831092530511E01093E8
:100760005105E091520581E08E0F809352050E2EC7
:10077000000CFF0BE456FD4F10828FEF0E94A51B6B
:10078000892BB1F443E650E060E070E083E294E04E
:100790000E94991564E670E080E090E00E941611D6
:1007A00040E050E0BA0183E294E00E9499150CC049
:1007B000E091520581E08E0F809352050E2E000CC1
:1007C000FF0BE456FD4F1083109251051091520516
:1007D00081E0810F8093520581E00E94A51BE12FEB
:1007E000110FFF0BE456FD4F80831091520581E0FD
:1007F000810F8093520582E00E94A51BE12F110F0B
:10080000FF0BE456FD4F80831091520581E0810F6C
:100810008093520583E00E94A51BE12F110FFF0B6F
:10082000E456FD4F80831091520581E0810F809343
:10083000520584E00E94A51BE12F110FFF0BE45627
:10084000FD4F80831091520581E0810F8093520506
:1008500085E00E94A51BE12F110FFF0BE456FD4F11
:1008600080831091520581E0810F8093520586E0CC
:100870000E94A51BE12F110FFF0BE456FD4F808353
:100880001091520581E0810F8093520587E00E940C
:10089000A51BE12F110FFF0BE456FD4F8083109134
:1008A000520581E0810F8093520588E00E94A51BCC
:1008B000E12F110FFF0BE456FD4F8083209152056D
:1008C00081E0820F80939E0260E090E0022E000C97
:1008D000330B462F50E04217530714F00C94530E7D
:1008E000FA01E456FD4F4081940F6F5FF2CF82E52D
:1008F00080939C0282E480939D0210929E02D80114
:1009000013968C9180939F0211E01093530585E01C
:10091000809352051092A0028EEF0E94A51B892B96
:10092000B1F443E650E060E070E085E693E00E94B9
:10093000991564E670E080E090E00E94161140E0B6
:1009400050E0BA0185E693E00E9499150CC0E09151
:10095000520581E08E0F809352050E2E000CFF0B86
:10096000E456FD4F10831092530511E0109351058A
:10097000E091520581E08E0F809352050E2E000CFF
:10098000FF0BE456FD4F10828FEF0E94A51B892BB1
:10099000B1F443E650E060E070E083E294E00E944E
:1009A000991564E670E080E090E00E94161140E046
:1009B00050E0BA0183E294E00E9499150CC0E091E6
:1009C000520581E08E0F809352050E2E000CFF0B16
:1009D000E456FD4F1083109251052091520581E09D
:1009E000820F80939E0260E090E0022E000C330B99
:1009F000462F50E04217530714F00C94530EFA019F
:100A0000E456FD4F4081940F6F5FF2CF462F50E0C8
:100A10004217530714F00C94530EFA01E456FD4F9D
:100A20004081940F6F5FF2CFD80115968C918C3F67
:100A3000A1F0882351F08B3F11F00C947F0EF80148
:100A400020854781668181E012C0F80120854781B9
:100A5000668180E00E94801B0CC0D80118962C9102
:100A6000189717964C91179716966C9180E00E94F4
:100A7000591B0E94201B0C947F0ED80115968C9157
:100A80008F3F09F472C0882329F08E3F11F00C9437
:100A90007F0E99C0F8012681822F022E000C990B3F
:100AA00040E050E060E070E440932304509324045D
:100AB00060932504709326048D39FFEF9F0754F04F
:100AC0008436910514F083E690E0092E000CAA0B01
:100AD000BB0B04C08DE99FEFAFEFBFEF80933004F5
:100AE00090933104A0933204B093330482E38E9D3B
:100AF000F0018F9DF00D1124E351FB4F3781832FBF
:100B0000032E000C990B40E050E060E070E440934D
:100B100065035093660360936703709368038D3990
:100B20004FEF940754F08436910514F083E690E07B
:100B3000092E000CAA0BBB0B04C08DE99FEFAFEF91
:100B4000BFEF8093720390937303A0937403B093E9
:100B5000750331110C947F0E21110C947F0E1092AD
:100B60008F02109293020C947F0ED80116968C91EE
:100B7000082E000C990B40E050E060E070E44093D8
:100B800023045093240460932504709326048D3924
:100B9000BFEF9B0754F08436910514F083E690E094
:100BA000092E000CAA0BBB0B04C08DE99FEFAFEF21
:100BB000BFEF8093300490933104A0933204B0933C
:100BC00033040C947F0E82E38E9DF0018F9DF00D17
:100BD0001124E351FB4F8681082E000C990B40E055
:100BE00050E060E070E440936503509366036093C7
:100BF0006703709368038D39EFEF9E0754F08436D6
:100C0000910514F083E690E0092E000CAA0BBB0BB3
:100C100004C08DE99FEFAFEFBFEF80937203909315
:100C20007303A0937403B09375030C947F0E8091AB
:100C30008D0290918E02009779F48FE090E00E94EF
:100C4000C7256C01D80115966C910E945114D09261
:100C50008E02C0928D0223C0FC01428150E0D80177
:100C600015962C91022E000C330B42175307B9F046
:100C70000E945C268FE090E00E94C7258C0182E3F1
:100C80008E9DF0018F9DF00D1124E351FB4F658186
:100C9000C8010E94511410938E0200938D0282E3CA
:100CA0008E9DF0018F9DF00D1124E351FB4FD084F8
:100CB000C780B68000918D0210918E02C8010E94FB
:100CC000141560E8C8010E94D114B0EABA95F1F792
:100CD000C8010E94A81461EAC8010E94FF146B2D8C
:100CE000C8010E94FF146C2DC8010E94FF146D2DD5
:100CF000C8010E94FF144DC1F8018581893F09F0A8
:100D0000FEC78681882321F081E080938702F7C7A0
:100D100010928702F4C7D80116968C91882331F07F
:100D2000813031F481E08093940202C010929402E9
:100D30001092890210928A0210928B0210928C02F9
:100D400010928802DCC7F801968127813085818561
:100D500045814A3F09F0D3C7082F10E0132B30E03C
:100D6000392B40E050E060E472E48FE090E00E94B4
:100D7000142349015A0161E08091E3040E940F109D
:100D80009801A8EEB3E00E9462236D8B7E8B8F8B5F
:100D9000988F840197FE02C00F5F1F4F159507952E
:100DA0006801CC0CDD1CCC0CDD1CF5E0CF1AD108A1
:100DB000092C000CAA08BB08412C512C32018D894A
:100DC0009E89AF89B88D61E0481659066A067B0690
:100DD000D8F48091E3040E9477190230110518F0CD
:100DE000C6010197F1F760E08091E3040E94771952
:100DF0000230110518F0C6010197F1F7A895480CCB
:100E0000591C6A1C7B1CDBCF8091E3040E940F10ED
:100E100060E08091E3040E94771971C780917802A5
:100E200090917902009749F485E090E00E94C725EF
:100E30006C01D80115966C9115C0FC01428150E0FF
:100E4000D80115962C91022E000C330B4217530734
:100E500081F00E945C2685E090E00E94C7256C012D
:100E6000F8016581C6010E947115D0927902C09285
:100E7000780282E38E9DA0018F9D500D11244D506C
:100E80005B4F009178021091790280E090E073E16D
:100E900062E1FA01E80FF91F208130E0322F2227AA
:100EA000E1812E2BD901AA7ABA7AB695A795257534
:100EB0003575220F331F2A2B3B2BD901AC7CBC7C10
:100EC000FD01F695E795F695E79523733373D90100
:100ED000AA0FBB1FAA0FBB1FAE2BBF2B9D01207FEC
:100EE000307FF90134E0F695E7953A95E1F79D01F9
:100EF0002F703F70A4E0220F331FAA95E1F72E2B2D
:100F00003F2B322723273227220F331F220F331F75
:100F1000E72FE81BA1E0B0E0AC0FBD1FAE0FB11D85
:100F2000FD012083262F281BE1E0F0E0EC0FFD1FE0
:100F3000E20FF11D308302968431910509F0A9CFAB
:100F4000C8010E94141567EEC8010E94FF1460E0FA
:100F5000C8010E94FF14FE0131966F0184E1B82E92
:100F6000BE0ED6016D916D01962F9373B4E09B9FD9
:100F7000C00111246C7C66956695862B682F65757B
:100F8000660F8A7A8695682BC8010E94FF14BC10F0
:100F9000E8CFC8010E948314B2C6F801858180930E
:100FA0008F02868180939302878180939202082E1C
:100FB000000C990BAA0BBB0B8930910508F0ECC60D
:100FC000FC018827E358FF4F8F4F0C94AB258CE32F
:100FD00001C086E4809303028093020281E014C082
:100FE00086E405C081E403C08DE201C087E38093FD
:100FF000030280930202D0C68DE201C087E3809392
:1010000003028093020282E080939202C5C6D80157
:1010100015966C91613019F0683009F070C68091B6
:10102000760290917702009741F485E090E0698F15
:101030000E94C7258C01698D19C0FC01228130E016
:10104000062E000C770B26173707B9F00E945C2696
:1010500085E090E00E94C7258C0182E38E9DF0011F
:101060008F9DF00D1124E351FB4F6581C8010E9453
:101070006214109377020093760282E38E9DF00152
:101080008F9DF00D1124E351FB4F8681813069F073
:10109000823099F0811133C61085678170E082E655
:1010A00093E00E941A13612F0CC06781653B08F022
:1010B00064EB70E082E693E007C06781653B08F06F
:1010C00064EB70E08FE593E00E941A1318C6D80114
:1010D00015966C91613019F0683009F010C6809156
:1010E000740290917502009741F486E090E0698F58
:1010F0000E94C7258C01698D19C0FC01228130E056
:10110000062E000C770B26173707B9F00E945C26D5
:1011100086E090E00E94C7258C0182E38E9DF0015D
:101120008F9DF00D1124E351FB4F6581C8010E9492
:10113000B2181093750200937402E0917402F0915A
:10114000750282E38E9DD0018F9DB00D1124A351B5
:10115000BB4F16960C91002E000C110B220B330B7B
:10116000043611052105310524F003E610E020E0E6
:1011700030E00D394FEF14072407340724F40DE94C
:101180001FEF2FEF3FEFD901C80137FF07C08827B6
:101190009927DC01801B910BA20BB30B4581101624
:1011A000110612061306ECF54130E1F4BC01CD0145
:1011B000BAE0660F771F881F991FBA95D1F724E60A
:1011C00030E040E050E00E94402380E094E0821B49
:1011D000930B909329018093280110922B01109278
:1011E0002A018DC5483009F08AC5BC01CD01AAE0AD
:1011F000660F771F881F991FAA95D1F724E630E064
:1012000040E050E00E94402380E094E0821B930B7A
:10121000909399008093980010929B0010929A00EE
:101220006EC5012B022B032BC9F14130D1F4BC0157
:10123000CD01FAE0660F771F881F991FFA95D1F745
:1012400024E630E040E050E00E94402380E094E05B
:10125000821B930B90932901809328018FEF93E0D9
:1012600025C0483009F04BC5BC01CD01EAE0660F4E
:10127000771F881F991FEA95D1F724E630E040E0F8
:1012800050E00E94402380E094E0821B930B9093F7
:101290009900809398008FEF93E016C0413059F485
:1012A0008FEF93E0909329018093280190932B0175
:1012B00080932A0124C5483009F021C58FEF93E0BF
:1012C000909399008093980090939B0080939A004C
:1012D00016C580918D0290918E02009779F48FE06F
:1012E00090E00E94C7256C01D80115966C910E9470
:1012F0005114D0928E02C0928D0223C0FC01428113
:1013000050E0D80115962C91022E000C330B421799
:101310005307B9F00E945C268FE090E00E94C72539
:101320008C0182E38E9DF0018F9DF00D1124E3511D
:10133000FB4F6581C8010E94511410938E020093E7
:101340008D0280918D0290918E020E94341A20E0CD
:1013500030E040E251E40E9429250E944224AB0182
:1013600020915205E22F022E000CFF0BE456FD4F98
:1013700032E53083E1E0E20F0E2E000CFF0BE45665
:10138000FD4F32E43083E2E0E20F0E2E000CFF0B43
:10139000E456FD4F1082E3E0E20F0E2E000CFF0B2F
:1013A000E456FD4F32E33E9DD0013F9DB00D112428
:1013B000A351BB4F13963C913083E4E0E20F0E2E15
:1013C000000CFF0BE456FD4F31E03083E5E0E20F07
:1013D0000E2E000CFF0BE456FD4FDB0177FF02C021
:1013E000A150BF4FB08337E0320FE6E0E20F0E2E80
:1013F000000CFF0BE456FD4FCA0160E071E00E9453
:101400009825808388E0820F80939E0260E090E0C0
:10141000232F330F330B462F50E0421753070CF0A6
:1014200042C4FA01E456FD4F4081940F6F5FF3CF41
:10143000F8018581893F09F0AFC482E580939C0261
:1014400082E480939D0210929E02838180939F028A
:1014500085E08093520511E01093A00283E20E9480
:101460004E19E0915205019759F481E08E0F809357
:1014700052050E2E000CFF0BE456FD4F10820AC0E1
:1014800081E08E0F809352050E2E000CFF0BE45668
:10149000FD4F10832091520581E0820F80939E02C0
:1014A00060E090E0022E000C330B462F50E0421714
:1014B00053070CF0F8C3FA01E456FD4F4081940F36
:1014C0006F5FF3CFD80115968C918D3F09F064C4FE
:1014D00082E468D6FC01DE9EC001DF9E900D1124DF
:1014E00020915205E22F022E000CFF0BE456FD4F17
:1014F00032E53083E1E0E20F0E2E000CFF0BE456E4
:10150000FD4F32E43083E2E0E20F0E2E000CFF0BC1
:10151000E456FD4F1082E3E0E20F0E2E000CFF0BAD
:10152000E456FD4FD80113963C913083E4E0E20F7E
:101530000E2E000CFF0BE456FD4F31E0308336E0F9
:10154000320FE5E0E20F0E2E000CFF0BE456FD4FCC
:101550006FEF73E00E949825CB0160E071E00E947C
:101560009825982F990F890F808387E0820F8093A9
:101570009E0260E090E0232F330F330B462F50E0A4
:10158000421753070CF08FC3FA01E456FD4F408118
:10159000940F6F5FF3CF809190029091910200972A
:1015A00071F485E090E00E94C7256C01F801658127
:1015B0000E945915D0929102C092900223C0DC0182
:1015C00012964C9150E0F8012581022E000C330B4D
:1015D00042175307B9F00E945C2685E090E00E9414
:1015E000C7258C0182E38E9DF0018F9DF00D1124A3
:1015F000E351FB4F6581C8010E9459151093910278
:101600000093900210915205E12F012E000CFF0B68
:10161000E456FD4F82E58083E1E0E10F0E2E000CE1
:10162000FF0BE456FD4F82E48083E2E0E10F0E2ED3
:10163000000CFF0BE456FD4F1082E3E0E10F0E2E8D
:10164000000CFF0BE456FD4F82E38E9DD0018F9D71
:10165000B00D1124A351BB4F13968C918083E4E00D
:10166000E10F0E2E000CFF0BE456FD4F81E080834E
:1016700086E0810F809352058091900290919102B3
:101680000E943C15E5E0E10F0E2E000CFF0BE45626
:10169000FD4F80832091520581E0820F80939E024E
:1016A00060E090E0022E000C330B462F50E0421712
:1016B00053070CF0F8C2FA01E456FD4F4081940F35
:1016C0006F5FF3CF8091720290917302009771F077
:1016D000DC0112964C9150E0F8012581022E000C9D
:1016E000330B42175307F9F00E945C2686E090E026
:1016F0000E94C725DC01F8019581E92FF0E0EE0F8B
:10170000FF1FE55DFD4F80818C93818111968C9345
:10171000119712969C93129715968C931597B093E8
:101720007302A093720200917202109173029E01E3
:101730002F5F3F4F190185E0D9011D928A95E9F786
:1017400061E0F80185816BD461E0D80115968C9138
:101750000E9477196AEF70E080E090E067D560E062
:10176000F80185810E94771964E170E080E090E0E3
:101770005DD561E0D80115968C910E9477198BE9AF
:1017800090E00197F1F760E0F80185810E947719F8
:1017900083E290E00197F1F718D32B013C0162E05E
:1017A000D80115968C913BD4D80115968C910E9446
:1017B0004E19019771F009D3DC01CB018419950909
:1017C000A609B7090597A105B10570F3F8011382C1
:1017D0001482FBD22B013C0162E0F80185811FD409
:1017E000D80115968C910E944E19892B59F0EDD293
:1017F000DC01CB0184199509A609B7090597A10554
:10180000B10570F3C12CD12CE0D22B013C0162E078
:10181000F801858104D4F80185810E944E19892B35
:1018200059F4D3D2DC01CB0184199509A609B70973
:101830000597A105B10578F3D4D42B013C01C5D29D
:101840004B015C0162E0D80115968C91E8D3D80178
:1018500015968C910E944E19019759F4B6D2DC016D
:10186000CB0188199909AA09BB090597A105B105FA
:1018700070F3B7D4DC01CB0184199509A609B70927
:10188000F60143E0F595E7954A95E1F78997A105BB
:10189000B10530F0E20DF31D8081880F816004C036
:1018A000E20DF31D8081880F8083BFEFCB1ADB0A26
:1018B000E8E2CE16D10409F0A7CF59814B812D81E2
:1018C00030E08A8190E0850F911D840F911D6C811D
:1018D000860F911D99272817390731F4D8011396DF
:1018E0005C93139714964C9380915205E82F082E21
:1018F000000CFF0BE456FD4F92E59083E1E0E80F0A
:101900000E2E000CFF0BE456FD4F92E49083E2E0B4
:10191000E80F0E2E000CFF0BE456FD4F1082E3E0A3
:10192000E80F0E2E000CFF0BE456FD4F92E39E9D38
:10193000D0019F9DB00D1124A351BB4F13969C91D4
:101940009083E4E0E80F0E2E000CFF0BE456FD4FF1
:1019500091E09083E5E0E80F0E2E000CFF0BE456BB
:10196000FD4FD80113969C9113979083E6E0E80F02
:101970000E2E000CFF0BE456FD4F1082E7E0E80F3F
:101980000E2E000CFF0BE456FD4F14969C91908395
:1019900029E0280FE8E0E80F0E2E000CFF0BE456BC
:1019A000FD4F1082865F80939E0260E090E0022EE1
:1019B000000C330B462F50E0421753070CF073C155
:1019C000FA01E456FD4F4081940F6F5FF3CF809191
:1019D000700290917102009771F0DC0112964C91A7
:1019E00050E0F8012581022E000C330B42175307FB
:1019F000F9F00E945C2684E090E00E94C725DC019B
:101A0000F8019581E92FF0E0EE0FFF1FE55DFD4F36
:101A100080818C93818111968C93119712969C935F
:101A2000129713968C931397B0937102A093700240
:101A300010915205E12F012E000CFF0BE456FD4FD3
:101A400082E58083E1E0E10F0E2E000CFF0BE456EF
:101A5000FD4F82E48083E2E0E10F0E2E000CFF0BCD
:101A6000E456FD4F1082E3E0E10F0E2E000CFF0B59
:101A7000E456FD4F82E38E9DD0018F9DB00D112461
:101A8000A351BB4F13968C918083E4E0E10F0E2E9F
:101A9000000CFF0BE456FD4F81E0808386E0810F50
:101AA00080935205C0907002D090710260E0D60120
:101AB00013968C91B4D2F601838174D3E5E0E10FE3
:101AC0000E2E000CFF0BE456FD4FE12C24E0F22E0D
:101AD0009701281B390BC90190831091520581E0B1
:101AE000810F8093520560E0D60113968C9197D2B6
:101AF000F601838157D3E12F110FFF0BE456FD4F01
:101B0000E81AF90AE0822091520581E0820F809361
:101B10009E0260E090E0022E000C330B462F50E056
:101B2000421753070CF0BFC0FA01E456FD4F408145
:101B3000940F6F5FF3CF80916E0290916F020097C8
:101B400039F484E090E00E94C725DC01F8011BC055
:101B5000DC0112964C9150E0F8012581022E000C18
:101B6000330B4217530731F10E945C2684E090E06A
:101B70000E94C725DC0182E38E9DF0018F9DF00D50
:101B80001124E351FB4F9581E92FF0E0EE0FFF1F89
:101B9000E55DFD4F80818C93818111968C93119727
:101BA00012969C93129713968C931397B0936F028F
:101BB000A0936E0210915205E12F012E000CFF0B35
:101BC000E456FD4F82E58083E1E0E10F0E2E000C2C
:101BD000FF0BE456FD4F82E48083E2E0E10F0E2E1E
:101BE000000CFF0BE456FD4F1082E3E0E10F0E2ED8
:101BF000000CFF0BE456FD4F82E38E9DD0018F9DBC
:101C0000B00D1124A351BB4F13968C918083E4E057
:101C1000E10F0E2E000CFF0BE456FD4F81E0808398
:101C200086E0810F80935205E0906E02F0906F0283
:101C300060E0D70113968C91F2D1F7018381B2D283
:101C4000E5E0E10F0E2E000CFF0BE456FD4F9083F4
:101C50001091520581E0810F8093520560E0D70119
:101C600013968C91DCD1F70183819CD2E12F110F67
:101C7000FF0BE456FD4F80832091520581E0820FD7
:101C800080939E0260E090E0022E000C330B462F02
:101C900050E0421753073CF4FA01E456FD4F4081EF
:101CA000940F6F5FF4CF80935205F901E456FD4F16
:101CB00090830BC080935205F901E456FD4F908349
:101CC00090919F02992309F467C069960FB6F89422
:101CD000DEBF0FBECDBFDF91CF911F910F91FF905F
:101CE000EF90DF90CF90BF90AF909F908F907F90BC
:101CF0006F905F904F903F902F900C94221A80919C
:101D00005205E82F082E000CFF0BE456FD4F92E51C
:101D10009083E1E0E80F0E2E000CFF0BE456FD4F20
:101D200092E49083E2E0E80F0E2E000CFF0BE456E5
:101D3000FD4F1082E3E0E80F0E2E000CFF0BE4567F
:101D4000FD4F92E39E9DD0019F9DB00D1124A351A4
:101D5000BB4F13969C91908325E0280FE4E0E80F99
:101D60000E2E000CFF0BE456FD4F91E090838A5F2E
:101D700080939E0260E090E0022E000C330B462F11
:101D800050E0421753070CF095CFFA01E456FD4F8F
:101D90004081940F6F5FF3CF69960FB6F894DEBF62
:101DA0000FBECDBFDF91CF911F910F91FF90EF90AC
:101DB000DF90CF90BF90AF909F908F907F906F906B
:101DC0005F904F903F902F9008952FB7F8946091B7
:101DD0007F027091800280918102909182022FBFD8
:101DE00008950895CF92DF92EF92FF920F931F9381
:101DF000CF93DF936C018B017A01EC01C658DD4F64
:101E0000888187FF04C0FB011182108224C08CE00E
:101E10008C9D90018D9D300D11248881A901480F62
:101E2000511D87FD5A9580915E0390E04817590730
:101E300094F48881A901480F511D87FD5A95CA0164
:101E4000FA01EE0FFF1F8E0F9F1FFC01E253FD4FA3
:101E5000808186FD19C088818F5F88838CE08C9D8E
:101E600090018D9D300D11248881A901480F511DCD
:101E700087FD5A9580915E0390E048175907BCF49E
:101E800088818C3044F113C08881280F311D87FD73
:101E90003A95F901EE0FFF1F2E0F3F1FF901E25394
:101EA000FD4F808160E08F730E947719D4CFF801D5
:101EB00080819181049680349C4918F480E49CE9E7
:101EC00004C0F801808191810496F7019183808399
:101ED0008FEF888345C0F801408151818881B90125
:101EE000680F711D87FD7A95CB01FB01EE0FFF1F77
:101EF0008E0F9F1FFC01E253FD4F81819281840F61
:101F0000951FF701918380838881A901480F511D96
:101F100087FD5A95CA01FA01EE0FFF1F8E0F9F1F12
:101F2000FC01E253FD4F808186FF1AC08881280F93
:101F3000311D87FD3A95F901EE0FFF1F2E0F3F1F50
:101F4000F901E253FD4F808161E08F73DF91CF9102
:101F50001F910F91FF90EF90DF90CF900C94771925
:101F6000DF91CF911F910F91FF90EF90DF90CF9075
:101F7000089590E0FC013197E231F10508F04EC080
:101F80008827EA57FF4F8F4F0C94AB258091800034
:101F90008F7703C0809180008F7D809380000895AB
:101FA00080918000877FF9CF84B58F7702C084B598
:101FB0008F7D84BD08958091B0008F7703C080919C
:101FC000B0008F7D8093B0000895809190008F774E
:101FD00007C0809190008F7D03C080919000877F23
:101FE0008093900008958091A0008F7707C0809122
:101FF000A0008F7D03C08091A000877F8093A00008
:102000000895809120018F7707C0809120018F7DF6
:1020100003C080912001877F809320010895CF9392
:10202000DF9390E0FC01E85DFD4F2491FC01EE514F
:10203000FE4F8491882361F190E0880F991FFC0185
:10204000E25BFE4FC591D491FC01E853FE4FA59190
:10205000B491611109C09FB7F894888120958223BB
:102060008883EC912E230BC0623061F49FB7F89403
:102070003881822F809583238883EC912E2B2C939B
:102080009FBF06C08FB7F894E8812E2B28838FBF9F
:10209000DF91CF9108951F93CF93DF93EC01162F1B
:1020A0008881803308F04DC061E0812FB8DF8881DE
:1020B000E82FF0E09F01220F331FE20FF31FE253DE
:1020C000FD4F1F739081907C192B108319821A8207
:1020D0006CE00E948C259CE0899FB001112440E0B7
:1020E00050E09A01260F371FF901EE0FFF1F2E0F48
:1020F0003F1FF901E253FD4F908196FD16C04F5FDF
:102100005F4F4C30510569F7813001F51092800026
:1021100082E0809381001092850010928400B19A31
:1021200080916F00826080936F00E881F0E0CF01C2
:10213000880F991FE80FF91FE253FD4F80818064DB
:1021400080838881DF91CF911F910895823061F45F
:10215000109290008093910010929500109294003C
:1021600088BB80937100E1CF833069F41092A000A6
:1021700082E08093A1001092A5001092A40089BB78
:1021800080937200D2CF8111D0CF1092200182E0D3
:102190008093210110922501109224018ABB809323
:1021A0007300C3CF863308F0865390917B00282FAD
:1021B0002870977F922B90937B0087708064809328
:1021C0007C0080917A00806480937A0080917A000C
:1021D00086FDFCCF809178002091790090E0922BD1
:1021E00008953FB7F8948091830290918402A09162
:1021F0008502B091860226B5A89B05C02F3F19F035
:102200000196A11DB11D3FBFBA2FA92F982F882776
:10221000820F911DA11DB11DBC01CD0142E0660FD1
:10222000771F881F991F4A95D1F708958F929F9223
:10223000AF92BF92CF92DF92EF92FF926B017C013F
:10224000D0DF4B015C01C114D104E104F104E9F0D9
:10225000C8DFDC01CB0188199909AA09BB09883EAE
:102260009340A105B10578F321E0C21AD108E10835
:10227000F10888EE880E83E0981EA11CB11CC114E1
:10228000D104E104F10421F7DECFFF90EF90DF905D
:10229000CF90BF90AF909F908F9008951F920F9214
:1022A0000FB60F9211242F933F938F939F93AF9369
:1022B000BF9380917F0290918002A0918102B091A2
:1022C000820230917E0223E0230F2D3720F4019605
:1022D000A11DB11D05C026E8230F0296A11DB11D49
:1022E00020937E0280937F0290938002A0938102CC
:1022F000B09382028091830290918402A091850222
:10230000B09186020196A11DB11D80938302909326
:102310008402A0938502B0938602BF91AF919F91F2
:102320008F913F912F910F900FBE0F901F90189596
:102330001F920F920FB60F9211240BB60F922F938C
:102340003F934F935F936F937F938F939F93AF933D
:10235000BF93EF93FF93E0911302F091140219954C
:10236000FF91EF91BF91AF919F918F917F916F916D
:102370005F914F913F912F910F900BBE0F900FBE29
:102380000F901F9018951F920F920FB60F92112465
:102390000BB60F922F933F934F935F936F937F935F
:1023A0008F939F93AF93BF93EF93FF93E0911102AD
:1023B000F09112021995FF91EF91BF91AF919F910A
:1023C0008F917F916F915F914F913F912F910F90DE
:1023D0000BBE0F900FBE0F901F9018951F920F927B
:1023E0000FB60F9211240BB60F922F933F934F937A
:1023F0005F936F937F938F939F93AF93BF93EF936D
:10240000FF93E0910702F09108021995FF91EF9177
:10241000BF91AF919F918F917F916F915F914F91FC
:102420003F912F910F900BBE0F900FBE0F901F90FA
:1024300018951F920F920FB60F9211240BB60F92A0
:102440002F933F934F935F936F937F938F939F93BC
:10245000AF93BF93EF93FF93E0910502F0910602D3
:102460001995FF91EF91BF91AF919F918F917F91BE
:102470006F915F914F913F912F910F900BBE0F90F5
:102480000FBE0F901F9018951F920F920FB60F92CC
:1024900011240BB60F922F933F934F935F936F933B
:1024A0007F938F939F93AF93BF93EF93FF93E091AD
:1024B0000F02F09110021995FF91EF91BF91AF912A
:1024C0009F918F917F916F915F914F913F912F914C
:1024D0000F900BBE0F900FBE0F901F9018951F927C
:1024E0000F920FB60F9211240BB60F922F933F93BA
:1024F0004F935F936F937F938F939F93AF93BF930C
:10250000EF93FF93E0910D02F0910E021995FF9168
:10251000EF91BF91AF919F918F917F916F915F915B
:102520004F913F912F910F900BBE0F900FBE0F90C8
:102530001F9018951F920F920FB60F9211240BB691
:102540000F922F933F934F935F936F937F938F934C
:102550009F93AF93BF93EF93FF93E0910B02F091A2
:102560000C021995FF91EF91BF91AF919F918F91BF
:102570007F916F915F914F913F912F910F900BBE83
:102580000F900FBE0F901F9018951F920F920FB6CD
:102590000F9211240BB60F922F933F934F935F939B
:1025A0006F937F938F939F93AF93BF93EF93FF931B
:1025B000E0910902F0910A021995FF91EF91BF9104
:1025C000AF919F918F917F916F915F914F913F91CB
:1025D0002F910F900BBE0F900FBE0F901F9018956C
:1025E000982F883030F5482F50E0FA013197E730C6
:1025F000F10570F48827E856FF4F8F4F0C94AB25F8
:10260000E8980DC0E9980BC0EA9809C0EB9807C09C
:10261000EC9805C0ED9803C0EE9801C0EF98E92F43
:10262000F0E0EE0FFF1FEB5FFD4F81EF9EE0918327
:1026300080830895CF92DF92EF92FF92CF93DF9342
:10264000EC01603282E078070CF03DC077FD06C0F7
:10265000653B71052CF064EB70E002C060E070E057
:10266000898128E830E06901C81AD10887FDD39430
:10267000CC0CDD1CCC0CDD1C0D2C000CEE08FF0876
:102680008A8128E532E0281B310987FD3395220F26
:10269000331F220F331FC901330FAA0BBB0B9C0141
:1026A000AD012C193D094E095F09DB010E943A2357
:1026B00024EB30E040E050E00E941423C20ED31E11
:1026C000E41EF51EB6018881803380F5998148E8C3
:1026D00050E0491B510997FD5395440F551F440F76
:1026E000551F6417750784F09A8128E532E0291B8D
:1026F000310997FD3395220F331F220F331FAB0192
:10270000261737070CF4A90142505109440F551FF1
:102710002FB7F89490E0FC01EE0FFF1F8E0F9F1F64
:10272000FC01E253FD4F528341832FBFDF91CF91D4
:10273000FF90EF90DF90CF9008951F920F920FB609
:102740000F9211240BB60F922F933F934F935F93E9
:102750006F937F938F939F93AF93BF93EF93FF9369
:1027600048E251E064E271E080E090E03BDBFF9101
:10277000EF91BF91AF919F918F917F916F915F91F9
:102780004F913F912F910F900BBE0F900FBE0F9066
:102790001F9018951F920F920FB60F9211240BB62F
:1027A0000F922F933F934F935F936F937F938F93EA
:1027B0009F93AF93BF93EF93FF9348EA50E064EA8F
:1027C00070E083E090E00EDBFF91EF91BF91AF915D
:1027D0009F918F917F916F915F914F913F912F9139
:1027E0000F900BBE0F900FBE0F901F9018951F9269
:1027F0000F920FB60F9211240BB60F922F933F93A7
:102800004F935F936F937F938F939F93AF93BF93F8
:10281000EF93FF9348E950E064E970E082E090E0D4
:10282000E1DAFF91EF91BF91AF919F918F917F91ED
:102830006F915F914F913F912F910F900BBE0F9031
:102840000FBE0F901F9018951F920F920FB60F9208
:1028500011240BB60F922F933F934F935F936F9377
:102860007F938F939F93AF93BF93EF93FF9348E82A
:1028700050E064E870E081E090E0B4DAFF91EF911D
:10288000BF91AF919F918F917F916F915F914F9188
:102890003F912F910F900BBE0F900FBE0F901F9086
:1028A0001895FC01A62FB0E0AA0FBB1FA55DBD4F78
:1028B0008C91808311969C9191836283938384830E
:1028C00085830895CF93DF93EC01E62FF0E0EE0FC0
:1028D000FF1FE55DFD4F80818883918199836A8325
:1028E0008B839C8361E09BDB61E08C8198DB6B8157
:1028F00070E082E693E0CFDB6C8170E08FE593E0DF
:10290000DF91CF91C8CBCF93DF93EC0161E08B8156
:1029100086DB60E08C81EBD48AE18A95F1F700C018
:1029200060E08B81E4D48AE18A95F1F700C061E030
:102930008C81DDD48AE18A95F1F700C061E08B815A
:10294000D6D48AE18A95F1F700C0DF91CF9108953E
:102950000F931F93CF93DF93EC0160E08B815FDBDC
:1029600061E08B81C4D48AE18A95F1F700C061E00F
:102970008C81BDD48AE18A95F1F700C08B818ED419
:102980008C0160E08C81B3D48AE18A95F1F700C0B4
:1029900081E0012B09F480E0DF91CF911F910F912D
:1029A00008950F931F93CF93DF93EC01062F61E0FF
:1029B0008C8135DB61E08B8132DB18E007FF02C0E0
:1029C00061E001C060E08B8192D48AE18A95F1F7E1
:1029D00000C0000F61E08C818AD48AE18A95F1F70A
:1029E00000C060E08C8183D48AE18A95F1F700C051
:1029F000115021F7DF91CF911F910F910895CF933F
:102A0000DF93EC018FE193E00197F1F700C0000044
:102A1000CE01C7DF87E191E00197F1F700C0000028
:102A2000CE01DF91CF9194CFCF93DF93EC0161E0A2
:102A30008C81F5DA61E08B81F2DA61E08B8157D429
:102A40008AE18A95F1F700C061E08C8150D48AE177
:102A50008A95F1F700C060E08B8149D48AE18A95BC
:102A6000F1F700C060E08C8142D48AE18A95F1F7E9
:102A700000C0DF91CF9108950F931F93CF93DF9301
:102A8000EC018B810BD48C018C8108D4AC0121E04A
:102A900030E0012B11F420E030E0220F331F81E001
:102AA000452B09F480E0822BDF91CF911F910F918C
:102AB0000895CF93DF93EC01E62FF0E0EE0FFF1FB8
:102AC000E55DFD4F90819883818189836A839B8333
:102AD0008C838B8160E0A3DA8C8160E0DF91CF9101
:102AE0009ECACF93DF93EC01E62FF0E0EE0FFF1FBD
:102AF000E55DFD4F80818883918199836A839B8303
:102B00008C83CE0191DF67EECE0179DF60E8CE01E4
:102B100076DF64EACE0173DF6AE9CE0170DF61E837
:102B2000CE016DDF63E8CE016ADFCE01DF91CF9188
:102B3000EACE0F931F93FC014436510561057105E0
:102B400024F043E650E060E070E0DB01CA014D395B
:102B50005F4F6F4F7F4F24F48DE99FEFAFEFBFEFD3
:102B60000189128923893489081719072A073B0725
:102B700009F486C0818B928BA38BB48B818792875B
:102B8000A387B487EA54FF4F20812430E1F518165B
:102B900019061A061B06C4F4BC01CD015AE0660FE3
:102BA000771F881F991F5A95D1F71092A90010928C
:102BB000A80024E630E040E050E00E941423309367
:102BC000AB002093AA005CC0B095A095909581952C
:102BD0009F4FAF4FBF4FBC01CD014AE0660F771F3B
:102BE000881F991F4A95D1F724E630E040E050E075
:102BF0000E9414233093A9002093A8001092AB00E8
:102C00001092AA003DC02530D9F5181619061A06EB
:102C10001B06C4F4BC01CD013AE0660F771F881F84
:102C2000991F3A95D1F724E630E040E050E00E9449
:102C30001423309389002093880010928B00109207
:102C40008A001EC0B095A095909581959F4FAF4F7B
:102C5000BF4FBC01CD012AE0660F771F881F991F67
:102C60002A95D1F7109289001092880024E630E06E
:102C700040E050E00E94142330938B0020938A00A0
:102C80001F910F9108952F923F924F925F926F92F2
:102C90007F928F929F92AF92BF92CF92DF92EF92EC
:102CA000FF920F931F93CF93DF93CDB7DEB7289793
:102CB0000FB6F894DEBF0FBECDBF1C01FC0161A9A9
:102CC00072A983A994A985809680A780B08421A148
:102CD00032A143A154A12D833E834F8358870E9484
:102CE00075246B017C01C501B4010E9475242D81FE
:102CF0003E814F8158850E9429259B01AC01C70167
:102D0000B6010E94DA2320E030E044EB53E40E9455
:102D100029250E944224F10165A376A387A390A7E9
:102D200054D881010B551F4FF801C080D180E2803B
:102D3000F380DC01CB018C199D09AE09BF094597D1
:102D4000A105B10508F461C0F10181A992A9A3A967
:102D5000B4A945A456A467A470A885809680A780CE
:102D6000B08421A132A143A154A129833A834B838A
:102D70005C83BC01CD0164197509860997090E941D
:102D800075242B013C0165EE7EE06C197D0980E025
:102D900090E00E9473249B01AC0160E070E08AE740
:102DA00094E40E94DA239B01AC01C301B2010E94AA
:102DB000292520E030E040E752E40E9429252B013C
:102DC0003C01C501B4010E94752429813A814B81DF
:102DD0005C810E9429259B01AC01C301B2010E94C4
:102DE000DA23F101658B768B878B908F81A992A96D
:102DF000A3A9B4A985A796A7A7A7B0AB0E94E50E83
:102E0000F8016083718382839383F1016081718112
:102E10008281938120E030E040E050E40E94D6239C
:102E20008111EBC00E94E50E810107551F4FF8018B
:102E3000C080D180E280F380DC01CB018C199D0938
:102E4000AE09BF098997A105B10508F4B1C00E9478
:102E5000E50EF8016083718382839383F1016185BC
:102E600072858385948585849684A784B0880E9422
:102E700075242DEC3CEC4CE45FE30E9429256B01AA
:102E80007C01C501B4010E9475242DEC3CEC4CE49E
:102E90005EE30E9429259B01AC01C701B6010E9497
:102EA000722320E030E0A9010E942525F10187FD71
:102EB00029C0618572858385948585849684A784DD
:102EC000B0880E9475242DEC3CEC4CE45FE30E943A
:102ED00029256B017C01C501B4010E9475242DECEC
:102EE0003CEC4CE45EE30E9429259B01AC01C70148
:102EF000B6010E94722320E030E040E05FE30E94D0
:102F0000722328C061857285838594858584968423
:102F1000A784B0880E9475242DEC3CEC4CE45FE360
:102F20000E9429256B017C01C501B4010E94752412
:102F30002DEC3CEC4CE45EE30E9429259B01AC01A6
:102F4000C701B6010E94722320E030E040E05FE359
:102F50000E9471230E944224F10161877287838756
:102F6000948781859285A385B485181619061A065B
:102F70001B062CF481859285A385B4850CC0F101D4
:102F800081859285A385B485B095A095909581950E
:102F90009F4FAF4FBF4F0B97A105B1054CF4F10107
:102FA00085859685A785B089892B8A2B8B2BF9F08F
:102FB000F1014185528563857485C10128960FB65C
:102FC000F894DEBF0FBECDBFDF91CF911F910F915F
:102FD000FF90EF90DF90CF90BF90AF909F908F9039
:102FE0007F906F905F904F903F902F90A2CDF10116
:102FF0001186128613861486DBCF28960FB6F894B6
:10300000DEBF0FBECDBFDF91CF911F910F91FF901B
:10301000EF90DF90CF90BF90AF909F908F907F9078
:103020006F905F904F903F902F900895AF92BF9216
:10303000CF92DF92EF92FF920F931F93CF93DF9384
:10304000EC0184E0689FF0011124E15EFD4F808176
:103050008E010E541F4FD8018C935E01B3EBAB0E63
:10306000B11C9181D5019C936E01B4EBCB0ED11CA8
:103070009281D6019C937E01B5EBEB0EF11C9381FE
:10308000F701908362E00E940F1062E0D5018C91FD
:103090000E940F1061E0F60180810E940F1061E034
:1030A000D7018C910E940F10F8018081823191F438
:1030B00085E0349680838BEA8093800081E0809362
:1030C000810010928B0010928A0010928900109259
:1030D00088002CC08331A1F484E0FE01EA54FF4F44
:1030E00080838BEA8093A00081E08093A1001092FE
:1030F000AB001092AA001092A9001092A80016C06E
:10310000843111F483E003C0853131F482E0FE01A3
:10311000EA54FF4F80830AC0833011F481E0F7CF77
:10312000823021F4FE01EA54FF4F108240E050E06B
:10313000BA01CE01FEDC19AA1AAA1BAA1CAA0E9477
:10314000E50ECB55DF4F688379838A839B83DF91BC
:10315000CF911F910F91FF90EF90DF90CF90BF9094
:10316000AF9008951F93CF93DF93EC01162FE62FB6
:10317000F0E0EE0FFF1FE55DFD4F808188839181B8
:1031800099836A838B839C836D8361E00E940F1017
:1031900061E08C810E940F10113071F48BEA8093F2
:1031A0002001109321011092290110922801109200
:1031B0002B0110922A0110C0183071F48BEA809311
:1031C000900081E0809391001092990010929800F5
:1031D00010929B0010929A00DF91CF911F91089559
:1031E00040910302042E000C550B4C5E5F4F052EE0
:1031F000000C660B770B83E294E09BDC809102026B
:103200004CEE5FEF481B510987FD5395052E000CCE
:10321000660B770B85E693E08CCC809103024CEE35
:103220005FEF481B510987FD5395052E000C660B77
:10323000770B83E294E07DDC40910202042E000CC7
:10324000550B4C5E5F4F052E000C660B770B85E629
:1032500093E06FCCCF93C82F20E040E060E080E0A7
:103260004FD22C2F30E0F901E85DFD4FE491A4EE40
:10327000B4E01496EC931497F901EE51FE4FE491EB
:10328000F0E0EE0FFF1FE853FE4F859194918D9370
:103290009C9361E08C2FCF910C940F10CF93DF9310
:1032A000282F30E0F901E859FE4F8491F901E85DDB
:1032B000FD4FD491F901EE51FE4FC491CC2391F012
:1032C00081110E94B90FEC2FF0E0EE0FFF1FE255C5
:1032D000FE4FA591B491EC91ED2381E090E021F4B3
:1032E00080E002C080E090E0DF91CF9108951F93CD
:1032F000CF93DF93282F30E0F901E859FE4F8491F6
:10330000F901E85DFD4FD491F901EE51FE4FC491F2
:10331000CC23C9F0162F81110E94B90FEC2FF0E0D9
:10332000EE0FFF1FE853FE4FA591B4918FB7F894AD
:10333000111105C09C91ED2FE095E92302C0EC919D
:10334000ED2BEC938FBFDF91CF911F91089583E414
:103350000E94D210AC01092E000C660B770B463D83
:1033600023E052076105710508F047C0403823E0AB
:1033700052076105710508F055C0453523E0520735
:1033800061057105E8F54A3223E0520761057105D0
:10339000D0F54F3F22E0520761057105B8F5453D74
:1033A00022E0520761057105E8F5453922E0520730
:1033B0006105710570F5433522E05207610571051D
:1033C00088F5483222E052076105710528F54B3E29
:1033D00021E052076105710510F5473A21E05207D7
:1033E00061057105F8F44C37514061057105E8F449
:1033F000805D91098B97E0F015C080E090E0089522
:1034000085E090E0089589E090E0089586E090E0FE
:10341000089582E090E0089588E090E0089583E0C8
:1034200090E008958FEF90E0089587E090E0089590
:1034300084E090E008959091C00095FFFCCF8093C8
:10344000C60008950F931F93CF93C82F0CE912E085
:10345000CC2331F0F80181918F01EDDFC150F8CF1D
:10346000CF911F910F9108954F925F926F927F922B
:103470009F92AF92BF92CF92DF92EF92FF920F9303
:103480001F93CF93DF93CDB7DEB728970FB6F8948D
:10349000DEBF0FBECDBF7C01CE0101966C015E0187
:1034A00099E0A90EB11C992493940E94E50EF701AE
:1034B0004780508461847284DC01CB0184199509B2
:1034C000A609B7094197A105B10508F09682F70151
:1034D0008681882309F459C00E94E50EF7016783AD
:1034E0007087818792871682C7019EDA60E8C701DC
:1034F00058DAF0EAFA95F1F7C7012ADA62EAC70169
:103500007EDA62EAC7017BDA62EAC70178DA61E053
:10351000C70175DAC701F7D9F701858160E00E941C
:103520000F10F701258130E0F901E85DFD4F64914E
:10353000F901EE51FE4FE491F0E0EE0FFF1FE2556E
:10354000FE4F8591949100E712E620E030E040E0E4
:103550004DD3611571058105910551F02B013C0199
:10356000FFEF4F1A5F0A6F0A7F0A2FE0722203C033
:10357000412C512C3201C301B2010E947524F70184
:10358000638774878587968709C0F701638574858B
:10359000858596850E9442242B013C0141145104EB
:1035A0006104710431F484EA482E88E3582E612CBA
:1035B000712CC301B2010E94752420E030E048E67E
:1035C00052E40E94DA23F6016193719381939193FF
:1035D0006F01A89564E170E080E090E00E94161110
:1035E000CA14DB0409F061CFC980DA80EB80FC806B
:1035F0007D809E80AF80B884272D392DA501B6012E
:10360000C7010E94252518161CF0C72CD92C75015E
:10361000B601C70128960FB6F894DEBF0FBECDBF26
:10362000DF91CF911F910F91FF90EF90DF90CF909E
:10363000BF90AF909F907F906F905F904F90089554
:10364000A091E404B091E5042091E8048091E9049C
:103650009091EA04AC01440F551F840F951F70919F
:10366000EB046091EC045FB7F8944C91322F3095E5
:103670003423242BE72FF62F8E0F9F1FE817F9070F
:1036800081F0419168E02C9300C047FF3C93440FC8
:1036900000C000C000C008F43C9300C06A9599F7D0
:1036A000EDCF5FBF789461E070E080E090E00C9433
:1036B0001611A82FB0E0E091E904F091EA04AE17EA
:1036C000BF07E0F4982F990F890F90E0E091EB0489
:1036D000F091EC04E80FF91F4083E091EB04F091C6
:1036E000EC04E80FF91F61834091EB045091EC0466
:1036F000FA01E80FF91F228381E0089580E0089520
:10370000FF920F931F93CF93DF93162F042FF22E68
:10371000811112C0C0E0D0E08091E9049091EA04E8
:10372000C817D90738F42F2D402F612F8C2FC1DFF8
:103730002196F2CF81E003C08150BBDF80E0DF91B2
:10374000CF911F910F91FF900895853061F178F42A
:103750008230E1F028F4813009F052C060E017C0F7
:103760008330E1F0843009F04BC061E018C088304C
:1037700009F138F48630C9F0873009F041C061E0C2
:103780001AC08E3F39F18F3F29F13AC061E086E1DE
:10379000AEDD60E087E1ABDD61E013C060E086E1B3
:1037A000A6DD61E0F7CF61E001C060E086E19FDD6A
:1037B00061E004C060E086E19ADD60E087E197DDCA
:1037C00060E088E194DD6AE070E080E090E00E94D3
:1037D0001611BDCD80E062DD892BA9F080E05EDDB1
:1037E000892B89F063E070E080E090E00E94161180
:1037F00080E054DD892B39F080E050DD892B19F011
:1038000080E090E0089581E090E00895E82FF0E0F6
:10381000EE0FFF1FEB5FFD4F7183608390E08830F8
:103820009105F0F5FC018827E156FF4F8F4F0C946E
:10383000AB2580916900836080936900E89A0895C0
:10384000809169008C6080936900E99A0895809165
:103850006900806380936900EA9A08958091690005
:10386000806C80936900EB9A089580916A00836070
:1038700080936A00EC9A089580916A008C6080932E
:103880006A00ED9A089580916A00806380936A00CF
:10389000EE9A089580916A00806C80936A00EF9A96
:1038A000089580911804FADC892B61F480919603C5
:1038B00090919703A0919803B09199030197A10962
:1038C000B1090BC08091960390919703A091980342
:1038D000B09199030196A11DB11D80939603909319
:1038E0009703A0939803B09399038091530588237D
:1038F00079F040E050E0BA0185E693E01AD9E09112
:1039000052050E2E000CFF0BE556FD4F81E0808323
:1039100008958091D604C2DC892B61F4809154040F
:1039200090915504A0915604B09157040196A11DA1
:10393000B11D0BC08091540490915504A091560480
:10394000B09157040197A109B10980935404909351
:103950005504A0935604B0935704809151058823D1
:1039600079F040E050E0BA0183E294E0E2D8E091DF
:1039700052050E2E000CFF0BE556FD4F81E08083B3
:10398000089540910302552741950CF45095052E5A
:10399000000C660B770B83E294E0CBD88091020297
:1039A00042EE5FEF481B510987FD5395052E000C31
:1039B000660B770B85E693E0BCC88091030242EE6C
:1039C0005FEF481B510987FD5395052E000C660BD0
:1039D000770B83E294E0ADD84091020255274195E0
:1039E0000CF45095052E000C660B770B85E693E0E2
:1039F000A0C840910302042E000C550B4A505109F7
:103A0000052E000C660B770B83E294E092D8409170
:103A10000202042E000C550B4A505109052E000CD1
:103A2000660B770B85E693E084C81F920F920FB662
:103A30000F9211240BB60F922F933F934F935F93E6
:103A40008F939F93EF93FF939091C60080915605BB
:103A500081110DC0923531F5E091550552E3E59F96
:103A6000F0011124E351FB4F908381E02AC08130A3
:103A7000E1F04091550552E3459F90011124F90171
:103A8000E80FF11D87FDFA95E351FB4F90838F5F9F
:103A900080935605F901E351FB4F92818917A1F0FC
:103AA000843611F5109256051FC09234D9F7E09173
:103AB000550582E3E89FF0011124E351FB4F918308
:103AC00082E08093560510C01092560580915405EF
:103AD000442321F010925505826004C091E0909338
:103AE0005505816080935405A895FF91EF919F91B2
:103AF0008F915F914F913F912F910F900BBE0F903F
:103B00000FBE0F901F9018958091540580FF34C010
:103B10008E7F809354058091EF0450E040E0082EA2
:103B2000000C990B0197252F052E000C330B28173D
:103B300039073CF4F901E351FB4F2081420F5F5FED
:103B4000F2CFFC01E351FB4F8081481302C080E0BB
:103B500035C082E570DC82E46EDC87E06CDC80914D
:103B6000F00469DC8091F10466DC80E064DC909113
:103B7000F0048091F10436C081FF37C08D7F8093BF
:103B800054058091210550E040E0082E000C990B6F
:103B90000197252F052E000C330B281739073CF40D
:103BA000F901E351FB4F22A9420F5F5FF2CFFC0105
:103BB000E351FB4F82A9481303C081E00C946B01D1
:103BC00082E539DC82E437DC87E035DC8091220550
:103BD00032DC809123052FDC80E02DDC90912205E2
:103BE00080912305890F865626CC0895CF92DF92C7
:103BF000EF92FF920F931F93E82FF92F05C001500A
:103C000011092109310961F1908196239417B9F3C3
:103C100005C0015011092109310911F19081962344
:103C20009413F7CFC12CD12CE12CF12C0AC08FEFCB
:103C3000C81AD80AE80AF80A0C151D052E053F0512
:103C400079F080818623841791F36C2D7D2D8E2D44
:103C50009F2D1F910F91FF90EF90DF90CF900895CF
:103C600060E070E080E090E01F910F91FF90EF9096
:103C7000DF90CF9008958091EB049091EC040C9428
:103C80005C26789484B5826084BD84B5816084BDEF
:103C900085B5826085BD85B5816085BD80916E00EA
:103CA000816080936E00109281008091810082601B
:103CB0008093810080918100816080938100809158
:103CC00080008160809380008091B1008460809347
:103CD000B1008091B00081608093B000809191002C
:103CE0008260809391008091910081608093910027
:103CF000809190008160809390008091A10082600B
:103D00008093A1008091A10081608093A1008091A7
:103D1000A00081608093A000809121018260809347
:103D200021018091210181608093210180912001F6
:103D300081608093200180917A00846080937A0072
:103D400080917A00826080937A0080917A0081600D
:103D500080937A0080917A00806880937A00109234
:103D6000C10082E40E94D210EC0161E084E10E9473
:103D70000F10BE0180E090E0B6D520E030E040E7D3
:103D80005CE367D623E333E343E251E45ED61816DF
:103D900014F460E001C061E084E1A9DA8AE090E017
:103DA0003BD490E090930102809300020A9731F493
:103DB00085E250DA84E28093E3040CC083E04ADABF
:103DC0008CE28093E30461E081E10E940F1061E0E6
:103DD00081E18DDA60E083E20E940F108091C000E3
:103DE00082608093C0001092C50080E18093C4007F
:103DF0008091C10080688093C1008091C100806182
:103E00008093C1008091C10088608093C10080913F
:103E1000C20084608093C2008091C200826080935F
:103E2000C20028EC40E060E080E06ADC09DC10922F
:103E30002304109224041092250410922604109258
:103E400065031092660310926703109268038091D5
:103E5000D904883018F469E87CE1D8DC80911B042F
:103E6000883018F461E57CE1D1DC9FE088E10FB691
:103E7000F894A895809360000FBE90936000A89579
:103E800082E5D9DA82E4D7DA86E0D5DA80E0D3DADF
:103E900083E0D1DA8DE9CFDA6CE2C62EDD24D3944B
:103EA000E12CF12C00E010E0C1E0D1E45AE0B52EA5
:103EB000A8952ADE83E294E00E94431685E693E00B
:103EC0000E94431683E2EAD9019711F4C093960247
:103ED00083E2E4D9892B21F4809196028111A2C258
:103EE000809195028823B1F010929502809187020B
:103EF000882381F082E59FDA82E49DDA88E09BDA0C
:103F000080E099DA81E097DA89EF95DA81E093DA57
:103F100087E991DA80919402882309F45DC0809149
:103F2000890290918A02A0918B02B0918C02019635
:103F3000A11DB11D883E23E09207A105B10548F4FB
:103F40008093890290938A02A0938B02B0938C0293
:103F50003BC01092890210928A0210928B0210923A
:103F60008C0282E40E94D210BC0180E090E0BBD4BD
:103F700020E030E040E75CE36CD52B013C0120E021
:103F800030E040E050E461D51816F4F42AE939E94C
:103F900049ED50E4C301B20109D487FF15C082E5A1
:103FA0004ADA82E448DA88E046DA80E044DA82E0FD
:103FB00042DA8DEF40DA81E03EDA8CE93CDA80913A
:103FC00088028F5F80938802809188028A3020F077
:103FD0001092880210929402809193028130A9F08D
:103FE00020F0823009F49FC116C28091D904883034
:103FF00018F469E87CE10ADC80911B04883008F041
:104000000AC261E57CE102DC06C28091D9040E940B
:10401000F01280911B040E94F0121092230410925F
:104020002404109225041092260410926503109225
:1040300066031092670310926803809192028130A8
:1040400021F0823009F4CEC0E6C180918D029091BA
:104050008E02009761F0FC01428150E020918F02B6
:10406000022E000C330B4217530769F025D68FE060
:1040700090E08DD54C0160918F020E945114909276
:104080008E0280928D0280918D0290918E02ECD9E9
:10409000FED32B013C01DC01CB014297A109B10900
:1040A0004B97A105B10558F0D301C2010497A109AE
:1040B000B1090E97A105B10508F082C02FC020E01C
:1040C00040E068EC80E01CDBBBDA9AD2A7019601E5
:1040D000ABD270939A02609399026F3B7105810590
:1040E00091055CF080919802811107C0C0939702FE
:1040F00094D848EC842E912C04C0C093980270D8B8
:10410000F8CFA89501DD62E070E080E090E00E94C9
:104110001611F1E08F1A9108A1F7C6CF20E048EC04
:1041200060E080E0EDDA8CDA6BD2A70196017CD2F8
:1041300070939A02609399026F3B71058105910516
:1041400064F080919802811108C0C093970235DC19
:104150003CE2832E9924939404C0C093980211DC0E
:10416000F7CFA895D1DC62E070E080E090E00E949B
:10417000161121E0821A9108A1F78091990290917D
:104180009A028F3B91055CF080919802811107C0E3
:10419000C093970242D824E6822E912C04C0C0938B
:1041A00098021ED8F8CFA895AFDC62E070E080E0FE
:1041B00090E00E94161181E0881A9108A1F72BC1A6
:1041C000EDE24E1651046104710408F424C110920A
:1041D00097021092980228EC40E060E080E090DACC
:1041E0002FDAF5C080918D0290918E02009761F0D8
:1041F000FC01428150E020918F02022E000C330B13
:104200004217530769F058D58FE090E0C0D44C01B5
:1042100060918F020E94511490928E0280928D02C2
:1042200080918D0290918E021FD931D32B013C01D8
:10423000DC01CB014997A109B1094497A105B1055A
:1042400000F520E040E068EC80E05ADAF9D9D8D1F6
:10425000A7019601E9D170939A02609399026F3B8E
:104260007105810591054CF080919802811105C07E
:10427000C09397020E940D1904C0C09398020E9437
:10428000F018D301C2010797A109B1094297A1050E
:10429000B10538F520E048EC60E080E031DAD0D9B3
:1042A000AFD1A7019601C0D170939A026093990291
:1042B0006F3B7105810591052CF07FDB9EE1892E16
:1042C000912C02C05EDBFACFA8951EDC62E070E0A4
:1042D00080E090E00E941611F1E08F1A9108A1F79A
:1042E0009AC02DE2421651046104710408F493C08F
:1042F000109297021092980228EC40E060E080E073
:10430000FFD99ED976DB84E1882E912CA895FCDB21
:1043100062E070E080E090E00E94161181E0881A6F
:104320009108A1F778C08091D9040E94F012809181
:104330001B040E94F0121092230410922404109285
:1043400025041092260410926503109266031092C1
:1043500067031092680380919002909191020097F8
:1043600061F0FC01428150E020918F02022E000C8E
:10437000330B4217530769F09FD485E090E007D4D0
:104380004C0160918F020E94591590929102809287
:10439000900280919002909191020E943C15D093DE
:1043A0000402D0930302D0930202813049F028F036
:1043B000823079F0833099F02EC0B0929B0207C012
:1043C00080919B02823018F0815080939B0211DB18
:1043D00022C080919B028431D0F78F5FF6CF80910D
:1043E0009B028A3089F44FEB5FEF6FEF7FEF83E240
:1043F00094E00E9499154FEB5FEF6FEF7FEF85E63A
:1044000093E00E94991507C08A3018F40E940D1994
:1044100002C00E94F0180115110509F449CD0E944F
:10442000000044CDC09395021092960259CD809120
:104430005E038033A0F491E0980F90935E03809325
:10444000620390E0FC01EE0FFF1F8E0F9F1FFC0127
:10445000E253FD4F88EB9BE09283818303C08FEF93
:104460008093620380915E038033A0F491E0980F03
:1044700090935E0380935F0390E0FC01EE0FFF1FBB
:104480008E0F9F1FFC01E253FD4F88EB9BE0928350
:10449000818303C08FEF80935F03E8E2F2E0E49151
:1044A000E093E804E2EEF1E0E491F0E0EE0FFF1FAC
:1044B000E853FE4F859194919093E5048093E40432
:1044C00061E080E00E940F1082E090E09093EA04A7
:1044D0008093E90486E090E05AD39093EC048093B3
:1044E000EB04892B19F48DE392E07ED420E030E0D8
:1044F0008091E9049091EA04AC01440F551F840FA8
:10450000951F2817390750F4E091EB04F091EC0463
:10451000E20FF31F10822F5F3F4FEACF84E28093B8
:10452000E30460E083E40E940F1061E086E10E94F2
:104530000F1061E087E10E940F1061E088E10E94A6
:104540000F1060E086E10E94771960E087E10E9429
:10455000771960E088E10E94771961E083E294E0D6
:104560000E94161862E085E693E00C9416188F926C
:104570009F92AF92BF92CF92DF92EF92FF92CF9332
:10458000DF93EC01688179818A819B8161157105D6
:104590008105910521F464E279ED8BE597E02DE149
:1045A00033EF41E050E040D049015A019B01AC019A
:1045B000A7EAB1E455D06B017C01ACEEB4EFA501E4
:1045C00094015AD0DC01CB018C0D9D1DAE1DBF1D89
:1045D000B7FF03C00197A109B04888839983AA83D4
:1045E000BB83BC01CD019F77DF91CF91FF90EF900E
:1045F000DF90CF90BF90AF909F908F900895B7CFEE
:1046000085E192E0B4CF6093150270931602809317
:104610001702909318020895F999FECF92BD81BDBB
:10462000F89A992780B50895052E97FB16F4009403
:104630000FD057FD05D024D007FC02D046F408C0A7
:1046400050954095309521953F4F4F4F5F4F0895BE
:1046500090958095709561957F4F8F4F9F4F0895EE
:1046600031D0A59F900DB49F900DA49F800D911DFA
:1046700011240895B7FFF4CFF3DF821B930B089545
:10468000A1E21A2EAA1BBB1BFD010DC0AA1FBB1F56
:10469000EE1FFF1FA217B307E407F50720F0A21BC8
:1046A000B30BE40BF50B661F771F881F991F1A9435
:1046B00069F760957095809590959B01AC01BD015F
:1046C000CF010895A29FB001B39FC001A39F700DB9
:1046D000811D1124911DB29F700D811D1124911D0A
:1046E00008955058BB27AA270ED075C166D130F067
:1046F0006BD120F031F49F3F11F41EF45BC10EF436
:10470000E095E7FB51C1E92F77D180F3BA17620733
:1047100073078407950718F071F49EF58FC10EF4A6
:10472000E0950B2EBA2FA02D0B01B90190010C01C1
:10473000CA01A0011124FF27591B99F0593F50F4D9
:10474000503E68F11A16F040A22F232F342F442731
:10475000585FF3CF469537952795A795F040539529
:10476000C9F77EF41F16BA0B620B730B840BBAF0F9
:104770009150A1F0FF0FBB1F661F771F881FC2F764
:104780000EC0BA0F621F731F841F48F48795779578
:104790006795B795F7959E3F08F0B3CF9395880F2F
:1047A00008F09927EE0F979587950895D9D008F4CA
:1047B00081E008950CD00FC107D140F0FED030F059
:1047C00021F45F3F19F0F0C0511139C1F3C014D189
:1047D00098F39923C9F35523B1F3951B550BBB27C8
:1047E000AA2762177307840738F09F5F5F4F220F75
:1047F000331F441FAA1FA9F333D00E2E3AF0E0E86E
:1048000030D091505040E695001CCAF729D0FE2FB9
:1048100027D0660F771F881FBB1F2617370748074B
:10482000AB07B0E809F0BB0B802DBF01FF27935801
:104830005F4F2AF09E3F510568F0B6C000C15F3F50
:10484000ECF3983EDCF3869577956795B795F795E9
:104850009F5FC9F7880F911D9695879597F90895E1
:10486000E1E0660F771F881FBB1F6217730784077D
:10487000BA0720F0621B730B840BBA0BEE1F88F78C
:10488000E095089504D06894B111D9C00895BCD0C2
:1048900088F09F5790F0B92F9927B751A0F0D1F029
:1048A000660F771F881F991F1AF0BA95C9F712C0B3
:1048B000B13081F0C3D0B1E00895C0C0672F782F28
:1048C0008827B85F39F0B93FCCF38695779567951F
:1048D000B395D9F73EF490958095709561957F4F8B
:1048E0008F4F9F4F0895E89409C097FB3EF4909531
:1048F0008095709561957F4F8F4F9F4F9923A9F0B9
:10490000F92F96E9BB279395F69587957795679547
:10491000B795F111F8CFFAF4BB0F11F460FF1BC08B
:104920006F5F7F4F8F4F9F4F16C0882311F096E91E
:1049300011C0772321F09EE8872F762F05C06623CC
:1049400071F096E8862F70E060E02AF09A95660F85
:10495000771F881FDAF7880F9695879597F908953E
:10496000990F0008550FAA0BE0E8FEEF1616170680
:10497000E807F907C0F012161306E407F50798F0E8
:10498000621B730B840B950B39F40A2661F0232B01
:10499000242B252B21F408950A2609F4A140A6957D
:1049A0008FEF811D811D089597F99F6780E870E062
:1049B00060E008959FEF80EC089500240A94161695
:1049C000170618060906089500240A9412161306FD
:1049D000140605060895092E0394000C11F488238B
:1049E00052F0BB0F40F4BF2B11F460FF04C06F5FA7
:1049F0007F4F8F4F9F4F089557FD9058440F551F7D
:104A000059F05F3F71F04795880F97FB991F61F050
:104A10009F3F79F087950895121613061406551FC7
:104A2000F2CF4695F1DF08C0161617061806991F33
:104A3000F1CF86957105610508940895E894BB2728
:104A400066277727CB0197F908958ADF08F48FEF5F
:104A500008950BD0C0CFB1DF28F0B6DF18F0952352
:104A600009F0A2CFA7CF1124EACFC6DFA0F3959F0C
:104A7000D1F3950F50E0551F629FF001729FBB2745
:104A8000F00DB11D639FAA27F00DB11DAA1F649FF1
:104A90006627B00DA11D661F829F2227B00DA11DA4
:104AA000621F739FB00DA11D621F839FA00D611D2A
:104AB000221F749F3327A00D611D231F849F600D4B
:104AC000211D822F762F6A2F11249F5750408AF084
:104AD000E1F088234AF0EE0FFF1FBB1F661F771F10
:104AE000881F91505040A9F79E3F510570F05CCF50
:104AF000A6CF5F3FECF3983EDCF3869577956795FC
:104B0000B795F795E7959F5FC1F7FE2B880F911D2D
:104B10009695879597F90895991B79E004C0991F98
:104B2000961708F0961B881F7A95C9F78095089507
:104B300097FB072E16F4009406D077FD08D013D00B
:104B400007FC05D03EF4909581959F4F0895709590
:104B500061957F4F0895EE0FFF1F881F8BBF079051
:104B6000F691E02D1994AA1BBB1B51E107C0AA1FA7
:104B7000BB1FA617B70710F0A61BB70B881F991FFE
:104B80005A95A9F780959095BC01CD010895CF93D2
:104B9000DF938230910510F482E090E0E0915905B6
:104BA000F0915A0520E030E0C0E0D0E0309711F1FC
:104BB0004081518148175907C0F04817590761F4DF
:104BC00082819381209719F09B838A832BC09093D5
:104BD0005A058093590526C02115310519F0421751
:104BE000530718F49A01BE01DF01EF010280F3813F
:104BF000E02DDCCF2115310509F1281B390B2430BC
:104C0000310590F412968D919C9113976115710561
:104C100021F0FB019383828304C090935A05809313
:104C20005905FD01329644C0FD01E20FF31F819347
:104C30009193225031092D933C933AC0209157050E
:104C400030915805232B41F420911B0230911C0216
:104C500030935805209357052091190230911A027C
:104C60002115310541F42DB73EB740911D025091F9
:104C70001E02241B350BE0915705F0915805E217F1
:104C8000F307A0F42E1B3F0B2817390778F0AC016F
:104C90004E5F5F4F2417350748F04E0F5F1F50934C
:104CA0005805409357058193919302C0E0E0F0E0EE
:104CB000CF01DF91CF9108950F931F93CF93DF938F
:104CC000009709F48CC0FC01329713821282009184
:104CD000590510915A050115110581F42081318182
:104CE000820F931F209157053091580528173907D7
:104CF00079F5F0935805E093570571C0D80140E06D
:104D000050E0AE17BF0750F412962D913C911397C7
:104D1000AD012115310509F1D901F3CF9D01DA016A
:104D20003383228360817181860F971F82179307D7
:104D300069F4EC0128813981260F371F2E5F3F4F20
:104D4000318320838A819B8193838283452B29F43D
:104D5000F0935A05E093590542C01396FC93EE93E5
:104D60001297ED01499159919E01240F351FE217C9
:104D7000F30771F480819181840F951F029611963B
:104D80009C938E938281938113969C938E9312971A
:104D9000E0E0F0E0D80112968D919C911397009776
:104DA00019F0F8018C01F6CF8D919C9198012E5F3E
:104DB0003F4F820F931F20915705309158052817B8
:104DC000390769F4309729F410925A051092590561
:104DD00002C0138212821093580500935705DF9189
:104DE000CF911F910F9108950F931F93CF93DF934E
:104DF000E0915D05F0915E05238121FF1BC08C01D0
:104E0000D0E0C0E0F80181918F0160915D05709163
:104E10005E05DB011896ED91FC911997882331F01E
:104E20001995892B79F3DFEFCFEFECCF8AE0199555
:104E3000892B19F08FEF9FEF02C08D2F9C2FDF91F0
:104E4000CF911F910F91089511E0C8E3D1E000E0E8
:104E500005C0802FFE017FDE2196011DC933D107D9
:0A4E600080E00807B1F7F894FFCFD7
:104E6A000A00464646F10EF10EF10EF10EF10EF170
:104E7A000EF10EF10E010000000000610580000035
:104E8A000000001309060712080B0C00002E2D3C27
:104E9A003D3E3F40413A3B38393637050254686552
:104EAA007265206973206E6F7420656E6F7567680E
:0A4EBA00207370616365210D000094
:00000001FF
