:100000000C9463000C948B000C948B000C948B006C
:100010000C948B000C948B000C948B000C948B0034
:100020000C948B000C948B000C948B000C94C70DDB
:100030000C948B000C948B000C948B000C948B0014
:100040000C947D0D0C948B000C9401100C948B007F
:100050000C948B000C948B000C948B000C948B00F4
:100060000C948B000C948B000000000025002800ED
:100070002B000000000023002600290004040404D3
:100080000404040402020202020203030303030342
:10009000010204081020408001020408102001021F
:1000A0000408102000000000240027002A0000009F
:1000B0000008000201000003040700000000000027
:1000C00000007B14751411241FBECFEFD8E0DEBFF3
:1000D000CDBF11E0A0E0B1E0E2E2F2E302C00590A2
:1000E0000D92A233B107D9F722E0A2E3B1E001C03B
:1000F0001D92AD32B207E1F710E0C2E6D0E004C0D5
:100100002197FE010E94A117C136D107C9F70E94AD
:1001100030110C9404190C9400002F923F924F92CE
:100120005F926F927F928F929F92AF92BF92CF9287
:10013000DF92EF92FF920F931F93CF93DF93CDB790
:10014000DEB765970FB6F894DEBF0FBECDBFE82EC1
:10015000F12C12E3D12EDE9C8001DF9C100D1124C6
:1001600002571E4FD80114969C91983109F4A8C2E9
:1001700008F071C0903109F4F3C008F05AC0923011
:1001800009F490C0F0F4913009F0A5C782E580939E
:10019000530182E480935401F801838180935601D6
:1001A00082E0809357019093580185E08093590134
:1001B00088E080935501E3E5F1E080E097E09E0F51
:1001C0006CC0943009F4A8C0953009F084C782E56A
:1001D0008093530182E48093540110925501D80119
:1001E00013968C918093560181E00E94AB0B809313
:1001F000570182E00E94AB0B8093580183E00E947C
:10020000AB0B8093590184E00E94AB0B80935A01A1
:1002100010925B0110925C0110925D0110925E01E0
:100220008DE080935501E3E5F1E080E09CE09E0FD6
:100230008FC0933109F469C138F4913109F4AFC02A
:10024000923109F4F1C047C7943109F47AC196316B
:1002500009F449C140C7933A09F4AEC360F49A3136
:1002600009F492C208F434C2913A09F40EC3923AE6
:1002700009F474C330C7963A09F48BC538F4943A3C
:1002800009F4D1C3953A09F424C425C7973A09F46F
:10029000E2C5983A09F444C61EC72191820F9E1305
:1002A000FCCF3AC682E58093530182E480935401E7
:1002B00010925501D80113968C9113978093560193
:1002C00015968C91823059F024F4813089F481E0C4
:1002D00009C0833031F0843059F484E003C082E0F7
:1002E00001C083E00E94AB0B80935701E5E001C0A1
:1002F000E4E081E08E0F8093550143E551E0DA019F
:1003000090E02D91920F2A2F241B2E17D0F3F0E0AE
:10031000ED5AFE4F9083C5C682E58093530182E477
:1003200080935401F80183818093560181E080938A
:1003300057018093580187E080935501E3E5F1E090
:1003400080E096E09E0F2191820F9E13FCCF80C625
:100350002191820F9E13FCCF80935F018DE0A1C697
:10036000F80185818C3F89F0882341F08B3F09F0AB
:1003700073C620854781668181E00CC02085478156
:10038000668180E00E94840B07C0F80120854781C8
:10039000668180E00E945D0B0E94240B5DC6F8011F
:1003A00085818F3FC1F18823A1F08E3F09F054C6AB
:1003B00082E38E9DF0018F9DF00D1124E257FE4FD8
:1003C0006681062E000C770B880B990B0E948E0A13
:1003D00043C62781022E000C330B440B550B66815C
:1003E000062E000C770B880B990B0E940A0BF80164
:1003F0008681811131C682E38E9DF0018F9DF00DC3
:100400001124E257FE4F8781811126C610924301C5
:100410001092460121C66681062E000C770B880BD0
:10042000990B0E94D20A18C6809141019091420115
:10043000009771F48FE090E00E94A7176C01F8011B
:1004400065810E94460FD0924201C092410123C0B3
:10045000DC0112964C9150E0F8012581022E000C2F
:10046000330B42175307B9F00E943C188FE090E01D
:100470000E94A7178C0182E38E9DF0018F9DF00DE5
:100480001124E257FE4F6581C8010E94460F109368
:1004900042010093410182E38E9DF0018F9DF00D9A
:1004A0001124E257FE4FD084C780B68000914101ED
:1004B0001091420160E4C8010E94150F61EAC80171
:1004C0000E94A60E6B2DC8010E94A60E6C2DC801BD
:1004D0000E94A60E6D2DC8010E94A60EC8010E94A2
:1004E000BD0EA895B9C5D80115968C911597893F71
:1004F00009F0B2C516968C91882321F081E0809393
:100500004001AAC510924001A7C5F8012681878144
:100510009085418535813A3F09F09EC550E0592BC1
:1005200060E070E090E0922B0E941F0A61E08091F1
:1005300052010E945E0C60E0809152010E942E0CDC
:100540008BC580913E0190913F01009749F485E071
:1005500090E00E94A7176C01D80115966C9115C008
:10056000FC01428150E0D80115962C91022E000C1E
:10057000330B4217530781F00E943C1885E090E04E
:100580000E94A7176C01F8016581C6010E94DC0F6B
:10059000D0923F01C0923E0182E38E9DA0018F9DCB
:1005A000500D11244C565E4F00913E0110913F01B9
:1005B00080E090E073E162E1FA01E80FF91F208129
:1005C00030E0322F2227E1812E2BD901AA7ABA7A84
:1005D000B695A79525753575220F331F2A2B3B2B12
:1005E000D901AC7CBC7CFD01F695E795F695E795C5
:1005F00023733373D901AA0FBB1FAA0FBB1FAE2BE6
:10060000BF2B9D01207F307FF90134E0F695E795FF
:100610003A95E1F79D012F703F70A4E0220F331F40
:10062000AA95E1F72E2B3F2B322723273227220FC3
:10063000331F220F331FE72FE81BA1E0B0E0AC0F00
:10064000BD1FAE0FB11DFD012083262F281BE1E049
:10065000F0E0EC0FFD1FE20FF11D308302968431B4
:10066000910509F0A9CFC8010E94E70E67EEC80105
:100670000E94A60E60E0C8010E94A60EFE013196FF
:100680006F0164E1B62EBE0ED6016D916D01962FFD
:100690009373B4E09B9FC00111246C7C66956695B2
:1006A000862B682F6575660F8A7A8695682BC80138
:1006B0000E94A60EBC10E8CFC8010E94BD0ECCC49B
:1006C000F801858180934301868180934601C4C4EB
:1006D00080913C0190913D01009749F485E090E0C4
:1006E0000E94A7176C01D80115966C9115C0FC01EA
:1006F000428150E0D80115962C91022E000C330B4C
:1007000042175307B1F00E943C1885E090E00E9428
:10071000A7176C01F8016581C6010E948D0ED09269
:100720003D01C0923C0183EA8093B00087E0809352
:10073000B10082E38E9DF0018F9DF00D1124E257F0
:10074000FE4F8681813081F08230B1F0811184C406
:10075000D08400913C0110913D016781C8010E9445
:100760007B0E6D2DC8010DC0678180913C01909179
:100770003D010E947B0E70C4678180913C01909185
:100780003D010E94690E68C4D80115966C916130D4
:1007900019F0683009F060C480913A0190913B01F2
:1007A000009741F485E090E06D8B0E94A7178C01C3
:1007B0006D8919C0FC01228130E0062E000C770BF8
:1007C00026173707B9F00E943C1885E090E00E9498
:1007D000A7178C0182E38E9DF0018F9DF00D1124EF
:1007E000E257FE4F6581C8010E94300F10933B0114
:1007F00000933A0182E38E9DF0018F9DF00D11244C
:10080000E257FE4F86818130F1F0823061F1811133
:1008100023C4278180913A0190913B01121614F470
:1008200041E005C0332721950CF4309540E061E0AC
:100830000E94F40982E38E9DF0018F9DF00D11243A
:10084000E257FE4F10C0278180913A0190913B0101
:10085000121614F441E005C0332721950CF43095AD
:1008600040E061E00FC0208580913A0190913B010A
:10087000121614F441E005C0332721950CF430958D
:1008800040E062E00E94F409E7C380914101909149
:100890004201009749F48FE090E00E94A7176C0195
:1008A000D80115966C9115C0FC01428150E0D80129
:1008B00015962C91022E000C330B4217530781F032
:1008C0000E943C188FE090E00E94A7176C01F8018D
:1008D0006581C6010E94460FD0924201C09241013B
:1008E00080914101909142010E94080920E030E08E
:1008F00040E251E40E9400170E9413169B0142E55A
:100900004093530142E44093540142E34E9DF00171
:100910004F9DF00D1124E257FE4F43814093560145
:1009200041E040935701AB0177FF02C041505F4F58
:1009300050935801C90160E071E00E9479178093DB
:10094000590188E080935501E3E5F1E080E097E00C
:100950009E0F2191820F9E13FCCFDEC2D801159607
:100960008C911597893F09F0B6C382E580935301B6
:1009700082E4809354011092550113968C918093D8
:10098000560181E08093570188E00E94050C019791
:1009900019F41092580103C081E08093580187E058
:1009A00080935501E3E5F1E080E096E09E0F219110
:1009B000820F9E13FCCF4CC3F80185818D3F09F057
:1009C0008AC385E10E94FB0C9C01D29EC001D39E8C
:1009D000900D112422E52093530122E42093540129
:1009E000D80113962C912093560121E020935701B2
:1009F0006FEF73E00E947917CB0160E071E00E9415
:100A00007917982F990F890F8093580187E0809369
:100A10005501E3E5F1E080E096E09E0F2191820F21
:100A20009E13FCCF15C3809144019091450100971E
:100A300041F485E090E00E94A7176C01F801658100
:100A400016C0DC0112964C9150E0F8012581022E6F
:100A5000000C330B4217530789F00E943C1885E0C5
:100A600090E00E94A7176C01D80115966C91C60101
:100A70000E94790FD0924501C092440182E5809393
:100A8000530182E4809354011092550182E38E9DBC
:100A9000F0018F9DF00D1124E257FE4F838180936A
:100AA000560181E080935701809144019091450166
:100AB0000E945A0F8093580187E080935501E3E527
:100AC000F1E080E096E09E0F2191820F9E13FCCF13
:100AD000BFC28091380190913901009739F486E0C6
:100AE00090E00E94A717DC01F8011BC0DC01129600
:100AF0004C9150E0F8012581022E000C330B421777
:100B0000530731F10E943C1886E090E00E94A7173D
:100B1000DC0182E38E9DF0018F9DF00D1124E257E0
:100B2000FE4F9581E92FF0E0EE0FFF1FE55FFE4FCE
:100B300080818C93818111968C93119712969C934E
:100B4000129715968C931597B0933901A09338019D
:100B500000913801109139019E012F5F3F4F19011B
:100B600085E0D9011D928A95E9F761E0F801858158
:100B70000E945E0C61E0D80115968C910E942E0CAB
:100B80006AEF70E080E090E00E94370D60E0F801CD
:100B900085810E942E0C64E170E080E090E00E946C
:100BA000370D61E0D80115968C910E942E0C8BE9CF
:100BB00090E00197F1F760E0F80185810E942E0C2A
:100BC00083E290E00197F1F70E94710D2B013C0147
:100BD00062E0D80115968C910E945E0CD8011596A2
:100BE0008C910E94050C019779F00E94710DDC0137
:100BF000CB0184199509A609B7090597A105B10587
:100C000068F3F801138214820E94710D2B013C01DC
:100C100062E0F80185810E945E0CD80115968C91E6
:100C20000E94050C892B61F00E94710DDC01CB0143
:100C300084199509A609B7090597A105B10568F3B7
:100C4000C12CD12C0E94710D2B013C0162E0F801F6
:100C500085810E945E0CF80185810E94050C892B1C
:100C600061F40E94710DDC01CB0184199509A6097C
:100C7000B7090597A105B10570F30E94120D2B016C
:100C80003C010E94710D4B015C0162E0D801159698
:100C90008C910E945E0CD80115968C910E94050CD7
:100CA000019761F40E94710DDC01CB01881999094B
:100CB000AA09BB090597A105B10568F30E94120DA9
:100CC000DC01CB0184199509A609B709F60143E0B7
:100CD000F595E7954A95E1F78997A105B10530F0BB
:100CE000E20DF31D8081880F816004C0E20DF31DC9
:100CF0008081880F8083BFEFCB1ADB0AE8E2CE1633
:100D0000D10409F09FCF59814B812D8130E08A8138
:100D100090E0850F911D840F911D6C81860F911DB0
:100D200099272817390731F4D80113965C93139744
:100D300014964C9382E58093530182E4809354018E
:100D400082E38E9DF0018F9DF00D1124E257FE4F3E
:100D500083818093560181E080935701F80183815C
:100D60008093580110925901848180935A01109206
:100D70005B018AE080935501E3E5F1E080E099E0D2
:100D80009E0F2191820F9E13FCCF80935C018AE01D
:100D900088C18091360190913701009771F0DC0194
:100DA00012964C9150E0F8012581022E000C330B75
:100DB00042175307F9F00E943C1884E090E00E942B
:100DC000A717DC01F8019581E92FF0E0EE0FFF1F76
:100DD000E55FFE4F80818C93818111968C931197F2
:100DE00012969C93129713968C931397B093370196
:100DF000A093360182E58093530182E480935401ED
:100E00001092550182E38E9DF0018F9DF00D11240B
:100E1000E257FE4F83818093560181E08093570112
:100E20000091360110913701C8010E94930F9093F1
:100E30005801C8010E94930F8093590188E0809364
:100E40005501E3E5F1E080E097E09E0F2191820FEC
:100E50009E13FCCF61C080913401909135010097C1
:100E600071F0DC0112964C9150E0F8012581022EC0
:100E7000000C330B42175307F9F00E943C1884E032
:100E800090E00E94A717DC01F8019581E92FF0E0BE
:100E9000EE0FFF1FE55FFE4F80818C9381811196DD
:100EA0008C93119712969C93129713968C93139789
:100EB000B0933501A093340182E58093530182E41D
:100EC000809354011092550182E38E9DF0018F9D15
:100ED000F00D1124E257FE4F83818093560181E08B
:100EE000809357010091340110913501C8010E948F
:100EF0002B0E90935801C8010E942B0E809359012C
:100F000088E080935501E3E5F1E080E097E09E0FF3
:100F10002191820F9E13FCCF80935A0188E0C1C0BB
:100F20008091320190913301009741F585E090E086
:100F30000E94A7176C01D80115962C91E22FF0E0C2
:100F4000EE0FFF1FE55FFE4F8081D6018C939181EC
:100F500011969C93119712962C93129713969C932B
:100F6000139714968C93149713968C9160E00E94BB
:100F70005E0CD0923301C09232013BC0FC01428131
:100F800050E0D80115962C91022E000C330B42171D
:100F9000530779F10E943C1885E090E00E94A71762
:100FA0008C0182E38E9DF0018F9DF00D1124E2579C
:100FB000FE4F2581E22FF0E0EE0FFF1FE55FFE4FB1
:100FC0008081D8018C93918111969C9311971296F0
:100FD0002C93129713969C93139714968C931497B3
:100FE00013968C9160E00E945E0C10933301009385
:100FF000320182E58093530182E480935401109280
:10100000550182E38E9DF0018F9DF00D1124E25772
:10101000FE4F83818093560181E080935701E091D8
:101020003201F091330183810E94050C21E0892B6C
:1010300009F020E02093580187E080935501E3E513
:10104000F1E080E096E09E0F2191820F9E13FCCF8D
:101050008093590187E025C082E58093530182E4A3
:101060008093540182E38E9DF0018F9DF00D112439
:10107000E257FE4F93819093560181E08093570190
:1010800086E080935501E3E5F1E080E025E02E0F56
:101090003191830F2E13FCCF809358019923D9F0FF
:1010A00086E065960FB6F894DEBF0FBECDBFDF9128
:1010B000CF911F910F91FF90EF90DF90CF90BF9055
:1010C000AF909F908F907F906F905F904F903F90E8
:1010D0002F900C94F50865960FB6F894DEBF0FBEFE
:1010E000CDBFDF91CF911F910F91FF90EF90DF90D7
:1010F000CF90BF90AF909F908F907F906F905F90B8
:101100004F903F902F90089584E10E94FB0CAC011A
:10111000092E000C660B770B463D23E05207610554
:10112000710508F047C0403823E05207610571059A
:1011300008F04EC0453523E0520761057105E0F522
:101140004A3223E0520761057105C0F54F3F22E0A6
:10115000520761057105A0F5453D22E05207610582
:101160007105B0F5453922E052076105710550F56A
:10117000433522E052076105710550F5483222E0FF
:1011800052076105710500F54B3E21E052076105EC
:101190007105E0F4473A21E0520761057105C0F49A
:1011A0004C37514061057105A8F4805D91098B971A
:1011B00098F00EC080E0089585E0089589E00895D4
:1011C00086E0089582E0089588E0089583E0089518
:1011D0008FEF089587E0089584E008959091C0000E
:1011E00095FFFCCF8093C60008950F931F93CF9374
:1011F000C82F03E511E0CC2339F0F80181918F016C
:101200000E94EE08C150F7CFCF911F910F91089522
:101210004F925F926F927F929F92AF92BF92CF92C6
:10122000DF92EF92FF920F931F93CF93DF93CDB78F
:10123000DEB728970FB6F894DEBF0FBECDBF7C0196
:10124000CE0101966C015E0199E0A90EB11C9924B2
:1012500093940E94710DF7014780508461847284D9
:10126000DC01CB0184199509A609B7094197A105AD
:10127000B10508F09682F7018681882309F459C0E8
:101280000E94710DF70167837087818792871682AC
:1012900060E4C7010E94150F62EAC7010E94A60E12
:1012A00062EAC7010E94A60E62EAC7010E94A60E6A
:1012B00061E0C7010E94A60EC7010E94BD0EF701A2
:1012C000858160E00E945E0CF701258130E0F90124
:1012D000E057FF4F6491F901E458FF4FE491F0E0CB
:1012E000EE0FFF1FEE58FF4F8591949100E712E635
:1012F00020E030E040E00E94EB10611571058105AF
:10130000910551F02B013C01FFEF4F1A5F0A6F0A64
:101310007F0A2FE0722203C0412C512C3201C301FD
:10132000B2010E944B16F701638774878587968701
:1013300009C0F70163857485858596850E9413161B
:101340002B013C01411451046104710431F484EA1D
:10135000482E88E3582E612C712CC301B2010E94E3
:101360004B1620E030E048E652E40E94A115F60159
:1013700061937193819391936F01A89564E170E0FB
:1013800080E090E00E94370DCA14DB0409F061CFC1
:10139000C980DA80EB80FC807D809E80AF80B8843D
:1013A000272D392DA501B601C7010E94FB1618167D
:1013B0001CF0C72CD92C7501B601C70128960FB6B1
:1013C000F894DEBF0FBECDBFDF91CF911F910F917B
:1013D000FF90EF90DF90CF90BF90AF909F907F9065
:1013E0006F905F904F900895EF92FF921F93CF936D
:1013F000DF9300D0CDB7DEB77C01162F60E52A83DE
:1014000049830E94150F63EAC7010E94A60E612F4F
:10141000C7010E94A60E4981642FC7010E94A60E33
:101420002A81622FC7010E94A60EC7010F900F905C
:10143000DF91CF911F91FF90EF900C94BD0E4F92D2
:101440005F926F927F928F929F92AF92BF92CF9254
:10145000DF92EF92FF920F931F93CF93DF934A0196
:101460005B019C0140E050E060E472E48FE090E0BA
:101470000E94391569017A0161E0809152010E9450
:101480005E0CA8EEB3E0A50194010E9458152B0153
:101490003C01E601D7FC2196D595C7958E01000F3A
:1014A000111F000F111F055011090D2C000CEE0823
:1014B000FF08812C912C540184149504A604B704D0
:1014C000E0F461E0809152010E942E0CC230D105FF
:1014D00018F0C8010197F1F760E0809152010E9475
:1014E0002E0CC230D10518F0C8010197F1F7A8956C
:1014F0008C0C9D1CAE1CBF1CDFCFDF91CF911F91C8
:101500000F91FF90EF90DF90CF90BF90AF909F90A2
:101510008F907F906F905F904F9008956D392FEF6F
:1015200072078207920704F1DC01CB018436910532
:10153000A105B10524F083E690E0A0E0B0E0B7FD9E
:1015400017C06627782F892F9A2F24E630E040E0D5
:1015500050E00E9439153093890020938800109242
:101560008B0010928A0008958DE99FEFAFEFBFEFD7
:10157000B095A095909581959F4FAF4FBF4F66272F
:10158000782F892F9A2F24E630E040E050E00E9427
:10159000391530938B0020938A00109289001092A5
:1015A000880008956D392FEF720782079207D4F0F3
:1015B000DC01CB0184369105A105B10524F083E659
:1015C00090E0A0E0B0E0B7FD11C06627782F892F2A
:1015D0009A2F24E630E040E050E00E94391527BD04
:1015E00018BC08958DE99FEFAFEFBFEFB095A095C0
:1015F000909581959F4FAF4FBF4F6627782F892FCA
:101600009A2F17BC24E630E040E050E00E943915E4
:1016100028BD0895CF93DF9300D000D0CDB7DEB7BB
:1016200029833A834B835C830E94D20A29813A81C1
:101630004B815C81CA01B9010F900F900F900F9000
:10164000DF91CF910C948E0AA0914801B09149018D
:1016500020914C0180914D0190914E01AC01440FBD
:10166000551F840F951F70914F01609150015FB716
:10167000F8944C91322F30953423242BE72FF62FFA
:101680008E0F9F1FE817F90781F0419168E02C93B6
:1016900000C047FF3C93440F00C000C000C008F4E6
:1016A0003C9300C06A9599F7EDCF5FBF789461E0F5
:1016B00070E080E090E00C94370DA82FB0E0E0914E
:1016C0004D01F0914E01AE17BF07E0F4982F990F2E
:1016D000890F90E0E0914F01F0915001E80FF91F60
:1016E0004083E0914F01F0915001E80FF91F6183B1
:1016F00040914F0150915001FA01E80FF91F2283E8
:1017000081E0089580E00895FF920F931F93CF9397
:10171000DF93162F042FF22E811113C0C0E0D0E00A
:1017200080914D0190914E01C817D90740F42F2D9B
:10173000402F612F8C2F0E945D0B2196F1CF81E00D
:1017400004C081500E945D0B80E0DF91CF911F911A
:101750000F91FF9008958230D1F018F4813089F014
:101760000895833021F0843031F560E00BC060E0F3
:1017700087E00E942E0C60E08DE00E942E0C61E05C
:101780000FC061E087E00E942E0C60E005C061E0C0
:1017900087E00E942E0C61E08DE00E942E0C60E03C
:1017A0008CE00E942E0C6AE070E080E090E00E94E5
:1017B000370D0C9484080895833081F028F481302B
:1017C00099F08230A1F008958730A9F08830B9F0FF
:1017D0008430D1F4809180008F7D03C0809180009F
:1017E0008F7780938000089584B58F7702C084B589
:1017F0008F7D84BD08958091B0008F7703C0809164
:10180000B0008F7D8093B0000895CF93DF93282F91
:1018100030E0F901E255FF4F8491F901E057FF4FA5
:10182000D491F901E458FF4FC491CC2391F0811178
:101830000E94DC0BEC2FF0E0EE0FFF1FEE58FF4F85
:10184000A591B491EC91ED2381E090E021F480E04A
:1018500002C080E090E0DF91CF9108951F93CF9375
:10186000DF93282F30E0F901E255FF4F8491F90111
:10187000E057FF4FD491F901E458FF4FC491CC23B6
:10188000C9F0162F81110E94DC0BEC2FF0E0EE0F57
:10189000FF1FE859FF4FA591B4918FB7F89411112C
:1018A00005C09C91ED2FE095E92302C0EC91ED2B52
:1018B000EC938FBFDF91CF911F910895CF93DF936A
:1018C00090E0FC01E057FF4F2491FC01E458FF4FEA
:1018D0008491882361F190E0880F991FFC01EC55F9
:1018E000FF4FC591D491FC01E859FF4FA591B491E8
:1018F000611109C09FB7F89488812095822388835D
:10190000EC912E230BC0623061F49FB7F8943881BC
:10191000822F809583238883EC912E2B2C939FBF5D
:1019200006C08FB7F894E8812E2B28838FBFDF91F4
:10193000CF9108950F931F93CF93DF93EC0160E055
:101940008B810E945E0C61E08B810E942E0C8AE1EB
:101950008A95F1F700C061E08C810E942E0C8AE12B
:101960008A95F1F700C08B810E94050C8C0160E024
:101970008C810E942E0C8AE18A95F1F700C081E0EB
:10198000012B09F480E0DF91CF911F910F91089511
:101990000F931F93CF93DF93EC01062F61E08C81AF
:1019A0000E945E0C61E08B810E945E0C18E007FFD4
:1019B00002C061E001C060E08B810E942E0C8AE1D0
:1019C0008A95F1F700C0000F61E08C810E942E0C17
:1019D0008AE18A95F1F700C060E08C810E942E0CAC
:1019E0008AE18A95F1F700C0115009F7DF91CF9194
:1019F0001F910F9108958E3008F08E50877080648B
:101A000080937C0080917A00806480937A0080913A
:101A10007A0086FDFCCF809178002091790090E0DB
:101A2000922B08953FB7F89480911F029091200265
:101A3000A0912102B091220226B5A89B05C02F3F9C
:101A400019F00196A11DB11D3FBFBA2FA92F982FE4
:101A50008827820F911DA11DB11DBC01CD0142E05F
:101A6000660F771F881F991F4A95D1F708958F92A7
:101A70009F92AF92BF92CF92DF92EF92FF926B0153
:101A80007C010E94120D4B015C01C114D104E104E0
:101A9000F104F1F00E94120DDC01CB0188199909C3
:101AA000AA09BB09883E9340A105B10570F321E066
:101AB000C21AD108E108F10888EE880E83E0981E6A
:101AC000A11CB11CC114D104E104F10419F7DDCF4C
:101AD000FF90EF90DF90CF90BF90AF909F908F904E
:101AE00008952FB7F89460911B0270911C028091A9
:101AF0001D0290911E022FBF08951F920F920FB6E4
:101B00000F9211242F933F938F939F93AF93BF9383
:101B100080911B0290911C02A0911D02B0911E02A7
:101B200030911A0223E0230F2D3720F40196A11DD6
:101B3000B11D05C026E8230F0296A11DB11D2093FB
:101B40001A0280931B0290931C02A0931D02B09373
:101B50001E0280911F0290912002A0912102B0915B
:101B600022020196A11DB11D80931F0290932002B5
:101B7000A0932102B0932202BF91AF919F918F91C8
:101B80003F912F910F900FBE0F901F9018951F92AD
:101B90000F920FB60F9211242F933F938F939F9321
:101BA000EF93FF938091190287FF05C01092850083
:101BB0001092840005C08091190287FD809119025E
:101BC000809119028F5F809319028091190287FF1B
:101BD00020C0809119028C30E4F42091840030916F
:101BE000850080911902082E000C990BFC01EE0F64
:101BF000FF1F8E0F9F1FFC01EB50FE4F81819281D2
:101C0000820F931F9093890080938800809119021E
:101C100017C08091840090918500049680349C497F
:101C200018F480E49CE905C08091840090918500BF
:101C3000049690938900809388008FEF8093190217
:101C4000FF91EF919F918F913F912F910F900FBE38
:101C50000F901F901895AF92BF92CF92DF92EF92A4
:101C6000FF920F931F93CF93DF935C010AE010E084
:101C7000C12CD12C7601C0E0D0E060E0F501838179
:101C80000E945E0CF50183810E94FB0CC817D907E6
:101C900008F4EC01C80ED91EE11CF11C0150110919
:101CA00061F7D701C6018C1B9D0BA109B10923E087
:101CB000B695A795979587952A95D1F7DF91CF91FE
:101CC0001F910F91FF90EF90DF90CF90BF90AF905A
:101CD0000895862F653B30F4611102C087E008C08B
:101CE000643B11F486E204C066E00E946D17885FD1
:101CF0008093B3000895862F653B30F4611102C0D4
:101D000087E008C0643B11F486E204C066E00E94EC
:101D10006D17885F8093B4000895CF93DF93EC0133
:101D2000E62FF0E0EE0FFF1FE55FFE4F8081888316
:101D3000918199836A838B839C8361E00E945E0C0E
:101D400061E08C81DF91CF910C945E0CCF93DF9397
:101D5000EC018FE193E00197F1F700C00000CE01A4
:101D60000E94C80C87E191E00197F1F700C00000E4
:101D7000CE01DF91CF910C949A0CCF93DF93EC01BD
:101D800061E08B810E945E0C60E08C810E942E0CD1
:101D90008AE18A95F1F700C060E08B810E942E0CE9
:101DA0008AE18A95F1F700C061E08C810E942E0CD7
:101DB0008AE18A95F1F700C061E08B810E942E0CC8
:101DC0008AE18A95F1F700C0DF91CF910895CF9312
:101DD000DF93EC0161E08C810E945E0C61E08B81FD
:101DE0000E945E0C61E08B810E942E0C8AE18A9534
:101DF000F1F700C061E08C810E942E0C8AE18A9587
:101E0000F1F700C060E08B810E942E0C8AE18A9578
:101E1000F1F700C060E08C810E942E0C8AE18A9567
:101E2000F1F700C0DF91CF9108950F931F93CF93E7
:101E3000DF931F92CDB7DEB78C0169830E94E70E56
:101E40006981660FC8010E94C80C80EA8A95F1F783
:101E5000C8010F90DF91CF911F910F910C949A0CB4
:101E6000DC01E62FF0E0EE0FFF1FE55FFE4F808103
:101E70008C93918111969C93119712966C93129763
:101E800013969C93139714968C9308950F931F9316
:101E9000CF938C01C62F0E94300FEC2FF0E0EE0F95
:101EA000FF1FE55FFE4F8081F8018583CF911F9171
:101EB0000F9108950F931F93CF93DF93EC018B81C4
:101EC0000E94050C8C018C810E94050CAC0121E064
:101ED00030E0012B11F420E030E0220F331F81E0CD
:101EE000452B09F480E0822BDF91CF911F910F9158
:101EF0000895CF93DF93EC01E62FF0E0EE0FFF1F84
:101F0000E55FFE4F90819883818189836A839B83FB
:101F10008C838B8160E00E945E0C8C8160E0DF919D
:101F2000CF910C945E0C8F929F92AF92BF92CF9202
:101F3000DF92EF92FF920F931F93CF93DF935C0199
:101F40000AE010E0C12CD12C7601C0E0D0E0812C59
:101F500034E0932E60E0F50183810E945E0CF50170
:101F600083810E94FB0C9401281B390BC901C21705
:101F7000D30708F4E901C80ED91EE11CF11C015079
:101F8000110941F7D701C6018C1B9D0BA109B109AD
:101F900023E0B695A795979587952A95D1F7DF9178
:101FA000CF911F910F91FF90EF90DF90CF90BF9056
:101FB000AF909F908F900895CF93DF93EC010E9494
:101FC000300FCE010E94E70E67EECE010E94A60EF2
:101FD00060E8CE010E94A60E64EACE010E94A60E21
:101FE0006AE9CE010E94A60E61E8CE010E94A60E0B
:101FF00063E8CE010E94A60ECE01DF91CF910C9432
:10200000BD0E1F920F920FB60F9211242F933F9384
:102010004F935F938F939F93EF93FF939091C6009D
:102020008091F40181110DC0923531F5E091F301F9
:1020300052E3E59FF0011124E257FE4F908381E0C7
:102040002AC08130E1F04091F30152E3459F9001B5
:102050001124F901E80FF11D87FDFA95E257FE4FB3
:1020600090838F5F8093F401F901E257FE4F9281D4
:102070008917A1F0843611F51092F4011FC0923433
:10208000D9F7E091F30182E3E89FF0011124E257D0
:10209000FE4F918382E08093F40110C01092F4010E
:1020A0008091F201442321F01092F301826004C078
:1020B00091E09093F30181608093F201A895FF91E4
:1020C000EF919F918F915F914F913F912F910F9041
:1020D0000FBE0F901F9018958091F20180FF3AC0BB
:1020E0008E7F8093F2018091900150E040E0082EB5
:1020F000000C990B0197252F052E000C330B281788
:1021000039073CF4F901E257FE4F2081420F5F5F2F
:10211000F2CFFC01E257FE4F8081481302C080E0FD
:102120003BC082E50E94EE0882E40E94EE0887E050
:102130000E94EE08809191010E94EE088091920128
:102140000E94EE0880E00E94EE089091910180913B
:1021500092013CC081FF3EC08D7F8093F20180914F
:10216000C20150E040E0082E000C990B0197252F8A
:10217000052E000C330B281739073CF4F901E25700
:10218000FE4F22A9420F5F5FF2CFFC01E257FE4FE4
:1021900082A9481303C081E00C948D0082E50E945F
:1021A000EE0882E40E94EE0887E00E94EE0880912B
:1021B000C3010E94EE088091C4010E94EE0880E0F5
:1021C0000E94EE089091C3018091C401890F865648
:1021D0000C94EE080895CF92DF92EF92FF920F9346
:1021E0001F93E82FF92F05C001501109210931096A
:1021F00061F1908196239417B9F305C0015011093C
:102200002109310911F1908196239413F7CFC12C44
:10221000D12CE12CF12C0AC08FEFC81AD80AE80A99
:10222000F80A0C151D052E053F0579F080818623DF
:10223000841791F36C2D7D2D8E2D9F2D1F910F9165
:10224000FF90EF90DF90CF90089560E070E080E025
:1022500090E01F910F91FF90EF90DF90CF90089545
:10226000789484B5826084BD84B5816084BD85B571
:10227000826085BD85B5816085BD80916E0081607D
:1022800080936E0010928100809181008260809323
:102290008100809181008160809381008091800025
:1022A0008160809380008091B10084608093B10050
:1022B0008091B00081608093B00080917A0084604A
:1022C00080937A0080917A00826080937A00809176
:1022D0007A00816080937A0080917A008068809390
:1022E0007A001092C10060E088E00E945E0C80914C
:1022F000C00082608093C0001092C50080E180938E
:10230000C4008091C10080688093C1008091C100A9
:1023100080618093C1008091C10088608093C1007A
:102320008091C20084608093C2008091C20082606C
:102330008093C2006CE271E080E090E00E94370D73
:1023400061E0809152010E945E0C60E08091520138
:102350000E942E0C20E040E060E080E00E94840BB0
:10236000E2E9F0E0E491E0934C01EEE7F0E0E49183
:10237000F0E0EE0FFF1FE859FF4F85919491909385
:1023800049018093480161E082E00E945E0C20E0F8
:1023900040E060E080E00E94840B0E94240B6CE22D
:1023A00071E080E090E00E94370D20E040E06EE1B7
:1023B00080E00E94840B0E94240B6CE271E080E0BC
:1023C00090E00E94370D20E04EE160E080E00E9446
:1023D000840B0E94240B6CE271E080E090E00E948C
:1023E000370D2EE140E060E080E00E94840B0E9407
:1023F000240B6CE271E080E090E00E94370D44EF26
:1024000051E060E070E084EF91E00E941F0A61E01B
:1024100085E00E945E0C61E086E00E945E0C61E057
:1024200089E00E945E0C61E08AE00E945E0C61E03F
:1024300083E00E945E0C61E08BE00E945E0C83EA08
:1024400084BD83E085BD99EA9093800080938100EC
:1024500017BC18BC109289001092880010928B0053
:1024600010928A0082E50E94EE0882E40E94EE0843
:1024700086E00E94EE0880E00E94EE0883E00E9461
:10248000EE088DE90E94EE089FE088E10FB6F8940F
:10249000A895809360000FBE90936000A89598EC7B
:1024A000892E912CA12CB12CC0E0D0E011E00AE0E3
:1024B000A8950E946C1088E00E94050C019711F409
:1024C0001093870188E00E94050C892B21F48091EC
:1024D0008701811105C2809186018823F1F0109255
:1024E0008601809140018823C1F082E50E94EE08B8
:1024F00082E40E94EE0888E00E94EE0880E00E94DC
:10250000EE0881E00E94EE0889EF0E94EE0881E06B
:102510000E94EE0887E90E94EE0880918D018823D1
:1025200009F469C08091890190918A01A0918B0181
:10253000B0918C010196A11DB11D883E23E0920748
:10254000A105B10548F48093890190938A01A09375
:102550008B01B0938C0147C01092890110928A01BF
:1025600010928B0110928C0185E10E94FB0CBC0142
:1025700080E090E00E94491620E030E040E75CE314
:102580000E9400176B017C0120E030E040E050E445
:102590000E94FB1618163CF52AE939E949ED50E48A
:1025A000C701B6010E949C1587FF1DC082E50E94ED
:1025B000EE0882E40E94EE0888E00E94EE0880E0C7
:1025C0000E94EE0882E00E94EE088DEF0E94EE0865
:1025D00081E00E94EE088CE90E94EE08809188015B
:1025E0008F5F80938801809188018A3020F010925B
:1025F000880110928D0180914601813041F020F0D8
:10260000823009F4C9C066C10E946C1063C1809118
:10261000410190914201009769F0FC01428150E034
:1026200020914301022E000C330B4217530779F01F
:102630000E943C188FE090E00E94A7177C016091F7
:1026400043010E94460FF0924201E09241018091C5
:102650004101909142010E9408096B017C0120E038
:1026600030E048E452E40E94FB1618164CF427E3CD
:1026700030E040E050E067E370E080E090E003C1CC
:1026800020E030E048EC51E4C701B6010E94FB169F
:1026900087FD32C020E030E048E452E4C701B601D3
:1026A0000E949C15181644F120E040E062E380E0AF
:1026B0000E94840B0E94240B0E942B15A5019401FB
:1026C0000E943915653648F022E630E040E050E0DF
:1026D0006EE97FEF8FEF9FEF08C02EE93FEF4FEFDE
:1026E0005FEF62E670E080E090E00E940A0B6CE22F
:1026F00071E080E090E04CC020E030E0A901C7012B
:10270000B6010E94FB1618160CF0E4C020E030E081
:1027100048EC51E4C701B6010E949C1587FFDAC05E
:1027200020E042E360E080E00E94840B0E94240BE2
:1027300026EA3FEF4FEF5FEF66EA7FEF8FEF9FEF05
:102740000E940A0B60E971E080E090E00E94370D82
:10275000A8950E942B15A50194010E943915653694
:1027600048F022E630E040E050E06EE97FEF8FEF86
:102770009FEF08C02EE93FEF4FEF5FEF62E670E09A
:1027800080E090E00E940A0B6AE872E080E090E04E
:102790000E94370DA8959EC08091440190914501FB
:1027A000009769F0FC01428150E020914301022E24
:1027B000000C330B4217530779F00E943C1885E058
:1027C00090E00E94A7177C01609143010E94790F5D
:1027D000F0924501E09244018091440190914501BD
:1027E0000E945A0F8130A9F028F0823041F18330E5
:1027F000F1F170C02AE230E040E050E06AE270E0BF
:1028000080E090E00E940A0B0093000120E048EC79
:102810003EC02AE230E040E050E06AE270E080E052
:1028200090E00E940A0B80910001823018F08150E4
:102830008093000120E040E068EC80E015C02AE2CF
:1028400030E040E050E06AE270E080E090E00E941A
:102850000A0B80910001843118F48F5F809300018E
:1028600020E040E068EC81E00E945D0B31C0809187
:1028700000018A3071F42EEC3FEF4FEF5FEF6EEC0A
:102880007FEF8FEF9FEF0E940A0B22E340E060E0B2
:102890001CC08A3068F42AE230E040E050E066EA8A
:1028A0007FEF8FEF9FEF0E940A0B20E040E00CC00B
:1028B00026EA3FEF4FEF5FEF6AE270E080E090E0E2
:1028C0000E940A0B22E342E362E380E00E94840B51
:1028D0000E94240B209709F4EBCD0E940000E8CD64
:1028E0001093860110928701F6CD80914F0190914F
:1028F00050010C943C18E0E9F0E0E491E0934C01C5
:10290000ECE7F0E0E491F0E0EE0FFF1FE859FF4F35
:1029100085919491909349018093480161E080E012
:102920000E945E0C82E090E090934E0180934D01F6
:1029300086E090E00E94A7179093500180934F018A
:10294000892B21F485E191E00E94D41820E030E049
:1029500080914D0190914E01AC01440F551F840FA1
:10296000951F2817390750F4E0914F01F09150015D
:10297000E20FF31F10822F5F3F4FEACF84E0809376
:10298000520160E084E10E945E0C61E08CE00E94F4
:102990005E0C61E08DE00E945E0C61E087E00E94C9
:1029A0005E0C60E08CE00E942E0C60E08DE00E94E6
:1029B0002E0C60E087E00C942E0C8F929F92AF92C9
:1029C000BF92CF92DF92EF92FF92CF93DF93EC0111
:1029D000688179818A819B816115710581059105E5
:1029E00021F464E279ED8BE597E02DE133EF41E0EE
:1029F00050E00E94391549015A019B01AC01A7EA38
:102A0000B1E40E9458156B017C01ACEEB4EFA50156
:102A100094010E946615DC01CB018C0D9D1DAE1D3D
:102A2000BF1DB7FF03C00197A109B04888839983F0
:102A3000AA83BB83BC01CD019F77DF91CF91FF902B
:102A4000EF90DF90CF90BF90AF909F908F900895C0
:102A50000E94DD14089581E091E00E94DD14089544
:102A6000609301017093020180930301909304012C
:102A70000895052E97FB1EF400940E94501557FDF3
:102A800007D00E946B1507FC03D04EF40C94501530
:102A900050954095309521953F4F4F4F5F4F08958A
:102AA00090958095709561957F4F8F4F9F4F0895BA
:102AB0000E948D15A59F900DB49F900DA49F800D31
:102AC000911D11240895B7FF0C9458150E945815B4
:102AD000821B930B0895A1E21A2EAA1BBB1BFD01BA
:102AE0000DC0AA1FBB1FEE1FFF1FA217B307E407ED
:102AF000F50720F0A21BB30BE40BF50B661F771F45
:102B0000881F991F1A9469F7609570958095909524
:102B10009B01AC01BD01CF010895A29FB001B39FFD
:102B2000C001A39F700D811D1124911DB29F700DD6
:102B3000811D1124911D08950E94861608F481E0DC
:102B400008950E94B5150C94C1160E94BA1658F04B
:102B50000E94B31640F029F45F3F29F00C94AA16A6
:102B600051110C94F5160C94B0160E94D21668F30D
:102B70009923B1F3552391F3951B550BBB27AA2736
:102B800062177307840738F09F5F5F4F220F331F70
:102B9000441FAA1FA9F335D00E2E3AF0E0E832D038
:102BA00091505040E695001CCAF72BD0FE2F29D03B
:102BB000660F771F881FBB1F261737074807AB070D
:102BC000B0E809F0BB0B802DBF01FF2793585F4F82
:102BD0003AF09E3F510578F00C94AA160C94F51625
:102BE0005F3FE4F3983ED4F3869577956795B79564
:102BF000F7959F5FC9F7880F911D9695879597F96F
:102C00000895E1E0660F771F881FBB1F62177307E7
:102C10008407BA0720F0621B730B840BBA0BEE1FFC
:102C200088F7E09508950E941A166894B1110C94E3
:102C3000F51608950E94DA1688F09F5798F0B92F7C
:102C40009927B751B0F0E1F0660F771F881F991FE1
:102C50001AF0BA95C9F714C0B13091F00E94F41679
:102C6000B1E008950C94F416672F782F8827B85F89
:102C700039F0B93FCCF3869577956795B395D9F739
:102C80003EF490958095709561957F4F8F4F9F4F43
:102C90000895E89409C097FB3EF49095809570954F
:102CA00061957F4F8F4F9F4F9923A9F0F92F96E998
:102CB000BB279395F695879577956795B795F1110D
:102CC000F8CFFAF4BB0F11F460FF1BC06F5F7F4FAA
:102CD0008F4F9F4F16C0882311F096E911C07723BC
:102CE00021F09EE8872F762F05C0662371F096E8C5
:102CF000862F70E060E02AF09A95660F771F881F94
:102D0000DAF7880F9695879597F90895990F000837
:102D1000550FAA0BE0E8FEEF16161706E807F907AD
:102D2000C0F012161306E407F50798F0621B730B48
:102D3000840B950B39F40A2661F0232B242B252BC9
:102D400021F408950A2609F4A140A6958FEF811D6C
:102D5000811D089597F99F6780E870E060E008950D
:102D60009FEF80EC089500240A94161617061806A3
:102D70000906089500240A9412161306140605067F
:102D80000895092E0394000C11F4882352F0BB0F10
:102D900040F4BF2B11F460FF04C06F5F7F4F8F4F73
:102DA0009F4F089557FD9058440F551F59F05F3FAE
:102DB00071F04795880F97FB991F61F09F3F79F05D
:102DC00087950895121613061406551FF2CF4695DF
:102DD000F1DF08C0161617061806991FF1CF869561
:102DE0007105610508940895E894BB276627772745
:102DF000CB0197F908950E94861608F48FEF089585
:102E00000E9413170C94C1160E94B31638F00E944A
:102E1000BA1620F0952311F00C94AA160C94B01653
:102E200011240C94F5160E94D21670F3959FC1F3ED
:102E3000950F50E0551F629FF001729FBB27F00D68
:102E4000B11D639FAA27F00DB11DAA1F649F6627BD
:102E5000B00DA11D661F829F2227B00DA11D621F0C
:102E6000739FB00DA11D621F839FA00D611D221FC6
:102E7000749F3327A00D611D231F849F600D211DAA
:102E8000822F762F6A2F11249F5750409AF0F1F02D
:102E900088234AF0EE0FFF1FBB1F661F771F881F96
:102EA00091505040A9F79E3F510580F00C94AA160E
:102EB0000C94F5165F3FE4F3983ED4F3869577952E
:102EC0006795B795F795E7959F5FC1F7FE2B880F3C
:102ED000911D9695879597F90895991B79E004C0FF
:102EE000991F961708F0961B881F7A95C9F7809549
:102EF000089597FB072E16F4009407D077FD09D0AC
:102F00000E948D1707FC05D03EF4909581959F4F48
:102F10000895709561957F4F0895AA1BBB1B51E1E1
:102F200007C0AA1FBB1FA617B70710F0A61BB70B39
:102F3000881F991F5A95A9F780959095BC01CD01DE
:102F40000895EE0FFF1F0590F491E02D0994CF93A3
:102F5000DF938230910510F482E090E0E091250249
:102F6000F091260220E030E0C0E0D0E0309711F18F
:102F70004081518148175907C0F04817590761F43B
:102F800082819381209719F09B838A832BC0909331
:102F900026028093250226C02115310519F042171B
:102FA000530718F49A01BE01DF01EF010280F3819B
:102FB000E02DDCCF2115310509F1281B390B243018
:102FC000310590F412968D919C91139761157105BE
:102FD00021F0FB019383828304C0909326028093A7
:102FE0002502FD01329644C0FD01E20FF31F8193DB
:102FF0009193225031092D933C933AC020912302A2
:1030000030912402232B41F42091070130910801D3
:103010003093240220932302209105013091060170
:103020002115310541F42DB73EB74091090150916A
:103030000A01241B350BE0912302F0912402E217D0
:10304000F307A0F42E1B3F0B2817390778F0AC01CB
:103050004E5F5F4F2417350748F04E0F5F1F5093A8
:103060002402409323028193919302C0E0E0F0E0B8
:10307000CF01DF91CF9108950F931F93CF93DF93EB
:10308000009709F48CC0FC013297138212820091E0
:103090002502109126020115110581F4208131814C
:1030A000820F931F209123023091240228173907A1
:1030B00079F5F0932402E093230271C0D80140E037
:1030C00050E0AE17BF0750F412962D913C91139724
:1030D000AD012115310509F1D901F3CF9D01DA01C7
:1030E0003383228360817181860F971F8217930734
:1030F00069F4EC0128813981260F371F2E5F3F4F7D
:10310000318320838A819B8193838283452B29F499
:10311000F0932602E093250242C01396FC93EE93AF
:103120001297ED01499159919E01240F351FE21725
:10313000F30771F480819181840F951F0296119697
:103140009C938E938281938113969C938E93129776
:10315000E0E0F0E0D80112968D919C9113970097D2
:1031600019F0F8018C01F6CF8D919C9198012E5F9A
:103170003F4F820F931F2091230230912402281782
:10318000390769F4309729F410922602109225022B
:1031900002C0138212821093240200932302DF9153
:1031A000CF911F910F9108950F931F93CF93DF93AA
:1031B000E0912902F0912A02238121FF1BC08C019A
:1031C000D0E0C0E0F80181918F01609129027091F7
:1031D0002A02DB011896ED91FC911997882331F0B2
:1031E0000995892B79F3DFEFCFEFECCF8AE00995D2
:1031F000892B19F08FEF9FEF02C08D2F9C2FDF914D
:10320000CF911F910F91089510E0C2E6D0E004C065
:10321000FE010E94A1172196C336D107C9F7F89481
:02322000FFCFDE
:103222000A0100000000002D02800000000E0F11B4
:10323200101312030B5468657265206973206E6F58
:103242007420656E6F756768207370616365210D08
:0232520000007A
:00000001FF
