:1000000095C100000C947F3D0C94543D0C94293D07
:100010000C94FE3C0C94D33C0C94A83C0C947D3C7A
:100020000C94523C0C94D43D0C94D43D0C94D43D8F
:10003000AEC10000ACC10000AAC10000A8C1000010
:10004000A6C100000C94B43FA2C10000A0C10000F2
:100050009EC100009CC100009AC100000C94C945DB
:1000600096C100000C94C04392C1000090C10000F2
:100070008EC100008CC100008AC1000088C1000050
:100080000C94873F84C1000082C1000080C1000041
:100090007EC100007CC100007AC1000078C1000070
:1000A00076C1000074C100000C945A3F70C100007A
:1000B0006EC100006CC100006AC100000C942D3FAD
:1000C00066C1000064C1000062C1000060C10000A0
:1000D0005EC100005CC100005AC1000058C10000B0
:1000E00056C10000FD01B102040373031304BE05F1
:1000F000700623078409C807B80C6A0D1B12DA0EB4
:10010000E00FA1105311681297126E137A140E1596
:10011000C31CC31CC31CC31CC31CC31CC31CC31CE7
:10012000C31CC31CAA15D415A31634175B171717C5
:1001300001176C1C1F1860180219D119B91AC31CB9
:10014000071CAF1BBF12F1124D13231328132D13DD
:10015000321337133B134013451349184018421804
:1001600049184B184D184F1855185718DF48EB48C9
:10017000F7483D490549134921492F4967497349C2
:1001800091499F49AF49614A194A614A0A4AF3496C
:10019000264A354A434A534A7C398339603967399C
:1001A0006E3975398A399139C43DBA3DBC3DBE3D81
:1001B000C03DC63DC83DD644D944C844CC44D244D1
:1001C0001045DD44E144E744EB44EF44F544F94491
:1001D000FD441045034507450B45084AD73B3BCE38
:1001E000016E84BCBFFDC12F3D6C74319ABD568336
:1001F0003DDA3D00C77F11BED9E4BB4C3E916BAAEE
:10020000AABE000000803F0000000A0B02090C0D8E
:100210000E080703040100000000000000000000B9
:1002200000000000000000000000000000000000CE
:10023000000000001211100000000000000000008B
:1002400000000000000000000000000000000000AE
:1002500020002300260029002C002F00320000017E
:10026000000003010601090100002200250028000A
:100270002B002E00310034000201000005010801AE
:100280000B0105050505070508080808020202021A
:100290000A0A080804040404010101010101010122
:1002A0000303030303030303040707070C0C0C0CED
:1002B0000C0C0C0C020202020606060606060606D6
:1002C0000B0B0B0B0B0B0B0B010210202008081063
:1002D00020401020408002010201080402010102B6
:1002E000040810204080804020100804020180048F
:1002F00002018040201008040201080402010102EA
:1003000004081020408001020408102040800000F2
:100310002100240027002A002D00300033000101B5
:100320000000040107010A01364F154E11241FBEBB
:10033000CFEFD1E2DEBFCDBF00E00CBF12E0A0E006
:10034000B2E0E8E8FDEA00E00BBF02C007900D92C2
:10035000AA3BB107D9F729E0AAEBB2E001C01D9290
:10036000AB3BB207E1F711E0C5E9D1E000E006C020
:1003700021970109802FFE010E944255C439D107FF
:1003800080E00807A9F70E9458460C94B35638CE6F
:100390002F923F924F925F926F927F928F929F9295
:1003A000AF92BF92CF92DF92EF92FF920F931F9383
:1003B000CF93DF93CDB7DEB762970FB6F894DEBF69
:1003C0000FBECDBF1092A309E82EF12C28EC829F1E
:1003D000F0011124EE5EF74FE4818E2F90E0FC01D6
:1003E000E15AF109E131F10510F00C941B12882754
:1003F000EE58FF4F8F4F0C94425588EC8E9D800134
:100400008F9D100D11240E5E174FD80115968C91FB
:100410000E945D3A029711F00C941B1280915604D1
:1004200090915704009741F480E190E00E945E555E
:100430006C01F801658116C0DC0112964C9150E008
:10044000F8012581022E000C330B4217530789F067
:100450000E94F65580E190E00E945E556C01D80143
:1004600015966C91C6010E947B42D0925704C092AF
:10047000560480915604909157040E94563820E00B
:1004800030E040E251E40E9474540E940E53AB01EC
:100490003091A309E32F032E000CFF0BE052FB4F1A
:1004A00022E52083E1E0E30F0E2E000CFF0BE0526B
:1004B000FB4F22E42083E2E0E30F0E2E000CFF0B43
:1004C000E052FB4F1082E3E0E30F0E2E000CFF0B17
:1004D000E052FB4F28EC2E9DD0012F9DB00D112432
:1004E000AE5EB74F13962C912083E4E0E30F0E2EFF
:1004F000000CFF0BE052FB4F21E02083E5E0E30F0F
:100500000E2E000CFF0BE052FB4FDB0177FF02C009
:10051000A150BF4FB08327E0230FE6E0E30F0E2E7C
:10052000000CFF0BE052FB4FCA0160E071E00E943B
:100530002F55808388E0830F8093E20460E090E091
:10054000022E000C330B462F50E04217530714F0D5
:100550000C940312FA01E052FB4F4081940F6F5F3D
:10056000F2CF88EC8E9DF0018F9DF00D1124EE5E90
:10057000F74F8581893F11F00C941B1282E580931F
:10058000E00482E48093E1041092E204838180938A
:10059000E30485E08093A30911E01093E40483E26F
:1005A0000E949839E091A309019759F481E08E0FD8
:1005B0008093A3090E2E000CFF0BE052FB4F10821C
:1005C0000AC081E08E0F8093A3090E2E000CFF0B52
:1005D000E052FB4F10832091A30981E0820F8093AA
:1005E000E20460E090E0022E000C330B462F50E056
:1005F0004217530714F00C940312FA01E052FB4F18
:100600004081940F6F5FF2CF88EC8E9D80018F9DAB
:10061000100D11240E5E174FF80185818D3F11F0EA
:100620000C941B128DE30E944D4522E3AC01249FE4
:10063000C001259F900D11243091A309E32F032EB3
:10064000000CFF0BE052FB4F22E52083E1E0E30FBB
:100650000E2E000CFF0BE052FB4F22E42083E2E061
:10066000E30F0E2E000CFF0BE052FB4F1082E3E075
:10067000E30F0E2E000CFF0BE052FB4FD801139638
:100680002C912083E4E0E30F0E2E000CFF0BE052D0
:10069000FB4F21E0208326E0230FE5E0E30F0E2E41
:1006A000000CFF0BE052FB4F6FEF73E00E942F55E1
:1006B000862F880F680F608387E0830F8093E204A2
:1006C00060E090E0022E000C330B462F50E0421702
:1006D000530714F00C940312FA01E052FB4F4081CF
:1006E000940F6F5FF2CF8091590490915A04009754
:1006F000B1F485E090E00E945E558C0188EC8E9DFF
:10070000F0018F9DF00D1124EE5EF74F6581C80159
:100710000E94C31E10935A040093590423C0FC0185
:10072000428150E028EC2E9D80012F9D100D112458
:100730000E5E174FD80115962C91022E000C330B2C
:100740004217530779F00E94F65585E090E00E9429
:100750005E556C01F80165810E94C31ED0925A0457
:10076000C09259041091A309E12F012E000CFF0B38
:10077000E052FB4F82E58083E1E0E10F0E2E000C9A
:10078000FF0BE052FB4F82E48083E2E0E10F0E2E8C
:10079000000CFF0BE052FB4F1082E3E0E10F0E2E46
:1007A000000CFF0BE052FB4F88EC8E9DD0018F9D1B
:1007B000B00D1124AE5EB74F13968C918083E4E0A8
:1007C000E10F0E2E000CFF0BE052FB4F81E0808307
:1007D00086E0810F8093A3098091590490915A0477
:1007E0000E94A41EE5E0E10F0E2E000CFF0BE0526C
:1007F000FB4F80832091A30981E0820F8093E20464
:1008000060E090E0022E000C330B462F50E04217C0
:10081000530714F00C940312FA01E052FB4F40818D
:10082000940F6F5FF2CF88EC8E9D80018F9D100D2D
:1008300011240E5E174FD80115968C910E945D3AD7
:10084000069711F00C941B1280915204909153045E
:10085000009771F0FC01428150E0D80115962C916F
:10086000022E000C330B42175307D1F00E94F655AD
:1008700086E090E00E945E556C01F8011581612FC1
:100880000E94F91CE12FF0E0EE0FFF1FE557FD4F2E
:100890008181D60115968C93D0925304C092520454
:1008A0000091520410915304FE0131961F0185E01E
:1008B000DF011D928A95E9F761E0F80185810E94C8
:1008C000114561E0D80115968C910E94C1396AEFFB
:1008D00070E080E090E00E94914560E0F801858141
:1008E0000E94C13964E170E080E090E00E9491458F
:1008F00061E0D80115968C910E94C1398BE990E096
:100900000197F1F760E0F80185810E94C13983E227
:1009100090E00197F1F70E94AF444B015C0162E067
:10092000D80115968C910E941145F80185810E948D
:100930009839019791F00E94AF44DC01CB018819EE
:100940009909AA09BB090597A105B10570F3D8015A
:1009500013961C92139714961C920E94AF444B015D
:100960005C0162E0F80185810E941145D80115966D
:100970008C910E949839892B19F4C12CD12C53C029
:100980000E94AF44DC01CB0188199909AA09BB096F
:100990000597A105B10550F3F0CF0E94AF44DC01EB
:1009A000CB0188199909AA09BB090597A105B105C9
:1009B00038F4D80115968C910E949839892B69F3E7
:1009C0000E946C454B015C010E94AF442B013C012D
:1009D00062E0F80185810E941145D80115968C913D
:1009E0000E949839019749F10E946C45DC01CB01C6
:1009F00088199909AA09BB09F60153E0F595E7950D
:100A00005A95E1F78997A105B10520F1E20DF31D93
:100A10008081880F81608083BFEFCB1ADB0AE8E218
:100A2000CE16D104E1F00E94AF444B015C0162E0BC
:100A3000F80185810E941145BCCF0E94AF44DC01C2
:100A4000CB0184199509A609B7090597A105B10538
:100A500020F2CACFE20DF31D8081880FDCCF5981CF
:100A60004B812D8130E06A81852F90E0860F911DAA
:100A7000840F911D6C81860F911D992728173907C6
:100A800031F4D80113965C93139714964C9380918C
:100A9000A309E82F082E000CFF0BE052FB4F92E554
:100AA0009083E1E0E80F0E2E000CFF0BE052FB4FAD
:100AB00092E49083E2E0E80F0E2E000CFF0BE05270
:100AC000FB4F1082E3E0E80F0E2E000CFF0BE0520C
:100AD000FB4F98EC9E9DD0019F9DB00D1124AE5E02
:100AE000B74F13969C919083E4E0E80F0E2E000C14
:100AF000FF0BE052FB4F91E09083A0915204B09124
:100B00005304E5E0E80F0E2E000CFF0BE052FB4F04
:100B100013969C9113979083E6E0E80F0E2E000C3D
:100B2000FF0BE052FB4F1082E7E0E80F0E2E000CA7
:100B3000FF0BE052FB4F14969C91908329E0280F05
:100B4000E8E0E80F0E2E000CFF0BE052FB4F108286
:100B5000865F8093E20460E090E0022E000C330B8D
:100B6000462F50E04217530714F00C940312FA0179
:100B7000E052FB4F4081940F6F5FF2CF80915004A1
:100B8000909151040097B1F484E090E00E945E558A
:100B90008C0188EC8E9DF0018F9DF00D1124EE5E8E
:100BA000F74F6581C8010E943E40109351040093A5
:100BB000500423C0FC01428150E028EC2E9D8001AE
:100BC0002F9D100D11240E5E174FD80115962C91F4
:100BD000022E000C330B4217530779F00E94F65592
:100BE00084E090E00E945E556C01F80165810E94EE
:100BF0003E40D0925104C09250041091A309E12FBD
:100C0000012E000CFF0BE052FB4F82E58083E1E0F8
:100C1000E10F0E2E000CFF0BE052FB4F82E48083AD
:100C2000E2E0E10F0E2E000CFF0BE052FB4F1082B2
:100C3000E3E0E10F0E2E000CFF0BE052FB4F88ECBF
:100C40008E9DD0018F9DB00D1124AE5EB74F1396CF
:100C50008C918083E4E0E10F0E2E000CFF0BE0523C
:100C6000FB4F81E0808386E0810F8093A309809110
:100C70005004909151040E94F11EE5E0E10F0E2E08
:100C8000000CFF0BE052FB4F90831091A30981E011
:100C9000810F8093A30980915004909151040E9488
:100CA000F11EE12F110FFF0BE052FB4F80832091CB
:100CB000A30981E0820F8093E20460E090E0022EBD
:100CC000000C330B462F50E04217530714F00C94DE
:100CD0000312FA01E052FB4F4081940F6F5FF2CF95
:100CE00080914E0490914F040097B1F484E090E01D
:100CF0000E945E558C0188EC8E9DF0018F9DF00D59
:100D00001124EE5EF74F6581C8010E943E401093AA
:100D10004F0400934E0424C0DC0112964C9150E025
:100D200028EC2E9D80012F9D100D11240E5E174F73
:100D3000F8012581022E000C330B4217530781F076
:100D40000E94F65584E090E00E945E556C01D80147
:100D500015966C910E943E40D0924F04C0924E0472
:100D60001091A309E12F012E000CFF0BE052FB4F65
:100D700082E58083E1E0E10F0E2E000CFF0BE052D4
:100D8000FB4F82E48083E2E0E10F0E2E000CFF0BAC
:100D9000E052FB4F1082E3E0E10F0E2E000CFF0B40
:100DA000E052FB4F88EC8E9DD0018F9DB00D112439
:100DB000AE5EB74F13968C918083E4E0E10F0E2E68
:100DC000000CFF0BE052FB4F81E0808386E0810F37
:100DD0008093A30980914E0490914F040E94074094
:100DE000E5E0E10F0E2E000CFF0BE052FB4F90836D
:100DF0001091A30981E0810F8093A30980914E0493
:100E000090914F040E940740E12F110FFF0BE05219
:100E1000FB4F80832091A30981E0820F8093E2043D
:100E200060E090E0022E000C330B462F50E042179A
:100E3000530714F00C940312FA01E052FB4F408167
:100E4000940F6F5FF2CF809148049091490400970E
:100E5000B1F485E090E00E945E558C0188EC8E9D97
:100E6000F0018F9DF00D1124EE5EF74F6581C801F2
:100E70000E94341D109349040093480423C0FC01D0
:100E8000428150E028EC2E9D80012F9D100D1124F1
:100E90000E5E174FD80115962C91022E000C330BC5
:100EA0004217530779F00E94F65585E090E00E94C2
:100EB0005E556C01F80165810E94341DD092490491
:100EC000C09248041091A309E12F012E000CFF0BE2
:100ED000E052FB4F82E58083E1E0E10F0E2E000C33
:100EE000FF0BE052FB4F82E48083E2E0E10F0E2E25
:100EF000000CFF0BE052FB4F1082E3E0E10F0E2EDF
:100F0000000CFF0BE052FB4F88EC8E9DD0018F9DB3
:100F1000B00D1124AE5EB74F13968C918083E4E040
:100F2000E10F0E2E000CFF0BE052FB4F81E080839F
:100F300086E0810F8093A309E0914804F091490471
:100F400083810E949839E5E0E10F0E2E000CFF0B23
:100F5000E052FB4F21E0892B09F020E02083209113
:100F6000A30981E0820F8093E20460E090E0022E0A
:100F7000000C330B462F50E04217530714F00C942B
:100F80000312FA01E052FB4F4081940F6F5FF2CFE2
:100F900028EC2E9DC0012F9D900D11249C012E5EEA
:100FA000374F6901D90115968C910E945D3A0D97D2
:100FB00011F00C941B12E0914204F091430430971D
:100FC000E1F4F60185810E945D3A0D9709F04BC06E
:100FD0008BE090E00E945E558C01D60115966C91D5
:100FE0000E945F42F80116828BEE90E09287818723
:100FF00081E090E0908787832FC0D60115968C9171
:10100000228130E0482F082E000C550B241735079D
:1010100051F10E945D3A0D9731F580914204909113
:1010200043040E94F6558BE090E00E945E558C01CF
:10103000F60165810E945F42D80116961C921697B0
:101040008BEE90E01A969C938E93199781E090E036
:1010500018969C938E931797109343040093420421
:10106000C8010E949D2428EC2E9DC0012F9D900D4B
:101070001124FC01EE5EF74F5F01D680F1E0DF1234
:10108000A8C08E010F5E1F4F9E012F5F3F4FAE0124
:10109000435F5F4FBE01615F7F4F8091420490913B
:1010A00043040E94FC248091A309E82F082E000C21
:1010B000FF0BE052FB4F92E59083E1E0E80F0E2E2C
:1010C000000CFF0BE052FB4F92E49083E2E0E80F4C
:1010D0000E2E000CFF0BE052FB4F1082E3E0E80FF6
:1010E0000E2E000CFF0BE052FB4FD50113969C9186
:1010F0009083E4E0E80F0E2E000CFF0BE052FB4F54
:10110000D082E5E0E80F0E2E000CFF0BE052FB4F03
:10111000D0829F852889E6E0E80F0E2E000CFF0B99
:10112000E052FB4F2083E7E0E80F0E2E000CFF0B90
:10113000E052FB4F90839D852E85E8E0E80F0E2E50
:10114000000CFF0BE052FB4F2083E9E0E80F0E2E6E
:10115000000CFF0BE052FB4F908399812A81EAE05B
:10116000E80F0E2E000CFF0BE052FB4F2083EBE04C
:10117000E80F0E2E000CFF0BE052FB4F9083998975
:101180002A89ECE0E80F0E2E000CFF0BE052FB4F1B
:1011900020832EE0280FEDE0E80F0E2E000CFF0B51
:1011A000E052FB4F9083815F8093E20460E090E027
:1011B000022E000C330B462F50E04217530714F059
:1011C0000C940312FA01E052FB4F4081940F6F5FC1
:1011D000F2CFB2E0DB120C941B12609042047090CC
:1011E000430446E0942EA12CB12CC12CD12C8E01AD
:1011F0000F5F1F4F9E01235F3F4FAE01415F5F4F67
:10120000BE016F5E7F4FC3010E94FC2489819A81D9
:10121000C816D90608F46C01A80EB91E9A9491104C
:10122000E6CFC5018C199D09AC0156954795569599
:1012300047955A8349838091A309E82F082E000C13
:10124000FF0BE052FB4F22E52083E1E0E80F0E2E7A
:10125000000CFF0BE052FB4F22E42083E2E0E80F9A
:101260000E2E000CFF0BE052FB4F1082E3E0E80F64
:101270000E2E000CFF0BE052FB4F28EC2E9DD001F0
:101280002F9DB00D1124AE5EB74F13962C91208385
:10129000E4E0E80F0E2E000CFF0BE052FB4F21E0C4
:1012A0002083E5E0E80F0E2E000CFF0BE052FB4F11
:1012B00022E02083E6E0E80F0E2E000CFF0BE05248
:1012C000FB4F96959695908328E0280FE7E0E80F6E
:1012D0000E2E000CFF0BE052FB4F4083875F809384
:1012E000E20460E090E0022E000C330B462F50E049
:1012F0004217530714F00C940312FA01E052FB4F0B
:101300004081940F6F5FF2CF28EC2E9DC0012F9D7E
:10131000900D1124FC01EE5EF74F6F0185810E9454
:101320005D3A0E9711F00C941B12D60115968C9114
:1013300085300CF08EC1E0914004F091410430976B
:1013400029F40E945D3A0E9779F513C0228130E0AE
:10135000482F082E000C550B2417350729F10E9441
:101360005D3A0E9709F580914004909141040E94E6
:10137000F65584E490E00E945E558C01F60165818B
:101380000E945F4281E0D80115968C93F801EE5BD4
:10139000FF4F88E690E0918380831093410400938F
:1013A0004004C8010E94D94F8091400490914104AB
:1013B0000E94C31F1091A309E12F012E000CFF0B07
:1013C000E052FB4F82E58083E1E0E10F0E2E000C3E
:1013D000FF0BE052FB4F82E48083E2E0E10F0E2E30
:1013E000000CFF0BE052FB4F1082E3E0E10F0E2EEA
:1013F000000CFF0BE052FB4F88EC8E9DD0018F9DBF
:10140000B00D1124AE5EB74F13968C911397808365
:10141000E4E0E10F0E2E000CFF0BE052FB4F81E0E9
:10142000808306E0010F0093A30916968C91E5E0F6
:10143000E10F0E2E000CFF0BE052FB4F808381303A
:1014400009F0EFC0A0904004B0904104F5018285FE
:101450009385A485B585BC01CD01905820E030E08E
:1014600048EC52E40E9474540E940E532B013C013C
:10147000F50186859785A089B189BC01CD01905879
:1014800020E030E048EC52E40E9474540E940E5375
:101490006B017C0120E030E048EC52E4D50152962B
:1014A0006D917D918D919C9155970E9474540E94ED
:1014B0000E53AB01BC01802F000F990B07E0010F09
:1014C000A9E0A10F185F9201141415041604170463
:1014D0005CF057FE04C022273327241935098052B7
:1014E0009B4FFC0110820BC057FE04C022273327FC
:1014F0002419350980529B4FB1E0FC01B083E02FE5
:10150000000FFF0BE052FB4F4901330FAA08BB0845
:101510009082A093A309E12F110FFF0BE052FB4F24
:101520002083E091A309C6011C141D041E041F049E
:1015300074F0D7FE04C0882799278C199D09AE2F17
:101540000E2E000CBB0BA052BB4F1C920EC0D7FE40
:1015500004C0882799278C199D09AE2F0E2E000CE8
:10156000BB0BA052BB4F21E02C93A1E0AE0F0A2E83
:10157000000CBB0BA052BB4F8C01990F220B330BFD
:101580001C9393E09E0F9093A309EE5F0E2E000C28
:10159000FF0BE052FB4F8083E091A30977FD1CC055
:1015A000AE2F0E2E000CBB0BA052BB4F81E08C93D4
:1015B000A1E0AE0F0A2E000CBB0BA052BB4F5C93F8
:1015C00083E08E0F8093A309EE5F0E2E000CFF0BBD
:1015D000E052FB4F408325C0CA0157FF04C0882753
:1015E0009927841B950BAE2F0E2E000CBB0BA0521F
:1015F000BB4F1C92A1E0AE0F0A2E000CBB0BA052F9
:10160000BB4FAC01990F660B770B5C9393E09E0F79
:101610009093A309EE5F0E2E000CFF0BE052FB4FE0
:1016200080832091A30981E0820F8093E20460E02F
:1016300090E0022E000C330B462F50E04217530768
:101640000CF0E1C6FA01E052FB4F4081940F6F5F4E
:10165000F3CFE0913E04F0913F04309729F40E94CB
:101660005D3A0E9771F513C0228130E0482F082EA5
:10167000000C550B2417350721F10E945D3A0E9797
:1016800001F580913E0490913F040E94F65584E458
:1016900090E00E945E558C01D60115966C910E94D7
:1016A0005F4281E0F8018583EE5BFF4F88E690E0C2
:1016B0009183808310933F0400933E04C8010E94ED
:1016C000D94F80913E0490913F040E94C31F109116
:1016D000A309E12F012E000CFF0BE052FB4F82E526
:1016E0008083E1E0E10F0E2E000CFF0BE052FB4F78
:1016F00082E48083E2E0E10F0E2E000CFF0BE0524B
:10170000FB4F1082E3E0E10F0E2E000CFF0BE052C6
:10171000FB4F88EC8E9DD0018F9DB00D1124AE5EE5
:10172000B74F13968C9113978083E4E0E10F0E2E50
:10173000000CFF0BE052FB4F81E0808306E0010FBD
:101740000093A30916968C91E5E0E10F0E2E000C94
:10175000FF0BE052FB4F8083813009F0F1C0A09075
:101760003E04B0903F04F50182859385A485B5853C
:10177000BC01CD01905820E030E048EC52E40E94DA
:1017800074540E940E532B013C01F5018685978508
:10179000A089B189BC01CD01905820E030E048EC2F
:1017A00052E40E9474540E940E536B017C0120E0AD
:1017B00030E048EC52E4D50152966D917D918D91C7
:1017C0009C9155970E9474540E940E53AB01BC012A
:1017D000802F000F990BF7E0F10F09E0010FE8E00F
:1017E000E10F920114141504160417045CF057FE5F
:1017F00004C0222733272419350980529B4FDC016E
:101800001C920BC057FE04C0222733272419350928
:1018100080529B4F11E0DC011C938F2FFF0F990B1F
:1018200080529B4F4901330FAA08BB08DC019C92F0
:101830000093A3090E2E000CFF0BE052FB4F2083F8
:10184000E091A309C6011C141D041E041F0474F0BA
:10185000D7FE04C0882799278C199D09AE2F0E2E1C
:10186000000CBB0BA052BB4F1C920EC0D7FE04C095
:10187000882799278C199D09AE2F0E2E000CBB0BC3
:10188000A052BB4F21E02C93A1E0AE0F0A2E000C1A
:10189000BB0BA052BB4F8C01990F220B330B1C9337
:1018A00093E09E0F9093A309EE5F0E2E000CFF0BAA
:1018B000E052FB4F8083E091A30977FD1CC0AE2F5F
:1018C0000E2E000CBB0BA052BB4F81E08C93A1E00D
:1018D000AE0F0A2E000CBB0BA052BB4F5C9383E0F3
:1018E0008E0F8093A309EE5F0E2E000CFF0BE052CB
:1018F000FB4F408325C0CA0157FF04C088279927A2
:10190000841B950BAE2F0E2E000CBB0BA052BB4FB1
:101910001C92A1E0AE0F0A2E000CBB0BA052BB4FD5
:10192000AC01990F660B770B5C9393E09E0F90933D
:10193000A309EE5F0E2E000CFF0BE052FB4F8083DD
:101940002091A30981E0820F8093E20460E090E09F
:10195000022E000C330B462F50E0421753070CF0B9
:1019600052C5FA01E052FB4F4081940F6F5FF3CFF5
:101970008091BE029091BF02009779F488E090E0D8
:101980000E945E558C0188EC8E9DF0018F9DF00DBC
:101990001124EE5EF74F65811FC0DC0112964C9159
:1019A00050E068EC6E9D90016F9D300D1124F9019F
:1019B000EE5EF74F6F012581022E000C330B4217AC
:1019C0005307B1F00E94F65588E090E00E945E5502
:1019D0008C01D60115966C91C8010E945F4281E08E
:1019E000F8018583178216821093BF020093BE020E
:1019F0001091A309E12F012E000CFF0BE052FB4FC9
:101A000082E58083E1E0E10F0E2E000CFF0BE05237
:101A1000FB4F82E48083E2E0E10F0E2E000CFF0B0F
:101A2000E052FB4F1082E3E0E10F0E2E000CFF0BA3
:101A3000E052FB4F88EC8E9DD0018F9DB00D11249C
:101A4000AE5EB74F13968C918083E4E0E10F0E2ECB
:101A5000000CFF0BE052FB4F81E0808386E0810F9A
:101A60008093A3098091BE029091BF020E9406421A
:101A7000E5E0E10F0E2E000CFF0BE052FB4F9083D0
:101A80001091A30981E0810F8093A3098091BE0288
:101A90009091BF020E940642E12F110FFF0BE0520E
:101AA000FB4F80832091A30981E0820F8093E204A1
:101AB00060E090E0022E000C330B462F50E04217FE
:101AC00053070CF0A0C4FA01E052FB4F4081940F81
:101AD0006F5FF3CF8091380490913904009771F4CF
:101AE00089E090E00E945E556C0188EC8E9DF001CB
:101AF0008F9DF00D1124EE5EF74F1CC0FC0142815A
:101B000050E028EC2E9D80012F9D100D11240E5EBB
:101B1000174FD80115962C91022E000C330B42174B
:101B20005307F9F00E94F65589E090E00E945E5557
:101B30006C01F8011581612FC6010E94F91CE12F8B
:101B4000F0E0EE0FFF1FE557FD4F8081D6011496A0
:101B50008C931497818115968C93D0923904C092FE
:101B6000380488EC8E9DF0018F9DF00D1124EE5EFF
:101B7000F74F86810091380410913904813019F4AF
:101B8000F801648105C0823031F4D80115966C915A
:101B9000C8010E94E13F6801B6E0CB0ED11CC6012E
:101BA0000E94531D811104C060E070E0CB0178C039
:101BB0006CECC6010E948B3764E4C6010E948B372F
:101BC0000E94AF442B013C0193E2A92EB12CF801F5
:101BD00026810780F085E02D9181822F80959823C2
:101BE0009183C5010197F1F78081822309F414C420
:101BF000C6010E94531D6CECC6010E948B376EEB30
:101C0000C6010E948B379E012F5F3F4F29016E0155
:101C100036E0C30ED11C67E070E043E250E08FEC89
:101C2000A82EB12C88E090E0812C77247394D80101
:101C300016966C9016971796ED91FC911897F8945C
:101C40002181262921832281962C90942921228387
:101C5000DB011197F1F7218192229182DA0111972C
:101C6000F1F720817894F5013197F1F7622209F0BC
:101C70008728770C0197D9F6F20181922F01CE16B1
:101C8000DF0681F669817A81072E000C880B990B9B
:101C90000E94415320E030E040E85DE30E9474542C
:101CA00020E030E048EC52E40E9474544B015C01A7
:101CB0001091A309E12F012E000CFF0BE052FB4F06
:101CC00082E58083E1E0E10F0E2E000CFF0BE05275
:101CD000FB4F82E48083E2E0E10F0E2E000CFF0B4D
:101CE000E052FB4F1082E3E0E10F0E2E000CFF0BE1
:101CF000E052FB4F88EC8E9DD0018F9DB00D1124DA
:101D0000AE5EB74F13968C91808305E0010FE4E03F
:101D1000E10F0E2E000CFF0BE052FB4FFF24F3945B
:101D2000F08220E030E0A901C501B4010E946954AD
:101D30001A5F202F000F330B1093A309F901E05213
:101D4000FB4F87FD02C0F08201C010821091A309F1
:101D5000C501B4010E940E53AB0177FF04C04427B4
:101D60005527461B570BE12F012E000CFF0BE052AD
:101D7000FB4F508322E0210FE1E0E10F0E2E000C1B
:101D8000FF0BE052FB4F408383E0810F8093E2041E
:101D900060E090E0022E000C330B462F50E042171B
:101DA00053070CF030C3FA01E052FB4F4081940F0F
:101DB0006F5FF3CF80913604909137040097B1F4B0
:101DC00085E090E00E945E558C0188EC8E9DF001CC
:101DD0008F9DF00D1124EE5EF74F6581C8010E94C2
:101DE0004F1F109337040093360424C0DC01129671
:101DF0004C9150E028EC2E9D80012F9D100D112458
:101E00000E5E174FF8012581022E000C330B42178E
:101E1000530781F00E94F65585E090E00E945E55E0
:101E20006C01D80115966C910E944F1FD092370417
:101E3000C0923604009136041091370460E0F80136
:101E400083810E941145D80113968C910E944D45C3
:101E50002091BA023091BB028A5E91408C01020F40
:101E6000131FC0903604D090370460E0F6018481DF
:101E70000E941145D60114968C910E944D452091E7
:101E8000BC023091BD028A5E9140280F391F9091AB
:101E9000A309E92F092E000CFF0BE052FB4F82E54E
:101EA0008083E1E0E90F0E2E000CFF0BE052FB4FA8
:101EB00082E48083E2E0E90F0E2E000CFF0BE0527B
:101EC000FB4F1082E3E0E90F0E2E000CFF0BE052F7
:101ED000FB4F88EC8E9DD0018F9DB00D1124AE5E1E
:101EE000B74F13968C91808345E0490FE4E0E90FEA
:101EF0000E2E000CFF0BE052FB4F81E080839A5FB7
:101F0000042E000C550B9093A309FA01E052FB4FED
:101F100017FD82E080834091A309C80117FF03C029
:101F2000919581959109E42F042E000CFF0BE0524E
:101F3000FB4F9083E2E0E40FE093A309A1E0A40F3C
:101F40000A2E000CBB0BA052BB4F8C9337FD0AC06E
:101F50004D5F4093A3090E2E000CFF0BE052FB4F88
:101F600081E080839091A30937FF03C031952195CB
:101F70003109E92F092E000CFF0BE052FB4F308393
:101F800032E0390FE1E0E90F0E2E000CFF0BE052BA
:101F9000FB4F208383E0890F8093E20460E090E0B0
:101FA000232F330F330B462F50E0421753070CF00B
:101FB0002AC2FA01E052FB4F4081940F6F5FF3CFCA
:101FC00080913404909135040097B1F485E090E05D
:101FD0000E945E558C0188EC8E9DF0018F9DF00D66
:101FE0001124EE5EF74F6581C8010E944F1F1093C8
:101FF00035040093340423C0FC01428150E028ECF6
:102000002E9D80012F9D100D11240E5E174FD801BB
:1020100015962C91022E000C330B4217530779F0C2
:102020000E94F65585E090E00E945E556C01F80133
:1020300065810E944F1FD0923504C09234041091E4
:10204000A309E12F012E000CFF0BE052FB4F82E5AC
:102050008083E1E0E10F0E2E000CFF0BE052FB4FFE
:1020600082E48083E2E0E10F0E2E000CFF0BE052D1
:10207000FB4F1082E3E0E10F0E2E000CFF0BE0524D
:10208000FB4F88EC8E9DD0018F9DB00D1124AE5E6C
:10209000B74F13968C918083E4E0E10F0E2E000C75
:1020A000FF0BE052FB4F81E0808386E0810F80933D
:1020B000A309E0903404F090350460E0D701149651
:1020C0008C910E941145F70184810E944D45E5E005
:1020D000E10F0E2E000CFF0BE052FB4F908310918E
:1020E000A30981E0810F8093A309E0903404F0906C
:1020F000350460E0D70114968C910E941145F701D8
:1021000084810E944D45E12F110FFF0BE052FB4FE0
:1021100080832091A30981E0820F8093E20460E034
:1021200090E0022E000C330B462F50E0421753076D
:102130000CF069C1FA01E052FB4F4081940F6F5FD0
:10214000F3CF80913204909133040097B1F484E08E
:1021500090E00E945E558C0188EC8E9DF0018F9D71
:10216000F00D1124EE5EF74F6581C8010E943E40DC
:10217000109333040093320424C0DC0112964C9176
:1021800050E028EC2E9D80012F9D100D11240E5E35
:10219000174FF8012581022E000C330B421753070D
:1021A00081F00E94F65584E090E00E945E556C013B
:1021B000D80115966C910E943E40D0923304C09293
:1021C00032041091A309E12F012E000CFF0BE05205
:1021D000FB4F82E58083E1E0E10F0E2E000CFF0B48
:1021E000E052FB4F82E48083E2E0E10F0E2E000C10
:1021F000FF0BE052FB4F1082E3E0E10F0E2E000CCC
:10220000FF0BE052FB4F88EC8E9DD0018F9DB00DEF
:102210001124AE5EB74F13968C918083E4E0E10FFA
:102220000E2E000CFF0BE052FB4F81E0808386E016
:10223000810F8093A30980913204909133040E940E
:10224000DE1EE5E0E10F0E2E000CFF0BE052FB4F0F
:1022500090831091A30981E0810F8093A30980915D
:102260003204909133040E94DE1EE12F110FFF0B08
:10227000E052FB4F80832091A30981E0820F80937D
:10228000E20460E090E0022E000C330B462F50E099
:10229000421753070CF0B7C0FA01E052FB4F4081E0
:1022A000940F6F5FF3CF80913004909131040097C9
:1022B000B1F484E090E00E945E558C0188EC8E9D24
:1022C000F0018F9DF00D1124EE5EF74F6581C8017E
:1022D0000E943E40109331040093300423C0FC015F
:1022E000428150E028EC2E9D80012F9D100D11247D
:1022F0000E5E174FD80115962C91022E000C330B51
:102300004217530779F00E94F65584E090E00E944E
:102310005E556C01F80165810E943E40D092310407
:10232000C09230041091A309E12F012E000CFF0B85
:10233000E052FB4F82E58083E1E0E10F0E2E000CBE
:10234000FF0BE052FB4F82E48083E2E0E10F0E2EB0
:10235000000CFF0BE052FB4F1082E3E0E10F0E2E6A
:10236000000CFF0BE052FB4F88EC8E9DD0018F9D3F
:10237000B00D1124AE5EB74F13968C918083E4E0CC
:10238000E10F0E2E000CFF0BE052FB4F81E080832B
:1023900086E0810F8093A3098091300490913104ED
:1023A0000E94FD3FE5E0E10F0E2E000CFF0BE05216
:1023B000FB4F90831091A30981E0810F8093A309C3
:1023C00080913004909131040E94FD3FE12F110F64
:1023D000FF0BE052FB4F80832091A30981E0820F25
:1023E0008093E20460E090E0022E000C330B462F55
:1023F00050E0421753073CF4FA01E052FB4F408192
:10240000940F6F5FF4CF8093A309F901E052FB4F63
:1024100090830E94CA360FC00E94AF44DC01CB01FA
:1024200084199509A609B70981399140A105B1051B
:1024300008F4CDCBB9CB62960FB6F894DEBF0FBED1
:10244000CDBFDF91CF911F910F91FF90EF90DF9063
:10245000CF90BF90AF909F908F907F906F905F9044
:102460004F903F902F90089580E090E008958F92D4
:102470009F92AF92BF92CF92DF92EF92FF920F9313
:102480001F93CF93DF93CDB7DEB764970FB6F89461
:10249000DEBF0FBECDBF1092A309E82EF12C28ECB1
:1024A000829FF0011124EE5EF74FE4818E2FEE0F34
:1024B000990BAA0BBB0BFC013197EF31F10510F022
:1024C0000C94C31C8827ED57FF4F8F4F0C94425537
:1024D00082E58093E00482E48093E10488EC8E9DA1
:1024E000F0018F9DF00D1124EE5EF74F83818093F4
:1024F000E30481E08093E40482E08093E5048BE0D0
:102500008093E60488E08093E204E0EEF4E027EEB6
:1025100034E080E02E173F0719F09191890FFACF30
:1025200098E09093A3098093E70488E0D3C082E504
:102530008093E00482E48093E1041092E20484E05A
:102540008093A30988EC8E9DF0018F9DF00D1124DE
:10255000EE5EF74F83818093E304E5818E2FEE0FCB
:10256000990BAA0BBB0BFC013296EB30F10508F07E
:1025700094C08827EE55FF4F8F4F0C94425511E0C1
:102580001093A40985E08093A3091092E4048EEFD0
:102590000E945D3A892BB1F443E650E060E070E0C0
:1025A0008FE396E00E94E02164E670E080E090E036
:1025B0000E94914540E050E0BA018FE396E00E940E
:1025C000E0210CC0E091A30981E08E0F8093A30964
:1025D0000E2E000CFF0BE052FB4F10831092A4094B
:1025E0005CC011E01093A20985E08093A3091092CA
:1025F000E4048FEF0E945D3A892BB1F443E650E08A
:1026000060E070E08DEF96E00E94E02164E670E00B
:1026100080E090E00E94914540E050E0BA018DEFEB
:1026200096E00E94E0210CC0E091A30981E08E0FAA
:102630008093A3090E2E000CFF0BE052FB4F10837A
:102640001092A2092AC085E08093A30981E021C0ED
:1026500085E08093A30982E01CC085E08093A309F4
:1026600083E017C085E08093A30984E012C085E071
:102670008093A3090EC085E08093A30986E009C07A
:1026800085E08093A30987E004C085E08093A309D7
:1026900088E00E945D3A8093E4042091A30981E0E0
:1026A000820F8093E20460E090E0022E000C330B76
:1026B000462F50E0421753073CF4FA01E052FB4F1B
:1026C0004081940F6F5FF4CF8093A309F901E0522A
:1026D000FB4F90830E94CA360C94C31C82E5809302
:1026E000E00482E48093E1041092E20488EC8E9D81
:1026F000F0018F9DF00D1124EE5EF74F83818093E2
:10270000E30411E01093A40985E08093A3091092DB
:10271000E4048EEF0E945D3A892BB1F443E650E069
:1027200060E070E08FE396E00E94E02164E670E0F4
:1027300080E090E00E94914540E050E0BA018FE3D4
:1027400096E00E94E0210CC0E091A30981E08E0F89
:102750008093A3090E2E000CFF0BE052FB4F108359
:102760001092A40911E01093A209E091A30981E05D
:102770008E0F8093A3090E2E000CFF0BE052FB4F2F
:1027800010828FEF0E945D3A892BB1F443E650E04E
:1027900060E070E08DEF96E00E94E02164E670E07A
:1027A00080E090E00E94914540E050E0BA018DEF5A
:1027B00096E00E94E0210CC0E091A30981E08E0F19
:1027C0008093A3090E2E000CFF0BE052FB4F1083E9
:1027D0001092A2091091A30981E0810F8093A309AF
:1027E00081E00E945D3AE12F110FFF0BE052FB4F99
:1027F00080831091A30981E0810F8093A30982E077
:102800000E945D3AE12F110FFF0BE052FB4F8083D6
:102810001091A30981E0810F8093A30983E00E94B6
:102820005D3AE12F110FFF0BE052FB4F80831091B7
:10283000A30981E0810F8093A30984E00E945D3A9F
:10284000E12F110FFF0BE052FB4F80831091A30982
:1028500081E0810F8093A30985E00E945D3AE12F1A
:10286000110FFF0BE052FB4F80831091A30981E011
:10287000810F8093A30986E00E945D3AE12F110F3A
:10288000FF0BE052FB4F80831091A30981E0810F81
:102890008093A30987E00E945D3AE12F110FFF0B9F
:1028A000E052FB4F80831091A30981E0810F809358
:1028B000A30988E00E945D3AE12F110FFF0BE0525F
:1028C000FB4F80832091A30981E0820F8093E20473
:1028D00060E090E0022E000C330B462F50E04217D0
:1028E00053070CF0F1CEFA01E052FB4F4081940FF8
:1028F0006F5FF3CF82E58093E00482E48093E1048C
:102900001092E20488EC8E9DF0018F9DF00D112451
:10291000EE5EF74F83818093E30411E01093A409E6
:1029200085E08093A3091092E4048EEF0E945D3A43
:10293000892BB1F443E650E060E070E08FE396E06D
:102940000E94E02164E670E080E090E00E94914502
:1029500040E050E0BA018FE396E00E94E0210CC015
:10296000E091A30981E08E0F8093A3090E2E000C45
:10297000FF0BE052FB4F10831092A40911E010935B
:10298000A209E091A30981E08E0F8093A3090E2E86
:10299000000CFF0BE052FB4F10828FEF0E945D3A5C
:1029A000892BB1F443E650E060E070E08DEF96E0F3
:1029B0000E94E02164E670E080E090E00E94914592
:1029C00040E050E0BA018DEF96E00E94E0210CC09B
:1029D000E091A30981E08E0F8093A3090E2E000CD5
:1029E000FF0BE052FB4F10831092A2092091A30924
:1029F00081E0820F8093E20460E090E0022E000C00
:102A0000330B462F50E0421753070CF05DCEFA010E
:102A1000E052FB4F4081940F6F5FF3CF82E58093CC
:102A2000E00482E48093E1041092E20488EC8E9D3D
:102A3000F0018F9DF00D1124EE5EF74F838180939E
:102A4000E30485E08093A30981E00E945D3A8093CE
:102A5000E4041091A30981E0810F8093A30982E02F
:102A60000E945D3AE12F110FFF0BE052FB4F808374
:102A70001091A30981E0810F8093A30983E00E9454
:102A80005D3AE12F110FFF0BE052FB4F8083109155
:102A9000A30981E0810F8093A30984E00E945D3A3D
:102AA000E12F110FFF0BE052FB4F80831091A30920
:102AB00081E0810F8093A30985E00E945D3AE12FB8
:102AC000110FFF0BE052FB4F80831091A30981E0AF
:102AD000810F8093A30986E00E945D3AE12F110FD8
:102AE000FF0BE052FB4F80831091A30981E0810F1F
:102AF0008093A30987E00E945D3AE12F110FFF0B3D
:102B0000E052FB4F80831091A30981E0810F8093F5
:102B1000A30988E00E945D3AE12F110FFF0BE052FC
:102B2000FB4F80832091A30981E0820F8093E20410
:102B300060E090E0022E000C330B462F50E042176D
:102B400053070CF0C1CDFA01E052FB4F4081940FC6
:102B50006F5FF3CF88EC8E9DF0018F9DF00D1124F7
:102B6000EE5EF74F85818C3F99F0882341F08B3FD3
:102B700009F0B2C600852781468161E00DC000855D
:102B80002781468160E08EEB97E00E942A3507C0DE
:102B900000852781468160E08EEB97E007D78EEBBA
:102BA00097E00E94F73498C688EC8E9DF0018F9DC7
:102BB000F00D1124EE5EF74F85818F3F09F46DC053
:102BC000882321F08E3F09F087C692C02681822F8C
:102BD000022E000C990B40E050E060E070E440935E
:102BE000FD065093FE066093FF06709300078D3933
:102BF0003FEF930754F08436910514F083E690E09C
:102C0000092E000CAA0BBB0B04C08DE99FEFAFEFA0
:102C1000BFEF80930A0790930B07A0930C07B09324
:102C20000D0788EC8E9DF0018F9DF00D1124EE5E56
:102C3000F74F3781832F032E000C990B40E050E0B3
:102C400060E070E440933F06509340066093410675
:102C5000709342068D394FEF940754F084369105F6
:102C600014F083E690E0092E000CAA0BBB0B04C005
:102C70008DE99FEFAFEFBFEF80934C0690934D0629
:102C8000A0934E06B0934F06311126C6211124C6DB
:102C90001092580410925C041FC68681082E000C06
:102CA000990B40E050E060E070E44093FD065093E3
:102CB000FE066093FF06709300078D39AFEF9A0709
:102CC00054F08436910514F083E690E0092E000C50
:102CD000AA0BBB0B04C08DE99FEFAFEFBFEF809352
:102CE0000A0790930B07A0930C07B0930D07F4C548
:102CF0008681082E000C990B40E050E060E070E403
:102D000040933F06509340066093410670934206FD
:102D10008D39BFEF9B0754F08436910514F083E69C
:102D200090E0092E000CAA0BBB0B04C08DE99FEFAD
:102D3000AFEFBFEF80934C0690934D06A0934E06E5
:102D4000B0934F06C9C588EC8E9D80018F9D100DF4
:102D500011240E5E174FF80185810E945D3A02979B
:102D600009F0BAC58091560490915704009749F430
:102D700080E190E00E945E556C01D80115966C913F
:102D800015C0FC01428150E0D80115962C91022E0D
:102D9000000C330B4217530781F00E94F65580E177
:102DA00090E00E945E556C01F8016581C6010E94A9
:102DB0007B42D0925704C092560488EC8E9DF0015D
:102DC0008F9DF00D1124EE5EF74FD084C780B68042
:102DD000009156041091570460E4C8010E94F44128
:102DE00061EAC8010E9498416B2DC8010E94984178
:102DF0006C2DC8010E9498416D2DC8010E94984118
:102E00001AC188EC8E9DF0018F9DF00D1124EE5EAD
:102E1000F74F8581893F09F05FC58681882321F0BE
:102E200081E080932A0458C510922A0455C588EC85
:102E30008E9DF0018F9DF00D1124EE5EF74F86817F
:102E4000882329F0813029F480935D0402C0109218
:102E50005D0410922C0410922D0410922E041092F6
:102E60002F0410922B0438C588EC8E9DF0018F9DA5
:102E7000F00D1124EE5EF74F85818A3F09F02CC5D5
:102E8000408550E0542F44278185482B60E070E056
:102E9000868190E0982F88272781822B0E94F03925
:102EA00061E08091BD070E94114560E08091BD07FF
:102EB0000E94C13911C588EC8E9D80018F9D100D37
:102EC00011240E5E174FD80115968C910E945D3A21
:102ED000039709F001C5809154049091550400971F
:102EE00041F486E090E00E945E556C01F801658136
:102EF00016C0DC0112964C9150E0F8012581022E9B
:102F0000000C330B4217530781F00E94F65586E000
:102F100090E00E945E556C01D80115966C91C60137
:102F200097D7D0925504C092540400915404109144
:102F3000550488EC8E9DF0018F9DF00D1124E85E04
:102F4000F74F63E1808190E0982F88272181822BC1
:102F5000AC014A7A5A7A5695479585759575880FCA
:102F6000991F482B592B9A012C7C3C7C3695279530
:102F70003695279543735373440F551F440F551FC0
:102F8000242B352BC901807F907F44E0969587954F
:102F90004A95E1F72F703F7054E0220F331F5A9586
:102FA000E1F7822B932B982789279827880F991F61
:102FB000880F991F2FEF260FA1E0B0E0AC0FBD1FC7
:102FC000A60FB11D8C936250A1E0B0E0AC0FBD1F05
:102FD000A20FB11D9C9332966F3F09F0B3CFC80189
:102FE0000E94AD4167EEC8010E94984160E0C801AF
:102FF0000E949841FE0131965F016E01F5E1CF0E0E
:10300000D11CD5019D915D01892F8C7C682F66951F
:1030100066959373B4E09B9FC0011124862B682FA3
:103020006A7A66958575880F682BC8010E94984159
:10303000AC14BD0431F7C8010E9452404DC488EC65
:103040008E9DF0018F9DF00D1124EE5EF74F85816E
:1030500080935804868180935C04878180935B040D
:10306000082E000C990BAA0BBB0B8930910508F0B8
:103070008AC4FC018827E355FF4F8F4F0C944255BB
:103080008CE301C086E4809301028093000281E01A
:1030900014C086E405C081E403C08DE201C087E36B
:1030A00080930102809300026EC48DE201C087E329
:1030B000809301028093000282E080935B0463C4EA
:1030C00088EC8E9D80018F9D100D11240E5E174F90
:1030D000F80185810E945D3A059709F0FDC3D8018A
:1030E00015961C91113019F0183009F0F5C3809134
:1030F0004A0490914B04009771F485E090E00E949F
:103100005E556C01612F0E948F42D0924B04C09299
:103110004A04C60121C0FC01228130E0612F110F59
:10312000770B26173707D1F00E94F65585E090E01F
:103130000E945E558C0188EC8E9DF0018F9DF00DF4
:103140001124EE5EF74F6581C8010E948F421093F3
:103150004B0400934A04C8010E94F13688EC8E9D0E
:10316000F0018F9DF00D1124EE5EF74F86818130C6
:10317000E9F0823081F18111AFC31085678170E081
:1031800080E090E00E943F532CE53FE842EA5FE395
:103190000E94A6520E941353653B08F064EB70E056
:1031A0008CE396E00E94683E612F16C0678170E054
:1031B00080E090E00E943F532CE53FE842EA5FE365
:1031C0000E94A6520E941353653B08F064EB70E026
:1031D0008CE396E014C0678170E080E090E00E948C
:1031E0003F532CE53FE842EA5FE30E94A6520E946B
:1031F0001353653B08F064EB70E089E396E00E94AE
:10320000683E6AC388EC8E9D80018F9D100D11244D
:103210000E5E174FD80115968C910E945D3A099762
:1032200009F05AC3F8012581213019F0283009F03E
:1032300053C380914A0490914B04DC0112964C9147
:1032400050E0022E000C330B4217530701F5E091BA
:103250003C06F0E09F01220F331FE20FF31FE855F9
:10326000FA4F20812F7B2083E0913906F0E09F0107
:10327000220F331FE20FF31FE855FA4F20812F7BF7
:1032800020830E94F65510924B0410924A048091BC
:103290004C0490914D040097B1F486E090E00E94B8
:1032A0005E558C0188EC8E9DF0018F9DF00D1124F0
:1032B000EE5EF74F6581C8010E948C2410934D0487
:1032C00000934C0423C0FC01428150E028EC2E9D69
:1032D00080012F9D100D11240E5E174FD8011596F9
:1032E0002C91022E000C330B4217530779F00E94E9
:1032F000F65586E090E00E945E556C01F80165810C
:103300000E948C24D0924D04C0924C0488EC8E9D77
:10331000F0018F9DF00D1124EE5EF74F8681813014
:10332000F1F0823061F18111D7C2278180914C0484
:1033300090914D0427FF06C0332721950CF430955A
:1033400040E001C041E061E00E94B54F88EC8E9DF5
:10335000F0018F9DF00D1124EE5EF74F10C0278114
:1033600080914C0490914D0427FF06C0332721958E
:103370000CF4309540E001C041E061E00FC02085D1
:1033800080914C0490914D0427FF06C0332721956E
:103390000CF4309540E001C041E062E00E94B54F7E
:1033A0009BC288EC8E9D80018F9D100D11240E5EB6
:1033B000174FD80115968C910E945D3A0C9709F031
:1033C0008BC2E0914404F09145043097A9F4F801D0
:1033D00085810E945D3A0C9709F040C086E090E03C
:1033E0000E945E556C01D80115966C910E945F4257
:1033F00081E0F601858323C0D80115968C91228146
:1034000030E0482F082E000C550B2417350731F1FA
:103410000E945D3A0C9711F5809144049091450407
:103420000E94F65586E090E00E945E556C01F8011E
:1034300065810E945F4281E0D60115968C93D092FF
:103440004504C092440467E7C6010E941A4E64E72F
:1034500080914404909145040E941A4E88E4EAE960
:10346000F3E0DF011D928A95E9F7DF0188EC8E9D7C
:1034700090018F9D300D11242E5E374F80E090E03B
:10348000FC01E25BFF4FE20FF31F4081042E000CB2
:10349000550B4D935D9301968834910589F788E427
:1034A000EAE0F3E0DF011D928A95E9F780E090E021
:1034B000D901A80FB91F16964C91042E000C550B7C
:1034C0004193519301968834910591F72AEE32E0A9
:1034D0004AEF52E06AE073E0809144049091450421
:1034E0000E9473252AEC32E04AED52E06AE973E06B
:1034F00080914404909145040E947325C090440437
:10350000D090450420E04DEF67E7C6010E94DF340C
:1035100000E110E02AEF32E040E067E7C6010E94D8
:10352000A83420E04DEF64E7C6010E94DF342AEDA5
:1035300032E040E064E7C6010E94A83421E04DEF8C
:1035400067E7C6010E94DF342AEE32E040E067E719
:10355000C6010E94A83421E04DEF64E7C6010E9435
:10356000DF342AEC32E040E064E7C6010E94A83470
:10357000B3C188EC8E9D80018F9D100D11240E5ECD
:10358000174FF80185810E945D3A0B9709F0A4C19D
:10359000C0904604D0904704C114D10449F483E29A
:1035A00090E00E945E556C01D80115966C911DC08B
:1035B000F60121A130E0D80115968C91082E000C5F
:1035C000990B28173907B9F080E292E09183808344
:1035D000C6010E94523EC6010E94F65583E290E069
:1035E0000E945E556C01F8016581C60193D2D092AC
:1035F0004704C0924604C0904604D090470488EC2B
:103600008E9DF0018F9DF00D1124EE5EF74F168117
:10361000D60192968C91929790E0212F012E000C6A
:10362000330B8217930759F192961C938AEA809381
:10363000C00282E08093C10281E08093C2021093B5
:10364000C30286E581278093C40220ECA22E22E0EB
:10365000B22E35EC832E32E0932EF50161915F019D
:10366000C6010E94023B8A149B04B9F7D6019296C8
:103670001C9362E370E080E090E00E94914588EC4A
:103680008E9DF0018F9DF00D1124EE5EF74F208589
:10369000878100914604109147049AEA9093C002F2
:1036A0008093C10291E09093C2022093C3029BEAEF
:1036B0008927822780958093C40280ECC82E82E0FF
:1036C000D82E95ECA92E92E0B92EF60161916F01EA
:1036D000C8010E94023BAC14BD04B9F762E370E07C
:1036E00080E090E00E9491458091460490914704CB
:1036F0000E94523E009146041091470401151105A5
:1037000059F080E292E0D8018D939C93C8010E9409
:10371000523EC8010E94F65510924704109246048A
:1037200088EC8E9D80018F9D100D11240E5E174F29
:10373000D8011596EC91EE0FFF0BE557FD4F60E0B9
:1037400080810E941145D8011596EC91EE0FFF0B78
:10375000E557FD4F60E081810E941145BDC088ECB6
:103760008E9D80018F9D100D11240E5E174FF80164
:1037700085810E945D3A439709F0AEC0C0903C0439
:10378000D0903D04C114D10449F48CE090E00E9433
:103790005E556C01D80115966C911AC0F601228114
:1037A00030E0D80115968C91082E000C990B281743
:1037B0003907A1F0828593850E94F655C6010E94C3
:1037C000F6558CE090E00E945E556C01F801658131
:1037D000C6011FD1D0923D04C0923C0488EC8E9D5E
:1037E000F0018F9DF00D1124EE5EF74F01852085CD
:1037F0004781668180913C0490913D040E942A3566
:1038000080913C0490913D040E94F734BCC088EC48
:103810008E9D80018F9D100D11240E5E174FD801D3
:1038200015968C910E945D3A429709F055C080919F
:103830003A0490913B04009771F0FC01428150E002
:10384000D80115962C91022E000C330B421753070A
:10385000A9F00E94F65586E090E00E945E556C014A
:10386000F80165810E945F42D60115961C92D092A4
:103870003B04C0923A04C6010E94DC3688EC8E9D5F
:1038800080018F9D100D11240E5E174FF8014681A7
:1038900061E080913A0490913B040E946224D80137
:1038A00017964C9162E080913A0490913B040E94FB
:1038B0006224F801408563E080913A0490913B04D2
:1038C0000E946224D80119964C9164E080913A04D8
:1038D00090913B04F7D757C08091A309E82F082E99
:1038E000000CFF0BE052FB4F92E59083E1E0E80F04
:1038F0000E2E000CFF0BE052FB4F92E49083E2E0AF
:10390000E80F0E2E000CFF0BE052FB4F1082E3E09D
:10391000E80F0E2E000CFF0BE052FB4F98EC9E9D23
:10392000D0019F9DB00D1124AE5EB74F13969C91B0
:10393000908325E0280FE4E0E80F0E2E000CFF0B2B
:10394000E052FB4F91E090838A5F8093E20460E055
:1039500090E0022E000C330B462F50E04217530725
:103960003CF4FA01E052FB4F4081940F6F5FF4CFBB
:103970008093A309F901E052FB4F90839091E304F7
:1039800091110C946A1364960FB6F894DEBF0FBEC3
:10399000CDBFDF91CF911F910F91FF90EF90DF90FE
:1039A000CF90BF90AF909F908F9008950F93FC01A0
:1039B000A62FB0E080859185A817B907B8F4862FA7
:1039C000880F680F70E0A285B385A60FB71F2C93F0
:1039D000A285B385A60FB71F11964C938285938558
:1039E000FC01E60FF71F028381E001C080E00F9128
:1039F0000895DC01E62FF0E0EE0FFF1FE557FD4FC5
:103A000080818C93818111968C93119712966C937F
:103A100008951F93CF93DF93EC01162FEADFE12F78
:103A2000F0E0EE0FFF1FE557FD4F8181282F30E0BA
:103A3000F901E853FD4FE491EF83F901EE57FD4F93
:103A4000E491F0E0EE0FFF1FE859FD4F259134910E
:103A50003C832B8361E00E94114564E0CE01DF913D
:103A6000CF911F910C946E361F93CF93DF93EC018F
:103A7000162FBFDFE12FF0E0EE0FFF1FE557FD4FE0
:103A800081818B8380818C838B8160E00E941145D2
:103A90008C8161E00E9411458C8160E0DF91CF91C3
:103AA0001F910C94C139DC012C911196ED91FC9180
:103AB0001297F8948181922F90958923818378942D
:103AC0008DE743E050E0815021F1DA011197F1F7E1
:103AD00030813223C1F3F8948281892382838181EA
:103AE000822B81837894ABE7B7E01197F1F7F894D4
:103AF00081819823918383E191E00197F1F780819F
:103B0000282381E009F080E07894E3E6F6E031973D
:103B1000F1F708950F931F93CF93DF93EC01162FC6
:103B20004F9667DFE12FF0E0EE0FFF1FE557FD4FE7
:103B3000118100811B821A8288EE93E0A0E0B0E040
:103B40008C839D83AE83BF8380E292E099838883D8
:103B50001F8A1E8A198E188E1B8E1A8E1D8E1C8E21
:103B60006E8D6E7F6D7F6E8F6695617081E06827C8
:103B7000812F0E94C13961E0812F0E941145812F60
:103B800090E0FC01E853FD4FE491E88BFC01EE5717
:103B9000FD4FE491F0E0EE0FFF1FE859FD4F8591D6
:103BA00094919A8B898B60E0802F0E9411458E8DB5
:103BB00081FD04C061E0802F0E94C1390C87802FF5
:103BC00090E0FC01E853FD4FE491ED87FC01EE57D6
:103BD000FD4FE491F0E0EE0FFF1FE25BFD4F85919A
:103BE00094919F878E8780E292E09983888383E017
:103BF0008AA31B8E1A8E198E188E1F8A1E8A85E63E
:103C000090E09D8F8C8F96EF900F943048F08EEC63
:103C1000800F843028F082EC800F883008F066C076
:103C200021E230E03F8B2E8B23E630E0398F288F66
:103C300022E430E03B8F2A8F943060F08EEC800FCE
:103C4000843040F082EC800F883008F070C0A8E625
:103C5000B0E06FC0A8E6B0E0E8E6F0E02081943084
:103C600048F08EEC800F843028F00E53083010F4AA
:103C700084E001C081E0822B8C938C8596EF980FB5
:103C8000943058F02EEC280F243038F022EC280F16
:103C9000283030F020E030E005C02BE630E002C0F4
:103CA0002DE630E03C8B2B8B943010F49AEF0BC058
:103CB000823381F0833381F0843381F092EC980F6A
:103CC000983070F492EC980F81E001C0880F9A95BB
:103CD000EAF707C088E005C084E003C082E001C0C5
:103CE00081E08D8B8C8D9D8D0197F1F78A8D9B8D59
:103CF000892B29F18091CC079091CD07C817D9075E
:103D0000F1F0009711F00E94523E8E8D8E7F8E8FC3
:103D10001092CA071092CB07D093CD07C093CC075F
:103D2000EB89FC8990818D89892B808308C0A0E074
:103D3000B0E0883008F490CFE0E0F0E08FCFDF9182
:103D4000CF911F910F9108950F931F93CF93DF93FE
:103D5000EC018B810E9498398C018C810E949839EA
:103D6000AC0121E030E0012B11F420E030E0220F23
:103D7000331F81E0452B09F480E0822BDF91CF9146
:103D80001F910F9108951F93CF93DF93EC01162F8E
:103D900030DEE12FF0E0EE0FFF1FE557FD4F808191
:103DA0008B8381818C838B8160E00E9411458C81A3
:103DB00060E0DF91CF911F910C941145CF93DF9379
:103DC000EC0160E08B810E9411458B810E944D4582
:103DD00020E034E0A901481B590BCA01DF91CF91C3
:103DE0000895AF92BF92CF92DF92EF92FF920F931E
:103DF0001F93CF93DF935C010AE010E0C12CD12C1C
:103E00007601C0E0D0E0C501D9DFC817D90708F4B2
:103E1000EC01C80ED91EE11CF11C0150110999F7E3
:103E2000D701C6018C1B9D0BA109B10923E0B695F2
:103E3000A795979587952A95D1F7DF91CF911F91F7
:103E40000F91FF90EF90DF90CF90BF90AF900895CB
:103E5000CF93DF93EC010E945F4281E08D83CE011E
:103E60000E94AD4167EECE010E94984160E8CE010C
:103E70000E94984164EACE010E9498416AE9CE010D
:103E80000E94984161E8CE010E94984163E8CE010A
:103E90000E949841CE01DF91CF910C9452400F9334
:103EA0001F93CF938C01C62FA4DDEC2FF0E0EE0F13
:103EB000FF1FE557FD4F8081D80113968C93139710
:103EC000818114968C93CF911F910F910895CF9279
:103ED000DF92EF92FF920F931F93CF93DF93EC014A
:103EE000E62E8A01F22E0E94AD416E0182E4C80ED8
:103EF000D11CF6016081660FCE010E944E41CE01B9
:103F00000E94C8406E2DCE010E944E41CE010E94FB
:103F1000C840CE010E945240F0E5FA95F1F7CE017B
:103F20000E94AD41F6016081660F6160CE010E9482
:103F30004E41CE010E94C840FA94EF2C6801EE2059
:103F400061F0CE010E940841F60181936F0160E0AB
:103F5000CE010E948E40EA94F2CF0F0D111DCE01CA
:103F60000E940841F801808361E0CE010E948E40EA
:103F7000CE01DF91CF911F910F91FF90EF90DF90D5
:103F8000CF900C9452402F923F924F925F926F923B
:103F90007F928F929F92AF92BF92CF92DF92EF92D9
:103FA000FF92CF93DF93CDB7DEB72A970FB6F89481
:103FB000DEBF0FBECDBF9A878987AC014C5C5F4FD7
:103FC0002EE06BE384DFE985FA8564A875A8762482
:103FD0006724762473A262A2E6A8F7A8FE24EF2441
:103FE000FE24F5A2E4A2A0ACB1ACBA24AB24BA245E
:103FF000B7A2A6A2268037804084518464AD75ADF7
:10400000762767277627072E000C880B990B0E94CE
:104010004153E985FA8520A531A542A553A50E9403
:10402000DB51A20191010E94A652E985FA85668BB7
:10403000778B808F918F66AD77AD76276727762750
:10404000072E000C880B990B0E944153E985FA85D5
:1040500024A535A546A557A50E94DB51A2019101D3
:104060000E94A652E985FA85628F738F848F958F9F
:10407000E05CFF4F60817181762767277627072EE6
:10408000000C880B990B0E944153E985FA8520A901
:1040900031A942A953A90E94DB51A20191010E94BA
:1040A000A652E985FA85668F778F80A391A3B70121
:1040B000FF0C880B990B0E9441536B017C01B501E9
:1040C000BB0C880B990B0E9441539B01AC010E94D1
:1040D00074544B015C01A7019601C701B6010E940F
:1040E0007454A50194010E94DC510E94DB54698341
:1040F0007A838B839C83B301770C880B990B0E9486
:1041000041532B013C0129813A814B815C810E9402
:104110004F5220E030E044E353E40E9474542AED0F
:104120003FE049E450E40E94A65269837A838B837E
:104130009C83A3019201C301B2010E947454A501A2
:1041400094010E94DC510E94DB549B01AC01C70129
:10415000B6010E944F5220E030E044E353E40E9455
:1041600074542AED3FE049E450E40E94A6526D8366
:104170007E838F8398870E94AF44C0907804D0904C
:104180007904E0907A04F0907B046C197D098E0923
:104190009F090E943F5320E030E04AE754E40E9428
:1041A000A6526B017C010E94AF4460937804709327
:1041B000790480937A0490937B04E985FA8586A13B
:1041C00097A1181619065CF5228D338D448D558DF7
:1041D000C701B6010E9474549B01AC01E985FA85C0
:1041E00062857385848595850E94DB51E985FA8512
:1041F000628773878487958726893789408D518D9B
:10420000C701B6010E9474549B01AC01E985FA858F
:1042100066857785808991890E94DC512CC0E9856B
:10422000FA85228D338D448D558DC701B6010E94CC
:1042300074549B01AC01E985FA8562857385848598
:1042400095850E94DC51E985FA85628773878487AA
:10425000958726893789408D518DC701B6010E9407
:1042600074549B01AC01E985FA8566857785808960
:1042700091890E94DB51E985FA8566877787808B73
:10428000918BE985FA85268D378D40A151A1C70113
:10429000B6010E947454E985FA85228933894489DC
:1042A00055890E94DC512B013C0120E030E044EBB9
:1042B00053E40E94A6520E947C5320E030E044EB7D
:1042C00053E40E9474549B01AC01C301B2010E94EB
:1042D000DB51E985FA85628B738B848B958B20E0AB
:1042E00030E040E05FE3C701B6010E94DC519B0172
:1042F000AC0160E070E080E09FE30E94A6526B0199
:104300007C019B01AC0160E070E080E89FE30E94CB
:10431000DB514B015C01E985FA85228533854485B3
:104320005585C701B6010E9474542B013C01A501BB
:10433000940169817A818B819C810E9474549B01D4
:10434000AC01C301B2010E94DC51E985FA856287A4
:104350007387848795872685378540895189C7016A
:10436000B6010E9474546B017C01A50194016D811A
:104370007E818F8198850E9474549B01AC01C70196
:10438000B6010E94DC51E985FA8566877787808BC4
:10439000918B2A960FB6F894DEBF0FBECDBFDF918A
:1043A000CF91FF90EF90DF90CF90BF90AF909F9014
:1043B0008F907F906F905F904F903F902F900895D7
:1043C000FC01453651056105710524F044E650E0D5
:1043D00060E070E09A01AB012C398FEF3807480795
:1043E000580724F42CE93FEF4FEF5FEF8189928962
:1043F000A389B48982179307A407B50709F464C099
:10440000218B328B438B548B218732874387548790
:10441000EA54FF4F8081843059F5121613061406B2
:1044200015069CF4AFEFB3E00E949A511092A900D8
:104430001092A80024E630E040E050E00E947E5157
:104440003093AB002093AA000895A1E0BCEF0E9436
:10445000A65124E630E040E050E00E947E513093C7
:10446000A9002093A8001092AB001092AA00089512
:10447000853051F512161306140615069CF4AFEF9D
:10448000B3E00E949A5124E630E040E050E00E9400
:104490007E51309389002093880010928B001092F7
:1044A0008A000895A1E0BCEF0E94A65110928900F5
:1044B0001092880024E630E040E050E00E947E51F7
:1044C00030938B0020938A0008954F925F926F92F1
:1044D0007F928F929F92AF92BF92CF92DF92EF9294
:1044E000FF920F931F93CF93DF93CDB7DEB72A9739
:1044F0000FB6F894DEBF0FBECDBF9A878987DC0167
:10450000D1966D917D918D919C91D49715968D90BA
:104510009D90AD90BC9018979196CD90DD90ED90C8
:10452000FC9094970E9441532B013C01C501B401BA
:104530000E944153A70196010E9474549B01AC0153
:10454000C301B2010E94A65220E030E044EB53E4E4
:104550000E9474540E940E53E985FA8565A376A3E0
:1045600087A390A70E94AF4409851A850B551F4F5A
:10457000D8014D905D906D907C90AB01BC014419C9
:10458000550966097709453151056105710508F43A
:1045900077C0A985BA85D1962D913D914D915C91B9
:1045A000D49729833A834B835C839D962D913D91CB
:1045B0004D915C91D0972D833E834F8358871596FC
:1045C0008D909D90AD90BC9018979196CD90DD9078
:1045D000ED90FC9094976FEA74E46419750980E09B
:1045E00090E00E943F539B01AC0160E070E08AE7DD
:1045F00094E40E94A6522B013C0169817A818B814F
:104600009C812D813E814F815885621B730B840BE9
:10461000950B0E9441539B01AC01C301B2010E9462
:10462000745420E030E040E752E40E9474542B01BF
:104630003C01C501B4010E944153A70196010E94AB
:1046400074549B01AC01C301B2010E94A652A9851A
:10465000BA8555966D937D938D939C935897FD01E4
:1046600081A992A9A3A9B4A985A796A7A7A7B0AB2A
:104670000E94AF44D8016D937D938D939C931397C3
:10468000E985FA85608171818281938120E030E043
:1046900040E050E40E94A2528111FDC00E94AF444C
:1046A00009851A8507551F4FD801CD90DD90ED90F3
:1046B000FC90DC01CB018C199D09AE09BF0906975E
:1046C000A105B10508F4C0C00E94AF44F8016083A1
:1046D000718382839383A985BA8519966D917D91A3
:1046E0008D919C911C971D968D909D90AD90BC9046
:1046F00050970E94415326E636E646E65FE30E9465
:1047000074546B017C01C501B4010E9441532DEC2E
:104710003CEC4CEC5DE30E9474549B01AC01C7017E
:10472000B6010E94DC5120E030E0A9010E946954EA
:1047300087FD2BC0E985FA8561857285838594851F
:1047400085849684A784B0880E94415326E636E685
:1047500046E65FE30E9474546B017C01C501B4011D
:104760000E9441532DEC3CEC4CEC5DE30E947454F0
:104770009B01AC01C701B6010E94DC5120E030E092
:1047800040E05FE30E94DC512EC0A985BA851996EE
:104790006D917D918D919C911C971D968D909D9012
:1047A000AD90BC9050970E94415326E636E646E60F
:1047B0005FE30E9474546B017C01C501B4010E9447
:1047C00041532DEC3CEC4CEC5DE30E9474549B0196
:1047D000AC01C701B6010E94DC5120E030E040E0AE
:1047E0005FE30E94DB510E940E53E985FA856187E1
:1047F00072878387948781859285A385B4851816EF
:1048000019061A061B062CF481859285A385B485AA
:104810000DC0E985FA8581859285A385B485B0951B
:10482000A095909581959F4FAF4FBF4F0B97A105D6
:10483000B10554F4E985FA8585859685A785B08903
:10484000892B8A2B8B2B01F1A985BA8519964D915D
:104850005D916D917C911C97CD012A960FB6F894CD
:10486000DEBF0FBECDBFDF91CF911F910F91FF90A3
:10487000EF90DF90CF90BF90AF909F908F907F9000
:104880006F905F904F909CCDE985FA8511861286D6
:1048900013861486D9CF2A960FB6F894DEBF0FBEC2
:1048A000CDBFDF91CF911F910F91FF90EF90DF90DF
:1048B000CF90BF90AF909F908F907F906F905F90C0
:1048C0004F9008950F931F93CF93DF938C01D62FB2
:1048D000C42F0E94AD416D2F660F6A59C8010E9416
:1048E0004E41C8010E94C840EC2FC7FF07C0EF77B8
:1048F000F0E0E25DFD4F6081606804C0F0E0E25DE1
:10490000FD4F6081C8010E944E41C801DF91CF91E7
:104910001F910F910C945240CF93DF93EC010E94B2
:104920005F4261E084E10E94114561E084E10E9400
:10493000C1391D82DF91CF9108950F931F93CF93BB
:10494000DF93EC010E94AD4162E5CE010E944E4131
:10495000CE010E94C84062E9CE010E944E41CE01C4
:104960000E94C840CE010E94AD4163E5CE010E9485
:104970004E41CE010E94C840CE010E940841182F2E
:1049800061E0CE010E948E40CE010E94524014345C
:1049900011F0103159F581E08E8319850A85412F78
:1049A00061E0CE010E942E3819870A871F81088591
:1049B0008E81811102C0CE01C0DF412F6FE0CE0198
:1049C0000E942E381F83088741E060E0CE010E94DC
:1049D0002E3863E070E080E090E00E94914543E073
:1049E00060E0CE010E942E3881E001C080E0DF91BE
:1049F000CF911F910F910895AF92BF92CF92DF9206
:104A0000EF92FF920F931F93CF93DF93EC015B0123
:104A10006A0179018E81811102C0CE018EDF64E1CD
:104A2000CE010E94F237F8019183808366E1CE01C6
:104A30000E94F237F5019183808368E1CE010E94E4
:104A4000F237F601918380836AE1CE010E94F2374A
:104A5000F7019183808389859A85853D910519F1B8
:104A600050F4009729F1803C910591F56AE970E0D6
:104A700080E090E021C0863F910581F08F3F910555
:104A800041F08B3E910521F562E370E080E090E01B
:104A900013C063E070E080E090E00EC068E170E079
:104AA00080E090E009C065E670E080E090E004C03E
:104AB0006CEB72E080E090E0DF91CF911F910F915D
:104AC000FF90EF90DF90CF90BF90AF900C94914506
:104AD000DF91CF911F910F91FF90EF90DF90CF90DA
:104AE000BF90AF9008952F923F924F925F926F9236
:104AF0007F928F929F92AF92BF92CF92DF92EF926E
:104B0000FF920F931F93CF93DF93CDB7DEB7C451BE
:104B1000D1400FB6F894DEBF0FBECDBFFB011A0126
:104B20002901A280B38064817581468157812085E7
:104B30003185350101E060227724730183E0EE0CBA
:104B4000FF1C8A95E1F74B0111E08122992496E040
:104B5000880C991C9A95E1F7370168287928C0805C
:104B6000D18087E0C822DD2443018C289D286A017A
:104B700091E0C922DD24DC2CCC24DD0CC828D92806
:104B80007901A1E0EA22FF24FE2CEE24F29470EFDA
:104B9000F722EC28FD28A1FABB27B0F9CD5EDE4F45
:104BA000B883C351D140CC5EDE4F1882C451D1408E
:104BB000CD5EDE4F08811981C351D140A4E0000FC2
:104BC000111FAA95E1F7E02AF12AA2FAAA27A0F973
:104BD000B0E015E0AA0FBB1F1A95E1F7EA2AFB2AFD
:104BE00061FB882780F990E09695982F8827979504
:104BF0008795E82AF92A62FB662760F9162F00E0FC
:104C0000E02AF12A41FB882780F9880F880F8A83E0
:104C1000198289819A81E82AF92A42FB442740F9BE
:104C2000440F440F440F4C831B82AB81BC81EA2AA2
:104C3000FB2A21FB882780F98295880F807E8E834E
:104C40001D820D811E81E02AF12A22FB222720F9F4
:104C50002295220F220F207C28871F828F81988522
:104C6000E82AF92AD101EC921196FC92E684F784A5
:104C7000FA82E98240895189228933898489958918
:104C8000870101701127780163E0EE0CFF1C6A9523
:104C9000E1F7DA01A170BB2776E0AA0FBB1F7A9576
:104CA000E1F787010A2B1B2BD901A170BB27BA2F73
:104CB000AA27BB0FA02BB12BBC0161707727762FE1
:104CC00066277295707F6A2B7B2B09810695017090
:104CD00009871A86A985BA8514E0AA0FBB1F1A9501
:104CE000E1F76A2B7B2B198112FB112710F91B8727
:104CF0001C86AB85BC8505E0AA0FBB1F0A95E1F7B2
:104D00006A2B7B2B41FBAA27A0F9AD871E86AD85B8
:104D1000BE85B695BA2FAA27B795A795A62BB72B10
:104D200042FB442740F9488B1F86EF84F888AE2960
:104D3000BF2921FB992790F9990F990F9A8B198A0E
:104D400009891A89A02BB12B22FB222720F9220FD7
:104D5000220F220F2C8B1B8AEB88FC88AE29BF29DF
:104D600081FB992790F99295990F907E9E8B1D8AD1
:104D70000D891E89A02BB12B82FB882780F9829593
:104D8000880F880F807C888F1F8A2F89388D2A2B67
:104D90003B2BD10112962C93129713963C9384854A
:104DA0009585E28CF38CFA82E982648D758D468D4F
:104DB000578D22853385DC01A170BB27AA0FBB1F4D
:104DC00081FBFF24F0F8F98E1A8E098D1A8DA02B25
:104DD000B12B847099278A2B9B2BA981BA81A17052
:104DE000BB2703E0AA0FBB1F0A95E1F78A2B9B2B79
:104DF000DB01A170BB2776E0AA0FBB1F7A95E1F714
:104E0000A82BB92BCA0181709927982F8827990F51
:104E10008A2B9B2B890101701127102F00271295D7
:104E2000107F082B192B8981869581708B8F1C8EA2
:104E30008B8D9C8D54E0880F991F5A95E1F7082BB4
:104E4000192BE2FA992790F99D8F1E8E8D8D9E8DDC
:104E500075E0880F991F7A95E1F7082B192B61FBF4
:104E6000AA27A0F9AF8F18A28F8D98A19695982F99
:104E7000882797958795802B912B62FB662760F991
:104E80006AA319A2E9A0FAA08E299F2941FB332722
:104E900030F9330F330F3CA31BA20BA11CA1802BB5
:104EA000912B42FB442740F9440F440F440F4EA37B
:104EB0001DA2ADA1BEA18A2B9B2B21FB332730F96C
:104EC0003295330F307E38A71FA2EFA0F8A48E29A9
:104ED0009F2922FB222720F92295220F220F207CD6
:104EE0002AA719A609A51AA5802B912BD1011496E2
:104EF0008C93149715969C93608D718D06A117A1C4
:104F000040A551A522A533A5868997897B01B1E0EB
:104F1000EB22FF246701CC0CDD1CD801A170BB275C
:104F200013E0AA0FBB1F1A95E1F77D01EC28FD28BD
:104F3000DA01A170BB2756E0AA0FBB1F5A95E1F713
:104F4000AE29BF29BA83A983D901A170BB27BA2F83
:104F5000AA27BB0FC980DA80CA2ADB2A7C01B1E00C
:104F6000EB22FF245701BA2CAA24B294A0EFBA2254
:104F7000D601AA29BB2961FBEE24E0F8EBA61CA60A
:104F8000EBA4FCA4EE0CFF1CEE0CFF1CAE29BF2909
:104F900062FB662760F96795662767956EA71DA671
:104FA000EDA4FEA4AE29BF2901FBFF24F0F8FFA663
:104FB00018AAEFA4F8A894E0EE0CFF1C9A95E1F76C
:104FC000AE29BF2902FBFF24F0F8F9AA1AAA09A901
:104FD0001AA935E0000F111F3A95E1F7A02BB12B6C
:104FE00041FB112710F91BAB1CAAEBA8FCA8F694F7
:104FF000FE2CEE24F794E794AE29BF2942FB442708
:1050000040F94EAB1DAA0DA91EA9A02BB12B21FB67
:10501000992790F9990F990F98AF1FAAEFA8F8ACAC
:10502000AE29BF2922FB222720F9220F220F220FAF
:105030002AAF19AE09AD1AADA02BB12B81FB992770
:1050400090F99295990F907E9CAF1BAEEBACFCACA7
:10505000AE29BF2982FB882780F98295880F880FA7
:10506000807C8EAF1DAE2DAD3EAD2A2B3B2BD101EA
:1050700016962C93169717963C93E4A0F5A0FA8207
:10508000E98244A955A920A131A182A193A1870158
:10509000017011277801EE0CFF1CDA01A170BB270B
:1050A00076E0AA0FBB1F7A95E1F787010A2B1B2B2D
:1050B000D901A170BB27BA2FAA27BB0FA02BB12BF8
:1050C000BC0161707727762F66277295707F6A2BF7
:1050D0007B2B0981069501700FAF21961FAE21979A
:1050E0002196AEADBFAD2197AA0FBB1FAA0FBB1F64
:1050F0006A2B7B2B198112FB112710F922961FAF07
:10510000229723961FAE23972396AEADBFAD23976C
:1051100003E0AA0FBB1F0A95E1F76A2B7B2B41FB2B
:10512000AA27A0F92496AFAF249725961FAE2597FE
:105130002596AEADBFAD2597B695BA2FAA27B795E0
:10514000A795A62BB72B42FB442740F927964FAFD4
:10515000279726961FAE26972796EEACFFAC27978B
:10516000AE29BF2921FB992790F9990F990F29960C
:105170009FAF299728961FAE289729960EAD1FAD91
:105180002997A02BB12B22FB222720F9220F220FD7
:10519000220F2B962FAF2B972A961FAE2A972B966E
:1051A000EEACFFAC2B97AE29BF2981FB992790F974
:1051B0009295990F907E2D969FAF2D972C961FAEAE
:1051C0002C972D960EAD1FAD2D97A02BB12B82FBEA
:1051D000882780F98295880F880F807C2F968FAF63
:1051E0002F972E961FAE2E972F962EAD3FAD2F9751
:1051F0002A2B3B2BD10118962C93189719963C9388
:10520000C2A8D3A8A0A8B1A8CF01805C9F4FDC01A1
:105210004D915C9124A535A586A597A5B601617031
:105220007727A4E0660F771FAA95E1F7C1FABB279D
:10523000B0F96096BFAF609761961FAE61976196B7
:10524000EEACFFAC6197E62AF72AB50161707727CB
:10525000660F771F6E297F298A010170112756E09A
:10526000000F111F5A95E1F7602B712B8901017016
:105270001127102F0027110F062B172BBC0161706F
:105280007727762F66277295707F062B172BC2FA29
:10529000EE24E0F86296EFAE629763961FAE6397D6
:1052A00063966EAD7FAD639795E0660F771F9A9515
:1052B000E1F7062B172BA1FAFF24F0F86496FFAE56
:1052C000649765961FAE659765966EAD7FAD6597E1
:1052D000660F771F660F771F062B172BA2FA66271C
:1052E00060F966966FAF669767961FAE6797679689
:1052F0006EAD7FAD679753E0660F771F5A95E1F764
:10530000062B172B41FB772770F968967FAF6897BC
:1053100069961FAE699769966EAD7FAD6997769570
:10532000762F662777956795602B712B42FB442774
:1053300040F96B964FAF6B976A961FAE6A976B9664
:10534000AEADBFAD6B976A2B7B2B21FB992790F9F4
:10535000990F990F6D969FAF6D976C961FAE6C97D6
:105360006D96EEACFFAC6D976E297F2922FB22274C
:1053700020F9220F220F220F6F962FAF6F976E9694
:105380001FAE6E976F960EAD1FAD6F97602B712B92
:1053900081FB992790F99295990F907EA1969FAFE6
:1053A000A197A0961FAEA097A196AEADBFADA19755
:1053B0006A2B7B2B82FB882780F98295880F880FC8
:1053C000807CA3968FAFA397A2961FAEA297A396B9
:1053D000EEACFFACA3976E297F29D1011A966C938E
:1053E0001A971B967C9304AD15AD66AD77AD46A9B3
:1053F00057A920AD31AD82AD93AD7801B1E0EB227C
:10540000FF246701CC0CDD1CDB01A170BB2714E07D
:10541000AA0FBB1F1A95E1F77D01EC28FD28DA01E0
:10542000A170BB2756E0AA0FBB1F5A95E1F7AE2922
:10543000BF29BA83A983D901A170BB27BA2FAA2794
:10544000BB0FC980DA80CA2ADB2A7C01B1E0EB22DB
:10545000FF245701BA2CAA24B294A0EFBA22D60195
:10546000AA29BB2901FBEE24E0F8A496EFAEA4978D
:10547000A5961FAEA597A596EEACFFACA597EE0C32
:10548000FF1CEE0CFF1CAE29BF2902FBFF24F0F825
:10549000A696FFAEA697A7961FAEA797A7960EADA6
:1054A0001FADA79793E0000F111F9A95E1F7A02B6E
:1054B000B12B61FB112710F9A8961FAFA897A996E9
:1054C0001FAEA997A996EEACFFACA99735E0EE0CFC
:1054D000FF1C3A95E1F7EA2AFB2A62FB662760F98E
:1054E000679566276795AB966FAFAB97AA961FAE89
:1054F000AA97AB960EAD1FADAB97E02AF12A41FB00
:10550000112710F9AC961FAFAC97AD961FAEAD97B3
:10551000AD96AEADBFADAD97B695BA2FAA27B795EC
:10552000A795EA2AFB2A42FB442740F9AF964FAFE2
:10553000AF97AE961FAEAE97AF96AEADBFADAF977D
:10554000EA2AFB2A21FB992790F9990F990FE196F6
:105550009FAFE197E0961FAEE097E1960EAD1FADCD
:10556000E197E02AF12A22FB222720F9220F220FBD
:10557000220FE3962FAFE397E2961FAEE297E396F2
:10558000AEADBFADE397EA2AFB2A81FB992790F9DC
:105590009295990F907EE5969FAFE597E4961FAEA2
:1055A000E497E5960EAD1FADE597E02AF12A82FB60
:1055B000882780F98295880F880F807CE7968FAFC7
:1055C000E797E6961FAEE697E7968EAD9FADE79715
:1055D000E82AF92AD1011C96EC921C971D96FC92A0
:1055E000DF01A85BBF4FCD90DC9011971296AD9074
:1055F000BC90CF018C5B9F4FDC012D913C910296BA
:10560000DC018D919C918601017011277801EE0CCF
:10561000FF1CB50161707727A4E0660F771FAA957C
:10562000E1F78701062B172BB90161707727762FD9
:105630006627770F602B712BAC0141705527542FD3
:1056400044275295507F462B572BC1FABB27B0F900
:10565000E896BFAFE897E9961FAEE997E9966EAD79
:105660007FADE997660F771F660F771F462B572B85
:10567000C2FAEE24E0F8EA96EFAEEA97EB961FAE98
:10568000EB97EB966EAD7FADEB9793E0660F771FD0
:105690009A95E1F7462B572BA1FAFF24F0F8EC96E8
:1056A000FFAEEC97ED961FAEED97ED966EAD7FAD2C
:1056B000ED9735E0660F771F3A95E1F7462B572BAC
:1056C000A2FA002700F9EE960FAFEE97EF961FAE05
:1056D000EF97EF966EAD7FADEF97A6E0660F771F61
:1056E000AA95E1F7642B752B21FB992790F9990F67
:1056F000990FC058DF4F9883C058D040C158DF4F32
:105700001882CF57D040C158DF4FA881B981CF57F9
:10571000D0406A2B7B2B22FB222720F9220F220F5D
:10572000220FCE57DF4F2883C258D040CF57DF4FCC
:105730001882C158D040CF57DF4FE880F980C15858
:10574000D0406E297F2981FB992790F99295990F76
:10575000907ECC57DF4F9883C458D040CD57DF4F51
:105760001882C358D040CD57DF4F08811981C358E4
:10577000D040602B712B82FB882780F98295880F9F
:10578000880F807CCA57DF4F8883C658D040CB57DC
:10579000DF4F1882C558D040CB57DF4F88819981A1
:1057A000C558D040682B792BD1011E966C931E975B
:1057B0001F967C93DF01AC5ABF4F0D911C9111973E
:1057C0001296ED90FC901197FA82E98254976D91B0
:1057D0007C9111971E964D915C91119712962D9187
:1057E0003C91D801A170BB277D01EE0CFF1CA98163
:1057F000BA81A170BB2714E0AA0FBB1F1A95E1F76D
:10580000AE29BF29CB019695982F88279795879524
:1058100099278A2B9B2B61FBFF24F0F8C957DF4F98
:10582000F882C758D040C857DF4F1882C858D040B8
:10583000C957DF4FA881B981C758D0408A2B9B2B0D
:105840007A01B1E0EB22FF24FE2CEE24FF0C8E291E
:105850009F297901A1E0EA22FF24FE2CEE24F29494
:10586000B0EFFB228E299F2901FBBB27B0F9C75758
:10587000DF4FB883C958D040C657DF4F1882CA5887
:10588000D040C757DF4FE880F980C958D040EE0CB0
:10589000FF1CEE0CFF1C8E299F2902FBEE24E0F872
:1058A000C557DF4FE882CB58D040C457DF4F18822E
:1058B000CC58D040C557DF4FE880F980CB58D04056
:1058C00003E0EE0CFF1C0A95E1F78E299F29098160
:1058D00006950170C357DF4F0883CD58D040C2579B
:1058E000DF4F1882CE58D040C357DF4FE880F98091
:1058F000CD58D04035E0EE0CFF1C3A95E1F78E29EB
:105900009F29198112FB112710F9C157DF4F188306
:10591000CF58D040C057DF4F1882C059D040C15730
:10592000DF4FE880F980CF58D04056E0EE0CFF1CE6
:105930005A95E1F7E82AF92A62FB662760F9CE5604
:10594000DF4F6883C259D040CF56DF4F1882C1590C
:10595000D040CF56DF4F88819981C159D040E82A85
:10596000F92A41FB882780F9880F880FCC56DF4F32
:105970008883C459D040CD56DF4F1882C359D040D8
:10598000CD56DF4FA881B981C359D040EA2AFB2AFE
:1059900042FB442740F9440F440F440FCA56DF4FDF
:1059A0004883C659D040CB56DF4F1882C559D040E6
:1059B000CB56DF4F08811981C559D040E02AF12A22
:1059C00021FB882780F98295880F807EC856DF4F9B
:1059D0008883C859D040C956DF4F1882C759D04074
:1059E000C956DF4F88819981C759D040E82AF92AE2
:1059F00022FB222720F92295220F220F207CC65657
:105A0000DF4F2883CA59D040C756DF4F1882C95983
:105A1000D040C756DF4FA881B981C959D040EA2A82
:105A2000FB2AD201EC921196FC92DF01A05ABF4FE3
:105A30000D911C9111971296ED90FC901197FA829E
:105A4000E98254974D915C9111971E962D913C914E
:105A5000119712968D919C91780161E0E622FF24C6
:105A60006701CC0CDD1CA981BA81A170BB2774E051
:105A7000AA0FBB1F7A95E1F77601EA2AFB2ADA0121
:105A8000B695BA2FAA27B795A795BB27AE29BF29E8
:105A9000B90161707727762F6627770F6A2B7B2BEA
:105AA000DC01A170BB27BA2FAA27B295B07F6A2B61
:105AB0007B2B01FBAA27A0F9C556DF4FA883CB5942
:105AC000D040C456DF4F1882CC59D040C556DF4F66
:105AD000A881B981CB59D040AA0FBB1FAA0FBB1F09
