:100000001AC100000C946C410C9441410C941641AF
:100010000C94EB400C94C0400C9495400C946A40B6
:100020000C943F400C9497410C9497410C94974149
:1000300033C1000031C100002FC100002DC10000FC
:100040002BC100000C949D4227C1000025C1000077
:1000500023C1000021C100001FC100000C94F53F26
:100060001BC100000C94CB4217C1000015C1000059
:1000700013C1000011C100000FC100000DC100003C
:100080000C946F4209C1000007C1000005C10000C7
:1000900003C1000001C10000FFC00000FDC000005E
:1000A000FBC00000F9C000000C944142F5C0000004
:1000B000F3C00000F1C00000EFC000000C94134238
:1000C000EBC00000E9C00000E7C00000E5C0000090
:1000D000E3C00000E1C00000DFC00000DDC00000A0
:1000E000DBC00000084AD73B3BCE016E84BCBFFD9D
:1000F000C12F3D6C74319ABD56833DDA3D00C77FF8
:1001000011BED9E4BB4C3E916BAAAABE0000008090
:100110003F0000002100240027002A002D003000AD
:10012000330001010000040107010A0100000A0B6D
:1001300002090C0D0E080703040100000000000076
:1001400000000000000000000000000000000000AF
:10015000000000000000000012111000000000006C
:10016000000000000000000000000000000000008F
:100170000000000020002300260029002C002F0092
:100180003200000100000301060109010000220005
:10019000250028002B002E00310034000201000051
:1001A000050108010B0105050505070508080808F4
:1001B000020202020A0A08080404040401010101FF
:1001C00001010101030303030303030304070707FA
:1001D0000C0C0C0C0C0C0C0C02020202060606069F
:1001E000060606060B0B0B0B0B0B0B0B010210206C
:1001F000200808102040102040800201020108045D
:1002000002010102040810204080804020100804F0
:100210000201800402018040201008040201080449
:10022000020101020408102040800102040810208D
:1002300040803844FE4C11241FBECFEFD1E2DEBF18
:10024000CDBF00E00CBF12E0A0E0B2E0E4EDF5EAC3
:1002500000E00BBF02C007900D92AA3BB107D9F78F
:1002600029E0AAEBB2E001C01D92AB3BB207E1F777
:1002700011E0CAE1D1E000E006C021970109802F1A
:10028000FE010E946D51C931D10780E00807A9F72E
:100290000E94B7440C94D952B3CE9091C00095FF00
:1002A000FCCF8093C60008950F931F93CF93C82F60
:1002B00009EC16E0CC2331F0F80181918F01EDDFDC
:1002C000C150F8CFCF911F910F9108952F923F9277
:1002D0004F925F926F927F928F929F92AF92BF9256
:1002E000CF92DF92EF92FF920F931F93CF93DF9302
:1002F000CDB7DEB7C05AD1090FB6F894DEBF0FBE36
:10030000CDBFFC01C156DF4F79836883CF59D04000
:100310004A014281538184819581E680E982F0849B
:10032000FA825A0123E0AA0CBB1C2A95E1F708E0E7
:10033000A022BB246C0136E0CC0CDD1C3A95E1F721
:1003400010E4C122DD24AC28BD2860817181677072
:1003500077276A297B29BE2DBB0FA0E0AA27B270A0
:100360006A2B7B2BF294A0EFFA22E12CEE2420E101
:10037000F2226E297F295A01B3E0AA0CBB1CBA9560
:10038000E1F730E1A322BB246A297B295A0113E05B
:10039000AA0CBB1C1A95E1F740E2A422BB24A62AB2
:1003A000B72AAC0106E0440F551F0A95E1F74078E3
:1003B0005527A42AB52A26E0880F991F2A95E1F728
:1003C00088279170A82AB92A1981110F00E0002707
:1003D0001470A02AB12A3981330F20E02227387007
:1003E000A22AB32A7A80729430EF7322612C662499
:1003F00050E27522A628B7285A80529440EF542222
:10040000412C442460E45622A428B528C156DF4F6D
:10041000A881B981CF59D040AC921196BC92268563
:10042000378580899189A289B489B90153E0660F23
:10043000771F5A95E1F768707727AC0116E0440FF3
:10044000551F1A95E1F740745527462B572B3A2E26
:10045000330C212C222402E03022242A352A1B2F9F
:100460001295107F1C831B824B815C814427507145
:10047000242A352AB90103E0660F771F0A95E1F7B0
:1004800060717727262A372AB90123E0660F771F84
:100490002A95E1F760727727622973291C0136E0FB
:1004A000220C331C3A95E1F720E8222233246229FA
:1004B000732946E0880F991F4A95E1F788279170C4
:1004C000682B792B3A2F330F3E831D822D803E807F
:1004D000222444E034226229732938871F822F8026
:1004E0003884222458E03522622973291A87198614
:1004F00029843A84222490E23922622973291C87B4
:100500001B862B843C842224A0E43A22622973298E
:10051000C156DF4FA881B981CF59D04012966C9354
:10052000129713967C9344855585228D338D848D47
:10053000958DA68DB285BA01660F771F62707727F9
:1005400041FBEE24E0F8ED861E860D851E85602BAE
:10055000712B44705527462B572BB90103E0660FCA
:10056000771F0A95E1F768707727462B572BBC0158
:1005700016E0660F771F1A95E1F760747727462B10
:10058000572B1A2F110F188B1F866F8578896627B6
:100590007270642B752B4B2F4295407F4A8B198AC2
:1005A00049895A8944275071642B752B890143E08E
:1005B000000F111F4A95E1F700711127602B712B75
:1005C000890153E0000F111F5A95E1F700721127BE
:1005D000062B172BBC0126E0660F771F2A95E1F743
:1005E00060787727062B172B36E0880F991F3A95EE
:1005F000E1F788279170082B192B5A2F550F5C8B28
:100600001B8A6B897C8966277470062B172B5E8B7F
:100610001D8A6D897E8966277870062B172B6B2FB4
:100620006295607F688F1F8A6F89788D66277072E8
:10063000062B172BB295B07FBA8F198E698D7A8DE4
:1006400066277074062B172BC156DF4FA881B9811E
:10065000CF59D04014960C93149715961C93408D47
:10066000518D26A137A180A591A502A51689DA0191
:10067000AA0FBB1FA270BB27BA0176956795769526
:1006800067957727669577956627A62BB72B69011F
:1006900063E0CC0CDD1C6A95E1F768E0C622DD243E
:1006A000AC29BD296C0176E0CC0CDD1C7A95E1F714
:1006B00070E4C722DD24AC29BD29E02EEE0CEC8EBF
:1006C0001B8ECB8CDC8CCC2462E0D622AC29BD29DD
:1006D000712F7295707F7E8F1D8ECD8CDE8CCC2419
:1006E00060E1D622BD016C297D29DA01AA0FBB1F6A
:1006F000A470BB27A62BB72BB90153E0660F771F59
:100700005A95E1F7607177276A2B7B2BD90123E09B
:10071000AA0FBB1F2A95E1F7A072BB27A62BB72B08
:10072000BC0136E0660F771F3A95E1F760787727CE
:100730006A2B7B2B46E0880F991F4A95E1F78827A3
:100740009170AB01482B592BE8A21F8E6F8D78A1B9
:1007500066277470462B572BEAA219A269A17AA1C9
:1007600066277870462B572B812F8295807F8CA32C
:100770001BA26BA17CA166277072462B572B8EA300
:100780001DA26DA17EA166277074642B752BC156C6
:10079000DF4FA881B981CF59D04016966C93169738
:1007A00017967C9324A135A184A995A9A0A1B2A1F3
:1007B000A901440F551F42705527BC0116E0660F72
:1007C000771F1A95E1F760747727642B752BEA2E53
:1007D000EE0CE8A61FA24FA158A544275270462B45
:1007E000572BFB2EF29400EFF022FAA619A669A56A
:1007F0007AA566277071462B572B8901000F111FB0
:1008000004701127402B512B8901000F111F087014
:100810001127042B152BAC0126E0440F551F2A95F8
:10082000E1F740785527042B152B36E0880F991FE8
:100830003A95E1F788279170082B192BECA61BA697
:100840004BA55CA544275470042B152BEEA61DA6C2
:100850004DA55EA544275870042B152BF8AA1FA69A
:100860004FA558A944275072042B152BFAAA19AA90
:1008700049A95AA944275074042B152BC156DF4FA0
:10088000A881B981CF59D04018960C931897199622
:100890001C9342A953A920A931A9BF01605C7F4FD5
:1008A000DB018D919C9104A516A5BA01A4E0660F09
:1008B000771FAA95E1F76071772741FBBB27B0F955
:1008C000BBAB1CAAEBA8FCA86E297F297901EE0C12
:1008D000FF1CA2E0EA22FF246E297F297C01A6E00A
:1008E000EE0CFF1CAA95E1F7B0E4EB22FF246E2981
:1008F0007F29E02EEE0CEEAA1DAAEDA8FEA8EE249C
:10090000A2E0FA226E297F29B12FB295B07FB8AF4D
:100910001FAAEFA8F8ACEE24A0E1FA226E297F29E5
:100920007A01B3E0EE0CFF1CBA95E1F7B0E2EB22DE
:10093000FF24E62AF72AB901660F771F647077272C
:100940006E297F29D901AA0FBB1FA870BB27A62B30
:10095000B72BBC0126E0660F771F2A95E1F7607878
:1009600077276A2B7B2B36E0880F991F3A95E1F7A2
:1009700088279170AB01482B592BE02EEE0CEAAE84
:1009800019AE69AD7AAD66277470462B572BECAE65
:100990001BAE6BAD7CAD66277870462B572BF12EC6
:1009A000F29460EFF622FEAE1DAE6DAD7EAD662711
:1009B0007072462B572B2196FFAE21971FAE2196C2
:1009C0006EAD7FAD219766277074642B752BC15671
:1009D000DF4FA881B981CF59D0401A966C931A97EE
:1009E0001B967C9344AD55AD26AD37AD86A997A92E
:1009F00000AD12ADDA01AA0FBB1F7D0162E0E62255
:100A0000FF24B901A4E0660F771FAA95E1F7607192
:100A100077276E297F297901F694E794F694E79475
:100A2000FF24E694F794EE246E297F297C01B6E03A
:100A3000EE0CFF1CBA95E1F7A0E4EA22FF246E2930
:100A40007F29B02FBB0F2396BFAF239722961FAEEF
:100A500022972396EEACFFAC2397EE24A2E0FA2275
:100A6000E62AF72AB12FB295B07F2596BFAF25971A
:100A700024961FAE249725966EAD7FAD25976627E9
:100A800070716701C62AD72A7A01EE0CFF1C64E058
:100A9000E622FF24EC28FD28440F551F48705527F7
:100AA000E42AF52AA4E0220F331FAA95E1F7207269
:100AB0003327E22AF32AAC0126E0440F551F2A957A
:100AC000E1F7407855274E295F2936E0880F991FB6
:100AD0003A95E1F788279170BA01682B792B802F1E
:100AE000880F27968FAF279726961FAE26972796B3
:100AF0004EAD5FAD279744275470642B752B299614
:100B00008FAF299728961FAE289729964EAD5FADD7
:100B1000299744275870642B752B2B96BFAF2B97C2
:100B20002A961FAE2A972B964EAD5FAD2B97442782
:100B30005072642B752B2D96BFAF2D972C961FAE40
:100B40002C972D964EAD5FAD2D9744275074462BB4
:100B5000572BC156DF4FA881B981CF59D0401C9681
:100B60004C931C971D965C939F01285B3F4FD901C6
:100B70002D913C91AF01465B5F4FDA018D919C91C5
:100B8000BF016C5B7F4FDB01FC9044505109DA01DF
:100B9000EC90A901440F551F42705527BC01A4E0F9
:100BA000660F771FAA95E1F760717727642B752B85
:100BB000BF2DBB0F2F96BFAF2F972E961FAE2E9730
:100BC0002F964EAD5FAD2F9744275270462B572B73
:100BD0000E2D0295007F61960FAF619760961FAE54
:100BE000609761966EAD7FAD619766277071462BF9
:100BF000572B8901000F111F04701127402B512B17
:100C00008901000F111F08701127042B152BAC014F
:100C1000A4E0440F551FAA95E1F740725527042B15
:100C2000152B24E0880F991F2A95E1F780749927E6
:100C3000082B192B6396BFAF639762961FAE62971E
:100C400063964EAD5FAD639744275470042B152B0C
:100C50006596BFAF659764961FAE649765964EAD77
:100C60005FAD659744275870042B152B3E2D3295A8
:100C7000307F67963FAF679766961FAE6697679619
:100C80004EAD5FAD679744275072042B152B6996C4
:100C90003FAF699768961FAE689769964EAD5FAD96
:100CA000699744275074042B152BC156DF4FA88138
:100CB000B981CF59D0401E960C931E971F961C9356
:100CC000DF01AC5ABF4F4D915C91119712962D9157
:100CD0003C91119754978D919C9111971E96EC9091
:100CE000EA821296FC90F982DA01AA0FBB1FA27069
:100CF000BB27B90114E0660F771F1A95E1F7607101
:100D000077276A2B7B2BDC01B695BA2FAA27B795DC
:100D1000A795BB276A2B7B2B81FB002700F96A96DE
:100D20000FAF6A976B961FAE6B976B96AEADBFAD6C
:100D30006B976A2B7B2BEE0C6D96EFAE6D976C96D6
:100D40001FAE6C976D96AEADBFAD6D97AA27B27012
:100D50006A2B7B2BF294A0EFFA226F96FFAE6F976F
:100D60006E961FAE6E976F96AEADBFAD6F97AA270A
:100D7000B0716A2B7B2B8A01000F111F04701127A1
:100D8000602B712B8A01000F111F08701127062B91
:100D9000172BB90154E0660F771F5A95E1F760727F
:100DA0007727062B172B64E0220F331F6A95E1F794
:100DB00020743327022B132B76E0880F991F7A9526
:100DC000E1F788279170082B192BA196EFAEA19718
:100DD000A0961FAEA097A1966EAD7FADA197662796
:100DE0007470062B172BA396EFAEA397A2961FAE97
:100DF000A297A3966EAD7FADA39766277870062B5A
:100E0000172BF980F294A0EFFA22A596FFAEA597D2
:100E1000A4961FAEA497A5966EAD7FADA597662745
:100E20007072602B712BA796FFAEA797A6961FAE88
:100E3000A697A7960EAD1FADA79700271074602B3D
:100E4000712BD4016C9311967C93DF01A05ABF4F94
:100E50004D915C91119712962D913C911197549759
:100E60008D919C9111971E96EC90EA821296FC90BF
:100E7000F982DA01AA0FBB1FA270BB27B90104E0F7
:100E8000660F771F0A95E1F7607177276A2B7B2B36
:100E9000DC01B695BA2FAA27B795A795BB276A2B71
:100EA0007B2BDC01B695A795B695A795BB27A69594
:100EB000B795AA276A2B7B2BEE0CA996EFAEA997C4
:100EC000A8961FAEA897A996AEADBFADA997AA27C1
:100ED000B270A62BB72BF29400EFF022AB96FFAEC8
:100EE000AB97AA961FAEAA97AB966EAD7FADAB97A8
:100EF00066277071A62BB72B8A01000F111F047093
:100F00001127A02BB12B8A01000F111F0870112788
:100F10000A2B1B2BD90144E0AA0FBB1F4A95E1F70E
:100F2000A072BB270A2B1B2B54E0220F331F5A95AC
:100F3000E1F720743327022B132BDC01B695A7951C
:100F4000BA2FAA27AA27B1700A2B1B2BAD96EFAE9A
:100F5000AD97AC961FAEAC97AD96AEADBFADAD97AD
:100F6000AA27B4700A2B1B2BAF96EFAEAF97AE96A5
:100F70001FAEAE97AF96AEADBFADAF97AA27B87014
:100F80000A2B1B2BE196FFAEE197E0961FAEE09790
:100F9000E196AEADBFADE197AA27B072A02BB12B01
:100FA000E396FFAEE397E2961FAEE297E3960EADAF
:100FB0001FADE397002710740A2B1B2BD401129648
:100FC0000C93129713961C93DF01A459BF4F4D91B8
:100FD0005C91119790972D913C9111971E968D9150
:100FE0009C91119750961C917A01EE0CFF1CB70151
:100FF00062707727D90104E0AA0FBB1F0A95E1F7B9
:10100000A071BB276A2B7B2B7C836B83BC017695FD
:10101000762F6627779567957727AB81BC816A2BFA
:101020007B2BB12FB295B07FE596BFAFE597E496E5
:101030001FAEE497E596AEADBFADE597AA27B071B8
:101040006A2B7B2B7A01EE0CFF1CD701A470BB2707
:10105000A62BB72BA70148705527A42BB52BBC8313
:10106000AB83790104E0EE0CFF1C0A95E1F7B0E2D6
:10107000EB22FF244B815C81E42AF52A44E0220F15
:10108000331F4A95E1F720743327E22AF32A6C01D3
:10109000D694C794DC2CCC24CC2451E0D522EC2867
:1010A000FD289695982F8827979587958827927081
:1010B000E82AF92A612F6295607FE7966FAFE7977C
:1010C000E6961FAEE697E7968EAD9FADE797882729
:1010D0009072E82AF92AE9966FAFE997E8961FAE71
:1010E000E897E9968EAD9FADE99788279074E82A36
:1010F000F92AD4011496EC9214971596FC92DF010C
:10110000A858BF4F6D917C91119790974D915C912C
:1011100011971E962D913C91119712960C911E9647
:101120001C917B01EE0CFF1CC70182709927DA012C
:10113000A295B295B07FBA27A07FBA27A071BB272E
:101140008A2B9B2B9C838B83C9019695982F88278C
:10115000979587959927AB81BC818A2B9B2BB02FC4
:10116000BB0FBB0FEB96BFAFEB97EA961FAEEA97AC
:10117000EB96AEADBFADEB97AA27B4708A2B9B2B35
:1011800001FBEE24E0F8EC96EFAEEC97ED961FAE87
:10119000ED97ED96AEADBFADED978A2B9B2BB12FA2
:1011A000B295B07FEF96BFAFEF97EE961FAEEE977A
:1011B000EF96AEADBFADEF97AA27B0718A2B9B2BF0
:1011C0007B01EE0CFF1CD701A470BB27A82BB92B09
:1011D000B70168707727A62BB72BBC83AB837A0146
:1011E00084E0EE0CFF1C8A95E1F7B0E2EB22FF24CD
:1011F0006B817C81E62AF72A94E0440F551F9A956B
:10120000E1F740745527E42AF52A6901D694C7947A
:10121000DC2CCC24CC2471E0D722EC28FD28369598
:10122000322F22273795279522273270E22AF32A78
:10123000000FC058DF4F0883C058D040C158DF4F5F
:101240001882CF57D040C158DF4F28813981CF57FE
:10125000D04022273870E22AF32A812F8295807F9E
:10126000CE57DF4F8883C258D040CF57DF4F188208
:10127000C158D040CF57DF4F28813981C158D04065
:1012800022273072E22AF32ACC57DF4F8883C458D2
:10129000D040CD57DF4F1882C358D040CD57DF4FD5
:1012A00028813981C358D04022273074E22AF32A9A
:1012B000D4011696EC9216971796FC92DF01AC5764
:1012C000BF4FCD90DC909F012C593F4FD9016D91BC
:1012D0007C91225F3F4FD9012D913C91AF014C5839
:1012E0005F4FDA018D919C918F010E571F4FD801EE
:1012F0001C91D601AA0FBB1F7D0102E0E022FF2452
:10130000AB01A4E0440F551FAA95E1F740715527A2
:101310004E295F297901F694FE2CEE24F794E79488
:10132000FF244E295F297C01FE2CEE24FF0CFF0CCC
:10133000EE24A4E0FA224E295F297C01F694E7947A
:10134000F694E794FF24E694F794EE24E42AF52A31
:10135000B12FB295B07FCA57DF4FB883C658D0407F
:10136000CB57DF4F1882C558D040CB57DF4F48814D
:101370005981C558D040442750715701A42AB52A35
:101380007601EE0CFF1C04E0E022FF24EA28FB2893
:10139000D601AA0FBB1FA870BB27EA2AFB2A6B0144
:1013A00054E0CC0CDD1C5A95E1F740E2C422DD2468
:1013B000CE28DF28A4E0660F771FAA95E1F76074B6
:1013C0007727C62AD72A5901B694A794BA2CAA24FB
:1013D000AA2451E0B522CA28DB283695322F2227CD
:1013E0003795279522273270C22AD32A982F88272B
:1013F000990F990F88279870C82AD92A612F62956A
:10140000607FC857DF4F6883C858D040C957DF4F47
:101410001882C758D040C957DF4F88819981C75873
:10142000D04088279072C82AD92AC657DF4F6883D0
:10143000CA58D040C757DF4F1882C958D040C75745
:10144000DF4F88819981C958D04088279074C82A75
:10145000D92AD4011896CC9218971996DC92DF01FC
:10146000A259BF4F4D915C91119712962D913C91CD
:1014700011971E968D919C91119712961C917A014D
:10148000EE0CFF1CB70162707727D90104E0AA0FA8
:10149000BB1F0A95E1F7A071BB276A2B7B2B7C83CE
:1014A0006B83BC017695762F6627779567957727AE
:1014B000AB81BC816A2B7B2BB12FBB0FBB0FC457F9
:1014C000DF4FB883CC58D040C557DF4F1882CB5878
:1014D000D040C557DF4FA881B981CB58D040AA274B
:1014E000B4706A2B7B2B7A01EE0CFF1CD701A47021
:1014F000BB27A62BB72BA70148705527A42BB52BCC
:10150000BC83AB83790104E0EE0CFF1C0A95E1F784
:10151000B0E2EB22FF244B815C81E42AF52A44E00F
:10152000220F331F4A95E1F720743327E22AF32A6A
:101530006C01D694C794DC2CCC24CC2451E0D52269
:10154000EC28FD289695982F8827979587958827CA
:101550009270E82AF92A612F660F660FC257DF4F93
:101560006883CE58D040C357DF4F1882CD58D04043
:10157000C357DF4F88819981CD58D0408827987014
:10158000E82AF92AC057DF4F6883C059D040C157B5
:10159000DF4F1882CF58D040C157DF4F88819981E3
:1015A000CF58D04088279071E82AF92AD4011A969A
:1015B000EC921A971B96FC92DF01A658BF4F2D9113
:1015C0003C91119712968D919C9111971E964D9179
:1015D0005C91119712960C9112961C917901EE0C68
:1015E000FF1CB70162707727DC01A295B295B07F2E
:1015F000BA27A07FBA27A071BB276A2B7B2B7C83DD
:101600006B83BA017695762F66277795679577274E
:10161000AB81BC816A2B7B2BB02FBB0FBB0FCE568F
:10162000DF4FB883C259D040CF56DF4F1882C1591F
:10163000D040CF56DF4FA881B981C159D040AA27E9
:10164000B4706A2B7B2BE12EE294EE0CB0EEEB2211
:10165000CC56DF4FE882C459D040CD56DF4F1882B8
:10166000C359D040CD56DF4FA881B981C359D0406E
:10167000AA27B072A62BB72B11FBFF24F0F8CB568C
:10168000DF4FF882C559D040CA56DF4F1882C6597D
:10169000D040CB56DF4FE880F980C559D040AE2905
:1016A000BF29B901660F771F64707727A62BB72B68
:1016B0007901EE0CFF1C9701287033272A2B3B2B56
:1016C000DC0164E0AA0FBB1F6A95E1F7A072BB279B
:1016D0002A2B3B2B74E0880F991F7A95E1F78074D1
:1016E0009927822B932BDA01B695A795BA2FAA27B3
:1016F000AA27B1708A2B9B2B5695542F44275795B8
:10170000479544275270482B592B302F330F330FF6
:10171000C856DF4F3883C859D040C956DF4F1882AA
:10172000C759D040C956DF4F88819981C759D040E9
:1017300088279870482B592BC656DF4F3883CA59D3
:10174000D040C756DF4F1882C959D040C756DF4F27
:1017500088819981C959D04088279071482B592B8D
:101760001295107FC456DF4F1883CC59D040C55610
:10177000DF4F1882CB59D040C556DF4F8881998101
:10178000CB59D04088279074482B592BD4011C96F4
:101790004C931C971D965C93DF01AA57BF4F4D9148
:1017A0005C91E857FF4F20813181CA01880F991F52
:1017B00082709927B901E4E0660F771FEA95E1F797
:1017C00060717727862BBA01660F771F64707727C1
:1017D000862B440F551F48705527842BA901B4E070
:1017E000440F551FBA95E1F740725527842B14E03A
:1017F000220F331F1A95E1F720743327822BF4014F
:1018000086871786C056DF4F0FB6F894DEBF0FBE2F
:10181000CDBFDF91CF911F910F91FF90EF90DF909F
:10182000CF90BF90AF909F908F907F906F905F9080
:101830004F903F902F900895AF92BF92CF92DF923A
:10184000EF92FF920F931F93CF93DF93DC0128E079
:1018500030E081E0AA24AA94B12C0FE010E043E22A
:10186000E42EF12C57EDC52ED12C9C911196ED91C3
:10187000FC911297592F5095462F4823A1F1F894C7
:101880004281452342834181492B4183E7012197CE
:10189000F1F74281942B92837894F6013197F1F716
:1018A000880F2150310909F7F8941196ED91FC91B8
:1018B000129791818C918095892381831196ED9166
:1018C000FC91129792818C918095892382837894E0
:1018D000DF91CF911F910F91FF90EF90DF90CF900C
:1018E000BF90AF900895F89442814523428341818F
:1018F000492B4183E5012197F1F74281942B928393
:101900007894F801CBCFE82FF0E0DF01AA0FBB1FDE
:10191000AE5FBD4F11967C936E93883008F045C042
:101920008827EA56F34F8F4F0C946D51BA0CC10CB7
:101930009E0CA50CAC0CB30CC80CCF0C80916900AC
:10194000836080936900E89A0895809169008C60B3
:1019500080936900E99A089580916900806380937B
:101960006900EA9A089580916900806C809369000B
:10197000EB9A089580916A00836080936A00EC9AE4
:10198000089580916A008C6080936A00ED9A0895B2
:1019900080916A00806380936A00EE9A0895809136
:1019A0006A00806C80936A00EF9A0895AF92BF92AC
:1019B000CF92DF92EF92FF920F931F93CF93DF931B
:1019C0006C017B018B01040F151FEB015E01AE184A
:1019D000BF08C017D10759F06991D601ED91FC916C
:1019E0000190F081E02DC6011995892B79F7C50189
:1019F000DF91CF911F910F91FF90EF90DF90CF90EB
:101A0000BF90AF9008958150823108F05AC0E82FFE
:101A1000F0E08827E15FF24F8F4F0C946D512F0D4E
:101A2000330D210D270D2B0D610D360D3C0D400D95
:101A3000460D4A0D4E0D540D580D610D5C0D620D95
:101A4000660D809180008F7780938000089580914B
:101A500080008F7DF9CF80918000877FF5CF84B59E
:101A60008F7784BD089584B58F7DFBCF8091B000C2
:101A70008F778093B00008958091B0008F7DF9CF6B
:101A8000809190008F7780939000089580919000CE
:101A90008F7DF9CF80919000877FF5CF8091A00056
:101AA0008F778093A00008958091A0008F7DF9CF5B
:101AB0008091A000877FF5CF809120018F77809360
:101AC00020010895809120018F7DF9CF8091200120
:101AD000877FF5CFCF93DF93282F30E0F901E45DC6
:101AE000FE4F8491F901E451FE4FD491F901EA557A
:101AF000FE4FC491CC2399F0811185DFEC2FF0E0EB
:101B0000EE0FFF1FEE58FE4FA591B491EC91ED231F
:101B100081E090E009F480E0DF91CF91089580E0CA
:101B200090E0FACF1F93CF93DF93282F30E0F90195
:101B3000E45DFE4F8491F901E451FE4FD491F90127
:101B4000EA55FE4FC491CC23A1F0162F81115BDF23
:101B5000EC2FF0E0EE0FFF1FE457FE4FA591B4917C
:101B60008FB7F894EC91111108C0D095DE23DC9367
:101B70008FBFDF91CF911F910895DE2BF8CFCF93C8
:101B8000DF9390E0FC01E451FE4F24918A559E4F73
:101B9000FC0184918823C9F090E0880F991FFC0113
:101BA000EE5EFE4FA591B491FC01E457FE4FC59146
:101BB000D49161110DC09FB7F8948C912095822328
:101BC0008C938881282328839FBFDF91CF9108952C
:101BD000623051F49FB7F8943C91822F8095832313
:101BE0008C93E8812E2BEFCF8FB7F894EC912E2BAE
:101BF0002C938FBFEACF4F925F926F927F928F921A
:101C00009F92AF92BF92CF92DF92EF92FF920F938B
:101C10001F93CF93DF934A015B019C0150E040E0AA
:101C200060E472E48FE090E00E94A94D690161E0F8
:101C30008091A409A4DFA8EEB3E0A50194010E945D
:101C4000C54D2B013C01E601D7FC2196D595C795E2
:101C50008E01000F111F000F111F055011090D2CCF
:101C6000000CEE08FF08812C912C5401841495047B
:101C7000A604B704D0F461E08091A40953DFC23018
:101C8000D10518F0C8010197F1F760E08091A4092F
:101C900049DFC230D10518F0C8010197F1F7A895C6
:101CA0008C0C9D1CAE1CBF1CE1CFDF91CF911F910E
:101CB0000F91FF90EF90DF90CF90BF90AF909F90EB
:101CC0008F907F906F905F904F900895863308F0CB
:101CD000865320917B00982F9870277F922B9093AA
:101CE0007B008770806480937C0080917A008064A0
:101CF00080937A0080917A0086FDFCCF80917800F5
:101D0000909179000895BF92CF92DF92EF92FF9267
:101D10000F931F93CF93DF933AE0B32EC12CD12CB6
:101D20007601CFEFD3E010E000E083E4CFDF0817C7
:101D3000190708F48C018C179D0708F4EC01C80EF4
:101D4000D91EE11CF11CBA94B110EFCFD701C60126
:101D5000801B910BA109B1098C1B9D0BA109B10935
:101D600023E0B695A795979587952A95D1F7883F53
:101D700023E09207A105B10508F0A6C0893E23E043
:101D80009207A105B10508F0ABC08B3C23E0920798
:101D9000A105B10508F0A7C0833A23E09207A10589
:101DA000B10508F0A3C0853823E09207A105B1056D
:101DB00008F09FC08C3623E09207A105B10508F01A
:101DC0009BC0813223E09207A105B10508F097C0BE
:101DD0008F3F22E09207A105B10508F093C0813D35
:101DE00022E09207A105B10508F08FC08F3922E0EB
:101DF0009207A105B10508F08BC08D3622E092074D
:101E0000A105B10508F087C08F3422E09207A10533
:101E1000B10508F083C0833122E09207A105B10526
:101E200008F07FC0853F21E09207A105B10508F0C9
:101E30007BC0813E21E09207A105B10508F077C083
:101E4000823D21E09207A105B105D8F5873A21E04E
:101E50009207A105B10508F06DC0863921E092070F
:101E6000A105B10508F069C08C3721E09207A105F2
:101E7000B10508F065C08A3521E09207A105B105DA
:101E800000F5823321E09207A105B10508F05BC09F
:101E90008F3021E09207A105B10508F057C0803DC1
:101EA0009105A105B10508F054C0853A9105A10539
:101EB000B10508F051C08A379105A105B10508F0B8
:101EC0004EC08FEF90E002C090E080E0DF91CF91B4
:101ED0001F910F91FF90EF90DF90CF90BF900895EA
:101EE0008FE090E0F3CF83E190E0F0CF8CE090E0E2
:101EF000EDCF8AE090E0EACF85E090E0E7CF89E09F
:101F000090E0E4CF8BE090E0E1CF8DE090E0DECF99
:101F100082E090E0DBCF80E190E0D8CF8EE090E0EF
:101F2000D5CF88E090E0D2CF83E090E0CFCF84E1BE
:101F300090E0CCCF87E190E0C9CF85E190E0C6CFBB
:101F400087E090E0C3CF82E190E0C0CF86E090E0F0
:101F5000BDCF84E090E0BACF89E190E0B7CF88E1CF
:101F600090E0B4CF3FB7F8948091750690917606D3
:101F7000A0917706B091780626B5A89B05C02F3FA3
:101F800019F00196A11DB11D3FBFBA2FA92F982F9F
:101F90008827BC01CD01620F711D811D911D42E09A
:101FA000660F771F881F991F4A95D1F708958F9262
:101FB0009F92AF92BF92CF92DF92EF92FF924B012E
:101FC0005C01D0DF6B017C01CDDF6C197D098E09CE
:101FD0009F09683E734081059105B0F321E0821AA4
:101FE0009108A108B10888EEC80E83E0D81EE11C54
:101FF000F11C81149104A104B10431F7FF90EF901A
:10200000DF90CF90BF90AF909F908F9008958530D4
:1020100009F43AC088F4823031F128F460E081306C
:1020200019F180E01EC0833069F161E08430C9F7A6
:1020300086E178DD61E01BC0883081F148F48630AC
:1020400059F161E0873069F786E16CDD60E020C01E
:102050008E3F11F08F3F29F780E03CDD892B01F5A1
:1020600081E090E0089561E086E15CDD60E087E179
:1020700059DD61E088E156DD6FE070E080E090E0DE
:1020800096DF41CE60E0D4CF61E086E14BDD61E0D8
:1020900087E148DD60E0EECF60E0F7CF60E0D4CFCD
:1020A00080E018DD892BE1F263E070E080E090E0F1
:1020B0007EDF80E00FDD892B99F280E00BDD31E0DF
:1020C00020E0892B09F030E0832F922F08952FB75D
:1020D000F8946091710670917206809173069091E8
:1020E00074062FBF08958830F0F4282F30E0815017
:1020F000873000F5E82FF0E08827EE57FF4E8F4F2E
:102100000C946D519C1089109410961098109E108C
:10211000A010E898220F331FF901EE5FFD4F82EA0D
:1021200090E1918380830895E998F4CFEA98F2CF03
:10213000EB98F0CFEC98EECFED98ECCFEE98EACF9D
:10214000EF98E8CF089520916E0630916F0628171A
:10215000390771F490916D0680916C06981741F0E3
:10216000E0916D06F0E0E45DF94F808190E0089524
:102170008FEF9FEF08950895EF92FF920F931F93B3
:10218000CF93DF93DC015C96ED90FC905D97E114BA
:10219000F10479F481E090E013969C938E9312976A
:1021A00090E080E0DF91CF911F910F91FF90EF9031
:1021B00008955196ED91FC91529750968C915097BD
:1021C000982F90950FB75E962C915E97122F1270F4
:1021D00021FD6095F8942081112319F1282B20838B
:1021E000E7012197F1F728E0462F50E0308160FFAA
:1021F0001AC0382B3083E7012197F1F7BA017595A2
:102200006795215089F7112381F08081892380838C
:102210000FBF5C968D919C910197F1F781E090E062
:10222000C1CF2923DCCF3923E5CF9081892BEFCF94
:1022300020916E0630916F062817390769F4809156
:102240006C0620916D0690E0805C9F4F821B910987
:1022500060E470E00C945A5190E080E00895209181
:102260006E0630916F0628173907B9F490916D0604
:1022700080916C06981789F0E0916D06F0E0E45DBE
:10228000F94F808120916D0630E02F5F3F4F2F7313
:10229000332720936D0690E008958FEF9FEF089508
:1022A000E0916E06F0916F06E817F90769F4A389CB
:1022B000B4899C918589809589238C9310926F06AF
:1022C00010926E0681E0089580E008958F929F92AB
:1022D000AF92BF92FF920F931F93CF93DF93FC01B6
:1022E000F0808FE28F1508F44FC0828108E512E07C
:1022F000081B110987FD1395000F111F000F111FF7
:102300008181C8E8D0E0C81BD10987FDD395CC0FE7
:10231000DD1FCC0FDD1F4E010D2E000CAA08BB08DF
:10232000DB01653B710514F0A4EBB0E09801012ED0
:10233000000C440B550B281939094A095B090E9406
:10234000CF4D24EB30E040E050E00E94A94D820EDA
:10235000931EA41EB51E8C169D062CF0E801801657
:1023600091060CF4E4012297CC0FDD1F2FB7F894EF
:102370008F2D90E0FC01EE0FFF1FE80FF91FEF56C5
:10238000F84FD283C1832FBFDF91CF911F910F915F
:10239000FF90BF90AF909F908F90089581309105EE
:1023A00081F41092800082E0809381001092850079
:1023B00010928400B19A80916F00826080936F00C8
:1023C00008958230910569F41092900082E0809324
:1023D0009100109295001092940088BB8093710038
:1023E00008958330910569F41092A00082E08093F3
:1023F000A1001092A5001092A40089BB80937200E6
:102400000895892B61F41092200182E080932101CC
:1024100010922501109224018ABB809373000895C5
:10242000AF92BF92CF92DF92EF92FF920F931F93E2
:10243000CF93DF936B017A01EC01C85DD94F2881FE
:102440003CE0389F8001399F100D1124A090210895
:10245000B12C27FF1FC0FB011182108288818F5F82
:10246000888388819801280F311D87FD3A95F601F0
:102470002A153B051CF488818C30BCF18081918148
:10248000049680349C4908F471C0F60180819181E2
:1024900004966EC088819801280F311D87FD3A95FA
:1024A0002A153B05DCF68881A801480F511D87FDE0
:1024B0005A95FA01EE0FFF1FE40FF51FEF56F84F84
:1024C000808186FFCBCF8881F801E80FF11D87FD61
:1024D000FA95CF01EE0FFF1FE80FF91FEF56F84FE7
:1024E000808160E08F731EDBB9CF8081918128816C
:1024F000A801420F511D27FD5A959A01FA01EE0FCE
:10250000FF1FE20FF31FEF56F84F21813281820F38
:10251000931FF7019183808388819801280F311DD3
:1025200087FD3A95F901EE0FFF1FE20FF31FEF56FB
:10253000F84F808186FF21C08881080F111D87FD1B
:102540001A95F801EE0FFF1FE00FF11FEF56F84F3D
:10255000808161E08F73DF91CF911F910F91FF9088
:10256000EF90DF90CF90BF90AF90DCCA80E49CE901
:10257000F701918380838FEF8883DF91CF911F9143
:102580000F91FF90EF90DF90CF90BF90AF900895A4
:10259000DC0113966C93139770E0FB01E451FE4F3E
:1025A000E4911696EC931697FB01EA55FE4FE491E1
:1025B000F0E0EE0FFF1FEE58FE4F859194911896B4
:1025C0009C938E9317970895AF92BF92CF92DF920C
:1025D000EF92FF920F931F93CF93DF935C010AE07A
:1025E00010E0C12CD12C7601D0E0C0E060E0F50114
:1025F0008381C5DAF501838169DBC817D90708F43F
:10260000EC01C80ED91EE11CF11C0150110971F733
:10261000D701C6018C1B9D0BA109B10923E0B6951A
:10262000A795979587952A95D1F7DF91CF911F911F
:102630000F91FF90EF90DF90CF90BF90AF900895F3
:102640001F93CF93DF93EC0180912508803308F02E
:1026500043C01B8161E0812F92DA80912508282FE9
:1026600030E0F901EE0FFF1FE20FF31FEF56F84FB6
:102670001F739081907C912B90831092260810926A
:1026800027082CE0622F0E944E51829FB001112436
:1026900030E020E0AB01420F531FFA01EE0FFF1FA5
:1026A000E40FF51FEF56F84F908196FD07C02F5F9E
:1026B0003F4F2C30310571F790E070DEE091250836
:1026C0008E2F90E0FC01EE0FFF1FE80FF91FEF5671
:1026D000F84F80818064808380912208803308F0E5
:1026E00043C0CC8161E08C2F4ADA80912208282FE8
:1026F00030E0F901EE0FFF1FE20FF31FEF56F84F26
:10270000CF739081907C9C2B908310922308109221
:1027100024082CE0622F0E944E51829FB0011124A8
:1027200030E020E0AB01420F531FFA01EE0FFF1F14
:10273000E40FF51FEF56F84F908196FD07C02F5F0D
:102740003F4F2C30310571F790E028DEE0912208F0
:102750008E2F90E0FC01EE0FFF1FE80FF91FEF56E0
:10276000F84F808180648083DF91CF911F9108951D
:10277000FC01A381B4819781408551859A01220F84
:10278000331F240F351F728583856FB7F8944C91E2
:10279000592F50955423492BE72FF82FCF01820F43
:1027A000931FE817F90781F0219138E04C9300C09E
:1027B00027FF5C93220F00C000C000C008F45C93A8
:1027C00000C03A9599F7EDCF6FBF789461E070E063
:1027D00080E090E0ECCB0F93FC0180859185681739
:1027E0001906C0F4962F990F690F70E0A285B38582
:1027F000A60FB71F2C93A285B385A60FB71F1196FE
:102800004C9382859385680F791FFB01028381E0D9
:102810000F91089580E0FCCFCF92DF92EF92FF926C
:102820000F931F93CF93DF937C01162FD42EC22ECC
:10283000D0E0C0E0F70180859185C817D90740F442
:102840000C2D2D2D412F6C2FC701C5DF2196F2CF06
:1028500081E0DF91CF911F910F91FF90EF90DF907A
:10286000CF900895CF93C82F20E040E060E085EA44
:1028700099E0D2DF8C2F90E0FC01E451FE4FE4910F
:10288000A5EAB9E01796EC931797FC01EA55FE4FBD
:10289000E491F0E0EE0FFF1FE457FE4F8591949115
:1028A00014969C938E93139761E08C2FCF9167C9F8
:1028B000DC01E62FF0E0EE0FFF1FE557FD4F8081B2
:1028C0008C93818111968C93119712966C93089535
:1028D0000F931F93CF938C01C62FEADFEC2FF0E00C
:1028E000EE0FFF1FE557FD4F8181F8018383CF91E4
:1028F0001F910F9108950F931F93CF938C01C62FB3
:10290000D7DFEC2FF0E0EE0FFF1FE557FD4F818181
:10291000D80113968C931397808114968C931497F7
:1029200015961C92CF911F910F9108950F931F93AD
:10293000CF938C01C62FDFDFEC2FF0E0EE0FFF1FEF
:10294000E557FD4F8081F80186831582CF911F9155
:102950000F9108950F931F93CF938C01C62FA8DF7B
:1029600061E084E10CD961E084E1DCD8EC2FF0E097
:10297000EE0FFF1FE557FD4F8081D80113968C9312
:102980001397918114969C9361E0F9D861E0F80166
:102990008481CF911F910F91F2C81F93CF93DF9342
:1029A000EC01162F85DFE12FF0E0EE0FFF1FE5575A
:1029B000FD4F81818B8380818C838B8160E0DFD8A8
:1029C0008C8161E0DCD88C8160E0DF91CF911F9138
:1029D000A9C8FC0190810180F281E02DF8948181E9
:1029E000292F20958223818378943DE743E050E0AE
:1029F000315029F1DA011197F1F780818923C1F370
:102A0000F8948281822382838181892B81837894C7
:102A1000ABE7B7E01197F1F7F894818182238183C6
:102A2000A3E1B1E01197F1F78081982381E009F0EB
:102A300080E07894E3E6F6E03197F1F7089580E0DE
:102A400008950F931F93CF93DF93EC01162F4F96AA
:102A50002FDFE12FF0E0EE0FFF1FE557FD4F118153
:102A600000811B821A8288EE93E0A0E0B0E08C83A4
:102A70009D83AE83BF838DE792E0998388831F8A0D
:102A80001E8A198E188E1B8E1A8E1D8E1C8E6E8DB0
:102A90006E7F6D7F6E8F6695617081E06827812FF4
:102AA00041D861E0812F6BD8812F90E0FC01E45187
:102AB000FE4FE491E88BFC01EA55FE4FE491F0E013
:102AC000EE0FFF1FE457FE4F859194919A8B898BEF
:102AD00060E0802F54D88E8D81FD03C061E0802F8F
:102AE00021D80C87802F90E0FC01E451FE4FE49147
:102AF000ED87FC01EA55FE4FE491F0E0EE0FFF1F79
:102B0000EE58FE4F859194919F878E878DE792E0D6
:102B10009983888383E08AA31B8E1A8E198E188E60
:102B20001F8A1E8A85E690E09D8F8C8F86EF800F2E
:102B3000843048F09EEC900F943028F092EC900F87
:102B4000983008F053C021E230E03F8B2E8B23E613
:102B500030E0398F288F22E430E03B8F2A8F843099
:102B600050F09EEC900F943030F092EC900FF0E02B
:102B7000E0E0983010F4E8E6F0E09081843028F04E
:102B800022EC200F283008F455C021E0922B84302D
:102B900048F08EEC800F843028F00E53F0E0E0E037
:102BA000083010F4E8E6F0E090832C8536EF320F21
:102BB000343008F441C08EEC820F843008F43CC0FD
:102BC00082EC820F8830D8F190E080E09C8B8B8B78
:102BD0003430C0F52650330B81E001C0880F2A95B0
:102BE000EAF78D8B8C8D9D8D0197F1F78A8D9B8DEA
:102BF000892BD9F080916E0690916F06C817D9077E
:102C0000A1F0009709F04CDB8E8D8E7F8E8F109295
:102C10006C0610926D06D0936F06C0936E06EB891A
:102C2000FC8980819D89892B8083DF91CF911F91C1
:102C30000F91089524E0AACF8BE690E0C7CF8DE6F0
:102C400090E0C4CF88E0223361F284E0233349F27C
:102C500082E0243331F282EC820F883018F42E5354
:102C6000330BBACF81E0BDCF0F931F93CF93DF9388
:102C7000EC018B810E946A0D8C018C810E946A0D8F
:102C8000AC0121E030E0012B11F430E020E0220F14
:102C9000331F81E0452B09F480E0822BDF91CF9137
:102CA0001F910F9108951F93CF93DF93EC01162F7F
:102CB000FFDDE12FF0E0EE0FFF1FE557FD4F8081B4
:102CC0008B8381818C838B8160E00E94BF0D8C811E
:102CD00060E0DF91CF911F910C94BF0DCF93DF93F4
:102CE000EC0160E08B810E94BF0D8B810E94660E1B
:102CF00020E034E0A901481B590BCA01DF91CF91B4
:102D00000895AF92BF92CF92DF92EF92FF920F930E
:102D10001F93CF93DF935C010AE010E0C12CD12C0C
:102D20007601D0E0C0E0C501D9DFC817D90708F4A3
:102D3000EC01C80ED91EE11CF11C0150110999F7D4
:102D4000D701C6018C1B9D0BA109B10923E0B695E3
:102D5000A795979587952A95D1F7DF91CF911F91E8
:102D60000F91FF90EF90DF90CF90BF90AF900895BC
:102D7000CF92DF92EF92FF92FC01DB01CA019A0130
:102D8000AB0185369105A105B10524F024E630E0BC
:102D900040E050E02C396FEF36074607560724F421
:102DA0002CE93FEF4FEF5FEFC188D288E388F488CA
:102DB000C216D306E406F50621F1218B328B438B34
:102DC000548B2187328743875487EA54FF4F6081B1
:102DD000643079F5181619061A061B06BCF4109211
:102DE000A9001092A800AFEFB3E00E94C54D24E601
:102DF00030E040E050E00E94A94D3093AB002093BA
:102E0000AA00FF90EF90DF90CF900895A1E0BCEF73
:102E10000E94D14D24E630E040E050E00E94A94DF0
:102E20003093A9002093A8001092AB001092AA0042
:102E3000E8CF653031F7181619061A061B069CF400
:102E4000AFEFB3E00E94C54D24E630E040E050E033
:102E50000E94A94D309389002093880010928B0026
:102E600010928A00CECF1092890010928800A1E0C3
:102E7000BCEF0E94D14D24E630E040E050E00E94DB
:102E8000A94D30938B0020938A00BBCFCF93DF9363
:102E9000EC0131DD61E084E10E94BF0D61E084E17D
:102EA0000E94920D1D82DF91CF9108954091010201
:102EB000042E000C550B4C5E5F4F052E000C660B6C
:102EC000770B86EE98E054DF809100024CEE5FEFC6
:102ED000481B510987FD5395052E000C660B770B97
:102EE00088E298E045CF809101024CEE5FEF481BED
:102EF000510987FD5395052E000C660B770B86EE66
:102F000098E036DF40910002042E000C550B4C5E19
:102F10005F4F052E000C660B770B88E298E028CFF8
:102F200040910102552741950CF45095052E000C57
:102F3000660B770B86EE98E01BDF8091000242EE75
:102F40005FEF481B510987FD5395052E000C660B5A
:102F5000770B88E298E00CCF8091010242EE5FEFA0
:102F6000481B510987FD5395052E000C660B770B06
:102F700086EE98E0FDDE40910002552741950CF465
:102F80005095052E000C660B770B88E298E0F0CE8A
:102F900040910102042E000C550B4A505109052E98
:102FA000000C660B770B86EE98E0E2DE40910002A3
:102FB000042E000C550B4A505109052E000C660BCF
:102FC000770B88E298E0D4CE8091DB080E946A0DEE
:102FD000892B39F58091590890915A08A0915B0886
:102FE000B0915C080197A109B109809359089093A9
:102FF0005A08A0935B08B0935C088091BF058823B2
:1030000079F040E050E0BA0188E298E0B1DEE0916A
:10301000BE050E2E000CFF0BE853F94F81E08083B4
:1030200008958091590890915A08A0915B08B09139
:103030005C080196A11DB11DD8CF809199090E940D
:103040006A0D892B39F58091170990911809A09183
:103050001909B0911A090196A11DB11D8093170994
:1030600090931809A0931909B0931A098091BD058E
:10307000882379F040E050E0BA0186EE98E078DEEF
:10308000E091BE050E2E000CFF0BE853F94F81E0D6
:10309000808308958091170990911809A0911909CA
:1030A000B0911A090197A109B109D8CF90E080E049
:1030B0000895CF93DF93EC0161E08B810E94BF0DF7
:1030C0008D818130C1F487E592E00197F1F700C06E
:1030D000000060E08C810E94920D60E08B810E9474
:1030E000920D61E08C810E94920D61E08B81DF91F5
:1030F000CF910C94920D60E08C810E94920D9AE128
:103100009A95F1F700C060E08B810E94920D8AE1F0
:103110008A95F1F700C061E08C810E94920D9AE1DE
:103120009A95F1F700C061E08B810E94920D8AE1CF
:103130008A95F1F700C0DF91CF9108951F93CF9347
:10314000DF93EC01162F61E08B810E94BF0D8D8112
:103150008130D9F487E592E00197F1F700C00000D3
:1031600060E0111161E08B810E94920D61E08C8121
:103170000E94920D60E08C810E94920D61E08B8133
:10318000DF91CF911F910C94920D8B8160E0111112
:1031900061E00E94920D61E08C810E94920D9AE1A3
:1031A0009A95F1F700C060E08C810E94920D8AE14F
:1031B0008A95F1F700C0E2CF1F93CF93DF93EC0124
:1031C00060E08B810E94BF0D8D818130F1F487E535
:1031D00092E00197F1F700C0000061E08B810E944E
:1031E000920D61E08C810E94920D8B810E946A0D8C
:1031F00011E0892B09F410E060E08C810E94920DAF
:10320000812FDF91CF911F91089561E08B810E9402
:10321000920D9AE19A95F1F700C061E08C810E94CD
:10322000920D8AE18A95F1F700C08B810E946A0DA8
:1032300011E0892B09F410E060E08C810E94920D6E
:103240009AE19A95F1F700C0DBCF0F931F93CF93CC
:10325000DF938C0160E0FC0183810E94BF0DF801C7
:103260008581D8E0813009F587E592E00197F1F793
:1032700000C00000D8E061E0F80184810E94920D56
:10328000CC0FF80183810E946A0D892B09F0C1607F
:1032900060E0F80184810E94920DD15061F78C2F7B
:1032A000DF91CF911F910F91089561E0F801848122
:1032B0000E94920DCC0FF80183810E946A0D892B28
:1032C00009F0C160FAE1FA95F1F700C060E0F80199
:1032D00084810E94920DFAE1FA95F1F700C0D15075
:1032E00021F7DDCF0F931F93CF93DF93EC01162FC0
:1032F00061E08C810E94BF0D61E08B810E94BF0D57
:103300008D81813019F108E08B8161E017FF60E069
:103310000E94920D8AE18A95F1F700C0110F61E0D9
:103320008C810E94920D9AE19A95F1F700C060E0BD
:103330008C810E94920D8AE18A95F1F700C00150BC
:1033400019F7DF91CF911F910F91089587E592E0D2
:103350000197F1F700C0000008E08B8161E017FFE2
:1033600060E00E94920D110F61E08C810E94920D2D
:1033700060E08C810E94920D015079F7E2CFCF93EB
:10338000DF93EC018FE193E00197F1F700C00000BB
:10339000CE01A8DF87EC90E00197F1F700C00000B4
:1033A000CE01DF91CF9108CFCF93DF93EC0161E0A5
:1033B0008C810E94BF0D61E08B810E94BF0D8D81C9
:1033C0008130C1F487E592E00197F1F700C0000079
:1033D00061E08B810E94920D61E08C810E94920DD0
:1033E00060E08B810E94920D60E08C81DF91CF9133
:1033F0000C94920D61E08B810E94920D9AE19A9556
:10340000F1F700C061E08C810E94920D8AE18A95FB
:10341000F1F700C060E08B810E94920D9AE19A95CD
:10342000F1F700C060E08C810E94920D8AE18A95DC
:10343000F1F700C0DF91CF9108950F931F93CF93C1
:10344000DF93EC01162FB0DF62E5CE014BDFCE013A
:10345000B3DE612F6068CE0145DFCE01ADDECE0167
:10346000A3DF63E5CE013EDFCE01A6DECE01EDDEB9
:10347000182F60E0CE0162DECE01E7DE082F61E0AA
:10348000CE015CDECE0115DE902F812FDF91CF9132
:103490001F910F9108950F931F93CF93DF93EC012A
:1034A000162F042F81DF62E5CE011CDFCE0184DE02
:1034B000612F6068CE0116DFCE017EDE602FCE0167
:1034C00011DFCE0179DECE01F4DD802FDF91CF91C7
:1034D0001F910F9108951F93CF93DF93EC01162F47
:1034E00063DF612F660FCE01FDDE80EA8A95F1F77A
:1034F000CE01DF91CF911F915FCEFF920F931F936B
:10350000CF93DF93EC01F62E042F122F60E5E3DF5B
:1035100063EACE0134DF6F2DCE0131DF602FCE01A3
:103520002EDF612FCE012BDFCE01DF91CF911F91D6
:103530000F91FF90BECD4F925F926F927F929F92BC
:10354000AF92BF92CF92DF92EF92FF920F931F93B1
:10355000CF93DF9300D000D01F921F92CDB7DEB77C
:103560007C01CE0101966C015E0199E0A90EB11CAF
:10357000992493940E946710F701408451846284D7
:10358000738464197509860997096131710581058C
:10359000910508F09782F7018781882309F4AFC06D
:1035A0000E946710F701608771878287938717826F
:1035B00060E4C70190DF62EAC701E1DE62EAC701A9
:1035C000DEDE62EAC701DBDE61E0C701D8DEC701EB
:1035D00070DDF701868160E00E94BF0DF7018681F2
:1035E00090E0FC01E451FE4F6491FC01EA55FE4F6E
:1035F000E491F0E0EE0FFF1FEE58FE4F859194919D
:1036000000E712E620E030E040E00E943543412C24
:10361000512C32016115710581059105B1F02B0125
:103620003C01FFEF4F1A5F0A6F0A7F0A2FE07222F8
:103630008CE2481681E058066104710430F09CE287
:10364000491A91E0590A61087108C301B2010E9448
:103650006C4FF70164877587868797871414150464
:103660001604170434F084EA482E88E3582E612C9F
:10367000712CC301B2010E946C4F20E030E048E69B
:1036800052E40E94D14EF60161937193819391931C
:103690006F0162E170E080E090E00E94D70FAC140F
:1036A000BD0409F067CFC980DA80EB80FC807D80A3
:1036B0009E80AF80B884272D392DA501B601C701A2
:1036C0000E94945087FF03C0C72CD92C7501B60106
:1036D000C70128960FB6F894DEBF0FBECDBFDF91AD
:1036E000CF911F910F91FF90EF90DF90CF90BF90FF
:1036F000AF909F907F906F905F904F9008956485FA
:103700007585868597850E94394F2B013C01A6CF90
:10371000CF92DF92FF920F931F93CF93DF9300D04E
:103720001F92CDB7DEB78C0161E7D5DE60EBC80133
:1037300026DEC801BEDC6AE070E080E090E00E9416
:10374000D70FC80131DE63EEC801CCDDC80134DD1E
:1037500034E0F32ECE0101966C01FA94C801FF20EB
:1037600041F073DDF60181936F0160E0C801E6DC92
:10377000F4CF6BDDF82E8C8361E0C801DFDCC8017B
:1037800098DC89818A3AD9F4FBEBFF1218C08A8150
:1037900090E0982F88272B81820F911DF801978345
:1037A0008683868197810F900F900F900F90DF9105
:1037B000CF911F910F91FF90DF90CF90089581E0FE
:1037C00090E0ECCF0F931F93CF93DF93EC01042F86
:1037D000122F81DE602FCE01D2DD612FCE01CFDD31
:1037E000CE01DF91CF911F910F9163CCCF92DF92E9
:1037F000EF92FF920F931F93CF93DF93EC01D62E9E
:10380000C42E7901D1DD6D2D660FCE016BDDCE01A9
:10381000D3DC6C2DCE0166DDCE01CEDC0E0D1F1D7E
:10382000E016F10641F0F70161917F01CE015ADD0A
:10383000CE01C2DCF5CFCE01DF91CF911F910F9168
:10384000FF90EF90DF90CF9034CC8F929F92AF9209
:10385000BF92CF92DF92FF920F931F93CF93DF938C
:10386000EC01F62E2BE04DEFADDF20E04AE06F2DAE
:10387000CE01A8DF20E141E06F2DCE01A3DF24EED1
:103880004DE06F2DCE019EDF21E04EE06F2DCE0189
:1038900099DF24E444E16F2DCE0194DF24E845E173
:1038A0006F2DCE018FDF29E94FE06F2DCE018ADF2A
:1038B00020E04DEF6F2DCE0185DF24EC822E25E038
:1038C000922EF401119286E0E436F807D9F70FE959
:1038D00010E024EC35E040E06F2DCE0187DF21E0E1
:1038E0004DEF6F2DCE016EDFE4ECF5E0119296E026
:1038F000E436F907D9F70FE910E024EC35E040E0B1
:103900006F2DCE0173DF2DE04DEF6F2DCE015ADF0D
:10391000E9E3F2E0A4ECB5E081918D9382E0E93730
:10392000F807D1F70FE310E024EC35E040E06F2D0D
:10393000CE015CDF2BE04DEF6F2DCE0143DF21E0A8
:103940004AE06F2DCE013EDF2BE04DEF6F2DCE0113
:1039500039DF20E04AE06F2DCE0134DF20E04DEF6B
:103960006F2DCE012FDF94ECA92E95E0B92EF50135
:1039700011925F01F4EDAF16F5E0BF06C1F70FE05D
:1039800010E024EC35E040E06F2DCE012FDF84EC19
:10399000C82E85E0D82E85E5F60181936F01F4E409
:1039A000CF16F6E0DF06C1F70FE710E024EC35E0B4
:1039B00040E26F2DCE011ADF2BE04DEF6F2DCE01CF
:1039C00001DF21E04AE06F2DCE01FCDE2BE04DEF60
:1039D0006F2DCE01F7DE20E04AE06F2DCE01F2DE42
:1039E00021E04DEF6F2DCE01EDDEE4ECF5E011921C
:1039F000AE16BF06E1F70FE010E024EC35E040E042
:103A00006F2DCE01F3DE85E5F40181934F01CE16D3
:103A1000DF06D1F70FE710E024EC35E040E26F2D30
:103A2000CE01E4DE2BE04DEF6F2DCE01CBDE21E0A9
:103A30004AE06F2DCE01DF91CF911F910F91FF9042
:103A4000DF90CF90BF90AF909F908F90BBCECF93E1
:103A5000DF93EC010E947B1481E08D83CE01A4DC16
:103A600067EECE018CDC60E8CE0189DC64EACE0131
:103A700086DC6AE9CE0183DC61E8CE0180DC63E8A4
:103A8000CE017DDCCE01DF91CF9113CB0F931F933D
:103A9000CF93DF938C01D62FC42F86DC63E36D0FA9
:103AA000660FC8011FDCC80187DBC7FF0FC0CF77D7
:103AB000EC2FF0E0E45EFD4F60816068C80112DC2D
:103AC000C801DF91CF911F910F91F3CAEC2FF0E065
:103AD000E45EFD4F6081F2CFCF93DF93EC0164DCB5
:103AE00068E4CE01FFDBCE0167DB61E3CE01FADBE8
:103AF000CE01DF91CF91DDCA0F931F93CF93DF9358
:103B0000EC0152DC62E5CE01EDDBCE0155DB62E972
:103B1000CE01E8DBCE0150DBCE0146DC63E5CE0111
:103B2000E1DBCE0149DBCE0190DB182F61E0CE0155
:103B300005DBCE01BEDA143419F080E0103131F526
:103B400081E08E8319850A85412F61E0CE01A3DCD7
:103B500019870A871F8108858E81811102C0CE01D5
:103B6000CBDF412F6FE0CE0196DC1F83088741E059
:103B700060E0CE0190DC63E070E080E090E00E94C5
:103B8000D70F43E060E0CE0186DC81E0DF91CF918A
:103B90001F910F910895AF92BF92CF92DF92EF9253
:103BA000FF920F931F93CF93DF93EC015B016A01A8
:103BB00079018E81811102C0CE019EDF64E1CE01C8
:103BC0003CDCF8019183808366E1CE0136DCF501AF
:103BD0009183808368E1CE0130DCF601918380839C
:103BE0006AE1CE012ADCF7019183808389859A8579
:103BF000853D9105A1F180F40097D9F1803C9105B4
:103C000099F1DF91CF911F910F91FF90EF90DF908D
:103C1000CF90BF90AF900895863F9105D9F08F3F28
:103C2000910541F08B3E910561F762E370E080E021
:103C300090E004C063E070E080E090E0DF91CF911D
:103C40001F910F91FF90EF90DF90CF90BF90AF90BA
:103C50000C94D70F68E170E080E090E0EFCF65E66C
:103C600070E080E090E0EACF6AE970E080E090E008
:103C7000E5CF6CEB72E080E090E0E0CFCF92DF9296
:103C8000EF92FF920F931F93CF93DF93EC01162FC8
:103C90007A01022F89DB6E0182E4C80ED11CF60185
:103CA0006081660FCE011EDBCE0186DA612FCE0168
:103CB00019DBCE0181DACE01FCD9F0E5FA95F1F7F6
:103CC000CE0172DBF6016081660F6160CE010ADB16
:103CD000CE0172DA0150102F6701115048F0CE0169
:103CE000B4DAF60181936F0160E0CE0127DAF5CFF7
:103CF0000E0D1F2D111DCE01A8DAF801808361E0A1
:103D0000CE011CDACE01DF91CF911F910F91FF9070
:103D1000EF90DF90CF90CDC9CF93DF93EC01862F4A
:103D200090E09987888723E0629FC00111240E9458
:103D300089519B878A87892B21F48DE992E00E9423
:103D4000AE5290E080E0488559859A01220F331FDA
:103D5000240F351F8217930738F4EA85FB85E80F97
:103D6000F91F10820196EFCFDF91CF9108951F9335
:103D7000CF93DF93EC01162F0E945814E12FF0E04F
:103D8000EE0FFF1FE557FD4F8181282F30E0F9012D
:103D9000E451FE4FE491EF83F901EA55FE4FE491BF
:103DA000F0E0EE0FFF1FE457FE4F259134913C8366
:103DB0002B8361E00E94BF0D64E0CE01DF91CF91C3
:103DC0001F91AACF4F925F926F927F928F929F9294
:103DD000AF92BF92CF92DF92EF92FF920F931F9319
:103DE000CF93DF9300D000D000D01F92CDB7DEB7C5
:103DF0009A878987DC01D1966D917D918D919C91F7
:103E0000D49715968D909D90AD90BC9018979196F3
:103E1000CD90DD90ED90FC9094970E946C4F2B011B
:103E20003C01C501B4010E946C4FA70196010E949C
:103E30009F509B01AC01C301B2010E94D14E20E012
:103E400030E044EB53E40E949F500E94394FE985D3
:103E5000FA8565A376A387A390A70E9467100985BA
:103E60001A850B551F4FD8014D905D906D907C9039
:103E7000AB01BC0144195509660977094531510563
:103E80006105710508F477C0A985BA85D1962D9191
:103E90003D914D915C91D49729833A834B835C8308
:103EA0009D962D913D914D915C91D0972D833E83B0
:103EB0004F83588715968D909D90AD90BC90189724
:103EC0009196CD90DD90ED90FC90949767E670E12F
:103ED0006419750990E080E00E946A4F9B01AC0173
:103EE00060E070E08AE794E40E94D14E2B013C012F
:103EF00069817A818B819C812D813E814F8158859A
:103F0000621B730B840B950B0E946C4F9B01AC01E1
:103F1000C301B2010E949F5020E030E040E752E42C
:103F20000E949F502B013C01C501B4010E946C4FBF
:103F3000A70196010E949F509B01AC01C301B201F1
:103F40000E94D14EA985BA8555966D937D938D9328
:103F50009C935897FD0181A992A9A3A9B4A985A70B
:103F600096A7A7A7B0AB0E946710D8016D937D9369
:103F70008D939C931397E985FA8560817181828185
:103F8000938120E030E040E050E40E94CD4E81116A
:103F9000FAC00E94671009851A8507551F4FD8017E
:103FA000CD90DD90ED90FC906C197D098E099F09F4
:103FB000663071058105910508F47BC00E94671089
:103FC000F8016083718382839383A985BA851996EA
:103FD0006D917D918D919C911C971D968D909D90DA
:103FE000AD90BC9050970E946C4F26E636E646E6B0
:103FF0005FE30E949F506B017C01C501B4010E94E8
:104000006C4F2DEC3CEC4CEC5DE30E949F509B010F
:10401000AC01C701B6010E94074E20E030E0A901C3
:104020000E94945087FD64C0E985FA856185728598
:104030008385948585849684A784B0880E946C4F7C
:1040400026E636E646E65FE30E949F506B017C0160
:10405000C501B4010E946C4F2DEC3CEC4CEC5DE3CF
:104060000E949F509B01AC01C701B6010E94074E00
:1040700020E030E040E05FE30E94074E0E94394FAD
:10408000E985FA8561877287838794878185928520
:10409000A385B485181619061A061B060CF057C01E
:1040A00081859285A385B4850B97A105B1050CF494
:1040B0005AC0E985FA854185528563857485CF01AB
:1040C0002A960FB6F894DEBF0FBECDBFDF91CF9119
:1040D0001F910F91FF90EF90DF90CF90BF90AF9026
:1040E0009F908F907F906F905F904F900C94B81638
:1040F000A985BA8519966D917D918D919C911C979A
:104100001D968D909D90AD90BC9050970E946C4FE5
:1041100026E636E646E65FE30E949F506B017C018F
:10412000C501B4010E946C4F2DEC3CEC4CEC5DE3FE
:104130000E949F509B01AC01C701B6010E94074E2F
:1041400020E030E040E05FE30E94064E97CFE98533
:10415000FA8581859285A385B485863F9F4FAF4FB1
:10416000BF4F0CF4A6CFE985FA8585859685A7858E
:10417000B089892B8A2B8B2B09F09BCF1186128655
:104180001386148696CFA985BA856D917D918D9100
:104190009C9120E030E040E85FE30E94CD4E811129
:1041A00007C30E94671009851A8507551F4FF8013C
:1041B000C080D180E280F3806C197D098E099F094F
:1041C000693271058105910508F475C00E94671078
:1041D000D8016D937D938D939C931397E985FA8510
:1041E00084818111E2C261A572A583A594A505A170
:1041F00016A127A130A5601B710B820B930B0E94A7
:104200006C4F6B017C0169847A84F7EB6F0E711C33
:10421000D3018C9109851A8504541F4F811137C130
:10422000E985FA85E854FF4F808120E030E0A9015C
:10423000882309F44AC0C701B6010E94CD4E87FF0A
:104240004BC0E985FA85658976898789908DE35A1F
:10425000FF4F20813181428153810E949F509058AD
:10426000E985FA85EB59FF4F6083718382839383DD
:1042700060817181828193810E94394FFB01D80155
:104280006D937C9321E0D3012C93AB01770F660BE8
:10429000770BA985BA8519964D935D936D937C93A1
:1042A0001C97CF01FF0FAA0BBB0BE985FA8581870D
:1042B0009287A387B487A985BA8519964D915D9198
:1042C0006D917C911C97CD01FBCEC701B6010E9478
:1042D000945018160CF4B5CF20E030E0A901C701C6
:1042E000B6010E94945046015701181624F0B7FAFF
:1042F000B094B7F8B094E985FA85618D728D838D9D
:10430000948D20E030E040EC50E40E949F50A501E5
:1043100094010E94CD4E18160CF4A4C0A985BA854C
:1043200055962D913D914D915C91589729833A83F3
:104330004B835C8359964D905D906D907C905C971B
:10434000D5962D913D914D915C91D8972D833E83CB
:104350004F835887A5019401C701B6010E94D14E31
:10436000A30192010E949F509B01AC0169817A8157
:104370008B819C810E94064E2D813E814F81588504
:104380000E949F504B015C0120E030E040E251EC84
:104390000E94CD4E87FD5FC020E030E040E251E456
:1043A000C501B4010E949450181634F4812C912C4C
:1043B00050E2A52E51E4B52EF80160817181072EDF
:1043C000000C880B990B0E946C4FE984FA84F5E489
:1043D000EF0EF11CD7016D937D938D939C931397F2
:1043E0006D917D918D919C91A50194010E94064E45
:1043F000F7016083718382839383608171818281FD
:10440000938120E030E048EC52EC0E94CD4E87FDD5
:10441000C2C1D7016D917D918D919C9120E030E0DA
:1044200048EC52E40E94945018160CF4B9C1F701FC
:1044300080819181A281B381F70180839183A283DE
:10444000B38360817181828193810E94394FD80149
:104450006D937C936BC1812C912C40E2A42E41EC96
:10446000B42EAACF20E030E0A901C701B6010E9416
:10447000945018160CF048C020E030E040E251E4BF
:10448000C701B6010E94945018160CF447C081E091
:10449000D3018C93E985FA85658976898789908D22
:1044A000E35AFF4F20813181428153810E949F5006
:1044B0004B015C0120E030E040E251EC0E94CD4E27
:1044C00087FD62C120E030E040E251E4C501B40163
:1044D0000E949450181634F4812C912C90E2A92E4D
:1044E00091E4B92EE985FA85EB5AFF4F208131819D
:1044F00042815381C701B6010E949F50E984FA842A
:10450000F5E6EF0EF11C66CF20E030E040E251EC22
:10451000C701B6010E94CD4E87FFB9CFA985BA85E4
:1045200059962D913D914D915C915C9729833A83E9
:104530004B835C8320E030E040E251E4C701B601E8
:104540000E94064E2B013C0120E030E040EC50E49C
:1045500069817A818B819C810E949F50A301920185
:104560000E949F5020E030E0A9010E94945018164C
:104570000CF0AFC0E985FA85618D728D838D948DC5
:1045800020E030E040EC50E40E949F50A3019201F3
:104590000E949F500E940651A985BA8555962D917B
:1045A0003D914D915C91589729833A834B835C836D
:1045B000FD01E35AFF4F20813181428153812D83D8
:1045C0003E834F83588720E030E040EC50E40E9467
:1045D000D14E2B013C01A5019401C701B6010E94F7
:1045E000D14E9B01AC01C301B2010E949F509B01BF
:1045F000AC0169817A818B819C810E94064E2D815C
:104600003E814F8158850E949F502B013C0120E044
:1046100030E040E251EC0E94CD4E87FD6EC020E0BC
:1046200030E040E251E4C301B2010E9494501816F8
:1046300034F4412C512C30E2632E31E4732ED80136
:104640006D917C91072E000C880B990B0E946C4F8A
:10465000A984BA84B5E6AB0EB11CF5016083718301
:10466000828393836081718182819381A30192010E
:104670000E94064ED5016D937D938D939C93139765
:1046800020E030E0A901C701B6010E94945087FDE7
:1046900056C0F501608171818281938120E030E014
:1046A00040E251E40E94CD4E87FD2EC0D5016D91B0
:1046B0007D918D919C9120E030E048EC52E40E9485
:1046C00094501816BCF1F50180819181A281B381CB
:1046D0001FC0A985BA8559966D917D918D919C9148
:1046E0005C9720E030E040EC50E40E949F50A30132
:1046F00092010E949F5090584DCF412C512C20E2A6
:10470000622E21EC722E9BCF80E090E0A0E2B1E41B
:10471000F50180839183A283B3836081718182815B
:1047200093810E94394FF80171836083D801ED9124
:10473000FC91B7CD80E090E0A8ECB2E4E9CFD501E0
:104740006D917D918D919C9120E030E048EC52EC90
:104750000E94CD4E87FD13C0F50160817181828179
:10476000938120E030E040E251EC0E949450181612
:104770000CF0A9CF80E090E0A0E2B1ECC9CF80E0DE
:1047800090E0A8ECB2ECC4CF812C912C80E2A82E52
:1047900081ECB82EA7CE80E090E0A8ECB2EC4CCE35
:1047A00080E090E0A8ECB2E447CEF0E0E0E079CD24
:1047B0002A960FB6F894DEBF0FBECDBFDF91CF9122
:1047C0001F910F91FF90EF90DF90CF90BF90AF902F
:1047D0009F908F907F906F905F904F9008954F9231
:1047E0005F926F927F928F929F92AF92BF92CF9281
:1047F000DF92EF92FF92CF93DF9300D000D000D0F2
:104800001F92CDB7DEB79A878987AC014C5C5F4FAA
:104810002EE06BE333DAE985FA85A4A8B5A8BA24BB
:10482000AB24BA24B3A2A2A2E6A8F7A8FE24EF24E0
:10483000FE24F5A2E4A280AC91AC982489249824AB
:1048400097A286A2468057806084718464AD75AD5E
:10485000762767277627072E000C880B990B0E9476
:104860006C4FE985FA8520A531A542A553A50E9484
:10487000064EA30192010E94D14EE985FA85668B0E
:10488000778B808F918F66AD77AD762767277627F8
:10489000072E000C880B990B0E946C4FE985FA8556
:1048A00024A535A546A557A50E94064EA301920151
:1048B0000E94D14EE985FA85628F738F848F958F20
:1048C000E05CFF4F60817181762767277627072E8E
:1048D000000C880B990B0E946C4FE985FA8520A982
:1048E00031A942A953A90E94064EA30192010E9438
:1048F000D14EE985FA85668F778F80A391A3B701A2
:10490000FF0C880B990B0E946C4F6B017C01B4016A
:10491000990C880B990B0E946C4F9B01AC010E9473
:104920009F502B013C01A7019601C701B6010E94CF
:104930009F50A30192010E94074E0E940651698375
:104940007A838B839C83B501BB0C880B990B0E94E7
:104950006C4F4B015C0129813A814B815C810E9443
:104960007A4E20E030E044E353E40E949F502AED69
:104970003FE049E450E40E94D14E69837A838B83FF
:104980009C83A5019401C501B4010E949F50A3011D
:1049900092010E94074E0E9406519B01AC01C70183
:1049A000B6010E947A4E20E030E044E353E40E94D6
:1049B0009F502AED3FE049E450E40E94D14E6D83C0
:1049C0007E838F8398870E946710C090C005D09027
:1049D000C105E090C205F090C3056C197D098E09F0
:1049E0009F090E946A4F20E030E04AE754E40E94A9
:1049F000D14E6B017C010E9467106093C0057093DB
:104A0000C1058093C2059093C305E985FA8586A107
:104A100097A1181619060CF0CDC0228D338D448D48
:104A2000558DC701B6010E949F509B01AC01E985DD
:104A3000FA8562857385848595850E94064EE98591
:104A4000FA85628773878487958726893789408DA1
:104A5000518DC701B6010E949F509B01AC01E985B1
:104A6000FA8566857785808991890E94074EE98558
:104A7000FA8566877787808B918BE985FA85268D05
:104A8000378D40A151A1C701B6010E949F50E98511
:104A9000FA8522893389448955890E94074E4B0142
:104AA0005C0120E030E044EB53E40E94D14E0E94D0
:104AB000A74F20E030E044EB53E40E949F509B015D
:104AC000AC01C501B4010E94064EE985FA85628BEE
:104AD000738B848B958B20E030E040E05FE3C7016F
:104AE000B6010E94074E9B01AC0160E070E080E0DF
:104AF0009FE30E94D14E6B017C01AC019B0160E001
:104B000070E080E89FE30E94064E4B015C01E9855E
:104B1000FA852285338544855585C701B6010E94F3
:104B20009F502B013C0129813A814B815C81C50159
:104B3000B4010E949F509B01AC01C301B2010E94CD
:104B4000074EE985FA85628773878487958726856E
:104B5000378540895189C701B6010E949F506B017A
:104B60007C012D813E814F815885C501B4010E9491
:104B70009F509B01AC01C701B6010E94074EE98519
:104B8000FA8566877787808B918B2A960FB6F89483
:104B9000DEBF0FBECDBFDF91CF91FF90EF90DF90D2
:104BA000CF90BF90AF909F908F907F906F905F90CD
:104BB0004F900895E985FA85228D338D448D558D6A
:104BC000C701B6010E949F509B01AC01E985FA859F
:104BD00062857385848595850E94074EE985FA85EF
:104BE000628773878487958726893789408D518DA1
:104BF000C701B6010E949F509B01AC01E985FA856F
:104C000066857785808991890E94064E30CF2F92E4
:104C10003F924F925F926F927F928F929F92AF924C
:104C2000BF92CF92DF92EF92FF920F931F93CF9399
:104C3000DF93CDB7DEB762970FB6F894DEBF0FBE35
:104C4000CDBF1092BE05E82EF12C28EC829FF0011A
:104C50001124E55DFB4FE481E15AE23108F0F7C22F
:104C6000F0E08827E95CF94D8F4F0C946D5149268F
:104C7000FD2637277727D7275129BF29252A412CF9
:104C80008B2A3F2FD72F272978318E321933833340
:104C9000EB3388EC8E9D80018F9D100D1124055DF6
:104CA0001B4FD80115968C910E940710029709F0AE
:104CB000CEC28091C0069091C106009709F086C0CF
:104CC00080E190E00E9489516C01F8016581C60184
:104CD0000E949614D092C106C092C0068091C00670
:104CE0009091C1060E949B1A20E030E040E251E41E
:104CF0000E949F500E94394FAB012091BE05E22FC8
:104D0000022E000CFF0BE753F94F32E53083E1E050
:104D1000E20F0E2E000CFF0BE753F94F32E4308305
:104D2000E2E0E20F0E2E000CFF0BE753F94F10826A
:104D3000E3E0E20F0E2E000CFF0BE753F94F38ECC7
:104D40003E9DD0013F9DB00D1124A55DBB4F139634
:104D50003C913083E4E0E20F0E2E000CFF0BE75392
:104D6000F94F31E03083E5E0E20F0E2E000CFF0B2F
:104D7000E753F94FDB0177FF02C0A150BF4FB0836B
:104D800037E0320FE6E0E20F0E2E000CFF0BE75388
:104D9000F94FCA0160E071E00E945A51808388E0B7
:104DA000820F8093CB0660E090E0232F330F330B0C
:104DB000462F50E04217530714F00C94382F4753F6
:104DC000594FFA014081940F6F5FF2CFDC011296C8
:104DD0004C91F8012581022E000C330B421713066B
:104DE00009F47CCF0E94255280E190E00E94895115
:104DF0006C01D80115966C916ACF88EC8E9DF001FC
:104E00008F9DF00D1124E55DFB4F8581893F09F0F1
:104E10001EC282E58093C90682E48093CA0610927E
:104E2000CB0683818093CC0685E08093BE0511E09C
:104E30001093CD0683E20E946A0D0197A9F41092A7
:104E4000CE0687E08093CB06E9ECF6E090E080E0C8
:104E50002191820F9F5F9630D9F797E09093BE051E
:104E60008093CF0687E0F1C11093CE06EACF88EC9D
:104E70008E9D80018F9D100D1124055D1B4FF80143
:104E800085818D3F09F0E3C18DE30E94660E22E328
:104E90006C012C9DC0012D9D900D112422E52093C5
:104EA000C90622E42093CA06D80113962C912093B8
:104EB000CC0621E02093CD066FEF73E00E945A519B
:104EC000CB0160E071E00E945A51982F990F890F31
:104ED0008093CE0687E08093CB06E9ECF6E090E085
:104EE00080E02191820F9F5F9630D9F7B6CF8091F5
:104EF000C4069091C50628EC2E9D80012F9D100DB3
:104F00001124055D1B4FF801D5800097B9F585E0A8
:104F100090E00E9489518C016D2D0E9453161093D0
:104F2000C5060093C40682E58093C90682E4809397
:104F3000CA061092CB0688EC8E9DF0018F9DF00D75
:104F40001124E55DFB4F83818093CC0681E0809343
:104F5000CD068091C4069091C5060E9434168093B8
:104F6000CE0687E08093CB06E9ECF6E090E080E0A7
:104F70002191820F9F5F9630D9F76FCFDC01129697
:104F80002C916D2DDD0C770B2617170661F20E9410
:104F9000255285E090E00E9489516C01F8016581FD
:104FA0000E945316D092C506C092C406BCCF88ECAE
:104FB0008E9D80018F9D100D1124055D1B4FD80122
:104FC00015968C910E940710069709F040C18091B8
:104FD000A5069091A606009709F052C186E090E0E0
:104FE0000E9489516C01F8011581612F0E945814AB
:104FF000E12FF0E0EE0FFF1FE557FD4F8181D60155
:1050000015968C93D092A606C092A5060091A5068F
:105010001091A606FE0131961F0185E0DF011D9269
:105020008A95E9F761E0F80185810E94BF0D61E092
:10503000D80115968C910E94920D6AEF70E080E085
:1050400090E00E94D70F60E0F80185810E94920DE8
:1050500064E170E080E090E00E94D70F61E0D80149
:1050600015968C910E94920D8BE990E00197F1F7D3
:1050700060E0F80185810E94920D83E290E0019743
:10508000F1F70E9467104B015C0162E0D8011596B0
:105090008C910E94BF0DF80185810E946A0D0197D5
:1050A00089F00E946710681979098A099B0965309F
:1050B00071058105910578F3D80113961C92139719
:1050C00014961C920E9467104B015C0162E0F8018B
:1050D00085810E94BF0DD80115968C910E946A0DA2
:1050E000892B59F00E946710681979098A099B0970
:1050F000653071058105910570F3D12CC12C0E949A
:1051000067104B015C0162E0F80185810E94BF0DD0
:10511000D80115968C910E946A0D892B59F40E9432
:105120006710681979098A099B096530710581053D
:10513000910570F30E94B20F4B015C010E94671051
:105140002B013C0162E0F80185810E94BF0DD8016E
:1051500015968C910E946A0D019759F40E94671070
:1051600064197509860997096530710581059105EE
:1051700070F30E94B20FF60123E0F595E7952A95AA
:10518000E1F7E20DF31D2081220FAB01BC014819AC
:1051900059096A097B09493251056105710508F40D
:1051A0007EC0822F81608083BFEFCB1ADB0AE8E2EA
:1051B000CE16D10409F0A3CF59814B816D818A812C
:1051C000850F9927991F9C01240F311D8C81820F17
:1051D000932F911D99276817190631F4D80113965A
:1051E0005C93139714964C9382E58093C90682E4EE
:1051F0008093CA0688EC8E9DF0018F9DF00D1124DE
:10520000E55DFB4F83818093CC0681E08093CD06E2
:10521000F80183818093CE061092CF06848180931B
:10522000D0061092D1068AE08093CB06E9ECF6E036
:1052300090E080E02191820F9F5F9930D9F79AE04A
:105240009093BE058093D2068AE00E945401629634
:105250000FB6F894DEBF0FBECDBFDF91CF911F9187
:105260000F91FF90EF90DF90CF90BF90AF909F9005
:105270008F907F906F905F904F903F902F90089508
:10528000FC014281D80115962C91022E000C330BA3
:105290004217130609F4BACE0E9425529FCE2083EE
:1052A00083CF8091A3069091A40628EC2E9D8001C7
:1052B0002F9D100D1124055D1B4FD8011596DC9014
:1052C000009709F043C084E090E00E9489518C016E
:1052D0006D2D0E9468141093A4060093A30682E526
:1052E0008093C90682E48093CA061092CB0688ECAC
:1052F0008E9DF0018F9DF00D1124E55DFB4F8381A4
:105300008093CC0681E08093CD060091A306109196
:10531000A406C8010E9481169093CE06C8010E947F
:1053200081168093CF0688E08093CB06E9ECF6E007
:1053300090E080E02191820F9F5F9730D9F798E04D
:105340009093BE058093D00688E07FCFFC01228138
:105350006D2DDD0C770B2617170609F20E942552DA
:1053600084E090E00E9489516C01D80115966C91FF
:105370000E946814D092A406C092A306B0CF809178
:10538000A1069091A20628EC2E9D80012F9D100D64
:105390001124055D1B4FF801D5800097E9F584E0E5
:1053A00090E00E9489518C016D2D0E946814109329
:1053B000A2060093A10682E58093C90682E4809349
:1053C000CA061092CB0688EC8E9DF0018F9DF00DE1
:1053D0001124E55DFB4F83818093CC0681E08093AF
:1053E000CD060091A1061091A206C8010E94E41208
:1053F0009093CE06C8010E94E4128093CF0688E005
:105400008093CB06E9ECF6E090E080E02191820FFA
:105410009F5F9730D9F793CFDC0112962C916D2DB9
:10542000DD0C770B2617170631F20E94255284E017
:1054300090E00E9489516C01F80165810E94681416
:10544000D092A206C092A106B6CF80919B06909101
:105450009C0628EC2E9D80012F9D100D1124055DCA
:105460001B4FD8011596DC900097E1F585E090E0A0
:105470000E9489518C016D2D0E94CD1410939C06C1
:1054800000939B0682E58093C90682E48093CA0656
:105490001092CB0688EC8E9DF0018F9DF00D1124AB
:1054A000E55DFB4F83818093CC0681E08093CD0640
:1054B000E0919B06F0919C0683810E946A0D21E099
:1054C000892B09F020E02093CE0687E08093CB065D
:1054D000E9ECF6E090E080E02191820F9F5F96304A
:1054E000D9F7BBCCFC0122816D2DDD0C770B261783
:1054F000170641F20E94255285E090E00E948951F2
:105500006C01D80115966C910E94CD14D0929C0626
:10551000C0929B06B7CF28EC2E9DC0012F9D900D09
:105520001124FC01E55DFB4F6F0185810E9407108E
:105530000D9709F08CCE0091950610919606D60134
:1055400015968C910115110509F0DBC00E9407101A
:105550000D9701F58BE090E00E9489518C01F601D6
:1055600065810E947B14D80116961C9216978BEECB
:1055700090E01A969C938E93199781E090E018968C
:105580009C938E9317971093960600939506C801E7
:105590000E947C1D28EC2E9DC0012F9D900D112492
:1055A0009C01255D3B4F5901D9011696DC90B1E075
:1055B000DB12CEC08E010F5E1F4F9E012F5F3F4F4B
:1055C000AE01435F5F4FBE01615F7F4F80919506E3
:1055D000909196060E94CB1D8091BE05E82F082E63
:1055E000000CFF0BE753F94F92E59083E1E0E80FE1
:1055F0000E2E000CFF0BE753F94F92E49083E2E08C
:10560000E80F0E2E000CFF0BE753F94F1082E3E07A
:10561000E80F0E2E000CFF0BE753F94FD501139640
:105620009C919083E4E0E80F0E2E000CFF0BE753F3
:10563000F94FD082E5E0E80F0E2E000CFF0BE75388
:10564000F94FD0829F852889E6E0E80F0E2E000CE6
:10565000FF0BE753F94F2083E7E0E80F0E2E000C15
:10566000FF0BE753F94F90839D852E85E8E0E80F07
:105670000E2E000CFF0BE753F94F2083E9E0E80FF3
:105680000E2E000CFF0BE753F94F908399812A816E
:10569000EAE0E80F0E2E000CFF0BE753F94F2083D2
:1056A000EBE0E80F0E2E000CFF0BE753F94F908351
:1056B00099892A89ECE0E80F0E2E000CFF0BE753C6
:1056C000F94F20832EE0280FEDE0E80F0E2E000C9E
:1056D000FF0BE753F94F9083815F8093CB0660E027
:1056E00090E0022E000C330B462F50E04217530778
:1056F0000CF0BEC34753594FFA014081940F6F5FBE
:10570000F3CFF8019281282F082E000C330B92174B
:10571000130609F43FCF0E9407100D9709F03ACF06
:10572000C8010E9425528BE090E00E9489518C01B3
:10573000D60115966C910E947B14F80116828BEEAF
:1057400090E09287818781E090E0908787831BCFEC
:10575000B2E0DB127CCD6090950670909606B6E0C4
:105760009B2EB12CA12CD12CC12C8E010F5F1F4F71
:105770009E01235F3F4FAE01415F5F4FBE016F5EF1
:105780007F4FC3010E94CB1D89819A81C816D9061B
:1057900008F46C01A80EB91E9A949110E6CFAC18CB
:1057A000BD08A50156954795569547955A83498357
:1057B0008091BE05E82F082E000CFF0BE753F94F30
:1057C00022E52083E1E0E80F0E2E000CFF0BE753EB
:1057D000F94F22E42083E2E0E80F0E2E000CFF0BCD
:1057E000E753F94F1082E3E0E80F0E2E000CFF0B99
:1057F000E753F94F28EC2E9DD0012F9DB00D1124B9
:10580000A55DBB4F13962C912083E4E0E80F0E2E8C
:10581000000CFF0BE753F94F21E02083E5E0E80F90
:105820000E2E000CFF0BE753F94F22E02083E6E039
:10583000E80F0E2E000CFF0BE753F94F9B2D9695AA
:105840009695908328E0280FE7E0E80F0E2E000CD5
:10585000FF0BE753F94F4083875F8093CB0660E0EF
:1058600090E0022E000C330B462F50E042175307F6
:105870000CF0FEC24753594FFA014081940F6F5FFD
:10588000F3CF88EC8E9D80018F9D100D1124055D56
:105890001B4FF80185810E9407100E9709F0D7CCA5
:1058A000D80115968C9185300CF071C1C09093068B
:1058B000D0909406C114D10409F02FC10E940710A2
:1058C0000E97D9F484E490E00E9489516C01F801AC
:1058D00065810E947B1481E0D60115968C93F601B8
:1058E000EE5BFF4F88E690E091838083D092940630
:1058F000C0929306C6010E94FD4B80919306909141
:1059000094060E94EF231091BE05E12F012E000C9A
:10591000FF0BE753F94F82E58083E1E0E10F0E2EA4
:10592000000CFF0BE753F94F82E48083E2E0E10FC4
:105930000E2E000CFF0BE753F94F1082E3E0E10F4E
:105940000E2E000CFF0BE753F94F88EC8E9DD00113
:105950008F9DB00D1124A55DBB4F13968C911397AD
:105960008083E4E0E10F0E2E000CFF0BE753F94FAC
:1059700081E08083F6E09F2E910E9092BE051696F0
:105980000C91E5E0E10F0E2E000CFF0BE753F94FF1
:105990000083013009F0A9C0A0909306B09094064E
:1059A000D5011A966D917D918D919C911D9790587E
:1059B00020E030E048EC52E40E949F500E94394FB2
:1059C0002B013C01F5016685778580899189905886
:1059D00020E030E048EC52E40E949F500E94394F92
:1059E0006B017C0120E030E048EC52E4D501529696
:1059F0006D917D918D919C9155970E949F500E9431
:105A0000394F492D990C550BA7E0A10F0A2E000C18
:105A1000BB0BE9E09E2E910EE8E0E10F0E2E000C8C
:105A2000FF0B4753594FA753B94F9F012753394F86
:105A3000590114141504160417040CF48EC0709444
:105A4000609450944094411C511C611C711CFA01DB
:105A500010825C92D5014C92A92D990CBB0BEAE007
:105A6000E10F0E2E000CFF0B4CE0410F2BE0210F3D
:105A7000022E000C330BA753B94FE753F94F2753AE
:105A8000394F1C141D041E041F040CF469C0F0944B
:105A9000E094D094C094C11CD11CE11CF11C1C9258
:105AA000D082F901C082042E000C550BADE0A10F8D
:105AB0000A2E000CBB0B2FE0210FEEE0E10F0E2EA3
:105AC000000CFF0B8A010753194FA753B94FAF01C1
:105AD0004753594F5A0197FD49C031E0F8013083CF
