:100000005CC100000C947D330C9452330C94273364
:100010000C94FC320C94D1320C94A6320C947B32AA
:100020000C9450320C94D2330C94D2330C94D233BF
:1000300075C1000073C1000071C100006FC10000F4
:100040006DC100000C94703569C1000067C10000EB
:1000500065C1000063C1000061C100000C9406325C
:100060005DC100000C94A83D59C1000057C10000BB
:1000700055C1000053C1000051C100004FC1000034
:100080000C9443354BC1000049C1000047C100003A
:1000900045C1000043C1000041C100003FC1000054
:1000A0003DC100003BC100000C94163537C1000073
:1000B00035C1000033C1000031C100000C94E934A7
:1000C0002DC100002BC1000029C1000027C1000084
:1000D00025C1000023C1000021C100001FC1000094
:1000E0001DC100006B029D02F902CF02D402D902A9
:1000F000DE02E302E702EC02F1020508F907FB0762
:10010000050807080E0810081208140832413E417D
:100110004A4190415841664174418241BA41C641C9
:10012000DF41ED41FB41422F452F342F382F3E2F29
:100130007C2F492F4D2F532F572F5B2F612F652F6A
:10014000692F7C2F6F2F732F772FC233B833BA33B9
:10015000BC33BE33C433C633A63BAD3B8A3B913B75
:10016000983B9F3BB43BBB3B084AD73B3BCE016E21
:1001700084BCBFFDC12F3D6C74319ABD56833DDAFE
:100180003D00C77F11BED9E4BB4C3E916BAAAABE0D
:10019000000000803F0000002100240027002A000A
:1001A0002D003000330001010000040107010A01A5
:1001B00000000A0B02090C0D0E08070304010000E1
:1001C000000000000000000000000000000000002F
:1001D00000000000000000000000000012111000EC
:1001E000000000000000000000000000000000000F
:1001F000000000000000000020002300260029006D
:100200002C002F003200000100000301060109014B
:1002100000002200250028002B002E0031003400B1
:1002200002010000050108010B0105050505070590
:1002300008080808020202020A0A08080404040462
:10024000010101010101010103030303030303038E
:10025000040707070C0C0C0C0C0C0C0C020202021D
:1002600006060606060606060B0B0B0B0B0B0B0B06
:1002700001021020200808102040102040800201B8
:10028000020108040201010204081020408080409D
:10029000201008040201800402018040201008049C
:1002A000020108040201010204081020408001023A
:1002B000040810204080FF46CB4711241FBECFEF1B
:1002C000D1E2DEBFCDBF00E00CBF12E0A0E0B2E0A3
:1002D000EEEFFAE900E00BBF02C007900D92AE3BD3
:1002E000B107D9F729E0AEEBB2E001C01D92AB3601
:1002F000B207E1F711E0CCE5D1E000E006C02197BC
:100300000109802FFE010E94F14BCB35D10780E01F
:100310000807A9F70E94C83E0C946E4D71CE2F922B
:100320003F924F925F926F927F928F929F92AF9285
:10033000BF92CF92DF92EF92FF920F931F93CF93D2
:10034000DF93CDB7DEB7C554D1090FB6F894DEBF41
:100350000FBECDBF10925C09E82EF12C28EC829FD5
:10036000800111240553184FD80114968C918931BE
:1003700009F461C670F5813109F4B7C3B0F4833074
:1003800009F450C140F4813009F45DC0823009F4B1
:1003900081C00C941517853009F4D9C208F449C2FC
:1003A000803109F46AC30C941517853109F4ECC443
:1003B00030F4833109F4FFC408F46AC423C58731DB
:1003C00011F40C94BE16F8019581883108F4CCC460
:1003D000F6C5843A11F40C94C90CD0F48C3111F4A4
:1003E0000C94660A40F48A3109F4C2C68B3109F4D0
:1003F0008AC70C941517823A11F40C94100C10F063
:100400000C945C0C813A11F40C94500B0C9415175D
:10041000883A11F40C94601048F4863A11F40C9464
:100420000C0F10F40C94550D0C94AF0F8A3A11F484
:100430000C94F01010F40C94A6128B3A11F40C9456
:1004400007160C94151792E59093E40492E49093A8
:10045000E504D80113969C919093E7048093E804F7
:1004600082E08093E9048AE08093EA0488E0809344
:10047000E604E4EEF4E090E0B4E0EB3EFB0719F0B4
:100480008191980FF9CF88E080935C099093EB04F9
:100490000C94131782E58093E40482E48093E504CE
:1004A0001092E60484E080935C09F80183818093D4
:1004B000E704E5818E2FEE0F990BAA0BBB0BFC0115
:1004C0003296EB30F10508F094C08827EE58FF4FC4
:1004D0008F4F0C94F14B11E010935D0985E08093F0
:1004E0005C091092E8048EEF0E943A39892BB1F42E
:1004F00043E650E060E070E083E496E00E94102C58
:1005000064E670E080E090E00E94CE3140E050E090
:10051000BA0183E496E00E94102C0CC0E0915C09C3
:1005200081E08E0F80935C090E2E000CFF0BEC51C6
:10053000FB4F108310925D095CC011E010935B09C2
:1005400085E080935C091092E8048FEF0E943A39AD
:10055000892BB1F443E650E060E070E081E097E081
:100560000E94102C64E670E080E090E00E94CE31A2
:1005700040E050E0BA0181E097E00E94102C0CC0EE
:10058000E0915C0981E08E0F80935C090E2E000CD7
:10059000FF0BEC51FB4F108310925B092AC085E0E2
:1005A00080935C0981E021C085E080935C0982E052
:1005B0001CC085E080935C0983E017C085E08093D0
:1005C0005C0984E012C085E080935C090EC085E080
:1005D00080935C0986E009C085E080935C0987E030
:1005E00004C085E080935C0988E00E943A398093DA
:1005F000E80420915C0981E0820F8093E60460E0CA
:1006000090E0022E000C330B462F50E042175307A8
:1006100014F00C94B716FA01EC51FB4F4081940F83
:100620006F5FF2CF82E58093E40482E48093E50477
:100630001092E604D80113968C918093E70411E0A0
:1006400010935D0985E080935C091092E8048EEFB9
:100650000E943A39892BB1F443E650E060E070E043
:1006600083E496E00E94102C64E670E080E090E065
:100670000E94CE3140E050E0BA0183E496E00E944F
:10068000102C0CC0E0915C0981E08E0F80935C0916
:100690000E2E000CFF0BEC51FB4F108310925D09E6
:1006A00011E010935B09E0915C0981E08E0F80936B
:1006B0005C090E2E000CFF0BEC51FB4F10828FEFEC
:1006C0000E943A39892BB1F443E650E060E070E0D3
:1006D00081E097E00E94102C64E670E080E090E0FA
:1006E0000E94CE3140E050E0BA0181E097E00E94E4
:1006F000102C0CC0E0915C0981E08E0F80935C09A6
:100700000E2E000CFF0BEC51FB4F108310925B0977
:1007100010915C0981E0810F80935C0981E00E9467
:100720003A39E12F110FFF0BEC51FB4F80831091F1
:100730005C0981E0810F80935C0982E00E943A3974
:10074000E12F110FFF0BEC51FB4F808310915C09DF
:1007500081E0810F80935C0983E00E943A39E12FA8
:10076000110FFF0BEC51FB4F808310915C0981E06E
:10077000810F80935C0984E00E943A39E12F110FC8
:10078000FF0BEC51FB4F808310915C0981E0810FDE
:1007900080935C0985E00E943A39E12F110FFF0B2D
:1007A000EC51FB4F808310915C0981E0810F8093B5
:1007B0005C0986E00E943A39E12F110FFF0BEC51E2
:1007C000FB4F808310915C0981E0810F80935C096D
:1007D00087E00E943A39E12F110FFF0BEC51FB4FDC
:1007E000808310915C0981E0810F80935C0988E02F
:1007F0000E943A39E12F110FFF0BEC51FB4F808320
:1008000020915C0981E0820F8093E60460E090E033
:10081000022E000C330B462F50E04217530714F002
:100820000C94B716FA01EC51FB4F4081940F6F5FA7
:10083000F2CF82E58093E40482E48093E504109291
:10084000E604F80183818093E70411E010935D09C9
:1008500085E080935C091092E8048EEF0E943A399B
:10086000892BB1F443E650E060E070E083E496E069
:100870000E94102C64E670E080E090E00E94CE318F
:1008800040E050E0BA0183E496E00E94102C0CC0D6
:10089000E0915C0981E08E0F80935C090E2E000CC4
:1008A000FF0BEC51FB4F108310925D0911E0109388
:1008B0005B09E0915C0981E08E0F80935C090E2E4C
:1008C000000CFF0BEC51FB4F10828FEF0E943A3966
:1008D000892BB1F443E650E060E070E081E097E0FE
:1008E0000E94102C64E670E080E090E00E94CE311F
:1008F00040E050E0BA0181E097E00E94102C0CC06B
:10090000E0915C0981E08E0F80935C090E2E000C53
:10091000FF0BEC51FB4F108310925B0920915C0997
:1009200081E0820F8093E60460E090E0022E000CEC
:10093000330B462F50E04217530714F00C94B716B0
:10094000FA01EC51FB4F4081940F6F5FF2CF92E5BB
:100950009093E40492E49093E5041092E604D801A5
:1009600013969C919093E70480935C0981E00E9428
:100970003A398093E80410915C0981E0810F8093FB
:100980005C0982E00E943A39E12F110FFF0BEC5114
:10099000FB4F808310915C0981E0810F80935C099B
:1009A00083E00E943A39E12F110FFF0BEC51FB4F0E
:1009B000808310915C0981E0810F80935C0984E061
:1009C0000E943A39E12F110FFF0BEC51FB4F80834E
:1009D00010915C0981E0810F80935C0985E00E94A1
:1009E0003A39E12F110FFF0BEC51FB4F808310912F
:1009F0005C0981E0810F80935C0986E00E943A39AE
:100A0000E12F110FFF0BEC51FB4F808310915C091C
:100A100081E0810F80935C0987E00E943A39E12FE1
:100A2000110FFF0BEC51FB4F808310915C0981E0AB
:100A3000810F80935C0988E00E943A39E12F110F01
:100A4000FF0BEC51FB4F808320915C0981E0820F0A
:100A50008093E60460E090E0022E000C330B462FFA
:100A600050E04217530714F00C94B716FA01EC51FA
:100A7000FB4F4081940F6F5FF2CFF80185818C3F6F
:100A800011F1882389F08B3F11F00C94BE1688EC8D
:100A90008E9DF0018F9DF00D1124E553F84F2085B8
:100AA0004781668181E01BC088EC8E9DF0018F9D9F
:100AB000F00D1124E553F84F20854781668180E0D1
:100AC0000E94D9380EC088EC8E9DF0018F9DF00DEC
:100AD0001124E553F84F20854781668180E00E940C
:100AE000B2380E947A380C94BE16D80115968C91B3
:100AF0008F3F09F472C0882329F08E3F11F00C94C7
:100B0000BE1699C0F8012681822F022E000C990B87
:100B100040E050E060E070E440930107509302072A
:100B200060930307709304078D39FFEF9F0754F01C
:100B30008436910514F083E690E0092E000CAA0B90
:100B4000BB0B04C08DE99FEFAFEFBFEF80930E07A3
:100B500090930F07A0931007B093110788EC8E9D18
:100B6000F0018F9DF00D1124E553F84F3781832F4D
:100B7000032E000C990B40E050E060E070E44093DD
:100B800043065093440660934506709346068D399C
:100B90004FEF940754F08436910514F083E690E00B
:100BA000092E000CAA0BBB0B04C08DE99FEFAFEF21
:100BB000BFEF8093500690935106A0935206B093D6
:100BC000530631110C94BE1621110C94BE161092CE
:100BD0000A0410920E040C94BE16D80116968C913D
:100BE000082E000C990B40E050E060E070E4409368
:100BF00001075093020760930307709304078D3930
:100C0000BFEF9B0754F08436910514F083E690E023
:100C1000092E000CAA0BBB0B04C08DE99FEFAFEFB0
:100C2000BFEF80930E0790930F07A0931007B09328
:100C300011070C94BE16F8018681082E000C990B42
:100C400040E050E060E070E4409343065093440677
:100C500060934506709346068D39FFEF9F0754F069
:100C60008436910514F083E690E0092E000CAA0B5F
:100C7000BB0B04C08DE99FEFAFEFBFEF8093500631
:100C800090935106A0935206B09353060C94BE164F
:100C9000D80115968C910E943A39029711F00C9464
:100CA000BE1680910804909109040097B1F480E188
:100CB00090E00E940D4C8C0188EC8E9DF0018F9D80
:100CC000F00D1124E553F84F6581C8010E949D3550
:100CD000109309040093080423C0FC01428150E0F2
:100CE00028EC2E9D80012F9D100D11240553184FC7
:100CF000D80115962C91022E000C330B4217530786
:100D000079F00E94A24C80E190E00E940D4C6C01B1
:100D1000F80165810E949D35D0920904C0920804B3
:100D200088EC8E9DF0018F9DF00D1124E553F84F56
:100D3000D084C780B680009108041091090460E453
:100D4000C8010E94BA3661EAC8010E94A4366B2D20
:100D5000C8010E94A4366C2DC8010E94A4366D2DD6
:100D6000C8010E94A43626C1993F11F00C94BE160A
:100D70008681882329F081E08093EA030C94BE16D3
:100D80001092EA030C94BE16F8018681882329F09C
:100D9000813029F480930F0402C010920F04109246
:100DA000EC031092ED031092EE031092EF031092F9
:100DB000EB030C94BE16D80116962C911697179635
:100DC0008C91179718969C91189719964C91199792
:100DD00015963C913A3F11F00C94BE1650E0592BF9
:100DE00060E070E090E0922B0E940D3861E080910D
:100DF000C1070E944E3160E08091C1070E945A30C5
:100E00000C94BE16F80185810E943A39039711F0BF
:100E10000C94BE1680910604909107040097B1F4DB
:100E200086E090E00E940D4C8C0188EC8E9DF001D4
:100E30008F9DF00D1124E553F84F6581C8010E9484
:100E4000D729109307040093060424C0DC011296EE
:100E50004C9150E028EC2E9D80012F9D100D112407
:100E60000553184FF8012581022E000C330B421751
:100E7000530781F00E94A24C86E090E00E940D4C46
:100E80006C01D80115966C910E94D729D092070465
:100E9000C092060488EC8E9DA0018F9D500D1124F8
:100EA0004F52584F009106041091070480E090E0E3
:100EB00073E162E1FA01E80FF91F208130E0322F7F
:100EC0002227E1812E2BD901AA7ABA7AB695A79565
:100ED00025753575220F331F2A2B3B2BD901AC7C8E
:100EE000BC7CFD01F695E795F695E7952373337382
:100EF000D901AA0FBB1FAA0FBB1FAE2BBF2B9D0191
:100F0000207F307FF90134E0F695E7953A95E1F7D7
:100F10009D012F703F70A4E0220F331FAA95E1F7C7
:100F20002E2B3F2B322723273227220F331F220F4E
:100F3000331FE72FE81BA1E0B0E0AC0FBD1FAE0FE1
:100F4000B11DFD012083262F281BE1E0F0E0EC0F0E
:100F5000FD1FE20FF11D308302968431910509F0E7
:100F6000A9CFC8010E94CE1767EEC8010E94A4361F
:100F700060E0C8010E94A436FE0131966F0184E151
:100F8000B82EBE0ED6016D916D01962F9373B4E00D
:100F90009B9FC00111246C7C66956695862B682FFB
:100FA0006575660F8A7A8695682BC8010E94A436FB
:100FB000BC10E8CFC8010E94EE350C94BE16909389
:100FC0000A04F801868180930E04878180930D04C2
:100FD000082E000C990BAA0BBB0B8930910510F061
:100FE0000C941517FC018827E358FF4F8F4F0C9482
:100FF000F14B8CE301C086E48093030280930202EC
:1010000081E080930D040C94151786E401C081E4FF
:1010100080930302809302020C9415178DE2F8CF9F
:1010200087E3F6CF8DE201C087E3809303028093CC
:10103000020282E0E6CFD80115968C910E943A39DF
:10104000059711F00C94BE16F8016581613021F00E
:10105000683011F00C94BE168091FC039091FD0352
:10106000009761F485E090E026966FAF26970E9486
:101070000D4C8C0126966FAD26971AC0DC01129696
:101080002C9130E0062E000C770B26173707D1F095
:101090000E94A24C85E090E00E940D4C8C0188ECEF
:1010A0008E9DF0018F9DF00D1124E553F84F658161
:1010B000C8010E9439181093FD030093FC03C80176
:1010C0000E94281888EC8E9DF0018F9DF00D112450
:1010D000E553F84F86818130F1F08230A1F1811122
:1010E0000C94BE161085678170E080E090E00E944D
:1010F000EE492CE53FE842EA5FE30E9455490E9431
:10110000C249653B08F064EB70E080E496E00E9421
:101110006634612F19C0678170E080E090E00E9422
:10112000EE492CE53FE842EA5FE30E9455490E9400
:10113000C249653B08F064EB70E080E496E00E94F1
:1011400066340C94BE16678170E080E090E00E94E7
:10115000EE492CE53FE842EA5FE30E9455490E94D0
:10116000C249653B08F064EB70E08DE396E0E7CFA1
:10117000F80185810E943A39099711F00C94BE1646
:10118000D80115962C91213021F0283011F00C94C3
:10119000BE168091FC039091FD03FC01428150E05A
:1011A000022E000C330B4217530701F5E091400665
:1011B000F0E09F01220F331FE20FF31FE455FA4FB7
:1011C00020812F7B2083E0913D06F0E09F01220FDC
:1011D000331FE20FF31FE455FA4F20812F7B20834A
:1011E0000E94A24C1092FD031092FC038091FE031A
:1011F0009091FF030097B1F486E090E00E940D4CBF
:101200008C0188EC8E9DF0018F9DF00D1124E5532B
:10121000F84F6581C8010E94363C1093FF0300938C
:10122000FE0324C0DC0112964C9150E028EC2E9D68
:1012300080012F9D100D11240553184FF8012581B1
:10124000022E000C330B4217530781F00E94A24C70
:1012500086E090E00E940D4C6C01D80115966C91CF
:101260000E94363CD092FF03C092FE0388EC8E9D14
:10127000F0018F9DF00D1124E553F84F86818130E8
:10128000F9F0823081F181110C94BE162781809192
:10129000FE039091FF0327FF06C0332721950CF42E
:1012A000309540E001C041E061E00E949F4788EC3A
:1012B0008E9DF0018F9DF00D1124E553F84F13C062
:1012C00027818091FE039091FF0327FF06C03327FB
:1012D00021950CF4309540E001C041E061E00E94AE
:1012E0009F470C94BE1620858091FE039091FF03CA
:1012F00027FD03C041E062E0F2CF332721950CF4D3
:10130000309540E0F8CFF80185810E943A390C977A
:1013100011F00C94BE16E091F603F091F70328EC5F
:101320002E9DC0012F9D900D11249C012553384FF7
:101330006901D90115968C91309729F40E943A39A8
:101340000C9781F513C0228130E0482F082E000C45
:10135000550B2417350731F10E943A390C9711F5D6
:101360008091F6039091F7030E94A24C86E090E0F2
:101370000E940D4C8C01F60165810E94171881E0D6
:10138000D80115968C931093F7030093F60367E743
:10139000C8010E94F24464E78091F6039091F7033C
:1013A0000E94F24488E4EAE5F3E0DF011D928A95A9
:1013B000E9F7DF0188EC8E9D90018F9D300D11249F
:1013C0002553384F80E090E0FC01E25BFF4FE20FD5
:1013D000F31F4081042E000C550B4D935D93019635
:1013E0008834910589F788E4EAECF2E0DF011D9288
:1013F0008A95E9F780E090E0D901A80FB91F169609
:101400004C91042E000C550B419351930196883456
:10141000910591F79E012F5F3F4FAE014B5E5F4FED
:101420006AEC72E08091F6039091F7030E945F18D6
:101430009E012B5D3F4FAE014B5C5F4F6AE573E051
:101440008091F6039091F7030E945F18C090F60315
:10145000D090F70320E04DEF67E7C6010E9409280E
:1014600000E110E09E012B5E3F4F40E067E7C601C0
:101470000E94CB2720E04DEF64E7C6010E940928B7
:101480009E012B5C3F4F40E064E7C6010E94CB27E2
:1014900021E04DEF67E7C6010E9409289E012F5FFA
:1014A0003F4F40E067E7C6010E94CB2721E04DEFA8
:1014B00064E7C6010E9409289E012B5D3F4F40E072
:1014C00064E7C6010E94CB270C94BE16F801858103
:1014D0000E943A390B9711F00C94BE16C090F80395
:1014E000D090F903C114D10449F483E290E00E9442
:1014F0000D4C6C01D80115966C911DC0F60121A10F
:1015000030E0D80115968C91082E000C990B281705
:101510003907C1F083E292E091838083C6010E9483
:101520005034C6010E94A24C83E290E00E940D4C10
:101530006C01F8016581C6010E944728D092F90329
:10154000C092F803C090F803D090F90388EC8E9D08
:10155000F0018F9DF00D1124E553F84F1681D6014F
:1015600092968C91929790E0212F012E000C330BD4
:101570008217930741F192961C938AEA8093BE02E8
:1015800082E08093BF0281E08093C0021093C10289
:1015900086E581278093C2027EEBA72E72E0B72EEC
:1015A00005E00A0DF50161915F01C6010E94A32FBC
:1015B0000A11F8CFD60192961C9362E370E080E0A6
:1015C00090E00E94CE3188EC8E9DF0018F9DF00D51
:1015D0001124E553F84F90853781C090F803D090DF
:1015E000F9038AEA8093BE023093BF0221E0209380
:1015F000C0029093C1028327282792279095909349
:10160000C2020EEB12E065E0B62EB00EF801619159
:101610008F01C6010E94A32FB012F8CF62E370E0E1
:1016200080E090E00E94CE318091F8039091F90320
:101630000E9450340091F8031091F903011511052F
:1016400059F083E292E0D8018D939C93C8010E94E7
:101650005034C8010E94A24C1092F9031092F80372
:1016600088EC8E9D80018F9D100D11240553184F1D
:10167000D8011596EC91EE0FFF0BED5BFD4F60E08E
:1016800080810E944E31D8011596EC91EE0FFF0B30
:10169000ED5BFD4F60E081810E944E310C94BE16DF
:1016A000F80185810E943A39029711F00C941517C0
:1016B00080910804909109040097B1F480E190E0D2
:1016C0000E940D4C8C0188EC8E9DF0018F9DF00DD9
:1016D0001124E553F84F6581C8010E949D35109390
:1016E00009040093080424C0DC0112964C9150E0D8
:1016F00028EC2E9D80012F9D100D11240553184FAD
:10170000F8012581022E000C330B4217530781F09C
:101710000E94A24C80E190E00E940D4C6C01D80127
:1017200015966C910E949D35D0920904C0920804D0
:1017300080910804909109040E94FE3920E030E075
:1017400040E251E40E94234B0E94BD49AB0130911D
:101750005C09E32F032E000CFF0BEC51FB4F22E53D
:101760002083E1E0E30F0E2E000CFF0BEC51FB4F4A
:1017700022E42083E2E0E30F0E2E000CFF0BEC517D
:10178000FB4F1082E3E0E30F0E2E000CFF0BEC5139
:10179000FB4F28EC2E9DD0012F9DB00D1124A55399
:1017A000B84F13962C912083E4E0E30F0E2E000C2B
:1017B000FF0BEC51FB4F21E02083E5E0E30F0E2E01
:1017C000000CFF0BEC51FB4FDB0177FF02C0A15077
:1017D000BF4FB08327E0230FE6E0E30F0E2E000C8F
:1017E000FF0BEC51FB4FCA0160E071E00E94DE4B41
:1017F000808388E0830F8093E60460E090E0022E0F
:10180000000C330B462F50E04217530714F00C9492
:10181000B716FA01EC51FB4F4081940F6F5FF2CF86
:10182000F8018581893F11F00C94151782E58093AA
:10183000E40482E48093E5041092E60483818093BB
:10184000E70485E080935C0911E01093E80483E2EB
:101850000E943230E0915C09019759F481E08E0FCB
:1018600080935C090E2E000CFF0BEC51FB4F108295
:101870000AC081E08E0F80935C090E2E000CFF0BD6
:10188000EC51FB4F108320915C0981E0820F809323
:10189000E60460E090E0022E000C330B462F50E08F
:1018A0004217530714F00C94B716FA01EC51FB4F92
:1018B0004081940F6F5FF2CFD80115968C918D3FC8
:1018C00011F00C94151782E40E948A3122E3FC0186
:1018D0002E9FC0012F9F900D112430915C09E32FA2
:1018E000032E000CFF0BEC51FB4F22E52083E1E0BF
:1018F000E30F0E2E000CFF0BEC51FB4F22E4208374
:10190000E2E0E30F0E2E000CFF0BEC51FB4F1082B8
:10191000E3E0E30F0E2E000CFF0BEC51FB4FD80160
:1019200013962C912083E4E0E30F0E2E000CFF0BA6
:10193000EC51FB4F21E0208326E0230FE5E0E30F8D
:101940000E2E000CFF0BEC51FB4F6FEF73E00E946B
:10195000DE4BCB0160E071E00E94DE4B982F990FC7
:10196000890F808387E0830F8093E60460E090E036
:10197000022E000C330B462F50E04217530714F091
:101980000C94B716FA01EC51FB4F4081940F6F5F36
:10199000F2CF80910B0490910C04009741F485E004
:1019A00090E00E940D4C6C01F801658116C0DC01CD
:1019B00012964C9150E0F8012581022E000C330B59
:1019C0004217530789F00E94A24C85E090E00E94E4
:1019D0000D4C6C01D80115966C91C6010E947829B6
:1019E000D0920C04C0920B0410915C09E12F012EDF
:1019F000000CFF0BEC51FB4F82E58083E1E0E10F2F
:101A00000E2E000CFF0BEC51FB4F82E48083E2E0D2
:101A1000E10F0E2E000CFF0BEC51FB4F1082E3E0A8
:101A2000E10F0E2E000CFF0BEC51FB4F88EC8E9D4E
:101A3000D0018F9DB00D1124A553B84F13968C91F2
:101A40008083E4E0E10F0E2E000CFF0BEC51FB4F06
:101A500081E0808386E0810F80935C0980910B0494
:101A600090910C040E945B29E5E0E10F0E2E000C22
:101A7000FF0BEC51FB4F808320915C0981E0820FCA
:101A80008093E60460E090E0022E000C330B462FBA
:101A900050E04217530714F00C94B716FA01EC51BA
:101AA000FB4F4081940F6F5FF2CFF80185810E9458
:101AB0003A39069711F00C9415178091040490910F
:101AC0000504009771F486E090E00E940D4CDC0163
:101AD00088EC8E9DF0018F9DF00D1124E553F84F99
:101AE0001CC0DC0112964C9150E028EC2E9D800128
:101AF0002F9D100D11240553184FF8012581022E3A
:101B0000000C330B42175307F9F00E94A24C86E0F9
:101B100090E00E940D4CDC01F8019581E92FF0E086
:101B2000EE0FFF1FED5BFD4F80818C93818111963D
:101B30008C93119712969C93129715968C931597E8
:101B4000B0930504A09304040091040410910504CB
:101B50009E012F5F3F4F190185E0D9011D928A95A3
:101B6000E9F761E0F80185810E944E3161E0D8011A
:101B700015968C910E945A306AEF70E080E090E0F8
:101B80000E94CE3160E0F80185810E945A3064E104
:101B900070E080E090E00E94CE3161E0D8011596BF
:101BA0008C910E945A308BE990E00197F1F760E048
:101BB000F80185810E945A3083E290E00197F1F7A5
:101BC0000E947D2F2B013C0162E0D80115968C917B
:101BD0000E944E31D80115968C910E9432300197A7
:101BE00079F00E947D2FDC01CB0184199509A609AB
:101BF000B7090597A105B10568F3F80113821482AE
:101C00000E947D2F2B013C0162E0F80185810E943A
:101C10004E31D80115968C910E943230892B61F09B
:101C20000E947D2FDC01CB0184199509A609B70913
:101C30000597A105B10568F3C12CD12C0E947D2F19
:101C40002B013C0162E0F80185810E944E31F801D0
:101C500085810E943230892B61F40E947D2FDC0146
:101C6000CB0184199509A609B7090597A105B10506
:101C700070F30E94A9312B013C010E947D2F4B0182
:101C80005C0162E0D80115968C910E944E31D8011A
:101C900015968C910E943230019761F40E947D2F3D
:101CA000DC01CB0188199909AA09BB090597A1058F
:101CB000B10568F30E94A931DC01CB0184199509B3
:101CC000A609B709F60143E0F595E7954A95E1F7CE
:101CD0008997A105B10530F0E20DF31D8081880FD1
:101CE000816004C0E20DF31D8081880F8083BFEF07
:101CF000CB1ADB0AE8E2CE16D10409F09FCF598156
:101D00004B812D8130E08A8190E0850F911D840FF9
:101D1000911D6C81860F911D99272817390731F481
:101D2000D80113965C93139714964C9380915C0999
:101D3000E82F082E000CFF0BEC51FB4F92E590832F
:101D4000E1E0E80F0E2E000CFF0BEC51FB4F92E48C
:101D50009083E2E0E80F0E2E000CFF0BEC51FB4FDE
:101D60001082E3E0E80F0E2E000CFF0BEC51FB4F4E
:101D700098EC9E9DD0019F9DB00D1124A553B84FA6
:101D800013969C919083E4E0E80F0E2E000CFF0B5D
:101D9000EC51FB4F91E09083A0910404B0910504B5
:101DA000E5E0E80F0E2E000CFF0BEC51FB4F1396F5
:101DB0009C9113979083E6E0E80F0E2E000CFF0B2A
:101DC000EC51FB4F1082E7E0E80F0E2E000CFF0BEA
:101DD000EC51FB4F14969C91908329E0280FE8E08A
:101DE000E80F0E2E000CFF0BEC51FB4F1082865FAC
:101DF0008093E60460E090E0022E000C330B462F47
:101E000050E0421753070CF0B2C7FA01EC51FB4FF8
:101E10004081940F6F5FF3CF80910204909103048F
:101E2000009771F0DC0112964C9150E0F801258189
:101E3000022E000C330B42175307F9F00E94A24CFC
:101E400084E090E00E940D4CDC01F8019581E92FBF
:101E5000F0E0EE0FFF1FED5BFD4F80818C938181E1
:101E600011968C93119712969C93129713968C93BC
:101E70001397B0930304A093020410915C09E12F1F
:101E8000012E000CFF0BEC51FB4F82E58083E1E05B
:101E9000E10F0E2E000CFF0BEC51FB4F82E4808310
:101EA000E2E0E10F0E2E000CFF0BEC51FB4F108215
:101EB000E3E0E10F0E2E000CFF0BEC51FB4F88EC22
:101EC0008E9DD0018F9DB00D1124A553B84F139650
:101ED0008C918083E4E0E10F0E2E000CFF0BEC519F
:101EE000FB4F81E0808386E0810F80935C098091C5
:101EF0000204909103040E949029E5E0E10F0E2E68
:101F0000000CFF0BEC51FB4F908310915C0981E0BA
:101F1000810F80935C0980910204909103040E94D8
:101F20009029E12F110FFF0BEC51FB4F8083209183
:101F30005C0981E0820F8093E60460E090E0022E6D
:101F4000000C330B462F50E0421753070CF00FC71D
:101F5000FA01EC51FB4F4081940F6F5FF3CF8091FA
:101F6000000490910104009739F484E090E00E940D
:101F70000D4CDC01F8011BC0DC0112964C9150E0C5
:101F8000F8012581022E000C330B4217530731F163
:101F90000E94A24C84E090E00E940D4CDC0188EC91
:101FA0008E9DF0018F9DF00D1124E553F84F958122
:101FB000E92FF0E0EE0FFF1FED5BFD4F80818C936A
:101FC000818111968C93119712969C931297139678
:101FD0008C931397B0930104A093000410915C09B3
:101FE000E12F012E000CFF0BEC51FB4F82E58083AB
:101FF000E1E0E10F0E2E000CFF0BEC51FB4F82E4F1
:102000008083E2E0E10F0E2E000CFF0BEC51FB4F42
:102010001082E3E0E10F0E2E000CFF0BEC51FB4FA2
:1020200088EC8E9DD0018F9DB00D1124A553B84F23
:1020300013968C918083E4E0E10F0E2E000CFF0BD1
:10204000EC51FB4F81E0808386E0810F80935C0937
:1020500080910004909101040E94B235E5E0E10F07
:102060000E2E000CFF0BEC51FB4F908310915C097E
:1020700081E0810F80935C098091000490910104BC
:102080000E94B235E12F110FFF0BEC51FB4F808303
:1020900020915C0981E0820F8093E60460E090E08B
:1020A000022E000C330B462F50E0421753070CF062
:1020B0005EC6FA01EC51FB4F4081940F6F5FF3CF86
:1020C0008091FA039091FB03009749F485E090E03A
:1020D0000E940D4C6C01D80115966C9115C0FC0145
:1020E000428150E0D80115962C91022E000C330B42
:1020F0004217530781F00E94A24C85E090E00E94B5
:102100000D4C6C01F8016581C6010E942928D0920E
:10211000FB03C092FA0310915C09E12F012E000C21
:10212000FF0BEC51FB4F82E58083E1E0E10F0E2EC7
:10213000000CFF0BEC51FB4F82E48083E2E0E10FE7
:102140000E2E000CFF0BEC51FB4F1082E3E0E10F71
:102150000E2E000CFF0BEC51FB4F88EC8E9DD00136
:102160008F9DB00D1124A553B84F13968C91808389
:10217000E4E0E10F0E2E000CFF0BEC51FB4F81E071
:10218000808386E0810F80935C09E091FA03F091EF
:10219000FB0383810E943230E5E0E10F0E2E000C3C
:1021A000FF0BEC51FB4F21E0892B09F020E020834D
:1021B00020915C0981E0820F8093E60460E090E06A
:1021C000022E000C330B462F50E0421753070CF041
:1021D000CEC5FA01EC51FB4F4081940F6F5FF3CFF6
:1021E000D80115968C910E943A390D9709F01DC6B9
:1021F000E091F403F091F503309731F5F801858112
:102200000E943A390D9709F054C08BE090E00E948B
:102210000D4C8C0188EC8E9DF0018F9DF00D1124EA
:10222000E553F84F6581C80102D7D80116961C9274
:1022300016978BEE90E01A969C938E9319971896AA
:102240001C921E9217972EC0D80115968C91228150
:1022500030E0482F082E000C550B2417350749F1A4
:102260000E943A390D9729F58091F4039091F50376
:102270000E94A24C8BE090E00E940D4C8C0188ECF7
:102280008E9DF0018F9DF00D1124E553F84F65816F
:10229000C801CDD6F80116828BEE90E09287818737
:1022A000108617821093F5030093F403C8010E946F
:1022B000473C28EC2E9DC0012F9D900D11249C01C0
:1022C0002553384F5901D9011696DC90B1E0DB1245
:1022D000A7C08E010B5C1F4F9E012F5F3F4FAE01C9
:1022E0004B5E5F4FBE016B5D7F4F8091F403909119
:1022F000F5030E949D3C80915C09E82F082E000C9C
:10230000FF0BEC51FB4F92E59083E1E0E80F0E2EBE
:10231000000CFF0BEC51FB4F92E49083E2E0E80FDE
:102320000E2E000CFF0BEC51FB4F1082E3E0E80F88
:102330000E2E000CFF0BEC51FB4FD50113969C9118
:102340009083E4E0E80F0E2E000CFF0BEC51FB4FE6
:10235000D082E5E0E80F0E2E000CFF0BEC51FB4F96
:10236000D0829DA12EA1E6E0E80F0E2E000CFF0BFF
:10237000EC51FB4F2083E7E0E80F0E2E000CFF0B23
:10238000EC51FB4F90839D892E89E8E0E80F0E2EDB
:10239000000CFF0BEC51FB4F2083E9E0E80F0E2E01
:1023A000000CFF0BEC51FB4F908399812A81EAE0EE
:1023B000E80F0E2E000CFF0BEC51FB4F2083EBE0DF
:1023C000E80F0E2E000CFF0BEC51FB4F90839DA9E4
:1023D0002EA9ECE0E80F0E2E000CFF0BEC51FB4F8A
:1023E00020832EE0280FEDE0E80F0E2E000CFF0BEF
:1023F000EC51FB4F9083815F8093E60460E090E0B6
:10240000022E000C330B462F50E0421753070CF0FE
:10241000AEC4FA01EC51FB4F4081940F6F5FF3CFD4
:10242000B2E0DB1202C54090F4035090F50396E051
:10243000792EC12CD12CA12CB12C8E010F5F1F4FF6
:102440009E012B5E3F4FAE014B5D5F4FBE016B5C4B
:102450007F4FC2010E949D3C89819A81A816B906CE
:1024600008F45C01C80ED91E7A947110E6CFA6015B
:102470004A195B0956954795569547955A8349835E
:1024800080915C09E82F082E000CFF0BEC51FB4FEC
:1024900092E59083E1E0E80F0E2E000CFF0BEC516B
:1024A000FB4F92E49083E2E0E80F0E2E000CFF0B4E
:1024B000EC51FB4F1082E3E0E80F0E2E000CFF0BF7
:1024C000EC51FB4F98EC9E9DD0019F9DB00D1124C7
:1024D000A553B84F13969C919083E4E0E80F0E2E1D
:1024E000000CFF0BEC51FB4F91E09083E5E0E80F0F
:1024F0000E2E000CFF0BEC51FB4F92E09083E6E0B8
:10250000E80F0E2E000CFF0BEC51FB4F508328E020
:10251000280FE7E0E80F0E2E000CFF0BEC51FB4FED
:102520004083875F8093E60460E090E0022E000C19
:10253000330B462F50E0421753070CF018C4FA0132
:10254000EC51FB4F4081940F6F5FF3CFF801858111
:102550000E943A390E9709F068C4D80115968C91FB
:1025600085300CF0A9C1E091F203F091F3033097AC
:10257000C9F40E943A390E9709F049C084E490E00A
:102580000E940D4C8C0188EC8E9DF0018F9DF00D0A
:102590001124E553F84F6581C80149D581E0F80160
:1025A000858328C0228130E0482F082E000C550B6F
:1025B0002417350761F10E943A390E9741F5809151
:1025C000F2039091F3030E94A24C84E490E00E94F5
:1025D0000D4C8C0188EC8E9DF0018F9DF00D112427
:1025E000E553F84F6581C80122D581E0D8011596E1
:1025F0008C93F801EE5BFF4F88E690E09183808337
:102600001093F3030093F203C8010E9403468091E4
:10261000F2039091F3030E94FE2910915C09E12FCF
:10262000012E000CFF0BEC51FB4F82E58083E1E0B3
:10263000E10F0E2E000CFF0BEC51FB4F82E4808368
:10264000E2E0E10F0E2E000CFF0BEC51FB4F10826D
:10265000E3E0E10F0E2E000CFF0BEC51FB4F88EC7A
:102660008E9DD0018F9DB00D1124A553B84F1396A8
:102670008C9113978083E4E0E10F0E2E000CFF0B8A
:10268000EC51FB4F81E0808306E0010F00935C0971
:1026900016968C91E5E0E10F0E2E000CFF0BEC512D
:1026A000FB4F8083813009F0EFC0A090F203B0901F
:1026B000F303F50182859385A485B585BC01CD0121
:1026C000905820E030E048EC52E40E94234B0E94F6
:1026D000BD492B013C01F50186859785A089B1890B
:1026E000BC01CD01905820E030E048EC52E40E945B
:1026F000234B0E94BD496B017C0120E030E048EC97
:1027000052E4D50152966D917D918D919C91559792
:102710000E94234B0E94BD49AB01BC01802F000FDA
:10272000990B07E0010FA9E0A10F185F92011414A3
:102730001504160417045CF057FE04C02227332743
:10274000241935098C519B4FFC0110820BC057FE98
:1027500004C022273327241935098C519B4FB1E03F
:10276000FC01B083E02F000FFF0BEC51FB4F290160
:10277000330F660877085082A0935C09E12F110F90
:10278000FF0BEC51FB4F2083E0915C09C6011C1448
:102790001D041E041F0474F0D7FE04C08827992767
:1027A0008C199D09AE2F0E2E000CBB0BAC51BB4FEC
:1027B0001C920EC0D7FE04C0882799278C199D094A
:1027C000AE2F0E2E000CBB0BAC51BB4F21E02C9357
:1027D000A1E0AE0F0A2E000CBB0BAC51BB4F8C011D
:1027E000990F220B330B1C9393E09E0F90935C097F
:1027F000EE5F0E2E000CFF0BEC51FB4F8083E0913F
:102800005C0977FD1CC0AE2F0E2E000CBB0BAC512B
:10281000BB4F81E08C93A1E0AE0F0A2E000CBB0BE6
:10282000AC51BB4F5C9383E08E0F80935C09EE5FED
:102830000E2E000CFF0BEC51FB4F408325C0CA014C
:1028400057FF04C088279927841B950BAE2F0E2EA7
:10285000000CBB0BAC51BB4F1C92A1E0AE0F0A2E7B
:10286000000CBB0BAC51BB4FAC01990F660B770B47
:102870005C9393E09E0F90935C09EE5F0E2E000C2C
:10288000FF0BEC51FB4F808320915C0981E0820FAC
:102890008093E60460E090E0022E000C330B462F9C
:1028A00050E0421753070CF062C2FA01EC51FB4FA3
:1028B0004081940F6F5FF3CFE091F003F091F1034B
:1028C0003097D9F40E943A390E9709F049C084E450
:1028D00090E00E940D4C8C0188EC8E9DF0018F9D44
:1028E000F00D1124E553F84F6581C801A0D381E0B4
:1028F000D80115968C93F80126C0228130E0482F2C
:10290000082E000C550B2417350751F10E943A3957
:102910000E9731F58091F0039091F1030E94A24C43
:1029200084E490E00E940D4C8C0188EC8E9DF001B7
:102930008F9DF00D1124E553F84F6581C80177D3C1
:1029400081E0F8018583EE5BFF4F88E690E091839C
:1029500080831093F1030093F003C8010E940346A3
:102960008091F0039091F1030E94FE2910915C097F
:10297000E12F012E000CFF0BEC51FB4F82E5808311
:10298000E1E0E10F0E2E000CFF0BEC51FB4F82E457
:102990008083E2E0E10F0E2E000CFF0BEC51FB4FA9
:1029A0001082E3E0E10F0E2E000CFF0BEC51FB4F09
:1029B00088EC8E9DD0018F9DB00D1124A553B84F8A
:1029C00013968C9113978083E4E0E10F0E2E000C98
:1029D000FF0BEC51FB4F81E0808306E0010F009379
:1029E0005C0916968C91E5E0E10F0E2E000CFF0BB2
:1029F000EC51FB4F8083813009F0F1C0A090F003CF
:102A0000B090F103F50182859385A485B585BC015D
:102A1000CD01905820E030E048EC52E40E94234B76
:102A20000E94BD492B013C01F50186859785A0894F
:102A3000B189BC01CD01905820E030E048EC52E46F
:102A40000E94234B0E94BD496B017C0120E030E0D5
:102A500048EC52E4D50152966D917D918D919C91F7
:102A600055970E94234B0E94BD49AB01BC01802FAA
:102A7000000F990BF7E0F10F09E0010FE8E0E10F1B
:102A8000920114141504160417045CF057FE04C0D8
:102A900022273327241935098C519B4FDC011C92C6
:102AA0000BC057FE04C022273327241935098C5147
:102AB0009B4F11E0DC011C938F2FFF0F990B8C5162
:102AC0009B4F2901330F66087708DC015C92009365
:102AD0005C090E2E000CFF0BEC51FB4F2083E091A4
:102AE0005C09C6011C141D041E041F0474F0D7FEEB
:102AF00004C0882799278C199D09AE2F0E2E000C33
:102B0000BB0BAC51BB4F1C920EC0D7FE04C0882734
:102B100099278C199D09AE2F0E2E000CBB0BAC51C2
:102B2000BB4F21E02C93A1E0AE0F0A2E000CBB0B93
:102B3000AC51BB4F8C01990F220B330B1C9393E0CC
:102B40009E0F90935C09EE5F0E2E000CFF0BEC5174
:102B5000FB4F8083E0915C0977FD1CC0AE2F0E2EE9
:102B6000000CBB0BAC51BB4F81E08C93A1E0AE0FCE
:102B70000A2E000CBB0BAC51BB4F5C9383E08E0F55
:102B800080935C09EE5F0E2E000CFF0BEC51FB4FA7
:102B9000408325C0CA0157FF04C088279927841B9A
:102BA000950BAE2F0E2E000CBB0BAC51BB4F1C92E5
:102BB000A1E0AE0F0A2E000CBB0BAC51BB4FAC0119
:102BC000990F660B770B5C9393E09E0F90935C09D3
:102BD000EE5F0E2E000CFF0BEC51FB4F808320911B
:102BE0005C0981E0820F8093E60460E090E0022EB1
:102BF000000C330B462F50E0421753070CF0B7C0C0
:102C0000FA01EC51FB4F4081940F6F5FF3CF80913D
:102C1000C8029091C902009779F488E090E00E9480
:102C20000D4C8C0188EC8E9DF0018F9DF00D1124D0
:102C3000E553F84F65811FC0DC0112964C9150E0BE
:102C400068EC6E9D90016F9D300D1124F901E553E4
:102C5000F84F6F012581022E000C330B42175307EA
:102C6000A9F00E94A24C88E090E00E940D4C8C01DB
:102C7000D60115966C91C801DAD181E0F8018583FF
:102C8000178216821093C9020093C80210915C0942
:102C9000E12F012E000CFF0BEC51FB4F82E58083EE
:102CA000E1E0E10F0E2E000CFF0BEC51FB4F82E434
:102CB0008083E2E0E10F0E2E000CFF0BEC51FB4F86
:102CC0001082E3E0E10F0E2E000CFF0BEC51FB4FE6
:102CD00088EC8E9DD0018F9DB00D1124A553B84F67
:102CE00013968C918083E4E0E10F0E2E000CFF0B15
:102CF000EC51FB4F81E0808386E0810F80935C097B
:102D00008091C8029091C9020E94D436E5E0E10F9B
:102D10000E2E000CFF0BEC51FB4F908310915C09C1
:102D200081E0810F80935C098091C8029091C90273
:102D30000E94D436E12F110FFF0BEC51FB4F808323
:102D400020915C0981E0820F8093E60460E090E0CE
:102D5000022E000C330B462F50E0421753073CF471
:102D6000FA01EC51FB4F4081940F6F5FF4CF8093D9
:102D70005C09F901EC51FB4F908355C090E08091C4
:102D80005C09E82F082E000CFF0BEC51FB4F22E5ED
:102D90002083E1E0E80F0E2E000CFF0BEC51FB4FFF
:102DA00022E42083E2E0E80F0E2E000CFF0BEC5132
:102DB000FB4F1082E3E0E80F0E2E000CFF0BEC51EE
:102DC000FB4F28EC2E9DD0012F9DB00D1124A55353
:102DD000B84F13962C91208325E0280FE4E0E80FEC
:102DE0000E2E000CFF0BEC51FB4F31E030838A5F5D
:102DF0008093E60460E0022E000C330B462F50E077
:102E0000421753073CF4FA01EC51FB4F4081940FF9
:102E10006F5FF4CF80935C09F901EC51FB4F908315
:102E20009091E70491110E942839CB5BDF4F0FB6D8
:102E3000F894DEBF0FBECDBFDF91CF911F910F91F0
:102E4000FF90EF90DF90CF90BF90AF909F908F90CA
:102E50007F906F905F904F903F902F9008950F93C9
:102E60001F93CF93DF938C0160E0FC0183810E946C
:102E70004E31F80185818130E1F487E592E00197D8
:102E8000F1F700C00000D8E061E0F80184810E9401
:102E90005A30CC0FF80183810E943230892B09F01F
:102EA000C16060E0F80184810E945A30D15061F71E
:102EB0001DC0D8E061E0F80184810E945A30CC0F37
:102EC000F80183810E943230892B09F0C160FAE158
:102ED000FA95F1F700C060E0F80184810E945A3051
:102EE000FAE1FA95F1F700C0D15021F78C2FDF916C
:102EF000CF911F910F9108950F931F93CF93DF935D
:102F0000EC01162F61E08C810E944E3161E08B81D3
:102F10000E944E318D818130D9F487E592E001978E
:102F2000F1F700C0000008E017FF02C061E001C037
:102F300060E08B810E945A30110F61E08C810E9409
:102F40005A3060E08C810E945A30015069F720C0ED
:102F500008E017FF02C061E001C060E08B810E94C1
:102F60005A309AE19A95F1F700C0110F61E08C8117
:102F70000E945A308AE18A95F1F700C060E08C81A6
:102F80000E945A309AE19A95F1F700C0015009F772
:102F900080E0DF91CF911F910F910895CF93DF9340
:102FA000EC0161E08C810E944E3161E08B810E94D6
:102FB0004E318D818130C1F487E592E00197F1F7C0
:102FC00000C0000061E08B810E945A3061E08C817A
:102FD0000E945A3060E08B810E945A3060E08C8100
:102FE000DF91CF910C945A3061E08B810E945A306E
:102FF0009AE19A95F1F700C061E08C810E945A3005
:103000008AE18A95F1F700C060E08B810E945A3016
:103010009AE19A95F1F700C060E08C810E945A30E5
:103020008AE18A95F1F700C0DF91CF910895FC0104
:10303000A62FB0E0AA0FBB1FAD5BBD4F8C91808364
:1030400011969C9191836283938384831582089562
:10305000CF93DF93EC016B8170E080E496E00E94F7
:10306000EF3A6C8170E08DE396E0DF91CF910C94A4
:10307000EF3A0F931F93CF93DF93EC01E62FF0E02D
:10308000EE0FFF1FED5BFD4F108118830181098357
:103090006A8361E084E10E944E3161E084E10E9434
:1030A0005A301B830C8361E0812F0E944E3161E016
:1030B0008C81DF91CF911F910F910C944E312F9203
:1030C0003F924F925F926F927F928F929F92AF92B8
:1030D000BF92CF92DF92EF92FF920F931F93CF9305
:1030E000DF93CDB7DEB7C451D1400FB6F894DEBF41
:1030F0000FBECDBFFB011A012901A280B3806481FC
:1031000075814681578120853185350181E06822AE
:103110007724730183E0EE0CFF1C8A95E1F74B01E5
:1031200091E08922992496E0880C991C9A95E1F700
:10313000370168287928C080D180A7E0CA22DD2421
:1031400043018C289D286A01B1E0CB22DD24DC2CD0
:10315000CC24DD0CC828D928790181E0E822FF249D
:10316000FE2CEE24F29470EFF722EC28FD28A1FA51
:10317000992790F9CD5EDE4F9883C351D140CC5E44
:10318000DE4F1882C451D140CD5EDE4FC880D98059
:10319000C351D140A4E0CC0CDD1CAA95E1F7EC288A
:1031A000FD28A2FAAA27A0F9B0E015E0AA0FBB1FDC
:1031B0001A95E1F7EA2AFB2A61FB882780F990E05B
:1031C0009695982F882797958795E82AF92A62FB84
:1031D000662760F9162F00E0E02AF12A41FB8827D4
:1031E00080F9880F880F8A831982A981BA81EA2A17
:1031F000FB2A42FB442740F9440F440F440F4C8301
:103200001B828B819C81E82AF92A21FB882780F97F
:103210008295880F807E8E831D82AD81BE81EA2AD1
:10322000FB2A22FB222720F92295220F220F207C45
:1032300028871F828F819885E82AF92AD101EC928C
:103240001196FC92C684D78440895189228933899A
:10325000848995898A0101701127780156E0EE0C66
:10326000FF1C5A95E1F7D601A170BB2763E0AA0FB6
:10327000BB1F6A95E1F787010A2B1B2BD901A170AF
:10328000BB27BA2FAA27BB0FA02BB12BBC016170A3
:103290007727762F66277295707F6A2B7B2BC1FA72
:1032A000BB27B0F9B9871A8609851A8594E0000F03
:1032B000111F9A95E1F7602B712BC2FAAA27A0F98A
:1032C000AB871C860B851C8535E0000F111F3A95D6
:1032D000E1F7602B712B41FBBB27B0F9BD871E8640
:1032E0000D851E851695102F002717950795602BC5
:1032F000712B42FB442740F9488B1F86AF85B88964
:103300006A2B7B2B21FB992790F9990F990F9A8BA8
:10331000198AA989BA896A2B7B2B22FB222720F9DB
:10332000220F220F220F2C8B1B8AAB89BC896A2BA0
:103330007B2B81FB992790F99295990F907E9E8B1C
:103340001D8AAD89BE896A2B7B2B82FB882780F979
:103350008295880F880F807C888F1F8A2F89388DEF
:10336000262B372BD10112962C93129713963C9350
:1033700084859585E28CF38C648D758D468D578D93
:1033800022853385DC01A170BB278D01000F111F41
:1033900081FBBB27B0F9B98F1A8EA98DBA8D0A2B84
:1033A0001B2B84709927802B912BD701A170BB27F1
:1033B00013E0AA0FBB1F1A95E1F78A2B9B2BDB01A9
:1033C000A170BB2706E0AA0FBB1F0A95E1F7A82B47
:1033D000B92BCA0181709927982F8827990F8A2BBA
:1033E0009B2B890101701127102F00271295107F48
:1033F000082B192BE1FABB27B0F9BB8F1C8E8B8DE4
:103400009C8DA4E0880F991FAA95E1F7082B192B32
:10341000E2FA882780F98D8F1E8E8D8D9E8DB5E006
:10342000880F991FBA95E1F7082B192B61FB992793
:1034300090F99F8F18A28F8D98A19695982F882725
:1034400097958795802B912B62FB662760F96AA37D
:1034500019A2A9A1BAA18A2B9B2B41FB332730F9D2
:10346000330F330F3CA31BA2ABA1BCA18A2B9B2B18
:1034700042FB442740F9440F440F440F4EA31DA2C2
:10348000ADA1BEA18A2B9B2B21FB332730F93295AE
:10349000330F307E38A71FA2AFA1B8A58A2B9B2B74
:1034A00022FB222720F92295220F220F207C2AA717
:1034B00019A6A9A5BAA58A2B9B2BD10114968C938A
:1034C000149715969C93608D718D06A117A140A548
:1034D00051A522A533A5868997897801B1E0EB2211
:1034E000FF246701A3E0CC0CDD1CAA95E1F7DB010A
:1034F000A170BB27AA0FBB1F7601EA2AFB2ADA01BB
:10350000A170BB2756E0AA0FBB1F5A95E1F7EA2A24
:10351000FB2AD901A170BB27BA2FAA27BB0F6D01C7
:10352000CE28DF287C01A1E0EA22FF24FE2CEE2435
:10353000F294A0EFFA22EC28FD2861FBBB27B0F93A
:10354000BBA71CA6CBA4DCA4CC0CDD1CCC0CDD1CC6
:10355000EC28FD2862FB662760F96795662767956A
:103560006EA71DA6ADA5BEA5EA2AFB2A01FBBB27B7
:10357000B0F9BFA718AA6FA578A914E0660F771F46
:103580001A95E1F7E62AF72A02FB662760F969AB8C
:103590001AAA69A97AA905E0660F771F0A95E1F7CB
:1035A000E62AF72A41FB772770F97BAB1CAA6BA9A7
:1035B0007CA97695762F6627779567956E297F2962
:1035C00042FB442740F94EAB1DAAADA9BEA96A2B08
:1035D0007B2B21FB992790F9990F990F98AF1FAA80
:1035E000AFA9B8AD6A2B7B2B22FB222720F9220F33
:1035F000220F220F2AAF19AEA9ADBAAD6A2B7B2BD1
:1036000081FB992790F99295990F907E9CAF1BAE04
:10361000ABADBCAD6A2B7B2B82FB882780F98295F2
:10362000880F880F807C8EAF1DAE2DAD3EAD262B52
:10363000372BD10116962C93169717963C93C4A05E
:10364000D5A044A955A920A131A182A193A18A01A5
:1036500001701127780156E0EE0CFF1C5A95E1F736
:10366000D601A170BB27AA0FBB1F87010A2B1B2BFA
:10367000D901A170BB27BA2FAA27BB0FA02BB12B52
:10368000BC0161707727762F66277295707F6A2B51
:103690007B2BC1FABB27B0F9BFAF21961FAE219794
:1036A00021960EAD1FAD2197000F111F000F111FA6
:1036B000602B712BC2FAAA27A0F92296AFAF2297EE
:1036C00023961FAE239723960EAD1FAD239733E0AD
:1036D000000F111F3A95E1F7602B712B41FBBB27BF
:1036E000B0F92496BFAF249725961FAE259725964F
:1036F0000EAD1FAD25971695102F0027179507952E
:10370000602B712B42FB442740F927964FAF279738
:1037100026961FAE26972796AEADBFAD27976A2B8C
:103720007B2B21FB992790F9990F990F29969FAF31
:10373000299728961FAE28972996AEADBFAD299739
:103740006A2B7B2B22FB222720F9220F220F220F2C
:103750002B962FAF2B972A961FAE2A972B96AEAD9E
:10376000BFAD2B976A2B7B2B81FB992790F9929504
:10377000990F907E2D969FAF2D972C961FAE2C976C
:103780002D96AEADBFAD2D976A2B7B2B82FB882784
:1037900080F98295880F880F807C2F968FAF2F97A6
:1037A0002E961FAE2E972F962EAD3FAD2F97262B20
:1037B000372BD10118962C93189719963C93C2A8D1
:1037C000D3A8A0A8B1A8CF01805C9F4FDC014D9188
:1037D0005C9124A535A586A597A5C1FABB27B0F9AC
:1037E0006096BFAF609761961FAE6197B60161703A
:1037F0007727A4E0660F771FAA95E1F76196EEACF4
:10380000FFAC6197E62AF72AB50161707727660F4A
:10381000771F6E297F298A010170112756E0000F5A
:10382000111F5A95E1F7602B712B89010170112747
:10383000102F0027110F062B172BBC016170772763
:10384000762F66277295707F062B172BC2FA662794
:1038500060F962966FAF629763961FAE6397639647
:103860006EAD7FAD639795E0660F771F9A95E1F790
:10387000062B172BA1FA772770F964967FAF649710
:1038800065961FAE659765966EAD7FAD6597660FC1
:10389000771F660F771F062B172BA2FAAA27A0F90E
:1038A0006696AFAF669767961FAE679767966EADE1
:1038B0007FAD679753E0660F771F5A95E1F7062BA8
:1038C000172B41FBBB27B0F96896BFAF6897699685
:1038D0001FAE699769966EAD7FAD69977695762F25
:1038E000662777956795602B712B42FB442740F93B
:1038F0006B964FAF6B976A961FAE6A976B96AEAD9D
:10390000BFAD6B976A2B7B2B21FB992790F9990F01
:10391000990F6D969FAF6D976C961FAE6C976D96D5
:10392000AEADBFAD6D976A2B7B2B22FB222720F912
:10393000220F220F220F6F962FAF6F976E961FAE3A
:103940006E976F96AEADBFAD6F976A2B7B2B81FBE9
:10395000992790F99295990F907EA1969FAFA19784
:10396000A0961FAEA097A196AEADBFADA1976A2B52
:103970007B2B82FB882780F98295880F880F807CBB
:10398000A3968FAFA397A2961FAEA297A3968EADD4
:103990009FADA397682B792BD1011A966C931A9738
:1039A0001B967C9304AD15AD66AD77AD46A957A9BE
:1039B00020AD31AD82AD93AD7B01B1E0EB22FF24B0
:1039C0006701B4E0CC0CDD1CBA95E1F7D801A17019
:1039D000BB27AA0FBB1F7601EA2AFB2ADA01A170D6
:1039E000BB2756E0AA0FBB1F5A95E1F7EA2AFB2A2C
:1039F000D901A170BB27BA2FAA27BB0F6D01CE2812
:103A0000DF287C01A1E0EA22FF24FE2CEE24F294C0
:103A1000A0EFFA22EC28FD2801FBBB27B0F9A49601
:103A2000BFAFA497A5961FAEA597A596CEACDFAC69
:103A3000A597CC0CDD1CCC0CDD1CEC28FD2802FB72
:103A4000AA27A0F9A696AFAFA697A7961FAEA797ED
:103A5000A7960EAD1FADA79793E0000F111F9A9583
:103A6000E1F70E291F2961FBBB27B0F9A896BFAF6C
:103A7000A897A9961FAEA997A996EEACFFACA997F7
:103A800035E0EE0CFF1C3A95E1F70E291F2962FB89
:103A9000662760F9679566276795AB966FAFAB971A
:103AA000AA961FAEAA97AB96AEADBFADAB970A2B49
:103AB0001B2B41FBBB27B0F9AC96BFAFAC97AD96C3
:103AC0001FAEAD97AD966EAD7FADAD977695762F67
:103AD000662777956795602B712B42FB442740F949
:103AE000AF964FAFAF97AE961FAEAE97AF96AEAD57
:103AF000BFADAF976A2B7B2B21FB992790F9990FCC
:103B0000990FE1969FAFE197E0961FAEE097E1969F
:103B1000AEADBFADE1976A2B7B2B22FB222720F9AC
:103B2000220F220F220FE3962FAFE397E2961FAEEC
:103B3000E297E396AEADBFADE3976A2B7B2B81FB9B
:103B4000992790F99295990F907EE5969FAFE5970A
:103B5000E4961FAEE497E596AEADBFADE5976A2B50
:103B60007B2B82FB882780F98295880F880F807CC9
:103B7000E7968FAFE797E6961FAEE697E7962EADEE
:103B80003FADE797262B372BD1011C962C931C9722
:103B90001D963C93DF01A85BBF4FCD90DC90119741
:103BA0001296AD90BC90CF018C5B9F4FDC012D91A4
:103BB0003C910296DC018D919C9185010170112749
:103BC000780164E0EE0CFF1C6A95E1F7B6016170C4
:103BD0007727660F771F8701062B172BB9016170B6
:103BE0007727762F6627770F602B712BAC014170FA
:103BF0005527542F44275295507F462B572BC1FAF7
:103C0000BB27B0F9E896BFAFE897E9961FAEE997F2
:103C1000E9966EAD7FADE997660F771F660F771F48
:103C2000462B572BC2FA662760F9EA966FAFEA97E0
:103C3000EB961FAEEB97EB966EAD7FADEB9793E0F7
:103C4000660F771F9A95E1F7462B572BA1FA772736
:103C500070F9EC967FAFEC97ED961FAEED97ED9671
:103C60006EAD7FADED9735E0660F771F3A95E1F7C2
:103C7000462B572BA2FAAA27A0F9EE96AFAFEE97E4
:103C8000EF961FAEEF97EF966EAD7FADEF97A6E084
:103C9000660F771FAA95E1F7642B752B21FB9927F7
:103CA00090F9990F990FC058DF4F9883C058D040B2
:103CB000C158DF4F1882CF57D040C158DF4FA8817D
:103CC000B981CF57D0406A2B7B2B22FB222720F9CA
:103CD000220F220F220FCE57DF4F2883C258D04029
:103CE000CF57DF4F1882C158D040CF57DF4FA88140
:103CF000B981C158D0406A2B7B2B81FB992790F961
:103D00009295990F907ECC57DF4F9883C458D0403E
:103D1000CD57DF4F1882C358D040CD57DF4FA88111
:103D2000B981C358D0406A2B7B2B82FB882780F94E
:103D30008295880F880F807CCA57DF4F8883C658CA
:103D4000D040CB57DF4F1882C558D040CB57DF4FFC
:103D500088819981C558D040682B792BD1011E9656
:103D60006C931E971F967C93DF01AC5ABF4F0D9149
:103D70001C9111971296CD90DC90119754976D91EC
:103D80007C9111971E964D915C91119712962D91F1
:103D90003C91D601A170BB277D01B4E0EE0CFF1C65
:103DA000BA95E1F7D801A170BB27AA0FBB1FAE29B6
:103DB000BF29CB019695982F8827979587959927A6
:103DC0008A2B9B2B61FBBB27B0F9C957DF4FB88308
:103DD000C758D040C857DF4F1882C858D040C9577D
:103DE000DF4FA881B981C758D0408A2B9B2B7A011D
:103DF000B1E0EB22FF24FE2CEE24FF0C8E299F293C
:103E00007901A1E0EA22FF24FE2CEE24F294B0EF27
:103E1000FB228E299F2901FBBB27B0F9C757DF4F33
:103E2000B883C958D040C657DF4F1882CA58D0400F
:103E3000C757DF4FE880F980C958D040EE0CFF1C0F
:103E4000EE0CFF1C8E299F2902FBAA27A0F9C5575B
:103E5000DF4FA883CB58D040C457DF4F1882CC58CF
:103E6000D040C557DF4FE880F980CB58D04003E001
:103E7000EE0CFF1C0A95E1F78E299F29C1FABB279A
:103E8000B0F9C357DF4FB883CD58D040C257DF4F8A
:103E90001882CE58D040C357DF4FE880F980CD5804
:103EA000D04035E0EE0CFF1C3A95E1F78E299F29B2
:103EB000C2FAAA27A0F9C157DF4FA883CF58D04034
:103EC000C057DF4F1882C059D040C157DF4FE8803C
:103ED000F980CF58D04056E0EE0CFF1C5A95E1F720
:103EE000E82AF92A62FB662760F9CE56DF4F68831D
:103EF000C259D040CF56DF4F1882C159D040CF565B
:103F0000DF4F88819981C159D040E82AF92A41FBC5
:103F1000882780F9880F880FCC56DF4F8883C459D3
:103F2000D040CD56DF4F1882C359D040CD56DF4F19
:103F3000A881B981C359D040EA2AFB2A42FB442711
:103F400040F9440F440F440FCA56DF4F4883C65907
:103F5000D040CB56DF4F1882C559D040CB56DF4FEB
:103F600088819981C559D040E82AF92A21FB882700
:103F700080F98295880F807EC856DF4F8883C859A4
:103F8000D040C956DF4F1882C759D040C956DF4FBD
:103F9000A881B981C759D040EA2AFB2A22FB2227EF
:103FA00020F92295220F220F207CC656DF4F28834E
:103FB000CA59D040C756DF4F1882C959D040C7569A
:103FC000DF4F88819981C959D040E82AF92AD20166
:103FD000EC921196FC92DF01A05ABF4F0D911C91FB
:103FE00011971296AD90BC90119754974D915C919A
:103FF00011971E962D913C91119712968D919C913F
:104000007501B1E0EB22FF24670164E0CC0CDD1CFC
:104010006A95E1F7D801A170BB27AA0FBB1F7601F3
:10402000EA2AFB2ADA01B695BA2FAA27B795A795EF
:10403000BB27AE29BF29B90161707727762F662784
:10404000770F6A2B7B2BDC01A170BB27BA2FAA2725
:10405000B295B07F6A2B7B2B01FBAA27A0F9C5562E
:10406000DF4FA883CB59D040C456DF4F1882CC59BC
:10407000D040C556DF4FE880F980CB59D040EE0CD8
:10408000FF1CEE0CFF1C6E297F2902FBBB27B0F939
:10409000C356DF4FB883CD59D040C256DF4F188288
:1040A000CE59D040C356DF4F08811981CD59D04039
:1040B000B3E0000F111FBA95E1F7602B712BA1FA45
:1040C000AA27A0F9C156DF4FA883CF59D040C056C8
:1040D000DF4F1882C05AD040C156DF4F0881198186
:1040E000CF59D04095E0000F111F9A95E1F7602B52
:1040F000712BA2FABB27B0F9CF55DF4FB883C15A55
:10410000D040CE55DF4F1882C25AD040CF55DF4F36
:1041100008811981C15AD04036E0000F111F3A952D
:10412000E1F7062B172B41FB992790F9CC55DF4F70
:104130009883C45AD040CD55DF4F1882C35AD0401F
:10414000CD55DF4FA881B981C35AD0400A2B1B2B14
:1041500042FB442740F9479544274795CA55DF4F0E
:104160004883C65AD040CB55DF4F1882C55AD0403D
:10417000CB55DF4FA881B981C55AD0400A2B1B2BE4
:1041800021FB992790F9990F990FC855DF4F988314
:10419000C85AD040C955DF4F1882C75AD040C955B8
:1041A000DF4FA881B981C75AD0400A2B1B2B22FBB5
:1041B000222720F9220F220F220FC655DF4F288316
:1041C000CA5AD040C755DF4F1882C95AD040C75588
:1041D000DF4FA881B981C95AD0400A2B1B2B81FB24
:1041E000992790F99295990F907EC455DF4F988347
:1041F000CC5AD040C555DF4F1882CB5AD040C55558
:10420000DF4FA881B981CB5AD0400A2B1B2B82FBF0
:10421000882780F98295880F880F807CC255DF4FF0
:104220008883CE5AD040C355DF4F1882CD5AD04034
:10423000C355DF4F28813981CD5AD040202B312BF7
:10424000D20112962C93129713963C93DF01A45936
:10425000BF4FCD90DC9011979097AD90BC90CF015F
:10426000865A9F4FDC012D913C914096DC018D9147
:104270009C91850101701127780144E0EE0CFF1C30
:104280004A95E1F7B60161707727660F771F8701BE
:10429000062B172BB9017695762F662777956795AC
:1042A0007727602B712BAC0141705527542F442781
:1042B0005295507F462B572BC1FABB27B0F9C155F9
:1042C000DF4FB883CF5AD040C055DF4F1882C05B54
:1042D000D040C155DF4F68817981CF5AD040660FF9
:1042E000771F660F771F462B572BC2FA662760F998
:1042F000CF54DF4F6883C15BD040CE54DF4F18826C
:10430000C25BD040CF54DF4F68817981C15BD04020
:1043100003E0660F771F0A95E1F7462B572BA1FAAA
:10432000772770F9CD54DF4F7883C35BD040CC54EE
:10433000DF4F1882C45BD040CD54DF4F6881798154
:10434000C35BD04095E0660F771F9A95E1F7462B47
:10435000572BA2FAAA27A0F9CB54DF4FA883C55B3D
:10436000D040CA54DF4F1882C65BD040CB54DF4FD9
:1043700068817981C55BD04036E0660F771F3A953A
:10438000E1F7642B752B21FB992790F9C854DF4F77
:104390009883C85BD040C954DF4F1882C75BD040B8
:1043A000C954DF4FA881B981C75BD0406A2B7B2BF2
:1043B00022FB222720F9220FC654DF4F2883CA5B35
:1043C000D040C754DF4F1882C95BD040C754DF4F7D
:1043D000A881B981C95BD0406A2B7B2B81FB9927CF
:1043E00090F99295990F907EC454DF4F9883CC5BDF
:1043F000D040C554DF4F1882CB5BD040C554DF4F4F
:10440000A881B981CB5BD0406A2B7B2B82FB8827AC
:1044100080F98295880F880F807CC254DF4F888393
:10442000CE5BD040C354DF4F1882CD5BD040C35425
:10443000DF4F88819981CD5BD040682B792BD201E9
:1044400014966C93149715967C93DF01A858BF4F70
:104450000D911C9111979097AD90BC9011971E965D
:104460006D917C91119712964D915C9111971E96CA
:104470002D913C917501B1E0EB22FF246701A4E08E
:10448000CC0CDD1CAA95E1F7D801A170BB27AA0FBF
:10449000BB1F7601EA2AFB2ADB01B695BA2FAA27B1
:1044A000B795A795BB27AE29BF29CA018170992767
:1044B000982F8827990F990F8A2B9B2B41FBAA27AE
:1044C000A0F9C154DF4FA883CF5BD040C054DF4F69
:1044D0001882C05CD040C154DF4FA881B981CF5B46
:1044E000D0408A2B9B2BD901A170BB27BA2FAA27BA
:1044F000B295B07F8A2B9B2B01FBBB27B0F9CF5322
:10450000DF4FB883C15CD040CE53DF4F1882C25C0E
:10451000D040CF53DF4FE880F980C15CD040EE0C33
:10452000FF1CEE0CFF1C8E299F2902FBAA27A0F975
:10453000CD53DF4FA883C35CD040CC53DF4F1882EC
:10454000C45CD040CD53DF4F08811981C35CD0409B
:10455000B3E0000F111FBA95E1F7802B912BA1FA60
:10456000BB27B0F9CB53DF4FB883C55CD040CA53EB
:10457000DF4F1882C65CD040CB53DF4F08811981D2
:10458000C55CD04035E0000F111F3A95E1F7802B54
:10459000912BA2FAAA27A0F9C953DF4FA883C75CC1
:1045A000D040C853DF4F1882C85CD040C953DF4F9A
:1045B00008811981C75CD04056E0000F111F5A9541
:1045C000E1F7082B192B61FB882780F9C653DF4FD1
:1045D0008883CA5CD040C753DF4F1882C95CD04083
:1045E000C753DF4F88819981C95CD040082B192BB4
:1045F00062FB662760F9660FC453DF4F6883CC5CAB
:10460000D040C553DF4F1882CB5CD040C553DF4F3D
:10461000A881B981CB5CD0400A2B1B2B42FB4427DD
:1046200040F9440F440F440FC253DF4F4883CE5C20
:10463000D040C353DF4F1882CD5CD040C353DF4F0F
:1046400088819981CD5CD040082B192B21FB8827CC
:1046500080F98295880F807EC053DF4F8883C05DCC
:10466000D040C153DF4F1882CF5CD040C153DF4FE1
:10467000A881B981CF5CD0400A2B1B2B22FB2227BB
:1046800020F92295220F220F207CCE52DF4F288363
:10469000C25DD040CF52DF4F1882C15DD040CF52B3
:1046A000DF4F28813981C15DD040202B312BD201D1
:1046B00016962C93169717963C93DF01AC57BF4F75
:1046C0000D911C9111979097AD90BC9011971E96EB
:1046D0004D915C91119712962D913C9111971E96D8
:1046E0008D919C917501B1E0EB22FF24670164E09C
:1046F000CC0CDD1C6A95E1F7D801A170BB27AA0F8D
:10470000BB1F7601EA2AFB2ADA01B695BA2FAA273F
:10471000B795A795BB27AE29BF29B9016170772747
:10472000762F6627770F770F6A2B7B2BDC01A17022
:10473000BB27BA2FAA27B295B07F6A2B7B2B01FB30
:10474000AA27A0F9CD52DF4FA883C35DD040CC5239
:10475000DF4F1882C45DD040CD52DF4FE880F98032
:10476000C35DD040EE0CFF1CEE0CFF1C6E297F29B0
:1047700002FBBB27B0F9CB52DF4FB883C55DD040F9
:10478000CA52DF4F1882C65DD040CB52DF4F08813E
:104790001981C55DD040B3E0000F111FBA95E1F754
:1047A000602B712BA1FAAA27A0F9C952DF4FA88369
:1047B000C75DD040C852DF4F1882C85DD040C95293
:1047C000DF4F08811981C75DD04095E0000F111FB0
:1047D0009A95E1F7602B712BA2FABB27B0F9C7526B
:1047E000DF4FB883C95DD040C652DF4F1882CA5D23
:1047F000D040C752DF4F08811981C95DD04036E0F3
:10480000000F111F3A95E1F7062B172B41FB992753
:1048100090F9C452DF4F9883CC5DD040C552DF4F32
:104820001882CB5DD040C552DF4FA881B981CB5DE6
:10483000D0400A2B1B2B42FB442740F9440FC252A5
:10484000DF4F4883CE5DD040C352DF4F1882CD5D2D
:10485000D040C352DF4FA881B981CD5DD0400A2B33
:104860001B2B21FB992790F9990F990F990FC05293
:10487000DF4F9883C05ED040C152DF4F1882CF5DBA
:10488000D040C152DF4FA881B981CF5DD0400A2B03
:104890001B2B22FB222720F9279522272795CE5173
:1048A000DF4F2883C25ED040CF51DF4F1882C15EF8
:1048B000D040CF51DF4FA881B981C15ED0400A2BD3
:1048C0001B2B81FB992790F99295990F907ECC51E3
:1048D000DF4F9883C45ED040CD51DF4F1882C35E56
:1048E000D040CD51DF4FA881B981C35ED0400A2BA3
:1048F0001B2B82FB882780F98295880F880F807C8C
:10490000CA51DF4F8883C65ED040CB51DF4F18823B
:10491000C55ED040CB51DF4F28813981C55ED04084
:10492000202B312BD20118962C93189719963C9373
:10493000DF01A259BF4FCD90DC9011971296AD9038
:10494000BC90CF0182589F4FDC012D913C91029683
:10495000DC018D919C91850101701127780144E063
:10496000EE0CFF1C4A95E1F7B60161707727660FE0
:10497000771F8701062B172BB9017695762F6627AF
:10498000779567957727602B712BAC014170552780
:10499000542F4427550F550F462B572BC1FABB27D1
:1049A000B0F9C951DF4FB883C75ED040C851DF4F5F
:1049B0001882C85ED040C951DF4F68817981C75ED7
:1049C000D040660F771F660F771F462B572BC2FA12
:1049D000662760F9C751DF4F6883C95ED040C65172
:1049E000DF4F1882CA5ED040C751DF4F688179819E
:1049F000C95ED04003E0660F771F0A95E1F7462BAA
:104A0000572BA1FA772770F9C551DF4F7883CB5E1A
:104A1000D040C451DF4F1882CC5ED040C551DF4F2B
:104A200068817981CB5ED04095E0660F771F9A95BB
:104A3000E1F7462B572BA2FAAA27A0F9C351DF4F63
:104A4000A883CD5ED040C251DF4F1882CE5ED040E9
:104A5000C351DF4F68817981CD5ED04036E0660F6B
:104A6000771F3A95E1F7642B752B21FB992790F975
:104A7000C051DF4F9883C05FD040C151DF4F1882D3
:104A8000CF5ED040C151DF4FA881B981CF5ED04009
:104A90006A2B7B2B22FB222720F9220FCE50DF4FDF
:104AA0002883C25FD040CF50DF4F1882C15FD04013
:104AB000CF50DF4FA881B981C15FD0406A2B7B2BDB
:104AC00081FB992790F9990F990F990FCC50DF4FDF
:104AD0009883C45FD040CD50DF4F1882C35FD04071
:104AE000CD50DF4FA881B981C35FD0406A2B7B2BAB
:104AF00082FB882780F98295807FCA50DF4F8883A8
:104B0000C65FD040CB50DF4F1882C55FD040CB503E
:104B1000DF4F88819981C55FD040682B792BD20106
:104B20001A966C931A971B967C93DF01A658BF4F79
:104B30000D911C9111971296AD90BC9011971E96F5
:104B40004D915C91119712962D913C91119712966F
:104B50008D919C917501B1E0EB22FF24670164E027
:104B6000CC0CDD1C6A95E1F7D801A170BB27AA0F18
:104B7000BB1F7601EA2AFB2ADA01B695BA2FAA27CB
:104B8000B795A795BB27AE29BF29B90161707727D3
:104B9000762F6627770F770F6A2B7B2BDC01A170AE
:104BA000BB27BA2FAA27B295BB0FB07E6A2B7B2BEF
:104BB00081FBAA27A0F9C950DF4FA883C75FD04067
:104BC000C850DF4F1882C85FD040C950DF4FA8815E
:104BD000B981C75FD0406A2B7B2B01FBBB27B0F9A3
:104BE000C750DF4FB883C95FD040C650DF4F18822F
:104BF000CA5FD040C750DF4FE880F980C95FD0401E
:104C0000EE0CFF1CEE0CFF1C6E297F2902FBAA276D
:104C1000A0F9C550DF4FA883CB5FD040C450DF4F11
:104C20001882CC5FD040C550DF4F08811981CB5F1F
:104C3000D040B3E0000F111FBA95E1F7602B712B44
:104C4000A1FABB27B0F9C350DF4FB883CD5FD04086
:104C5000C250DF4F1882CE5FD040C350DF4F088173
:104C60001981CD5FD04095E0000F111F9A95E1F7B3
:104C7000602B712BA2FAAA27A0F9C150DF4FA8839D
:104C8000CF5FD040C050DF4F1882C050D140C150DC
:104C9000DF4F08811981CF5FD04036E0000F111F30
:104CA0003A95E1F7602B712B41FB992790F9CE5F84
:104CB000DE4F9883C250D140CF5FDE4F1882C15083
:104CC000D140CF5FDE4FA881B981C150D1406A2B5E
:104CD0007B2B42FB442740F9440FCC5FDE4F4883D7
:104CE000C450D140CD5FDE4F1882C350D140CD5F5C
:104CF000DE4FA881B981C350D1406A2B7B2B21FBA9
:104D0000992790F9990F990F990FCA5FDE4F9883F1
:104D1000C650D140CB5FDE4F1882C550D140CB5F2B
:104D2000DE4FA881B981C550D1406A2B7B2B22FB75
:104D3000222720F92295207FC85FDE4F2883C850A4
:104D4000D140C95FDE4F1882C750D140C95FDE4FE6
:104D5000A881B981C750D1406A2B7B2B82FB882761
:104D600080F98295880F880F807CC65FDE4F88832C
:104D7000CA50D140C75FDE4F1882C950D140C75FCB
:104D8000DE4F88819981C950D140682B792BD2019F
:104D90001C966C931C971D967C93DF01AA57BF4FFE
:104DA0006D917C91E857FF4F40815181CA0181701C
:104DB0009927FC0154E0EE0FFF1F5A95E1F79B0184
:104DC00021703327C901880F991F8E2B9F2B61FB00
:104DD000BB27B0F9C55FDE4FB883CB50D140C45F6D
:104DE000DE4F1882CC50D140C55FDE4F288139811B
:104DF000CB50D140220F331F220F331F822B932B16
:104E000062FBEE27E0F9C35FDE4FE883CD50D1406F
:104E1000C25FDE4F1882CE50D140C35FDE4F288183
:104E20003981CD50D140F3E0220F331FFA95E1F7DD
:104E3000822B932B41FBFF27F0F9C15FDE4FF883F4
:104E4000CF50D140C05FDE4F1882C051D140C15F0A
:104E5000DE4F28813981CF50D140A5E0220F331F8A
:104E6000AA95E1F7822B932B42FB222720F9CF5EF4
:104E7000DE4F2883C151D140CE5EDE4F1882C25131
:104E8000D140CF5EDE4F28813981C151D140B6E09B
:104E9000220F331FBA95E1F7822B932BD2011E9676
:104EA0008C931E971F961C92CC5EDE4F0FB6F89423
:104EB000DEBF0FBECDBFDF91CF911F910F91FF904D
:104EC000EF90DF90CF90BF90AF909F908F907F90AA
:104ED0006F905F904F903F902F900895CF92DF9208
:104EE000EF92FF920F931F93CF93DF93EC01E62E87
:104EF0008A01F22E0E94CE176E0182E4C80ED11CE8
:104F0000F6018081682F660FCE010E947C17CE01CA
:104F10000E9464366E2DCE010E947C17CE010E9445
:104F20006436CE010E94EE35F0E5FA95F1F7CE0138
:104F30000E94CE17F6016081660F6160CE010E946B
:104F40007C17CE010E946436FA94EF2C6801EE20A3
:104F500061F0CE010E942F17F60181936F0160E08E
:104F6000CE010E942A36EA94F2CF0F0D111DCE0118
:104F70000E942F17F801808361E0CE010E942A363B
:104F8000CE01DF91CF911F910F91FF90EF90DF90B5
:104F9000CF900C94EE35AF92BF92DF92EF92FF92DA
:104FA0000F931F93CF93DF931F92CDB7DEB75C01B2
:104FB000D62E790149830E94CE176D2D660FC5014B
:104FC0000E947C17C5010E9464364981642FC50187
:104FD0000E947C17C5010E9464360E0D1F1DE0164D
:104FE000F10651F0F70161917F01C5010E947C1724
:104FF000C5010E946436F3CFC5010F90DF91CF91B8
:105000001F910F91FF90EF90DF90BF90AF900C94A5
:10501000EE350F931F93CF93DF931F921F92CDB75F
:10502000DEB78C012A8349830E94BA364981642FF6
:10503000C8010E94A4362A81622FC8010E94A436AA
:10504000C8010F900F90DF91CF911F910F910C9499
:10505000EE35CF93DF93EC01E62FF0E0EE0FFF1F6C
:10506000ED5BFD4F80818883918199836A839B8367
:105070008C838B8160E00E944E318C8161E00E94C4
:105080004E318C8160E0DF91CF910C945A300F93B8
:105090001F93CF93DF93EC01E62FF0E0EE0FFF1F9D
:1050A000ED5BFD4F00810F8F118118A369A31B8257
:1050B0001A8288EE93E0A0E0B0E08C839D83AE83FB
:1050C000BF8383E292E0998388831F8A1E8A198EA8
:1050D000188E1B8E1A8E1D8E1C8E6E8D6E7F6D7FB0
:1050E0006E8F6695617081E06827812FE3D761E05C
:1050F000812F0E944E31212F30E0F901E059FD4F00
:10510000E491E88BF901E65DFD4FE491F0E0EE0FEC
:10511000FF1FE05FFD4F859194919A8B898B60E032
:10512000802F0E944E318E8D81FD03C061E0802F63
:10513000C1D70C87202F30E0F901E059FD4FE491F1
:10514000ED87F901E65DFD4FE491F0E0EE0FFF1F02
:10515000EA50FE4F859194919F878E8785E392E078
:105160009983888383E08AA31B8E1A8E198E188EEA
:105170001F8A1E8A85E690E09D8F8C8F86EF800FB8
:10518000843048F09EEC900F943028F092EC900F11
:10519000983008F062C021E230E03F8B2E8B23E68E
:1051A00030E0398F288F22E430E03B8F2A8F843023
:1051B00060F09EEC900F943040F092EC900F98309D
:1051C00008F46CC0A0E0B0E06BC0A8E6B0E0E8E690
:1051D000F0E09081843018F00E53083010F081E038
:1051E00001C084E0892B8C938C8596EF980F9430C6
:1051F00058F02EEC280F243038F022EC280F2830FD
:1052000030F020E030E005C02BE630E002C02DE6B3
:1052100030E03C8B2B8B943010F49AEF0BC0823330
:1052200081F0833381F0843381F092EC980F9830D1
:1052300070F492EC980F81E001C0880F9A95EAF71C
:1052400007C088E005C084E003C082E001C081E0BF
:105250008D8B8C8D9D8D0197F1F78A8D9B8D892B80
:1052600029F180919504909196048C179D07F1F097
:10527000009711F00E9450348E8D8E7F8E8F109289
:10528000930410929404D0939604C0939504EB89F0
:10529000FC8990818D89892B808308C0A8E6B0E0C5
:1052A000983008F494CFE0E0F0E093CFDF91CF9115
:1052B0001F910F9108950F931F93CF93DF93EC01EC
:1052C0008B81D0D68C018C81CDD6AC0121E030E031
:1052D000012B11F420E030E0220F331F81E0452B39
:1052E00009F480E0822BDF91CF911F910F910895F7
:1052F000CF93DF93EC01E62FF0E0EE0FFF1FED5BA5
:10530000FD4F90819883818189836A839B838C83FD
:105310008B8160E0C3D78C8160E0DF91CF91BEC705
:105320008F929F92AF92BF92CF92DF92EF92FF92B5
:105330000F931F93CF93DF935C010AE010E0C12C21
:10534000D12C7601C0E0D0E0812C34E0932E60E0D7
:10535000F5018381A3D7F5018381DCD79401281B54
:10536000390BC901C217D30708F4E901C80ED91EC9
:10537000E11CF11C0150110951F7D701C6018C1B2A
:105380009D0BA109B10923E0B695A795979587953F
:105390002A95D1F7DF91CF911F910F91FF90EF9058
:1053A000DF90CF90BF90AF909F908F900895CF9354
:1053B000DF93EC010E94171881E08D83CE010E94DB
:1053C000CE1767EECE010E94A43660E8CE010E949F
:1053D000A43664EACE010E94A4366AE9CE010E9496
:1053E000A43661E8CE010E94A43663E8CE010E9493
:1053F000A436CE01DF91CF910C94EE352F923F92DF
:105400004F925F926F927F928F929F92AF92BF92D4
:10541000CF92DF92EF92FF920F931F93CF93DF9380
:10542000CDB7DEB72C970FB6F894DEBF0FBECDBF59
:105430001C01AC014C5C5F4F2EE06BE34FDDF101D2
:10544000A4A8B12CBA2CAA2485A98501082B13A3E2
:1054500002A3E6A8F12CFE2CEE2487A9E82AF5A2E7
:10546000E4A280AC912C982C882481AD882A97A244
:1054700086A2468057806084718464AD70E0762F88
:10548000662785AD682B072E000C880B990B0E94B0
:10549000F049F10120A531A542A553A50E948A48F3
:1054A000A30192010E945549F101668B778B808F91
:1054B000918F66AD70E0762F662787AD682B072E3B
:1054C000000C880B990B0E94F049F10124A535A529
:1054D00046A557A50E948A48A30192010E945549FA
:1054E000F101628F738F848F958FE05CFF4F608135
:1054F00070E0762F662731968081682B072E000C8E
:10550000880B990B0E94F049F10120A931A942A909
:1055100053A90E948A48A30192010E945549F101B2
:10552000668F778F80A391A3B701FF0C880B990B2F
:105530000E94F0496B017C01B401990C880B990B16
:105540000E94F0499B01AC010E94234B4B015C017E
:10555000A7019601C701B6010E94234BA501940142
:105560000E948B480E948A4B9B01AC01B801110F2D
:10557000880B990B29873A874B875C870E94F049F3
:105580002B013C0129853A854B855C850E94FE48AC
:1055900020E030E044E353E40E94234B2AED3FE057
:1055A00049E450E40E94554969837A838B839C8344
:1055B000A3019201C301B2010E94234BA5019401F2
:1055C0000E948B480E948A4B9B01AC01C701B60127
:1055D0000E94FE4820E030E044E353E40E94234B65
:1055E0002AED3FE049E450E40E9455496D837E83F3
:1055F0008F83988782D4C0902B04D0902C04E090A5
:105600002D04F0902E046C197D098E099F090E94CB
:10561000EE4920E030E04AE754E40E9455496B012E
:105620007C016BD460932B0470932C0480932D0425
:1056300090932E04F10186A197A11816190644F53E
:10564000228D338D448D558DC701B6010E94234BA9
:105650009B01AC01F10162857385848595850E946B
:105660008A48F101628773878487958726893789FD
:10567000408D518DC701B6010E94234B9B01AC01A7
:10568000F10166857785808991890E948B4828C0C1
:10569000F101228D338D448D558DC701B6010E94D5
:1056A000234B9B01AC01F10162857385848595854F
:1056B0000E948B48F10162877387848795872689CA
:1056C0003789408D518DC701B6010E94234B9B0144
:1056D000AC01F10166857785808991890E948A48AD
:1056E000F10166877787808B918BF101268D378D4D
:1056F00040A151A1C701B6010E94234BF1012289AB
:105700003389448955890E948B482B013C0120E054
:1057100030E044EB53E40E9455490E942B4A20E0BC
:1057200030E044EB53E40E94234B9B01AC01C301E6
:10573000B2010E948A48F101628B738B848B958B36
:1057400020E030E040E05FE3C701B6010E948B48F3
:105750009B01AC0160E070E080E09FE30E9455494E
:105760006B017C019B01AC0160E070E080E89FE38D
:105770000E948A484B015C01F101228533854485F2
:105780005585C701B6010E94234B2B013C01A501A1
:10579000940169817A818B819C810E94234B9B01BA
:1057A000AC01C301B2010E948B48F101628773878B
:1057B000848795872685378540895189C701B60139
:1057C0000E94234B6B017C01A50194016D817E81B8
:1057D0008F8198850E94234B9B01AC01C701B601C4
:1057E0000E948B48F10166877787808B918B2C967E
:1057F0000FB6F894DEBF0FBECDBFDF91CF911F91E2
:105800000F91FF90EF90DF90CF90BF90AF909F905F
:105810008F907F906F905F904F903F902F90089562
:10582000FC01453651056105710524F044E650E060
:1058300060E070E09A01AB012C398FEF3807480720
:10584000580724F42CE93FEF4FEF5FEF81899289ED
:10585000A389B48982179307A407B50709F464C024
:10586000218B328B438B548B21873287438754871C
:10587000EA54FF4F8081843059F51216130614063E
:1058800015069CF4AFEFB3E00E9449481092A900BE
:105890001092A80024E630E040E050E00E942D483D
:1058A0003093AB002093AA000895A1E0BCEF0E94C2
:1058B000554824E630E040E050E00E942D48309307
:1058C000A9002093A8001092AB001092AA0008959E
:1058D000853051F512161306140615069CF4AFEF29
:1058E000B3E00E94494824E630E040E050E00E94E6
:1058F0002D48309389002093880010928B001092DD
:105900008A000895A1E0BCEF0E94554810928900DA
:105910001092880024E630E040E050E00E942D48DC
:1059200030938B0020938A0008952F923F924F92DC
:105930005F926F927F928F929F92AF92BF92CF921F
:10594000DF92EF92FF920F931F93CF93DF93CDB728
:10595000DEB728970FB6F894DEBF0FBECDBF1C018F
:10596000FC0161A972A983A994A985809680A7806A
:10597000B08421A132A143A154A12D833E834F8342
:1059800058870E94F0496B017C01C501B4010E9457
:10599000F0492D813E814F8158850E94234B9B0108
:1059A000AC01C701B6010E94554920E030E044EB4C
:1059B00053E40E94234B0E94BD49F10165A376A3E5
:1059C00087A390A79AD281010B551F4FF801C08081
:1059D000D180E280F380DC01CB018C199D09AE09F6
:1059E000BF094597A105B10508F460C0F10181A97F
:1059F00092A9A3A9B4A945A456A467A470A88580B8
:105A00009680A780B08421A132A143A154A129830B
:105A10003A834B835C83BC01CD0164197509860907
:105A200097090E94F0492B013C016DE77FE26C1958
:105A30007D0980E090E00E94EE499B01AC0160E0AE
:105A400070E08AE794E40E9455499B01AC01C301D0
:105A5000B2010E94234B20E030E040E752E40E9474
:105A6000234B2B013C01C501B4010E94F04929815F
:105A70003A814B815C810E94234B9B01AC01C301A5
:105A8000B2010E945549F101658B768B878B908F0F
:105A900081A992A9A3A9B4A985A796A7A7A7B0ABE6
:105AA0002CD2F8016083718382839383F10160813A
:105AB00071818281938120E030E040E050E40E94D7
:105AC00051498111E9C019D2810107551F4FF801D1
:105AD000C080D180E280F380DC01CB018C199D096C
