:1000000095C100000C948E3D0C94633D0C94383DDA
:100010000C940D3D0C94E23C0C94B73C0C948C3C3D
:100020000C94613C0C94E33D0C94E33D0C94E33D53
:10003000AEC10000ACC10000AAC10000A8C1000010
:10004000A6C100000C94C33FA2C10000A0C10000E3
:100050009EC100009CC100009AC100000C94D845CC
:1000600096C100000C94CF4392C1000090C10000E3
:100070008EC100008CC100008AC1000088C1000050
:100080000C94963F84C1000082C1000080C1000032
:100090007EC100007CC100007AC1000078C1000070
:1000A00076C1000074C100000C94693F70C100006B
:1000B0006EC100006CC100006AC100000C943C3F9E
:1000C00066C1000064C1000062C1000060C10000A0
:1000D0005EC100005CC100005AC1000058C10000B0
:1000E00056C10000FD01B102040373031304BE05F1
:1000F000700623078409C807B80C6A0D1B12DA0EB4
:10010000E00FA1105311691298126F137B140F1591
:10011000CC1CCC1CCC1CCC1CCC1CCC1CCC1CCC1C9F
:10012000CC1CCC1CAB15D515A41635175C171817AD
:100130000217751C201861180319D219C21ACC1C99
:10014000101CB81BC012F2124E13241329132E13C5
:10015000331338133C13411346134A1841184318FC
:100160004A184C184E18501856185818EE48FA48A5
:1001700006494C491449224930493E497649824949
:10018000A049AE49BE49704A284A704A194A024AF3
:10019000354A444A524A624A8B3992396F39763924
:1001A0007D3984399939A039D33DC93DCB3DCD3D09
:1001B000CF3DD53DD73DE544E844D744DB44E14459
:1001C0001F45EC44F044F644FA44FE440445084517
:1001D0000C451F45124516451A45084AD73B3BCEEC
:1001E000016E84BCBFFDC12F3D6C74319ABD568336
:1001F0003DDA3D00C77F11BED9E4BB4C3E916BAAEE
:10020000AABE000000803F0000000A0B02090C0D8E
:100210000E080703040100000000000000000000B9
:1002200000000000000000000000000000000000CE
:10023000000000001211100000000000000000008B
:1002400000000000000000000000000000000000AE
:1002500020002300260029002C002F00320000017E
:10026000000003010601090100002200250028000A
:100270002B002E00310034000201000005010801AE
:100280000B0105050505070508080808020202021A
:100290000A0A080804040404010101010101010122
:1002A0000303030303030303040707070C0C0C0CED
:1002B0000C0C0C0C020202020606060606060606D6
:1002C0000B0B0B0B0B0B0B0B010210202008081063
:1002D00020401020408002010201080402010102B6
:1002E000040810204080804020100804020180048F
:1002F00002018040201008040201080402010102EA
:1003000004081020408001020408102040800000F2
:100310002100240027002A002D00300033000101B5
:100320000000040107010A01454F244E11241FBE9D
:10033000CFEFD1E2DEBFCDBF00E00CBF12E0A0E006
:10034000B2E0E6EAFDEA00E00BBF02C007900D92C2
:10035000AA3BB107D9F729E0AAEBB2E001C01D9290
:10036000AB37B207E1F711E0C5E9D1E000E006C024
:1003700021970109802FFE010E945155C439D107F0
:1003800080E00807A9F70E9467460C94C25638CE51
:100390002F923F924F925F926F927F928F929F9295
:1003A000AF92BF92CF92DF92EF92FF920F931F9383
:1003B000CF93DF93CDB7DEB762970FB6F894DEBF69
:1003C0000FBECDBF10926309E82EF12C28EC829F5E
:1003D000F0011124EE52F84FE4818E2F90E0FC01E1
:1003E000E15AF109E131F10510F00C941B12882754
:1003F000EE58FF4F8F4F0C94515588EC8E9D800125
:100400008F9D100D11240E52184FD80115968C9106
:100410000E946C3A029711F00C941B128091160402
:1004200090911704009741F480E190E00E946D558F
:100430006C01F801658116C0DC0112964C9150E008
:10044000F8012581022E000C330B4217530789F067
:100450000E94055680E190E00E946D556C01D80124
:1004600015966C91C6010E948A42D0921704C092E0
:10047000160480911604909117040E94653820E0BC
:1004800030E040E251E40E9483540E941D53AB01CE
:1004900030916309E32F032E000CFF0BE056FB4F56
:1004A00022E52083E1E0E30F0E2E000CFF0BE05667
:1004B000FB4F22E42083E2E0E30F0E2E000CFF0B43
:1004C000E056FB4F1082E3E0E30F0E2E000CFF0B13
:1004D000E056FB4F28EC2E9DD0012F9DB00D11242E
:1004E000AE52B84F13962C912083E4E0E30F0E2E0A
:1004F000000CFF0BE056FB4F21E02083E5E0E30F0B
:100500000E2E000CFF0BE056FB4FDB0177FF02C005
:10051000A150BF4FB08327E0230FE6E0E30F0E2E7C
:10052000000CFF0BE056FB4FCA0160E071E00E9437
:100530003E55808388E0830F8093A20460E090E0C2
:10054000022E000C330B462F50E04217530714F0D5
:100550000C940312FA01E056FB4F4081940F6F5F39
:10056000F2CF88EC8E9DF0018F9DF00D1124EE529C
:10057000F84F8581893F11F00C941B1282E580931E
:10058000A00482E48093A1041092A204838180934A
:10059000A30485E08093630911E01093A40483E22F
:1005A0000E94A739E0916309019759F481E08E0F09
:1005B000809363090E2E000CFF0BE056FB4F108258
:1005C0000AC081E08E0F809363090E2E000CFF0B92
:1005D000E056FB4F10832091630981E0820F8093E6
:1005E000A20460E090E0022E000C330B462F50E096
:1005F0004217530714F00C940312FA01E056FB4F14
:100600004081940F6F5FF2CF88EC8E9D80018F9DAB
:10061000100D11240E52184FF80185818D3F11F0F5
:100620000C941B128DE30E945C4522E3AC01249FD5
:10063000C001259F900D112430916309E32F032EF3
:10064000000CFF0BE056FB4F22E52083E1E0E30FB7
:100650000E2E000CFF0BE056FB4F22E42083E2E05D
:10066000E30F0E2E000CFF0BE056FB4F1082E3E071
:10067000E30F0E2E000CFF0BE056FB4FD801139634
:100680002C912083E4E0E30F0E2E000CFF0BE056CC
:10069000FB4F21E0208326E0230FE5E0E30F0E2E41
:1006A000000CFF0BE056FB4F6FEF73E00E943E55CE
:1006B000862F880F680F608387E0830F8093A204E2
:1006C00060E090E0022E000C330B462F50E0421702
:1006D000530714F00C940312FA01E056FB4F4081CB
:1006E000940F6F5FF2CF8091190490911A040097D4
:1006F000B1F485E090E00E946D558C0188EC8E9DF0
:10070000F0018F9DF00D1124EE52F84F6581C80164
:100710000E94CD1E10931A040093190423C0FC01FB
:10072000428150E028EC2E9D80012F9D100D112458
:100730000E52184FD80115962C91022E000C330B37
:100740004217530779F00E94055685E090E00E9419
:100750006D556C01F80165810E94CD1ED0921A047E
:10076000C092190410916309E12F012E000CFF0BB8
:10077000E056FB4F82E58083E1E0E10F0E2E000C96
:10078000FF0BE056FB4F82E48083E2E0E10F0E2E88
:10079000000CFF0BE056FB4F1082E3E0E10F0E2E42
:1007A000000CFF0BE056FB4F88EC8E9DD0018F9D17
:1007B000B00D1124AE52B84F13968C918083E4E0B3
:1007C000E10F0E2E000CFF0BE056FB4F81E0808303
:1007D00086E0810F809363098091190490911A0437
:1007E0000E94AE1EE5E0E10F0E2E000CFF0BE0565E
:1007F000FB4F80832091630981E0820F8093A204E4
:1008000060E090E0022E000C330B462F50E04217C0
:10081000530714F00C940312FA01E056FB4F408189
:10082000940F6F5FF2CF88EC8E9D80018F9D100D2D
:1008300011240E52184FD80115968C910E946C3AD3
:10084000069711F00C941B128091120490911304DE
:10085000009771F0FC01428150E0D80115962C916F
:10086000022E000C330B42175307D1F00E9405569D
:1008700086E090E00E946D556C01F8011581612FB2
:100880000E94031DE12FF0E0EE0FFF1FE557FD4F23
:100890008181D60115968C93D0921304C0921204D4
:1008A0000091120410911304FE0131961F0185E09E
:1008B000DF011D928A95E9F761E0F80185810E94C8
:1008C000204561E0D80115968C910E94D0396AEFDD
:1008D00070E080E090E00E94A04560E0F801858132
:1008E0000E94D03964E170E080E090E00E94A04571
:1008F00061E0D80115968C910E94D0398BE990E087
:100900000197F1F760E0F80185810E94D03983E218
:1009100090E00197F1F70E94BE444B015C0162E058
:10092000D80115968C910E942045F80185810E947E
:10093000A739019791F00E94BE44DC01CB018819D0
:100940009909AA09BB090597A105B10570F3D8015A
:1009500013961C92139714961C920E94BE444B014E
:100960005C0162E0F80185810E942045D80115965E
:100970008C910E94A739892B19F4C12CD12C53C01A
:100980000E94BE44DC01CB0188199909AA09BB0960
:100990000597A105B10550F3F0CF0E94BE44DC01DC
:1009A000CB0188199909AA09BB090597A105B105C9
:1009B00038F4D80115968C910E94A739892B69F3D8
:1009C0000E947B454B015C010E94BE442B013C010F
:1009D00062E0F80185810E942045D80115968C912E
:1009E0000E94A739019749F10E947B45DC01CB01A8
:1009F00088199909AA09BB09F60153E0F595E7950D
:100A00005A95E1F78997A105B10520F1E20DF31D93
:100A10008081880F81608083BFEFCB1ADB0AE8E218
:100A2000CE16D104E1F00E94BE444B015C0162E0AD
:100A3000F80185810E942045BCCF0E94BE44DC01A4
:100A4000CB0184199509A609B7090597A105B10538
:100A500020F2CACFE20DF31D8081880FDCCF5981CF
:100A60004B812D8130E06A81852F90E0860F911DAA
:100A7000840F911D6C81860F911D992728173907C6
:100A800031F4D80113965C93139714964C9380918C
:100A90006309E82F082E000CFF0BE056FB4F92E590
:100AA0009083E1E0E80F0E2E000CFF0BE056FB4FA9
:100AB00092E49083E2E0E80F0E2E000CFF0BE0566C
:100AC000FB4F1082E3E0E80F0E2E000CFF0BE05608
:100AD000FB4F98EC9E9DD0019F9DB00D1124AE520E
:100AE000B84F13969C919083E4E0E80F0E2E000C13
:100AF000FF0BE056FB4F91E09083A0911204B09160
:100B00001304E5E0E80F0E2E000CFF0BE056FB4F40
:100B100013969C9113979083E6E0E80F0E2E000C3D
:100B2000FF0BE056FB4F1082E7E0E80F0E2E000CA3
:100B3000FF0BE056FB4F14969C91908329E0280F01
:100B4000E8E0E80F0E2E000CFF0BE056FB4F108282
:100B5000865F8093A20460E090E0022E000C330BCD
:100B6000462F50E04217530714F00C940312FA0179
:100B7000E056FB4F4081940F6F5FF2CF80911004DD
:100B8000909111040097B1F484E090E00E946D55BB
:100B90008C0188EC8E9DF0018F9DF00D1124EE529A
:100BA000F84F6581C8010E944D40109311040093D5
:100BB000100423C0FC01428150E028EC2E9D8001EE
:100BC0002F9D100D11240E52184FD80115962C91FF
:100BD000022E000C330B4217530779F00E94055682
:100BE00084E090E00E946D556C01F80165810E94DF
:100BF0004D40D0921104C092100410916309E12F6E
:100C0000012E000CFF0BE056FB4F82E58083E1E0F4
:100C1000E10F0E2E000CFF0BE056FB4F82E48083A9
:100C2000E2E0E10F0E2E000CFF0BE056FB4F1082AE
:100C3000E3E0E10F0E2E000CFF0BE056FB4F88ECBB
:100C40008E9DD0018F9DB00D1124AE52B84F1396DA
:100C50008C918083E4E0E10F0E2E000CFF0BE05638
:100C6000FB4F81E0808386E0810F80936309809150
:100C70001004909111040E94FB1EE5E0E10F0E2E7E
:100C8000000CFF0BE056FB4F90831091630981E04D
:100C9000810F8093630980911004909111040E9448
:100CA000FB1EE12F110FFF0BE056FB4F80832091BD
:100CB000630981E0820F8093A20460E090E0022E3D
:100CC000000C330B462F50E04217530714F00C94DE
:100CD0000312FA01E056FB4F4081940F6F5FF2CF91
:100CE00080910E0490910F040097B1F484E090E09D
:100CF0000E946D558C0188EC8E9DF0018F9DF00D4A
:100D00001124EE52F84F6581C8010E944D401093A6
:100D10000F0400930E0424C0DC0112964C9150E0A5
:100D200028EC2E9D80012F9D100D11240E52184F7E
:100D3000F8012581022E000C330B4217530781F076
:100D40000E94055684E090E00E946D556C01D80128
:100D500015966C910E944D40D0920F04C0920E04E3
:100D600010916309E12F012E000CFF0BE056FB4FA1
:100D700082E58083E1E0E10F0E2E000CFF0BE056D0
:100D8000FB4F82E48083E2E0E10F0E2E000CFF0BAC
:100D9000E056FB4F1082E3E0E10F0E2E000CFF0B3C
:100DA000E056FB4F88EC8E9DD0018F9DB00D112435
:100DB000AE52B84F13968C918083E4E0E10F0E2E73
:100DC000000CFF0BE056FB4F81E0808386E0810F33
:100DD0008093630980910E0490910F040E94164045
:100DE000E5E0E10F0E2E000CFF0BE056FB4F908369
:100DF0001091630981E0810F8093630980910E0453
:100E000090910F040E941640E12F110FFF0BE05646
:100E1000FB4F80832091630981E0820F8093A204BD
:100E200060E090E0022E000C330B462F50E042179A
:100E3000530714F00C940312FA01E056FB4F408163
:100E4000940F6F5FF2CF809108049091090400978E
:100E5000B1F485E090E00E946D558C0188EC8E9D88
:100E6000F0018F9DF00D1124EE52F84F6581C801FD
:100E70000E943E1D109309040093080423C0FC0146
:100E8000428150E028EC2E9D80012F9D100D1124F1
:100E90000E52184FD80115962C91022E000C330BD0
:100EA0004217530779F00E94055685E090E00E94B2
:100EB0006D556C01F80165810E943E1DD0920904B8
:100EC000C092080410916309E12F012E000CFF0B62
:100ED000E056FB4F82E58083E1E0E10F0E2E000C2F
:100EE000FF0BE056FB4F82E48083E2E0E10F0E2E21
:100EF000000CFF0BE056FB4F1082E3E0E10F0E2EDB
:100F0000000CFF0BE056FB4F88EC8E9DD0018F9DAF
:100F1000B00D1124AE52B84F13968C918083E4E04B
:100F2000E10F0E2E000CFF0BE056FB4F81E080839B
:100F300086E0810F80936309E0910804F091090431
:100F400083810E94A739E5E0E10F0E2E000CFF0B14
:100F5000E056FB4F21E0892B09F020E0208320910F
:100F6000630981E0820F8093A20460E090E0022E8A
:100F7000000C330B462F50E04217530714F00C942B
:100F80000312FA01E056FB4F4081940F6F5FF2CFDE
:100F900028EC2E9DC0012F9D900D11249C012E52F6
:100FA000384F6901D90115968C910E946C3A0D97C2
:100FB00011F00C941B12E0910204F091030430979D
:100FC000E1F4F60185810E946C3A0D9709F04BC05F
:100FD0008BE090E00E946D558C01D60115966C91C6
:100FE0000E946E42F80116828BEE90E09287818714
:100FF00081E090E0908787832FC0D60115968C9171
:10100000228130E0482F082E000C550B241735079D
:1010100051F10E946C3A0D9731F580910204909144
:1010200003040E9405568BE090E00E946D558C01F0
:10103000F60165810E946E42D80116961C921697A1
:101040008BEE90E01A969C938E93199781E090E036
:1010500018969C938E9317971093030400930204A1
:10106000C8010E94A72428EC2E9DC0012F9D900D41
:101070001124FC01EE52F84F5F01D680F1E0DF123F
:10108000A8C08E010F5E1F4F9E012F5F3F4FAE0124
:10109000435F5F4FBE01615F7F4F8091020490917B
:1010A00003040E94062580916309E82F082E000C96
:1010B000FF0BE056FB4F92E59083E1E0E80F0E2E28
:1010C000000CFF0BE056FB4F92E49083E2E0E80F48
:1010D0000E2E000CFF0BE056FB4F1082E3E0E80FF2
:1010E0000E2E000CFF0BE056FB4FD50113969C9182
:1010F0009083E4E0E80F0E2E000CFF0BE056FB4F50
:10110000D082E5E0E80F0E2E000CFF0BE056FB4FFF
:10111000D0829F852889E6E0E80F0E2E000CFF0B99
:10112000E056FB4F2083E7E0E80F0E2E000CFF0B8C
:10113000E056FB4F90839D852E85E8E0E80F0E2E4C
:10114000000CFF0BE056FB4F2083E9E0E80F0E2E6A
:10115000000CFF0BE056FB4F908399812A81EAE057
:10116000E80F0E2E000CFF0BE056FB4F2083EBE048
:10117000E80F0E2E000CFF0BE056FB4F9083998971
:101180002A89ECE0E80F0E2E000CFF0BE056FB4F17
:1011900020832EE0280FEDE0E80F0E2E000CFF0B51
:1011A000E056FB4F9083815F8093A20460E090E063
:1011B000022E000C330B462F50E04217530714F059
:1011C0000C940312FA01E056FB4F4081940F6F5FBD
:1011D000F2CFB2E0DB120C941B126090020470900C
:1011E000030446E0942EA12CB12CC12CD12C8E01ED
:1011F0000F5F1F4F9E01235F3F4FAE01415F5F4F67
:10120000BE016F5E7F4FC3010E94062589819A81CE
:10121000C816D90608F46C01A80EB91E9A9491104C
:10122000E6CFC5018C199D09AC0156954795569599
:1012300047955A83498380916309E82F082E000C53
:10124000FF0BE056FB4F22E52083E1E0E80F0E2E76
:10125000000CFF0BE056FB4F22E42083E2E0E80F96
:101260000E2E000CFF0BE056FB4F1082E3E0E80F60
:101270000E2E000CFF0BE056FB4F28EC2E9DD001EC
:101280002F9DB00D1124AE52B84F13962C91208390
:10129000E4E0E80F0E2E000CFF0BE056FB4F21E0C0
:1012A0002083E5E0E80F0E2E000CFF0BE056FB4F0D
:1012B00022E02083E6E0E80F0E2E000CFF0BE05644
:1012C000FB4F96959695908328E0280FE7E0E80F6E
:1012D0000E2E000CFF0BE056FB4F4083875F809380
:1012E000A20460E090E0022E000C330B462F50E089
:1012F0004217530714F00C940312FA01E056FB4F07
:101300004081940F6F5FF2CF28EC2E9DC0012F9D7E
:10131000900D1124FC01EE52F84F6F0185810E945F
:101320006C3A0E9711F00C941B12D60115968C9105
:1013300085300CF08EC1E0910004F09101043097EB
:1013400029F40E946C3A0E9779F513C0228130E09F
:10135000482F082E000C550B2417350729F10E9441
:101360006C3A0E9709F580910004909101040E9457
:10137000055684E490E00E946D558C01F60165816C
:101380000E946E4281E0D80115968C93F801EE5BC5
:10139000FF4F88E690E091838083109301040093CF
:1013A0000004C8010E94E84F80910004909101045C
:1013B0000E94CD1F10916309E12F012E000CFF0B3D
:1013C000E056FB4F82E58083E1E0E10F0E2E000C3A
:1013D000FF0BE056FB4F82E48083E2E0E10F0E2E2C
:1013E000000CFF0BE056FB4F1082E3E0E10F0E2EE6
:1013F000000CFF0BE056FB4F88EC8E9DD0018F9DBB
:10140000B00D1124AE52B84F13968C911397808370
:10141000E4E0E10F0E2E000CFF0BE056FB4F81E0E5
:10142000808306E0010F0093630916968C91E5E036
:10143000E10F0E2E000CFF0BE056FB4F8083813036
:1014400009F0EFC0A0900004B0900104F50182857E
:101450009385A485B585BC01CD01905820E030E08E
:1014600048EC52E40E9483540E941D532B013C011E
:10147000F50186859785A089B189BC01CD01905879
:1014800020E030E048EC52E40E9483540E941D5357
:101490006B017C0120E030E048EC52E4D50152962B
:1014A0006D917D918D919C9155970E9483540E94DE
:1014B0001D53AB01BC01802F000F990B07E0010FFA
:1014C000A9E0A10F185F9201141415041604170463
:1014D0005CF057FE04C022273327241935098056B3
:1014E0009B4FFC0110820BC057FE04C022273327FC
:1014F0002419350980569B4FB1E0FC01B083E02FE1
:10150000000FFF0BE056FB4F4901330FAA08BB0841
:101510009082A0936309E12F110FFF0BE056FB4F60
:101520002083E0916309C6011C141D041E041F04DE
:1015300074F0D7FE04C0882799278C199D09AE2F17
:101540000E2E000CBB0BA056BB4F1C920EC0D7FE3C
:1015500004C0882799278C199D09AE2F0E2E000CE8
:10156000BB0BA056BB4F21E02C93A1E0AE0F0A2E7F
:10157000000CBB0BA056BB4F8C01990F220B330BF9
:101580001C9393E09E0F90936309EE5F0E2E000C68
:10159000FF0BE056FB4F8083E091630977FD1CC091
:1015A000AE2F0E2E000CBB0BA056BB4F81E08C93D0
:1015B000A1E0AE0F0A2E000CBB0BA056BB4F5C93F4
:1015C00083E08E0F80936309EE5F0E2E000CFF0BFD
:1015D000E056FB4F408325C0CA0157FF04C088274F
:1015E0009927841B950BAE2F0E2E000CBB0BA0561B
:1015F000BB4F1C92A1E0AE0F0A2E000CBB0BA056F5
:10160000BB4FAC01990F660B770B5C9393E09E0F79
:1016100090936309EE5F0E2E000CFF0BE056FB4F1C
:1016200080832091630981E0820F8093A20460E0AF
:1016300090E0022E000C330B462F50E04217530768
:101640000CF0E1C6FA01E056FB4F4081940F6F5F4A
:10165000F3CFE091FE03F091FF03309729F40E944D
:101660006C3A0E9771F513C0228130E0482F082E96
:10167000000C550B2417350721F10E946C3A0E9788
:1016800001F58091FE039091FF030E94055684E4CA
:1016900090E00E946D558C01D60115966C910E94C8
:1016A0006E4281E0F8018583EE5BFF4F88E690E0B3
:1016B000918380831093FF030093FE03C8010E946F
:1016C000E84F8091FE039091FF030E94CD1F10917F
:1016D0006309E12F012E000CFF0BE056FB4F82E562
:1016E0008083E1E0E10F0E2E000CFF0BE056FB4F74
:1016F00082E48083E2E0E10F0E2E000CFF0BE05647
:10170000FB4F1082E3E0E10F0E2E000CFF0BE056C2
:10171000FB4F88EC8E9DD0018F9DB00D1124AE52F1
:10172000B84F13968C9113978083E4E0E10F0E2E4F
:10173000000CFF0BE056FB4F81E0808306E0010FB9
:101740000093630916968C91E5E0E10F0E2E000CD4
:10175000FF0BE056FB4F8083813009F0F1C0A09071
:10176000FE03B090FF03F50182859385A485B585BE
:10177000BC01CD01905820E030E048EC52E40E94DA
:1017800083540E941D532B013C01F50186859785EA
:10179000A089B189BC01CD01905820E030E048EC2F
:1017A00052E40E9483540E941D536B017C0120E08F
:1017B00030E048EC52E4D50152966D917D918D91C7
:1017C0009C9155970E9483540E941D53AB01BC010C
:1017D000802F000F990BF7E0F10F09E0010FE8E00F
:1017E000E10F920114141504160417045CF057FE5F
:1017F00004C0222733272419350980569B4FDC016A
:101800001C920BC057FE04C0222733272419350928
:1018100080569B4F11E0DC011C938F2FFF0F990B1B
:1018200080569B4F4901330FAA08BB08DC019C92EC
:10183000009363090E2E000CFF0BE056FB4F208334
:10184000E0916309C6011C141D041E041F0474F0FA
:10185000D7FE04C0882799278C199D09AE2F0E2E1C
:10186000000CBB0BA056BB4F1C920EC0D7FE04C091
:10187000882799278C199D09AE2F0E2E000CBB0BC3
:10188000A056BB4F21E02C93A1E0AE0F0A2E000C16
:10189000BB0BA056BB4F8C01990F220B330B1C9333
:1018A00093E09E0F90936309EE5F0E2E000CFF0BEA
:1018B000E056FB4F8083E091630977FD1CC0AE2F9B
:1018C0000E2E000CBB0BA056BB4F81E08C93A1E009
:1018D000AE0F0A2E000CBB0BA056BB4F5C9383E0EF
:1018E0008E0F80936309EE5F0E2E000CFF0BE05607
:1018F000FB4F408325C0CA0157FF04C088279927A2
:10190000841B950BAE2F0E2E000CBB0BA056BB4FAD
:101910001C92A1E0AE0F0A2E000CBB0BA056BB4FD1
:10192000AC01990F660B770B5C9393E09E0F90933D
:101930006309EE5F0E2E000CFF0BE056FB4F808319
:101940002091630981E0820F8093A20460E090E01F
:10195000022E000C330B462F50E0421753070CF0B9
:1019600052C5FA01E056FB4F4081940F6F5FF3CFF1
:101970008091BE029091BF02009779F488E090E0D8
:101980000E946D558C0188EC8E9DF0018F9DF00DAD
:101990001124EE52F84F65811FC0DC0112964C9164
:1019A00050E068EC6E9D90016F9D300D1124F9019F
:1019B000EE52F84F6F012581022E000C330B4217B7
:1019C0005307B1F00E94055688E090E00E946D55E3
:1019D0008C01D60115966C91C8010E946E4281E07F
:1019E000F8018583178216821093BF020093BE020E
:1019F00010916309E12F012E000CFF0BE056FB4F05
:101A000082E58083E1E0E10F0E2E000CFF0BE05633
:101A1000FB4F82E48083E2E0E10F0E2E000CFF0B0F
:101A2000E056FB4F1082E3E0E10F0E2E000CFF0B9F
:101A3000E056FB4F88EC8E9DD0018F9DB00D112498
:101A4000AE52B84F13968C918083E4E0E10F0E2ED6
:101A5000000CFF0BE056FB4F81E0808386E0810F96
:101A6000809363098091BE029091BF020E9415424B
:101A7000E5E0E10F0E2E000CFF0BE056FB4F9083CC
:101A80001091630981E0810F809363098091BE0208
:101A90009091BF020E941542E12F110FFF0BE056FB
:101AA000FB4F80832091630981E0820F8093A20421
:101AB00060E090E0022E000C330B462F50E04217FE
:101AC00053070CF0A0C4FA01E056FB4F4081940F7D
:101AD0006F5FF3CF8091F8039091F903009771F451
:101AE00089E090E00E946D556C0188EC8E9DF001BC
:101AF0008F9DF00D1124EE52F84F1CC0FC01428165
:101B000050E028EC2E9D80012F9D100D11240E52C7
:101B1000184FD80115962C91022E000C330B42174A
:101B20005307F9F00E94055689E090E00E946D5538
:101B30006C01F8011581612FC6010E94031DE12F80
:101B4000F0E0EE0FFF1FE557FD4F8081D6011496A0
:101B50008C931497818115968C93D092F903C0923F
:101B6000F80388EC8E9DF0018F9DF00D1124EE524C
:101B7000F84F85810091F8031091F903813019F431
:101B8000F801648105C0823031F4D80115966C915A
:101B9000C8010E94F03F6801B6E0CB0ED11CC6011F
:101BA0000E945D1D811104C060E070E0CB0178C02F
:101BB0006CECC6010E949A3764E4C6010E949A3711
:101BC0000E94BE442B013C0193E2A92EB12CF801E6
:101BD00026810780F085E02D9181822F80959823C2
:101BE0009183C5010197F1F78081822309F414C420
:101BF000C6010E945D1D6CECC6010E949A376EEB17
:101C0000C6010E949A379E012F5F3F4F29016E0146
:101C100036E0C30ED11C67E070E043E250E08FEC89
:101C2000A82EB12C88E090E0812C77247394D80101
:101C300016966C9016971796ED91FC911897F8945C
:101C40002181262921832281962C90942921228387
:101C5000DB011197F1F7218192229182DA0111972C
:101C6000F1F720817894F5013197F1F7622209F0BC
:101C70008728770C0197D9F6F20181922F01CE16B1
:101C8000DF0681F669817A81072E000C880B990B9B
:101C90000E94505320E030E040E85DE30E9483540E
:101CA00020E030E048EC52E40E9483544B015C0198
:101CB00010916309E12F012E000CFF0BE056FB4F42
:101CC00082E58083E1E0E10F0E2E000CFF0BE05671
:101CD000FB4F82E48083E2E0E10F0E2E000CFF0B4D
:101CE000E056FB4F1082E3E0E10F0E2E000CFF0BDD
:101CF000E056FB4F88EC8E9DD0018F9DB00D1124D6
:101D0000AE52B84F13968C91808305E0010FE4E04A
:101D1000E10F0E2E000CFF0BE056FB4FFF24F39457
:101D2000F08220E030E0A901C501B4010E9478549E
:101D30001A5F202F000F330B10936309F901E0564F
:101D4000FB4F87FD02C0F08201C010821091630931
:101D5000C501B4010E941D53AB0177FF04C04427A5
:101D60005527461B570BE12F012E000CFF0BE056A9
:101D7000FB4F508322E0210FE1E0E10F0E2E000C1B
:101D8000FF0BE056FB4F408383E0810F8093A2045A
:101D900060E090E0022E000C330B462F50E042171B
:101DA00053070CF030C3FA01E056FB4F4081940F0B
:101DB0006F5FF3CF8091F6039091F7030097B1F432
:101DC00085E090E00E946D558C0188EC8E9DF001BD
:101DD0008F9DF00D1124EE52F84F6581C8010E94CD
:101DE000591F1093F7030093F60324C0DC011296E9
:101DF0004C9150E028EC2E9D80012F9D100D112458
:101E00000E52184FF8012581022E000C330B421799
:101E1000530781F00E94055685E090E00E946D55C1
:101E20006C01D80115966C910E94591FD092F7034E
:101E3000C092F6030091F6031091F70360E0F801F9
:101E400083810E942045D80113968C910E945C45A5
:101E50002091BA023091BB028A5E91408C01020F40
:101E6000131FC090F603D090F70360E0F601848161
:101E70000E942045D60114968C910E945C452091C9
:101E8000BC023091BD028A5E9140280F391F9091AB
:101E90006309E92F092E000CFF0BE056FB4F82E58A
:101EA0008083E1E0E90F0E2E000CFF0BE056FB4FA4
:101EB00082E48083E2E0E90F0E2E000CFF0BE05677
:101EC000FB4F1082E3E0E90F0E2E000CFF0BE056F3
:101ED000FB4F88EC8E9DD0018F9DB00D1124AE522A
:101EE000B84F13968C91808345E0490FE4E0E90FE9
:101EF0000E2E000CFF0BE056FB4F81E080839A5FB3
:101F0000042E000C550B90936309FA01E056FB4F29
:101F100017FD82E0808340916309C80117FF03C069
:101F2000919581959109E42F042E000CFF0BE0564A
:101F3000FB4F9083E2E0E40FE0936309A1E0A40F7C
:101F40000A2E000CBB0BA056BB4F8C9337FD0AC06A
:101F50004D5F409363090E2E000CFF0BE056FB4FC4
:101F600081E080839091630937FF03C0319521950B
:101F70003109E92F092E000CFF0BE056FB4F30838F
:101F800032E0390FE1E0E90F0E2E000CFF0BE056B6
:101F9000FB4F208383E0890F8093A20460E090E0F0
:101FA000232F330F330B462F50E0421753070CF00B
:101FB0002AC2FA01E056FB4F4081940F6F5FF3CFC6
:101FC0008091F4039091F5030097B1F485E090E0DF
:101FD0000E946D558C0188EC8E9DF0018F9DF00D57
:101FE0001124EE52F84F6581C8010E94591F1093C9
:101FF000F5030093F40323C0FC01428150E028EC78
:102000002E9D80012F9D100D11240E52184FD801C6
:1020100015962C91022E000C330B4217530779F0C2
:102020000E94055685E090E00E946D556C01F80114
:1020300065810E94591FD092F503C092F40310915C
:102040006309E12F012E000CFF0BE056FB4F82E5E8
:102050008083E1E0E10F0E2E000CFF0BE056FB4FFA
:1020600082E48083E2E0E10F0E2E000CFF0BE056CD
:10207000FB4F1082E3E0E10F0E2E000CFF0BE05649
:10208000FB4F88EC8E9DD0018F9DB00D1124AE5278
:10209000B84F13968C918083E4E0E10F0E2E000C74
:1020A000FF0BE056FB4F81E0808386E0810F809339
:1020B0006309E090F403F090F50360E0D701149613
:1020C0008C910E942045F70184810E945C45E5E0E7
:1020D000E10F0E2E000CFF0BE056FB4F908310918A
:1020E000630981E0810F80936309E090F403F0902D
:1020F000F50360E0D70114968C910E942045F7010A
:1021000084810E945C45E12F110FFF0BE056FB4FCD
:1021100080832091630981E0820F8093A20460E0B4
:1021200090E0022E000C330B462F50E0421753076D
:102130000CF069C1FA01E056FB4F4081940F6F5FCC
:10214000F3CF8091F2039091F3030097B1F484E010
:1021500090E00E946D558C0188EC8E9DF0018F9D62
:10216000F00D1124EE52F84F6581C8010E944D40D8
:102170001093F3030093F20324C0DC0112964C91F8
:1021800050E028EC2E9D80012F9D100D11240E5241
:10219000184FF8012581022E000C330B421753070C
:1021A00081F00E94055684E090E00E946D556C011C
:1021B000D80115966C910E944D40D092F303C092C5
:1021C000F20310916309E12F012E000CFF0BE05682
:1021D000FB4F82E58083E1E0E10F0E2E000CFF0B48
:1021E000E056FB4F82E48083E2E0E10F0E2E000C0C
:1021F000FF0BE056FB4F1082E3E0E10F0E2E000CC8
:10220000FF0BE056FB4F88EC8E9DD0018F9DB00DEB
:102210001124AE52B84F13968C918083E4E0E10F05
:102220000E2E000CFF0BE056FB4F81E0808386E012
:10223000810F809363098091F2039091F3030E94D0
:10224000E81EE5E0E10F0E2E000CFF0BE056FB4F01
:1022500090831091630981E0810F809363098091DD
:10226000F2039091F3030E94E81EE12F110FFF0B80
:10227000E056FB4F80832091630981E0820F8093B9
:10228000A20460E090E0022E000C330B462F50E0D9
:10229000421753070CF0B7C0FA01E056FB4F4081DC
:1022A000940F6F5FF3CF8091F0039091F10300974B
:1022B000B1F484E090E00E946D558C0188EC8E9D15
:1022C000F0018F9DF00D1124EE52F84F6581C80189
:1022D0000E944D401093F1030093F00323C0FC01D2
:1022E000428150E028EC2E9D80012F9D100D11247D
:1022F0000E52184FD80115962C91022E000C330B5C
:102300004217530779F00E94055684E090E00E943E
:102310006D556C01F80165810E944D40D092F1032A
:10232000C092F00310916309E12F012E000CFF0B06
:10233000E056FB4F82E58083E1E0E10F0E2E000CBA
:10234000FF0BE056FB4F82E48083E2E0E10F0E2EAC
:10235000000CFF0BE056FB4F1082E3E0E10F0E2E66
:10236000000CFF0BE056FB4F88EC8E9DD0018F9D3B
:10237000B00D1124AE52B84F13968C918083E4E0D7
:10238000E10F0E2E000CFF0BE056FB4F81E0808327
:1023900086E0810F809363098091F0039091F103AF
:1023A0000E940C40E5E0E10F0E2E000CFF0BE05602
:1023B000FB4F90831091630981E0810F8093630943
:1023C0008091F0039091F1030E940C40E12F110FD6
:1023D000FF0BE056FB4F80832091630981E0820F61
:1023E0008093A20460E090E0022E000C330B462F95
:1023F00050E0421753073CF4FA01E056FB4F40818E
:10240000940F6F5FF4CF80936309F901E056FB4F9F
:1024100090830E94D9360FC00E94BE44DC01CB01DC
:1024200084199509A609B70981399140A105B1051B
:1024300008F4CDCBB9CB62960FB6F894DEBF0FBED1
:10244000CDBFDF91CF911F910F91FF90EF90DF9063
:10245000CF90BF90AF909F908F907F906F905F9044
:102460004F903F902F90089580E090E008958F92D4
:102470009F92AF92BF92CF92DF92EF92FF920F9313
:102480001F93CF93DF93CDB7DEB7C454D1090FB6F6
:10249000F894DEBF0FBECDBF10926309E82EF12C79
:1024A00028EC829FF0011124EE52F84FE4818E2F28
:1024B000EE0F990BAA0BBB0BFC013197EF31F10525
:1024C00010F00C94CC1C8827ED57FF4F8F4F0C94C5
:1024D000515582E58093A00482E48093A10488ECA6
:1024E0008E9DF0018F9DF00D1124EE52F84F8381E7
:1024F0008093A30481E08093A40482E08093A504E8
:102500008BE08093A60488E08093A204E0EAF4E0E4
:1025100027EA34E080E02E173F0719F09191890FE8
:10252000FACF98E0909363098093A70488E0D3C022
:1025300082E58093A00482E48093A1041092A20417
:1025400084E08093630988EC8E9DF0018F9DF00DEF
:102550001124EE52F84F83818093A304E5818E2FDE
:10256000EE0F990BAA0BBB0BFC013296EB30F10579
:1025700008F094C08827EE55FF4F8F4F0C945155AB
:1025800011E01093640985E0809363091092A4041C
:102590008EEF0E946C3A892BB1F443E650E060E084
:1025A00070E08FEF95E00E94EA2164E670E080E041
:1025B00090E00E94A04540E050E0BA018FEF95E026
:1025C0000E94EA210CC0E091630981E08E0F8093A4
:1025D00063090E2E000CFF0BE056FB4F1083109288
:1025E00064095CC011E01093620985E0809363097F
:1025F0001092A4048FEF0E946C3A892BB1F443E649
:1026000050E060E070E08DEB96E00E94EA2164E625
:1026100070E080E090E00E94A04540E050E0BA0108
:102620008DEB96E00E94EA210CC0E091630981E005
:102630008E0F809363090E2E000CFF0BE056FB4FAC
:102640001083109262092AC085E08093630981E0BB
:1026500021C085E08093630982E01CC085E08093FF
:10266000630983E017C085E08093630984E012C0AA
:1026700085E0809363090EC085E08093630986E05E
:1026800009C085E08093630987E004C085E08093FA
:10269000630988E00E946C3A8093A4042091630946
:1026A00081E0820F8093A20460E090E0022E000C93
:1026B000330B462F50E0421753073CF4FA01E05623
:1026C000FB4F4081940F6F5FF4CF80936309F90152
:1026D000E056FB4F90830E94D9360C94CC1C82E5C7
:1026E0008093A00482E48093A1041092A20488EC59
:1026F0008E9DF0018F9DF00D1124EE52F84F8381D5
:102700008093A30411E01093640985E0809363092A
:102710001092A4048EEF0E946C3A892BB1F443E628
:1027200050E060E070E08FEF95E00E94EA2164E6FF
:1027300070E080E090E00E94A04540E050E0BA01E7
:102740008FEF95E00E94EA210CC0E091630981E0DF
:102750008E0F809363090E2E000CFF0BE056FB4F8B
:1027600010831092640911E010936209E0916309EB
:1027700081E08E0F809363090E2E000CFF0BE05654
:10278000FB4F10828FEF0E946C3A892BB1F443E625
:1027900050E060E070E08DEB96E00E94EA2164E694
:1027A00070E080E090E00E94A04540E050E0BA0177
:1027B0008DEB96E00E94EA210CC0E091630981E074
:1027C0008E0F809363090E2E000CFF0BE056FB4F1B
:1027D0001083109262091091630981E0810F809348
:1027E000630981E00E946C3AE12F110FFF0BE05664
:1027F000FB4F80831091630981E0810F809363090F
:1028000082E00E946C3AE12F110FFF0BE056FB4F64
:1028100080831091630981E0810F8093630983E0D5
:102820000E946C3AE12F110FFF0BE056FB4F8083A3
:102830001091630981E0810F8093630984E00E9415
:102840006C3AE12F110FFF0BE056FB4F8083109184
:10285000630981E0810F8093630985E00E946C3AEF
:10286000E12F110FFF0BE056FB4F8083109163099E
:1028700081E0810F8093630986E00E946C3AE12F2A
:10288000110FFF0BE056FB4F80831091630981E02D
:10289000810F8093630987E00E946C3AE12F110F4A
:1028A000FF0BE056FB4F80831091630981E0810F9D
:1028B0008093630988E00E946C3AE12F110FFF0BAF
:1028C000E056FB4F80832091630981E0820F809363
:1028D000A20460E090E0022E000C330B462F50E083
:1028E000421753070CF0F1CEFA01E056FB4F40813E
:1028F000940F6F5FF3CF82E58093A00482E480930E
:10290000A1041092A20488EC8E9DF0018F9DF00D21
:102910001124EE52F84F83818093A30411E01093A9
:10292000640985E0809363091092A4048EEF0E94ED
:102930006C3A892BB1F443E650E060E070E08FEF31
:1029400095E00E94EA2164E670E080E090E00E9459
:10295000A04540E050E0BA018FEF95E00E94EA21E7
:102960000CC0E091630981E08E0F809363090E2E05
:10297000000CFF0BE056FB4F10831092640911E02E
:1029800010936209E091630981E08E0F80936309DF
:102990000E2E000CFF0BE056FB4F10828FEF0E94B3
:1029A0006C3A892BB1F443E650E060E070E08DEBC7
:1029B00096E00E94EA2164E670E080E090E00E94E8
:1029C000A04540E050E0BA018DEB96E00E94EA217C
:1029D0000CC0E091630981E08E0F809363090E2E95
:1029E000000CFF0BE056FB4F108310926209209100
:1029F000630981E0820F8093A20460E090E0022EE0
:102A0000000C330B462F50E0421753070CF05DCEFD
:102A1000FA01E056FB4F4081940F6F5FF3CF82E5E0
:102A20008093A00482E48093A1041092A20488EC15
:102A30008E9DF0018F9DF00D1124EE52F84F838191
:102A40008093A30485E08093630981E00E946C3A3F
:102A50008093A4041091630981E0810F809363093E
:102A600082E00E946C3AE12F110FFF0BE056FB4F02
:102A700080831091630981E0810F8093630983E073
:102A80000E946C3AE12F110FFF0BE056FB4F808341
:102A90001091630981E0810F8093630984E00E94B3
:102AA0006C3AE12F110FFF0BE056FB4F8083109122
:102AB000630981E0810F8093630985E00E946C3A8D
:102AC000E12F110FFF0BE056FB4F8083109163093C
:102AD00081E0810F8093630986E00E946C3AE12FC8
:102AE000110FFF0BE056FB4F80831091630981E0CB
:102AF000810F8093630987E00E946C3AE12F110FE8
:102B0000FF0BE056FB4F80831091630981E0810F3A
:102B10008093630988E00E946C3AE12F110FFF0B4C
:102B2000E056FB4F80832091630981E0820F809300
:102B3000A20460E090E0022E000C330B462F50E020
:102B4000421753070CF0C1CDFA01E056FB4F40810C
:102B5000940F6F5FF3CF88EC8E9DF0018F9DF00D89
:102B60001124EE52F84F85818C3F99F0882341F073
:102B70008B3F09F0BAC600852781468161E00DC010
:102B800000852781468160E08EE797E00E9434351A
:102B900007C000852781468160E08EE797E010D767
:102BA0008EE797E00E940135A0C688EC8E9DF0016B
:102BB0008F9DF00D1124EE52F84F85818F3F09F45F
:102BC0006DC0882321F08E3F09F08FC692C0268108
:102BD000822F022E000C990B40E050E060E070E480
:102BE0004093BD065093BE066093BF067093C00627
:102BF0008D393FEF930754F08436910514F083E646
:102C000090E0092E000CAA0BBB0B04C08DE99FEFCE
:102C1000AFEFBFEF8093CA069093CB06A093CC068C
:102C2000B093CD0688EC8E9DF0018F9DF00D1124A0
:102C3000EE52F84F3781832F032E000C990B40E0A2
:102C400050E060E070E44093FF055093000660930D
:102C50000106709302068D394FEF940754F08436C5
:102C6000910514F083E690E0092E000CAA0BBB0B33
:102C700004C08DE99FEFAFEFBFEF80930C069093F8
:102C80000D06A0930E06B0930F0631112EC621112A
:102C90002CC61092180410921C0427C68681082E98
:102CA000000C990B40E050E060E070E44093BD06FA
:102CB0005093BE066093BF067093C0068D39AFEF88
:102CC0009A0754F08436910514F083E690E0092EBB
:102CD000000CAA0BBB0B04C08DE99FEFAFEFBFEF59
:102CE0008093CA069093CB06A093CC06B093CD06F2
:102CF000FCC58681082E000C990B40E050E060E096
:102D000070E44093FF0550930006609301067093B2
:102D100002068D39BFEF9B0754F08436910514F0FD
:102D200083E690E0092E000CAA0BBB0B04C08DE9D2
:102D30009FEFAFEFBFEF80930C0690930D06A0932B
:102D40000E06B0930F06D1C588EC8E9D80018F9D35
:102D5000100D11240E52184FF80185810E946C3A13
:102D6000029709F0C2C5809116049091170400974C
:102D700049F480E190E00E946D556C01D8011596F0
:102D80006C9115C0FC01428150E0D80115962C9140
:102D9000022E000C330B4217530781F00E94055698
:102DA00080E190E00E946D556C01F8016581C601DB
:102DB0000E948A42D0921704C092160488EC8E9D1D
:102DC000F0018F9DF00D1124EE52F84FD084C78092
:102DD000B680009116041091170460E4C8010E94A7
:102DE000034261EAC8010E94A7416B2DC8010E94FD
:102DF000A7416C2DC8010E94A7416D2DC8010E94FA
:102E0000A7411AC188EC8E9DF0018F9DF00D112411
:102E1000EE52F84F8581893F09F067C58681882386
:102E200021F081E08093EA0360C51092EA035DC55A
:102E300088EC8E9DF0018F9DF00D1124EE52F84F1D
:102E40008681882329F0813029F480931D0402C0F3
:102E500010921D041092EC031092ED031092EE03F9
:102E60001092EF031092EB0340C588EC8E9DF001A9
:102E70008F9DF00D1124EE52F84F85818A3F09F0A5
:102E800034C5408550E0542F44278185482B60E0AD
:102E900070E0868190E0982F88272781822B0E94FE
:102EA000FF3961E080917D070E94204560E08091BC
:102EB0007D070E94D03919C588EC8E9D80018F9DB9
:102EC000100D11240E52184FD80115968C910E94A6
:102ED0006C3A039709F009C5809114049091150488
:102EE000009741F486E090E00E946D556C01F80176
:102EF000658116C0DC0112964C9150E0F8012581E5
:102F0000022E000C330B4217530781F00E94055626
:102F100086E090E00E946D556C01D80115966C9189
:102F2000C601A0D7D0921504C092140400911404D5
:102F30001091150488EC8E9DF0018F9DF00D1124E9
:102F4000E852F84F63E1808190E0982F8827218133
:102F5000822BAC014A7A5A7A5695479585759575B4
:102F6000880F991F482B592B9A012C7C3C7C369555
:102F700027953695279543735373440F551F440F78
:102F8000551F242B352BC901807F907F44E09695F7
:102F900087954A95E1F72F703F7054E0220F331F59
:102FA0005A95E1F7822B932B982789279827880F2A
:102FB000991F880F991F2FEF260FA1E0B0E0AC0FEB
:102FC000BD1FA60FB11D8C936250A1E0B0E0AC0F05
:102FD000BD1FA20FB11D9C9332966F3F09F0B3CF76
:102FE000C8010E94BC4167EEC8010E94A74160E091
:102FF000C8010E94A741FE0131965F016E01F5E113
:10300000CF0ED11CD5019D915D01892F8C7C682F3D
:10301000669566959373B4E09B9FC0011124862B3F
:10302000682F6A7A66958575880F682BC8010E949B
:10303000A741AC14BD0431F7C8010E94614055C4DA
:1030400088EC8E9DF0018F9DF00D1124EE52F84F0B
:10305000858180931804868180931C0487818093E6
:103060001B04082E000C990BAA0BBB0B8930910591
:1030700008F092C4FC018827E355FF4F8F4F0C9452
:1030800051558CE301C086E48093010280930002D5
:1030900081E014C086E405C081E403C08DE201C074
:1030A00087E3809301028093000276C48DE201C021
:1030B00087E3809301028093000282E080931B04E7
:1030C0006BC488EC8E9D80018F9D100D11240E52D3
:1030D000184FF80185810E946C3A059709F005C4E4
:1030E000D80115961C91113019F0183009F0FDC364
:1030F00080910A0490910B04009771F485E090E0B0
:103100000E946D556C01612F0E949E42D0920B046B
:10311000C0920A04C60121C0FC01228130E0612F67
:10312000110F770B26173707D1F00E94055685E05F
:1031300090E00E946D558C0188EC8E9DF0018F9D72
:10314000F00D1124EE52F84F6581C8010E949E4295
:1031500010930B0400930A04C8010E94003788EC06
:103160008E9DF0018F9DF00D1124EE52F84F868157
:103170008130E9F0823081F18111B7C31085678118
:1031800070E080E090E00E944E532CE53FE842EA78
:103190005FE30E94B5520E942253653B08F064EB46
:1031A00070E08CEF95E00E94773E612F16C067813A
:1031B00070E080E090E00E944E532CE53FE842EA48
:1031C0005FE30E94B5520E942253653B08F064EB16
:1031D00070E08CEF95E014C0678170E080E090E0D3
:1031E0000E944E532CE53FE842EA5FE30E94B5524D
:1031F0000E942253653B08F064EB70E089EF95E094
:103200000E94773E72C388EC8E9D80018F9D100DC9
:1032100011240E52184FD80115968C910E946C3AC9
:10322000099709F062C3F8012581213019F028308F
:1032300009F05BC380910A0490910B04DC011296A3
:103240004C9150E0022E000C330B4217530701F54E
:10325000E091FC05F0E09F01220F331FE20FF31F06
:10326000E859FA4F20812F7B2083E091F905F0E0A7
:103270009F01220F331FE20FF31FE859FA4F2081FD
:103280002F7B20830E94055610920B0410920A0493
:1032900080910C0490910D040097B1F486E090E0C9
:1032A0000E946D558C0188EC8E9DF0018F9DF00D74
:1032B0001124EE52F84F6581C8010E9496241093A4
:1032C0000D0400930C0423C0FC01428150E028EC63
:1032D0002E9D80012F9D100D11240E52184FD801E4
:1032E00015962C91022E000C330B4217530779F0E0
:1032F0000E94055686E090E00E946D556C01F80131
:1033000065810E949624D0920D04C0920C0488EC32
:103310008E9DF0018F9DF00D1124EE52F84F8681A5
:103320008130F1F0823061F18111DFC2278180911B
:103330000C0490910D0427FF06C0332721950CF44F
:10334000309540E001C041E061E00E94C44F88EC4C
:103350008E9DF0018F9DF00D1124EE52F84F10C09C
:10336000278180910C0490910D0427FF06C033271C
:1033700021950CF4309540E001C041E061E00FC0C0
:10338000208580910C0490910D0427FF06C03327FF
:1033900021950CF4309540E001C041E062E00E94CC
:1033A000C44FA3C288EC8E9D80018F9D100D112407
:1033B0000E52184FD80115968C910E946C3A0C97BA
:1033C00009F093C2E0910404F09105043097A9F448
:1033D000F80185810E946C3A0C9709F040C086E0A4
:1033E00090E00E946D556C01D80115966C910E9479
:1033F0006E4281E0F601858323C0D80115968C9139
:10340000228130E0482F082E000C550B2417350779
:1034100031F10E946C3A0C9711F58091040490915F
:1034200005040E94055686E090E00E946D556C01EF
:10343000F80165810E946E4281E0D60115968C9359
:10344000D0920504C092040467E7C6010E94294E89
:1034500064E780910404909105040E94294E88E459
:10346000EAE5F3E0DF011D928A95E9F7DF0188ECD8
:103470008E9D90018F9D300D11242E52384F80E08B
:1034800090E0FC01E25BFF4FE20FF31F4081042E4E
:10349000000C550B4D935D9301968834910589F787
:1034A00088E4EAECF2E0DF011D928A95E9F780E01A
:1034B00090E0D901A80FB91F16964C91042E000C6C
:1034C000550B4193519301968834910591F79E01D4
:1034D0002F5F3F4FAE014B5E5F4F6AEC72E0809111
:1034E0000404909105040E947D259E012B5D3F4FB1
:1034F000AE014B5C5F4F6AE573E0809104049091EC
:1035000005040E947D25C0900404D090050420E0AD
:103510004DEF67E7C6010E94E93400E110E09E012B
:103520002B5E3F4F40E067E7C6010E94B23420E0C7
:103530004DEF64E7C6010E94E9349E012B5C3F4FCA
:1035400040E064E7C6010E94B23421E04DEF67E736
:10355000C6010E94E9349E012F5F3F4F40E067E7BC
:10356000C6010E94B23421E04DEF64E7C6010E941B
:10357000E9349E012B5D3F4F40E064E7C6010E94A5
:10358000B234B3C188EC8E9D80018F9D100D112443
:103590000E52184FF80185810E946C3A0B9709F082
:1035A000A4C1C0900604D0900704C114D10449F40A
:1035B00083E290E00E946D556C01D80115966C91E4
:1035C0001DC0F60121A130E0D80115968C91082E7E
:1035D000000C990B28173907B9F080E292E091832B
:1035E0008083C6010E94613EC6010E94055683E2A7
:1035F00090E00E946D556C01F8016581C60194D27E
:10360000D0920704C0920604C0900604D09007042C
:1036100088EC8E9DF0018F9DF00D1124EE52F84F35
:103620001681D60192968C91929790E0212F012ECF
:10363000000C330B8217930759F192961C938AEA78
:103640008093C00282E08093C10281E08093C20235
:103650001093C30286E581278093C40220ECA22E3A
:1036600022E0B22E35EC832E32E0932EF5016191EB
:103670005F01C6010E94113B8A149B04B9F7D60171
:1036800092961C9362E370E080E090E00E94A04577
:1036900088EC8E9DF0018F9DF00D1124EE52F84FB5
:1036A0002085878100910604109107049AEA90937F
:1036B000C0028093C10291E09093C2022093C302A2
:1036C0009BEA8927822780958093C40280ECC82ECC
:1036D00082E0D82E95ECA92E92E0B92EF6016191E8
:1036E0006F01C8010E94113BAC14BD04B9F762E33D
:1036F00070E080E090E00E94A045809106049091E7
:1037000007040E94613E0091060410910704011510
:10371000110559F080E292E0D8018D939C93C80185
:103720000E94613EC8010E94055610920704109243
:10373000060488EC8E9D80018F9D100D11240E5281
:10374000184FD8011596EC91EE0FFF0BE557FD4F82
:1037500060E080810E942045D8011596EC91EE0F23
:10376000FF0BE557FD4F60E081810E942045BDC001
:1037700088EC8E9D80018F9D100D11240E52184FE4
:10378000F80185810E946C3A439709F0AEC0C09061
:10379000FC03D090FD03C114D10449F48CE090E007
:1037A0000E946D556C01D80115966C911AC0F601F6
:1037B000228130E0D80115968C91082E000C990BCF
:1037C00028173907A1F0828593850E940556C60106
:1037D0000E9405568CE090E00E946D556C01F80146
:1037E0006581C60120D1D092FD03C092FC0388EC14
:1037F0008E9DF0018F9DF00D1124EE52F84F018542
:103800002085478166818091FC039091FD030E9491
:1038100034358091FC039091FD030E940135BCC0BA
:1038200088EC8E9D80018F9D100D11240E52184F33
:10383000D80115968C910E946C3A429709F055C0B8
:103840008091FA039091FB03009771F0FC01428193
:1038500050E0D80115962C91022E000C330B421724
:103860005307A9F00E94055686E090E00E946D552E
:103870006C01F80165810E946E42D60115961C927A
:10388000D092FB03C092FA03C6010E94EB3688EC8B
:103890008E9D80018F9D100D11240E52184FF8013E
:1038A000468161E08091FA039091FB030E946C24B1
:1038B000D80117964C9162E08091FA039091FB0336
:1038C0000E946C24F801408563E08091FA03909196
:1038D000FB030E946C24D80119964C9164E08091FE
:1038E000FA039091FB03F8D757C080916309E82F42
:1038F000082E000CFF0BE056FB4F92E59083E1E0B1
:10390000E80F0E2E000CFF0BE056FB4F92E4908365
:10391000E2E0E80F0E2E000CFF0BE056FB4F10828A
:10392000E3E0E80F0E2E000CFF0BE056FB4F98EC87
:103930009E9DD0019F9DB00D1124AE52B84F13969D
:103940009C91908325E0280FE4E0E80F0E2E000CF8
:10395000FF0BE056FB4F91E090838A5F8093A204B7
:1039600060E090E0022E000C330B462F50E042172F
:1039700053073CF4FA01E056FB4F4081940F6F5F10
:10398000F4CF80936309F901E056FB4F9083909147
:10399000A30491110C946B13CC5BDF4F0FB6F8941A
:1039A000DEBF0FBECDBFDF91CF911F910F91FF9072
:1039B000EF90DF90CF90BF90AF909F908F90089541
:1039C0000F93FC01A62FB0E080859185A817B90759
:1039D000B8F4862F880F680F70E0A285B385A60F14
:1039E000B71F2C93A285B385A60FB71F11964C93D2
:1039F00082859385FC01E60FF71F028381E001C0F9
:103A000080E00F910895DC01E62FF0E0EE0FFF1F3C
:103A1000E557FD4F80818C93818111968C9311978E
:103A200012966C9308951F93CF93DF93EC01162F9A
:103A3000EADFE12FF0E0EE0FFF1FE557FD4F818138
:103A4000282F30E0F901E853FD4FE491EF83F901AD
:103A5000EE57FD4FE491F0E0EE0FFF1FE859FD4FE8
:103A6000259134913C832B8361E00E94204564E0E2
:103A7000CE01DF91CF911F910C947D361F93CF9390
:103A8000DF93EC01162FBFDFE12FF0E0EE0FFF1FF9
:103A9000E557FD4F81818B8380818C838B8160E032
:103AA0000E9420458C8161E00E9420458C8160E06D
:103AB000DF91CF911F910C94D039DC012C9111969C
:103AC000ED91FC911297F8948181922F9095892322
:103AD000818378948DE743E050E0815021F1DA0151
:103AE0001197F1F730813223C1F3F8948281892351
:103AF00082838181822B81837894ABE7B7E0119731
:103B0000F1F7F89481819823918383E191E0019703
:103B1000F1F78081282381E009F080E07894E3E6E2
:103B2000F6E03197F1F708950F931F93CF93DF934A
:103B3000EC01162F4F9667DFE12FF0E0EE0FFF1F2D
:103B4000E557FD4F118100811B821A8288EE93E0B8
:103B5000A0E0B0E08C839D83AE83BF8380E292E0DF
:103B6000998388831F8A1E8A198E188E1B8E1A8E3F
:103B70001D8E1C8E6E8D6E7F6D7F6E8F6695617053
:103B800081E06827812F0E94D03961E0812F0E9457
:103B90002045812F90E0FC01E853FD4FE491E88B34
:103BA000FC01EE57FD4FE491F0E0EE0FFF1FE859E6
:103BB000FD4F859194919A8B898B60E0802F0E94B4
:103BC00020458E8D81FD04C061E0802F0E94D03998
:103BD0000C87802F90E0FC01E853FD4FE491ED87C6
:103BE000FC01EE57FD4FE491F0E0EE0FFF1FE25BAA
:103BF000FD4F859194919F878E8780E292E0998313
:103C0000888383E08AA31B8E1A8E198E188E1F8AD2
:103C10001E8A85E690E09D8F8C8F96EF900F9430F2
:103C200048F08EEC800F843028F082EC800F8830D2
:103C300008F066C021E230E03F8B2E8B23E630E0B7
:103C4000398F288F22E430E03B8F2A8F943060F048
:103C50008EEC800F843040F082EC800F883008F0CA
:103C600070C0A8E6B0E06FC0A8E6B0E0E8E6F0E01B
:103C70002081943048F08EEC800F843028F00E5371
:103C8000083010F484E001C081E0822B8C938C8595
:103C900096EF980F943058F02EEC280F243038F01F
:103CA00022EC280F283030F020E030E005C02BE671
:103CB00030E002C02DE630E03C8B2B8B943010F4CA
:103CC0009AEF0BC0823381F0833381F0843381F02B
:103CD00092EC980F983070F492EC980F81E001C04C
:103CE000880F9A95EAF707C088E005C084E003C012
:103CF00082E001C081E08D8B8C8D9D8D0197F1F765
:103D00008A8D9B8D892B29F180918C0790918D074D
:103D1000C817D907F1F0009711F00E94613E8E8D0F
:103D20008E7F8E8F10928A0710928B07D0938D070B
:103D3000C0938C07EB89FC8990818D89892B8083C6
:103D400008C0A0E0B0E0883008F490CFE0E0F0E0F8
:103D50008FCFDF91CF911F910F9108950F931F93F4
:103D6000CF93DF93EC018B810E94A7398C018C816A
:103D70000E94A739AC0121E030E0012B11F420E0D2
:103D800030E0220F331F81E0452B09F480E0822BC5
:103D9000DF91CF911F910F9108951F93CF93DF93E0
:103DA000EC01162F30DEE12FF0E0EE0FFF1FE5579C
:103DB000FD4F80818B8381818C838B8160E00E94A9
:103DC00020458C8160E0DF91CF911F910C942045BC
:103DD000CF93DF93EC0160E08B810E9420458B81C3
:103DE0000E945C4520E034E0A901481B590BCA0140
:103DF000DF91CF910895AF92BF92CF92DF92EF9271
:103E0000FF920F931F93CF93DF935C010AE010E0C2
:103E1000C12CD12C7601C0E0D0E0C501D9DFC81794
:103E2000D90708F4EC01C80ED91EE11CF11C0150A1
:103E3000110999F7D701C6018C1B9D0BA109B10986
:103E400023E0B695A795979587952A95D1F7DF91A9
:103E5000CF911F910F91FF90EF90DF90CF90BF9087
:103E6000AF900895CF93DF93EC010E946E4281E002
:103E70008D83CE010E94BC4167EECE010E94A74116
:103E800060E8CE010E94A74164EACE010E94A741EA
:103E90006AE9CE010E94A74161E8CE010E94A741D4
:103EA00063E8CE010E94A741CE01DF91CF910C942F
:103EB00061400F931F93CF938C01C62FA4DDEC2F8D
:103EC000F0E0EE0FFF1FE557FD4F8081D8011396FC
:103ED0008C931397818114968C93CF911F910F919E
:103EE0000895CF92DF92EF92FF920F931F93CF939B
:103EF000DF93EC01E62E8A01F22E0E94BC416E0196
:103F000082E4C80ED11CF6016081660FCE010E94CA
:103F10005D41CE010E94D7406E2DCE010E945D41D1
:103F2000CE010E94D740CE010E946140F0E5FA9593
:103F3000F1F7CE010E94BC41F6016081660F61601D
:103F4000CE010E945D41CE010E94D740FA94EF2C31
:103F50006801EE2061F0CE010E941741F6018193C5
:103F60006F0160E0CE010E949D40EA94F2CF0F0DF8
:103F7000111DCE010E941741F801808361E0CE013E
:103F80000E949D40CE01DF91CF911F910F91FF9034
:103F9000EF90DF90CF900C9461402F923F924F9220
:103FA0005F926F927F928F929F92AF92BF92CF92C9
:103FB000DF92EF92FF92CF93DF93CDB7DEB72A97D0
:103FC0000FB6F894DEBF0FBECDBF9A878987AC01CC
:103FD0004C5C5F4F2EE06BE384DFE985FA8564A8D3
:103FE00075A876246724762473A262A2E6A8F7A8AF
:103FF000FE24EF24FE24F5A2E4A2A0ACB1ACBA24C6
:10400000AB24BA24B7A2A6A226803780408451846C
:1040100064AD75AD762767277627072E000C880BD1
:10402000990B0E945053E985FA8520A531A542A538
:1040300053A50E94EA51A20191010E94B552E9855F
:10404000FA85668B778B808F918F66AD77AD7627FB
:1040500067277627072E000C880B990B0E94505378
:10406000E985FA8524A535A546A557A50E94EA51FC
:10407000A20191010E94B552E985FA85628F738F82
:10408000848F958FE05CFF4F608171817627672771
:104090007627072E000C880B990B0E945053E98558
:1040A000FA8520A931A942A953A90E94EA51A20187
:1040B00091010E94B552E985FA85668F778F80A3BA
:1040C00091A3B701FF0C880B990B0E9450536B0111
:1040D0007C01B501BB0C880B990B0E9450539B01CE
:1040E000AC010E9483544B015C01A7019601C701FA
:1040F000B6010E948354A50194010E94EB510E94D5
:10410000EA5469837A838B839C83B301770C880B91
:10411000990B0E9450532B013C0129813A814B811C
:104120005C810E945E5220E030E044E353E40E9450
:1041300083542AED3FE049E450E40E94B55269837C
:104140007A838B839C83A3019201C301B2010E94F5
:104150008354A50194010E94EB510E94EA549B01F3
:10416000AC01C701B6010E945E5220E030E044E39A
:1041700053E40E9483542AED3FE049E450E40E9456
:10418000B5526D837E838F8398870E94BE44C09012
:104190003804D0903904E0903A04F0903B046C1954
:1041A0007D098E099F090E944E5320E030E04AE7C6
:1041B00054E40E94B5526B017C010E94BE4460939E
:1041C00038047093390480933A0490933B04E98552
:1041D000FA8586A197A1181619065CF5228D338DF4
:1041E000448D558DC701B6010E9483549B01AC01DB
:1041F000E985FA8562857385848595850E94EA51F3
:10420000E985FA8562877387848795872689378948
:10421000408D518DC701B6010E9483549B01AC01B2
:10422000E985FA8566857785808991890E94EB51B9
:104230002CC0E985FA85228D338D448D558DC701BB
:10424000B6010E9483549B01AC01E985FA85628521
:104250007385848595850E94EB51E985FA8562878F
:1042600073878487958726893789408D518DC7014B
:10427000B6010E9483549B01AC01E985FA856685ED
:104280007785808991890E94EA51E985FA85668758
:104290007787808B918BE985FA85268D378D40A1B4
:1042A00051A1C701B6010E948354E985FA8522898C
:1042B0003389448955890E94EB512B013C0120E050
:1042C00030E044EB53E40E94B5520E948B5320E04F
:1042D00030E044EB53E40E9483549B01AC01C301E2
:1042E000B2010E94EA51E985FA85628B738B848B57
:1042F000958B20E030E040E05FE3C701B6010E940B
:10430000EB519B01AC0160E070E080E09FE30E9414
:10431000B5526B017C019B01AC0160E070E080E86C
:104320009FE30E94EA514B015C01E985FA852285F1
:10433000338544855585C701B6010E9483542B01FE
:104340003C01A501940169817A818B819C810E9445
:1043500083549B01AC01C301B2010E94EB51E9857A
:10436000FA85628773878487958726853785408994
:104370005189C701B6010E9483546B017C01A501DC
:1043800094016D817E818F8198850E9483549B0169
:10439000AC01C701B6010E94EB51E985FA85668739
:1043A0007787808B918B2A960FB6F894DEBF0FBE6D
:1043B000CDBFDF91CF91FF90EF90DF90CF90BF9076
:1043C000AF909F908F907F906F905F904F903F90B5
:1043D0002F900895FC01453651056105710524F0C3
:1043E00044E650E060E070E09A01AB012C398FEFB9
:1043F00038074807580724F42CE93FEF4FEF5FEFE9
:1044000081899289A389B48982179307A407B50784
:1044100009F464C0218B328B438B548B2187328704
:1044200043875487EA54FF4F8081843059F5121630
:104430001306140615069CF4AFEFB3E00E94A951D1
:104440001092A9001092A80024E630E040E050E06D
:104450000E948D513093AB002093AA000895A1E0F3
:10446000BCEF0E94B55124E630E040E050E00E94ED
:104470008D513093A9002093A8001092AB001092A8
:10448000AA000895853051F5121613061406150674
:104490009CF4AFEFB3E00E94A95124E630E040E085
:1044A00050E00E948D513093890020938800109233
:1044B0008B0010928A000895A1E0BCEF0E94B551D4
:1044C000109289001092880024E630E040E050E02D
:1044D0000E948D5130938B0020938A0008954F9253
:1044E0005F926F927F928F929F92AF92BF92CF9284
:1044F000DF92EF92FF920F931F93CF93DF93CDB78D
:10450000DEB72A970FB6F894DEBF0FBECDBF9A87ED
:104510008987DC01D1966D917D918D919C91D49785
:1045200015968D909D90AD90BC9018979196CD90DA
:10453000DD90ED90FC9094970E9450532B013C012C
:10454000C501B4010E945053A70196010E948354F3
:104550009B01AC01C301B2010E94B55220E030E0E2
:1045600044EB53E40E9483540E941D53E985FA856D
:1045700065A376A387A390A70E94BE4409851A85E8
:104580000B551F4FD8014D905D906D907C90AB0105
:10459000BC01441955096609770945315105610582
:1045A000710508F477C0A985BA85D1962D913D9102
:1045B0004D915C91D49729833A834B835C839D967C
:1045C0002D913D914D915C91D0972D833E834F83EA
:1045D000588715968D909D90AD90BC9018979196A8
:1045E000CD90DD90ED90FC9094976EEB74E464199F
:1045F000750980E090E00E944E539B01AC0160E0A1
:1046000070E08AE794E40E94B5522B013C01698175
:104610007A818B819C812D813E814F815885621BDF
:10462000730B840B950B0E9450539B01AC01C3018B
:10463000B2010E94835420E030E040E752E40E943F
:1046400083542B013C01C501B4010E945053A701C2
:1046500096010E9483549B01AC01C301B2010E94E8
:10466000B552A985BA8555966D937D938D939C938C
:104670005897FD0181A992A9A3A9B4A985A796A7D6
:10468000A7A7B0AB0E94BE44D8016D937D938D93D4
:104690009C931397E985FA8560817181828193816A
:1046A00020E030E040E050E40E94B1528111FDC0B2
:1046B0000E94BE4409851A8507551F4FD801CD9029
:1046C000DD90ED90FC90DC01CB018C199D09AE09C9
:1046D000BF090697A105B10508F4C0C00E94BE44F9
:1046E000F8016083718382839383A985BA851996C3
:1046F0006D917D918D919C911C971D968D909D90B3
:10470000AD90BC9050970E94505326E636E646E6A0
:104710005FE30E9483546B017C01C501B4010E94D8
:1047200050532DEC3CEC4CEC5DE30E9483549B0118
:10473000AC01C701B6010E94EB5120E030E0A901B5
:104740000E94785487FD2BC0E985FA8561857285C2
:104750008385948585849684A784B0880E9450536D
:1047600026E636E646E65FE30E9483546B017C0151
:10477000C501B4010E9450532DEC3CEC4CEC5DE3C0
:104780000E9483549B01AC01C701B6010E94EB510A
:1047900020E030E040E05FE30E94EB512EC0A985AD
:1047A000BA8519966D917D918D919C911C971D965E
:1047B0008D909D90AD90BC9050970E94505326E6EE
:1047C00036E646E65FE30E9483546B017C01C50137
:1047D000B4010E9450532DEC3CEC4CEC5DE30E9484
:1047E00083549B01AC01C701B6010E94EB5120E04C
:1047F00030E040E05FE30E94EA510E941D53E985EA
:10480000FA85618772878387948781859285A385DE
:10481000B485181619061A061B062CF48185928594
:10482000A385B4850DC0E985FA8581859285A38528
:10483000B485B095A095909581959F4FAF4FBF4F90
:104840000B97A105B10554F4E985FA858585968510
:10485000A785B089892B8A2B8B2B01F1A985BA8575
:1048600019964D915D916D917C911C97CD012A9681
:104870000FB6F894DEBF0FBECDBFDF91CF911F9171
:104880000F91FF90EF90DF90CF90BF90AF909F90EF
:104890008F907F906F905F904F909CCDE985FA85C7
:1048A0001186128613861486D9CF2A960FB6F894ED
:1048B000DEBF0FBECDBFDF91CF911F910F91FF9053
:1048C000EF90DF90CF90BF90AF909F908F907F90B0
:1048D0006F905F904F9008950F931F93CF93DF9346
:1048E0008C01D62FC42F0E94BC416D2F660F6A59D0
:1048F000C8010E945D41C8010E94D740EC2FC7FF4C
:1049000007C0EF77F0E0E25DFD4F6081606804C0B2
:10491000F0E0E25DFD4F6081C8010E945D41C80189
:10492000DF91CF911F910F910C946140CF93DF9352
:10493000EC010E946E4261E084E10E94204561E04A
:1049400084E10E94D0391D82DF91CF9108950F93A9
:104950001F93CF93DF93EC010E94BC4162E5CE012F
:104960000E945D41CE010E94D74062E9CE010E94C3
:104970005D41CE010E94D740CE010E94BC4163E55B
:10498000CE010E945D41CE010E94D740CE010E941F
:104990001741182F61E0CE010E949D40CE010E9478
:1049A0006140143411F0103159F581E08E8319857E
:1049B0000A85412F61E0CE010E943D3819870A87A0
:1049C0001F8108858E81811102C0CE01C0DF412F79
:1049D0006FE0CE010E943D381F83088741E060E010
:1049E000CE010E943D3863E070E080E090E00E94DC
:1049F000A04543E060E0CE010E943D3881E001C067
:104A000080E0DF91CF911F910F910895AF92BF92F7
:104A1000CF92DF92EF92FF920F931F93CF93DF938A
:104A2000EC015B016A0179018E81811102C0CE0126
:104A30008EDF64E1CE010E940138F801918380830A
:104A400066E1CE010E940138F5019183808368E11F
:104A5000CE010E940138F601918380836AE1CE0184
:104A60000E940138F7019183808389859A85853D6D
:104A7000910519F150F4009729F1803C910591F5C9
:104A80006AE970E080E090E021C0863F910581F006
:104A90008F3F910541F08B3E910521F562E370E077
:104AA00080E090E013C063E070E080E090E00EC032
:104AB00068E170E080E090E009C065E670E080E0C9
:104AC00090E004C06CEB72E080E090E0DF91CF9169
:104AD0001F910F91FF90EF90DF90CF90BF90AF901C
:104AE0000C94A045DF91CF911F910F91FF90EF9013
:104AF000DF90CF90BF90AF9008952F923F924F924A
:104B00005F926F927F928F929F92AF92BF92CF925D
:104B1000DF92EF92FF920F931F93CF93DF93CDB766
:104B2000DEB7C451D1400FB6F894DEBF0FBECDBF83
:104B3000FB011A012901A280B3806481758146813D
:104B4000578120853185350101E06022772473018A
:104B500083E0EE0CFF1C8A95E1F74B0111E0812206
:104B6000992496E0880C991C9A95E1F737016828FA
:104B70007928C080D18087E0C822DD2443018C28B9
:104B80009D286A0191E0C922DD24DC2CCC24DD0CB7
:104B9000C828D9287901A1E0EA22FF24FE2CEE24BE
:104BA000F29470EFF722EC28FD28A1FABB27B0F9A8
:104BB000CD5EDE4FB883C351D140CC5EDE4F18824C
:104BC000C451D140CD5EDE4F08811981C351D1401F
:104BD000A4E0000F111FAA95E1F7E02AF12AA2FA3A
:104BE000AA27A0F9B0E015E0AA0FBB1F1A95E1F7BC
:104BF000EA2AFB2A61FB882780F990E09695982F96
:104C0000882797958795E82AF92A62FB662760F935
:104C1000162F00E0E02AF12A41FB882780F9880F4F
:104C2000880F8A83198289819A81E82AF92A42FBAE
:104C3000442740F9440F440F440F4C831B82AB813F
:104C4000BC81EA2AFB2A21FB882780F98295880FFC
:104C5000807E8E831D820D811E81E02AF12A22FB37
:104C6000222720F92295220F220F207C28871F82DD
:104C70008F819885E82AF92AD101EC921196FC924D
:104C8000E684F784FA82E98240895189228933894E
:104C900084899589870101701127780163E0EE0C02
:104CA000FF1C6A95E1F7DA01A170BB2776E0AA0F35
:104CB000BB1F7A95E1F787010A2B1B2BD901A17045
:104CC000BB27BA2FAA27BB0FA02BB12BBC01617049
:104CD0007727762F66277295707F6A2B7B2B098149
:104CE0000695017009871A86A985BA8514E0AA0F6E
:104CF000BB1F1A95E1F76A2B7B2B198112FB112739
:104D000010F91B871C86AB85BC8505E0AA0FBB1F6D
:104D10000A95E1F76A2B7B2B41FBAA27A0F9AD8707
:104D20001E86AD85BE85B695BA2FAA27B795A795DD
:104D3000A62BB72B42FB442740F9488B1F86EF84F4
:104D4000F888AE29BF2921FB992790F9990F990F6F
:104D50009A8B198A09891A89A02BB12B22FB222749
:104D600020F9220F220F220F2C8B1B8AEB88FC8844
:104D7000AE29BF2981FB992790F99295990F907ED2
:104D80009E8B1D8A0D891E89A02BB12B82FB882743
:104D900080F98295880F880F807C888F1F8A2F89E1
:104DA000388D2A2B3B2BD10112962C9312971396F8
:104DB0003C9384859585E28CF38CFA82E982648D3C
:104DC000758D468D578D22853385DC01A170BB27FB
:104DD000AA0FBB1F81FBFF24F0F8F98E1A8E098DF4
:104DE0001A8DA02BB12B847099278A2B9B2BA9811C
:104DF000BA81A170BB2703E0AA0FBB1F0A95E1F798
:104E00008A2B9B2BDB01A170BB2776E0AA0FBB1F6F
:104E10007A95E1F7A82BB92BCA0181709927982FB1
:104E20008827990F8A2B9B2B890101701127102F3E
:104E300000271295107F082B192B89818695817088
:104E40008B8F1C8E8B8D9C8D54E0880F991F5A95EB
:104E5000E1F7082B192BE2FA992790F99D8F1E8E06
:104E60008D8D9E8D75E0880F991F7A95E1F7082B3F
:104E7000192B61FBAA27A0F9AF8F18A28F8D98A1DB
:104E80009695982F882797958795802B912B62FB75
:104E9000662760F96AA319A2E9A0FAA08E299F29C2
:104EA00041FB332730F9330F330F3CA31BA20BA177
:104EB0001CA1802B912B42FB442740F9440F440F47
:104EC000440F4EA31DA2ADA1BEA18A2B9B2B21FB9B
:104ED000332730F93295330F307E38A71FA2EFA069
:104EE000F8A48E299F2922FB222720F92295220F40
:104EF000220F207C2AA719A609A51AA5802B912B81
:104F0000D10114968C93149715969C93608D718D96
:104F100006A117A140A551A522A533A58689978989
:104F20007B01B1E0EB22FF246701CC0CDD1CD80132
:104F3000A170BB2713E0AA0FBB1F1A95E1F77D01F3
:104F4000EC28FD28DA01A170BB2756E0AA0FBB1F91
:104F50005A95E1F7AE29BF29BA83A983D901A17077
:104F6000BB27BA2FAA27BB0FC980DA80CA2ADB2A3F
:104F70007C01B1E0EB22FF245701BA2CAA24B294A1
:104F8000A0EFBA22D601AA29BB2961FBEE24E0F8E2
:104F9000EBA61CA6EBA4FCA4EE0CFF1CEE0CFF1C65
:104FA000AE29BF2962FB662760F96795662767957A
:104FB0006EA71DA6EDA4FEA4AE29BF2901FBFF2408
:104FC000F0F8FFA618AAEFA4F8A894E0EE0CFF1CD6
:104FD0009A95E1F7AE29BF2902FBFF24F0F8F9AA60
:104FE0001AAA09A91AA935E0000F111F3A95E1F78D
:104FF000A02BB12B41FB112710F91BAB1CAAEBA86E
:10500000FCA8F694FE2CEE24F794E794AE29BF2971
:1050100042FB442740F94EAB1DAA0DA91EA9A02BA7
:10502000B12B21FB992790F9990F990F98AF1FAADF
:10503000EFA8F8ACAE29BF2922FB222720F9220FC6
:10504000220F220F2AAF19AE09AD1AADA02BB12B3A
:1050500081FB992790F99295990F907E9CAF1BAE9A
:10506000EBACFCACAE29BF2982FB882780F9829586
:10507000880F880F807C8EAF1DAE2DAD3EAD2A2BE4
:105080003B2BD10116962C93169717963C93E4A0D0
:10509000F5A0FA82E98244A955A920A131A182A1F3
:1050A00093A18701017011277801EE0CFF1CDA0132
:1050B000A170BB2776E0AA0FBB1F7A95E1F78701A5
:1050C0000A2B1B2BD901A170BB27BA2FAA27BB0F14
:1050D000A02BB12BBC0161707727762F66277295C4
:1050E000707F6A2B7B2B0981069501700FAF21968B
:1050F0001FAE21972196AEADBFAD2197AA0FBB1F62
:10510000AA0FBB1F6A2B7B2B198112FB112710F9E9
:1051100022961FAF229723961FAE23972396AEADFC
:10512000BFAD239703E0AA0FBB1F0A95E1F76A2BD7
:105130007B2B41FBAA27A0F92496AFAF2497259695
:105140001FAE25972596AEADBFAD2597B695BA2F64
:10515000AA27B795A795A62BB72B42FB442740F962
:1051600027964FAF279726961FAE26972796EEAC29
:10517000FFAC2797AE29BF2921FB992790F9990FFA
:10518000990F29969FAF299728961FAE28972996A1
:105190000EAD1FAD2997A02BB12B22FB222720F9A2
:1051A000220F220F220F2B962FAF2B972A961FAE7E
:1051B0002A972B96EEACFFAC2B97AE29BF2981FB2B
:1051C000992790F99295990F907E2D969FAF2D97E4
:1051D0002C961FAE2C972D960EAD1FAD2D97A02BA4
:1051E000B12B82FB882780F98295880F880F807CFD
:1051F0002F968FAF2F972E961FAE2E972F962EADF0
:105200003FAD2F972A2B3B2BD10118962C93189743
:1052100019963C93C2A8D3A8A0A8B1A8CF01805CDE
:105220009F4FDC014D915C9124A535A586A597A5DE
:10523000B60161707727A4E0660F771FAA95E1F7A2
:10524000C1FABB27B0F96096BFAF609761961FAEF9
:1052500061976196EEACFFAC6197E62AF72AB5013B
:1052600061707727660F771F6E297F298A01017089
:10527000112756E0000F111F5A95E1F7602B712B93
:10528000890101701127102F0027110F062B172BF2
:10529000BC0161707727762F66277295707F062B89
:1052A000172BC2FAEE24E0F86296EFAE629763968F
:1052B0001FAE639763966EAD7FAD639795E0660F03
:1052C000771F9A95E1F7062B172BA1FAFF24F0F828
:1052D0006496FFAE649765961FAE659765966EAD52
:1052E0007FAD6597660F771F660F771F062B172B0D
:1052F000A2FA662760F966966FAF669767961FAE4B
:10530000679767966EAD7FAD679753E0660F771F1F
:105310005A95E1F7062B172B41FB772770F9689612
:105320007FAF689769961FAE699769966EAD7FAD3E
:1053300069977695762F662777956795602B712B01
:1053400042FB442740F96B964FAF6B976A961FAEAE
:105350006A976B96AEADBFAD6B976A2B7B2B21FB2B
:10536000992790F9990F990F6D969FAF6D976C964D
:105370001FAE6C976D96EEACFFAC6D976E297F29D2
:1053800022FB222720F9220F220F220F6F962FAF28
:105390006F976E961FAE6E976F960EAD1FAD6F979F
:1053A000602B712B81FB992790F99295990F907E34
:1053B000A1969FAFA197A0961FAEA097A196AEAD64
:1053C000BFADA1976A2B7B2B82FB882780F9829542
:1053D000880F880F807CA3968FAFA397A2961FAEED
:1053E000A297A396EEACFFACA3976E297F29D101BB
:1053F0001A966C931A971B967C9304AD15AD66AD07
:1054000077AD46A957A920AD31AD82AD93AD7801F6
:10541000B1E0EB22FF246701CC0CDD1CDB01A170A5
:10542000BB2714E0AA0FBB1F1A95E1F77D01EC28FA
:10543000FD28DA01A170BB2756E0AA0FBB1F5A95C1
:10544000E1F7AE29BF29BA83A983D901A170BB278F
:10545000BA2FAA27BB0FC980DA80CA2ADB2A7C01AF
:10546000B1E0EB22FF245701BA2CAA24B294A0EF9A
:10547000BA22D601AA29BB2901FBEE24E0F8A496A2
:10548000EFAEA497A5961FAEA597A596EEACFFAC80
:10549000A597EE0CFF1CEE0CFF1CAE29BF2902FBEA
:1054A000FF24F0F8A696FFAEA697A7961FAEA79783
:1054B000A7960EAD1FADA79793E0000F111F9A9509
:1054C000E1F7A02BB12B61FB112710F9A8961FAFB4
:1054D000A897A9961FAEA997A996EEACFFACA9977D
:1054E00035E0EE0CFF1C3A95E1F7EA2AFB2A62FB55
:1054F000662760F9679566276795AB966FAFAB97A0
:10550000AA961FAEAA97AB960EAD1FADAB97E02A39
:10551000F12A41FB112710F9AC961FAFAC97AD965D
:105520001FAEAD97AD96AEADBFADAD97B695BA2FE8
:10553000AA27B795A795EA2AFB2A42FB442740F9F8
:10554000AF964FAFAF97AE961FAEAE97AF96AEADDC
:10555000BFADAF97EA2AFB2A21FB992790F9990F53
:10556000990FE1969FAFE197E0961FAEE097E19625
:105570000EAD1FADE197E02AF12A22FB222720F988
:10558000220F220F220FE3962FAFE397E2961FAE72
:10559000E297E396AEADBFADE397EA2AFB2A81FB23
:1055A000992790F99295990F907EE5969FAFE59790
:1055B000E4961FAEE497E5960EAD1FADE597E02AA1
:1055C000F12A82FB882780F98295880F880F807CDA
:1055D000E7968FAFE797E6961FAEE697E7968EAD14
:1055E0009FADE797E82AF92AD1011C96EC921C9707
:1055F0001D96FC92DF01A85BBF4FCD90DC90119708
:105600001296AD90BC90CF018C5B9F4FDC012D9129
:105610003C910296DC018D919C91860101701127CD
:105620007801EE0CFF1CB50161707727A4E0660FCE
:10563000771FAA95E1F78701062B172BB901617037
:105640007727762F6627770F602B712BAC0141707F
:105650005527542F44275295507F462B572BC1FA7C
:10566000BB27B0F9E896BFAFE897E9961FAEE99778
:10567000E9966EAD7FADE997660F771F660F771FCE
:10568000462B572BC2FAEE24E0F8EA96EFAEEA97E3
:10569000EB961FAEEB97EB966EAD7FADEB9793E07D
:1056A000660F771F9A95E1F7462B572BA1FAFF2437
:1056B000F0F8EC96FFAEEC97ED961FAEED97ED96F9
:1056C0006EAD7FADED9735E0660F771F3A95E1F748
:1056D000462B572BA2FA002700F9EE960FAFEE9754
:1056E000EF961FAEEF97EF966EAD7FADEF97A6E00A
:1056F000660F771FAA95E1F7642B752B21FB99277D
:1057000090F9990F990FC058DF4F9883C058D04037
:10571000C158DF4F1882CF57D040C158DF4FA88102
:10572000B981CF57D0406A2B7B2B22FB222720F94F
:10573000220F220F220FCE57DF4F2883C258D040AE
:10574000CF57DF4F1882C158D040CF57DF4FE88086
:10575000F980C158D0406E297F2981FB992790F9A3
:105760009295990F907ECC57DF4F9883C458D040C4
:10577000CD57DF4F1882C358D040CD57DF4F088137
:105780001981C358D040602B712B82FB882780F988
:105790008295880F880F807CCA57DF4F8883C65850
:1057A000D040CB57DF4F1882C558D040CB57DF4F82
:1057B00088819981C558D040682B792BD1011E96DC
:1057C0006C931E971F967C93DF01AC5ABF4F0D91CF
:1057D0001C9111971296ED90FC901197FA82E98234
:1057E00054976D917C9111971E964D915C911197F4
:1057F00012962D913C91D801A170BB277D01EE0C32
:10580000FF1CA981BA81A170BB2714E0AA0FBB1F9E
:105810001A95E1F7AE29BF29CB019695982F8827D5
:105820009795879599278A2B9B2B61FBFF24F0F88E
:10583000C957DF4FF882C758D040C857DF4F18828A
:10584000C858D040C957DF4FA881B981C758D04048
:105850008A2B9B2B7A01B1E0EB22FF24FE2CEE2455
:10586000FF0C8E299F297901A1E0EA22FF24FE2C5A
:10587000EE24F294B0EFFB228E299F2901FBBB2777
:10588000B0F9C757DF4FB883C958D040C657DF4F6C
:105890001882CA58D040C757DF4FE880F980C958EE
:1058A000D040EE0CFF1CEE0CFF1C8E299F2902FB42
:1058B000EE24E0F8C557DF4FE882CB58D040C457FC
:1058C000DF4F1882CC58D040C557DF4FE880F980B1
:1058D000CB58D04003E0EE0CFF1C0A95E1F78E296F
:1058E0009F29098106950170C357DF4F0883CD5862
:1058F000D040C257DF4F1882CE58D040C357DF4F39
:10590000E880F980CD58D04035E0EE0CFF1C3A9588
:10591000E1F78E299F29198112FB112710F9C15730
:10592000DF4F1883CF58D040C057DF4F1882C0597F
:10593000D040C157DF4FE880F980CF58D04056E0C3
:10594000EE0CFF1C5A95E1F7E82AF92A62FB66275C
:1059500060F9CE56DF4F6883C259D040CF56DF4F33
:105960001882C159D040CF56DF4F88819981C159E3
:10597000D040E82AF92A41FB882780F9880F880F50
:10598000CC56DF4F8883C459D040CD56DF4F1882A4
:10599000C359D040CD56DF4FA881B981C359D040FB
:1059A000EA2AFB2A42FB442740F9440F440F440FE4
:1059B000CA56DF4F4883C659D040CB56DF4F1882B6
:1059C000C559D040CB56DF4F08811981C559D04009
:1059D000E02AF12A21FB882780F98295880F807EB2
:1059E000C856DF4F8883C859D040C956DF4F188248
:1059F000C759D040C956DF4F88819981C759D040D7
:105A0000E82AF92A22FB222720F92295220F220FC9
:105A1000207CC656DF4F2883CA59D040C756DF4F77
:105A20001882C959D040C756DF4FA881B981C959DA
:105A3000D040EA2AFB2AD201EC921196FC92DF01B7
:105A4000A05ABF4F0D911C9111971296ED90FC90AA
:105A50001197FA82E98254974D915C9111971E96A5
:105A60002D913C91119712968D919C91780161E056
:105A7000E622FF246701CC0CDD1CA981BA81A1704C
:105A8000BB2774E0AA0FBB1F7A95E1F77601EA2ADB
:105A9000FB2ADA01B695BA2FAA27B795A795BB2797
:105AA000AE29BF29B90161707727762F6627770F56
:105AB0006A2B7B2BDC01A170BB27BA2FAA27B295DA
:105AC000B07F6A2B7B2B01FBAA27A0F9C556DF4FBD
:105AD000A883CB59D040C456DF4F1882CC59D04050
