:100000000C948C000C94B4000C94B4000C947D11EE
:100010000C947D110C947D110C94B4000C94B400DC
:100020000C94B4000C94B4000C94B4000C940D1215
:100030000C94B4000C94B4000C94B4000C94B40070
:100040000C944F1F0C94B4000C94B81E0C94B40084
:100050000C94B4000C94B4000C94B4000C94B40050
:100060000C94B4000C94B4008C229822A422EA22AE
:10007000B222C022CE22DC22FA22062325233223FA
:10008000412387237823872369235023084AD73BBA
:100090003BCE016E84BCBFFDC12F3D6C74319ABD57
:1000A00056833DDA3D00C77F11BED9E4BB4C3E917B
:1000B0006BAAAABE000000803F00000000002400E0
:1000C00027002A0000000000250028002B00000067
:1000D0000008000201000003040700000000000007
:1000E000000000000000230026002900040404048E
:1000F00004040404020202020202030303030303D2
:1001000001020408102040800102040810200102AE
:100110000408102012280C2811241FBECFEFD8E0AD
:10012000DEBFCDBF11E0A0E0B1E0E8EFFCE502C02A
:1001300005900D92A435B107D9F724E0A4E5B1E00C
:1001400001C01D92AD38B207E1F710E0CBE8D0E076
:1001500004C02197FE010E94042DCA38D107C9F7B7
:100160000E94E11F0C946F2E0C9400002F923F927E
:100170004F925F926F927F928F929F92AF92BF92B7
:10018000CF92DF92EF92FF920F931F93CF93DF9363
:10019000CDB7DEB7A6970FB6F894DEBF0FBECDBFC2
:1001A000E82EF12C28EC829FC0011124AC014C599F
:1001B0005E4F6A01DA0114968C918C3109F413C4F4
:1001C00008F067C0823109F493C108F045C084305B
:1001D00009F4E5C040F4813009F48BC0823009F4A1
:1001E000A8C00C949710803109F401C108F02EC109
:1001F000853011F00C94971082E58093AF0382E470
:100200008093B0031092B103DA0113968C9180931E
:10021000B20381E00E940E1B8093B30382E00E9430
:100220000E1B8093B40383E00E940E1B8093B503E2
:1002300084E00E940E1B8093B6031092B7031092C5
:10024000B8031092B9031092BA038DE08093B10302
:10025000EFEAF3E090E0C0C0863109F4A0C130F4C9
:10026000843109F4F4C108F4C7C1AEC1893109F47D
:10027000B3C28A3109F41DC3883111F00C94971070
:10028000FA018581809323038681809326030C9451
:100290004210853A09F4A5C690F4813A09F46FC575
:1002A00040F48E3109F4F7C48F3109F489C40C94F9
:1002B0009710833A09F405C608F4D3C537C6893ABE
:1002C00011F40C94980B40F4873A11F40C94CF0974
:1002D00008F4E5C70C942F0A8B3A11F40C94B60E6F
:1002E00010F40C94940A8C3A11F40C94170F0C949B
:1002F000971092E59093AF0392E49093B00398E047
:100300009093B103FA0193819093B20392E090939A
:10031000B3038093B40387E08093B503EFEAF3E07F
:1003200090E08191980F23E0E63BF207D1F70C941F
:10033000130F82E58093AF0382E48093B0031092A1
:10034000B103DA0113968C9113978093B20315963B
:100350008C91823059F024F4813089F481E009C015
:10036000833031F0843059F484E003C082E001C06E
:1003700083E00E940E1B8093B303E5E001C0E4E03C
:1003800081E08E0F8093B103AFEAB3E020E090E00C
:100390003D91930F2F5FE213FBCF0C94B10E82E5DA
:1003A0008093AF0382E48093B003FA01838180934A
:1003B000B20381E08093B3038093B40387E080931A
:1003C000B103EFEAF3E090E08191980F23E0E53B81
:1003D000F207D1F70C94900A8191980FB3E0EB3BB0
:1003E000FB07D1F79093BB038DE00C946A10FA01E0
:1003F00085818C3FE1F0882389F08B3F11F00C94CC
:10040000421088EC8E9DF0018F9DF00D1124EC5967
:10041000FE4F00852781468161E00EC0008527815F
:10042000468160E087E193E00E946A1509C0FA0105
:1004300000852781468160E087E193E00E944715AF
:1004400087E193E00E9414150C944210DA0115968E
:100450008C918F3F09F440C08823B1F08E3F11F09A
:100460000C94421088EC8E9DF0018F9DF00D1124AC
:10047000EC59FE4F6681062E000C770B880B990B0A
:100480000E9491180C94421088EC8E9D80018F9DE3
:10049000100D11240C591E4FF8012781022E000C5B
:1004A000330B440B550B6681062E000C770B880B23
:1004B000990B0E94C219D80116968C9181110C9447
:1004C0004210F801878181110C944210109223038D
:1004D000109226030C944210DA0116966C91062EA7
:1004E000000C770B880B990B0E9457190C94421043
:1004F000FA0185810E940E1B029711F00C944210A4
:100500008091150390911603009749F480E190E0E3
:100510000E941E2D8C01D60115966C9115C0FC0110
:10052000428150E0D60115962C91022E000C330B1F
:100530004217530781F00E94B62D80E190E00E949F
:100540001E2D8C01F6016581C8010E94C41510930F
:1005500016030093150388EC8E9DF0018F9DF00D1E
:100560001124EC59FE4FD084C780B680009115034A
:100570001091160360E4C8010E949A1461EAC80150
:100580000E943A146B2DC8010E943A146C2DC801C8
:100590000E943A146D2DC8010E943A1418C1DA0164
:1005A00015968C911597893F11F00C944210169670
:1005B0008C91882329F081E08093F5020C944210FD
:1005C0001092F5020C944210FA018681882331F0D2
:1005D000813031F481E08093270302C01092270319
:1005E0001092F7021092F8021092F9021092FA0299
:1005F0001092F6020C944210DA0115968C91159720
:100600008A3F11F00C94421018964C91189750E0C4
:10061000542F442719968C911997482B60E070E06D
:1006200016968C91169790E0982F882717962C9104
:10063000822B0E94221861E08091AD030E94E61790
:1006400060E08091AD030E94B7170C944210FA014C
:1006500085810E940E1B039711F00C94421080912B
:10066000130390911403009749F486E090E00E94F0
:100670001E2D8C01D60115966C911CC0FC01428187
:1006800050E0D60115962C91022E000C330B421728
:100690005307B9F00E94B62D86E090E00E941E2D0F
:1006A0008C0188EC8E9DF0018F9DF00D1124EC598A
:1006B000FE4F6581C8010E94AB1D10931403009387
:1006C0001303009113031091140388EC8E9DF00125
:1006D0008F9DF00D1124E659FE4F63E1808190E07B
:1006E000982F88272181822BAC014A7A5A7A569515
:1006F000479585759575880F991F482B592B9A0139
:100700002C7C3C7C369527953695279543735373FF
:10071000440F551F440F551F242B352BC901807FD3
:10072000907F44E0969587954A95E1F72F703F704A
:1007300054E0220F331F5A95E1F7822B932B982711
:1007400089279827880F991F880F991F2FEF260F49
:10075000A1E0B0E0AC0FBD1FA60FB11D8C9362509D
:10076000A1E0B0E0AC0FBD1FA20FB11D9C9332966B
:100770006F3F09F0B3CFC8010E94511467EEC80162
:100780000E943A1460E0C8010E943A14FE013196BA
:100790005F016E01F5E1CF0ED11CD5019D915D0188
:1007A000892F8C7C682F669566959373B4E09B9F28
:1007B000C0011124862B682F6A7A66958575880F8B
:1007C000682BC8010E943A14AC14BD0431F7C8016B
:1007D0000E94CB120C944210DA0115968C910E9463
:1007E0000E1B059711F00C94421080910903909113
:1007F0000A03009739F485E090E00E941E2D8C01D9
:10080000F6011BC0DC0112964C9150E0F6012581E7
:10081000022E000C330B42175307E9F00E94B62D4D
:1008200085E090E00E941E2D8C0188EC8E9DF001E9
:100830008F9DF00D1124EC59FE4F6581C8010E9477
:10084000D91510930A030093090383EA8093B0003B
:1008500087E08093B10088EC8E9DF0018F9DF00DB4
:100860001124EC59FE4F8681813089F08230C1F02D
:1008700081110C944210D0840091090310910A0355
:100880006781C8010E94E1256D2DC8010EC06781F6
:100890008091090390910A030E94E1250C94421073
:1008A00067818091090390910A030E94C2250C94EC
:1008B0004210DA0115968C910E940E1B099711F0D7
:1008C0000C94421080910B0390910C030097C1F49B
:1008D00086E090E00E941E2D8C0188EC8E9DF00138
:1008E0008F9DF00D1124EC59FE4F6581C8010E94C7
:1008F000A815F801158210930C0300930B0326C072
:10090000DC0112964C9150E028EC2E9D80012F9D29
:10091000100D11240C591E4FF8012581022E000CD8
:10092000330B4217530791F00E94B62D86E090E0FA
:100930000E941E2D6C01D80115966C910E94A8157D
:10094000F6011582D0920C03C0920B0388EC8E9DA9
:10095000F0018F9DF00D1124EC59FE4F86818130FE
:10096000F9F0823081F181110C944210278180913D
:100970000B0390910C0327FF06C0332721950CF43D
:10098000309541E001C040E061E00E943C2688ECE7
:100990008E9DF0018F9DF00D1124EC59FE4F13C078
:1009A000278180910B0390910C0327FF06C033270A
:1009B00021950CF4309541E001C040E061E00E94D7
:1009C0003C260C944210208580910B0390910C03DF
:1009D00027FD03C040E062E0F2CF332721950CF4FD
:1009E000309541E0F8CFDA0115968C910E940E1BEC
:1009F0000B9711F00C94421000910503109106031F
:100A00000115110541F483E290E00E941E2D8C0136
:100A1000F60165811FC0D80191962C91919730E025
:100A2000F6018581082E000C990B28173907C9F0AB
:100A30008FE091E08D939C93C8010E94F711C8014B
:100A40000E94B62D83E290E00E941E2D8C01D601FB
:100A500015966C91C8010E94371C109306030093F1
:100A60000503C0900503D090060388EC8E9DF0012D
:100A70008F9DF00D1124EC59FE4F1681F60182A1D5
:100A800090E0212F012E000C330B8217930749F1C0
:100A900012A38AEA8093540182E08093550181E099
:100AA000809356011093570186E581278093580162
:100AB00054E5A52E51E0B52E69E5862E61E0962E0F
:100AC000D5016D915D01C6010E94F3108A149B044B
:100AD000B9F7F60112A362E370E080E090E00E94B3
:100AE000D41A88EC8E9DF0018F9DF00D1124EC59E5
:100AF000FE4F2085878100910503109106039AEA35
:100B0000909354018093550191E090935601209366
:100B100057019BEA8927822780958093580144E5F5
:100B2000C42E41E0D42ED6016D916D01C8010E9402
:100B3000F310B9E5CB16B1E0DB06A9F762E370E08C
:100B400080E090E00E94D41A809105039091060302
:100B50000E94F7110091050310910603011511057C
:100B600059F08FE091E0F80191838083C8010E94E1
:100B7000F711C8010E94B62D1092060310920503CA
:100B800088EC8E9D80018F9D100D11240C591E4FF5
:100B9000D8011596EC91EE0FFF0BE35EFE4F60E07F
:100BA00080810E94E617D8011596EC91EE0FFF0B9D
:100BB000E35EFE4F60E081810E94E6170C944210D4
:100BC000FA0185810E940E1B439711F00C9442108C
:100BD000C090FF02D0900003C114D104B1F48CE0A6
:100BE00090E00E941E2D8C0188EC8E9DF0018F9D5F
:100BF000F00D1124EC59FE4F6581C8010E94F915D2
:100C0000109300030093FF022CC0D60112962C9182
:100C1000129730E088EC8E9D80018F9D100D11247D
:100C20000C591E4FF8018581082E000C990B2817CE
:100C30003907B9F01A968D919C911B970E94B62D99
:100C4000C6010E94B62D8CE090E00E941E2D6C0122
:100C5000D80115966C910E94F915D0920003C092AC
:100C6000FF0288EC8E9DF0018F9DF00D1124EC5950
:100C7000FE4F01852085478166818091FF0290911A
:100C800000030E946A158091FF02909100030E9468
:100C900014150C949710FA0185810E940E1B42973F
:100CA00011F00C9442108091FD029091FE02009789
:100CB00069F486E090E00E941E2D8C01D601159605
:100CC0006C910E94A815F801158222C0DC011296D1
:100CD0004C9150E0F6012581022E000C330B421797
:100CE0005307E9F00E94B62D86E090E00E941E2D89
:100CF0008C0188EC8E9DF0018F9DF00D1124EC5934
:100D0000FE4F6581C8010E94A815D80115961C9256
:100D10001093FE020093FD02C8010E94791788EC2F
:100D20008E9D80018F9D100D11240C591E4FF801CE
:100D3000468161E08091FD029091FE020E942E1E8C
:100D4000D80117964C9162E08091FD029091FE02CD
:100D50000E942E1EF801408563E08091FD02909173
:100D6000FE020E942E1ED80119964C9164E08091DB
:100D7000FD029091FE020E942E1E0C949710FA0123
:100D800085810E940E1B029711F00C9497108091A0
:100D9000150390911603009749F480E190E00E94BA
:100DA0001E2D8C01D60115966C9115C0FC01428157
:100DB00050E0D60115962C91022E000C330B4217F1
:100DC000530781F00E94B62D80E190E00E941E2D15
:100DD0008C01F6016581C8010E94C41510931603A9
:100DE0000093150380911503909116030E943F1BF9
:100DF00020E030E040E251E40E94262C0E94B22A1A
:100E00009B0142E54093AF0342E44093B00348ECBA
:100E10004E9DF0014F9DF00D1124EC59FE4F438182
:100E20004093B20341E04093B303AB0177FF02C0AC
:100E300041505F4F5093B403C90160E071E00E94DC
:100E4000F02C8093B50388E08093B103EFEAF3E0E0
:100E500026EB33E090E08191980F2E173F07D9F7EA
:100E6000E2C7DA0115968C911597893F11F00C9421
:100E7000971082E58093AF0382E48093B0031092D1
:100E8000B10313968C918093B20381E08093B303F6
:100E900088E00E948E17019719F41092B40303C0E2
:100EA00081E08093B40387E08093B103EFEAF3E03D
:100EB00025EB33E090E08191980F2E173F07D9F78B
:100EC0002FC3FA0185818D3F11F00C94971085E1B5
:100ED0000E94D21922E3AC01249FC001259F900DEE
:100EE000112422E52093AF0322E42093B003D6011E
:100EF00013962C912093B20321E02093B3036FEF5C
:100F000073E00E94F02C862F880F680F6093B40363
:100F100087E08093B103EFEAF3E025EB33E090E064
:100F20008191980F2E173F07D9F7FAC280912403B9
:100F300090912503009739F485E090E00E941E2DE2
:100F40008C01F6011BC0DC0112964C9150E0F601B9
:100F50002581022E000C330B42175307B9F00E9473
:100F6000B62D85E090E00E941E2D8C0188EC8E9DB0
:100F7000F0018F9DF00D1124EC59FE4F6581C801E1
:100F80000E94461D109325030093240382E580935D
:100F9000AF0382E48093B0031092B10388EC8E9D7E
:100FA000F0018F9DF00D1124EC59FE4F8381809349
:100FB000B20381E08093B3038091240390912503D1
:100FC0000E94271D8093B40387E08093B103EFEA6A
:100FD000F3E090E08191980F23E0E53BF207D1F731
:100FE0009FC2DA0115968C910E940E1B069711F094
:100FF0000C9497108091110390911203009771F057
:10100000FC01428150E0D60115962C91022E000C75
:10101000330B42175307D1F00E94B62D86E090E0C3
:101020000E941E2D8C01F601D5806D2D0E94981511
:10103000ED2DF0E0EE0FFF1FE35EFE4F8181D80142
:1010400015968C93109312030093110300911103D2
:1010500010911203FE0131961F0185E0DF011D9200
:101060008A95E9F761E0F80185810E94E61761E061
:10107000D80115968C910E94B7176AEF70E080E056
:1010800090E00E94D41A60E0F80185810E94B717B1
:1010900064E170E080E090E00E94D41A61E0D80141
:1010A00015968C910E94B7178BE990E00197F1F7A4
:1010B00060E0F80185810E94B71783E290E0019714
:1010C000F1F70E94431F4B015C0162E0D8011596C5
:1010D0008C910E94E617F80185810E948E17019776
:1010E00091F00E94431FDC01CB0188199909AA09DC
:1010F000BB090597A105B10570F3D80113961C92A1
:10110000139714961C920E94431F4B015C0162E0EE
:10111000F80185810E94E617D80115968C910E94EE
:101120008E17892B19F4C12CD12C53C00E94431F58
:10113000DC01CB0188199909AA09BB090597A1050A
:10114000B10550F3F0CF0E94431FDC01CB01881999
:101150009909AA09BB090597A105B10538F4D80179
:1011600015968C910E948E17892B69F30E941E1F81
:101170004B015C010E94431F2B013C0162E0F8011E
:1011800085810E94E617D80115968C910E948E17D2
:10119000019749F10E941E1FDC01CB0188199909B2
:1011A000AA09BB09F60123E0F595E7952A95E1F731
:1011B0008997A105B10520F1E20DF31D8081880F0B
:1011C00081608083BFEFCB1ADB0AE8E2CE16D10440
:1011D000E1F00E94431F4B015C0162E0F801858150
:1011E0000E94E617BCCF0E94431FDC01CB0184198B
:1011F0009509A609B7090597A105B10520F2CACF3F
:10120000E20DF31D8081880FDCCF59814B812D8148
:1012100030E06A81852F90E0860F911D840F911D2B
:101220006C81860F911D99272817390731F4D80151
:1012300013965C93139714964C9382E58093AF03B7
:1012400082E48093B00388EC8E9DF0018F9DF00DB9
:101250001124EC59FE4F83818093B20381E0809387
:10126000B303E0911103F091120383818093B403DF
:101270001092B50384818093B6031092B7038AE07D
:101280008093B103EFEAF3E090E08191980FB3E02F
:10129000E83BFB07D1F79093B8038AE01BC7809126
:1012A0000F03909110030097C9F484E090E00E942E
:1012B0001E2D8C01F601D5806D2D0E949815ED2D07
:1012C000F0E0EE0FFF1FE35EFE4F8181D801139621
:1012D0008C931093100300930F032DC0FC014281E7
:1012E00050E0D60115962C91022E000C330B4217BC
:1012F000530709F10E94B62D84E090E00E941E2D54
:101300006C0188EC8E9DF0018F9DF00D1124EC593D
:10131000FE4F1581612FC6010E949815E12FF0E064
:10132000EE0FFF1FE35EFE4F8181F6018383D092B3
:101330001003C0920F0382E58093AF0382E4809391
:10134000B0031092B10388EC8E9DF0018F9DF00DDB
:101350001124EC59FE4F83818093B20381E0809386
:10136000B30380910F03909110030E94621D90932C
:10137000B40380910F03909110030E94621D80932B
:10138000B50388E08093B103EFEAF3E026EB33E0A6
:1013900090E08191980F2E173F07D9F744C58091AF
:1013A0000D0390910E03009771F0DC0112964C91A1
:1013B00050E0F6012581022E000C330B4217530733
:1013C000D1F00E94B62D84E090E00E941E2D8C0189
:1013D000D6011596DC906D2D0E949815ED2DF0E04C
:1013E000EE0FFF1FE35EFE4F8181F80183831093B0
:1013F0000E0300930D0382E58093AF0382E4809394
:10140000B0031092B10388EC8E9DF0018F9DF00D1A
:101410001124EC59FE4F83818093B20381E08093C5
:10142000B30380910D0390910E030E948D1290934F
:10143000B40380910D0390910E030E948D1280934E
:10144000B50388E08093B103EFEAF3E026EB33E0E5
:1014500090E08191980F2E173F07D9F7E4C480914F
:10146000070390910803009749F485E090E00E94FB
:101470001E2D8C01D60115966C911CC0FC01428179
:1014800050E0D60115962C91022E000C330B42171A
:101490005307B9F00E94B62D85E090E00E941E2D02
:1014A0008C0188EC8E9DF0018F9DF00D1124EC597C
:1014B000FE4F6581C8010E94251610930803009312
:1014C000070382E58093AF0382E48093B003109218
:1014D000B10388EC8E9DF0018F9DF00D1124EC5925
:1014E000FE4F83818093B20381E08093B303E09148
:1014F0000703F091080383810E948E1721E0892B56
:1015000009F020E02093B40387E08093B103EFEA71
:10151000F3E090E08191980FB3E0E53BFB07D1F752
:101520009093B50387E0D6C5FA0185810E940E1B12
:101530000D9709F0FCC5E0910303F091040328EC3A
:101540002E9DC0012F9D900D11249C012C593E4FC2
:101550006901D90115968C91309729F40E940E1BD0
:101560000D97A1F513C0228130E0482F082E000C02
:10157000550B2417350751F10E940E1B0D9731F5BD
:1015800080910303909104030E94B62D8BE090E0BC
:101590000E941E2D8C01F60165810E94A815D801BC
:1015A00016961C9216978BEE90E01A969C938E934B
:1015B000199781E090E018969C938E93179710935B
:1015C000040300930303C8010E94581E28EC2E9DBB
:1015D000C0012F9D900D1124FC01EC59FE4F5F01BD
:1015E000D680F1E0DF1249C08E01075E1F4F9E01D9
:1015F0002F5F3F4FAE014B5E5F4FBE01695E7F4F75
:1016000080910303909104030E94942782E58093C4
:10161000AF0382E48093B003D50113968C9180933D
:10162000B203D092B303D092B4038F89988D909374
:10163000B5038093B6038D899E899093B7038093F9
:10164000B80389819A819093B9038093BA03898DF5
:101650009A8D9093BB038093BC038FE08093B1037A
:10166000EFEAF3E090E08191980FB3E0ED3BFB07E8
:10167000D1F79093BD038FE02DC5E2E0DE1257C590
:10168000609003037090040346E0942EC12CD12C8B
:10169000A12CB12C8E010F5F1F4F9E012B5E3F4F7F
:1016A000AE01495E5F4FBE01675E7F4FC3010E947E
:1016B000942789819A81A816B90608F45C01C80E9E
:1016C000D91E9A949110E6CFCA18DB08C6019695E8
:1016D0008795969587959A83898392E59093AF0332
:1016E00092E49093B00398EC9E9DF0019F9DF00DC5
:1016F0001124EC59FE4F93819093B20391E09093A3
:10170000B30392E09093B4039D2D96959695909394
:10171000B5038093B60389E08093B103EFEAF3E069
:1017200090E08191980F23E0E73BF207D1F7A6C440
:10173000DA0115968C910E940E1B0E9709F0F7C4E2
:10174000E0910103F09102033097A9F4F60185813D
:101750000E940E1B0E9709F03FC084E490E00E94A7
:101760001E2D8C01D60115966C910E94A81581E062
:10177000F801858324C0D60115968C91228130E032
:10178000482F082E000C550B2417350729F10E940D
:101790000E1B0E9709F580910103909102030E94A0
:1017A000B62D84E490E00E941E2D8C01F601658127
:1017B0000E94A81581E0D80115968C93F801EE5B84
:1017C000FF4F88E690E0918380831093020300939B
:1017D0000103C8010E9460260091010310910203D9
:1017E000A8014C5C5F4F2EE06BE3C8010E94D21D44
:1017F000F80124A835A832242324322433A222A2BB
:10180000A6A8B7A8BA24AB24BA24B5A2A4A2C0AC97
:10181000D1ACDC24CD24DC24D7A2C6A246805780DC
:101820006084718464AD75AD762767277627072EAF
:10183000000C880B990B0E94EA2AD80198962D91EA
:101840003D914D915C919B970E945C29A30192016F
:101850000E94402AF801668B778B808F918F66AD4E
:1018600077AD762767277627072E000C880B990B14
:101870000E94EA2AD8019C962D913D914D915C9150
:101880009F970E945C29A30192010E94402AF801BF
:10189000628F738F848F958FE05CFF4F60817181C1
:1018A000762767277627072E000C880B990B0E9456
:1018B000EA2AD801D0962D913D914D915C91D39714
:1018C0000E945C29A30192010E94402AF801668FC0
:1018D000778F80A391A3B501BB0C880B990B0E9455
:1018E000EA2A4B015C01B601DD0C880B990B0E94C2
:1018F000EA2A9B01AC010E94262C6B8F7C8F8D8F76
:101900009E8FA5019401C501B4010E94262C2B8D48
:101910003C8D4D8D5E8D0E945D290E94992C6F8FAC
:1019200078A389A39AA3B101330C880B990B0E9469
:10193000EA2A2B013C012F8D38A149A15AA10E940E
:10194000DC2920E030E044E353E40E94262C2AED19
:101950003FE049E450E40E94402A6F8F78A389A3B6
:101960009AA3A3019201C301B2010E94262C2B8DE0
:101970003C8D4D8D5E8D0E945D290E94992C9B01AE
:10198000AC01C501B4010E94DC2920E030E044E351
:1019900053E40E94262C2AED3FE049E450E40E94E3
:1019A000402A6B8F7C8F8D8F9E8F0E94431F80906B
:1019B0005E0190905F01A0906001B0906101681994
:1019C00079098A099B090E94E82A20E030E04AE769
:1019D00054E40E94402A4B015C010E94431F609323
:1019E0005E0170935F018093600190936101D80163
:1019F00096968D919C91979718161906ACF55A9664
:101A00002D913D914D915C915D97C501B4010E946E
:101A1000262C9B01AC01F801628573858485958530
:101A20000E945C29D8011A966D937D938D939C93A7
:101A30001D9756962D913D914D915C915997C501F9
:101A4000B4010E94262C9B01AC01F80166857785C4
:101A5000808991890E945D29D8011E966D937D939E
:101A60008D939C93519731C0F801228D338D448D15
:101A7000558DC501B4010E94262C9B01AC01D801F3
:101A80001A966D917D918D919C911D970E945D2973
:101A9000F801628773878487958726893789408D07
:101AA000518DC501B4010E94262C9B01AC01D801C7
:101AB0001E966D917D918D919C9151970E945C290C
:101AC000F80166877787808B918BD8015E962D9180
:101AD0003D914D915C919197C501B4010E94262CD6
:101AE000F80122893389448955890E945D292B0197
:101AF0003C0120E030E044EB53E40E94402A0E9485
:101B0000252B20E030E044EB53E40E94262C9B017F
:101B1000AC01C301B2010E945C29D80152966D93B9
:101B20007D938D939C93559720E030E040E05FE3F8
:101B3000C501B4010E945D299B01AC0160E070E029
:101B400080E09FE30E94402A4B015C019B01AC01B5
:101B500060E070E080E89FE30E945C292B013C017B
:101B6000F8012285338544855585C501B4010E945D
:101B7000262C6BA37CA38DA39EA3A30192016F8D42
:101B800078A189A19AA10E94262C9B01AC016BA18E
:101B90007CA18DA19EA10E945D29D8011A966D930A
:101BA0007D938D939C931D971E962D913D914D9104
:101BB0005C915197C501B4010E94262C4B015C0138
:101BC000A30192016B8D7C8D8D8D9E8D0E94262CA4
:101BD0009B01AC01C501B4010E945D29F801668733
:101BE0007787808B918B82E58093AF0382E480932B
:101BF000B0031092B10388EC8E9DF0018F9DF00D23
:101C00001124EC59FE4F83818093B20381E08093CD
:101C1000B30386818093B403813009F094C00091AE
:101C2000010310910203F80182859385A485B5858F
:101C3000BC01CD01905820E030E048EC52E40E9415
:101C4000262C0E94B22A4B015C01F80186859785FB
:101C5000A089B189BC01CD01905820E030E048EC6A
:101C600052E40E94262C0E94B22A6B017C0120E0E3
:101C700030E048EC52E4D80152966D917D918D91FF
:101C80009C9155970E94262C0E94B22A9401181408
:101C900019041A041B044CF097FE04C022273327B2
:101CA000281939091092B50309C097FE04C02227EC
:101CB00033272819390941E04093B5034901330F0F
:101CC000AA08BB089092B6032093B70396011C1490
:101CD0001D041E041F044CF0D7FE04C02227332726
:101CE0002C193D091092B80309C0D7FE04C0222761
:101CF00033272C193D0941E04093B8036901330FA4
:101D0000EE08FF08D092B9032093BA0397FD08C0EC
:101D100021E02093BB037093BC036093BD0311C00B
:101D20009B0177FF04C022273327261B370B109215
:101D3000BB03C901330FAA0BBB0B9093BC032093C9
:101D4000BD03EFE001C0E6E081E08E0F8093B103B8
:101D5000AFEAB3E020E090E03D91930F2F5FE213F4
:101D6000FBCFF0E0E155FC4F9083B4C1809162015C
:101D700090916301009771F0FC01428150E0D6011F
:101D800015962C91022E000C330B42175307C1F00D
:101D90000E94B62D88E090E00E941E2D8C01F60175
:101DA00065810E94A81581E0D80115968C9315973E
:101DB00017961C921E92169710936301009362016E
:101DC00082E58093AF0382E48093B0031092B10365
:101DD00088EC8E9DF0018F9DF00D1124EC59FE4F83
:101DE00083818093B20381E08093B3038091620189
:101DF000909163010E94AF149093B40380916201AB
:101E0000909163010E94AF148093B50388E08093A2
:101E1000B103EFEAF3E026EB33E090E08191980F15
:101E20002E173F07D9F79093B60388E053C18091EE
:101E3000FB029091FC02009771F489E090E00E940F
:101E40001E2D6C0188EC8E9DF0018F9DF00D1124EC
:101E5000EC59FE4F1CC0FC01428150E028EC2E9D45
:101E600080012F9D100D11240C591E4FD80115967D
:101E70002C91022E000C330B42175307F9F00E94ED
:101E8000B62D89E090E00E941E2D6C01F8011581AD
:101E9000612FC6010E949815E12FF0E0EE0FFF1FA1
:101EA000E35EFE4F8081D60114968C931497818156
:101EB00015968C93D092FC02C092FB0288EC8E9D0A
:101EC000F0018F9DF00D1124EC59FE4F858100919A
:101ED000FB021091FC02813019F4F801648105C005
:101EE000823031F4D80115966C91C8010E947112AC
:101EF0006801B6E0CB0ED11CC6010E9445168823AE
:101F000009F4FDC06CECC6010E94EA1664E4C60147
:101F10000E94EA160E94431F2B013C0193E2A92E66
:101F2000B12CF80126810780F085E02D9181822F68
:101F3000809598239183C5010197F1F780818223D1
:101F400009F4CBC0C6010E9445166CECC6010E9484
:101F5000EA166EEBC6010E94EA169E012F5F3F4F04
:101F600029016E0136E0C30ED11C67E070E043E248
:101F700050E08FECA82EB12C88E090E0812C7724E3
:101F80007394D80116966C9016971796ED91FC9164
:101F90001897F8942181262921832281962C9094E8
:101FA00029212283DB011197F1F72181922291826D
:101FB000DA011197F1F720817894F5013197F1F763
:101FC000622209F08728770C0197D9F6F2018192F5
:101FD0002F01EC15FD0581F669817A81072E000C31
:101FE000880B990B0E94EA2A20E030E040E85DE38C
:101FF0000E94262C20E030E048EC52E40E94262C7F
:102000004B015C0182E58093AF0382E48093B003CF
:1020100088EC8E9DF0018F9DF00D1124EC59FE4F40
:1020200083818093B20381E08093B30320E030E0AA
:10203000A901C501B4010E94192C87FD5DC081E092
:102040008093B403C501B4010E94B22A9B0177FFBB
:1020500004C022273327261B370B3093B503209368
:10206000B60389E08093B103EFEAF3E027EB33E0B6
:1020700090E08191980F2E173F07D9F79093B703FF
:1020800089E028C090E082E58093AF0382E48093EA
:10209000B00388EC8E9DF0018F9DF00D1124EC595A
:1020A000FE4F83818093B20325E081E08093B303E8
:1020B00086E08093B103EFEAF3E080E03191930F83
:1020C0008F5F8217D8F39093B4038091B203882373
:1020D00071F186E00E94D7162AC00E94431FDC01DE
:1020E000CB0184199509A609B70981399140A10549
:1020F000B10508F416CF03C01092B403A3CF82E554
:102100008093AF0382E48093B00388EC8E9DF0014E
:102110008F9DF00D1124EC59FE4F83818093B20303
:1021200081E08093B303812C912C540188CFA69633
:102130000FB6F894DEBF0FBECDBFDF91CF911F91D8
:102140000F91FF90EF90DF90CF90BF90AF909F9056
:102150008F907F906F905F904F903F902F90089559
:10216000CF92DF92EF92FF920F931F93CF93DF9363
:102170006C017A018B01C0E0D0E0CE15DF0581F063
:10218000D8016D918D01D601ED91FC910190F08106
:10219000E02DC6010995892B11F02196EECF7E0125
:1021A000C701DF91CF911F910F91FF90EF90DF90CA
:1021B000CF90089520913E0330913F0328173907AF
:1021C00071F490913D0380913C03981741F0E091A8
:1021D0003D03F0E0EB59FC4F808190E008958FEFD4
:1021E0009FEF089508951F93CF93DF93DC015C96D2
:1021F0008D919C915D97009739F421E030E0139622
:102200003C932E9312973BC05196ED91FC915297BF
:1022100050962C915097322F30951FB75E964C9167
:102220005E97742F727041FD6095F894408177231A
:1022300011F0422B01C043234083EC012197F1F7B9
:1022400048E0508160FF02C0522B01C053235083ED
:10225000EC012197F1F76695415099F7808177233A
:1022600019F08323808302C0282B20831FBF5C9634
:102270008D919C915D970197F1F781E090E0DF915E
:10228000CF911F91089520913E0330913F0328176D
:10229000390771F480913C0320913D0390E0805C0C
:1022A0009F4F821B910960E470E00E94F02C08951A
:1022B00080E090E0089520913E0330913F0328177D
:1022C0003907B9F490913D0380913C03981789F048
:1022D000E0913D03F0E0EB59FC4F808120913D03FC
:1022E00030E02F5F3F4F2F73332720933D0390E063
:1022F00008958FEF9FEF089508951F920F920FB6E4
:102300000F9211242F933F934F935F936F937F937B
:102310008F939F93AF93BF93EF93FF93E0913E030F
:10232000F0913F03309709F451C0968DA685B7858B
:10233000858591FF04C09C91892329F447C09C9115
:10234000892309F043C0A389B4899C91858980952C
:1023500089238C93868997890197F1F7608D718D18
:10236000A685B785558538E020E0CB010197F1F7C8
:10237000822F90E095958795282F4C91452309F061
:102380002068315091F7868D81FD209580913C0326
:1023900090E001968F73992730913D03381749F0EB
:1023A000A0913C03B0E0AB59BC4F2C9380933C030D
:1023B00003C0868D8160868F828D938D0197F1F7A2
:1023C000A389B4899C918589892B8C93FF91EF9186
:1023D000BF91AF919F918F917F916F915F914F913D
:1023E0003F912F910F900FBE0F901F901895E09185
:1023F0003E03F0913F03E817F90769F4A389B48914
:102400009C918589809589238C9310923F0310922B
:102410003E0381E0089580E008951F920F920FB669
:102420000F9211242F933F938F939F93EF93FF93DA
:102430008091640387FF05C010928500109284008C
:1024400005C08091640387FD8091640380916403DB
:102450008F5F809364038091640387FF20C0809125
:1024600064038C30E4F420918400309185008091E5
:102470006403082E000C990BFC01EE0FFF1F8E0F5A
:102480009F1FFC01E05CFC4F81819281820F931FB2
:1024900090938900809388008091640317C0809195
:1024A000840090918500049680349C4918F480E45F
:1024B0009CE905C0809184009091850004969093DA
:1024C0008900809388008FEF80936403FF91EF91E0
:1024D0009F918F913F912F910F900FBE0F901F9062
:1024E0001895DC0113966C93139770E0FB01E05094
:1024F000FF4FE4911696EC931697FB01E451FF4FC2
:10250000E491F0E0EE0FFF1FEE51FF4F85919491A3
:1025100018969C938E9317970895AF92BF92CF927F
:10252000DF92EF92FF920F931F93CF93DF935C01A3
:102530000AE010E0C12CD12C7601C0E0D0E060E0D0
:10254000F50183810E94E617F50183810E94D2196B
:10255000C817D90708F4EC01C80ED91EE11CF11CFC
:102560000150110961F7D701C6018C1B9D0BA10910
:10257000B10923E0B695A795979587952A95D1F748
:10258000DF91CF911F910F91FF90EF90DF90CF904F
:10259000BF90AF900895CF93DF93EC0161E08B8102
:1025A0000E94E6178D818130C1F487E592E00197A2
:1025B000F1F700C0000060E08C810E94B71760E076
:1025C0008B810E94B71761E08C810E94B71761E090
:1025D0008B81DF91CF910C94B71760E08C810E94C2
:1025E000B7179AE19A95F1F700C060E08B810E94DD
:1025F000B7178AE18A95F1F700C061E08C810E94EB
:10260000B7179AE19A95F1F700C061E08B810E94BB
:10261000B7178AE18A95F1F700C0DF91CF9108954D
:102620001F93CF93DF93EC01162F61E08B810E9403
:10263000E6178D818130B9F487E592E00197F1F7D3
:1026400000C00000111102C060E001C061E08B8198
:102650000E94B71761E08C810E94B71760E08C81FF
:102660000E94B71718C0111102C060E001C061E0FC
:102670008B810E94B71761E08C810E94B7179AE1A5
:102680009A95F1F700C060E08C810E94B7178AE14B
:102690008A95F1F700C061E08B81DF91CF911F91A6
:1026A0000C94B7171F93CF93DF93EC0160E08B81FD
:1026B0000E94E6178D818130D1F487E592E0019781
:1026C000F1F700C0000061E08B810E94B71761E064
:1026D0008C810E94B7178B810E948E1711E0892B85
:1026E00009F410E060E08C810E94B7171FC061E020
:1026F0008B810E94B7179AE19A95F1F700C061E0CB
:102700008C810E94B7178AE18A95F1F700C08B810E
:102710000E948E1711E0892B09F410E060E08C8193
:102720000E94B7179AE19A95F1F700C0812FDF91C7
:10273000CF911F9108950F931F93CF93DF938C0137
:1027400060E0FC0183810E94E617F80185818130F9
:10275000E1F487E592E00197F1F700C00000D8E0CE
:1027600061E0F80184810E94B717CC0FF8018381E2
:102770000E948E17892B09F0C16060E0F801848106
:102780000E94B717D15061F71DC0D8E061E0F80191
:1027900084810E94B717CC0FF80183810E948E17A5
:1027A000892B09F0C160FAE1FA95F1F700C060E009
:1027B000F80184810E94B717FAE1FA95F1F700C099
:1027C000D15021F78C2FDF91CF911F910F91089558
:1027D0000F931F93CF93DF93EC01162F61E08C8151
:1027E0000E94E61761E08B810E94E6178D8181309F
:1027F000D9F487E592E00197F1F700C0000008E006
:1028000017FF02C061E001C060E08B810E94B71732
:10281000110F61E08C810E94B71760E08C810E94EB
:10282000B717015069F720C008E017FF02C061E048
:1028300001C060E08B810E94B7179AE19A95F1F789
:1028400000C0110F61E08C810E94B7178AE18A9560
:10285000F1F700C060E08C810E94B7179AE19A9569
:10286000F1F700C0015009F780E0DF91CF911F918F
:102870000F910895CF93DF93EC018FE193E00197DF
:10288000F1F700C00000CE010E94E81387EC90E051
:102890000197F1F700C00000CE01DF91CF910C94B9
:1028A0005213CF93DF93EC0161E08C810E94E61715
:1028B00061E08B810E94E6178D818130C1F487E54C
:1028C00092E00197F1F700C0000061E08B810E9467
:1028D000B71761E08C810E94B71760E08B810E947E
:1028E000B71760E08C81DF91CF910C94B71761E04E
:1028F0008B810E94B7179AE19A95F1F700C061E0C9
:102900008C810E94B7178AE18A95F1F700C060E0D8
:102910008B810E94B7179AE19A95F1F700C060E0A9
:102920008C810E94B7178AE18A95F1F700C0DF9188
:10293000CF9108951F93CF93DF93EC01162F0E9440
:102940005114612F660FCE010E94E81380EA8A9528
:10295000F1F7CE01DF91CF911F910C945213CF92DA
:10296000DF92FF920F931F93CF93DF9300D000D09D
:10297000CDB7DEB78C0161E70E949A1460EBC80105
:102980000E943A14C8010E94CB126AE070E080E015
:1029900090E00E94D41AC8010E94511463EEC8014D
:1029A0000E94E813C8010E94521334E0F32ECE01B6
:1029B00001966C01FA94C801FF2051F00E949B130C
:1029C000F60181936F0160E0C8010E941013F2CFFD
:1029D0000E949B138C8361E0C8010E941013C80100
:1029E0000E94CB1289818A3A59F48C818B3B41F445
:1029F0008A8190E0982F88272B81820F911D02C039
:102A000081E090E0F80197838683F80186819781C1
:102A10000F900F900F900F90DF91CF911F910F911A
:102A2000FF90DF90CF900895FC01A381B48147818E
:102A300020853185C901880F991F280F391F72859C
:102A400063855FB7F8948C91942F90959823842B8D
:102A5000E72FF62F2E0F3F1FE217F30781F041916A
:102A600068E08C9300C047FF9C93440F00C000C0F7
:102A700000C008F49C9300C06A9599F7EDCF5FBF42
:102A8000789461E070E080E090E00C94D41A0F93A9
:102A9000FC01A62FB0E080859185A817B907B8F48E
:102AA000862F880F680F70E0A285B385A60FB71F29
:102AB0002C93A285B385A60FB71F11964C938285E0
:102AC0009385FC01E60FF71F028381E001C080E0DF
:102AD0000F910895CF92DF92EF92FF920F931F9381
:102AE000CF93DF937C01142FD22EC02E611111C021
:102AF000C0E0D0E0F70180859185C817D90770F450
:102B00000C2D2D2D412F6C2FC7010E9447152196AA
:102B1000F1CF61500E94471580E001C081E0DF9154
:102B2000CF911F910F91FF90EF90DF90CF9008957C
:102B3000DC01E62FF0E0EE0FFF1FE35EFE4F808129
:102B40008C93818111968C93119712966C930895B2
:102B50000F931F93CF938C01C62F0E949815EC2FD3
:102B6000F0E0EE0FFF1FE35EFE4F8181D801139668
:102B70008C931397808114968C93149715961C92BE
:102B8000CF911F910F9108950F931F93CF938C01B5
:102B9000C62F0E94A815EC2FF0E0EE0FFF1FE35E9A
:102BA000FE4F8081F80186831582CF911F910F918E
:102BB00008950F931F93CF938C01C62F0E949815F1
:102BC000EC2FF0E0EE0FFF1FE35EFE4F8081D80197
:102BD00013968C931397918114969C9361E00E94B5
:102BE000E61761E0F8018481CF911F910F910C9459
:102BF000E6171F93CF93DF93EC01162F0E949815D1
:102C0000E12FF0E0EE0FFF1FE35EFE4F8181282FE2
:102C100030E0F901E050FF4FE491EF83F901E45116
:102C2000FF4FE491F0E0EE0FFF1FEC53FF4F2591B3
:102C300034913C832B8361E00E94E61764E0CE016F
:102C4000DF91CF911F910C94A5161F93CF93DF9323
:102C5000EC01162F0E949815E12FF0E0EE0FFF1FF8
:102C6000E35EFE4F81818B8380818C838B8160E06A
:102C70000E94E6178C8161E00E94E6178C8160E07B
:102C8000DF91CF911F910C94B717DC012C91119615
:102C9000ED91FC911297F8948181922F9095892360
:102CA000818378948DE743E050E0815021F1DA018F
:102CB0001197F1F730813223C1F3F894828189238F
:102CC00082838181822B81837894ABE7B7E011976F
:102CD000F1F7F89481819823918383E191E0019742
:102CE000F1F78081282381E009F080E07894E3E621
:102CF000F6E03197F1F70895833081F028F48130C0
:102D000099F08230A1F008958730A9F08830B9F0A9
:102D10008430D1F4809180008F7D03C08091800049
:102D20008F7780938000089584B58F7702C084B533
:102D30008F7D84BD08958091B0008F7703C080910E
:102D4000B0008F7D8093B0000895CF93DF93EC01A6
:102D5000862F90E09987888723E0629FC001112425
:102D60000E941E2D9B878A87892B21F488E391E09E
:102D70000E943F2E80E090E028853985A901440F0C
:102D8000551F240F351F8217930738F4EA85FB85FA
:102D9000E80FF91F10820196EFCFDF91CF910895D0
:102DA0009091C00095FFFCCF8093C60008950F93CB
:102DB0001F93CF93C82F0FEA13E0CC2339F0F8010B
:102DC00081918F010E94D016C150F7CFCF911F91F2
:102DD0000F910895AF92BF92CF92DF92EF92FF9240
:102DE0000F931F93CF93DF93DC0128E030E091E055
:102DF000AA24AA94B12C0FE010E043E2E42EF12CB7
:102E000057EDC52ED12C8C911196ED91FC91129716
:102E1000482F4095562F592381F0F894528145232D
:102E200042834181482B4183E7012197F1F7428199
:102E3000842B82837894F6010FC0F8945281452345
:102E400042834181482B4183E5012197F1F742817B
:102E5000842B82837894F8013197F1F7990F2150F0
:102E6000310989F6F8941196ED91FC9112979181B0
:102E70008C918095892381831196ED91FC91129715
:102E800092818C918095892382837894DF91CF9170
:102E90001F910F91FF90EF90DF90CF90BF90AF9078
:102EA00008950F931F93CF93DF93EC01162F042FF8
:102EB0000E94511462E5CE010E94E813CE010E94E7
:102EC0005213612F6068CE010E94E813CE010E9468
:102ED0005213602FCE010E94E813CE010E945213BC
:102EE000CE010E94CB12802FDF91CF911F910F91C5
:102EF0000895CF93DF93EC010E94511468E4CE0152
:102F00000E94E813CE010E94521361E3CE010E9499
:102F1000E813CE01DF91CF910C94CB12CF93DF93C6
:102F2000282F30E0F901E253FF4F8491F901E0507E
:102F3000FF4FD491F901E451FF4FC491CC2391F09C
:102F400081110E947C16EC2FF0E0EE0FFF1FEE5176
:102F5000FF4FA591B491EC91ED2381E090E021F435
:102F600080E002C080E090E0DF91CF9108951F9350
:102F7000CF93DF93282F30E0F901E253FF4F849184
:102F8000F901E050FF4FD491F901E451FF4FC49192
:102F9000CC23C1F0162F81110E947C16EC2FF0E09B
:102FA000EE0FFF1FEC53FF4FA591B4919FB7F8941C
:102FB000111104C08C91D095D82302C0EC91DE2B66
:102FC000DC939FBFDF91CF911F910895CF93DF9343
:102FD00090E0FC01E050FF4F2491FC01E451FF4FD1
:102FE0008491882361F190E0880F991FFC01E654D9
:102FF000FF4FC591D491FC01EC53FF4FA591B491C3
:10300000611109C09FB7F894888120958223888335
:10301000EC912E230BC0623061F49FB7F894888145
:10302000322F309583238883EC912E2B2C939FBFD6
:1030300006C08FB7F894E8812E2B28838FBFDF91CD
:10304000CF9108954F925F926F927F928F929F924D
:10305000AF92BF92CF92DF92EF92FF920F931F93A6
:10306000CF93DF934A015B019C0140E050E060E4B4
:1030700072E48FE090E00E94F92869017A0161E032
:103080008091AD030E94E617A8EEB3E0A50194017C
:103090000E9418292B013C01E601D7FC2196D59509
:1030A000C7958E01000F111F000F111F0550110948
:1030B0000D2C000CEE08FF08812C912C5401841477
:1030C0009504A604B704E0F461E08091AD030E948A
:1030D000B717C230D10518F0C8010197F1F760E0C9
:1030E0008091AD030E94B717C230D10518F0C80116
:1030F0000197F1F7A8958C0C9D1CAE1CBF1CDFCF6F
:10310000DF91CF911F910F91FF90EF90DF90CF90C3
:10311000BF90AF909F908F907F906F905F904F90F7
:103120000895CF92DF92EF92FF926C392FEF7207E2
:103130008207920784F19B01AC0165367105810518
:10314000910524F024E630E040E050E057FD27C030
:10315000AFEFB0E00E94182924E630E040E050E0F4
:103160000E94F92869017A01232B242B252B11F4C5
:1031700060E001C061E089E00E94E61760E08AE05B
:103180000E94E617D0928900C092880010928B00AE
:1031900010928A0028C02CE93FEF4FEF5FEFA1E0CB
:1031A000BFEF0E94262924E630E040E050E00E9474
:1031B000F92869017A0161E08AE00E94E61760E07F
:1031C00089E00E94E617D0928B00C0928A0010928C
:1031D000890010928800C092A503D092A603E092C5
:1031E000A703F092A803FF90EF90DF90CF9008958F
:1031F0001F93CF93DF93182FEB0161E00E94E61736
:10320000209711F460E004C0CF3FD10539F461E0AC
:10321000812FDF91CF911F910C94B717E12FF0E030
:10322000E253FF4FE491E330F9F048F4E130B9F0B4
:10323000E230A1F584B5806284BDC8BD34C0E730FA
:10324000E9F0E83019F1E43049F5809180008062BE
:1032500080938000D0938B00C0938A0024C084B5F3
:10326000806884BDC7BD1FC0809180008068809346
:103270008000D0938900C093880015C08091B00071
:1032800080688093B000C093B3000DC08091B000FF
:1032900080628093B000C093B40005C0C038D105EF
:1032A0000CF0B5CFAFCFDF91CF911F910895CF92A2
:1032B000DF92EF92FF920F931F93CF93DF936C39BE
:1032C0002FEF7207820792070CF43FC09B01AC01FD
:1032D000653671058105910524F024E630E040E073
:1032E00050E057FD36C0AFEFB0E00E94182924E649
:1032F00030E040E050E00E94F92869017A01D22FC5
:10330000CD2D8701232B242B252B11F460E001C048
:1033100061E086E00E94E61760E085E00E94E61723
:10332000B60186E00E94F818D093A903C093AA03BF
:103330000093AB031093AC03DF91CF911F910F91DA
:10334000FF90EF90DF90CF9008952CE93FEF4FEF83
:103350005FEFA1E0BFEF0E94262924E630E040E0C5
:1033600050E00E94F928D22FC32F8A0161E085E046
:103370000E94E61760E086E00E94E6176D2F7C2F22
:1033800085E0D0CFCF92DF92EF92FF9269017A0170
:103390000E945719C701B601FF90EF90DF90CF90C0
:1033A0000C9491188E3008F08E5087708064809352
:1033B0007C0080917A00806480937A0080917A000A
:1033C00086FDFCCF809178002091790090E0922BCF
:1033D0000895BF92CF92DF92EF92FF920F931F93C7
:1033E000CF93DF933AE0B32EC12CD12C7601CFEFEF
:1033F000D3E000E010E084E10E94D2190817190719
:1034000008F48C018C179D0708F4EC01C80ED91E36
:10341000E11CF11CBA94B110EECFD701C601801B9C
:10342000910BA109B1098C1B9D0BA109B10923E0E6
:10343000B695A795979587952A95D1F7833D23E073
:103440009207A105B10508F073C0813C23E0920703
:10345000A105B10508F06FC0833A23E09207A105EA
:10346000B10508F06BC0853823E09207A105B105CE
:1034700008F067C08C3623E09207A105B10508F07B
:1034800063C0813223E09207A105B10508F05FC057
:103490008F3F22E09207A105B10508F05BC0813D96
:1034A00022E09207A105B10508F057C08F3922E04C
:1034B0009207A105B10508F053C08D3622E09207AE
:1034C000A105B10508F04FC08F3422E09207A10595
:1034D000B10508F04BC0833122E09207A105B10588
:1034E00008F047C08B3E21E09207A105B10508F026
:1034F00043C0873A21E09207A105B10508F042C018
:103500008C3721E09207A105B105C8F5823321E08F
:103510009207A105B105B0F58F3021E09207A10512
:10352000B10598F5803D9105A105B10558F130C070
:1035300083E190E02FC082E190E02CC08CE090E02D
:1035400029C08AE090E026C085E090E023C089E0B1
:1035500090E020C08BE090E01DC08DE090E01AC0AC
:1035600082E090E017C080E190E014C08EE090E02F
:1035700011C088E090E00EC083E090E00BC087E0CF
:1035800090E008C08FEF90E005C086E090E002C0B8
:1035900084E090E0DF91CF911F910F91FF90EF9029
:1035A000DF90CF90BF9008958F929F92AF92BF927D
:1035B000CF92DF92EF92FF926B017C010E941E1F5F
:1035C0004B015C01C114D104E104F104F1F00E944B
:1035D0001E1FDC01CB0188199909AA09BB09883E85
:1035E0009340A105B10570F321E0C21AD108E108AA
:1035F000F10888EE880E83E0981EA11CB11CC1144E
:10360000D104E104F10419F7DDCFFF90EF90DF90D2
:10361000CF90BF90AF909F908F9008958230D1F05F
:1036200018F4813089F00895833021F0843031F529
:1036300060E00BC060E087E00E94B71760E08DE0BB
:103640000E94B71761E00FC061E087E00E94B717E2
:1036500060E005C061E087E00E94B71761E08DE09F
:103660000E94B71760E08CE00E94B71769E170E034
:1036700080E090E00E94D41A0C94E91908954F92CA
:103680005F926F927F929F92AF92BF92CF92DF92A2
:10369000EF92FF920F931F93CF93DF93CDB7DEB7D7
:1036A00028970FB6F894DEBF0FBECDBF7C01CE01C8
:1036B00001966C015E0199E0A90EB11C99249394C6
:1036C0000E94431FF7014084518462847384DC01AB
:1036D000CB0184199509A609B7094197A105B10540
:1036E00008F09782F7018781882309F466C00E9459
:1036F000431FF7016087718782879387178260E491
:10370000C7010E949A1462EAC7010E943A1462EA51
:10371000C7010E943A1462EAC7010E943A1461E0AC
:10372000C7010E943A14C7010E94CB12F70186819B
:1037300060E00E94E617F701868190E0FC01E0500E
:10374000FF4F6491FC01E451FF4FE491F0E0EE0F74
:10375000FF1FEE51FF4F8591949100E712E620E0A4
:1037600030E040E00E949C1F6115710581059105C4
:1037700051F02B013C01FFEF4F1A5F0A6F0A7F0ADD
:103780002FE0722203C0412C512C32018CE24816EA
:1037900081E058066104710430F09CE2491A91E01E
:1037A000590A61087108C301B2010E94EA2AF701AF
:1037B000648775878687978709C0F7016485758553
:1037C000868597850E94B22A2B013C0114141504AA
:1037D0001604170434F084EA482E88E3582E612C2E
:1037E000712CC301B2010E94EA2A20E030E048E6D1
:1037F00052E40E94402AF601619371938193919360
:103800006F0162E170E080E090E00E94D41AAC1495
:10381000BD0409F055CFC980DA80EB80FC807D8043
:103820009E80AF80B884272D392DA501B601C70130
:103830000E94192C87FF03C0C72CD92C7501B60133
:10384000C70128960FB6F894DEBF0FBECDBFDF913B
:10385000CF911F910F91FF90EF90DF90CF90BF908D
:10386000AF909F907F906F905F904F9008950F93CF
:103870001F93CF93DF93EC01162F4F960E9498155C
:10388000E12FF0E0EE0FFF1FE35EFE4F118100819C
:103890001B821A8288EE93E0A0E0B0E08C839D83C7
:1038A000AE83BF838FE091E0998388831F8A1E8A4D
:1038B000198E188E1B8E1A8E1D8E1C8E6E8D6E7F2D
:1038C0006D7F6E8F6695617081E06827812F0E9401
:1038D000B71761E0812F0E94E617812F90E0FC016D
:1038E000E050FF4FE491E88BFC01E451FF4FE4917D
:1038F000F0E0EE0FFF1FEC53FF4F859194919A8BF0
:10390000898B60E0802F0E94E6178E8D81FD04C0B8
:1039100061E0802F0E94B7170C87802F90E0FC0198
:10392000E050FF4FE491ED87FC01E451FF4FE4913B
:10393000F0E0EE0FFF1FEE51FF4F859194919F87AE
:103940008E878FE091E09983888383E08AA31B8E22
:103950001A8E198E188E1F8A1E8A85E690E09D8F1A
:103960008C8F063108F04EC081E290E09F8B8E8BE9
:1039700083E690E0998F888F82E490E09B8F8A8F16
:1039800030916800083058F021E00E3008F420E053
:1039900091E0892F01C0880F2A95EAF701C084E0E1
:1039A000832B809368009C85983038F09E3040F0DF
:1039B000963148F020E030E008C02DE630E005C048
:1039C0002BE630E002C02CE630E03C8B2B8B9830AD
:1039D00030F481E001C0880F9A95EAF70EC0292FD4
:1039E00030E09E3018F42850310902C02E503109C1
:1039F00081E001C0880F2A95EAF78D8B8C8D9D8D13
:103A00000197F1F78A8D9B8D892BE1F080913E0320
:103A100090913F03C817D907A9F0009711F00E94B1
:103A2000F7118E8D8E7F8E8F10923C0310923D0386
:103A3000D0933F03C0933E03EB89FC8990818D892D
:103A4000892B8083DF91CF911F910F9108950F9360
:103A50001F93CF93DF93EC018B810E948E178C0113
:103A60008C810E948E17AC0121E030E0012B11F413
:103A700020E030E0220F331F81E0452B09F480E085
:103A8000822BDF91CF911F910F9108951F93CF93B8
:103A9000DF93EC01162F0E949815E12FF0E0EE0F56
:103AA000FF1FE35EFE4F80818B8381818C838B813E
:103AB00060E00E94E6178C8160E0DF91CF911F915A
:103AC0000C94E6178F929F92AF92BF92CF92DF92A3
:103AD000EF92FF920F931F93CF93DF937C010AE045
:103AE00010E0812C912C5401C0E0D0E0C12C34E0D6
:103AF000D32E60E0F70183810E94E617F7018381EE
:103B00000E94D2199601281B390BC901C217D3078D
:103B100008F4E901880E991EA11CB11C015011097D
:103B200041F7D501C4018C1B9D0BA109B10923E00C
:103B3000B695A795979587952A95D1F7DF91CF915F
:103B40001F910F91FF90EF90DF90CF90BF90AF90BB
:103B50009F908F900895CF93DF93EC010E94A8155A
:103B600081E08D83CE010E94511467EECE010E9448
:103B70003A1460E8CE010E943A1464EACE010E9431
:103B80003A146AE9CE010E943A1461E8CE010E941B
:103B90003A1463E8CE010E943A14CE01DF91CF912E
:103BA0000C94CB12CF92DF92EF92FF920F931F9360
:103BB000CF93DF93EC01E62E8A01F22E0E9451147E
:103BC0006E0182E4C80ED11CF6016081660FCE0141
:103BD0000E94E813CE010E9452136E2DCE010E9466
:103BE000E813CE010E945213CE010E94CB12F0E5E1
:103BF000FA95F1F7CE010E945114F6016081660F2B
:103C00006160CE010E94E813CE010E945213FA9423
:103C1000EF2C6801EE2061F0CE010E949B13F601AB
:103C200081936F0160E0CE010E941013EA94F2CFFD
:103C30000F0D111DCE010E949B13F801808361E0DE
:103C4000CE010E941013CE01DF91CF911F910F91F1
:103C5000FF90EF90DF90CF900C94CB120F931F93B7
:103C6000CF93DF938C01D62FC42F0E9451146D2F58
:103C7000660F6A59C8010E94E813C8010E945213D6
:103C8000EC2FC7FF07C0EF77F0E0E95DFE4F6081E2
:103C9000606804C0F0E0E95DFE4F6081C8010E94E9
:103CA000E813C801DF91CF911F910F910C94CB12B3
:103CB0000F931F93CF93DF93EC010E94511462E5A1
:103CC000CE010E94E813CE010E94521362E9CE0198
:103CD0000E94E813CE010E945213CE010E9451149B
:103CE00063E5CE010E94E813CE010E945213CE017B
:103CF0000E949B13182F61E0CE010E941013CE0189
:103D00000E94CB12143411F0103161F581E08E83E2
:103D100019850A85412F61E0CE010E94511719874C
:103D20000A871F8108858E81811103C0CE010E9400
:103D3000581E412F6FE0CE010E9451171F83088744
:103D400041E060E0CE010E94511763E070E080E046
:103D500090E00E94D41A43E060E0CE010E94511727
:103D600081E001C080E0DF91CF911F910F91089514
:103D70001F920F920FB60F9211242F933F938F93A0
:103D80009F93AF93BF93EF93FF939091C600809161
:103D9000790481110EC0923509F043C0E091780496
:103DA00038ECE39FF0011124EC59FE4F908381E041
:103DB0000EC0813091F4923469F4E091780488EC7B
:103DC000E89FF0011124EC59FE4F918382E080932B
:103DD000790427C01092790424C02091780438EC2B
:103DE000239FF0011124EC59FE4FDF01A80FB11DF4
:103DF0009C938F5F809379049281891710F4883C9B
:103E000080F0109279048091F402222321F0109224
:103E10007804826004C091E090937804816080937C
:103E2000F402FF91EF91BF91AF919F918F913F91DC
:103E30002F910F900FBE0F901F9018953FB7F894D9
:103E400080917F0490918004A0918104B0918204BC
:103E500026B5A89B05C02F3F19F00196A11DB11DE5
:103E60003FBFBA2FA92F982F8827820F911DA11D20
:103E7000B11DBC01CD0142E0660F771F881F991F5D
:103E80004A95D1F708952FB7F89460917B0470910B
:103E90007C0480917D0490917E042FBF08951F9231
:103EA0000F920FB60F9211242F933F938F939F93EE
:103EB000AF93BF9380917B0490917C04A0917D048B
:103EC000B0917E0430917A0423E0230F2D3720F443
:103ED0000196A11DB11D05C026E8230F0296A11D64
:103EE000B11D20937A0480937B0490937C04A0936B
:103EF0007D04B0937E0480917F0490918004A09112
:103F00008104B09182040196A11DB11D80937F04AC
:103F100090938004A0938104B0938204BF91AF91E9
:103F20009F918F913F912F910F900FBE0F901F90F7
:103F3000189580E090E00895CF92DF92EF92FF9283
:103F40000F931F93E82FF92F05C001501109210984
:103F5000310961F1908196239417B9F305C001509E
:103F600011092109310911F1908196239413F7CF9A
:103F7000C12CD12CE12CF12C0AC08FEFC81AD80A21
:103F8000E80AF80A0C151D052E053F0579F0808119
:103F90008623841791F36C2D7D2D8E2D9F2D1F91DF
:103FA0000F91FF90EF90DF90CF90089560E070E068
:103FB00080E090E01F910F91FF90EF90DF90CF9005
:103FC0000895CF93DF9300D01F92CDB7DEB77894DA
:103FD00084B5826084BD84B5816084BD85B582600E
:103FE00085BD85B5816085BD80916E0081608093BF
:103FF0006E00109281008091810082608093810028
:104000008091810081608093810080918000816037
:10401000809380008091B10084608093B100809192
:10402000B00081608093B00080917A0084608093BA
:104030007A0080917A00826080937A0080917A0081
:10404000816080937A0080917A00806880937A0002
:104050001092C10060E088E00E94E6178091C000E5
:1040600082608093C0001092C50080E18093C400FC
:104070008091C10080688093C1008091C1008061FF
:104080008093C1008091C10088608093C1008091BD
:10409000C20084608093C2008091C20082608093DD
:1040A000C2006CE271E080E090E00E94D41A61E00E
:1040B0008091AD030E94E61760E08091AD030E94FD
:1040C000B71700E020E040E060E087E193E00E9465
:1040D0006A15E2E0F1E0E491E0931E03EEEEF0E019
:1040E000E491F0E0EE0FFF1FEC53FF4F85919491A8
:1040F00090931B0380931A0361E082E00E94E6170D
:1041000020E040E060E087E193E00E946A1587E1EB
:1041100093E00E9414156CE271E080E090E00E9450
:10412000D41A20E04EE160E087E193E00E946A1536
:1041300087E193E00E9414156CE271E080E090E06A
:104140000E94D41A2EE140E060E087E193E00E94F3
:104150006A1587E193E00E9414156CE271E080E03B
:1041600090E00E94D41A0EE120E040E060E087E198
:1041700093E00E946A1587E193E00E9414156CE2B7
:1041800071E080E090E00E94D41A44EF51E060E0DA
:1041900070E084EF91E00E94221861E085E00E94C7
:1041A000E61761E086E00E94E61761E089E00E9480
:1041B000E61761E08AE00E94E6178DEA80938000AE
:1041C0008BE08093810010928900109288001092F9
:1041D0008B0010928A0064EF71E080E090E00E9412
:1041E000D41A82E50E94D01682E40E94D01686E09E
:1041F0000E94D01680E00E94D01683E00E94D01664
:104200008DE90E94D0169FE088E10FB6F894A8953A
:10421000809360000FBE90936000A89538EC832EC9
:10422000912CA12CB12C40E0242E40E0342E50E5FE
:10423000652E53EC752EA8958091F40280FF36C050
:104240008E7F8093F4028091660150E040E090E020
:104250000197252F30E0281739073CF4F901EC5974
:10426000FE4F2081420F5F5FF4CFFC01EC59FE4FFF
:104270008081481302C080E037C082E50E94D016DA
:1042800082E40E94D01687E00E94D01680916701D8
:104290000E94D016809168010E94D01680E00E9492
:1042A000D016909167018091680139C081FF3BC0B1
:1042B0008D7F8093F40280912E0250E040E090E0E8
:1042C0000197252F30E0281739073CF4F901E45D08
:1042D000FD4F2081420F5F5FF4CFFC01E45DFD4F95
:1042E0008081481304C081E00E94B6001CC082E5B2
:1042F0000E94D01682E40E94D01687E00E94D01659
:1043000080912F020E94D016809130020E94D01618
:1043100080E00E94D01690912F0280913002890F88
:1043200086560E94D01688E00E948E17019719F4D5
:1043300081E08093290388E00E948E17892B21F465
:1043400080912903811118C480912803882321F1C9
:10435000109228038091F5028823F1F082E50E94F3
:10436000D01682E40E94D01688E00E94D01680E029
:104370000E94D01681E00E94D01689EF0E94D016CC
:1043800081E00E94D01687E90E94D01687E90E943A
:10439000D01687E90E94D01680912703882309F45C
:1043A00069C08091F7029091F802A091F902B09152
:1043B000FA020196A11DB11D883E23E09207A105D6
:1043C000B10548F48093F7029093F802A093F902A4
:1043D000B093FA0247C01092F7021092F8021092BE
:1043E000F9021092FA0285E10E94D219BC0180E024
:1043F00090E00E94E82A20E030E040E75CE30E9481
:10440000262C6B017C0120E030E040E050E40E946B
:10441000192C18163CF52AE939E949ED50E4C70191
:10442000B6010E943B2A87FF1DC082E50E94D0167C
:1044300082E40E94D01688E00E94D01680E00E949C
:10444000D01682E00E94D0168DEF0E94D01681E037
:104450000E94D0168CE90E94D0168091F6028F5FE0
:104460008093F6028091F6028A3020F01092F602D4
:104470001092270380912603813009F495C120F022
:10448000823009F480C271C30E94431F009134033B
:10449000109135032091360330913703DC01CB01B5
:1044A000801B910BA20BB30B81329340A105B10588
:1044B00008F45BC380E3C82E83E0D82E9CE2E92E8B
:1044C00093E0F92E0DE111E01A82512C5394852DC1
:1044D0000E940E1B482ED6018D936D0181110BC0D9
:1044E00060E0F80182810E94E61760E0D80113962F
:1044F0008C910E94E617D701EC914E1609F409C180
:104500008E2F90E0FC013297E231F10508F0FFC0F8
:10451000EC5CFF4F0C94042D8091150390911603D1
:10452000009731F00E94B62D1092160310921503D9
:104530008091130390911403009731F00E94B62DDF
:104540001092140310921303809124039091250379
:10455000009709F4BBC00E94B62D1092250310925B
:104560002403C3C08091110390911203009709F4B2
:10457000ADC00E94B62D1092120310921103C4C058
:1045800080910F0390911003009709F49FC00E943F
:10459000B62D1092100310920F03B9C080910D0335
:1045A00090910E03009709F491C00E94B62D1092CD
:1045B0000E0310920D0362C080910B0390910C03C7
:1045C000009709F483C00E94B62D10920C0310923C
:1045D0000B0363C08091090390910A03009709F4CB
:1045E00075C00E94B62D10920A0310920903A1E033
:1045F000AA838FC08091070390910803009731F040
:104600000E94B62D1092080310920703E091050353
:10461000F0910603FB83EA83309709F457C0CF017A
:104620000E94F711EFE0F1E0AA81BB811196FC93A3
:10463000EE93CD010E94F7118A819B810E94B62DD5
:1046400010920603109205035FC080912A03909197
:104650002B030097D9F10E94B62D10922B031092D4
:104660002A0355C08091030390910403009771F1D0
:104670000E94B62D109204031092030381E08A83F6
:1046800048C080910103909102030097F9F00E94C5
:10469000B62D109202031092010391E09A8339C063
:1046A000A091FF02B0910003BB83AA83109771F021
:1046B0001A968D919C911B970E94B62D8A819B81A1
:1046C0000E94B62D109200031092FF02B1E0BA834F
:1046D00020C08091FD029091FE020097B9F30E94E4
:1046E000B62D1092FE021092FD02E1E0EA8311C0A5
:1046F0008091FB029091FC02009741F30E94B62D3D
:104700001092FC021092FB02F1E0FA8302C021E059
:104710002A83D7014D927D010E5F1F4FB4E05B12DB
:10472000D5CEEA81EE23A9F182E58093AF0382E43E
:104730008093B0031092B203F5E0F093B30380913D
:104740002C038093B40380912D038093B503809153
:104750002E038093B60380912F038093B7031092AA
:10476000B8031092B9031092BA031092BB032EE063
:104770002093B103EFEAF3E081919981980F998337
:10478000A3E0EC3BFA07C1F79093BC038EE00E94D4
:10479000D7160E94431F60933403709335038093B0
:1047A000360390933703E1C180911503909116036E
:1047B000009771F0DC0112964C9150E02091230398
:1047C000022E000C330B4217530791F00E94B62DB6
:1047D00080E190E00E941E2D9B838A8360912303D9
:1047E0000E94C415EA81FB81F0931603E093150340
:1047F00080911503909116030E943F1B6B017C0171
:1048000020E030E048E452E40E94192C18162CF401
:1048100010923903109238032AC020E030E048EBB0
:1048200051E4C701B6010E94192CF0913903FA83B3
:1048300087FD11C020E030E048E452E4C701B60132
:104840000E943B2A18163CF02A81211102C081E007
:104850000CC081E008C08A818823C9F3813011F43B
:1048600082E003C082E08093380380933903809113
:1048700038038130E1F020F0823009F444C075C182
:1048800027E330E040E050E067E370E080E090E054
:104890000E94C21902E320E040E060E087E193E07B
:1048A0000E946A1587E193E00E9414155EC100E042
:1048B00020E042E360E087E193E00E946A1587E12F
:1048C00093E00E9414150E94A228A50194010E9461
:1048D000F928653648F022E630E040E050E06EE925
:1048E0007FEF8FEF9FEF08C02EE93FEF4FEF5FEFB5
:1048F00062E670E080E090E00E94C2196CE271E034
:1049000080E090E03CC000E022E340E060E087E12E
:1049100093E00E946A1587E193E00E94141526EA4D
:104920003FEF4FEF5FEF66EA7FEF8FEF9FEF0E9461
:10493000C21960E971E080E090E00E94D41AA89565
:104940000E94A228A50194010E94F928653648F02A
:1049500022E630E040E050E06EE97FEF8FEF9FEF1E
:1049600008C02EE93FEF4FEF5FEF62E670E080E0B6
:1049700090E00E94C2196AE872E080E090E00E9434
:10498000D41AA895F2C08091240390912503009732
:1049900089F485E090E00E941E2D9B838A836091BC
:1049A00023030E94461DAA81BB81B0932503A093D7
:1049B00024031DC0FC01428150E020912303022EFC
:1049C000000C330B4217530791F00E94B62D85E07F
:1049D00090E00E941E2D9B838A83609123030E9496
:1049E000461D8A819B8190932503809324038091A7
:1049F0002403909125030E94271D8130E9F030F0B7
:104A0000823081F1833009F44FC0AFC02AE230E038
:104A100040E050E06AE270E080E090E00E94C2195D
:104A20009AE09093000100E028EC40E060E087E12C
:104A300093E00E946A152FC02AE230E040E050E087
:104A40006AE270E080E090E00E94C219809100016B
:104A5000823018F081508093000100E020E048ECA3
:104A600060E015C02AE230E040E050E06AE270E029
:104A700080E090E00E94C21980910001843118F416
:104A80008F5F8093000100E020E048EC61E087E167
:104A900093E00E94471587E193E00E94141510925D
:104AA0003B0310923A0361C0809100018A3049F4BF
:104AB0002EEC3FEF4FEF5FEF6EEC7FEF8FEF9FEF4E
:104AC00013C08A3048F42DE230E040E050E066EA5E
:104AD0007FEF8FEF9FEF08C026EA3FEF4FEF5FEFCA
:104AE0006DE270E080E090E00E94C21980913A038C
:104AF00090913B03019690933B0380933A038091FE
:104B00003A0390913B038035934C78F170923B03CC
:104B100060923A0320E030E0A90160E070E0CB0150
:104B20000E94C21900E020E040E060E087E193E0ED
:104B30000E946A1587E193E00E94141564EF71E00A
:104B400080E090E00E94D41A20E040E560E087E138
:104B500093E00E946A1587E193E00E94141564EFC8
:104B600071E080E090E00E94D41A2114310409F42D
:104B700062CB0E9400005FCB81E0809328031092FB
:104B80002903E2CB70E080E090E00E94E82A2CE567
:104B90003FE842EA5FE30E94402A0E94B92A862F3A
:104BA000653B30F4611102C087E008C0643B11F43A
:104BB00086E204C066E00E94E42C885F8093B30024
:104BC000089570E080E090E00E94E82A2CE53FE83C
:104BD00042EA5FE30E94402A0E94B92A862F653B81
:104BE00030F4611102C087E008C0643B11F486E232
:104BF00004C066E00E94E42C885F8093B4000895AE
:104C00000F931F93CF93DF93EC01162F0E94511443
:104C100062E5CE010E94E813CE010E945213612F7B
:104C20006068CE010E94E813CE010E945213CE01AB
:104C30000E94511463E5CE010E94E813CE010E9448
:104C40005213CE010E949B13182F60E0CE010E94E8
:104C50001013CE010E949B13082F61E0CE010E9429
:104C60001013CE010E94CB12812F90E0902BDF9188
:104C7000CF911F910F910895FF920F931F93CF93A0
:104C8000DF93EC01F62E042F122F60E50E949A1498
:104C900063EACE010E943A146F2DCE010E943A14AD
:104CA000602FCE010E943A14612FCE010E943A1467
:104CB000CE01DF91CF911F910F91FF900C94CB12F9
:104CC0004F925F926F927F928F929F92AF92BF921C
:104CD000CF92DF92EF92FF920F931F93CF93DF93C8
:104CE00000D000D000D0CDB7DEB79E838D8380E0AA
:104CF00090E0A3E8B2E4ED81FE8186839783A087EC
:104D0000B187128613861486158616861786108A32
:104D1000118A128A138A148A158A168A178A108EA3
:104D2000118E128E138E148E158E168E178E10A263
:104D300011A213A212A215A214A217A216A210A6C3
:104D400011A612A613A614A615A616A617A610AA93
:104D500011AA12AA13AA64E670E080E090E00E9413
:104D6000D41A40E06BE68D819E810E946B276EE134
:104D700070E080E090E00E94D41A41E06AE18D8109
:104D80009E810E946B2748E06BE18D819E810E948D
:104D90006B2762E370E080E090E00E94D41A04EF99
:104DA00011E019821A821B821C82812C912C5401E1
:104DB000412C512C3201ED80FE80F4E3EF0EF11C0A
:104DC00026E0A70163E48D819E810E94D21DED81C2
:104DD000FE8184A995A9982789279827092E000C78
:104DE000AA0BBB0B480E591E6A1E7B1E86A997A9EB
:104DF000982789279827092E000CAA0BBB0B880E31
:104E0000991EAA1EBB1E80AD91AD982789279827B1
:104E1000092E000CAA0BBB0B29813A814B815C81C6
:104E2000280F391F4A1F5B1F29833A834B835C83FA
:104E3000A8950150110921F684EFC82EDD24D394E2
:104E4000E12CF12CC301B201A70196010E94F928BF
:104E5000CA01B9010E94EA2AED81FE8160A771A70B
:104E600082A793A7C501B401A70196010E94F92862
:104E7000CA01B9010E94EA2AED81FE8164A775A7E3
:104E800086A797A769817A818B819C81A70196016A
:104E90000E94F928CA01B9010E94EA2AED81FE8127
:104EA00060AB71AB82AB93AB26960FB6F894DEBFC6
:104EB0000FBECDBFDF91CF911F910F91FF90EF906B
:104EC000DF90CF90BF90AF909F908F907F906F902A
:104ED0005F904F9008950F931F93CF93DF93EC0152
:104EE000062F142F0E945114FE01EE5BFF4F6081CC
:104EF000660FCE010E94E813CE010E945213602F6C
:104F0000CE010E94E813CE010E945213612FCE0100
:104F10000E94E813CE010E945213CE01DF91CF917F
:104F20001F910F910C94CB12AF92BF92CF92DF9250
:104F3000EF92FF920F931F93CF93DF93EC015B01EE
:104F40006A0179018E81811103C0CE010E94581E31
:104F500064E1CE010E940026F8019183808366E11E
:104F6000CE010E940026F5019183808368E1CE0185
:104F70000E940026F601918380836AE1CE010E949F
:104F80000026F7019183808389859A85853D910567
:104F900019F150F4009729F1803C910591F56AE9E7
:104FA00070E080E090E021C0863F910581F08F3F66
:104FB000910541F08B3E910521F562E370E080E0C0
:104FC00090E013C063E070E080E090E00EC068E124
:104FD00070E080E090E009C065E670E080E090E07D
:104FE00004C06CEB72E080E090E0DF91CF911F9104
:104FF0000F91FF90EF90DF90CF90BF90AF900C9407
:10500000D41ADF91CF911F910F91FF90EF90DF9015
:10501000CF90BF90AF90089580912103909122038B
:105020000C94B62DA7E1B3E01C9211961C92119737
:1050300012961C921297E0E0F1E0E4911796EC933F
:105040001797ECEEF0E0E491F0E0EE0FFF1FEC5369
:10505000FF4F8591949114969C938E93139761E0E2
:1050600080E00E94E61762E087E193E00E94A516C7
:1050700084E08093AD0360E084E10E94E61761E084
:105080008CE00E94E61761E08DE00E94E61761E087
:1050900087E00E94E61760E08CE00E94B71760E0AE
:1050A0008DE00E94B71760E087E00C94B7178F92ED
:1050B0009F92AF92BF92CF92DF92EF92FF92CF93E7
:1050C000DF93EC01688179818A819B81611571058B
:1050D0008105910521F464E279ED8BE597E02DE1FE
:1050E00033EF41E050E00E94F92849015A019B0149
:1050F000AC01A7EAB1E40E9418296B017C01ACEE77
:10510000B4EFA50194010E942629DC01CB018C0D8E
:105110009D1DAE1DBF1DB7FF03C00197A109B0487B
:1051200088839983AA83BB83BC01CD019F77DF91DC
:10513000CF91FF90EF90DF90CF90BF90AF909F9076
:105140008F9008958F929F92AF92BF92CF92DF92ED
:10515000EF92FF9260910101709102018091030131
:1051600090910401611571058105910521F464E2B6
:1051700079ED8BE597E02DE133EF41E050E00E94BF
:10518000F92849015A019B01AC01A7EAB1E40E9448
:1051900018296B017C01ACEEB4EFA50194010E94CB
:1051A0002629DC01CB018C0D9D1DAE1DBF1DB7FF57
:1051B00003C00197A109B0488093010190930201B7
:1051C000A0930301B0930401BC01CD019F77FF9030
:1051D000EF90DF90CF90BF90AF909F908F90089509
:1051E0006093010170930201809303019093040185
:1051F0000895052E97FB1EF400940E94102957FD78
:1052000007D00E942B2907FC03D04EF40C941029E0
:1052100050954095309521953F4F4F4F5F4F0895E2
:1052200090958095709561957F4F8F4F9F4F089512
:105230000E944D29A59F900DB49F900DA49F800DB5
:10524000911D11240895B7FF0C9418290E94182964
:10525000821B930B0895A1E21A2EAA1BBB1BFD0112
:105260000DC0AA1FBB1FEE1FFF1FA217B307E40745
:10527000F50720F0A21BB30BE40BF50B661F771F9D
:10528000881F991F1A9469F760957095809590957D
:105290009B01AC01BD01CF010895A29FB001B39F56
:1052A000C001A39F700D811D1124911DB29F700D2F
:1052B000811D1124911D08955058BB27AA270E94D3
:1052C00074290C94C72B0E94B92B38F00E94C02B74
:1052D00020F039F49F3F19F426F40C948F2B0EF430
:1052E000E095E7FB0C94602BE92F0E94D82B58F334
:1052F000BA17620773078407950720F079F4A6F5BB
:105300000C94122C0EF4E0950B2EBA2FA02D0B014D
:10531000B90190010C01CA01A0011124FF27591BFA
:1053200099F0593F50F4503E68F11A16F040A22F00
:10533000232F342F4427585FF3CF46953795279571
:10534000A795F0405395C9F77EF41F16BA0B620B70
:10535000730B840BBAF09150A1F0FF0FBB1F661FB7
:10536000771F881FC2F70EC0BA0F621F731F841FFA
:1053700048F4879577956795B795F7959E3F08F020
:10538000B0CF9395880F08F09927EE0F97958795E2
:1053900008950E94B92B60F080E891E009F49EEF37
:1053A0000E94C02B28F040E851E071F45EEF0CC081
:1053B0000C948F2B0C94122CE92FE0780E94D82BA0
:1053C00040F3092E052AB1F3261737074807590776
:1053D00038F00E2E07F8E02569F0E025E0640AC0F9
:1053E000EF6307F8009407FADB01B9019D01DC01C6
:1053F000CA01AD01EF930E94572A0E94C72B0E9459
:105400000C2A5F91552339F02BED3FE049E450FD24
:1054100049EC0C945D290895DF93DD27B92FBF7700
:1054200040E85FE31616170648075B0718F4D92F04
:105430000E941E2C9F938F937F936F930E94D92C71
:10544000ECE8F0E00E94922B0E94C72B2F913F9135
:105450004F915F910E94392CDD2351F09058A2EAC0
:105460002AED3FE049EC5FE3D0785D270E94742984
:10547000DF910C94C72B0E943C2B08F481E0089527
:105480000E94542A0C94C72B0E94C02B58F00E94F3
:10549000B92B40F029F45F3F29F00C94602B511197
:1054A0000C94132C0C948F2B0E94D82B68F3992307
:1054B000B1F3552391F3951B550BBB27AA27621710
:1054C0007307840738F09F5F5F4F220F331F441F1D
:1054D000AA1FA9F335D00E2E3AF0E0E832D0915051
:1054E0005040E695001CCAF72BD0FE2F29D0660F3E
:1054F000771F881FBB1F261737074807AB07B0E881
:1055000009F0BB0B802DBF01FF2793585F4F3AF086
:105510009E3F510578F00C94602B0C94132C5F3F48
:10552000E4F3983ED4F3869577956795B795F7950C
:105530009F5FC9F7880F911D9695879597F90895F4
:10554000E1E0660F771F881FBB1F62177307840790
:10555000BA0720F0621B730B840BBA0BEE1F88F79F
:10556000E09508950E94B92A6894B1110C94132C07
:1055700008950E94E02B88F09F5798F0B92F992743
:10558000B751B0F0E1F0660F771F881F991F1AF02E
:10559000BA95C9F714C0B13091F00E94122CB1E055
:1055A00008950C94122C672F782F8827B85F39F054
:1055B000B93FCCF3869577956795B395D9F73EF4C7
:1055C00090958095709561957F4F8F4F9F4F08956F
:1055D000E89409C097FB3EF490958095709561958D
:1055E0007F4F8F4F9F4F9923A9F0F92F96E9BB2743
:1055F0009395F695879577956795B795F111F8CFBF
:10560000FAF4BB0F11F460FF1BC06F5F7F4F8F4F29
:105610009F4F16C0882311F096E911C0772321F01F
:105620009EE8872F762F05C0662371F096E8862FB7
:1056300070E060E02AF09A95660F771F881FDAF70E
:10564000880F9695879597F908950E94FA2B90F008
:105650009F3748F4911116F00C94132C60E070E021
:1056600080E89FEB089526F41B16611D711D811DB6
:105670000C94662B0C94812B990F0008550FAA0BE4
:10568000E0E8FEEF16161706E807F907C0F0121655
:105690001306E407F50798F0621B730B840B950B58
:1056A00039F40A2661F0232B242B252B21F40895AD
:1056B0000A2609F4A140A6958FEF811D811D08954A
:1056C00097F99F6780E870E060E00895882371F49F
:1056D000772321F09850872B762F07C0662311F48B
:1056E00099270DC09051862B70E060E02AF09A95C2
:1056F000660F771F881FDAF7880F9695879597F9B9
:1057000008959F3F31F0915020F4879577956795E4
:10571000B795880F911D9695879597F908959FEFF6
:1057200080EC0895DF93CF931F930F93FF92EF9236
:10573000DF927B018C01689406C0DA2EEF010E9493
:10574000392CFE01E894A59125913591459155910B
:10575000A6F3EF010E947429FE019701A801DA94D3
:1057600069F7DF90EF90FF900F911F91CF91DF913C
:10577000089500240A9416161706180609060895B7
:1057800000240A9412161306140605060895092E1D
:105790000394000C11F4882352F0BB0F40F4BF2B8C
:1057A00011F460FF04C06F5F7F4F8F4F9F4F0895CC
:1057B00057FD9058440F551F59F05F3F71F04795C2
:1057C000880F97FB991F61F09F3F79F087950895A7
:1057D000121613061406551FF2CF4695F1DF08C0C6
:1057E000161617061806991FF1CF869571056105E3
:1057F000089408950E94E02BA0F0BEE7B91788F442
:10580000BB279F3860F41616B11D672F782F8827A5
:10581000985FF7CF869577956795B11D93959639E3
:10582000C8F30895E894BB2766277727CB0197F93B
:1058300008950E943C2B08F48FEF08959B01AC0162
:1058400060E070E080E89FE30C94402A0E94392CCD
:105850000C94C72B0E94B92B38F00E94C02B20F06B
:10586000952311F00C94602B0C948F2B11240C9425
:10587000132C0E94D82B70F3959FC1F3950F50E025
:10588000551F629FF001729FBB27F00DB11D639FF2
:10589000AA27F00DB11DAA1F649F6627B00DA11D98
:1058A000661F829F2227B00DA11D621F739FB00D3E
:1058B000A11D621F839FA00D611D221F749F3327AE
:1058C000A00D611D231F849F600D211D822F762F47
:1058D0006A2F11249F5750409AF0F1F088234AF024
:1058E000EE0FFF1FBB1F661F771F881F9150504090
:1058F000A9F79E3F510580F00C94602B0C94132C5B
:105900005F3FE4F3983ED4F3869577956795B79516
:10591000F795E7959F5FC1F7FE2B880F911D969530
:10592000879597F9089519F416F40C948F2B0C941D
:10593000812B0E94E02BB8F39923C9F3B6F39F574C
:10594000550B87FF0E94DD2C0024A0E640EA900161
:1059500080585695979528F4805C660F771F881FAE
:1059600020F026173707480730F4621B730B840BAF
:10597000202931294A2BA6951794079420253125F3
:105980004A2758F7660F771F881F20F0261737071A
:10599000480730F4620B730B840B200D311D411D41
:1059A000A09581F7B901842F9158880F9695879516
:1059B00008959B01AC010C94262C91505040660F29
:1059C000771F881FD2F70895991B79E004C0991FAB
:1059D000961708F0961B881F7A95C9F78095089549
:1059E00097FB072E16F4009407D077FD09D00E948C
:1059F0000A2D07FC05D03EF4909581959F4F0895A0
:105A0000709561957F4F0895EE0FFF1F0590F491FB
:105A1000E02D0994AA1BBB1B51E107C0AA1FBB1FA5
:105A2000A617B70710F0A61BB70B881F991F5A952A
:105A3000A9F780959095BC01CD0108950F931F9310
:105A4000CF93DF938230910510F482E090E0E091F3
:105A50008504F091860420E030E0A0E0B0E03097CB
:105A600019F1408151810281138148175907C8F00B
:105A70008417950769F4109731F012960C931297DA
:105A800013961C9327C0009385041093860422C0AC
:105A90002115310519F04217530718F49A01BD0179
:105AA000EF01DF01F801DBCF21153105F9F0281BEB
:105AB000390B2430310580F48A819B816115710591
:105AC00021F0FB019383828304C09093860480932A
:105AD0008504FE01329644C0FE01E20FF31F81935C
