:100000000C948C000C94B4000C94B4000C947F11EC
:100010000C947F110C947F110C94B4000C94B400D8
:100020000C94B4000C94B4000C94B4000C940F1213
:100030000C94B4000C94B4000C94B4000C94B40070
:100040000C94621F0C94B4000C94CB1E0C94B4005E
:100050000C94B4000C94B4000C94B4000C94B40050
:100060000C94B4000C94B400D222DE22EA22302395
:10007000F82206231423222340234C2365237223D2
:100080008123C623B723C623A8239023084AD73B3E
:100090003BCE016E84BCBFFDC12F3D6C74319ABD57
:1000A00056833DDA3D00C77F11BED9E4BB4C3E917B
:1000B0006BAAAABE000000803F00000000002400E0
:1000C00027002A0000000000250028002B00000067
:1000D0000008000201000003040700000000000007
:1000E000000000000000230026002900040404048E
:1000F00004040404020202020202030303030303D2
:1001000001020408102040800102040810200102AE
:10011000040810209C28962811241FBECFEFD8E099
:10012000DEBFCDBF11E0A0E0B1E0E6E1FEE502C038
:1001300005900D92A435B107D9F724E0A4E5B1E00C
:1001400001C01D92A539B207E1F710E0CBE8D0E07D
:1001500004C02197FE010E948E2DCA38D107C9F72D
:100160000E94F41F0C94FE2E0C9400002F923F92DC
:100170004F925F926F927F928F929F92AF92BF92B7
:10018000CF92DF92EF92FF920F931F93CF93DF9363
:10019000CDB7DEB7A6970FB6F894DEBF0FBECDBFC2
:1001A000E82EF12C28EC829FC0011124AC014C599F
:1001B0005E4F6A01DA0114968C918C3109F413C4F4
:1001C00008F067C0823109F493C108F045C084305B
:1001D00009F4E5C040F4813009F48BC0823009F4A1
:1001E000A8C00C949710803109F401C108F02EC109
:1001F000853011F00C94971082E58093B70382E468
:100200008093B8031092B903DA0113968C9180930E
:10021000BA0381E00E94211B8093BB0382E00E940D
:10022000211B8093BC0383E00E94211B8093BD03AC
:1002300084E00E94211B8093BE031092BF031092A2
:10024000C0031092C1031092C2038DE08093B903E2
:10025000E7EBF3E090E0C0C0863109F4A0C130F4D0
:10026000843109F4F4C108F4C7C1AEC1893109F47D
:10027000B3C28A3109F41DC3883111F00C94971070
:10028000FA018581809323038681809326030C9451
:100290004210853A09F4A5C690F4813A09F46FC575
:1002A00040F48E3109F4F7C48F3109F489C40C94F9
:1002B0009710833A09F405C608F4D3C537C6893ABE
:1002C00011F40C94980B40F4873A11F40C94CF0974
:1002D00008F4E5C70C942F0A8B3A11F40C94B60E6F
:1002E00010F40C94940A8C3A11F40C94170F0C949B
:1002F000971092E59093B70392E49093B80398E037
:100300009093B903FA0193819093BA0392E090938A
:10031000BB038093BC0387E08093BD03E7EBF3E06E
:1003200090E08191980F23E0EE3BF207D1F70C9417
:10033000130F82E58093B70382E48093B803109291
:10034000B903DA0113968C9113978093BA0315962B
:100350008C91823059F024F4813089F481E009C015
:10036000833031F0843059F484E003C082E001C06E
:1003700083E00E94211B8093BB03E5E001C0E4E021
:1003800081E08E0F8093B903A7EBB3E020E090E00B
:100390003D91930F2F5FE213FBCF0C94B10E82E5DA
:1003A0008093B70382E48093B803FA01838180933A
:1003B000BA0381E08093BB038093BC0387E0809302
:1003C000B903E7EBF3E090E08191980F23E0ED3B78
:1003D000F207D1F70C94900A8191980FB3E0E33CB7
:1003E000FB07D1F79093C3038DE00C946A10FA01D8
:1003F00085818C3FE1F0882389F08B3F11F00C94CC
:10040000421088EC8E9DF0018F9DF00D1124EC5967
:10041000FE4F00852781468161E00EC0008527815F
:10042000468160E087E193E00E946C1509C0FA0103
:1004300000852781468160E087E193E00E944915AD
:1004400087E193E00E9416150C944210DA0115968C
:100450008C918F3F09F440C08823B1F08E3F11F09A
:100460000C94421088EC8E9DF0018F9DF00D1124AC
:10047000EC59FE4F6681062E000C770B880B990B0A
:100480000E9493180C94421088EC8E9D80018F9DE1
:10049000100D11240C591E4FF8012781022E000C5B
:1004A000330B440B550B6681062E000C770B880B23
:1004B000990B0E94C419D80116968C9181110C9445
:1004C0004210F801878181110C944210109223038D
:1004D000109226030C944210DA0116966C91062EA7
:1004E000000C770B880B990B0E9459190C94421041
:1004F000FA0185810E94211B029711F00C94421091
:100500008091150390911603009749F480E190E0E3
:100510000E94A82D8C01D60115966C9115C0FC0186
:10052000428150E0D60115962C91022E000C330B1F
:100530004217530781F00E94402E80E190E00E9414
:10054000A82D8C01F6016581C8010E94C615109383
:1005500016030093150388EC8E9DF0018F9DF00D1E
:100560001124EC59FE4FD084C780B680009115034A
:100570001091160360E4C8010E949C1461EAC8014E
:100580000E943C146B2DC8010E943C146C2DC801C4
:100590000E943C146D2DC8010E943C1418C1DA0160
:1005A00015968C911597893F11F00C944210169670
:1005B0008C91882329F081E08093F5020C944210FD
:1005C0001092F5020C944210FA018681882331F0D2
:1005D000813031F481E08093270302C01092270319
:1005E0001092F7021092F8021092F9021092FA0299
:1005F0001092F6020C944210DA0115968C91159720
:100600008A3F11F00C94421018964C91189750E0C4
:10061000542F442719968C911997482B60E070E06D
:1006200016968C91169790E0982F882717962C9104
:10063000822B0E94241861E08091B5030E94E81784
:1006400060E08091B5030E94B9170C944210FA0142
:1006500085810E94211B039711F00C944210809118
:10066000130390911403009749F486E090E00E94F0
:10067000A82D8C01D60115966C911CC0FC014281FD
:1006800050E0D60115962C91022E000C330B421728
:100690005307B9F00E94402E86E090E00E94A82DFA
:1006A0008C0188EC8E9DF0018F9DF00D1124EC598A
:1006B000FE4F6581C8010E94BE1D10931403009374
:1006C0001303009113031091140388EC8E9DF00125
:1006D0008F9DF00D1124E659FE4F63E1808190E07B
:1006E000982F88272181822BAC014A7A5A7A569515
:1006F000479585759575880F991F482B592B9A0139
:100700002C7C3C7C369527953695279543735373FF
:10071000440F551F440F551F242B352BC901807FD3
:10072000907F44E0969587954A95E1F72F703F704A
:1007300054E0220F331F5A95E1F7822B932B982711
:1007400089279827880F991F880F991F2FEF260F49
:10075000A1E0B0E0AC0FBD1FA60FB11D8C9362509D
:10076000A1E0B0E0AC0FBD1FA20FB11D9C9332966B
:100770006F3F09F0B3CFC8010E94531467EEC80160
:100780000E943C1460E0C8010E943C14FE013196B6
:100790005F016E01F5E1CF0ED11CD5019D915D0188
:1007A000892F8C7C682F669566959373B4E09B9F28
:1007B000C0011124862B682F6A7A66958575880F8B
:1007C000682BC8010E943C14AC14BD0431F7C80169
:1007D0000E94CD120C944210DA0115968C910E9461
:1007E000211B059711F00C94421080910903909100
:1007F0000A03009739F485E090E00E94A82D8C014F
:10080000F6011BC0DC0112964C9150E0F6012581E7
:10081000022E000C330B42175307E9F00E94402EC2
:1008200085E090E00E94A82D8C0188EC8E9DF0015F
:100830008F9DF00D1124EC59FE4F6581C8010E9477
:10084000DB1510930A030093090383EA8093B00039
:1008500087E08093B10088EC8E9DF0018F9DF00DB4
:100860001124EC59FE4F8681813089F08230C1F02D
:1008700081110C944210D0840091090310910A0355
:100880006781C8010E946B266D2DC8010EC067816B
:100890008091090390910A030E946B260C944210E8
:1008A00067818091090390910A030E944C260C9461
:1008B0004210DA0115968C910E94211B099711F0C4
:1008C0000C94421080910B0390910C030097C1F49B
:1008D00086E090E00E94A82D8C0188EC8E9DF001AE
:1008E0008F9DF00D1124EC59FE4F6581C8010E94C7
:1008F000AA15F801158210930C0300930B0326C070
:10090000DC0112964C9150E028EC2E9D80012F9D29
:10091000100D11240C591E4FF8012581022E000CD8
:10092000330B4217530791F00E94402E86E090E06F
:100930000E94A82D6C01D80115966C910E94AA15F1
:10094000F6011582D0920C03C0920B0388EC8E9DA9
:10095000F0018F9DF00D1124EC59FE4F86818130FE
:10096000F9F0823081F181110C944210278180913D
:100970000B0390910C0327FF06C0332721950CF43D
:10098000309541E001C040E061E00E94C62688EC5D
:100990008E9DF0018F9DF00D1124EC59FE4F13C078
:1009A000278180910B0390910C0327FF06C033270A
:1009B00021950CF4309541E001C040E061E00E94D7
:1009C000C6260C944210208580910B0390910C0355
:1009D00027FD03C040E062E0F2CF332721950CF4FD
:1009E000309541E0F8CFDA0115968C910E94211BD9
:1009F0000B9711F00C94421000910503109106031F
:100A00000115110541F483E290E00E94A82D8C01AC
:100A1000F60165811FC0D80191962C91919730E025
:100A2000F6018581082E000C990B28173907C9F0AB
:100A30008FE091E08D939C93C8010E94F911C80149
:100A40000E94402E83E290E00E94A82D8C01D601E6
:100A500015966C91C8010E944A1C109306030093DE
:100A60000503C0900503D090060388EC8E9DF0012D
:100A70008F9DF00D1124EC59FE4F1681F60182A1D5
:100A800090E0212F012E000C330B8217930749F1C0
:100A900012A38AEA8093540182E08093550181E099
:100AA000809356011093570186E581278093580162
:100AB00054E5A52E51E0B52E69E5862E61E0962E0F
:100AC000D5016D915D01C6010E94F3108A149B044B
:100AD000B9F7F60112A362E370E080E090E00E94B3
:100AE000E71A88EC8E9DF0018F9DF00D1124EC59D2
:100AF000FE4F2085878100910503109106039AEA35
:100B0000909354018093550191E090935601209366
:100B100057019BEA8927822780958093580144E5F5
:100B2000C42E41E0D42ED6016D916D01C8010E9402
:100B3000F310B9E5CB16B1E0DB06A9F762E370E08C
:100B400080E090E00E94E71A8091050390910603EF
:100B50000E94F9110091050310910603011511057A
:100B600059F08FE091E0F80191838083C8010E94E1
:100B7000F911C8010E94402E10920603109205033D
:100B800088EC8E9D80018F9D100D11240C591E4FF5
:100B9000D8011596EC91EE0FFF0BE35EFE4F60E07F
:100BA00080810E94E817D8011596EC91EE0FFF0B9B
:100BB000E35EFE4F60E081810E94E8170C944210D2
:100BC000FA0185810E94211B439711F00C94421079
:100BD000C090FF02D0900003C114D104B1F48CE0A6
:100BE00090E00E94A82D8C0188EC8E9DF0018F9DD5
:100BF000F00D1124EC59FE4F6581C8010E94FB15D0
:100C0000109300030093FF022CC0D60112962C9182
:100C1000129730E088EC8E9D80018F9D100D11247D
:100C20000C591E4FF8018581082E000C990B2817CE
:100C30003907B9F01A968D919C911B970E94402E0E
:100C4000C6010E94402E8CE090E00E94A82D6C010D
:100C5000D80115966C910E94FB15D0920003C092AA
:100C6000FF0288EC8E9DF0018F9DF00D1124EC5950
:100C7000FE4F01852085478166818091FF0290911A
:100C800000030E946C158091FF02909100030E9466
:100C900016150C949710FA0185810E94211B42972A
:100CA00011F00C9442108091FD029091FE02009789
:100CB00069F486E090E00E94A82D8C01D60115967B
:100CC0006C910E94AA15F801158222C0DC011296CF
:100CD0004C9150E0F6012581022E000C330B421797
:100CE0005307E9F00E94402E86E090E00E94A82D74
:100CF0008C0188EC8E9DF0018F9DF00D1124EC5934
:100D0000FE4F6581C8010E94AA15D80115961C9254
:100D10001093FE020093FD02C8010E947B1788EC2D
:100D20008E9D80018F9D100D11240C591E4FF801CE
:100D3000468161E08091FD029091FE020E94411E79
:100D4000D80117964C9162E08091FD029091FE02CD
:100D50000E94411EF801408563E08091FD02909160
:100D6000FE020E94411ED80119964C9164E08091C8
:100D7000FD029091FE020E94411E0C949710FA0110
:100D800085810E94211B029711F00C94971080918D
:100D9000150390911603009749F480E190E00E94BA
:100DA000A82D8C01D60115966C9115C0FC014281CD
:100DB00050E0D60115962C91022E000C330B4217F1
:100DC000530781F00E94402E80E190E00E94A82D00
:100DD0008C01F6016581C8010E94C61510931603A7
:100DE0000093150380911503909116030E94521BE6
:100DF00020E030E040E251E40E94B02C0E943C2B05
:100E00009B0142E54093B70342E44093B80348ECAA
:100E10004E9DF0014F9DF00D1124EC59FE4F438182
:100E20004093BA0341E04093BB03AB0177FF02C09C
:100E300041505F4F5093BC03C90160E071E00E94D4
:100E40007A2D8093BD0388E08093B903E7EBF3E04C
:100E50002EEB33E090E08191980F2E173F07D9F7E2
:100E6000E2C7DA0115968C911597893F11F00C9421
:100E7000971082E58093B70382E48093B8031092C1
:100E8000B90313968C918093BA0381E08093BB03DE
:100E900088E00E949017019719F41092BC0303C0D8
:100EA00081E08093BC0387E08093B903E7EBF3E034
:100EB0002DEB33E090E08191980F2E173F07D9F783
:100EC0002FC3FA0185818D3F11F00C94971085E1B5
:100ED0000E94D41922E3AC01249FC001259F900DEC
:100EE000112422E52093B70322E42093B803D6010E
:100EF00013962C912093BA0321E02093BB036FEF4C
:100F000073E00E947A2D862F880F680F6093BC03D0
:100F100087E08093B903E7EBF3E02DEB33E090E05B
:100F20008191980F2E173F07D9F7FAC280912403B9
:100F300090912503009739F485E090E00E94A82D58
:100F40008C01F6011BC0DC0112964C9150E0F601B9
:100F50002581022E000C330B42175307B9F00E9473
:100F6000402E85E090E00E94A82D8C0188EC8E9D9B
:100F7000F0018F9DF00D1124EC59FE4F6581C801E1
:100F80000E94591D109325030093240382E580934A
:100F9000B70382E48093B8031092B90388EC8E9D66
:100FA000F0018F9DF00D1124EC59FE4F8381809349
:100FB000BA0381E08093BB038091240390912503C1
:100FC0000E943A1D8093BC0387E08093B903E7EB4E
:100FD000F3E090E08191980F23E0ED3BF207D1F729
:100FE0009FC2DA0115968C910E94211B069711F081
:100FF0000C9497108091110390911203009771F057
:10100000FC01428150E0D60115962C91022E000C75
:10101000330B42175307D1F00E94402E86E090E038
:101020000E94A82D8C01F601D5806D2D0E949A1585
:10103000ED2DF0E0EE0FFF1FE35EFE4F8181D80142
:1010400015968C93109312030093110300911103D2
:1010500010911203FE0131961F0185E0DF011D9200
:101060008A95E9F761E0F80185810E94E81761E05F
:10107000D80115968C910E94B9176AEF70E080E054
:1010800090E00E94E71A60E0F80185810E94B9179C
:1010900064E170E080E090E00E94E71A61E0D8012E
:1010A00015968C910E94B9178BE990E00197F1F7A2
:1010B00060E0F80185810E94B91783E290E0019712
:1010C000F1F70E94561F4B015C0162E0D8011596B2
:1010D0008C910E94E817F80185810E949017019772
:1010E00091F00E94561FDC01CB0188199909AA09C9
:1010F000BB090597A105B10570F3D80113961C92A1
:10110000139714961C920E94561F4B015C0162E0DB
:10111000F80185810E94E817D80115968C910E94EC
:101120009017892B19F4C12CD12C53C00E94561F43
:10113000DC01CB0188199909AA09BB090597A1050A
:10114000B10550F3F0CF0E94561FDC01CB01881986
:101150009909AA09BB090597A105B10538F4D80179
:1011600015968C910E949017892B69F30E94311F6C
:101170004B015C010E94561F2B013C0162E0F8010B
:1011800085810E94E817D80115968C910E949017CE
:10119000019749F10E94311FDC01CB01881999099F
:1011A000AA09BB09F60123E0F595E7952A95E1F731
:1011B0008997A105B10520F1E20DF31D8081880F0B
:1011C00081608083BFEFCB1ADB0AE8E2CE16D10440
:1011D000E1F00E94561F4B015C0162E0F80185813D
:1011E0000E94E817BCCF0E94561FDC01CB01841976
:1011F0009509A609B7090597A105B10520F2CACF3F
:10120000E20DF31D8081880FDCCF59814B812D8148
:1012100030E06A81852F90E0860F911D840F911D2B
:101220006C81860F911D99272817390731F4D80151
:1012300013965C93139714964C9382E58093B703AF
:1012400082E48093B80388EC8E9DF0018F9DF00DB1
:101250001124EC59FE4F83818093BA0381E080937F
:10126000BB03E0911103F091120383818093BC03CF
:101270001092BD0384818093BE031092BF038AE065
:101280008093B903E7EBF3E090E08191980FB3E02E
:10129000E03CFB07D1F79093C0038AE01BC7809125
:1012A0000F03909110030097C9F484E090E00E942E
:1012B000A82D8C01F601D5806D2D0E949A15ED2D7B
:1012C000F0E0EE0FFF1FE35EFE4F8181D801139621
:1012D0008C931093100300930F032DC0FC014281E7
:1012E00050E0D60115962C91022E000C330B4217BC
:1012F000530709F10E94402E84E090E00E94A82D3F
:101300006C0188EC8E9DF0018F9DF00D1124EC593D
:10131000FE4F1581612FC6010E949A15E12FF0E062
:10132000EE0FFF1FE35EFE4F8181F6018383D092B3
:101330001003C0920F0382E58093B70382E4809389
:10134000B8031092B90388EC8E9DF0018F9DF00DCB
:101350001124EC59FE4F83818093BA0381E080937E
:10136000BB0380910F03909110030E94751D909311
:10137000BC0380910F03909110030E94751D809310
:10138000BD0388E08093B903E7EBF3E02EEB33E095
:1013900090E08191980F2E173F07D9F744C58091AF
:1013A0000D0390910E03009771F0DC0112964C91A1
:1013B00050E0F6012581022E000C330B4217530733
:1013C000D1F00E94402E84E090E00E94A82D8C0174
:1013D000D6011596DC906D2D0E949A15ED2DF0E04A
:1013E000EE0FFF1FE35EFE4F8181F80183831093B0
:1013F0000E0300930D0382E58093B70382E480938C
:10140000B8031092B90388EC8E9DF0018F9DF00D0A
:101410001124EC59FE4F83818093BA0381E08093BD
:10142000BB0380910D0390910E030E948F12909345
:10143000BC0380910D0390910E030E948F12809344
:10144000BD0388E08093B903E7EBF3E02EEB33E0D4
:1014500090E08191980F2E173F07D9F7E4C480914F
:10146000070390910803009749F485E090E00E94FB
:10147000A82D8C01D60115966C911CC0FC014281EF
:1014800050E0D60115962C91022E000C330B42171A
:101490005307B9F00E94402E85E090E00E94A82DED
:1014A0008C0188EC8E9DF0018F9DF00D1124EC597C
:1014B000FE4F6581C8010E94271610930803009310
:1014C000070382E58093B70382E48093B803109208
:1014D000B90388EC8E9DF0018F9DF00D1124EC591D
:1014E000FE4F83818093BA0381E08093BB03E09138
:1014F0000703F091080383810E94901721E0892B54
:1015000009F020E02093BC0387E08093B903E7EB68
:10151000F3E090E08191980FB3E0ED3BFB07D1F74A
:101520009093BD0387E0D6C5FA0185810E94211BF7
:101530000D9709F0FCC5E0910303F091040328EC3A
:101540002E9DC0012F9D900D11249C012C593E4FC2
:101550006901D90115968C91309729F40E94211BBD
:101560000D97A1F513C0228130E0482F082E000C02
:10157000550B2417350751F10E94211B0D9731F5AA
:1015800080910303909104030E94402E8BE090E031
:101590000E94A82D8C01F60165810E94AA15D80130
:1015A00016961C9216978BEE90E01A969C938E934B
:1015B000199781E090E018969C938E93179710935B
:1015C000040300930303C8010E946B1E28EC2E9DA8
:1015D000C0012F9D900D1124FC01EC59FE4F5F01BD
:1015E000D680F1E0DF1249C08E01075E1F4F9E01D9
:1015F0002F5F3F4FAE014B5E5F4FBE01695E7F4F75
:1016000080910303909104030E941E2882E5809339
:10161000B70382E48093B803D50113968C9180932D
:10162000BA03D092BB03D092BC038F89988D90935C
:10163000BD038093BE038D899E899093BF038093E1
:10164000C00389819A819093C1038093C203898DDD
:101650009A8D9093C3038093C4038FE08093B90362
:10166000E7EBF3E090E08191980FB3E0E53CFB07F6
:10167000D1F79093C5038FE02DC5E2E0DE1257C588
:10168000609003037090040346E0942EC12CD12C8B
:10169000A12CB12C8E010F5F1F4F9E012B5E3F4F7F
:1016A000AE01495E5F4FBE01675E7F4FC3010E947E
:1016B0001E2889819A81A816B90608F45C01C80E13
:1016C000D91E9A949110E6CFCA18DB08C6019695E8
:1016D0008795969587959A83898392E59093B7032A
:1016E00092E49093B80398EC9E9DF0019F9DF00DBD
:1016F0001124EC59FE4F93819093BA0391E090939B
:10170000BB0392E09093BC039D2D96959695909384
:10171000BD038093BE0389E08093B903E7EBF3E058
:1017200090E08191980F23E0EF3BF207D1F7A6C438
:10173000DA0115968C910E94211B0E9709F0F7C4CF
:10174000E0910103F09102033097A9F4F60185813D
:101750000E94211B0E9709F03FC084E490E00E9494
:10176000A82D8C01D60115966C910E94AA1581E0D6
:10177000F801858324C0D60115968C91228130E032
:10178000482F082E000C550B2417350729F10E940D
:10179000211B0E9709F580910103909102030E948D
:1017A000402E84E490E00E94A82D8C01F601658112
:1017B0000E94AA1581E0D80115968C93F801EE5B82
:1017C000FF4F88E690E0918380831093020300939B
:1017D0000103C8010E94EA2600910103109102034F
:1017E000A8014C5C5F4F2EE06BE3C8010E94E51D31
:1017F000F80124A835A832242324322433A222A2BB
:10180000A6A8B7A8BA24AB24BA24B5A2A4A2C0AC97
:10181000D1ACDC24CD24DC24D7A2C6A246805780DC
:101820006084718464AD75AD762767277627072EAF
:10183000000C880B990B0E94742BD80198962D915F
:101840003D914D915C919B970E94E629A3019201E5
:101850000E94CA2AF801668B778B808F918F66ADC4
:1018600077AD762767277627072E000C880B990B14
:101870000E94742BD8019C962D913D914D915C91C5
:101880009F970E94E629A30192010E94CA2AF801AB
:10189000628F738F848F958FE05CFF4F60817181C1
:1018A000762767277627072E000C880B990B0E9456
:1018B000742BD801D0962D913D914D915C91D39789
:1018C0000E94E629A30192010E94CA2AF801668FAC
:1018D000778F80A391A3B501BB0C880B990B0E9455
:1018E000742B4B015C01B601DD0C880B990B0E9437
:1018F000742B9B01AC010E94B02C6B8F7C8F8D8F61
:101900009E8FA5019401C501B4010E94B02C2B8DBE
:101910003C8D4D8D5E8D0E94E7290E94232D6F8F97
:1019200078A389A39AA3B101330C880B990B0E9469
:10193000742B2B013C012F8D38A149A15AA10E9483
:10194000662A20E030E044E353E40E94B02C2AED04
:101950003FE049E450E40E94CA2A6F8F78A389A32C
:101960009AA3A3019201C301B2010E94B02C2B8D56
:101970003C8D4D8D5E8D0E94E7290E94232D9B0199
:10198000AC01C501B4010E94662A20E030E044E3C6
:1019900053E40E94B02C2AED3FE049E450E40E9459
:1019A000CA2A6B8F7C8F8D8F9E8F0E94561F8090CE
:1019B0005E0190905F01A0906001B0906101681994
:1019C00079098A099B090E94722B20E030E04AE7DE
:1019D00054E40E94CA2A4B015C010E94561F609386
:1019E0005E0170935F018093600190936101D80163
:1019F00096968D919C91979718161906ACF55A9664
:101A00002D913D914D915C915D97C501B4010E946E
:101A1000B02C9B01AC01F8016285738584859585A6
:101A20000E94E629D8011A966D937D938D939C931D
:101A30001D9756962D913D914D915C915997C501F9
:101A4000B4010E94B02C9B01AC01F801668577853A
:101A5000808991890E94E729D8011E966D937D9314
:101A60008D939C93519731C0F801228D338D448D15
:101A7000558DC501B4010E94B02C9B01AC01D80169
:101A80001A966D917D918D919C911D970E94E729E9
:101A9000F801628773878487958726893789408D07
:101AA000518DC501B4010E94B02C9B01AC01D8013D
:101AB0001E966D917D918D919C9151970E94E62982
:101AC000F80166877787808B918BD8015E962D9180
:101AD0003D914D915C919197C501B4010E94B02C4C
:101AE000F80122893389448955890E94E7292B010D
:101AF0003C0120E030E044EB53E40E94CA2A0E94FB
:101B0000AF2B20E030E044EB53E40E94B02C9B016B
:101B1000AC01C301B2010E94E629D80152966D932F
:101B20007D938D939C93559720E030E040E05FE3F8
:101B3000C501B4010E94E7299B01AC0160E070E09F
:101B400080E09FE30E94CA2A4B015C019B01AC012B
:101B500060E070E080E89FE30E94E6292B013C01F1
:101B6000F8012285338544855585C501B4010E945D
:101B7000B02C6BA37CA38DA39EA3A30192016F8DB8
:101B800078A189A19AA10E94B02C9B01AC016BA104
:101B90007CA18DA19EA10E94E729D8011A966D9380
:101BA0007D938D939C931D971E962D913D914D9104
:101BB0005C915197C501B4010E94B02C4B015C01AE
:101BC000A30192016B8D7C8D8D8D9E8D0E94B02C1A
:101BD0009B01AC01C501B4010E94E729F8016687A9
:101BE0007787808B918B82E58093B70382E4809323
:101BF000B8031092B90388EC8E9DF0018F9DF00D13
:101C00001124EC59FE4F83818093BA0381E08093C5
:101C1000BB0386818093BC03813009F094C000919E
:101C2000010310910203F80182859385A485B5858F
:101C3000BC01CD01905820E030E048EC52E40E9415
:101C4000B02C0E943C2B4B015C01F80186859785E6
:101C5000A089B189BC01CD01905820E030E048EC6A
:101C600052E40E94B02C0E943C2B6B017C0120E0CE
:101C700030E048EC52E4D80152966D917D918D91FF
:101C80009C9155970E94B02C0E943C2B94011814F3
:101C900019041A041B044CF097FE04C022273327B2
:101CA000281939091092BD0309C097FE04C02227E4
:101CB00033272819390941E04093BD034901330F07
:101CC000AA08BB089092BE032093BF0396011C1480
:101CD0001D041E041F044CF0D7FE04C02227332726
:101CE0002C193D091092C00309C0D7FE04C0222759
:101CF00033272C193D0941E04093C0036901330F9C
:101D0000EE08FF08D092C1032093C20397FD08C0DC
:101D100021E02093C3037093C4036093C50311C0F3
:101D20009B0177FF04C022273327261B370B109215
:101D3000C303C901330FAA0BBB0B9093C4032093B9
:101D4000C503EFE001C0E6E081E08E0F8093B903A8
:101D5000A7EBB3E020E090E03D91930F2F5FE213FB
:101D6000FBCFF0E0E954FC4F9083B4C18091620155
:101D700090916301009771F0FC01428150E0D6011F
:101D800015962C91022E000C330B42175307C1F00D
:101D90000E94402E88E090E00E94A82D8C01F60160
:101DA00065810E94AA1581E0D80115968C9315973C
:101DB00017961C921E92169710936301009362016E
:101DC00082E58093B70382E48093B8031092B9034D
:101DD00088EC8E9DF0018F9DF00D1124EC59FE4F83
:101DE00083818093BA0381E08093BB038091620179
:101DF000909163010E94B1149093BC0380916201A1
:101E0000909163010E94B1148093BD0388E0809398
:101E1000B903E7EBF3E02EEB33E090E08191980F0C
:101E20002E173F07D9F79093BE0388E053C18091E6
:101E3000FB029091FC02009771F489E090E00E940F
:101E4000A82D6C0188EC8E9DF0018F9DF00D112462
:101E5000EC59FE4F1CC0FC01428150E028EC2E9D45
:101E600080012F9D100D11240C591E4FD80115967D
:101E70002C91022E000C330B42175307F9F00E94ED
:101E8000402E89E090E00E94A82D6C01F801158198
:101E9000612FC6010E949A15E12FF0E0EE0FFF1F9F
:101EA000E35EFE4F8081D60114968C931497818156
:101EB00015968C93D092FC02C092FB0288EC8E9D0A
:101EC000F0018F9DF00D1124EC59FE4F858100919A
:101ED000FB021091FC02813019F4F801648105C005
:101EE000823031F4D80115966C91C8010E947312AA
:101EF0006801B6E0CB0ED11CC6010E9447168823AC
:101F000009F4FDC06CECC6010E94EC1664E4C60145
:101F10000E94EC160E94561F2B013C0193E2A92E51
:101F2000B12CF80126810780F085E02D9181822F68
:101F3000809598239183C5010197F1F780818223D1
:101F400009F4CBC0C6010E9447166CECC6010E9482
:101F5000EC166EEBC6010E94EC169E012F5F3F4F00
:101F600029016E0136E0C30ED11C67E070E043E248
:101F700050E08FECA82EB12C88E090E0812C7724E3
:101F80007394D80116966C9016971796ED91FC9164
:101F90001897F8942181262921832281962C9094E8
:101FA00029212283DB011197F1F72181922291826D
:101FB000DA011197F1F720817894F5013197F1F763
:101FC000622209F08728770C0197D9F6F2018192F5
:101FD0002F01EC15FD0581F669817A81072E000C31
:101FE000880B990B0E94742B20E030E040E85DE301
:101FF0000E94B02C20E030E048EC52E40E94B02C6B
:102000004B015C0182E58093B70382E48093B803BF
:1020100088EC8E9DF0018F9DF00D1124EC59FE4F40
:1020200083818093BA0381E08093BB0320E030E09A
:10203000A901C501B4010E94A32C87FD5DC081E008
:102040008093BC03C501B4010E943C2B9B0177FF28
:1020500004C022273327261B370B3093BD03209360
:10206000BE0389E08093B903E7EBF3E02FEB33E0A5
:1020700090E08191980F2E173F07D9F79093BF03F7
:1020800089E028C090E082E58093B70382E48093E2
:10209000B80388EC8E9DF0018F9DF00D1124EC5952
:1020A000FE4F83818093BA0325E081E08093BB03D8
:1020B00086E08093B903E7EBF3E080E03191930F82
:1020C0008F5F8217D8F39093BC038091BA03882363
:1020D00071F186E00E94D9162AC00E94561FDC01C9
:1020E000CB0184199509A609B70981399140A10549
:1020F000B10508F416CF03C01092BC03A3CF82E54C
:102100008093B70382E48093B80388EC8E9DF0013E
:102110008F9DF00D1124EC59FE4F83818093BA03FB
:1021200081E08093BB03812C912C540188CFA6962B
:102130000FB6F894DEBF0FBECDBFDF91CF911F91D8
:102140000F91FF90EF90DF90CF90BF90AF909F9056
:102150008F907F906F905F904F903F902F90089559
:10216000CF92DF92EF92FF920F931F93CF93DF9363
:102170006C017A018B01C0E0D0E0CE15DF0581F063
:10218000D8016D918D01D601ED91FC910190F08106
:10219000E02DC6010995892B11F02196EECF7E0125
:1021A000C701DF91CF911F910F91FF90EF90DF90CA
:1021B000CF9008952091460330914703281739079F
:1021C00071F49091450380914403981741F0E09198
:1021D0004503F0E0E359FC4F808190E008958FEFD4
:1021E0009FEF089508951F93CF93DF93DC015C96D2
:1021F0008D919C915D97009739F421E030E0139622
:102200003C932E9312973BC05196ED91FC915297BF
:1022100050962C915097322F30951FB75E964C9167
:102220005E97742F727041FD6095F894408177231A
:1022300011F0422B01C043234083EC012197F1F7B9
:1022400048E0508160FF02C0522B01C053235083ED
:10225000EC012197F1F76695415099F7808177233A
:1022600019F08323808302C0282B20831FBF5C9634
:102270008D919C915D970197F1F781E090E0DF915E
:10228000CF911F910895209146033091470328175D
:10229000390771F4809144032091450390E0805CFC
:1022A0009F4F821B910960E470E00E947A2D08958F
:1022B00080E090E00895209146033091470328176D
:1022C0003907B9F49091450380914403981789F038
:1022D000E0914503F0E0E359FC4F808120914503F4
:1022E00030E02F5F3F4F2F7333272093450390E05B
:1022F00008958FEF9FEF089508950E94C92E1F92B1
:102300000F920FB60F9211242F933F934F935F9329
:102310006F937F938F939F93AF93BF93EF93FF93AD
:10232000E0914603F0914703309709F451C0968D30
:10233000A685B785858591FF04C09C91892329F4E2
:1023400047C09C91892309F043C0A389B4899C911B
:102350008589809589238C93868997890197F1F7E0
:10236000608D718DA685B785558538E020E0CB015D
:102370000197F1F7822F90E095958795282F4C9142
:10238000452309F02068315091F7868D81FD209515
:102390008091440390E001968F7399273091450313
:1023A000381749F0A0914403B0E0A359BC4F2C93D7
:1023B0008093440303C0868D8160868F828D938DC8
:1023C0000197F1F7A389B4899C918589892B8C9316
:1023D000FF91EF91BF91AF919F918F917F916F91FD
:1023E0005F914F913F912F910F900FBE0F901F90D3
:1023F0001895E0914603F0914703E817F90769F44F
:10240000A389B4899C918589809589238C931092A6
:1024100047031092460381E0089580E008951F92DB
:102420000F920FB60F9211242F933F938F939F9388
:10243000EF93FF9380916C0387FF05C01092850096
:102440001092840005C080916C0387FD80916C031D
:1024500080916C038F5F80936C0380916C0387FF86
:1024600020C080916C038C30E4F420918400309182
:10247000850080916C03082E000C990BFC01EE0F77
:10248000FF1F8E0F9F1FFC01E85BFC4F8181928133
:10249000820F931F909389008093880080916C0332
:1024A00017C08091840090918500049680349C49E7
:1024B00018F480E49CE905C0809184009091850027
:1024C000049690938900809388008FEF80936C032B
:1024D000FF91EF919F918F913F912F910F900FBEA0
:1024E0000F901F901895DC0113966C93139770E072
:1024F000FB01E050FF4FE4911696EC931697FB0119
:10250000E451FF4FE491F0E0EE0FFF1FEE51FF4F5B
:102510008591949118969C938E9317970895AF92F6
:10252000BF92CF92DF92EF92FF920F931F93CF93C0
:10253000DF935C010AE010E0C12CD12C7601C0E0F1
:10254000D0E060E0F50183810E94E817F501838106
:102550000E94D419C817D90708F4EC01C80ED91E77
:10256000E11CF11C0150110961F7D701C6018C1B58
:102570009D0BA109B10923E0B695A795979587957D
:102580002A95D1F7DF91CF911F910F91FF90EF9096
:10259000DF90CF90BF90AF900895CF93DF93EC0181
:1025A00061E08B810E94E8178D818130C1F487E55D
:1025B00092E00197F1F700C0000060E08C810E947A
:1025C000B91760E08B810E94B91761E08C810E948D
:1025D000B91761E08B81DF91CF910C94B91760E05E
:1025E0008C810E94B9179AE19A95F1F700C060E0DA
:1025F0008B810E94B9178AE18A95F1F700C061E0EA
:102600008C810E94B9179AE19A95F1F700C061E0B8
:102610008B810E94B9178AE18A95F1F700C0DF919A
:10262000CF9108951F93CF93DF93EC01162F61E0B4
:102630008B810E94E8178D818130B9F487E592E0A3
:102640000197F1F700C00000111102C060E001C065
:1026500061E08B810E94B91761E08C810E94B917FB
:1026600060E08C810E94B91718C0111102C060E0AF
:1026700001C061E08B810E94B91761E08C810E94EA
:10268000B9179AE19A95F1F700C060E08C810E9439
:10269000B9178AE18A95F1F700C061E08B81DF917B
:1026A000CF911F910C94B9171F93CF93DF93EC0137
:1026B00060E08B810E94E8178D818130D1F487E53D
:1026C00092E00197F1F700C0000061E08B810E9469
:1026D000B91761E08C810E94B9178B810E94901715
:1026E00011E0892B09F410E060E08C810E94B91799
:1026F0001FC061E08B810E94B9179AE19A95F1F7AA
:1027000000C061E08C810E94B9178AE18A95F1F7D7
:1027100000C08B810E94901711E0892B09F410E012
:1027200060E08C810E94B9179AE19A95F1F700C098
:10273000812FDF91CF911F9108950F931F93CF9316
:10274000DF938C0160E0FC0183810E94E817F801AF
:1027500085818130E1F487E592E00197F1F700C0CF
:102760000000D8E061E0F80184810E94B917CC0F25
:10277000F80183810E949017892B09F0C16060E005
:10278000F80184810E94B917D15061F71DC0D8E0CB
:1027900061E0F80184810E94B917CC0FF8018381B0
:1027A0000E949017892B09F0C160FAE1FA95F1F7C0
:1027B00000C060E0F80184810E94B917FAE1FA953F
:1027C000F1F700C0D15021F78C2FDF91CF911F91ED
:1027D0000F9108950F931F93CF93DF93EC01162F62
:1027E00061E08C810E94E81761E08B810E94E8170C
:1027F0008D818130D9F487E592E00197F1F700C02F
:10280000000008E017FF02C061E001C060E08B81BA
:102810000E94B917110F61E08C810E94B91760E026
:102820008C810E94B917015069F720C008E017FF9A
:1028300002C061E001C060E08B810E94B9179AE19B
:102840009A95F1F700C0110F61E08C810E94B917D1
:102850008AE18A95F1F700C060E08C810E94B91787
:102860009AE19A95F1F700C0015009F780E0DF91F5
:10287000CF911F910F910895CF93DF93EC018FE1DA
:1028800093E00197F1F700C00000CE010E94EA1327
:1028900087EC90E00197F1F700C00000CE01DF91D6
:1028A000CF910C945413CF93DF93EC0161E08C81B2
:1028B0000E94E81761E08B810E94E8178D818130CA
:1028C000C1F487E592E00197F1F700C0000061E0F4
:1028D0008B810E94B91761E08C810E94B91760E07A
:1028E0008B810E94B91760E08C81DF91CF910C94AD
:1028F000B91761E08B810E94B9179AE19A95F1F7B7
:1029000000C061E08C810E94B9178AE18A95F1F7D5
:1029100000C060E08B810E94B9179AE19A95F1F7A7
:1029200000C060E08C810E94B9178AE18A95F1F7B6
:1029300000C0DF91CF9108951F93CF93DF93EC01F7
:10294000162F0E945314612F660FCE010E94EA13C6
:1029500080EA8A95F1F7CE01DF91CF911F910C9417
:102960005413CF92DF92FF920F931F93CF93DF9375
:1029700000D000D0CDB7DEB78C0161E70E949C1477
:1029800060EBC8010E943C14C8010E94CD126AE0AD
:1029900070E080E090E00E94E71AC8010E945314A2
:1029A00063EEC8010E94EA13C8010E94541334E088
:1029B000F32ECE0101966C01FA94C801FF2051F06C
:1029C0000E949D13F60181936F0160E0C8010E948F
:1029D0001213F2CF0E949D138C8361E0C8010E9404
:1029E0001213C8010E94CD1289818A3A59F48C8150
:1029F0008B3B41F48A8190E0982F88272B81820FAE
:102A0000911D02C081E090E0F80197838683F80170
:102A1000868197810F900F900F900F90DF91CF914B
:102A20001F910F91FF90DF90CF900895FC01A3813B
:102A3000B481478120853185C901880F991F280FEE
:102A4000391F728563855FB7F8948C91942F9095A8
:102A50009823842BE72FF62F2E0F3F1FE217F30743
:102A600081F0419168E08C9300C047FF9C93440F34
:102A700000C000C000C008F49C9300C06A9599F79C
:102A8000EDCF5FBF789461E070E080E090E00C945F
:102A9000E71A0F93FC01A62FB0E080859185A81757
:102AA000B907B8F4862F880F680F70E0A285B38548
:102AB000A60FB71F2C93A285B385A60FB71F11963B
:102AC0004C9382859385FC01E60FF71F028381E01A
:102AD00001C080E00F910895CF92DF92EF92FF92B4
:102AE0000F931F93CF93DF937C01142FD22EC02E10
:102AF000611111C0C0E0D0E0F70180859185C81751
:102B0000D90770F40C2D2D2D412F6C2FC7010E9479
:102B100049152196F1CF61500E94491580E001C00E
:102B200081E0DF91CF911F910F91FF90EF90DF90A7
:102B3000CF900895DC01E62FF0E0EE0FFF1FE35E7B
:102B4000FE4F80818C93818111968C931197129600
:102B50006C9308950F931F93CF938C01C62F0E94FF
:102B60009A15EC2FF0E0EE0FFF1FE35EFE4F818120
:102B7000D80113968C931397808114968C93149795
:102B800015961C92CF911F910F9108950F931F934B
:102B9000CF938C01C62F0E94AA15EC2FF0E0EE0F08
:102BA000FF1FE35EFE4F8081F80186831582CF917F
:102BB0001F910F9108950F931F93CF938C01C62FF0
:102BC0000E949A15EC2FF0E0EE0FFF1FE35EFE4F20
:102BD0008081D80113968C931397918114969C93BE
:102BE00061E00E94E81761E0F8018481CF911F91B4
:102BF0000F910C94E8171F93CF93DF93EC01162FDE
:102C00000E949A15E12FF0E0EE0FFF1FE35EFE4FEA
:102C10008181282F30E0F901E050FF4FE491EF83EC
:102C2000F901E451FF4FE491F0E0EE0FFF1FEC5388
:102C3000FF4F259134913C832B8361E00E94E8177C
:102C400064E0CE01DF91CF911F910C94A7161F93E2
:102C5000CF93DF93EC01162F0E949A15E12FF0E03D
:102C6000EE0FFF1FE35EFE4F81818B8380818C839B
:102C70008B8160E00E94E8178C8161E00E94E81778
:102C80008C8160E0DF91CF911F910C94B917DC012A
:102C90002C911196ED91FC911297F8948181922FCD
:102CA00090958923818378948DE743E050E08150AB
:102CB00021F1DA011197F1F730813223C1F3F89451
:102CC0008281892382838181822B81837894ABE7FF
:102CD000B7E01197F1F7F89481819823918383E10C
:102CE00091E00197F1F78081282381E009F080E0ED
:102CF0007894E3E6F6E03197F1F70895833081F0B8
:102D000028F4813099F08230A1F008958730A9F03D
:102D10008830B9F08430D1F4809180008F7D03C079
:102D2000809180008F7780938000089584B58F779D
:102D300002C084B58F7D84BD08958091B0008F77E7
:102D400003C08091B0008F7D8093B0000895CF9331
:102D5000DF93EC01862F90E09987888723E0629FBC
:102D6000C00111240E94A82D9B878A87892B21F4FA
:102D700088E391E00E94CE2E80E090E0288539859E
:102D8000A901440F551F240F351F8217930738F4EC
:102D9000EA85FB85E80FF91F10820196EFCFDF91DE
:102DA000CF9108959091C00095FFFCCF8093C6000D
:102DB00008950F931F93CF93C82F07EB13E0CC23F5
:102DC00039F0F80181918F010E94D216C150F7CFDE
:102DD000CF911F910F910895AF92BF92CF92DF9242
:102DE000EF92FF920F931F93CF93DF93DC0128E0C4
:102DF00030E091E0AA24AA94B12C0FE010E043E265
:102E0000E42EF12C57EDC52ED12C8C911196ED911D
:102E1000FC911297482F4095562F592381F0F89432
:102E20005281452342834181482B4183E701219709
:102E3000F1F74281842B82837894F6010FC0F894D5
:102E40005281452342834181482B4183E5012197EB
:102E5000F1F74281842B82837894F8013197F1F75E
:102E6000990F2150310989F6F8941196ED91FC9152
:102E7000129791818C918095892381831196ED9190
:102E8000FC91129792818C9180958923828378940A
:102E9000DF91CF911F910F91FF90EF90DF90CF9036
:102EA000BF90AF9008950F931F93CF93DF93EC01E2
:102EB000162F042F0E94531462E5CE010E94EA13DC
:102EC000CE010E945413612F6068CE010E94EA1364
:102ED000CE010E945413602FCE010E94EA13CE014E
:102EE0000E945413CE010E94CD12802FDF91CF910A
:102EF0001F910F910895CF93DF93EC010E9453141B
:102F000068E4CE010E94EA13CE010E94541361E3EB
:102F1000CE010E94EA13CE01DF91CF910C94CD1225
:102F2000CF93DF93282F30E0F901E253FF4F8491D4
:102F3000F901E050FF4FD491F901E451FF4FC491E2
:102F4000CC2391F081110E947E16EC2FF0E0EE0F61
:102F5000FF1FEE51FF4FA591B491EC91ED2381E05D
:102F600090E021F480E002C080E090E0DF91CF911A
:102F700008951F93CF93DF93282F30E0F901E25398
:102F8000FF4F8491F901E050FF4FD491F901E451D2
:102F9000FF4FC491CC23C1F0162F81110E947E16E1
:102FA000EC2FF0E0EE0FFF1FEC53FF4FA591B49113
:102FB0009FB7F894111104C08C91D095D82302C00A
:102FC000EC91DE2BDC939FBFDF91CF911F91089591
:102FD000CF93DF9390E0FC01E050FF4F2491FC0180
:102FE000E451FF4F8491882361F190E0880F991F8D
:102FF000FC01E654FF4FC591D491FC01EC53FF4F07
:10300000A591B491611109C09FB7F894888120956A
:1030100082238883EC912E230BC0623061F49FB72A
:10302000F8948881322F309583238883EC912E2B5E
:103030002C939FBF06C08FB7F894E8812E2B28836E
:103040008FBFDF91CF9108954F925F926F927F92E1
:103050008F929F92AF92BF92CF92DF92EF92FF92A8
:103060000F931F93CF93DF934A015B019C0140E0D4
:1030700050E060E472E48FE090E00E9483296901EF
:103080007A0161E08091B5030E94E817A8EEB3E0F1
:10309000A50194010E94A2292B013C01E601D7FC65
:1030A0002196D595C7958E01000F111F000F111F96
:1030B000055011090D2C000CEE08FF08812C912CF5
:1030C000540184149504A604B704E0F461E08091EF
:1030D000B5030E94B917C230D10518F0C801019795
:1030E000F1F760E08091B5030E94B917C230D105B5
:1030F00018F0C8010197F1F7A8958C0C9D1CAE1C27
:10310000BF1CDFCFDF91CF911F910F91FF90EF9008
:10311000DF90CF90BF90AF909F908F907F906F90F7
:103120005F904F900895CF92DF92EF92FF926C39AB
:103130002FEF72078207920784F19B01AC0165367D
:1031400071058105910524F024E630E040E050E06F
:1031500057FD27C0AFEFB0E00E94A22924E630E07F
:1031600040E050E00E94832969017A01232B242B3F
:10317000252B11F460E001C061E089E00E94E817AE
:1031800060E08AE00E94E817D0928900C09288002F
:1031900010928B0010928A0028C02CE93FEF4FEF6D
:1031A0005FEFA1E0BFEF0E94B02924E630E040E0ED
:1031B00050E00E94832969017A0161E08AE00E945F
:1031C000E81760E089E00E94E817D0928B00C09277
:1031D0008A001092890010928800C092AD03D092AC
:1031E000AE03E092AF03F092B003FF90EF90DF9058
:1031F000CF9008951F93CF93DF93182FEB0161E0D9
:103200000E94E817209711F460E004C0CF3FD10579
:1032100039F461E0812FDF91CF911F910C94B917A0
:10322000E12FF0E0E253FF4FE491E330F9F048F48E
:10323000E130B9F0E230A1F584B5806284BDC8BD4B
:1032400034C0E730E9F0E83019F1E43049F5809115
:103250008000806280938000D0938B00C0938A00AE
:1032600024C084B5806884BDC7BD1FC08091800024
:10327000806880938000D0938900C093880015C037
:103280008091B00080688093B000C093B3000DC0FF
:103290008091B00080628093B000C093B40005C0FC
:1032A000C038D1050CF0B5CFAFCFDF91CF911F91D2
:1032B0000895CF92DF92EF92FF920F931F93CF93D7
:1032C000DF936C392FEF7207820792070CF43FC02F
:1032D0009B01AC01653671058105910524F024E65A
:1032E00030E040E050E057FD36C0AFEFB0E00E9464
:1032F000A22924E630E040E050E00E9483296901E1
:103300007A01D22FCD2D8701232B242B252B11F4CD
:1033100060E001C061E086E00E94E81760E085E0BF
:103320000E94E817B60186E00E94FA18D093B10314
:10333000C093B2030093B3031093B403DF91CF9112
:103340001F910F91FF90EF90DF90CF9008952CE99F
:103350003FEF4FEF5FEFA1E0BFEF0E94B02924E6FF
:1033600030E040E050E00E948329D22FC32F8A0131
:1033700061E085E00E94E81760E086E00E94E817BF
:103380006D2F7C2F85E0D0CFCF92DF92EF92FF920E
:1033900069017A010E945919C701B601FF90EF90A7
:1033A000DF90CF900C9493188E3008F08E50877079
:1033B000806480937C0080917A00806480937A009E
:1033C00080917A0086FDFCCF809178002091790071
:1033D00090E0922B0895BF92CF92DF92EF92FF92EE
:1033E0000F931F93CF93DF933AE0B32EC12CD12CD0
:1033F0007601CFEFD3E000E010E084E10E94D41921
:103400000817190708F48C018C179D0708F4EC01C4
:10341000C80ED91EE11CF11CBA94B110EECFD70131
:10342000C601801B910BA109B1098C1B9D0BA10941
:10343000B10923E0B695A795979587952A95D1F779
:10344000833F23E09207A105B10508F084C08B3CBF
:1034500023E09207A105B10508F080C0873B23E077
:103460009207A105B10508F0A6C0833A23E09207B0
:10347000A105B10508F075C0853823E09207A105C4
:10348000B10508F071C08C3623E09207A105B105A3
:1034900008F06DC0813223E09207A105B10508F064
:1034A00069C08F3F22E09207A105B10508F065C011
:1034B000813D22E09207A105B10508F061C08F3976
:1034C00022E09207A105B10508F05DC08D3622E02B
:1034D0009207A105B10508F059C08F3422E0920788
:1034E000A105B10508F055C0833122E09207A1057E
:1034F000B10508F051C08B3E21E09207A105B1054E
:1035000008F04DC0873A21E09207A105B10508F007
:1035100052C08C3721E09207A105B10508F042C0E6
:103520008A3521E09207A105B10508F044C0823335
:1035300021E09207A105B105C0F58F3021E0920787
:10354000A105B105A8F5803D9105A105B10598F14A
:1035500084E090E032C080E090E02FC083E190E012
:103560002CC08CE090E029C08AE090E026C085E085
:1035700090E023C089E090E020C08BE090E01DC087
:103580008DE090E01AC082E090E017C080E190E00A
:1035900014C08EE090E011C088E090E00EC083E09F
:1035A00090E00BC087E090E008C082E190E005C0A9
:1035B00086E090E002C08FEF90E0DF91CF911F9105
:1035C0000F91FF90EF90DF90CF90BF9008958F9272
:1035D0009F92AF92BF92CF92DF92EF92FF926B01D8
:1035E0007C010E94311F4B015C01C114D104E10434
:1035F000F104F1F00E94311FDC01CB018819990917
:10360000AA09BB09883E9340A105B10570F321E0EA
:10361000C21AD108E108F10888EE880E83E0981EEE
:10362000A11CB11CC114D104E104F10419F7DDCFD0
:10363000FF90EF90DF90CF90BF90AF909F908F90D2
:1036400008958230D1F018F4813089F008958330E4
:1036500021F0843031F560E00BC060E087E00E942B
:10366000B91760E08DE00E94B91761E00FC061E01A
:1036700087E00E94B91760E005C061E087E00E9422
:10368000B91761E08DE00E94B91760E08CE00E94FC
:10369000B91769E170E080E090E00E94E71A0C94AD
:1036A000EB1908954F925F926F927F929F92AF9223
:1036B000BF92CF92DF92EF92FF920F931F93CF931F
:1036C000DF93CDB7DEB728970FB6F894DEBF0FBEF5
:1036D000CDBF7C01CE0101966C015E0199E0A90E7F
:1036E000B11C992493940E94561FF7014084518481
:1036F00062847384DC01CB0184199509A609B7099A
:103700004197A105B10508F09782F70187818823C9
:1037100009F466C00E94561FF7016087718782878F
:103720009387178260E4C7010E949C1462EAC70174
:103730000E943C1462EAC7010E943C1462EAC7017D
:103740000E943C1461E0C7010E943C14C7010E9422
:10375000CD12F701868160E00E94E817F7018681AB
:1037600090E0FC01E050FF4F6491FC01E451FF4FF9
:10377000E491F0E0EE0FFF1FEE51FF4F8591949121
:1037800000E712E620E030E040E00E94AF1F611544
:1037900071058105910551F02B013C01FFEF4F1A96
:1037A0005F0A6F0A7F0A2FE0722203C0412C512C5E
:1037B00032018CE2481681E058066104710430F051
:1037C0009CE2491A91E0590A61087108C301B201EB
:1037D0000E94742BF701648775878687978709C0D5
:1037E000F70164857585868597850E943C2B2B01A2
:1037F0003C01141415041604170434F084EA482E0E
:1038000088E3582E612C712CC301B2010E94742BE5
:1038100020E030E048E652E40E94CA2AF6016193B3
:103820007193819391936F0162E170E080E090E089
:103830000E94E71AAC14BD0409F055CFC980DA80A4
:10384000EB80FC807D809E80AF80B884272D392D51
:10385000A501B601C7010E94A32C87FF03C0C72C96
:10386000D92C7501B601C70128960FB6F894DEBFB2
:103870000FBECDBFDF91CF911F910F91FF90EF90C1
:10388000DF90CF90BF90AF909F907F906F905F90B0
:103890004F9008950F931F93CF93DF93EC01162F52
:1038A0004F960E949A15E12FF0E0EE0FFF1FE35EA6
:1038B000FE4F118100811B821A8288EE93E0A0E006
:1038C000B0E08C839D83AE83BF838FE091E09983CA
:1038D00088831F8A1E8A198E188E1B8E1A8E1D8E43
:1038E0001C8E6E8D6E7F6D7F6E8F6695617081E030
:1038F0006827812F0E94B91761E0812F0E94E81785
:10390000812F90E0FC01E050FF4FE491E88BFC0137
:10391000E451FF4FE491F0E0EE0FFF1FEC53FF4F37
:10392000859194919A8B898B60E0802F0E94E81793
:103930008E8D81FD04C061E0802F0E94B9170C8735
:10394000802F90E0FC01E050FF4FE491ED87FC01F7
:10395000E451FF4FE491F0E0EE0FFF1FEE51FF4FF7
:10396000859194919F878E878FE091E099838883DA
:1039700083E08AA31B8E1A8E198E188E1F8A1E8AC8
:1039800085E690E09D8F8C8F063108F04EC081E275
:1039900090E09F8B8E8B83E690E0998F888F82E4F6
:1039A00090E09B8F8A8F30916800083058F021E0BA
:1039B0000E3008F420E091E0892F01C0880F2A958D
:1039C000EAF701C084E0832B809368009C859830DF
:1039D00038F09E3040F0963148F020E030E008C0EA
:1039E0002DE630E005C02BE630E002C02CE630E0EA
:1039F0003C8B2B8B983030F481E001C0880F9A9576
:103A0000EAF70EC0292F30E09E3018F42850310913
:103A100002C02E50310981E001C0880F2A95EAF7D3
:103A20008D8B8C8D9D8D0197F1F78A8D9B8D892BC8
:103A3000E1F08091460390914703C817D907A9F098
:103A4000009711F00E94F9118E8D8E7F8E8F10924B
:103A5000440310924503D0934703C0934603EB8978
:103A6000FC8990818D89892B8083DF91CF911F9173
:103A70000F9108950F931F93CF93DF93EC018B81E8
:103A80000E9490178C018C810E949017AC0121E05C
:103A900030E0012B11F420E030E0220F331F81E0F1
:103AA000452B09F480E0822BDF91CF911F910F917C
:103AB00008951F93CF93DF93EC01162F0E949A1560
:103AC000E12FF0E0EE0FFF1FE35EFE4F80818B835E
:103AD00081818C838B8160E00E94E8178C8160E09B
:103AE000DF91CF911F910C94E8178F929F92AF9224
:103AF000BF92CF92DF92EF92FF920F931F93CF93DB
:103B0000DF937C010AE010E0812C912C5401C0E08D
:103B1000D0E0C12C34E0D32E60E0F70183810E9415
:103B2000E817F70183810E94D4199601281B390BED
:103B3000C901C217D30708F4E901880E991EA11C18
:103B4000B11C0150110941F7D501C4018C1B9D0B1B
:103B5000A109B10923E0B695A795979587952A9570
:103B6000D1F7DF91CF911F910F91FF90EF90DF90F0
:103B7000CF90BF90AF909F908F900895CF93DF9399
:103B8000EC010E94AA1581E08D83CE010E9453149E
:103B900067EECE010E943C1460E8CE010E943C1406
:103BA00064EACE010E943C146AE9CE010E943C14F2
:103BB00061E8CE010E943C1463E8CE010E943C14EF
:103BC000CE01DF91CF910C94CD12CF92DF92EF9284
:103BD000FF920F931F93CF93DF93EC01E62E8A01A0
:103BE000F22E0E9453146E0182E4C80ED11CF6011D
:103BF0006081660FCE010E94EA13CE010E94541329
:103C00006E2DCE010E94EA13CE010E945413CE0104
:103C10000E94CD12F0E5FA95F1F7CE010E945314FF
:103C2000F6016081660F6160CE010E94EA13CE0149
:103C30000E945413FA94EF2C6801EE2061F0CE013B
:103C40000E949D13F60181936F0160E0CE010E94F6
:103C50001213EA94F2CF0F0D111DCE010E949D1395
:103C6000F801808361E0CE010E941213CE01DF9142
:103C7000CF911F910F91FF90EF90DF90CF900C9418
:103C8000CD120F931F93CF93DF938C01D62FC42FA8
:103C90000E9453146D2F660F6A59C8010E94EA13DF
:103CA000C8010E945413EC2FC7FF07C0EF77F0E064
:103CB000E95DFE4F6081606804C0F0E0E95DFE4FA1
:103CC0006081C8010E94EA13C801DF91CF911F9162
:103CD0000F910C94CD120F931F93CF93DF93EC01B0
:103CE0000E94531462E5CE010E94EA13CE010E94A5
:103CF000541362E9CE010E94EA13CE010E945413CC
:103D0000CE010E94531463E5CE010E94EA13CE0156
:103D10000E945413CE010E949D13182F61E0CE0122
:103D20000E941213CE010E94CD12143411F01031F2
:103D300061F581E08E8319850A85412F61E0CE010E
:103D40000E94531719870A871F8108858E81811168
:103D500003C0CE010E946B1E412F6FE0CE010E9476
:103D600053171F83088741E060E0CE010E9453177C
:103D700063E070E080E090E00E94E71A43E060E0DA
:103D8000CE010E94531781E001C080E0DF91CF9106
:103D90001F910F9108951F920F920FB60F92112449
:103DA0002F933F938F939F93AF93BF93EF93FF9383
:103DB0009091C6008091810481110EC0923509F066
:103DC00043C0E091800438ECE39FF0011124EC59EA
:103DD000FE4F908381E00EC0813091F4923469F4FB
:103DE000E091800488ECE89FF0011124EC59FE4F2B
:103DF000918382E08093810427C01092810424C0C3
:103E00002091800438EC239FF0011124EC59FE4FDF
:103E1000DF01A80FB11D9C938F5F80938104928175
:103E2000891710F4883C80F0109281048091F4028C
:103E3000222321F010928004826004C091E09093CC
:103E4000800481608093F402FF91EF91BF91AF9164
:103E50009F918F913F912F910F900FBE0F901F90C8
:103E600018953FB7F8948091870490918804A091A9
:103E70008904B0918A0426B5A89B05C02F3F19F08C
:103E80000196A11DB11D3FBFBA2FA92F982F8827DA
:103E9000820F911DA11DB11DBC01CD0142E0660F35
:103EA000771F881F991F4A95D1F708952FB7F89467
:103EB00060918304709184048091850490918604BC
:103EC0002FBF08951F920F920FB60F9211242F93B8
:103ED0003F938F939F93AF93BF938091830490916F
:103EE0008404A0918504B09186043091820423E07B
:103EF000230F2D3720F40196A11DB11D05C026E822
:103F0000230F0296A11DB11D209382048093830488
:103F100090938404A0938504B093860480918704D1
:103F200090918804A0918904B0918A040196A11D02
:103F3000B11D8093870490938804A0938904B09363
:103F40008A04BF91AF919F918F913F912F910F90D4
:103F50000FBE0F901F90189580E090E00895CF92CB
:103F6000DF92EF92FF920F931F93E82FF92F05C076
:103F7000015011092109310961F1908196239417AB
:103F8000B9F305C0015011092109310911F19081DE
:103F900096239413F7CFC12CD12CE12CF12C0AC01D
:103FA0008FEFC81AD80AE80AF80A0C151D052E0565
:103FB0003F0579F080818623841791F36C2D7D2D48
:103FC0008E2D9F2D1F910F91FF90EF90DF90CF903E
:103FD000089560E070E080E090E01F910F91FF9005
:103FE000EF90DF90CF900895CF93DF9300D000D073
:103FF0001F92CDB7DEB7789484B5826084BD84B556
:10400000816084BD85B5826085BD85B5816085BDD3
:1040100080916E00816080936E001092810080918B
:104020008100826080938100809181008160809313
:104030008100809180008160809380008091B10038
:1040400084608093B1008091B00081608093B00063
:1040500080917A00846080937A0080917A008260F7
:1040600080937A0080917A00816080937A008091B9
:104070007A00806880937A001092C10060E088E046
:104080000E94E8178091C00082608093C000109267
:10409000C50080E18093C4008091C1008068809356
:1040A000C1008091C10080618093C1008091C100F6
:1040B00088608093C1008091C20084608093C200B8
:1040C0008091C20082608093C2006CE271E080E067
:1040D00090E00E94E71A61E08091B5030E94E81722
:1040E00060E08091B5030E94B91700E020E040E055
:1040F00060E087E193E00E946C15E2E0F1E0E4917A
:10410000E0931E03EEEEF0E0E491F0E0EE0FFF1F0F
:10411000EC53FF4F8591949190931B0380931A0366
:1041200061E082E00E94E81720E040E060E087E183
:1041300093E00E946C1587E193E00E9416156CE2F3
:1041400071E080E090E00E94E71A20E04EE160E03C
:1041500087E193E00E946C1587E193E00E941615B9
:104160006CE271E080E090E00E94E71A2EE140E00E
:1041700060E087E193E00E946C1587E193E00E9484
:1041800016156CE271E080E090E00E94E71A0EE103
:1041900020E040E060E087E193E00E946C1587E159
:1041A00093E00E9416156CE271E080E090E00E94BE
:1041B000E71A44EF51E060E070E084EF91E00E9484
:1041C000241861E085E00E94E81761E086E00E9423
:1041D000E81761E089E00E94E81761E08AE00E9448
:1041E000E8178DEA809380008BE080938100109225
:1041F00089001092880010928B0010928A0064EF60
:1042000071E080E090E00E94E71A82E50E94D216F9
:1042100082E40E94D21686E00E94D21680E00E94BC
:10422000D21683E00E94D2168DE90E94D2169FE03A
:1042300088E10FB6F894A895809360000FBE909324
:104240006000A8953FE0232E31E0332EA8958091A1
:10425000F40280FF36C08E7F8093F4028091660165
:1042600050E040E090E00197252F30E02817390713
:104270003CF4F901EC59FE4F2081420F5F5FF4CF0F
:10428000FC01EC59FE4F8081481302C080E037C02A
:1042900082E50E94D21682E40E94D21687E00E9434
:1042A000D216809167010E94D216809168010E9407
:1042B000D21680E00E94D216909167018091680129
:1042C00039C081FF3BC08D7F8093F40280912E0224
:1042D00050E040E090E00197252F30E028173907A3
:1042E0003CF4F901E45DFD4F2081420F5F5FF4CFA4
:1042F000FC01E45DFD4F8081481304C081E00E9411
:10430000B6001CC082E50E94D21682E40E94D2163A
:1043100087E00E94D21680912F020E94D2168091CF
:1043200030020E94D21680E00E94D21690912F0295
:1043300080913002890F86560E94D21688E00E9432
:104340009017019719F481E08093290388E00E9477
:104350009017892B21F480912903811197C48091B2
:104360002803882309F45EC0109228038091F50287
:104370008823F1F082E50E94D21682E40E94D216D0
:1043800088E00E94D21680E00E94D21681E00E944E
:10439000D21689EF0E94D21681E00E94D21687E9D8
:1043A0000E94D21687E90E94D21687E90E94D2168F
:1043B00080912603813041F1A8F0823099F500E028
:1043C00020E042E360E087E193E00E946C1587E122
:1043D00093E00E94161581E08093260383E080938A
:1043E000230320C000E022E340E060E087E193E0A7
:1043F0000E946C1587E193E00E94161522E020933D
:104400002603209323030EC002E320E040E060E097
:1044100087E193E00E946C1587E193E00E941615F6
:104420001092260380912703882309F469C08091A4
:10443000F7029091F802A091F902B091FA02019668
:10444000A11DB11D883EE3E09E07A105B10548F41A
:104450008093F7029093F802A093F902B093FA02C6
:1044600047C01092F7021092F8021092F9021092CF
:10447000FA0285E10E94D419BC0180E090E00E941C
:10448000722B20E030E040E75CE30E94B02C6B012F
:104490007C0120E030E040E050E40E94A32C18169C
:1044A0003CF52AE939E949ED50E4C701B6010E941B
:1044B000C52A87FF1DC082E50E94D21682E40E94B1
:1044C000D21688E00E94D21680E00E94D21682E0C6
:1044D0000E94D2168DEF0E94D21681E00E94D21661
:1044E0008CE90E94D2168091F6028F5F8093F602CB
:1044F0008091F6028A3020F01092F6021092270383
:1045000080912603813009F48FC120F0823009F4B4
:10451000D4C2B4C30E94561F0091340310913503D6
:104520002091360330913703DC01CB01801B910BC6
:10453000A20BB30B81329340A105B10508F49EC3D1
:1045400080E3A82E83E0B82E9CE2C92E93E0D92EFA
:104550000DE111E01A82912C9394892D0E94211B68
:10456000882ED5018D935D0181110BC060E0F801AB
:1045700082810E94E81760E0D80113968C910E9416
:10458000E817D601EC918E1609F402C18E2F90E047
:10459000FC013297E231F10508F0F8C0EC5CFF4F06
:1045A0000C948E2D8091150390911603009731F095
:1045B0000E94402E1092160310921503809113034F
:1045C00090911403009731F00E94402E1092140332
:1045D000109213038091240390912503009709F40E
:1045E000B4C00E94402E1092250310922403BCC038
:1045F0008091110390911203009709F4A6C00E94C4
:10460000402E1092120310921103BDC080910F032F
:1046100090911003009709F498C00E94402E1092C8
:10462000100310920F03B2C080910D0390910E03FE
:10463000009709F48AC00E94402E10920E03109237
:104640000D035CC080910B0390910C03009709F45B
:104650007CC00E94402E10920C0310920B035DC090
:104660008091090390910A03009709F46EC00E949B
:10467000402E10920A0310920903A1E0AA8388C079
:104680008091070390910803009731F00E94402E1B
:104690001092080310920703E0900503F0900603C0
:1046A000E114F10409F451C0C7010E94F911F701A6
:1046B00031822082C7010E94F911C7010E94402E59
:1046C00010920603109205035EC080912A03909118
:1046D0002B030097D1F10E94402E10922B031092D1
:1046E0002A0354C08091030390910403009769F159
:1046F0000E94402E109204031092030381E08A83EB
:1047000047C080910103909102030097F1F00E944D
:10471000402E109202031092010391E09A8338C058
:10472000E090FF02F0900003E114F10471F0D70172
:104730001A968D919C911B970E94402EC7010E9452
:10474000402E109200031092FF02B1E0BA8320C005
:104750008091FD029091FE020097B9F30E94402ED5
:104760001092FE021092FD02E1E0EA8311C08091F6
:10477000FB029091FC02009741F30E94402E1092A0
:10478000FC021092FB02F1E0FA8302C021E02A83CE
:10479000D6018D926D010E5F1F4FB4E09B12DCCEEF
:1047A000EA81EE23B1F182E58093B70382E480933E
:1047B000B8031092BA03F5E0F093BB0380912C0389
:1047C0008093BC0380912D038093BD0380912E03C1
:1047D0008093BE0380912F038093BF031092C00388
:1047E0001092C1031092C2031092C3032EE02093D3
:1047F000B903E7EBF3E081919981980F9983A4ECD9
:10480000B3E0AE17BF07B9F79093C4038EE00E94E0
:10481000D9160E94561F609334037093350380931A
:104820003603909337032AC28091150390911603A3
:10483000009769F0FC01428150E020912303022E91
:10484000000C330B4217530779F00E94402E80E191
:1048500090E00E94A82D8C01609123030E94C61550
:10486000109316030093150380911503909116037E
:104870000E94521B6A837B838C839D8340903C0300
:1048800050903D0360903E0370903F032DEC3CEC54
:104890004CEC5DE3609138037091390380913A03E9
:1048A00090913B030E94E7296B017C0120E030E0FE
:1048B00040E850E40E94E7299B01AC01C701B60122
:1048C0000E94CA2A4B015C01A30192016A817B818B
:1048D0008C819D810E94E629A50194010E94B02C43
:1048E0009B01AC01C301B2010E94E7292B013C01ED
:1048F000A501940160E070E080E89FE30E94E62952
:10490000A70196010E94B02C60933803709339037D
:1049100080933A0390933B0340923C0350923D03B3
:1049200060923E0370923F0320E030E04CE552E499
:10493000C301B2010E94A32C18162CF4109241035B
:10494000109240032DC020E030E04CE052E4C3015F
:10495000B2010E94A32C1091410387FD14C020E0F6
:1049600030E04CE552E4C301B2010E94C52A18169A
:1049700054F0111102C081E003C081E08093400334
:10498000809341030DC01123B1F3113021F4F2E003
:10499000F093410305C022E020934003209341039C
:1049A000809140038130E1F020F0823009F446C06C
:1049B00065C122E330E040E050E062E370E080E077
:1049C00090E00E94C41902E320E040E060E087E14B
:1049D00093E00E946C1587E193E00E9416154EC18A
:1049E00000E020E042E360E087E193E00E946C1584
:1049F00087E193E00E9416150E942C2928EC30E0F4
:104A000040E050E00E948329653648F022E630E01D
:104A100040E050E06EE97FEF8FEF9FEF08C02EE996
:104A20003FEF4FEF5FEF62E670E080E090E00E94C2
:104A3000C41966E272E080E090E01EC100E022E36B
:104A400040E060E087E193E00E946C1587E193E02D
:104A50000E94161529EC3FEF4FEF5FEF69EC7FEFF7
:104A60008FEF9FEF0E94C4196CE271E080E090E04C
:104A70000E94E71AA8950E942C2928EC30E040E01B
:104A800050E00E948329653648F022E630E040E09D
:104A900050E06EE97FEF8FEF9FEF08C02EE93FEF08
:104AA0004FEF5FEF62E670E080E090E00E94C41993
:104AB0006AE872E080E090E0DFC08091240390918A
:104AC0002503009771F0DC0112964C9150E0209183
:104AD0002303022E000C330B4217530779F00E9478
:104AE000402E85E090E00E94A82D8C016091230368
:104AF0000E94591D109325030093240380912403E1
:104B0000909125030E943A1D8130E9F030F0823007
:104B100081F1833009F44FC0B1C02AE230E040E0B7
:104B200050E06AE270E080E090E00E94C419BAE0D0
:104B3000B093000100E028EC40E060E087E193E002
:104B40000E946C152FC02AE230E040E050E06AE29B
:104B500070E080E090E00E94C419809100018230F2
:104B600018F081508093000100E020E048EC60E004
:104B700015C02AE230E040E050E06AE270E080E0F8
:104B800090E00E94C41980910001843118F48F5F75
:104B90008093000100E020E048EC61E087E193E0D1
:104BA0000E94491587E193E00E9416151092430375
:104BB0001092420363C0809100018A3049F42EECC8
:104BC0003FEF4FEF5FEF6EEC7FEF8FEF9FEF13C084
:104BD0008A3048F42DE230E040E050E066EA7FEFB2
:104BE0008FEF9FEF08C026EA3FEF4FEF5FEF6DE2D8
:104BF00070E080E090E00E94C4198091420390919F
:104C000043030196909343038093420380914203B0
:104C1000909143038035934C88F180E593EC909319
:104C200043038093420320E030E0A90160E070E09C
:104C3000CB010E94C41900E020E040E060E087E181
:104C400093E00E946C1587E193E00E94161564EFD3
:104C500071E080E090E00E94E71A20E040E560E02B
:104C600087E193E00E946C1587E193E00E9416159E
:104C700064EF71E080E090E00E94E71AA0E0B0E00D
:104C8000AB2B09F4E3CA0E940000E0CA81E08093E4
:104C900028031092290363CB70E080E090E00E942B
:104CA000722B2CE53FE842EA5FE30E94CA2A0E9489
:104CB000432B862F653B30F4611102C087E008C0AA
:104CC000643B11F486E204C066E00E946E2D885FAA
:104CD0008093B300089570E080E090E00E94722B12
:104CE0002CE53FE842EA5FE30E94CA2A0E94432B78
:104CF000862F653B30F4611102C087E008C0643B39
:104D000011F486E204C066E00E946E2D885F8093F5
:104D1000B40008950F931F93CF93DF93EC01162FE8
:104D20000E94531462E5CE010E94EA13CE010E9454
:104D30005413612F6068CE010E94EA13CE010E94D5
:104D40005413CE010E94531463E5CE010E94EA136E
:104D5000CE010E945413CE010E949D13182F60E0D3
:104D6000CE010E941213CE010E949D13082F61E014
:104D7000CE010E941213CE010E94CD12812F90E02D
:104D8000902BDF91CF911F910F910895FF920F9378
:104D90001F93CF93DF93EC01F62E042F122F60E5C3
:104DA0000E949C1463EACE010E943C146F2DCE0138
:104DB0000E943C14602FCE010E943C14612FCE0152
:104DC0000E943C14CE01DF91CF911F910F91FF9073
:104DD0000C94CD124F925F926F927F928F929F921E
:104DE000AF92BF92CF92DF92EF92FF920F931F93F9
:104DF000CF93DF9300D000D000D0CDB7DEB79E8335
:104E00008D8380E090E0A3E8B2E4ED81FE818683AB
:104E10009783A087B1871286138614861586168617
:104E20001786108A118A128A138A148A158A168A9A
:104E3000178A108E118E128E138E148E158E168E6A
:104E4000178E10A211A213A212A215A214A217A2C9
:104E500016A210A611A612A613A614A615A616A68B
:104E600017A610AA11AA12AA13AA64E670E080E09D
:104E700090E00E94E71A40E06BE68D819E810E94DF
:104E8000F5276EE170E080E090E00E94E71A41E0D3
:104E90006AE18D819E810E94F52748E06BE18D815A
:104EA0009E810E94F52762E370E080E090E00E941E
:104EB000E71A04EF11E019821A821B821C82812CEE
:104EC000912C5401412C512C3201ED80FE80F4E3F1
:104ED000EF0EF11C26E0A70163E48D819E810E9404
:104EE000E51DED81FE8184A995A99827892798273A
:104EF000092E000CAA0BBB0B480E591E6A1E7B1E06
:104F000086A997A9982789279827092E000CAA0B0C
:104F1000BB0B880E991EAA1EBB1E80AD91AD9827B3
:104F200089279827092E000CAA0BBB0B29813A81EF
:104F30004B815C81280F391F4A1F5B1F29833A83ED
:104F40004B835C83A8950150110921F684EFC82E8C
:104F5000DD24D394E12CF12CC301B201A701960109
:104F60000E948329CA01B9010E94742BED81FE8140
:104F700060A771A782A793A7C501B401A7019601F5
:104F80000E948329CA01B9010E94742BED81FE8120
:104F900064A775A786A797A769817A818B819C8171
:104FA000A70196010E948329CA01B9010E94742BAE
:104FB000ED81FE8160AB71AB82AB93AB26960FB6F1
:104FC000F894DEBF0FBECDBFDF91CF911F910F913F
:104FD000FF90EF90DF90CF90BF90AF909F908F9019
:104FE0007F906F905F904F9008950F931F93CF9392
:104FF000DF93EC01062F142F0E945314FE01EE5B89
:10500000FF4F6081660FCE010E94EA13CE010E941D
:105010005413602FCE010E94EA13CE010E94541354
:10502000612FCE010E94EA13CE010E945413CE01DB
:10503000DF91CF911F910F910C94CD12AF92BF923F
:10504000CF92DF92EF92FF920F931F93CF93DF9354
:10505000EC015B016A0179018E81811103C0CE01EF
:105060000E946B1E64E1CE010E948A26F8019183A2
:10507000808366E1CE010E948A26F50191838083B8
:1050800068E1CE010E948A26F601918380836AE15D
:10509000CE010E948A26F7019183808389859A85B3
:1050A000853D910519F150F4009729F1803C910557
:1050B00091F56AE970E080E090E021C0863F9105BB
:1050C00081F08F3F910541F08B3E910521F562E320
:1050D00070E080E090E013C063E070E080E090E07A
:1050E0000EC068E170E080E090E009C065E670E025
:1050F00080E090E004C06CEB72E080E090E0DF9133
:10510000CF911F910F91FF90EF90DF90CF90BF90C4
:10511000AF900C94E71ADF91CF911F910F91FF9000
:10512000EF90DF90CF90BF90AF90089580912103D2
:10513000909122030C94402EA7E1B3E01C921196AB
:105140001C92119712961C921297E0E0F1E0E49104
:105150001796EC931797ECEEF0E0E491F0E0EE0F89
:10516000FF1FEC53FF4F8591949114969C938E935F
:10517000139761E080E00E94E81762E087E193E026
:105180000E94A71684E08093B50360E084E10E944A
:10519000E81761E08CE00E94E81761E08DE00E9472
:1051A000E81761E087E00E94E81760E08CE00E9469
:1051B000B91760E08DE00E94B91760E087E00C94B9
:1051C000B9178F929F92AF92BF92CF92DF92EF92D8
:1051D000FF92CF93DF93EC01688179818A819B8173
:1051E000611571058105910521F464E279ED8BE586
:1051F00097E02DE133EF41E050E00E94832949011F
:105200005A019B01AC01A7EAB1E40E94A2296B01FB
:105210007C01ACEEB4EFA50194010E94B029DC0141
:10522000CB018C0D9D1DAE1DBF1DB7FF03C00197A7
:10523000A109B04888839983AA83BB83BC01CD01AF
:105240009F77DF91CF91FF90EF90DF90CF90BF904D
:10525000AF909F908F9008958F929F92AF92BF9240
:10526000CF92DF92EF92FF92609101017091020163
:1052700080910301909104016115710581059105EB
:1052800021F464E279ED8BE597E02DE133EF41E025
:1052900050E00E94832949015A019B01AC01A7EA11
:1052A000B1E40E94A2296B017C01ACEEB4EFA50130
:1052B00094010E94B029DC01CB018C0D9D1DAE1D17
:1052C000BF1DB7FF03C00197A109B048809301013A
:1052D00090930201A0930301B0930401BC01CD019E
:1052E0009F77FF90EF90DF90CF90BF90AF909F900F
:1052F0008F900895609301017093020180930301E0
:10530000909304010895052E97FB1EF400940E94CB
:105310009A2957FD07D00E94B52907FC03D04EF407
:105320000C949A2950954095309521953F4F4F4FB9
:105330005F4F089590958095709561957F4F8F4F41
:105340009F4F08950E94D729A59F900DB49F900D5F
:10535000A49F800D911D11240895B7FF0C94A229DC
:105360000E94A229821B930B0895A1E21A2EAA1B68
:10537000BB1BFD010DC0AA1FBB1FEE1FFF1FA21705
:10538000B307E407F50720F0A21BB30BE40BF50B02
:10539000661F771F881F991F1A9469F7609570958B
:1053A000809590959B01AC01BD01CF010895A29F0E
:1053B000B001B39FC001A39F700D811D1124911DE9
:1053C000B29F700D811D1124911D08955058BB2767
:1053D000AA270E94FE290C94512C0E94432C38F0DD
:1053E0000E944A2C20F039F49F3F19F426F40C94C3
:1053F000192C0EF4E095E7FB0C94EA2BE92F0E94A0
:10540000622C58F3BA17620773078407950720F0D8
:1054100079F4A6F50C949C2C0EF4E0950B2EBA2F83
:10542000A02D0B01B90190010C01CA01A0011124AA
:10543000FF27591B99F0593F50F4503E68F11A1656
:10544000F040A22F232F342F4427585FF3CF4695E7
:1054500037952795A795F0405395C9F77EF41F1609
:10546000BA0B620B730B840BBAF09150A1F0FF0FD3
:10547000BB1F661F771F881FC2F70EC0BA0F621FBF
:10548000731F841F48F4879577956795B795F795AF
:105490009E3F08F0B0CF9395880F08F09927EE0F44
:1054A0009795879508950E94432C60F080E891E0DD
:1054B00009F49EEF0E944A2C28F040E851E071F474
:1054C0005EEF0CC00C94192C0C949C2CE92FE07806
:1054D0000E94622C40F3092E052AB1F326173707E4
:1054E0004807590738F00E2E07F8E02569F0E02547
:1054F000E0640AC0EF6307F8009407FADB01B90122
:105500009D01DC01CA01AD01EF930E94E12A0E94D6
:10551000512C0E94962A5F91552339F02BED3FE0E4
:1055200049E450FD49EC0C94E7290895DF93DD2709
:10553000B92FBF7740E85FE31616170648075B07E9
:1055400018F4D92F0E94A82C9F938F937F936F9369
:105550000E94632DECE8F0E00E941C2C0E94512C6C
:105560002F913F914F915F910E94C32CDD2351F009
:105570009058A2EA2AED3FE049EC5FE3D0785D273E
:105580000E94FE29DF910C94512C0E94C62B08F436
:1055900081E008950E94DE2A0C94512C0E944A2C2E
:1055A00058F00E94432C40F029F45F3F29F00C94FE
:1055B000EA2B51110C949D2C0C94192C0E94622CF6
:1055C00068F39923B1F3552391F3951B550BBB2732
:1055D000AA2762177307840738F09F5F5F4F220F77
:1055E000331F441FAA1FA9F335D00E2E3AF0E0E86E
:1055F00032D091505040E695001CCAF72BD0FE2FB8
:1056000029D0660F771F881FBB1F2617370748074B
:10561000AB07B0E809F0BB0B802DBF01FF27935803
:105620005F4F3AF09E3F510578F00C94EA2B0C94B2
:105630009D2C5F3FE4F3983ED4F38695779567956C
:10564000B795F7959F5FC9F7880F911D9695879538
:1056500097F90895E1E0660F771F881FBB1F621757
:1056600073078407BA0720F0621B730B840BBA0B15
:10567000EE1F88F7E09508950E94432B6894B111BE
:105680000C949D2C08950E946A2C88F09F5798F0E6
:10569000B92F9927B751B0F0E1F0660F771F881F37
:1056A000991F1AF0BA95C9F714C0B13091F00E9451
:1056B0009C2CB1E008950C949C2C672F782F8827A0
:1056C000B85F39F0B93FCCF3869577956795B39578
:1056D000D9F73EF490958095709561957F4F8F4FE7
:1056E0009F4F0895E89409C097FB3EF490958095EC
:1056F000709561957F4F8F4F9F4F9923A9F0F92F98
:1057000096E9BB279395F695879577956795B79515
:10571000F111F8CFFAF4BB0F11F460FF1BC06F5FFB
:105720007F4F8F4F9F4F16C0882311F096E911C00D
:10573000772321F09EE8872F762F05C0662371F02E
:1057400096E8862F70E060E02AF09A95660F771F42
:10575000881FDAF7880F9695879597F908950E9424
:10576000842C90F09F3748F4911116F00C949D2CE6
:1057700060E070E080E89FEB089526F41B16611D41
:10578000711D811D0C94F02B0C940B2C990F0008AB
:10579000550FAA0BE0E8FEEF16161706E807F90703
:1057A000C0F012161306E407F50798F0621B730B9E
:1057B000840B950B39F40A2661F0232B242B252B1F
:1057C00021F408950A2609F4A140A6958FEF811DC2
:1057D000811D089597F99F6780E870E060E0089563
:1057E000882371F4772321F09850872B762F07C0F8
:1057F000662311F499270DC09051862B70E060E06C
:105800002AF09A95660F771F881FDAF7880F96950A
:10581000879597F908959F3F31F0915020F487952F
:1058200077956795B795880F911D9695879597F908
:1058300008959FEF80EC0895DF93CF931F930F930C
:10584000FF92EF92DF927B018C01689406C0DA2E02
:10585000EF010E94C32CFE01E894A591259135919A
:1058600045915591A6F3EF010E94FE29FE01970193
:10587000A801DA9469F7DF90EF90FF900F911F91E4
:10588000CF91DF91089500240A9416161706180682
:105890000906089500240A94121613061406050634
:1058A0000895092E0394000C11F4882352F0BB0FC5
:1058B00040F4BF2B11F460FF04C06F5F7F4F8F4F28
:1058C0009F4F089557FD9058440F551F59F05F3F63
:1058D00071F04795880F97FB991F61F09F3F79F012
:1058E00087950895121613061406551FF2CF469594
:1058F000F1DF08C0161617061806991FF1CF869516
:1059000071056105089408950E946A2CA0F0BEE715
:10591000B91788F4BB279F3860F41616B11D672F9E
:10592000782F8827985FF7CF869577956795B11D73
:1059300093959639C8F30895E894BB27662777278F
:10594000CB0197F908950E94C62B08F48FEF0895B4
:105950009B01AC0160E070E080E89FE30C94CA2AF0
:105960000E94C32C0C94512C0E94432C38F00E94AE
:105970004A2C20F0952311F00C94EA2B0C94192C4E
:1059800011240C949D2C0E94622C70F3959FC1F3FE
:10599000950F50E0551F629FF001729FBB27F00DDD
:1059A000B11D639FAA27F00DB11DAA1F649F662732
:1059B000B00DA11D661F829F2227B00DA11D621F81
:1059C000739FB00DA11D621F839FA00D611D221F3B
:1059D000749F3327A00D611D231F849F600D211D1F
:1059E000822F762F6A2F11249F5750409AF0F1F0A2
:1059F00088234AF0EE0FFF1FBB1F661F771F881F0B
:105A000091505040A9F79E3F510580F00C94EA2B2D
:105A10000C949D2C5F3FE4F3983ED4F386957795E4
:105A20006795B795F795E7959F5FC1F7FE2B880FB0
:105A3000911D9695879597F9089519F416F40C948D
:105A4000192C0C940B2C0E946A2CB8F39923C9F3DF
:105A5000B6F39F57550B87FF0E94672D0024A0E6E1
:105A600040EA900180585695979528F4805C660F1F
:105A7000771F881F20F026173707480730F4621B6E
:105A8000730B840B202931294A2BA6951794079470
:105A9000202531254A2758F7660F771F881F20F0E9
:105AA00026173707480730F4620B730B840B200D61
:105AB000311D411DA09581F7B901842F9158880FA0
:105AC0009695879508959B01AC010C94B02C91504C
:105AD0005040660F771F881FD2F70895991B79E011
