:100000000C94C0000C94E8000C94E8000C9442148A
:100010000C9442140C9442140C94E8000C94E800E4
:100020000C94E8000C94E8000C94E8000C94D214B2
:100030000C94E8000C94E8000C94E8000C94E800A0
:100040000C949F240C94E8000C9408240C94E80071
:100050000C94E8000C94E8000C94E8000C94E80080
:100060000C94E8000C94E8001B019601C8010502FD
:100070007002D7034B04C0044E0633057009E4092F
:10008000600D0F0BCA0B4C0CBF0CEA27F627022899
:10009000482810281E282C283A285628622881280B
:1000A0008F289D281F29D3281F29C328AB28E32880
:1000B000F22801291029A50DCF0D60130C0E320E68
:1000C0006013601360136013601360136013601398
:1000D00060136013710E9C0EDA0E6C0F930F4F0FAE
:1000E000390F601357106610D11060135011601350
:1000F000AF124512084AD73B3BCE016E84BCBFFD10
:10010000C12F3D6C74319ABD56833DDA3D00C77FE7
:1001100011BED9E4BB4C3E916BAAAABE0000008080
:100120003F0000000000240027002A00000000001B
:10013000250028002B000000000800020100000339
:100140000407000000000000000000000000230081
:100150002600290004040404040404040202020228
:10016000020203030303030301020408102040807A
:10017000010204081020010204081020832B7D2BAB
:1001800011241FBECFEFD8E0DEBFCDBF11E0A0E04D
:10019000B1E0E4EEF3E602C005900D92A435B1079C
:1001A000D9F724E0A4E5B1E001C01D92A939B20756
:1001B000E1F710E0CFEBD0E004C02197FE010E94F0
:1001C0007530CE3BD107C9F70E9431250C94E5313B
:1001D0000C9400002F923F924F925F926F927F9209
:1001E0008F929F92AF92BF92CF92DF92EF92FF9247
:1001F0000F931F93CF93DF93CDB7DEB76E970FB6F4
:10020000F894DEBF0FBECDBFE82EF12C28EC829F04
:10021000F0011124E25AFE4FE4818E2F90E0FC01A0
:10022000E15AF109E131F10510F00C94600DEC5C3C
:10023000FF4F0C94753088EC8E9D80018F9D100DC2
:100240001124025A1E4FD80115968C910E94A21FAC
:10025000029711F00C94600D809117039091180390
:10026000009741F480E190E00E948F306C01F8012A
:10027000658116C0DC0112964C9150E0F801258191
:10028000022E000C330B4217530789F00E942731CE
:1002900080E190E00E948F306C01D80115966C913E
:1002A000C6010E94E118D0921803C09217038091F2
:1002B0001703909118030E94D31F20E030E040E222
:1002C00051E40E94972F0E94232E9B0142E5409308
:1002D000BB0342E44093BC0348EC4E9DF0014F9DAC
:1002E000F00D1124E25AFE4F43814093BE0341E0DA
:1002F0004093BF03AB0177FF02C041505F4F509363
:10030000C003C90160E071E00E9461308093C103C5
:1003100088E08093BD03EBEBF3E080E09191890FDF
:10032000B3E0E23CFB07D1F70C94300D88EC8E9DD6
:10033000F0018F9DF00D1124E25AFE4F8581893F17
:1003400011F00C94600D82E58093BB0382E48093EE
:10035000BC031092BD0383818093BE0311E0109310
:10036000BF0388E00E94E71A019719F41092C003B6
:1003700002C01093C00387E08093BD03EBEBF3E072
:1003800080E09191890F23E0E13CF207D1F766C349
:1003900088EC8E9D80018F9D100D1124025A1E4FF6
:1003A000D80115968C918D3F11F00C94600D85E16C
:1003B0000E942B1D22E3FC012E9FC0012F9F900D58
:1003C000112422E52093BB0322E42093BC03D8012F
:1003D00013962C912093BE0321E02093BF036FEF6F
:1003E00073E00E946130862F880F680F6093C0030E
:1003F00087E08093BD03EBEBF3E080E09191890F00
:10040000B3E0E13CFB07D1F729C38091260390912B
:1004100027030097B1F485E090E00E948F308C01B3
:1004200088EC8E9DF0018F9DF00D1124E25AFE4F55
:100430006581C8010E94DA211093270300932603E7
:1004400023C0FC01428150E028EC2E9D80012F9DAD
:10045000100D1124025A1E4FD80115962C91022E10
:10046000000C330B4217530779F00E94273185E0C7
:1004700090E00E948F306C01F80165810E94DA21C2
:10048000D0922703C092260382E58093BB0382E4C7
:100490008093BC031092BD0388EC8E9DF0018F9D6C
:1004A000F00D1124E25AFE4F83818093BE0381E058
:1004B0008093BF0380912603909127030E94BB2164
:1004C0008093C00387E08093BD03EBEBF3E021EC66
:1004D00033E080E09191890F2E173F07D9F7BEC214
:1004E00088EC8E9D80018F9D100D1124025A1E4FA5
:1004F000D80115968C910E94A21F069711F00C94BA
:10050000600D8091130390911403009771F0FC012A
:10051000428150E0D80115962C91022E000C330B2D
:1005200042175307D1F00E94273186E090E00E94E5
:100530008F306C01F8011581612F0E94A118E12F05
:10054000F0E0EE0FFF1FE35EFE4F8181D6011596AE
:100550008C93D0921403C092130300911303109153
:100560001403FE0131961F0185E0DF011D928A957B
:10057000E9F761E0F80185810E943F1B61E0D80145
:1005800015968C910E94101B6AEF70E080E090E05D
:100590000E945D1E60E0F80185810E94101B64E1ED
:1005A00070E080E090E00E945D1E61E0D801159649
:1005B0008C910E94101B8BE990E00197F1F760E0AD
:1005C000F80185810E94101B83E290E00197F1F70A
:1005D0000E9493244B015C0162E0D80115968C9136
:1005E0000E943F1BF80185810E94E71A019791F054
:1005F0000E949324DC01CB0188199909AA09BB093F
:100600000597A105B10570F3D80113961C921397B5
:1006100014961C920E9493244B015C0162E0F80145
:1006200085810E943F1BD80115968C910E94E71A84
:10063000892B19F4C12CD12C53C00E949324DC01C6
:10064000CB0188199909AA09BB090597A105B1052C
:1006500050F3F0CF0E949324DC01CB018819990953
:10066000AA09BB090597A105B10538F4D80115966B
:100670008C910E94E71A892B69F30E946E244B012A
:100680005C010E9493242B013C0162E0F80185810A
:100690000E943F1BD80115968C910E94E71A019782
:1006A00049F10E946E24DC01CB0188199909AA093D
:1006B000BB09F60153E0F595E7955A95E1F789975F
:1006C000A105B10520F1E20DF31D8081880F816045
:1006D0008083BFEFCB1ADB0AE8E2CE16D104E1F04B
:1006E0000E9493244B015C0162E0F80185810E9425
:1006F0003F1BBCCF0E949324DC01CB0184199509D8
:10070000A609B7090597A105B10520F2CACFE20DE8
:10071000F31D8081880FDCCF59814B812D8130E022
:100720006A81852F90E0860F911D840F911D6C8149
:10073000860F911D99272817390731F4D801139690
:100740005C93139714964C9382E58093BB0382E4E9
:100750008093BC0388EC8E9DF0018F9DF00D1124D9
:10076000E25AFE4F83818093BE0381E08093BF03F2
:10077000E0911303F091140383818093C0031092DE
:10078000C10384818093C2031092C3038AE08093E3
:10079000BD03EBEBF3E080E09191890FB3E0E43C23
:1007A000FB07D1F78093C4038AE00C94330D80914A
:1007B0001103909112030097B1F484E090E00E943D
:1007C0008F308C0188EC8E9DF0018F9DF00D1124EF
:1007D000E25AFE4F6581C8010E94B11810931203BE
:1007E0000093110323C0FC01428150E028EC2E9DB0
:1007F00080012F9D100D1124025A1E4FD80115960D
:100800002C91022E000C330B4217530779F00E94F3
:10081000273184E090E00E948F306C01F8016581FF
:100820000E94B118D0921203C092110382E5809306
:10083000BB0382E48093BC031092BD0388EC8E9DC1
:10084000F0018F9DF00D1124E25AFE4F83818093B9
:10085000BE0381E08093BF03809111039091120346
:100860000E9409229093C00380911103909112037A
:100870000E9409228093C10388E08093BD03EBEBC3
:10088000F3E022EC33E080E09191890F2E173F07CF
:10089000D9F70C94300D80910F03909110030097BD
:1008A000B1F484E090E00E948F308C0188EC8E9D42
:1008B000F0018F9DF00D1124E25AFE4F6581C801B1
:1008C0000E94B1181093100300930F0324C0DC01A1
:1008D00012964C9150E028EC2E9D80012F9D100D1A
:1008E0001124025A1E4FF8012581022E000C330BF1
:1008F0004217530781F00E94273184E090E00E9464
:100900008F306C01D80115966C910E94B118D0926D
:100910001003C0920F0382E58093BB0382E48093AF
:10092000BC031092BD0388EC8E9DF0018F9DF00DED
:100930001124E25AFE4F83818093BE0381E08093AD
:10094000BF0380910F03909110030E945E15909356
:10095000C00380910F03909110030E945E15809355
:10096000C10388E08093BD03EBEBF3E022EC33E0BE
:1009700080E09191890F2E173F07D9F70C94300D25
:100980008091090390910A030097B1F485E090E00B
:100990000E948F308C0188EC8E9DF0018F9DF00DB0
:1009A0001124E25AFE4F6581C8010E94421910933A
:1009B0000A030093090323C0FC01428150E028ECA4
:1009C0002E9D80012F9D100D1124025A1E4FD8011B
:1009D00015962C91022E000C330B4217530779F019
:1009E0000E94273185E090E00E948F306C01F80171
:1009F00065810E944219D0920A03C092090382E5E0
:100A00008093BB0382E48093BC031092BD0388EC07
:100A10008E9DF0018F9DF00D1124E25AFE4F8381CF
:100A20008093BE0381E08093BF03E0910903F091BE
:100A30000A0383810E94E71A21E0892B09F020E054
:100A40002093C00387E08093BD03EBEBF3E080E0ED
:100A50009191890F23E0E13CF207D1F78093C10324
:100A600087E00C94330D88EC8E9D80018F9D100DD6
:100A70001124025A1E4FD80115968C910E94A21F74
:100A80000D9711F00C94600DE0910503F0910603B1
:100A90003097E1F4F80185810E94A21F0D9709F0BB
:100AA0004BC08BE090E00E948F306C01D80115960E
:100AB0006C910E94C518F60116828BEE90E0928729
:100AC000818781E090E0908787832FC0D8011596B9
:100AD0008C91228130E0482F082E000C550B2417F2
:100AE000350751F10E94A21F0D9731F58091050342
:100AF000909106030E9427318BE090E00E948F3096
:100B00006C01F80165810E94C518D60116961C92E9
:100B100016978BEE90E01A969C938E93199781E02E
:100B200090E018969C938E931797D0920603C092EC
:100B30000503C6010E94302328EC2E9DC0012F9D85
:100B4000900D1124FC01E25AFE4F5F01D680F1E0C6
:100B5000DF1249C08E010F5E1F4F9E012F5F3F4F76
:100B6000AE01435F5F4FBE01615F7F4F8091050320
:100B7000909106030E94902382E58093BB0382E458
:100B80008093BC03D50113968C918093BE03D092C1
:100B9000BF03D092C0038F8598899093C10380933F
:100BA000C2038D859E859093C3038093C40389817E
:100BB0009A819093C5038093C60389899A899093FB
:100BC000C7038093C8038FE08093BD03EBEBF3E092
:100BD00080E09191890FB3E0E93CFB07D1F7809366
:100BE000C9038FE040C7E2E0DE126AC760900503E8
:100BF0007090060346E0942EC12CD12CA12CB12C70
:100C00008E010F5F1F4F9E01235F3F4FAE01415F7B
:100C10005F4FBE016F5E7F4FC3010E9490238981A9
:100C20009A81A816B90608F45C01C80ED91E9A94D8
:100C30009110E6CFCA18DB08C60196958795969560
:100C400087959A83898392E59093BB0392E490936E
:100C5000BC0398EC9E9DF0019F9DF00D1124E25A7B
:100C6000FE4F93819093BE0391E09093BF0392E077
:100C70009093C0039D2D969596959093C103809374
:100C8000C20389E08093BD03EBEBF3E080E0919138
:100C9000890F23E0E33CF207D1F7BDC488EC8E9DB9
:100CA00080018F9D100D1124025A1E4FD8011596F8
:100CB0008C910E94A21F0E9709F002C7E0910303D6
:100CC000F09104033097A9F4F80185810E94A21FD6
:100CD0000E9709F03FC084E490E00E948F306C01D1
:100CE000D80115966C910E94C51881E0F6018583A4
:100CF00024C0D80115968C91228130E0482F082E0F
:100D0000000C550B2417350729F10E94A21F0E97DE
:100D100009F580910303909104030E94273184E434
:100D200090E00E948F306C01F80165810E94C51827
:100D300081E0D60115968C93F601EE5BFF4F88E6B5
:100D400090E091838083D0920403C0920303C60194
:100D50000E94971E0091030310910403A8014C5CAC
:100D60005F4F2EE06BE3C8010E94AA22F80124A87D
:100D700035A832242324322433A222A2A6A8B7A85D
:100D8000BA24AB24BA24B5A2A4A2C0ACD1ACDC2452
:100D9000CD24DC24D7A2C6A246805780608471840B
:100DA00064AD75AD762767277627072E000C880B74
:100DB000990B0E945B2ED80198962D913D914D91F3
:100DC0005C919B970E94CD2CA30192010E94B12DB2
:100DD000F801668B778B808F918F66AD77AD762724
:100DE00067277627072E000C880B990B0E945B2E35
:100DF000D8019C962D913D914D915C919F970E94B9
:100E0000CD2CA30192010E94B12DF801628F738F46
:100E1000848F958FE05CFF4F608171817627672713
:100E20007627072E000C880B990B0E945B2ED801A9
:100E3000D0962D913D914D915C91D3970E94CD2CF0
:100E4000A30192010E94B12DF801668F778F80A3D4
:100E500091A3B501BB0C880B990B0E945B2E4B0133
:100E60005C01B601DD0C880B990B0E945B2E9B0187
:100E7000AC010E94972F6B8B7C8B8D8B9E8BA50179
:100E80009401C501B4010E94972F2B893C894D899B
:100E90005E890E94CE2C0E940A306F8B788F898FDA
:100EA0009A8FB101330C880B990B0E945B2E2B019A
:100EB0003C012F89388D498D5A8D0E944D2D20E09F
:100EC00030E044E353E40E94972F2AED3FE049E4E9
:100ED00050E40E94B12D6F8B788F898F9A8FA30178
:100EE0009201C301B2010E94972F2B893C894D8941
:100EF0005E890E94CE2C0E940A309B01AC01C50184
:100F0000B4010E944D2D20E030E044E353E40E9400
:100F1000972F2AED3FE049E450E40E94B12D6B8BFE
:100F20007C8B8D8B9E8B0E9493248090540190909B
:100F30005501A0905601B0905701681979098A09A6
:100F40009B090E94592E20E030E04AE754E40E94B9
:100F5000B12D4B015C010E94932460935401709366
:100F600055018093560190935701D80196968D9123
:100F70009C91979718161906ACF55A962D913D91AC
:100F80004D915C915D97C501B4010E94972F9B0123
:100F9000AC01F80162857385848595850E94CD2C0E
:100FA000D8011A966D937D938D939C931D975696B9
:100FB0002D913D914D915C915997C501B4010E94CD
:100FC000972F9B01AC01F80166857785808991890F
:100FD0000E94CE2CD8011E966D937D938D939C9389
:100FE000519731C0F801228D338D448D558DC50147
:100FF000B4010E94972F9B01AC01D8011A966D9104
:101000007D918D919C911D970E94CE2CF801628755
:1010100073878487958726893789408D518DC501CF
:10102000B4010E94972F9B01AC01D8011E966D91CF
:101030007D918D919C9151970E94CD2CF8016687EE
:101040007787808B918BD8015E962D913D914D9144
:101050005C919197C501B4010E94972FF8012289F4
:101060003389448955890E94CE2C2B013C0120E014
:1010700030E044EB53E40E94B12D0E94962E20E014
:1010800030E044EB53E40E94972F9B01AC01C30175
:10109000B2010E94CD2CD80152966D937D938D9311
:1010A0009C93559720E030E040E05FE3C501B40138
:1010B0000E94CE2C9B01AC0160E070E080E09FE3D9
:1010C0000E94B12D4B015C019B01AC0160E070E01E
:1010D00080E89FE30E94CD2C2B013C01F801228582
:1010E000338544855585C501B4010E94972F6B8FC8
:1010F0007C8F8D8F9E8FA30192016F89788D898D52
:101100009A8D0E94972F9B01AC016B8D7C8D8D8DEC
:101110009E8D0E94CE2CD8011A966D937D938D934F
:101120009C931D971E962D913D914D915C915197E9
:10113000C501B4010E94972F4B015C01A3019201EC
:101140006B897C898D899E890E94972F9B01AC01B8
:10115000C501B4010E94CE2CF80166877787808B89
:10116000918B82E58093BB0382E48093BC03109251
:10117000BD0388EC8E9DF0018F9DF00D1124E25A85
:10118000FE4F83818093BE0381E08093BF038681FD
:101190008093C003813009F094C000910303109143
:1011A0000403F80182859385A485B585BC01CD0132
:1011B000905820E030E048EC52E40E94972F0E94C3
:1011C000232E4B015C01F80186859785A089B189A2
:1011D000BC01CD01905820E030E048EC52E40E9480
:1011E000972F0E94232E6B017C0120E030E048EC19
:1011F00052E4D80152966D917D918D919C915597B5
:101200000E94972F0E94232E9401181419041A0487
:101210001B044CF097FE04C02227332728193909F4
:101220001092C10309C097FE04C022273327281952
:10123000390941E04093C1034901330FAA08BB08B3
:101240009092C2032093C30396011C141D041E0434
:101250001F044CF0D7FE04C0222733272C193D0968
:101260001092C40309C0D7FE04C0222733272C19CB
:101270003D0941E04093C4036901330FEE08FF08C4
:10128000D092C5032093C60397FD08C021E02093A8
:10129000C7037093C8036093C90311C09B0177FF14
:1012A00004C022273327261B370B1092C703C9011E
:1012B000330FAA0BBB0B9093C8032093C903EFE035
:1012C00001C0E6E081E08E0F8093BD03ABEBB3E09D
:1012D00020E090E03D91930F2F5FE213FBCF55C2CA
:1012E00080915C0190915D01009779F488E090E035
:1012F0000E948F308C0188EC8E9DF0018F9DF00D47
:101300001124E25AFE4F65811FC0DC0112964C91F8
:1013100050E068EC6E9D90016F9D300D1124F90135
:10132000E25AFE4F6F012581022E000C330B42174B
:101330005307B1F00E94273188E090E00E948F307F
:101340008C01D60115966C91C8010E94C51881E0E8
:10135000F80185831782168210935D0100935C016A
:1013600082E58093BB0382E48093BC031092BD03AB
:1013700088EC8E9DF0018F9DF00D1124E25AFE4FF6
:1013800083818093BE0381E08093BF0380915C01E1
:1013900090915D010E947A179093C00380915C0147
:1013A00090915D010E947A178093C10388E0809339
:1013B000BD03EBEBF3E022EC33E080E09191890F89
:1013C0002E173F07D9F74CC38091FD029091FE0282
:1013D000009771F489E090E00E948F306C0188ECF6
:1013E0008E9DF0018F9DF00D1124E25AFE4F1CC01E
:1013F000FC01428150E028EC2E9D80012F9D100DB4
:101400001124025A1E4FD80115962C91022E000C61
:10141000330B42175307F9F00E94273189E090E01F
:101420000E948F306C01F8011581612FC6010E9466
:10143000A118E12FF0E0EE0FFF1FE35EFE4F808169
:10144000D60114968C931497818115968C93D09223
:10145000FE02C092FD0288EC8E9DF0018F9DF00D82
:101460001124E25AFE4F86810091FD021091FE0286
:10147000813019F4F801648105C0823031F4D8015B
:1014800015966C91C8010E9436156801B6E0CB0E26
:10149000D11CC6010E946219882309F4F9C26CECC0
:1014A000C6010E94071A64E4C6010E94071A0E943E
:1014B00093242B013C0193E2A92EB12CF801268143
:1014C0000780F085E02D9181822F8095982391836C
:1014D000C5010197F1F78081822309F4C7C2C601D3
:1014E0000E9462196CECC6010E94071A6EEBC601DD
:1014F0000E94071AAE014F5F5F4F2A016E0156E04E
:10150000C50ED11C67E070E043E250E08FECA82EDE
:10151000B12C88E090E0812C77247394D801169642
:101520006C9016971796ED91FC911897F89421817D
:10153000262921832281962C909429212283DB0164
:101540001197F1F7218192229182DA011197F1F737
:1015500020817894F5013197F1F7622209F087280C
:10156000770C0197D9F6F20181922F01EC15FD0558
:1015700081F669817A81072E000C880B990B0E94F5
:101580005B2E20E030E040E85DE30E94972F20E0F2
:1015900030E048EC52E40E94972F4B015C0182E559
:1015A0008093BB0382E48093BC0388EC8E9DF001A2
:1015B0008F9DF00D1124E25AFE4F83818093BE036C
:1015C00081E08093BF0320E030E0A901C501B401B0
:1015D0000E948A2F87FD59C281E08093C003C50114
:1015E000B4010E94232E9B0177FF04C022273327DA
:1015F000261B370B3093C1032093C20389E08093ED
:10160000BD03EBEBF3E023EC33E080E09191890F35
:101610002E173F07D9F78093C30389E024C2809136
:10162000FB029091FC020097B1F485E090E00E94EB
:101630008F308C0188EC8E9DF0018F9DF00D112470
:10164000E25AFE4F6581C8010E9468221093FC0295
:101650000093FB0224C0DC0112964C9150E028EC70
:101660002E9D80012F9D100D1124025A1E4FF8014E
:101670002581022E000C330B4217530781F00E9484
:10168000273185E090E00E948F306C01D8011596DB
:101690006C910E946822D092FC02C092FB020091E1
:1016A000FB021091FC0260E0F80183810E943F1B65
:1016B000D80113968C910E942B1D209158013091D6
:1016C00059018A5E91408C01020F131FC090FB02EA
:1016D000D090FC0260E0F60184810E943F1BD6019D
:1016E00014968C910E942B1D20915A0130915B0120
:1016F0008A5E9140280F391F82E58093BB0382E404
:101700008093BC0388EC8E9DF0018F9DF00D112419
:10171000E25AFE4F83818093BE0381E08093BF0332
:1017200017FD82E08093C003C80117FF03C09195A5
:10173000819591099093C1038093C20337FD05C041
:1017400081E08093C30399E001C098E037FF03C0B4
:10175000319521953109E92FF0E0E554FC4F3083B4
:10176000E2E0E90FA1E0A90FB0E0A554BC4F2C9333
:1017700083E0890F8093BD03ABEBB3E020E090E002
:101780003D91930F2F5F2E17D8F3F0E0E554FC4FF7
:10179000908369C18091F9029091FA020097B1F4A7
:1017A00085E090E00E948F308C0188EC8E9DF001E6
:1017B0008F9DF00D1124E25AFE4F6581C8010E94F1
:1017C00068221093FA020093F90223C0FC014281BF
:1017D00050E028EC2E9D80012F9D100D1124025AFF
:1017E0001E4FD80115962C91022E000C330B421778
:1017F000530779F00E94273185E090E00E948F30F6
:101800006C01F80165810E946822D092FA02C092B0
:10181000F90282E58093BB0382E48093BC031092BB
:10182000BD0388EC8E9DF0018F9DF00D1124E25ACE
:10183000FE4F83818093BE0381E08093BF030091BC
:10184000F9021091FA0260E0D80114968C910E947E
:101850003F1BF80184810E942B1D9093C0030091CF
:10186000F9021091FA0260E0D80114968C910E945E
:101870003F1BF80184810E942B1D8093C10388E0E7
:101880008093BD03EBEBF3E080E09191890F23E0BF
:10189000E23CF207D1F7E4C08091F7029091F802A0
:1018A0000097B1F484E090E00E948F308C0188ECC6
:1018B0008E9DF0018F9DF00D1124E25AFE4F65813F
:1018C000C8010E94B1181093F8020093F70224C0D7
:1018D000DC0112964C9150E028EC2E9D80012F9D4A
:1018E000100D1124025A1E4FF8012581022E000C02
:1018F000330B4217530781F00E94273184E090E0B8
:101900000E948F306C01D80115966C910E94B1181D
:10191000D092F802C092F70282E58093BB0382E482
:101920008093BC031092BD0388EC8E9DF0018F9DC7
:10193000F00D1124E25AFE4F83818093BE0381E0B3
:101940008093BF038091F7029091F8020E94F621E4
:101950009093C0038091F7029091F8020E94F621C3
:101960008093C10388E08093BD03EBEBF3E080E05C
:101970009191890FB3E0E23CFB07D1F771C08091F0
:10198000F5029091F6020097B1F484E090E00E9495
:101990008F308C0188EC8E9DF0018F9DF00D11240D
:1019A000E25AFE4F6581C8010E94B1181093F602F9
:1019B0000093F50223C0FC01428150E028EC2E9DEB
:1019C00080012F9D100D1124025A1E4FD80115962B
:1019D0002C91022E000C330B4217530779F00E9412
:1019E000273184E090E00E948F306C01F80165811E
:1019F0000E94B118D092F602C092F50282E580935F
:101A0000BB0382E48093BC031092BD0388EC8E9DDF
:101A1000F0018F9DF00D1124E25AFE4F83818093D7
:101A2000BE0381E08093BF038091F5029091F6029E
:101A30000E9452159093C0038091F5029091F60296
:101A40000E9452158093C10388E08093BD03EBEBA5
:101A5000F3E080E09191890F23E0E23CF207D1F7B7
:101A60008093C20388E00E94F4192AC00E94932444
:101A7000DC01CB0184199509A609B7098139914088
:101A8000A105B10508F41ACD03C01092C003A7CD7B
:101A900082E58093BB0382E48093BC0388EC8E9D37
:101AA000F0018F9DF00D1124E25AFE4F8381809347
:101AB000BE0381E08093BF03812C912C54018CCD17
:101AC0006E960FB6F894DEBF0FBECDBFDF91CF91FB
:101AD0001F910F91FF90EF90DF90CF90BF90AF904C
:101AE0009F908F907F906F905F904F903F902F903E
:101AF00008958F929F92AF92BF92CF92DF92EF9212
:101B0000FF920F931F93CF93DF93CDB7DEB7649708
:101B10000FB6F894DEBF0FBECDBFE82EF12C28EC37
:101B2000829FF0011124E25AFE4FE4818E2FEE0FC6
:101B3000990BAA0BBB0BFC013197EF31F10508F0B3
:101B4000BFC5E55AFF4F0C94753082E58093BB0307
:101B500082E48093BC0388E08093BD0398EC9E9D53
:101B6000F0019F9DF00D1124E25AFE4F9381909356
:101B7000BE0392E09093BF0391E09093C0038093E3
:101B8000C103EBEBF3E022EC33E080E09191890FAD
:101B90002E173F07D9F78093C20388E07DC582E501
:101BA0008093BB0382E48093BC031092BD0388EC56
:101BB0008E9DF0018F9DF00D1124E25AFE4F83811E
:101BC0008093BE038581823059F024F4813089F4FA
:101BD00081E009C0833031F0843059F484E003C0DF
:101BE00082E001C083E00E94A21F8093BF03E5E072
:101BF00001C0E4E081E08E0F8093BD03ABEBB3E066
:101C000020E090E03D91930F2F5FE213FBCFF0E0D7
:101C1000E554FC4F908340C582E58093BB0382E48A
:101C20008093BC0388EC8E9DF0018F9DF00D1124F4
:101C3000E25AFE4F83818093BE0381E08093BF030D
:101C40008093C00387E08093BD03EBEBF3E080E07B
:101C50009191890F93E0E13CF907D1F78093C1039B
:101C600087E01AC582E58093BB0382E48093BC03BE
:101C70001092BD0388EC8E9DF0018F9DF00D112414
:101C8000E25AFE4F83818093BE0381E00E94A21F2F
:101C90008093BF0382E00E94A21F8093C00383E071
:101CA0000E94A21F8093C10384E00E94A21F809320
:101CB000C2031092C3031092C4031092C503109282
:101CC000C6038DE08093BD03EBEBF3E080E09191E0
:101CD000890FA3E0E73CFA07D1F78093C7038DE0B3
:101CE000DBC488EC8E9DF0018F9DF00D1124E25A2B
:101CF000FE4F85818C3F99F0882341F08B3F09F09E
:101D0000A5C400852781468161E00DC0008527813B
:101D1000468160E089E193E00E94731808C0008565
:101D20002781468160E089E193E00E94501889E1B3
:101D300093E00E941D188AC488EC8E9D80018F9DBF
:101D4000100D1124025A1E4FF80185818F3F49F171
:101D5000882369F08E3F09F079C4F8016681062E68
:101D6000000C770B880B990B0E94EA1B6FC427812C
:101D7000022E000C330B440B550B6681062E000C13
:101D8000770B880B990B0E941B1DF801868181112E
:101D90005DC4878181115AC41092250310922803D3
:101DA00055C46681062E000C770B880B990B0E9498
:101DB000B01C4CC488EC8E9D80018F9D100D1124A9
:101DC000025A1E4FD80115968C910E94A21F0297AD
:101DD00009F03CC48091170390911803009741F4D7
:101DE00080E190E00E948F306C01F801658116C09F
:101DF000DC0112964C9150E0F8012581022E000C76
:101E0000330B4217530789F00E94273180E190E09D
:101E10000E948F306C01D80115966C91C6010E940A
:101E2000E118D0921803C092170388EC8E9DF00140
:101E30008F9DF00D1124E25AFE4FD084C780B680EA
:101E4000009117031091180360E4C8010E94651700
:101E500061EAC8010E9405176B2DC8010E94051791
:101E60006C2DC8010E9405176D2DC8010E94051731
:101E70001AC188EC8E9DF0018F9DF00D1124E25A5D
:101E8000FE4F8581893F09F0E1C38681882321F0D7
:101E900081E08093EF02DAC31092EF02D7C388EC9F
:101EA0008E9DF0018F9DF00D1124E25AFE4F868128
:101EB000882329F0813029F48093290302C01092ED
:101EC00029031092F1021092F2021092F302109282
:101ED000F4021092F002BAC388EC8E9DF0018F9D3F
:101EE000F00D1124E25AFE4F85818A3F09F0AEC3FE
:101EF000408550E0542F44278185482B60E070E0F6
:101F0000868190E0982F88272781822B0E947B1B57
:101F100061E08091B9030E943F1B60E08091B903AA
:101F20000E94101B93C388EC8E9D80018F9D100D25
:101F30001124025A1E4FF80185810E94A21F0397A7
:101F400009F084C38091150390911603009749F41A
:101F500086E090E00E948F306C01D80115966C915C
:101F600015C0FC01428150E0D80115962C91022E3B
:101F7000000C330B4217530781F00E94273186E093
:101F800090E00E948F306C01F8016581C6010E94CB
:101F90004122D0921603C0921503009115031091AF
:101FA000160388EC8E9DF0018F9DF00D1124EC59E5
:101FB000FE4F63E1808190E0982F88272181822B5A
:101FC000AC014A7A5A7A5695479585759575880F6A
:101FD000991F482B592B9A012C7C3C7C36952795D0
:101FE0003695279543735373440F551F440F551F60
:101FF000242B352BC901807F907F44E096958795EF
:102000004A95E1F72F703F7054E0220F331F5A9525
:10201000E1F7822B932B982789279827880F991F00
:10202000880F991F2FEF260FA1E0B0E0AC0FBD1F66
:10203000A60FB11D8C936250A1E0B0E0AC0FBD1FA4
:10204000A20FB11D9C9332966F3F09F0B3CFC80128
:102050000E941C1767EEC8010E94051760E0C801C6
:102060000E940517CE0101965C016E0195E1C90E33
:10207000D11CD5019D915D01892F8C7C682F6695BF
:1020800066959373B4E09B9FC0011124862B682F43
:102090006A7A66958575880F682BC8010E940517B6
:1020A000CA14DB0431F7C8010E949615CFC288EC30
:1020B0008E9DF0018F9DF00D1124E25AFE4F858117
:1020C00080932503868180932803C0C288EC8E9D6F
:1020D00080018F9D100D1124025A1E4FF801858139
:1020E0000E94A21F059709F0B1C280910B03909145
:1020F0000C03009749F485E090E00E948F306C015A
:10210000D80115966C9115C0FC01428150E0D801B0
:1021100015962C91022E000C330B42175307B1F089
:102120000E94273185E090E00E948F306C01F80119
:102130006581C6010E94F618D0920C03C0920B0371
:1021400083EA8093B00087E08093B10088EC8E9D95
:10215000F0018F9DF00D1124E25AFE4F86818130EF
:1021600081F08230B1F0811171C2D08400910B03F3
:1021700010910C036781C8010E94FE176D2DC801E4
:102180000DC0678180910B0390910C030E94FE1794
:102190005DC2678180910B0390910C030E94DF1751
:1021A00055C288EC8E9D80018F9D100D1124025A1E
:1021B0001E4FD80115968C910E94A21F099709F015
:1021C00045C280910D0390910E03009771F0FC01C0
:1021D000428150E0D80115962C91022E000C330B51
:1021E0004217530791F00E94273186E090E00E9449
:1021F0008F306C01F80165810E94C518D6011596D3
:102200001C92D0920E03C0920D0388EC8E9DF001BB
:102210008F9DF00D1124E25AFE4F86818130F1F03E
:10222000823061F1811112C2278180910D0390915A
:102230000E0327FF06C0332721950CF4309541E0AB
:1022400001C040E061E00E94592B88EC8E9DF001B6
:102250008F9DF00D1124E25AFE4F10C0278180910E
:102260000D0390910E0327FF06C0332721950CF430
:10227000309541E001C040E061E00FC020858091D1
:102280000D0390910E0327FF06C0332721950CF410
:10229000309541E001C040E062E00E94592BD6C178
:1022A00088EC8E9D80018F9D100D1124025A1E4FC7
:1022B000F80185810E94A21F0B9709F0C7C1C09049
:1022C0000703D0900803C114D10449F483E290E0DD
:1022D0000E948F306C01D80115966C911DC0F601DB
:1022E00021A130E0D80115968C91082E000C990B95
:1022F00028173907C1F08FE091E091838083C601F0
:102300000E94BC14C6010E94273183E290E00E9423
:102310008F306C01F8016581C6010E94CB20D092FC
:102320000803C0920703C0900703D090080388EC0D
:102330008E9DF0018F9DF00D1124E25AFE4F168103
:10234000D60192968C91929790E0212F012E000C4D
:10235000330B8217930759F192961C938AEA809364
:102360003E0382E080933F0381E08093400310931B
:10237000410386E58127809342039EE3A92E93E0E3
:10238000B92E23E4822E23E0922EF50161915F01A4
:10239000C6010E94B6138A149B04B9F7D60192961F
:1023A0001C9362E370E080E090E00E945D1E88EC88
:1023B0008E9DF0018F9DF00D1124E25AFE4F208575
:1023C000878100910703109108039AEA90933E03D6
:1023D00080933F0391E090934003209341039BEA55
:1023E000892782278095809342038EE3C82E83E05D
:1023F000D82EF60161916F01C8010E94B613F3E473
:10240000CF16F3E0DF06A9F762E370E080E090E02A
:102410000E945D1E80910703909108030E94BC14E6
:1024200000910703109108030115110559F08FE081
:1024300091E0D8018D939C93C8010E94BC14C801FF
:102440000E942731109208031092070388EC8E9D9A
:1024500080018F9D100D1124025A1E4FD801159630
:10246000EC91EE0FFF0BE35EFE4F60E080810E9477
:102470003F1BD8011596EC91EE0FFF0BE35EFE4F6C
:1024800060E081810E943F1BE1C088EC8E9D80014D
:102490008F9D100D1124025A1E4FF80185810E9454
:1024A000A21F439709F0D2C0C0900103D09002034D
:1024B000C114D10449F48CE090E00E948F306C018B
:1024C000D80115966C911AC0F601228130E0D8012E
:1024D00015968C91082E000C990B28173907A9F036
:1024E000828593850E942731C6010E9427318CE0A6
:1024F00090E00E948F306C01F8016581C6010E9456
:102500001619D0920203C092010388EC8E9DF0014F
:102510008F9DF00D1124E25AFE4F018520854781E1
:10252000668180910103909102030E94731880914B
:1025300001039091020364960FB6F894DEBF0FBEBC
:10254000CDBFDF91CF911F910F91FF90EF90DF9062
:10255000CF90BF90AF909F908F900C941D1888ECF7
:102560008E9D80018F9D100D1124025A1E4FD8019F
:1025700015968C910E94A21F429709F067C0809126
:10258000FF0290910003009771F0FC01428150E03E
:10259000D80115962C91022E000C330B42175307CD
:1025A000A9F00E94273186E090E00E948F306C01F4
:1025B000F80165810E94C518D60115961C92D0922B
:1025C0000003C092FF02C6010E94D21A88EC8E9DC1
:1025D00080018F9D100D1124025A1E4FF801468173
:1025E00061E08091FF02909100030E940623D801D0
:1025F00017964C9162E08091FF02909100030E9437
:102600000623F801408563E08091FF02909100036A
:102610000E940623D80119964C9164E08091FF0234
:102620009091000364960FB6F894DEBF0FBECDBF45
:10263000DF91CF911F910F91FF90EF90DF90CF909E
:10264000BF90AF909F908F900C94062382E580936B
:10265000BB0382E48093BC0388EC8E9DF0018F9DC8
:10266000F00D1124E25AFE4F93819093BE0381E056
:102670008093BF0386E08093BD03EBEBF3E020EC97
:1026800033E080E04191840F2E173F07D9F7809304
:10269000C0039923A9F086E064960FB6F894DEBFD4
:1026A0000FBECDBFDF91CF911F910F91FF90EF90A3
:1026B000DF90CF90BF90AF909F908F900C94F419C3
:1026C00064960FB6F894DEBF0FBECDBFDF91CF91F9
:1026D0001F910F91FF90EF90DF90CF90BF90AF9040
:1026E0009F908F900895CF92DF92EF92FF920F9379
:1026F0001F93CF93DF936C017A018B01C0E0D0E090
:10270000CE15DF0581F0D8016D918D01D601ED91D7
:10271000FC910190F081E02DC6010995892B11F003
:102720002196EECF7E01C701DF91CF911F910F91CE
:10273000FF90EF90DF90CF90089520914A03309161
:102740004B032817390771F490914903809148038E
:10275000981741F0E0914903F0E0EF58FC4F808179
:1027600090E008958FEF9FEF089508951F93CF9302
:10277000DF93DC015C968D919C915D97009739F415
:1027800021E030E013963C932E9312973BC0519674
:10279000ED91FC91529750962C915097322F309595
:1027A0001FB75E964C915E97742F727041FD6095D5
:1027B000F8944081772311F0422B01C043234083DA
:1027C000EC012197F1F748E0508160FF02C0522BE5
:1027D00001C053235083EC012197F1F766954150D6
:1027E00099F78081772319F08323808302C0282BF7
:1027F00020831FBF5C968D919C915D970197F1F7A7
:1028000081E090E0DF91CF911F91089520914A03DC
:1028100030914B032817390771F4809148032091B8
:10282000490390E0805C9F4F821B910960E470E057
:102830000E946130089580E090E0089520914A035D
:1028400030914B0328173907B9F4909149038091CF
:102850004803981789F0E0914903F0E0EF58FC4FE6
:1028600080812091490330E02F5F3F4F2F73332742
:102870002093490390E008958FEF9FEF0895089506
:102880000E94B0311F920F920FB60F9211242F9316
:102890003F934F935F936F937F938F939F93AF93E8
:1028A000BF93EF93FF93E0914A03F0914B0330976E
:1028B00009F451C0968DA685B785858591FF04C022
:1028C0009C91892329F447C09C91892309F043C036
:1028D000A389B4899C918589809589238C93868965
:1028E00097890197F1F7608D718DA685B78555851C
:1028F00038E020E0CB010197F1F7822F90E0959529
:102900008795282F4C91452309F02068315091F785
:10291000868D81FD20958091480390E001968F730C
:10292000992730914903381749F0A0914803B0E046
:10293000AF58BC4F2C938093480303C0868D8160B1
:10294000868F828D938D0197F1F7A389B4899C912D
:102950008589892B8C93FF91EF91BF91AF919F91C6
:102960008F917F916F915F914F913F912F910F9038
:102970000FBE0F901F901895E0914A03F0914B0302
:10298000E817F90769F4A389B4899C918589809532
:1029900089238C9310924B0310924A0381E008958F
:1029A00080E008951F920F920FB60F9211242F937B
:1029B0003F938F939F93EF93FF938091700387FFD3
:1029C00005C0109285001092840005C080917003AC
:1029D00087FD80917003809170038F5F80937003F7
:1029E0008091700387FF20C0809170038C30E4F4E5
:1029F000209184003091850080917003082E000C96
:102A0000990BFC01EE0FFF1F8E0F9F1FFC01E45B73
:102A1000FC4F81819281820F931F90938900809354
:102A200088008091700317C0809184009091850088
:102A3000049680349C4918F480E49CE905C0809198
:102A4000840090918500049690938900809388007B
:102A50008FEF80937003FF91EF919F918F913F9142
:102A60002F910F900FBE0F901F901895DC011396B9
:102A70006C93139770E0FB01E859FE4FE4911696B2
:102A8000EC931697FB01EC5AFE4FE491F0E0EE0F49
:102A9000FF1FE65BFE4F8591949118969C938E9351
:102AA00017970895CF93DF93EC0160E08B810E942C
:102AB0003F1B8B81DF91CF910C942B1DAF92BF9266
:102AC000CF92DF92EF92FF920F931F93CF93DF93FA
:102AD0005C010AE010E0C12CD12C7601C0E0D0E00E
:102AE000C5010E945215C817D90708F4EC01C80E99
:102AF000D91EE11CF11C0150110991F7D701C60143
:102B00008C1B9D0BA109B10923E0B695A79597955C
:102B100087952A95D1F7DF91CF911F910F91FF9063
:102B2000EF90DF90CF90BF90AF900895CF93DF9359
:102B3000EC0161E08B810E943F1B8D818130C1F4EB
:102B400087E592E00197F1F700C0000060E08C811A
:102B50000E94101B60E08B810E94101B61E08C8141
:102B60000E94101B61E08B81DF91CF910C94101BB0
:102B700060E08C810E94101B9AE19A95F1F700C0E9
:102B800060E08B810E94101B8AE18A95F1F700C0FA
:102B900061E08C810E94101B9AE19A95F1F700C0C8
:102BA00061E08B810E94101B8AE18A95F1F700C0D9
:102BB000DF91CF9108951F93CF93DF93EC01162FF0
:102BC00061E08B810E943F1B8D818130B9F487E5E4
:102BD00092E00197F1F700C00000111102C060E01F
:102BE00001C061E08B810E94101B61E08C810E941A
:102BF000101B60E08C810E94101B18C0111102C0D4
:102C000060E001C061E08B810E94101B61E08C815B
:102C10000E94101B9AE19A95F1F700C060E08C8148
:102C20000E94101B8AE18A95F1F700C061E08B8158
:102C3000DF91CF911F910C94101B1F93CF93DF93C3
:102C4000EC0160E08B810E943F1B8D818130D1F4CB
:102C500087E592E00197F1F700C0000061E08B8109
:102C60000E94101B61E08C810E94101B8B810E94CE
:102C7000E71A11E0892B09F410E060E08C810E94D2
:102C8000101B1FC061E08B810E94101B9AE19A9576
:102C9000F1F700C061E08C810E94101B8AE18A95E7
:102CA000F1F700C08B810E94E71A11E0892B09F42B
:102CB00010E060E08C810E94101B9AE19A95F1F778
:102CC00000C0812FDF91CF911F9108950F931F9323
:102CD000CF93DF938C0160E0FC0183810E943F1B56
:102CE000F80185818130E1F487E592E00197F1F701
:102CF00000C00000D8E061E0F80184810E94101B50
:102D0000CC0FF80183810E94E71A892B09F0C1607A
:102D100060E0F80184810E94101BD15061F71DC052
:102D2000D8E061E0F80184810E94101BCC0FF8010B
:102D300083810E94E71A892B09F0C160FAE1FA95B4
:102D4000F1F700C060E0F80184810E94101BFAE1F5
:102D5000FA95F1F700C0D15021F78C2FDF91CF9178
:102D60001F910F9108950F931F93CF93DF93EC0161
:102D7000162F61E08C810E943F1B61E08B810E94D5
:102D80003F1B8D818130D9F487E592E00197F1F7FF
:102D900000C0000008E017FF02C061E001C060E071
:102DA0008B810E94101B110F61E08C810E94101B0F
:102DB00060E08C810E94101B015069F720C008E080
:102DC00017FF02C061E001C060E08B810E94101B10
:102DD0009AE19A95F1F700C0110F61E08C810E9491
:102DE000101B8AE18A95F1F700C060E08C810E9497
:102DF000101B9AE19A95F1F700C0015009F780E0A5
:102E0000DF91CF911F910F910895CF93DF93EC0144
:102E10008FE193E00197F1F700C00000CE010E941E
:102E2000B31687EC90E00197F1F700C00000CE01E7
:102E3000DF91CF910C941D16CF93DF93EC0161E0ED
:102E40008C810E943F1B61E08B810E943F1B8D8122
:102E50008130C1F487E592E00197F1F700C00000EE
:102E600061E08B810E94101B61E08C810E94101B2D
:102E700060E08B810E94101B60E08C81DF91CF911C
:102E80000C94101B61E08B810E94101B9AE19A95B3
:102E9000F1F700C061E08C810E94101B8AE18A95E5
:102EA000F1F700C060E08B810E94101B9AE19A95B7
:102EB000F1F700C060E08C810E94101B8AE18A95C6
:102EC000F1F700C0DF91CF9108951F93CF93DF9367
:102ED000EC01162F0E941C17612F660FCE010E9475
:102EE000B31680EA8A95F1F7CE01DF91CF911F9159
:102EF0000C941D16CF92DF92FF920F931F93CF93E6
:102F0000DF9300D000D0CDB7DEB78C0161E70E941F
:102F1000651760EBC8010E940517C8010E9496154D
:102F20006AE070E080E090E00E945D1EC8010E94AF
:102F30001C1763EEC8010E94B316C8010E941D163B
:102F400034E0F32ECE0101966C01FA94C801FF2003
:102F500051F00E946616F60181936F0160E0C8018E
:102F60000E94DB15F2CF0E9466168C8361E0C801D7
:102F70000E94DB15C8010E94961589818A3A59F48E
:102F80008C818B3B41F48A8190E0982F88272B819C
:102F9000820F911D02C081E090E0F8019783868343
:102FA000F801868197810F900F900F900F90DF911D
:102FB000CF911F910F91FF90DF90CF90089570E017
:102FC00080E090E00E94592E2CE53FE842EA5FE362
:102FD0000E94B12D0E942A2E862F653B30F461118C
:102FE00002C087E008C0643B11F486E204C066E0DA
:102FF0000E945530885F8093B300089570E080E0B0
:1030000090E00E94592E2CE53FE842EA5FE30E94DF
:10301000B12D0E942A2E862F653B30F4611102C02B
:1030200087E008C0643B11F486E204C066E00E94B9
:103030005530885F8093B4000895FC01A381B4816A
:10304000478120853185C901880F991F280F391FB5
:10305000728563855FB7F8948C91942F909598232F
:10306000842BE72FF62F2E0F3F1FE217F30781F077
:10307000419168E08C9300C047FF9C93440F00C0CF
:1030800000C000C008F49C9300C06A9599F7EDCF8A
:103090005FBF789461E070E080E090E00C945D1E8A
:1030A0000F93FC01A62FB0E080859185A817B90782
:1030B000B8F4862F880F680F70E0A285B385A60F3D
:1030C000B71F2C93A285B385A60FB71F11964C93FB
:1030D00082859385FC01E60FF71F028381E001C022
:1030E00080E00F910895CF92DF92EF92FF920F93BD
:1030F0001F93CF93DF937C01142FD22EC02E61112A
:1031000011C0C0E0D0E0F70180859185C817D907CC
:1031100070F40C2D2D2D412F6C2FC7010E945018DB
:103120002196F1CF61500E94501880E001C081E0EB
:10313000DF91CF911F910F91FF90EF90DF90CF9093
:103140000895DC01E62FF0E0EE0FFF1FE35EFE4F77
:1031500080818C93818111968C93119712966C9338
:1031600008950F931F93CF938C01C62F0E94A1182F
:10317000EC2FF0E0EE0FFF1FE35EFE4F8181F801C0
:103180008383CF911F910F9108950F931F93CF9336
:103190008C01C62F0E94A118EC2FF0E0EE0FFF1F4C
:1031A000E35EFE4F8181D80113968C931397808143
:1031B00014968C93149715961C92CF911F910F9192
:1031C00008950F931F93CF938C01C62F0E94C518AB
:1031D000EC2FF0E0EE0FFF1FE35EFE4F8081F80161
:1031E00086831582CF911F910F9108950F931F939E
:1031F000CF938C01C62F0E94A118EC2FF0E0EE0FA8
:10320000FF1FE35EFE4F8081D80113968C931397C6
:10321000918114969C9361E00E943F1B61E0F8014C
:103220008481CF911F910F910C943F1B1F93CF93DB
:10323000DF93EC01162F0E94A118E12FF0E0EE0FB2
:10324000FF1FE35EFE4F8181282F30E0F901E8592E
:10325000FE4FE491EF83F901EC5AFE4FE491F0E068
:10326000EE0FFF1FE45DFE4F259134913C832B83CD
:1032700061E00E943F1B64E0CE01DF91CF911F917E
:103280000C94C2191F93CF93DF93EC01162F0E9469
:10329000A118E12FF0E0EE0FFF1FE35EFE4F8181EA
:1032A0008B8380818C838B8160E00E943F1B8C81AB
:1032B00061E00E943F1B8C8160E0DF91CF911F9104
:1032C0000C94101BDC012C911196ED91FC9112973E
:1032D000F8948181922F90958923818378948DE74A
:1032E00043E050E0815021F1DA011197F1F730818C
:1032F0003223C1F3F8948281892382838181822BD6
:1033000081837894ABE7B7E01197F1F7F894818166
:103310009823918383E191E00197F1F7808128233D
:1033200081E009F080E07894E3E6F6E03197F1F788
:103330000895833081F028F4813099F08230A1F033
:1033400008958730A9F08830B9F08430D1F48091A5
:1033500080008F7D03C0809180008F7780938000F4
:10336000089584B58F7702C084B58F7D84BD08959C
:103370008091B0008F7703C08091B0008F7D8093E3
:10338000B0000895CF93DF93EC01862F90E09987EA
:10339000888723E0629FC00111240E948F309B87A1
:1033A0008A87892B21F488E391E00E94B53180E07F
:1033B00090E028853985A901440F551F240F351F3A
:1033C0008217930738F4EA85FB85E80FF91F10820E
:1033D0000196EFCFDF91CF9108959091C00095FFB6
:1033E000FCCF8093C60008950F931F93CF93C82FEF
:1033F0000BEB13E0CC2339F0F80181918F010E948F
:10340000ED19C150F7CFCF911F910F910895AF9251
:10341000BF92CF92DF92EF92FF920F931F93CF93C1
:10342000DF93DC0128E030E091E0AA24AA94B12CDB
:103430000FE010E043E2E42EF12C57EDC52ED12C25
:103440008C911196ED91FC911297482F4095562F33
:10345000592381F0F8945281452342834181482BBE
:103460004183E7012197F1F74281842B828378948D
:10347000F6010FC0F8945281452342834181482BC5
:103480004183E5012197F1F74281842B828378946F
:10349000F8013197F1F7990F2150310989F6F89425
:1034A0001196ED91FC91129791818C9180958923D1
:1034B00081831196ED91FC91129792818C91809568
:1034C000892382837894DF91CF911F910F91FF9090
:1034D000EF90DF90CF90BF90AF9008950F931F9320
:1034E000CF93DF93EC01162F0E941C1762E5CE01EB
:1034F0000E94B316CE010E941D16612F6068CE0196
:103500000E94B316CE010E941D16CE010E941C1708
:1035100063E5CE010E94B316CE010E941D16CE01B6
:103520000E946616182F60E0CE010E94DB15CE01C6
:103530000E946616082F61E0CE010E94DB15CE01C5
:103540000E949615812F90E0902BDF91CF911F91D3
:103550000F9108950F931F93CF93DF93EC01162FD4
:10356000042F0E941C1762E5CE010E94B316CE0103
:103570000E941D16612F6068CE010E94B316CE0115
:103580000E941D16602FCE010E94B316CE010E942C
:103590001D16CE010E949615802FDF91CF911F91AD
:1035A0000F910895CF93DF93EC010E941C1768E4FC
:1035B000CE010E94B316CE010E941D1661E3CE011A
:1035C0000E94B316CE01DF91CF910C949615CF9344
:1035D000DF93282F30E0F901EA5CFE4F8491F90176
:1035E000E859FE4FD491F901EC5AFE4FC491CC2317
:1035F00091F081110E949919EC2FF0E0EE0FFF1F5E
:10360000E65BFE4FA591B491EC91ED2381E090E053
:1036100021F480E002C080E090E0DF91CF91089536
:103620001F93CF93DF93282F30E0F901EA5CFE4F20
:103630008491F901E859FE4FD491F901EC5AFE4FFB
:10364000C491CC23C1F0162F81110E949919EC2F3F
:10365000F0E0EE0FFF1FE45DFE4FA591B4919FB720
:10366000F894111104C08C91D095D82302C0EC912C
:10367000DE2BDC939FBFDF91CF911F910895CF93F5
:10368000DF9390E0FC01E859FE4F2491FC01EC5AD5
:10369000FE4F8491882361F190E0880F991FFC010F
:1036A000EE5DFE4FC591D491FC01E45DFE4FA59106
:1036B000B491611109C09FB7F89488812095822345
:1036C0008883EC912E230BC0623061F49FB7F8948D
:1036D0008881322F309583238883EC912E2B2C9375
:1036E0009FBF06C08FB7F894E8812E2B28838FBF29
:1036F000DF91CF9108954F925F926F927F928F9258
:103700009F92AF92BF92CF92DF92EF92FF920F9370
:103710001F93CF93DF934A015B019C0140E050E08F
:1037200060E472E48FE090E00E946A2C69017A0103
:1037300061E08091B9030E943F1BA8EEB3E0A501B0
:1037400094010E94892C2B013C01E601D7FC2196B3
:10375000D595C7958E01000F111F000F111F055041
:1037600011090D2C000CEE08FF08812C912C54013E
:1037700084149504A604B704E0F461E08091B903D1
:103780000E94101BC230D10518F0C8010197F1F753
:1037900060E08091B9030E94101BC230D10518F07F
:1037A000C8010197F1F7A8958C0C9D1CAE1CBF1C9D
:1037B000DFCFDF91CF911F910F91FF90EF90DF90BE
:1037C000CF90BF90AF909F908F907F906F905F90C1
:1037D0004F900895CF92DF92EF92FF926C392FEFC6
:1037E00072078207920784F19B01AC01653671056F
:1037F0008105910524F024E630E040E050E057FDDB
:1038000027C0AFEFB0E00E94892C24E630E040E012
:1038100050E00E946A2C69017A01232B242B252B6E
:1038200011F460E001C061E089E00E943F1B60E0AC
:103830008AE00E943F1BD0928900C09288001092BB
:103840008B0010928A0028C02CE93FEF4FEF5FEF0A
:10385000A1E0BFEF0E94972C24E630E040E050E06A
:103860000E946A2C69017A0161E08AE00E943F1B94
:1038700060E089E00E943F1BD0928B00C0928A00DA
:103880001092890010928800C092B103D092B203C6
:10389000E092B303F092B403FF90EF90DF90CF90EB
:1038A00008951F93CF93DF93182FEB0161E00E94DF
:1038B0003F1B209711F460E004C0CF3FD10539F4DD
:1038C00061E0812FDF91CF911F910C94101BE12FAC
:1038D000F0E0EA5CFE4FE491E330F9F048F4E130C7
:1038E000B9F0E230A1F584B5806284BDC8BD34C0B2
:1038F000E730E9F0E83019F1E43049F580918000D3
:10390000806280938000D0938B00C0938A0024C093
:1039100084B5806884BDC7BD1FC080918000806869
:1039200080938000D0938900C093880015C0809157
:10393000B00080688093B000C093B3000DC0809148
:10394000B00080628093B000C093B40005C0C0385E
:10395000D1050CF0B5CFAFCFDF91CF911F91089576
:10396000CF92DF92EF92FF920F931F93CF93DF934B
:103970006C392FEF7207820792070CF43FC09B014E
:10398000AC01653671058105910524F024E630E02F
:1039900040E050E057FD36C0AFEFB0E00E94892C08
:1039A00024E630E040E050E00E946A2C69017A0190
:1039B000D22FCD2D8701232B242B252B11F460E052
:1039C00001C061E086E00E943F1B60E085E00E944C
:1039D0003F1BB60186E00E94511CD093B503C093F3
:1039E000B6030093B7031093B803DF91CF911F91F3
:1039F0000F91FF90EF90DF90CF9008952CE93FEF6B
:103A00004FEF5FEFA1E0BFEF0E94972C24E630E07C
:103A100040E050E00E946A2CD22FC32F8A0161E05F
:103A200085E00E943F1B60E086E00E943F1B6D2FF7
:103A30007C2F85E0D0CFCF92DF92EF92FF92690189
:103A40007A010E94B01CC701B601FF90EF90DF9091
:103A5000CF900C94EA1B8E3008F08E5087708064F3
:103A600080937C0080917A00806480937A008091BA
:103A70007A0086FDFCCF809178002091790090E05B
:103A8000922B0895BF92CF92DF92EF92FF920F9305
:103A90001F93CF93DF933AE0B32EC12CD12C760144
:103AA000CFEFD3E000E010E084E10E942B1D081767
:103AB000190708F48C018C179D0708F4EC01C80E57
:103AC000D91EE11CF11CBA94B110EECFD701C6018A
:103AD000801B910BA109B1098C1B9D0BA109B10998
:103AE00023E0B695A795979587952A95D1F7833FBB
:103AF00023E09207A105B10508F09AC08B3C23E0B2
:103B00009207A105B10508F096C0873B23E0920714
:103B1000A105B10508F0C5C0833A23E09207A105CD
:103B2000B10508F08BC0853823E09207A105B105E7
:103B300008F087C08C3623E09207A105B10508F094
:103B400083C0813223E09207A105B10508F07FC050
:103B50008F3F22E09207A105B10508F07BC0813DAF
:103B600022E09207A105B10508F077C08F3922E065
:103B70009207A105B10508F073C08D3622E09207C7
:103B8000A105B10508F06FC08F3422E09207A105AE
:103B9000B10508F06BC0833122E09207A105B105A1
:103BA00008F067C0853F21E09207A105B10508F044
:103BB00063C0813E21E09207A105B10508F05FC016
:103BC000823D21E09207A105B10508F06AC0873A5D
:103BD00021E09207A105B10508F054C0863921E023
:103BE0009207A105B10508F050C08C3721E092077B
:103BF000A105B10508F04CC08A3521E09207A10566
:103C0000B10508F04EC0823321E09207A105B1054D
:103C100008F041C08F3021E09207A105B105F0F511
:103C2000803D9105A105B105E0F184E090E03BC045
:103C300080E090E038C083E190E035C08CE090E017
:103C400032C08AE090E02FC085E090E02CC089E08F
:103C500090E029C08BE090E026C08DE090E023C08A
:103C600082E090E020C080E190E01DC08EE090E016
:103C70001AC088E090E017C083E090E014C084E1AF
:103C800090E011C087E190E00EC085E190E00BC0AC
:103C900087E090E008C082E190E005C086E090E017
:103CA00002C08FEF90E0DF91CF911F910F91FF90B5
:103CB000EF90DF90CF90BF9008958F929F92AF9238
:103CC000BF92CF92DF92EF92FF926B017C010E9434
:103CD0006E244B015C01C114D104E104F104F1F044
:103CE0000E946E24DC01CB0188199909AA09BB093D
:103CF000883E9340A105B10570F321E0C21AD108B6
:103D0000E108F10888EE880E83E0981EA11CB11C22
:103D1000C114D104E104F10419F7DDCFFF90EF9055
:103D2000DF90CF90BF90AF909F908F9008954F926B
:103D30005F926F927F928F929F92AF92BF92CF923B
:103D4000DF92EF92FF920F931F93CF93DF9300D0F8
:103D500000D000D0CDB7DEB79E838D8380E090E0A9
:103D6000A3E8B2E4ED81FE8186839783A087B187C3
:103D7000128613861486158616861786108A118A6F
:103D8000128A138A148A158A168A178A108E118E3F
:103D9000128E138E148E158E168E178E10A211A2EF
:103DA00013A212A215A214A217A216A210A611A65F
:103DB00012A613A614A615A616A617A610AA11AA2F
:103DC00012AA13AA64E670E080E090E00E945D1EF3
:103DD00040E06BE68D819E810E9481226EE170E061
:103DE00080E090E00E945D1E41E06AE18D819E814D
:103DF0000E94812248E06BE18D819E810E94812298
:103E000062E370E080E090E00E945D1E04EF11E04C
:103E100019821A821B821C82812C912C5401412C04
:103E2000512C3201ED80FE80F4E3EF0EF11C26E010
:103E3000A70163E48D819E810E94AA22ED81FE810B
:103E400084A995A9982789279827092E000CAA0BE1
:103E5000BB0B480E591E6A1E7B1E86A997A9982780
:103E600089279827092E000CAA0BBB0B880E991ED8
:103E7000AA1EBB1E80AD91AD982789279827092ED1
:103E8000000CAA0BBB0B29813A814B815C81280F66
:103E9000391F4A1F5B1F29833A834B835C83A89594
:103EA0000150110921F684EFC82EDD24D394E12CB2
:103EB000F12CC301B201A70196010E946A2CCA012C
:103EC000B9010E945B2EED81FE8160A771A782A7D8
:103ED00093A7C501B401A70196010E946A2CCA01EB
:103EE000B9010E945B2EED81FE8164A775A786A7AC
:103EF00097A769817A818B819C81A70196010E9495
:103F00006A2CCA01B9010E945B2EED81FE8160AB73
:103F100071AB82AB93AB26960FB6F894DEBF0FBEA3
:103F2000CDBFDF91CF911F910F91FF90EF90DF9068
:103F3000CF90BF90AF909F908F907F906F905F9049
:103F40004F9008958230D1F018F4813089F00895AF
:103F5000833021F0843031F560E00BC060E087E011
:103F60000E94101B60E08DE00E94101B61E00FC0FA
:103F700061E087E00E94101B60E005C061E087E01F
:103F80000E94101B61E08DE00E94101B60E08CE03D
:103F90000E94101B69E170E080E090E00E945D1ECD
:103FA0000C94421D08954F925F926F927F929F9260
:103FB000AF92BF92CF92DF92EF92FF920F931F9337
:103FC000CF93DF93CDB7DEB728970FB6F894DEBF57
:103FD0000FBECDBF7C01CE0101966C015E0199E060
:103FE000A90EB11C992493940E949324F701408454
:103FF000518462847384DC01CB0184199509A6097C
:10400000B7094197A105B10508F09782F7018781AB
:10401000882309F466C00E949324F70160877187A2
:1040200082879387178260E4C7010E94651762EA5E
:10403000C7010E94051762EAC7010E94051762EADC
:10404000C7010E94051761E0C7010E940517C7015B
:104050000E949615F701868160E00E943F1BF701E0
:10406000868190E0FC01E859FE4F6491FC01EC5A16
:10407000FE4FE491F0E0EE0FFF1FE65BFE4F8591EF
:10408000949100E712E620E030E040E00E94EC244A
:10409000611571058105910551F02B013C01FFEF80
:1040A0004F1A5F0A6F0A7F0A2FE0722203C0412C69
:1040B000512C32018CE2481681E0580661047104EB
:1040C00030F09CE2491A91E0590A61087108C30175
:1040D000B2010E945B2EF7016487758786879787F8
:1040E00009C0F70164857585868597850E94232E12
:1040F0002B013C01141415041604170434F084EA4F
:10410000482E88E3582E612C712CC301B2010E9405
:104110005B2E20E030E048E652E40E94B12DF6012B
:1041200061937193819391936F0162E170E080E0FC
:1041300090E00E945D1EAC14BD0409F055CFC9800B
:10414000DA80EB80FC807D809E80AF80B884272D54
:10415000392DA501B601C7010E948A2F87FF03C030
:10416000C72CD92C7501B601C70128960FB6F89453
:10417000DEBF0FBECDBFDF91CF911F910F91FF909A
:10418000EF90DF90CF90BF90AF909F907F906F9017
:104190005F904F9008950F931F93CF93DF93EC019F
:1041A000162F4F960E94A118E12FF0E0EE0FFF1F8F
:1041B000E35EFE4F118100811B821A8288EE93E03C
:1041C000A0E0B0E08C839D83AE83BF838FE091E05D
:1041D000998388831F8A1E8A198E188E1B8E1A8EC9
:1041E0001D8E1C8E6E8D6E7F6D7F6E8F66956170DD
:1041F00081E06827812F0E94101B61E0812F0E94BF
:104200003F1B812F90E0FC01E859FE4FE491E88BC1
:10421000FC01EC5AFE4FE491F0E0EE0FFF1FE45D6D
:10422000FE4F859194919A8B898B60E0802F0E943C
:104230003F1B8E8D81FD04C061E0802F0E94101B0A
:104240000C87802F90E0FC01E859FE4FE491ED8748
:10425000FC01EC5AFE4FE491F0E0EE0FFF1FE65B2D
:10426000FE4F859194919F878E878FE091E099838F
:10427000888383E08AA31B8E1A8E198E188E1F8A5C
:104280001E8A85E690E09D8F8C8F063108F04EC027
:1042900081E290E09F8B8E8B83E690E0998F888FF0
:1042A00082E490E09B8F8A8F30916800083058F04C
:1042B00021E00E3008F420E091E0892F01C0880F42
:1042C0002A95EAF701C084E0832B809368009C85DF
:1042D000983038F09E3040F0963148F020E030E0E1
:1042E00008C02DE630E005C02BE630E002C02CE629
:1042F00030E03C8B2B8B983030F481E001C0880F8C
:104300009A95EAF70EC0292F30E09E3018F4285015
:10431000310902C02E50310981E001C0880F2A9571
:10432000EAF78D8B8C8D9D8D0197F1F78A8D9B8D92
:10433000892BE1F080914A0390914B03C817D9076C
:10434000A9F0009711F00E94BC148E8D8E7F8E8F85
:104350001092480310924903D0934B03C0934A0331
:10436000EB89FC8990818D89892B8083DF91CF91A6
:104370001F910F9108950F931F93CF93DF93EC013B
:104380008B810E94E71A8C018C810E94E71AAC0194
:1043900021E030E0012B11F420E030E0220F331F48
:1043A00081E0452B09F480E0822BDF91CF911F91B2
:1043B0000F9108951F93CF93DF93EC01162F0E9466
:1043C000A118E12FF0E0EE0FFF1FE35EFE4F8081AA
:1043D0008B8381818C838B8160E00E943F1B8C8169
:1043E00060E0DF91CF911F910C943F1BCF93DF933F
:1043F000EC0160E08B810E943F1B8B810E942B1D92
:1044000020E034E0A901481B590BCA01DF91CF918C
:104410000895AF92BF92CF92DF92EF92FF920F93E7
:104420001F93CF93DF935C010AE010E0C12CD12CE5
:104430007601C0E0D0E0C5010E94F621C817D90777
:1044400008F4EC01C80ED91EE11CF11C0150110941
:1044500091F7D701C6018C1B9D0BA109B10923E07F
:10446000B695A795979587952A95D1F7DF91CF9126
:104470001F910F91FF90EF90DF90CF90BF90AF9082
:104480000895CF93DF93EC010E94C51881E08D83DE
:10449000CE010E941C1767EECE010E94051760E84E
:1044A000CE010E94051764EACE010E9405176AE951
:1044B000CE010E94051761E8CE010E94051763E84E
:1044C000CE010E940517CE01DF91CF910C94961575
:1044D0000F931F93CF938C01C62F0E94A118EC2F2E
:1044E000F0E0EE0FFF1FE35EFE4F8081D8011396D0
:1044F0008C931397818114968C93CF911F910F9178
:1045000008950F931F93CF93DF93EC01062F142F81
:104510000E941C17FE01EE5BFF4F6081660FCE010B
:104520000E94B316CE010E941D16602FCE010E947C
:10453000B316CE010E941D16612FCE010E94B31644
:10454000CE010E941D16CE01DF91CF911F910F91D8
:104550000C949615CF92DF92EF92FF920F931F93D8
:10456000CF93DF93EC01E62E8A01F22E0E941C17F6
:104570006E0182E4C80ED11CF6016081660FCE0187
:104580000E94B316CE010E941D166E2DCE010E9410
:10459000B316CE010E941D16CE010E949615F0E5BD
:1045A000FA95F1F7CE010E941C17F6016081660FA3
:1045B0006160CE010E94B316CE010E941D16FA94CE
:1045C000EF2C6801EE2061F0CE010E946616F60124
:1045D00081936F0160E0CE010E94DB15EA94F2CF77
:1045E0000F0D111DCE010E946616F801808361E057
:1045F000CE010E94DB15CE01DF91CF911F910F916B
:10460000FF90EF90DF90CF900C9496150F931F932F
:10461000CF93DF938C01D62FC42F0E941C176D2FD0
:10462000660F6A59C8010E94B316C8010E941D1680
:10463000EC2FC7FF07C0EF77F0E0E95DFE4F608128
:10464000606804C0F0E0E95DFE4F6081C8010E942F
:10465000B316C801DF91CF911F910F910C9496155D
:104660000F931F93CF93DF93EC010E941C1762E519
:10467000CE010E94B316CE010E941D1662E9CE0142
:104680000E94B316CE010E941D16CE010E941C1777
:1046900063E5CE010E94B316CE010E941D16CE0125
:1046A0000E946616182F61E0CE010E94DB15CE0134
:1046B0000E949615143411F0103161F581E08E835B
:1046C00019850A85412F61E0CE010E94AA1A198737
:1046D0000A871F8108858E81811103C0CE010E9447
:1046E0003023412F6FE0CE010E94AA1A1F83088752
:1046F00041E060E0CE010E94AA1A63E070E080E031
:1047000090E00E945D1E43E060E0CE010E94AA1A84
:1047100081E001C080E0DF91CF911F910F9108955A
:10472000AF92BF92CF92DF92EF92FF920F931F93BF
:10473000CF93DF93EC015B016A0179018E818111D6
:1047400003C0CE010E94302364E1CE010E946E1AA4
:10475000F8019183808366E1CE010E946E1AF50113
:104760009183808368E1CE010E946E1AF6019183E5
:1047700080836AE1CE010E946E1AF70191838083E3
:1047800089859A85853D910519F150F4009729F1A5
:10479000803C910591F56AE970E080E090E021C0ED
:1047A000863F910581F08F3F910541F08B3E910549
:1047B00021F562E370E080E090E013C063E070E018
:1047C00080E090E00EC068E170E080E090E009C019
:1047D00065E670E080E090E004C06CEB72E080E0A1
:1047E00090E0DF91CF911F910F91FF90EF90DF90BC
:1047F000CF90BF90AF900C945D1EDF91CF911F9131
:104800000F91FF90EF90DF90CF90BF90AF90089501
:104810001F920F920FB60F9211242F933F938F93F5
:104820009F93AF93BF93EF93FF939091C6008091B6
:10483000850481110EC0923509F043C0E0918404D3
:1048400038ECE39FF0011124E25AFE4F908381E09F
:104850000EC0813091F4923469F4E091840488ECC4
:10486000E89FF0011124E25AFE4F918382E0809389
:10487000850427C01092850424C02091840438EC5C
:10488000239FF0011124E25AFE4FDF01A80FB11D52
:104890009C938F5F809385049281891710F4883CE4
:1048A00080F0109285048091EE02222321F0109274
:1048B0008404826004C091E09093840481608093BA
:1048C000EE02FF91EF91BF91AF919F918F913F9138
:1048D0002F910F900FBE0F901F9018953FB7F8942F
:1048E00080918B0490918C04A0918D04B0918E04E2
:1048F00026B5A89B05C02F3F19F00196A11DB11D3B
:104900003FBFBA2FA92F982F8827820F911DA11D75
:10491000B11DBC01CD0142E0660F771F881F991FB2
:104920004A95D1F708952FB7F89460918704709154
:1049300088048091890490918A042FBF08951F9262
:104940000F920FB60F9211242F933F938F939F9343
:10495000AF93BF938091870490918804A0918904BC
:10496000B0918A043091860423E0230F2D3720F480
:104970000196A11DB11D05C026E8230F0296A11DB9
:10498000B11D209386048093870490938804A0939C
:104990008904B0938A0480918B0490918C04A09137
:1049A0008D04B0918E040196A11DB11D80938B04DE
:1049B00090938C04A0938D04B0938E04BF91AF911B
:1049C0009F918F913F912F910F900FBE0F901F904D
:1049D000189580E090E00895CF92DF92EF92FF92D9
:1049E0000F931F93E82FF92F05C0015011092109DA
:1049F000310961F1908196239417B9F305C00150F4
:104A000011092109310911F1908196239413F7CFEF
:104A1000C12CD12CE12CF12C0AC08FEFC81AD80A76
:104A2000E80AF80A0C151D052E053F0579F080816E
:104A30008623841791F36C2D7D2D8E2D9F2D1F9134
:104A40000F91FF90EF90DF90CF90089560E070E0BD
:104A500080E090E01F910F91FF90EF90DF90CF905A
:104A60000895CF93DF9300D01F92CDB7DEB778942F
:104A700084B5826084BD84B5816084BD85B5826063
:104A800085BD85B5816085BD80916E008160809314
:104A90006E0010928100809181008260809381007D
:104AA000809181008160809381008091800081608D
:104AB000809380008091B10084608093B1008091E8
:104AC000B00081608093B00080917A008460809310
:104AD0007A0080917A00826080937A0080917A00D7
:104AE000816080937A0080917A00806880937A0058
:104AF0001092C10060E088E00E943F1B8091C000DE
:104B000082608093C0001092C50080E18093C40051
:104B10008091C10080688093C1008091C100806154
:104B20008093C1008091C10088608093C100809112
:104B3000C20084608093C2008091C2008260809332
:104B4000C2006CE271E080E090E00E945D1E61E0D6
:104B50008091B9030E943F1B60E08091B9030E94DD
:104B6000101B00E020E040E060E089E193E00E945B
:104B70007318EAE6F1E0E491E0932003E6E5F1E062
:104B8000E491F0E0EE0FFF1FE45DFE4F85919491FC
:104B900090931D0380931C0361E082E00E943F1B01
:104BA00020E040E060E089E193E00E94731889E131
:104BB00093E00E941D186CE271E080E090E00E949A
:104BC0005D1E20E04EE160E089E193E00E947318F1
:104BD00089E193E00E941D186CE271E080E090E0B2
:104BE0000E945D1E2EE140E060E089E193E00E94BA
:104BF000731889E193E00E941D186CE271E080E077
:104C000090E00E945D1E0EE120E040E060E089E15E
:104C100093E00E94731889E193E00E941D186CE2F2
:104C200071E080E090E00E945D1E44EF51E060E0A2
:104C300070E084EF91E00E947B1B61E085E00E94C0
:104C40003F1B61E086E00E943F1B61E089E00E941B
:104C50003F1B61E08AE00E943F1B8DEA8093800049
:104C60008BE080938100109289001092880010924E
:104C70008B0010928A0064EF71E080E090E00E9467
:104C80005D1E82E50E94ED1982E40E94ED1986E026
:104C90000E94ED1980E00E94ED1983E00E94ED1959
:104CA0008DE90E94ED199FE088E10FB6F894A89570
:104CB000809360000FBE90936000A89538EC832E1F
:104CC000912CA12CB12C40E0242E40E0342E50E554
:104CD000652E53EC752EA8958091EE0280FF3CC0A6
:104CE0008E7F8093EE028091600150E040E090E082
:104CF0000197252F30E0281739073CF4F901E25AD3
:104D0000FE4F2081420F5F5FF4CFFC01E25AFE4F5D
:104D10008081481308C080916201813A10F480E0DC
:104D20003DC080E03FC082E50E94ED1982E40E9410
:104D3000ED1987E00E94ED19809161010E94ED1943
:104D4000809162010E94ED1980E00E94ED1990911E
:104D500061018091620141C081FF43C08D7F8093DA
:104D6000EE028091280250E040E090E00197252F6C
:104D700030E0281739073CF4F901EA5DFD4F208146
:104D8000420F5F5FF4CFFC01EA5DFD4F8081481365
:104D90000CC080912A02813A20F481E00E94790DB2
:104DA00020C081E00E94EA001CC082E50E94ED194B
:104DB00082E40E94ED1987E00E94ED19809129029A
:104DC0000E94ED1980912A020E94ED1980E00E9454
:104DD000ED199091290280912A02890F86560E942E
:104DE000ED1988E00E94E71A019719F481E0809399
:104DF0002B0388E00E94E71A892B21F480912B0372
:104E0000811151C480912A03882321F110922A0331
:104E10008091EF028823F1F082E50E94ED1982E48F
:104E20000E94ED1988E00E94ED1980E00E94ED19C2
:104E300081E00E94ED1989EF0E94ED1981E00E9446
:104E4000ED1987E90E94ED1987E90E94ED1987E9BC
:104E50000E94ED1980912903882309F469C080918B
:104E6000F1029091F202A091F302B091F402019646
:104E7000A11DB11D883E23E09207A105B10548F4AC
:104E80008093F1029093F202A093F302B093F402A4
:104E900047C01092F1021092F2021092F3021092A7
:104EA000F40285E10E942B1DBC0180E090E00E948D
:104EB000592E20E030E040E75CE30E94972F6B0121
:104EC0007C0120E030E040E050E40E948A2F181678
:104ED0003CF52AE939E949ED50E4C701B6010E94E1
:104EE000AC2D87FF1DC082E50E94ED1982E40E946F
:104EF000ED1988E00E94ED1980E00E94ED1982E032
:104F00000E94ED198DEF0E94ED1981E00E94ED19CC
:104F10008CE90E94ED198091F0028F5F8093F0027E
:104F20008091F0028A3020F01092F0021092290352
:104F300080912803813009F4D0C120F0823009F437
:104F4000C9C2AAC30E94932400913603109137036B
:104F50002091380330913903DC01CB01801B910B88
:104F6000A20BB30B81329340A105B10508F494C3A1
:104F700082E3C82E83E0D82E9EE2E92E93E0F92E3C
:104F80000DE111E01A82512C5394852D0E94A21F2D
:104F9000482ED6018D936D0181110BC060E0F801A0
:104FA00082810E943F1B60E0D80113968C910E9481
:104FB0003F1BD701EC914E1609F443C18E2F90E0B0
:104FC000FC013297E631F10508F039C1EB5BFF4F88
:104FD0000C9475308091170390911803009731F06D
:104FE0000E94273110921803109217038091150325
:104FF00090911603009731F00E942731109216030A
:10500000109215038091260390912703009709F4CD
:1050100016C10E9427311092270310922603C0C0A8
:105020008091130390911403009709F408C10E9422
:1050300027311092140310921303C2C08091110300
:1050400090911203009709F4FAC00E942731109240
:10505000120310921103C3C080910F0390911003AB
:10506000009709F4ECC00E942731109210031092AF
:105070000F03C4C080910D0390910E03009709F4B3
:10508000DEC00E94273110920E0310920D03C5C09E
:1050900080910B0390910C03009709F4D0C00E94FB
:1050A000273110920C0310920B03C6C080910903A4
:1050B00090910A03009731F00E94273110920A0361
:1050C00010920903E0910703F0910803FB83EA8340
:1050D000309709F4B4C0CF010E94BC14EFE0F1E0B6
:1050E000AA81BB811196FC93EE93CD010E94BC1462
:1050F0008A819B810E942731109208031092070336
:105100005FC080912C0390912D03009709F497C004
:105110000E94273110922D0310922C0360C08091C1
:10512000050390910603009709F489C00E94273176
:10513000109206031092050361C0809103039091C1
:105140000403009709F47BC00E94273110920403E6
:105150001092030362C0A0910103B0910203BB83CC
:10516000AA83109709F46BC01A968D919C911B9796
:105170000E9427318A819B810E942731109202036D
:10518000109201035CC08091FF0290910003009790
:1051900009F455C00E942731109200031092FF02BB
:1051A000E1E0EA834EC08091FD029091FE020097FB
:1051B00009F445C00E9427311092FE021092FD02B0
:1051C000F1E0FA833EC08091FB029091FC020097CF
:1051D000B1F10E9427311092FC021092FB0221E0F3
:1051E0002A832FC08091F9029091FA02009739F139
:1051F0000E9427311092FA021092F90281E08A830C
:1052000020C08091F7029091F8020097C1F00E94AF
:1052100027311092F8021092F70291E09A8311C0A0
:105220008091F5029091F602009749F00E94273193
:105230001092F6021092F502A1E0AA8302C0B1E03A
:10524000BA83F70141927F010E5F1F4FF4E05F12B6
:105250009BCE2A812223B1F182E58093BB0382E4B5
:105260008093BC031092BE0385E08093BF038091BE
:105270002E038093C00380912F038093C1038091FC
:1052800030038093C203809131038093C303109253
:10529000C4031092C5031092C6031092C7039EE088
:1052A0009093BD03EBEBF3E08191A981A80FA98353
:1052B00088EC93E08E179F07B9F7A093C8038EE0A0
:1052C0000E94F4190E94932460933603709337036D
:1052D0008093380390933903DFC180911703909135
:1052E0001803009789F480E190E00E948F309B833F
:1052F0008A83609125030E94E118AA81BB81B09343
:105300001803A09317031DC0FC01428150E02091B7
:105310002503022E000C330B4217530791F00E9415
:10532000273180E190E00E948F309B838A836091D7
:1053300025030E94E1188A819B8190931803809332
:10534000170380911703909118030E94D31F6B01DC
:105350007C0120E030E048E452E40E948A2F1816D5
:105360002CF410923B0310923A0328C020E030E066
:1053700048EB51E4C701B6010E948A2F90913B038C
:105380009A8387FD11C020E030E048E452E4C70171
:10539000B6010E94AC2D18163CF0AA81A11102C0E2
:1053A00081E00AC081E006C0BA81BB23C9F382E074
:1053B000B13011F080933A0380933B0380913A031C
:1053C0008130E1F020F0823009F444C065C127E368
:1053D00030E040E050E067E370E080E090E00E9461
:1053E0001B1D02E320E040E060E089E193E00E94C1
:1053F000731889E193E00E941D184EC100E020E07F
:1054000042E360E089E193E00E94731889E193E050
:105410000E941D180E94132CA50194010E946A2C61
:10542000653648F022E630E040E050E06EE97FEF7C
:105430008FEF9FEF08C02EE93FEF4FEF5FEF62E67F
:1054400070E080E090E00E941B1D6CE271E080E063
:1054500090E03CC000E022E340E060E089E193E0BE
:105460000E94731889E193E00E941D1826EA3FEF1D
:105470004FEF5FEF66EA7FEF8FEF9FEF0E941B1DFC
:1054800060E971E080E090E00E945D1EA8950E94B6
:10549000132CA50194010E946A2C653648F022E67F
:1054A00030E040E050E06EE97FEF8FEF9FEF08C003
:1054B0002EE93FEF4FEF5FEF62E670E080E090E0B3
:1054C0000E941B1D6AE872E080E090E00E945D1E71
:1054D000A895E2C08091260390912703009771F070
:1054E000DC0112964C9150E020912503022E000C15
:1054F000330B4217530791F00E94273185E090E06B
:105500000E948F309B838A83609125030E94DA2159
:10551000EA81FB81F0932703E09326038091260321
:10552000909127030E94BB218130E9F030F0823056
:1055300081F1833009F44FC0AFC02AE230E040E08F
:1055400050E06AE270E080E090E00E941B1DFAE00B
:10555000F093000100E028EC40E060E089E193E096
:105560000E9473182FC02AE230E040E050E06AE267
:1055700070E080E090E00E941B1D8091000182306D
:1055800018F081508093000100E020E048EC60E0DA
:1055900015C02AE230E040E050E06AE270E080E0CE
:1055A00090E00E941B1D80910001843118F48F5FF0
:1055B0008093000100E020E048EC61E089E193E0A5
:1055C0000E94501889E193E00E941D1810923D033B
:1055D00010923C0361C0809100018A3049F42EECA6
:1055E0003FEF4FEF5FEF6EEC7FEF8FEF9FEF13C05A
:1055F0008A3048F42DE230E040E050E066EA7FEF88
:105600008FEF9FEF08C026EA3FEF4FEF5FEF6DE2AD
:1056100070E080E090E00E941B1D80913C0390911F
:105620003D03019690933D0380933C0380913C039E
:1056300090913D038035934C78F170923D036092D8
:105640003C0320E030E0A90160E070E0CB010E9463
:105650001B1D00E020E040E060E089E193E00E9453
:10566000731889E193E00E941D1864EF71E080E0F7
:1056700090E00E945D1E20E040E560E089E193E05B
:105680000E94731889E193E00E941D1864EF71E095
:1056900080E090E00E945D1E2114310409F41BCBD0
:1056A0000E94000018CB81E080932A0310922B0304
:1056B000A9CBFF920F931F93CF93DF93EC01F62EAC
:1056C000042F122F60E50E94651763EACE010E9445
:1056D00005176F2DCE010E940517602FCE010E9485
:1056E0000517612FCE010E940517CE01DF91CF91E2
:1056F0001F910F91FF900C94961580912303909128
:1057000024030C942731A9E1B3E01C9211961C925A
:10571000119712961C921297E8E6F1E0E491179621
:10572000EC931797E4E5F1E0E491F0E0EE0FFF1F52
:10573000E45DFE4F8591949114969C938E931397FC
:1057400061E080E00E943F1B62E089E193E00E94FB
:10575000C21984E08093B90360E084E10E943F1B9A
:1057600061E08CE00E943F1B61E08DE00E943F1BE6
:1057700061E087E00E943F1B60E08CE00E94101B0C
:1057800060E08DE00E94101B60E087E00C94101B2D
:105790008F929F92AF92BF92CF92DF92EF92FF9241
:1057A000CF93DF93EC01688179818A819B816115B8
:1057B00071058105910521F464E279ED8BE597E0AF
:1057C0002DE133EF41E050E00E946A2C49015A017B
:1057D0009B01AC01A7EAB1E40E94892C6B017C011A
:1057E000ACEEB4EFA50194010E94972CDC01CB0133
:1057F0008C0D9D1DAE1DBF1DB7FF03C00197A109F4
:10580000B04888839983AA83BB83BC01CD019F776D
:10581000DF91CF91FF90EF90DF90CF90BF90AF904E
:105820009F908F9008958F929F92AF92BF92CF9248
:10583000DF92EF92FF9260910101709102018091DD
:10584000030190910401611571058105910521F411
:1058500064E279ED8BE597E02DE133EF41E050E034
:105860000E946A2C49015A019B01AC01A7EAB1E4EC
:105870000E94892C6B017C01ACEEB4EFA501940170
:105880000E94972CDC01CB018C0D9D1DAE1DBF1D10
:10589000B7FF03C00197A109B0488093010190931D
:1058A0000201A0930301B0930401BC01CD019F77D5
:1058B000FF90EF90DF90CF90BF90AF909F908F9030
:1058C0000895609301017093020180930301909306
:1058D00004010895052E97FB1EF400940E94812C6C
:1058E00057FD07D00E949C2C07FC03D04EF40C946B
:1058F000812C50954095309521953F4F4F4F5F4FEC
:10590000089590958095709561957F4F8F4F9F4F2B
:1059100008950E94BE2CA59F900DB49F900DA49F4A
:10592000800D911D11240895B7FF0C94892C0E94BD
:10593000892C821B930B0895A1E21A2EAA1BBB1B74
:10594000FD010DC0AA1FBB1FEE1FFF1FA217B3074B
:10595000E407F50720F0A21BB30BE40BF50B661F61
:10596000771F881F991F1A9469F760957095809525
:1059700090959B01AC01BD01CF010895A29FB0019C
:10598000B39FC001A39F700D811D1124911DB29F73
:10599000700D811D1124911D08955058BB27AA2711
:1059A0000E94E52C0C94382F0E942A2F38F00E9478
:1059B000312F20F039F49F3F19F426F40C94002F76
:1059C0000EF4E095E7FB0C94D12EE92F0E94492FAD
:1059D00058F3BA17620773078407950720F079F424
:1059E000A6F50C94832F0EF4E0950B2EBA2FA02D64
:1059F0000B01B90190010C01CA01A0011124FF277C
:105A0000591B99F0593F50F4503E68F11A16F04076
:105A1000A22F232F342F4427585FF3CF4695379575
:105A20002795A795F0405395C9F77EF41F16BA0B3A
:105A3000620B730B840BBAF09150A1F0FF0FBB1FE8
:105A4000661F771F881FC2F70EC0BA0F621F731F31
:105A5000841F48F4879577956795B795F7959E3F8E
:105A600008F0B0CF9395880F08F09927EE0F97951F
:105A7000879508950E942A2F60F080E891E009F44C
:105A80009EEF0E94312F28F040E851E071F45EEF64
:105A90000CC00C94002F0C94832FE92FE0780E9407
:105AA000492F40F3092E052AB1F326173707480777
:105AB000590738F00E2E07F8E02569F0E025E0647C
:105AC0000AC0EF6307F8009407FADB01B9019D01F2
:105AD000DC01CA01AD01EF930E94C82D0E94382F4E
