:100000000C9463000C948B000C948B000C942F2A9E
:100010000C942F2A0C942F2A0C948B000C948B0098
:100020000C948B000C948B000C948B000C94A72ADE
:100030000C948B000C948B000C948B000C948B0014
:100040000C94E5290C948B000C940B2B0C948B00D6
:100050000C948B000C948B000C948B000C948B00F4
:100060000C948B000C948B000000000024002700EF
:100070002A0000000008000201000003040700003D
:1000800000000000000000000000250028002B00F8
:1000900000000000230026002900040404040404D6
:1000A0000404020202020202030303030303010227
:1000B00004081020408001020408102001020408F6
:1000C0001020BD36023711241FBECFEFD8E0DEBFAF
:1000D000CDBF11E0A0E0B1E0E8ECF7E702C0059089
:1000E0000D92A439B107D9F726E0A4E9B1E001C027
:1000F0001D92A33AB207E1F710E0C2E6D0E004C0D7
:100100002197FE010E946D3AC136D107C9F70E94BE
:10011000B52B0C94D73B0C9400009091C00095FF38
:10012000FCCF8093C60008950F931F93CF93C82FE1
:1001300001ED15E0F80181918F010E948D00C15001
:10014000C9F7CF911F910F9108952F923F924F922F
:100150005F926F927F928F929F92AF92BF92CF9257
:10016000DF92EF92FF920F931F93CF93DF93CDB760
:10017000DEB7C05AD1090FB6F894DEBF0FBECDBFAF
:10018000FC01C156DF4F79836883CF59D0404A01C3
:100190004281538184819581E680E982F084FA82EC
:1001A0005A0123E0AA0CBB1C2A95E1F708E0A02223
:1001B000BB246C0136E0CC0CDD1C3A95E1F710E471
:1001C000C122DD24AC28BD2860817181677077274A
:1001D0006A297B29BE2DBB0FA0E0AA27B2706A2B2B
:1001E0007B2BF294A0EFFA22E12CEE2420E1F22204
:1001F0006E297F295A01B3E0AA0CBB1CBA95E1F71E
:1002000030E1A322BB246A297B295A0113E0AA0CFE
:10021000BB1C1A95E1F740E2A422BB24A62AB72A08
:10022000AC0106E0440F551F0A95E1F740785527C9
:10023000A42AB52A26E0880F991F2A95E1F7882776
:100240009170A82AB92A1981110F00E000271470B3
:10025000A02AB12A3981330F20E022273870A22A40
:10026000B32A7A80729430EF7322612C662450E2B4
:100270007522A628B7285A80529440EF5422412C68
:10028000442460E45622A428B528C156DF4FA88133
:10029000B981CF59D040AC921196BC922685378552
:1002A00080899189A289B489B90153E0660F771FCB
:1002B0005A95E1F768707727AC0116E0440F551F97
:1002C0001A95E1F740745527462B572B3A2E330CDD
:1002D000212C222402E03022242A352A1B2F1295B9
:1002E000107F1C831B824B815C8144275071242A20
:1002F000352AB90103E0660F771F0A95E1F76071AF
:100300007727262A372AB90123E0660F771F2A9517
:10031000E1F760727727622973291C0136E0220C0D
:10032000331C3A95E1F720E822223324622973290D
:1003300046E0880F991F4A95E1F788279170682B4E
:10034000792B3A2F330F3E831D822D803E8022244D
:1003500044E034226229732938871F822F80388431
:10036000222458E03522622973291A8719862984A4
:100370003A84222490E23922622973291C871B8641
:100380002B843C842224A0E43A2262297329C1569A
:10039000DF4FA881B981CF59D04012966C93129744
:1003A00013967C9344855585228D338D848D958D50
:1003B000A68DB285BA01660F771F6270772741FB61
:1003C000EE24E0F8ED861E860D851E85602B712BD0
:1003D00044705527462B572BB90103E0660F771F52
:1003E0000A95E1F768707727462B572BBC0116E07A
:1003F000660F771F1A95E1F760747727462B572B06
:100400001A2F110F188B1F866F85788966277270D7
:10041000642B752B4B2F4295407F4A8B198A498953
:100420005A8944275071642B752B890143E0000FD2
:10043000111F4A95E1F700711127602B712B89017B
:1004400053E0000F111F5A95E1F700721127062B98
:10045000172BBC0126E0660F771F2A95E1F760781D
:100460007727062B172B36E0880F991F3A95E1F76F
:1004700088279170082B192B5A2F550F5C8B1B8ADC
:100480006B897C8966277470062B172B5E8B1D8AFF
:100490006D897E8966277870062B172B6B2F6295E6
:1004A000607F688F1F8A6F89788D66277072062B30
:1004B000172BB295B07FBA8F198E698D7A8D66270A
:1004C0007074062B172BC156DF4FA881B981CF5905
:1004D000D04014960C93149715961C93408D518D13
:1004E00026A137A180A591A502A51689DA01AA0F38
:1004F000BB1FA270BB27BA01769567957695679565
:100500007727669577956627A62BB72B690163E059
:10051000CC0CDD1C6A95E1F768E0C622DD24AC292D
:10052000BD296C0176E0CC0CDD1C7A95E1F770E416
:10053000C722DD24AC29BD29E02EEE0CEC8E1B8EEB
:10054000CB8CDC8CCC2462E0D622AC29BD29712F67
:100550007295707F7E8F1D8ECD8CDE8CCC2460E1F9
:10056000D622BD016C297D29DA01AA0FBB1FA47018
:10057000BB27A62BB72BB90153E0660F771F5A95FF
:10058000E1F7607177276A2B7B2BD90123E0AA0F53
:10059000BB1F2A95E1F7A072BB27A62BB72BBC0186
:1005A00036E0660F771F3A95E1F7607877276A2B78
:1005B0007B2B46E0880F991F4A95E1F788279170B9
:1005C000AB01482B592BE8A21F8E6F8D78A16627AF
:1005D0007470462B572BEAA219A269A17AA166274B
:1005E0007870462B572B812F8295807F8CA31BA27E
:1005F0006BA17CA166277072462B572B8EA31DA280
:100600006DA17EA166277074642B752BC156DF4FD8
:10061000A881B981CF59D04016966C93169717963A
:100620007C9324A135A184A995A9A0A1B2A1A90177
:10063000440F551F42705527BC0116E0660F771F07
:100640001A95E1F760747727642B752BEA2EEE0C70
:10065000E8A61FA24FA158A544275270462B572B3E
:10066000FB2EF29400EFF022FAA619A669A57AA54E
:1006700066277071462B572B8901000F111F0470DC
:100680001127402B512B8901000F111F08701127D2
:10069000042B152BAC0126E0440F551F2A95E1F7DA
:1006A00040785527042B152B36E0880F991F3A9573
:1006B000E1F788279170082B192BECA61BA64BA5F8
:1006C0005CA544275470042B152BEEA61DA64DA542
:1006D0005EA544275870042B152BF8AA1FA64FA51A
:1006E00058A944275072042B152BFAAA19AA49A914
:1006F0005AA944275074042B152BC156DF4FA881EB
:10070000B981CF59D04018960C93189719961C931D
:1007100042A953A920A931A9BF01605C7F4FDB0129
:100720008D919C9104A516A5BA01A4E0660F771FD0
:10073000AA95E1F76071772741FBBB27B0F9BBAB06
:100740001CAAEBA8FCA86E297F297901EE0CFF1CDE
:10075000A2E0EA22FF246E297F297C01A6E0EE0CAC
:10076000FF1CAA95E1F7B0E4EB22FF246E297F2954
:10077000E02EEE0CEEAA1DAAEDA8FEA8EE24A2E043
:10078000FA226E297F29B12FB295B07FB8AF1FAA88
:10079000EFA8F8ACEE24A0E1FA226E297F297A01B5
:1007A000B3E0EE0CFF1CBA95E1F7B0E2EB22FF24B8
:1007B000E62AF72AB901660F771F647077276E293A
:1007C0007F29D901AA0FBB1FA870BB27A62BB72B67
:1007D000BC0126E0660F771F2A95E1F7607877273E
:1007E0006A2B7B2B36E0880F991F3A95E1F7882713
:1007F0009170AB01482B592BE02EEE0CEAAE19AEEE
:1008000069AD7AAD66277470462B572BECAE1BAEE4
:100810006BAD7CAD66277870462B572BF12EF2948A
:1008200060EFF622FEAE1DAE6DAD7EAD6627707236
:10083000462B572B2196FFAE21971FAE21966EAD0A
:100840007FAD219766277074642B752BC156DF4FDF
:10085000A881B981CF59D0401A966C931A971B96EC
:100860007C9344AD55AD26AD37AD86A997A900ADB3
:1008700012ADDA01AA0FBB1F7D0162E0E622FF2460
:10088000B901A4E0660F771FAA95E1F76071772799
:100890006E297F297901F694E794F694E794FF2472
:1008A000E694F794EE246E297F297C01B6E0EE0CE5
:1008B000FF1CBA95E1F7A0E4EA22FF246E297F2904
:1008C000B02FBB0F2396BFAF239722961FAE229760
:1008D0002396EEACFFAC2397EE24A2E0FA22E62AA0
:1008E000F72AB12FB295B07F2596BFAF25972496F2
:1008F0001FAE249725966EAD7FAD25976627707144
:100900006701C62AD72A7A01EE0CFF1C64E0E622B2
:10091000FF24EC28FD28440F551F48705527E42A72
:10092000F52AA4E0220F331FAA95E1F7207233279E
:10093000E22AF32AAC0126E0440F551F2A95E1F77D
:10094000407855274E295F2936E0880F991F3A9540
:10095000E1F788279170BA01682B792B802F880FD7
:1009600027968FAF279726961FAE269727964EADD0
:100970005FAD279744275470642B752B29968FAF52
:10098000299728961FAE289729964EAD5FAD2997D7
:1009900044275870642B752B2B96BFAF2B972A9644
:1009A0001FAE2A972B964EAD5FAD2B974427507202
:1009B000642B752B2D96BFAF2D972C961FAE2C97C1
:1009C0002D964EAD5FAD2D9744275074462B572B77
:1009D000C156DF4FA881B981CF59D0401C964C93A6
:1009E0001C971D965C939F01285B3F4FD9012D9169
:1009F0003C91AF01465B5F4FDA018D919C91BF0145
:100A00006C5B7F4FDB01FC9044505109DA01EC90A4
:100A1000A901440F551F42705527BC01A4E0660F81
:100A2000771FAA95E1F760717727642B752BBF2D8F
:100A3000BB0F2F96BFAF2F972E961FAE2E972F96D8
:100A40004EAD5FAD2F9744275270462B572B0E2D7E
:100A50000295007F61960FAF619760961FAE609719
:100A600061966EAD7FAD619766277071462B572BEF
:100A70008901000F111F04701127402B512B890190
:100A8000000F111F08701127042B152BAC01A4E0D7
:100A9000440F551FAA95E1F740725527042B152BDB
:100AA00024E0880F991F2A95E1F780749927082B75
:100AB000192B6396BFAF639762961FAE62976396DA
:100AC0004EAD5FAD639744275470042B152B65968C
:100AD000BFAF659764961FAE649765964EAD5FADE8
:100AE000659744275870042B152B3E2D3295307F87
:100AF00067963FAF679766961FAE669767964EAD4F
:100B00005FAD679744275072042B152B69963FAF52
:100B1000699768961FAE689769964EAD5FAD699705
:100B200044275074042B152BC156DF4FA881B9817F
:100B3000CF59D0401E960C931E971F961C93DF0131
:100B4000AC5ABF4F4D915C91119712962D913C91EB
:100B5000119754978D919C9111971E96EC90EA8273
:100B60001296FC90F982DA01AA0FBB1FA270BB2774
:100B7000B90114E0660F771F1A95E1F760717727C6
:100B80006A2B7B2BDC01B695BA2FAA27B795A795C0
:100B9000BB276A2B7B2B81FB002700F96A960FAFDE
:100BA0006A976B961FAE6B976B96AEADBFAD6B97AA
:100BB0006A2B7B2BEE0C6D96EFAE6D976C961FAE8D
:100BC0006C976D96AEADBFAD6D97AA27B2706A2BCC
:100BD0007B2BF294A0EFFA226F96FFAE6F976E9682
:100BE0001FAE6E976F96AEADBFAD6F97AA27B0716F
:100BF0006A2B7B2B8A01000F111F04701127602BB9
:100C0000712B8A01000F111F08701127062B172B5B
:100C1000B90154E0660F771F5A95E1F760727727A4
:100C2000062B172B64E0220F331F6A95E1F720741F
:100C30003327022B132B76E0880F991F7A95E1F763
:100C400088279170082B192BA196EFAEA197A0963B
:100C50001FAEA097A1966EAD7FADA1976627747069
:100C6000062B172BA396EFAEA397A2961FAEA297C3
:100C7000A3966EAD7FADA39766277870062B172BD2
:100C8000F980F294A0EFFA22A596FFAEA597A4965C
:100C90001FAEA497A5966EAD7FADA597662770721F
:100CA000602B712BA796FFAEA797A6961FAEA697AF
:100CB000A7960EAD1FADA79700271074602B712B60
:100CC000D4016C9311967C93DF01A05ABF4F4D91D4
:100CD0005C91119712962D913C91119754978D919B
:100CE0009C9111971E96EC90EA821296FC90F982E4
:100CF000DA01AA0FBB1FA270BB27B90104E0660F7F
:100D0000771F0A95E1F7607177276A2B7B2BDC014F
:100D1000B695BA2FAA27B795A795BB276A2B7B2B29
:100D2000DC01B695A795B695A795BB27A695B7956F
:100D3000AA276A2B7B2BEE0CA996EFAEA997A89653
:100D40001FAEA897A996AEADBFADA997AA27B2705E
:100D5000A62BB72BF29400EFF022AB96FFAEAB9729
:100D6000AA961FAEAA97AB966EAD7FADAB976627DE
:100D70007071A62BB72B8A01000F111F0470112769
:100D8000A02BB12B8A01000F111F087011270A2B0D
:100D90001B2BD90144E0AA0FBB1F4A95E1F7A072B3
:100DA000BB270A2B1B2B54E0220F331F5A95E1F768
:100DB00020743327022B132BDC01B695A795BA2F8D
:100DC000AA27AA27B1700A2B1B2BAD96EFAEAD97C1
:100DD000AC961FAEAC97AD96AEADBFADAD97AA27A2
:100DE000B4700A2B1B2BAF96EFAEAF97AE961FAE2B
:100DF000AE97AF96AEADBFADAF97AA27B8700A2B2E
:100E00001B2BE196FFAEE197E0961FAEE097E196CF
:100E1000AEADBFADE197AA27B072A02BB12BE39680
:100E2000FFAEE397E2961FAEE297E3960EAD1FADDD
:100E3000E397002710740A2B1B2BD40112960C93F6
:100E4000129713961C93DF01A459BF4F4D915C91EB
:100E5000119790972D913C9111971E968D919C9191
:100E6000119750961C917A01EE0CFF1CB70162702D
:100E70007727D90104E0AA0FBB1F0A95E1F7A071FB
:100E8000BB276A2B7B2B7C836B83BC017695762FEB
:100E90006627779567957727AB81BC816A2B7B2B7B
:100EA000B12FB295B07FE596BFAFE597E4961FAE40
:100EB000E497E596AEADBFADE597AA27B0716A2B72
:100EC0007B2B7A01EE0CFF1CD701A470BB27A62B4D
:100ED000B72BA70148705527A42BB52BBC83AB8338
:100EE000790104E0EE0CFF1C0A95E1F7B0E2EB2279
:100EF000FF244B815C81E42AF52A44E0220F331F52
:100F00004A95E1F720743327E22AF32A6C01D6943C
:100F1000C794DC2CCC24CC2451E0D522EC28FD282D
:100F20009695982F88279795879588279270E82A15
:100F3000F92A612F6295607FE7966FAFE797E69693
:100F40001FAEE697E7968EAD9FADE7978827907224
:100F5000E82AF92AE9966FAFE997E8961FAEE89775
:100F6000E9968EAD9FADE99788279074E82AF92A13
:100F7000D4011496EC9214971596FC92DF01A858B0
:100F8000BF4F6D917C91119790974D915C91119706
:100F90001E962D913C91119712960C911E961C91C4
:100FA0007B01EE0CFF1CC70182709927DA01A29524
:100FB000B295B07FBA27A07FBA27A071BB278A2B32
:100FC0009B2B9C838B83C9019695982F8827979597
:100FD00087959927AB81BC818A2B9B2BB02FBB0FA8
:100FE000BB0FEB96BFAFEB97EA961FAEEA97EB9677
:100FF000AEADBFADEB97AA27B4708A2B9B2B01FB3C
:10100000EE24E0F8EC96EFAEEC97ED961FAEED9780
:10101000ED96AEADBFADED978A2B9B2BB12FB29560
:10102000B07FEF96BFAFEF97EE961FAEEE97EF96BD
:10103000AEADBFADEF97AA27B0718A2B9B2B7B017A
:10104000EE0CFF1CD701A470BB27A82BB92BB7014E
:1010500068707727A62BB72BBC83AB837A0184E01B
:10106000EE0CFF1C8A95E1F7B0E2EB22FF246B81C6
:101070007C81E62AF72A94E0440F551F9A95E1F700
:1010800040745527E42AF52A6901D694C794DC2CCC
:10109000CC24CC2471E0D722EC28FD283695322FC1
:1010A00022273795279522273270E22AF32A000F4C
:1010B000C058DF4F0883C058D040C158DF4F188256
:1010C000CF57D040C158DF4F28813981CF57D0400A
:1010D00022273870E22AF32A812F8295807FCE570B
:1010E000DF4F8883C258D040CF57DF4F1882C15896
:1010F000D040CF57DF4F28813981C158D0402227B7
:101100003072E22AF32ACC57DF4F8883C458D0408C
:10111000CD57DF4F1882C358D040CD57DF4F2881BD
:101120003981C358D04022273074E22AF32AD401EF
:101130001696EC9216971796FC92DF01AC57BF4FAC
:10114000CD90DC909F012C593F4FD9016D917C913E
:10115000225F3F4FD9012D913C91AF014C585F4F19
:10116000DA018D919C918F010E571F4FD8011C9170
:10117000D601AA0FBB1F7D0102E0E022FF24AB01D4
:10118000A4E0440F551FAA95E1F7407155274E2959
:101190005F297901F694FE2CEE24F794E794FF245E
:1011A0004E295F297C01FE2CEE24FF0CFF0CEE245F
:1011B000A4E0FA224E295F297C01F694E794F69484
:1011C000E794FF24E694F794EE24E42AF52AB12F5D
:1011D000B295B07FCA57DF4FB883C658D040CB57BF
:1011E000DF4F1882C558D040CB57DF4F4881598117
:1011F000C558D040442750715701A42AB52A76011A
:10120000EE0CFF1C04E0E022FF24EA28FB28D601B4
:10121000AA0FBB1FA870BB27EA2AFB2A6B0154E068
:10122000CC0CDD1C5A95E1F740E2C422DD24CE2827
:10123000DF28A4E0660F771FAA95E1F7607477278F
:10124000C62AD72A5901B694A794BA2CAA24AA244C
:1012500051E0B522CA28DB283695322F2227379550
:10126000279522273270C22AD32A982F8827990FD0
:10127000990F88279870C82AD92A612F6295607FB4
:10128000C857DF4F6883C858D040C957DF4F18820E
:10129000C758D040C957DF4F88819981C758D0407F
:1012A00088279072C82AD92AC657DF4F6883CA5840
:1012B000D040C757DF4F1882C958D040C757DF4FBB
:1012C00088819981C958D04088279074C82AD92A22
:1012D000D4011896CC9218971996DC92DF01A25986
:1012E000BF4F4D915C91119712962D913C911197A2
:1012F0001E968D919C91119712961C917A01EE0C7D
:10130000FF1CB70162707727D90104E0AA0FBB1F49
:101310000A95E1F7A071BB276A2B7B2B7C836B833B
:10132000BC017695762F6627779567957727AB81F1
:10133000BC816A2B7B2BB12FBB0FBB0FC457DF4F78
:10134000B883CC58D040C557DF4F1882CB58D04017
:10135000C557DF4FA881B981CB58D040AA27B470B8
:101360006A2B7B2B7A01EE0CFF1CD701A470BB27E4
:10137000A62BB72BA70148705527A42BB52BBC83F0
:10138000AB83790104E0EE0CFF1C0A95E1F7B0E2B3
:10139000EB22FF244B815C81E42AF52A44E0220FF2
:1013A000331F4A95E1F720743327E22AF32A6C01B0
:1013B000D694C794DC2CCC24CC2451E0D522EC2844
:1013C000FD289695982F882797958795882792705E
:1013D000E82AF92A612F660F660FC257DF4F68832C
:1013E000CE58D040C357DF4F1882CD58D040C35796
:1013F000DF4F88819981CD58D04088279870E82A9E
:10140000F92AC057DF4F6883C059D040C157DF4F1A
:101410001882CF58D040C157DF4F88819981CF586B
:10142000D04088279071E82AF92AD4011A96EC92C4
:101430001A971B96FC92DF01A658BF4F2D913C9145
:10144000119712968D919C9111971E964D915C91DA
:10145000119712960C9112961C917901EE0CFF1CBB
:10146000B70162707727DC01A295B295B07FBA27E9
:10147000A07FBA27A071BB276A2B7B2B7C836B8351
:10148000BA017695762F6627779567957727AB8192
:10149000BC816A2B7B2BB02FBB0FBB0FCE56DF4F0F
:1014A000B883C259D040CF56DF4F1882C159D040BF
:1014B000CF56DF4FA881B981C159D040AA27B47057
:1014C0006A2B7B2BE12EE294EE0CB0EEEB22CC5695
:1014D000DF4FE882C459D040CD56DF4F1882C35940
:1014E000D040CD56DF4FA881B981C359D040AA273B
:1014F000B072A62BB72B11FBFF24F0F8CB56DF4FB1
:10150000F882C559D040CA56DF4F1882C659D0401C
:10151000CB56DF4FE880F980C559D040AE29BF29AE
:10152000B901660F771F64707727A62BB72B790157
:10153000EE0CFF1C9701287033272A2B3B2BDC0174
:1015400064E0AA0FBB1F6A95E1F7A072BB272A2BA4
:101550003B2B74E0880F991F7A95E1F780749927E7
:10156000822B932BDA01B695A795BA2FAA27AA2723
:10157000B1708A2B9B2B5695542F4427579547952E
:1015800044275270482B592B302F330F330FC85636
:10159000DF4F3883C859D040C956DF4F1882C7592A
:1015A000D040C956DF4F88819981C759D0408827DC
:1015B0009870482B592BC656DF4F3883CA59D040F4
:1015C000C756DF4F1882C959D040C756DF4F8881B0
:1015D0009981C959D04088279071482B592B129571
:1015E000107FC456DF4F1883CC59D040C556DF4F0B
:1015F0001882CB59D040C556DF4F88819981CB598D
:10160000D04088279074482B592BD4011C964C93BA
:101610001C971D965C93DF01AA57BF4F4D915C91BB
:10162000E857FF4F20813181CA01880F991F8270CE
:101630009927B901E4E0660F771FEA95E1F7607139
:101640007727862BBA01660F771F64707727862B62
:10165000440F551F48705527842BA901B4E0440F4F
:10166000551FBA95E1F740725527842B14E0220FDD
:10167000331F1A95E1F720743327822BF4018687F4
:101680001786C056DF4F0FB6F894DEBF0FBECDBF32
:10169000DF91CF911F910F91FF90EF90DF90CF904E
:1016A000BF90AF909F908F907F906F905F904F9082
:1016B0003F902F900895682F70E090E080E00E94A6
:1016C00029392CE53FE842EA5FE30E9481380E9415
:1016D000FA38862F653B40F4611104C087E080939F
:1016E000B3000895643B11F486E2F9CF66E00E94EE
:1016F0004D3A885FF4CF682F70E090E080E00E9460
:1017000029392CE53FE842EA5FE30E9481380E94D4
:10171000FA38862F653B40F4611104C087E080935E
:10172000B4000895643B11F486E2F9CF66E00E94AC
:101730004D3A885FF4CFAF92BF92CF92DF92EF9293
:10174000FF920F931F93CF93DF936C017B018B016B
:10175000040F151FEB015E01AE18BF08C017D107BB
:1017600059F06991D601ED91FC910190F081E02D45
:10177000C6010995892B79F7C501DF91CF911F919A
:101780000F91FF90EF90DF90CF90BF90AF900895B2
:10179000833081F028F4813099F08230A9F00895E7
:1017A0008730A9F08830C9F08430B1F4809180008E
:1017B0008F7D03C0809180008F7780938000089593
:1017C00084B58F7784BD089584B58F7DFBCF8091DC
:1017D000B0008F778093B00008958091B0008F7D26
:1017E000F9CFCF93DF93282F30E0F901EE58FF4F68
:1017F0008491F901E255FF4FD491F901E656FF4F6C
:10180000C491CC23A1F081110E94C80BEC2FF0E011
:10181000EE0FFF1FE057FF4FA591B491EC91ED2320
:1018200081E090E009F480E0DF91CF91089580E0BD
:1018300090E0FACF1F93CF93DF93282F30E0F90188
:10184000EE58FF4F8491F901E255FF4FD491F90111
:10185000E656FF4FC491CC23A9F0162F81110E94A8
:10186000C80BEC2FF0E0EE0FFF1FEA57FF4FA591DA
:10187000B4918FB7F894EC91111108C0D095DE2384
:10188000DC938FBFDF91CF911F910895DE2BF8CFAE
:10189000CF93DF9390E0FC01E255FF4F24918656F1
:1018A0009F4FFC0184918823C9F090E0880F991F15
:1018B000FC01E859FF4FA591B491FC01EA57FF4F95
:1018C000C591D49161110DC09FB7F8948C9120956A
:1018D00082238C938881282328839FBFDF91CF9117
:1018E0000895623051F49FB7F8943C91822F80950F
:1018F00083238C93E8812E2BEFCF8FB7F894EC9154
:101900002E2B2C938FBFEACF61E08091D0050E94EF
:10191000480C60E08091D0050C941A0C4F925F92B5
:101920006F927F928F929F92AF92BF92CF92DF92EF
:10193000EF92FF920F931F93CF93DF934A015B01C6
:101940009C0150E040E060E472E48FE090E00E948F
:10195000AC37690161E08091D0050E94480CA8EE87
:10196000B3E0A50194010E94CB372B013C01E601B5
:10197000D7FC2196D595C7958E01000F111F000F3A
:10198000111F055011090D2C000CEE08FF08812CC9
:10199000912C540184149504A604B704E0F461E08A
:1019A0008091D0050E941A0CC230D10518F0C801F0
:1019B0000197F1F760E08091D0050E941A0CC230C7
:1019C000D10518F0C8010197F1F7A8958C0C9D1C62
:1019D000AE1CBF1CDFCFDF91CF911F910F91FF9005
:1019E000EF90DF90CF90BF90AF909F908F907F90BF
:1019F0006F905F904F900895CF92DF92EF92FF9299
:101A00006C392FEF7207820792070CF443C0B62F90
:101A1000A72FF82FE92F653671058105910524F070
:101A2000B4E6A0E0F0E0E0E097FD38C02B2F3A2FBD
:101A30004F2F5E2F57FF07C0509540953095219549
:101A40003F4F4F4F5F4FAFEFB0E00E94CB3724E6E0
:101A500030E040E050E00E94AC3769017A0160E07C
:101A6000C114D104E104F10409F061E089E00E94AD
:101A7000480C60E08AE00E94480CD0928900C09235
:101A8000880010928B0010928A00FF90EF90DF90F8
:101A9000CF900895BCE9AFEFFFEFEFEF2B2F3A2F78
:101AA0004F2F5E2F57FF07C05095409530952195D9
:101AB0003F4F4F4F5F4FAFEFB0E00E94CB3724E670
:101AC00030E040E050E00E94AC3769017A0160E00C
:101AD000C114D104E104F10409F061E08AE00E943C
:101AE000480C60E089E00E94480CD0928B00C092C4
:101AF0008A001092890010928800C092C805D09286
:101B0000C905E092CA05F092CB05BFCF1F93CF93D2
:101B1000DF93182FEB0161E00E94480C209739F405
:101B200060E0812FDF91CF911F910C941A0CCF3F71
:101B3000D10511F461E0F5CFE12FF0E0EE58FF4F51
:101B4000E491E33031F140F4E130B1F0E230E1F022
:101B5000C038D1057CF7E4CFE73029F1E83059F1FE
:101B6000E430B1F780918000806280938000D09350
:101B70008B00C0938A0004C084B5806884BDC7BD53
:101B8000DF91CF911F91089584B5806284BDC8BD57
:101B9000F7CF80918000806880938000D093890087
:101BA000C0938800EDCF8091B00080688093B00032
:101BB000C093B300E5CF8091B00080628093B00005
:101BC000C093B400DDCFCF92DF92EF92FF920F93DC
:101BD0001F93CF93DF936C392FEF72078207920721
:101BE0000CF44EC0B62FA72FF82FE92F65367105DC
:101BF0008105910524F0B4E6A0E0F0E0E0E097FD77
:101C000043C02B2F3A2F4F2F5E2F57FF07C0509501
:101C10004095309521953F4F4F4F5F4FAFEFB0E06C
:101C20000E94CB3724E630E040E050E00E94AC3721
:101C300069017A018901D42FCF2D60E0C114D1044C
:101C4000E104F10409F061E086E00E94480C60E0E4
:101C500085E00E94480CB60186E00E94860D009344
:101C6000CC051093CD05D093CE05C093CF05DF9161
:101C7000CF911F910F91FF90EF90DF90CF9008953B
:101C8000BCE9AFEFFFEFEFEF2B2F3A2F4F2F5E2F77
:101C900057FF07C050954095309521953F4F4F4FC6
:101CA0005F4FAFEFB0E00E94CB3724E630E040E07A
:101CB00050E00E94AC3769017A018901D42FCF2D01
:101CC00060E0C114D104E104F10409F061E085E0B1
:101CD0000E94480C60E086E00E94480CB60185E056
:101CE000BCCFCF92DF92EF92FF9269017A010E94FE
:101CF000E30DC701B601FF90EF90DF90CF900C94F9
:101D0000FC0C8E3008F08E508770806480937C00CD
:101D100080917A00806480937A0080917A0086FDB9
:101D2000FCCF80917800909179000895BF92CF9276
:101D3000DF92EF92FF920F931F93CF93DF933AE0DE
:101D4000B32EC12CD12C7601CFEFD3E010E000E010
:101D500084E10E94810E0817190708F48C018C1782
:101D60009D0708F4EC01C80ED91EE11CF11CBA94C1
:101D7000B110EECFD701C601801B910BA109B109AB
:101D80008C1B9D0BA109B10923E0B695A7959795EA
:101D900087952A95D1F7883F23E09207A105B105E1
:101DA00008F0A6C0893E23E09207A105B10508F01E
:101DB000ABC08B3C23E09207A105B10508F0A7C09A
:101DC000833A23E09207A105B10508F0A3C0853846
:101DD00023E09207A105B10508F09FC08C3623E0EF
:101DE0009207A105B10508F09BC0813223E092075C
:101DF000A105B10508F097C08F3F22E09207A10529
:101E0000B10508F093C0813D22E09207A105B1051C
:101E100008F08FC08F3922E09207A105B10508F0C4
:101E20008BC08D3622E09207A105B10508F087C06E
:101E30008F3422E09207A105B10508F083C08331F9
:101E400022E09207A105B10508F07FC0853F21E09F
:101E50009207A105B10508F07BC0813E21E0920701
:101E6000A105B10508F077C0823D21E09207A105E8
:101E7000B105D8F5873A21E09207A105B10508F030
:101E80006DC0863921E09207A105B10508F069C04F
:101E90008C3721E09207A105B10508F065C08A35AD
:101EA00021E09207A105B10500F5823321E09207F8
:101EB000A105B10508F05BC08F3021E09207A105B4
:101EC000B10508F057C0803D9105A105B10508F0A6
:101ED00054C0853A9105A105B10508F051C08A3773
:101EE0009105A105B10508F04EC08FEF90E002C04A
:101EF00090E080E0DF91CF911F910F91FF90EF90E4
:101F0000DF90CF90BF9008958FE090E0F3CF83E112
:101F100090E0F0CF8CE090E0EDCF8AE090E0EACF67
:101F200085E090E0E7CF89E090E0E4CF8BE090E0BF
:101F3000E1CF8DE090E0DECF82E090E0DBCF80E18A
:101F400090E0D8CF8EE090E0D5CF88E090E0D2CF7F
:101F500083E090E0CFCF84E190E0CCCF87E190E0C8
:101F6000C9CF85E190E0C6CF87E090E0C3CF82E1A2
:101F700090E0C0CF86E090E0BDCF84E090E0BACFA3
:101F800089E190E0B7CF88E190E0B4CF3FB7F89413
:101F90008091DE039091DF03A091E003B091E10313
:101FA00026B5A89B05C02F3F19F00196A11DB11DB4
:101FB0003FBFBA2FA92F982F8827BC01CD01620FF0
:101FC000711D811D911D42E0660F771F881F991FAB
:101FD0004A95D1F708958F929F92AF92BF92CF9278
:101FE000DF92EF92FF924B015C010E94C60F6B01E2
:101FF0007C010E94C60F6C197D098E099F09683EFD
:10200000734081059105A8F321E0821A9108A10887
:10201000B10888EEC80E83E0D81EE11CF11C8114C3
:102020009104A104B10429F7FF90EF90DF90CF90C5
:10203000BF90AF909F908F900895823039F120F437
:1020400061E0813031F00895833061F060E08430E8
:10205000D1F787E00E941A0C60E08DE00E941A0C14
:1020600060E009C060E087E00E941A0C60E08DE04B
:102070000E941A0C61E08CE00E941A0C69E170E089
:1020800080E090E00E94EB0F0C94960E61E087E0F8
:102090000E941A0C61E0E1CF2FB7F8946091DA0347
:1020A0007091DB038091DC039091DD032FBF0895D5
:1020B0002091D7033091D8032817390771F49091F4
:1020C000D6038091D503981741F0E091D603F0E054
:1020D000EB56FC4F808190E008958FEF9FEF0895BD
:1020E0000895EF92FF920F931F93CF93DF93DC013C
:1020F0005C96ED90FC905D97E114F10479F481E039
:1021000090E013969C938E93129790E080E0DF917D
:10211000CF911F910F91FF90EF9008955196ED91FF
:10212000FC91529750968C915097982F90950FB79D
:102130005E962C915E97122F127021FD6095F89497
:102140002081112319F1282B2083E7012197F1F732
:1021500028E0462F50E0308160FF1AC0382B3083D2
:10216000E7012197F1F7BA0175956795215089F735
:10217000112381F08081892380830FBF5C968D912C
:102180009C910197F1F781E090E0C1CF2923DCCF4A
:102190003923E5CF9081892BEFCF2091D703309160
:1021A000D8032817390771F48091D5032091D603FD
:1021B00090E0805C9F4F821B910960E470E00E9478
:1021C000593A089590E080E008952091D703309126
:1021D000D80328173907B9F49091D6038091D50315
:1021E000981789F0E091D603F0E0EB56FC4F808120
:1021F0002091D60330E02F5F3F4F2F73332720937A
:10220000D60390E008958FEF9FEF0895E091D703F4
:10221000F091D803E817F90769F4A389B4899C9170
:102220008589809589238C931092D8031092D703C7
:1022300081E0089580E00895AF92BF92CF92DF923F
:10224000EF92FF920F931F93CF93DF935C010AE00D
:1022500010E0C12CD12C7601D0E0C0E060E0F501A7
:1022600083810E94480CF50183810E94810EC8176A
:10227000D90708F4EC01C80ED91EE11CF11C01506D
:10228000110961F7D701C6018C1B9D0BA109B1098A
:1022900023E0B695A795979587952A95D1F7DF9175
:1022A000CF911F910F91FF90EF90DF90CF90BF9053
:1022B000AF900895CF93862FC42F0E947B0B8C2F55
:1022C000CF910C945B0BFC01A381B4819781408575
:1022D00051859A01220F331F240F351F7285838584
:1022E0006FB7F8944C91592F50955423492BE72FF1
:1022F000F82FCF01820F931FE817F90781F0219182
:1023000038E04C9300C027FF5C93220F00C000C050
:1023100000C008F45C9300C03A9599F7EDCF6FBF09
:10232000789461E070E080E090E00C94EB0F0F9304
:10233000FC018085918568171906C0F4962F990FC6
:10234000690F70E0A285B385A60FB71F2C93A285F5
:10235000B385A60FB71F11964C9382859385680F9E
:10236000791FFB01028381E00F91089580E0FCCF8B
:10237000CF92DF92EF92FF920F931F93CF93DF9351
:102380007C01162FD42EC22ED0E0C0E0F70180854C
:102390009185C817D90748F40C2D2D2D412F6C2F8E
:1023A000C7010E9497112196F1CF81E0DF91CF9173
:1023B0001F910F91FF90EF90DF90CF900895DC0177
:1023C000E62FF0E0EE0FFF1FE259FE4F80818C9365
:1023D000818111968C93119712966C9308950F93A7
:1023E0001F93CF938C01C62F0E94DF11EC2FF0E0DA
:1023F000EE0FFF1FE259FE4F8181F8018383CF91D9
:102400001F910F9108950F931F93CF938C01C62FA7
:102410000E94DF11EC2FF0E0EE0FFF1FE259FE4F9C
:102420008181D80113968C931397808114968C9395
:10243000149715961C92CF911F910F9108950F93A9
:102440001F93CF938C01C62F0E940312EC2FF0E054
:10245000EE0FFF1FE259FE4F8081F801868315823F
:10246000CF911F910F9108950F931F93CF938C01DC
:10247000C62F0E94DF11EC2FF0E0EE0FFF1FE25994
:10248000FE4F8081D80113968C93139791811496F7
:102490009C9361E00E94480C61E0F8018481CF9137
:1024A0001F910F910C94480C1F93CF93DF93EC0175
:1024B000162F0E94DF11E12FF0E0EE0FFF1FE2590F
:1024C000FE4F81818B8380818C838B8160E00E94B1
:1024D000480C8C8161E00E94480C8C8160E0DF91A7
:1024E000CF911F910C941A0C0F931F93CF93DF93EE
:1024F000EC01162F4F960E94DF11E12FF0E0EE0F56
:10250000FF1FE259FE4F118100811B821A8288EE63
:1025100093E0A0E0B0E08C839D83AE83BF8380E630
:1025200091E0998388831F8A1E8A198E188E1B8ECC
:102530001A8E1D8E1C8E6E8D6E7F6D7F6E8F6695D2
:10254000617081E06827812F0E941A0C61E0812F61
:102550000E94480C812F90E0FC01E255FF4FE4916E
:10256000E88BFC01E656FF4FE491F0E0EE0FFF1F11
:10257000EA57FF4F859194919A8B898B60E0802F69
:102580000E94480C8E8D81FD04C061E0802F0E9466
:102590001A0C0C87802F90E0FC01E255FF4FE4916C
:1025A000ED87FC01E656FF4FE491F0E0EE0FFF1FD0
:1025B000E057FF4F859194919F878E8780E691E049
:1025C0009983888383E08AA31B8E1A8E198E188EB6
:1025D0001F8A1E8A85E690E09D8F8C8F0631E0F57C
:1025E00081E290E09F8B8E8B83E690E0998F888FBD
:1025F00082E490E09B8F8A8F9091680084E008309D
:1026000048F021E00E3008F420E081E001C0880F9E
:102610002A95EAF7892B809368009C852DE630E0A7
:10262000983050F02BE630E09E3030F02CE630E071
:10263000963110F030E020E03C8B2B8B292F30E0DE
:10264000983078F581E001C0880F9A95EAF78D8B74
:102650008C8D9D8D0197F1F78A8D9B8D892BE1F0F3
:102660008091D7039091D803C817D907A9F0009794
:1026700011F00E9406118E8D8E7F8E8F1092D503E1
:102680001092D603D093D803C093D703EB89FC896B
:1026900080819D89892B8083DF91CF911F910F913C
:1026A00008959E3040F42850310981E001C0880F20
:1026B0002A95EAF7CCCF2E503109F7CF0F931F930D
:1026C000CF93DF93EC018B810E94F10B8C018C8105
:1026D0000E94F10BAC0121E030E0012B11F430E05D
:1026E00020E0220F331F81E0452B09F480E0822B8C
:1026F000DF91CF911F910F9108951F93CF93DF9397
:10270000EC01162F0E94DF11E12FF0E0EE0FFF1F0A
:10271000E259FE4F80818B8381818C838B8160E0C5
:102720000E94480C8C8160E0DF91CF911F910C9446
:10273000480CCF93DF93EC0160E08B810E94480C42
:102740008B810E94810E20E034E0A901481B590BC7
:10275000CA01DF91CF910895AF92BF92CF92DF92DD
:10276000EF92FF920F931F93CF93DF935C010AE0E8
:1027700010E0C12CD12C7601D0E0C0E0C5010E9450
:102780009913C817D90708F4EC01C80ED91EE11C2B
:10279000F11C0150110991F7D701C6018C1B9D0B4B
:1027A000A109B10923E0B695A795979587952A9534
:1027B000D1F7DF91CF911F910F91FF90EF90DF90B4
:1027C000CF90BF90AF90089590E080E00895CF93B0
:1027D000DF93EC0161E08B810E94480C8D81813098
:1027E000C1F487E592E00197F1F700C0000060E0D6
:1027F0008C810E941A0C60E08B810E941A0C61E0AF
:102800008C810E941A0C61E08B81DF91CF910C9436
:102810001A0C60E08C810E941A0C9AE19A95F1F7EB
:1028200000C060E08B810E941A0C8AE18A95F1F762
:1028300000C061E08C810E941A0C9AE19A95F1F730
:1028400000C061E08B810E941A0C8AE18A95F1F741
:1028500000C0DF91CF9108951F93CF93DF93EC01D8
:10286000162F61E08B810E94480C8D818130D9F454
:1028700087E592E00197F1F700C0000060E01111D8
:1028800061E08B810E941A0C61E08C810E941A0C1D
:1028900060E08C810E941A0C61E08B81DF91CF9106
:1028A0001F910C941A0C8B8160E0111161E00E9461
:1028B0001A0C61E08C810E941A0C9AE19A95F1F74A
:1028C00000C060E08C810E941A0C8AE18A95F1F7C1
:1028D00000C0E2CF1F93CF93DF93EC0160E08B81C8
:1028E0000E94480C8D818130F1F487E592E00197D8
:1028F000F1F700C0000061E08B810E941A0C61E0DA
:102900008C810E941A0C8B810E94F10B11E0892BA3
:1029100009F410E060E08C810E941A0C812FDF9195
:10292000CF911F91089561E08B810E941A0C9AE16A
:102930009A95F1F700C061E08C810E941A0C8AE13F
:102940008A95F1F700C08B810E94F10B11E0892B71
:1029500009F410E060E08C810E941A0C9AE19A95CB
:10296000F1F700C0DBCF0F931F93CF93DF938C0160
:1029700060E0FC0183810E94480CF8018581D8E069
:10298000813009F587E592E00197F1F700C000007A
:10299000D8E061E0F80184810E941A0CCC0FF801A4
:1029A00083810E94F10B892B09F0C16060E0F8017E
:1029B00084810E941A0CD15061F78C2FDF91CF9146
:1029C0001F910F91089561E0F80184810E941A0C13
:1029D000CC0FF80183810E94F10B892B09F0C160B3
:1029E000FAE1FA95F1F700C060E0F80184810E94F5
:1029F0001A0CFAE1FA95F1F700C0D15021F7DDCFBA
:102A00000F931F93CF93DF93EC01162F61E08C811E
:102A10000E94480C61E08B810E94480C8D818130BE
:102A200019F108E08B8161E017FF60E00E941A0C49
:102A30008AE18A95F1F700C0110F61E08C810E9454
:102A40001A0C9AE19A95F1F700C060E08C810E941F
:102A50001A0C8AE18A95F1F700C0015019F7DF914D
:102A6000CF911F910F91089587E592E00197F1F7BB
:102A700000C0000008E08B8161E017FF60E00E9469
:102A80001A0C110F61E08C810E941A0C60E08C819D
:102A90000E941A0C015079F7E2CFCF93DF93EC013B
:102AA0008FE193E00197F1F700C00000CE010E9492
:102AB000001587EC90E00197F1F700C00000CE010F
:102AC000DF91CF910C946A14CF93DF93EC0161E016
:102AD0008C810E94480C61E08B810E94480C8D81A2
:102AE0008130C1F487E592E00197F1F700C0000062
:102AF00061E08B810E941A0C61E08C810E941A0CAB
:102B000060E08B810E941A0C60E08C81DF91CF9194
:102B10000C941A0C61E08B810E941A0C9AE19A9530
:102B2000F1F700C061E08C810E941A0C8AE18A955D
:102B3000F1F700C060E08B810E941A0C9AE19A952F
:102B4000F1F700C060E08C810E941A0C8AE18A953E
:102B5000F1F700C0DF91CF9108950F931F93CF93AA
:102B6000DF93EC01162F0E94641562E5CE010E94EE
:102B70000015CE010E946A14612F6068CE010E9488
:102B80000015CE010E946A14CE010E94641563E50F
:102B9000CE010E940015CE010E946A14CE010E944F
:102BA000B314182F60E0CE010E942C14CE010E94B5
:102BB000B314082F61E0CE010E942C14CE010E94B4
:102BC000E713902F812FDF91CF911F910F910895DF
:102BD0000F931F93CF93DF93EC01162F042F0E94C6
:102BE000641562E5CE010E940015CE010E946A14B0
:102BF000612F6068CE010E940015CE010E946A1408
:102C0000602FCE010E940015CE010E946A14CE01F1
:102C10000E94E713802FDF91CF911F910F910895AC
:102C20001F93CF93DF93EC01162F0E946415612F41
:102C3000660FCE010E94001580EA8A95F1F7CE0159
:102C4000DF91CF911F910C946A144F925F926F9213
:102C50007F929F92AF92BF92CF92DF92EF92FF92BC
:102C60000F931F93CF93DF93CDB7DEB728970FB69F
:102C7000F894DEBF0FBECDBF7C01CE0101966C0182
:102C80005E0199E0A90EB11C992493940E944C1006
:102C9000F70140845184628473846419750986093C
:102CA0009709613171058105910508F09782F70157
:102CB0008781882309F4B5C00E944C10F701608712
:102CC000718782879387178260E4C7010E9410167C
:102CD00062EAC7010E944D1562EAC7010E944D15C4
:102CE00062EAC7010E944D1561E0C7010E944D15BF
:102CF000C7010E94E713F701868160E00E94480C3B
:102D0000F701868190E0FC01E255FF4F6491FC01E0
:102D1000E656FF4FE491F0E0EE0FFF1FE057FF4F44
:102D20008591949100E712E620E030E040E00E94B7
:102D3000702B412C512C32016115710581059105D3
:102D4000B1F02B013C01FFEF4F1A5F0A6F0A7F0AB7
:102D50002FE072228CE2481681E05806610471046B
:102D600030F09CE2491A91E0590A61087108C301E8
:102D7000B2010E942B39F701648775878687978790
:102D8000141415041604170434F084EA482E88E35A
:102D9000582E612C712CC301B2010E942B3920E006
:102DA00030E048E652E40E948138F6016193719365
:102DB000819391936F0162E170E080E090E00E9466
:102DC000EB0FAC14BD0409F061CFC980DA80EB8051
:102DD000FC807D809E80AF80B884272D392DA50191
:102DE000B601C7010E94DB3987FF03C0C72CD92C6D
:102DF0007501B601C70128960FB6F894DEBF0FBE65
:102E0000CDBFDF91CF911F910F91FF90EF90DF9099
:102E1000CF90BF90AF909F907F906F905F904F90BA
:102E2000089564857585868597850E94F3382B0102
:102E30003C01A6CFFF920F931F93CF93DF93EC013A
:102E4000F62E042F122F60E50E94101663EACE01C1
:102E50000E944D156F2DCE010E944D15602FCE01A1
:102E60000E944D15612FCE010E944D15CE01DF91BC
:102E7000CF911F910F91FF900C94E713FF920F9346
:102E80001F93CF93DF93EC01F62E042F122F60E4F3
:102E90000E94101661EACE010E944D156F2DCE01E1
:102EA0000E944D15602FCE010E944D15612FCE015D
:102EB0000E944D15CE01DF91CF911F910F91FF9090
:102EC0000C94E7130F931F93CF93DF93EC01042F20
:102ED000122F0E941016602FCE010E944D15612FF7
:102EE000CE010E944D15CE01DF91CF911F910F9120
:102EF0000C94E713CF92DF92EF92FF920F931F9300
:102F0000CF93DF93EC01D62EC42E79010E94641575
:102F10006D2D660FCE010E940015CE010E946A142D
:102F20006C2DCE010E940015CE010E946A140E0D78
:102F30001F1DE016F10651F0F70161917F01CE01EE
:102F40000E940015CE010E946A14F3CFCE01DF91DA
:102F5000CF911F910F91FF90EF90DF90CF900C9445
:102F6000E7138F929F92AF92BF92CF92DF92FF9220
:102F70000F931F93CF93DF93EC01F62E2BE04DEFD1
:102F80000E94621720E04AE06F2DCE010E94621776
:102F900020E141E06F2DCE010E94621724EE4DE04A
:102FA0006F2DCE010E94621721E04EE06F2DCE0101
:102FB0000E94621724E444E16F2DCE010E94621743
:102FC00024E845E16F2DCE010E94621729E94FE008
:102FD0006F2DCE010E94621720E04DEF6F2DCE01C4
:102FE0000E9462172CE0822E23E0922EF4011192AF
:102FF00083E0EC3AF807D9F70FE910E02CE033E072
:1030000040E06F2DCE010E947A1721E04DEF6F2D29
:10301000CE010E946217ECE0F3E0119293E0EC3AEB
:10302000F907D9F70FE910E02CE033E040E06F2D0D
:10303000CE010E947A172DE04DEF6F2DCE010E9438
:103040006217ECE1F1E0ACE0B3E081918D9381E0B7
:10305000EC35F807D1F70FE310E02CE033E040E067
:103060006F2DCE010E947A172BE04DEF6F2DCE0110
:103070000E94621721E04AE06F2DCE010E94621784
:103080002BE04DEF6F2DCE010E94621720E04AE049
:103090006F2DCE010E94621720E04DEF6F2DCE0103
:1030A0000E9462179CE0A92E93E0B92EF5011192BF
:1030B0005F01FCE1AF16F3E0BF06C1F70FE010E0DF
:1030C0002CE033E040E06F2DCE010E947A178CE0B7
:1030D000C82E83E0D82E85E5F60181936F01FCE8C8
:1030E000CF16F3E0DF06C1F70FE710E02CE033E086
:1030F00040E26F2DCE010E947A172BE04DEF6F2D2D
:10310000CE010E94621721E04AE06F2DCE010E949D
:1031100062172BE04DEF6F2DCE010E94621720E069
:103120004AE06F2DCE010E94621721E04DEF6F2D16
:10313000CE010E946217ECE0F3E01192AE16BF06DA
:10314000E1F70FE010E02CE033E040E06F2DCE011E
:103150000E947A1785E5F40181934F01CE16DF06B0
:10316000D1F70FE710E02CE033E040E26F2DCE0105
:103170000E947A172BE04DEF6F2DCE010E9462174F
:1031800021E04AE06F2DCE01DF91CF911F910F9189
:10319000FF90DF90CF90BF90AF909F908F900C9456
:1031A0006217CF93DF93EC010E94031281E08D83BD
:1031B000CE010E94641567EECE010E944D1560E8B5
:1031C000CE010E944D1564EACE010E944D156AE9B8
:1031D000CE010E944D1561E8CE010E944D1563E8B5
:1031E000CE010E944D15CE01DF91CF910C94E713D3
:1031F0000F931F93CF93DF938C01D62FC42F0E9480
:10320000641563E36D0F660FC8010E940015C801C5
:103210000E946A14C7FF11C0CF77EC2FF0E0E55F82
:10322000FE4F60816068C8010E940015C801DF91EF
:10323000CF911F910F910C94E713EC2FF0E0E55F15
:10324000FE4F6081F0CFCF93DF93EC010E946415B5
:1032500068E4CE010E940015CE010E946A1461E369
:10326000CE010E940015CE01DF91CF910C94E7139F
:103270000F931F93CF93DF93EC010E94641562E5D7
:10328000CE010E940015CE010E946A1462E9CE01AF
:103290000E940015CE010E946A14CE010E9464159E
:1032A00063E5CE010E940015CE010E946A14CE0192
:1032B0000E94B314182F61E0CE010E942C14CE019D
:1032C0000E94E713143419F080E0103159F581E0C1
:1032D0008E8319850A85412F61E0CE010E94E81591
:1032E00019870A871F8108858E81811103C0CE014D
:1032F0000E943819412F6FE0CE010E94E8151F830C
:10330000088741E060E0CE010E94E81563E070E0CC
:1033100080E090E00E94EB0F43E060E0CE010E946D
:10332000E81581E0DF91CF911F910F910895AF9241
:10333000BF92CF92DF92EF92FF920F931F93CF93A2
:10334000DF93EC015B016A0179018E81811103C079
:10335000CE010E94381964E1CE010E94AD15F8013A
:103360009183808366E1CE010E94AD15F5019183C2
:10337000808368E1CE010E94AD15F60191838083C0
:103380006AE1CE010E94AD15F701918380838985A2
:103390009A85853D9105A1F180F40097D9F1803C93
:1033A000910599F1DF91CF911F910F91FF90EF90CF
:1033B000DF90CF90BF90AF900895863F9105D9F0F0
:1033C0008F3F910541F08B3E910561F762E370E01C
:1033D00080E090E004C063E070E080E090E0DF9186
:1033E000CF911F910F91FF90EF90DF90CF90BF9002
:1033F000AF900C94EB0F68E170E080E090E0EFCFCD
:1034000065E670E080E090E0EACF6AE970E080E095
:1034100090E0E5CF6CEB72E080E090E0E0CF2F929F
:103420003F924F925F926F927F928F929F92AF9254
:10343000BF92CF92DF92EF92FF920F931F93CF93A1
:10344000DF93CDB7DEB72B970FB6F894DEBF0FBE74
:10345000CDBFE82EF12C28EC829FF0011124EE5113
:10346000FC4FE481E15AE23108F0BAC2F0E0E55CD9
:10347000F54E0C946D3A4D1ACB1A001B411BA21B42
:103480001A1D821DE91DF01C2221F01CF01CF01CED
:10349000501E611FEB1F5320BA2088EC8E9D8001C7
:1034A0008F9D100D11240E511C4FD80115968C9133
:1034B0000E941D10029709F093C28091B30590916C
:1034C000B405009709F050C080E190E00E94873A6F
:1034D0006C01F8016581C6010E941F12D092B405EB
:1034E000C092B3058091B3059091B4050E94251652
:1034F00020E030E040E251E40E94E0390E94F338DD
:103500009B0142E54093D10542E44093D20548EC4B
:103510004E9DF0014F9DF00D1124EE51FC4F438163
:103520004093D40541E04093D505AB0177FF02C03D
:1035300041505F4F5093D605C90160E071E00E9491
:10354000593A8093D70588E08093D305E1EDF5E003
:1035500028ED35E080E09191890F2E173F07D9F7CC
:103560008093D80588E03AC2DC0112964C91F801AC
:103570002581022E000C330B4217130609F4B2CF3B
:103580000E94233B80E190E00E94873A6C01D801C1
:1035900015966C91A0CF88EC8E9DF0018F9DF00D5B
:1035A0001124EE51FC4F8581893F09F019C282E553
:1035B0008093D10582E48093D2051092D305838154
:1035C0008093D40511E01093D50588E00E94F10B9B
:1035D000019799F41092D60587E08093D305E1ED29
:1035E000F5E027ED35E080E09191890F2E173F0738
:1035F000D9F78093D70587E0F1C11093D605ECCFBA
:1036000088EC8E9D80018F9D100D11240E511C4F52
:10361000F80185818D3F09F0E3C185E10E94810EAB
:1036200022E3AC01249FC001259F900D112422E5C7
:103630002093D10522E42093D205D80113962C9132
:103640002093D40521E02093D5056FEF73E00E940D
:10365000593ACB0160E071E00E94593A982F990FD6
:10366000890F8093D60587E08093D305E1EDF5E0DF
:1036700027ED35E080E09191890F2E173F07D9F7AC
:10368000B8CF8091AF059091B00528EC2E9D8001B8
:103690002F9D100D11240E511C4FF801D58000975D
:1036A000C1F585E090E00E94873A8C016D2D0E9463
:1036B0007D131093B0050093AF0582E58093D1058B
:1036C00082E48093D2051092D30588EC8E9DF001A0
:1036D0008F9DF00D1124EE51FC4F83818093D40512
:1036E00081E08093D5058091AF059091B0050E944F
:1036F0005E138093D60587E08093D305E1EDF5E076
:1037000027ED35E080E09191890F2E173F07D9F71B
:1037100070CFDC0112962C916D2DDD0C770B2617E6
:10372000170659F20E94233B85E090E00E94873AF9
:103730006C01F80165810E947D13D092B005C092A2
:10374000AF05BBCF88EC8E9D80018F9D100D11249D
:103750000E511C4FD80115968C910E941D10069792
:1037600009F03EC180919B0590919C05009709F05E
:1037700050C186E090E00E94873A6C01F801158103
:10378000612F0E94DF11E12FF0E0EE0FFF1FE259E1
:10379000FE4F8181D60115968C93D0929C05C092E4
:1037A0009B0500919B0510919C05FE0131961F0120
:1037B00085E0DF011D928A95E9F761E0F8018581D6
:1037C0000E94480C61E0D80115968C910E941A0C59
:1037D0006AEF70E080E090E00E94EB0F60E0F8019B
:1037E00085810E941A0C64E170E080E090E00E9404
:1037F000EB0F61E0D80115968C910E941A0C8BE9B1
:1038000090E00197F1F760E0F80185810E941A0CC1
:1038100083E290E00197F1F70E944C104B015C01AC
:1038200062E0D80115968C910E94480CF8018581C0
:103830000E94F10B019789F00E944C1068197909D8
:103840008A099B09653071058105910578F3D801D6
:1038500013961C92139714961C920E944C104B01C5
:103860005C0162E0F80185810E94480CD801159640
:103870008C910E94F10B892B59F00E944C10681911
:1038800079098A099B09653071058105910570F3F5
:10389000D12CC12C0E944C104B015C0162E0F8015C
:1038A00085810E94480CD80115968C910E94F10BDD
:1038B000892B59F40E944C10681979098A099B09CF
:1038C000653071058105910570F30E94C60F4B01AB
:1038D0005C010E944C102B013C0162E0F8018581E3
:1038E0000E94480CD80115968C910E94F10B01970B
:1038F00059F40E944C1064197509860997096530BE
:1039000071058105910570F30E94C60FF601A3E0D1
:10391000F595E795AA95E1F7E20DF31D2081220FB9
:10392000AB01BC01481959096A097B0949325105A3
:103930006105710508F47CC0822F81608083BFEF30
:10394000CB1ADB0AE8E2CE16D10409F0A3CF5981E5
:103950004B816D818A81850F9927991F9C01240FC6
:10396000311D8C81820F932F911D9927681719069D
:1039700031F4D80113965C93139714964C9382E517
:103980008093D10582E48093D20588EC8E9DF0016E
:103990008F9DF00D1124EE51FC4F83818093D4054F
:1039A00081E08093D505F80183818093D60510923C
:1039B000D70584818093D8051092D9058AE0809339
:1039C000D305E1EDF5E02AED35E080E09191890F36
:1039D0002E173F07D9F78093DA058AE00E949400FA
:1039E0002B960FB6F894DEBF0FBECDBFDF91CF91FF
:1039F0001F910F91FF90EF90DF90CF90BF90AF900D
:103A00009F908F907F906F905F904F903F902F90FE
:103A10000895FC014281D80115962C91022E000CCC
:103A2000330B4217130609F4BCCE0E94233BA1CEF0
:103A3000208385CF8091990590919A0528EC2E9D41
:103A400080012F9D100D11240E511C4FD801159689
:103A5000DC900097F1F584E090E00E94873A8C01B9
:103A60006D2D0E94EF1110939A050093990582E540
:103A70008093D10582E48093D2051092D30588EC1F
:103A80008E9DF0018F9DF00D1124EE51FC4F83812E
:103A90008093D40581E08093D5050091990510911C
:103AA0009A05C8010E94AC139093D605C8010E94E4
:103AB000AC138093D70588E08093D305E1EDF5E062
:103AC00028ED35E080E09191890F2E173F07D9F757
:103AD00047CDFC0122816D2DDD0C770B26171706D3
:103AE00031F20E94233B84E090E00E94873A6C010F
:103AF000D80115966C910E94EF11D0929A05C09250
:103B00009905B5CF809197059091980528EC2E9D49
:103B100080012F9D100D11240E511C4FF801D580EE
:103B20000097F1F584E090E00E94873A8C016D2DBA
:103B30000E94EF11109398050093970582E58093FA
:103B4000D10582E48093D2051092D30588EC8E9D36
:103B5000F0018F9DF00D1124EE51FC4F8381809375
:103B6000D40581E08093D5050091970510919805C3
:103B7000C8010E941C119093D605C8010E941C1117
:103B80008093D70588E08093D305E1EDF5E028ED3B
:103B900035E080E09191890F2E173F07D9F7E0CCEF
:103BA000DC0112962C916D2DDD0C770B2617170674
:103BB00029F20E94233B84E090E00E94873A6C0146
:103BC000F80165810E94EF11D0929805C092970587
:103BD000B5CF809193059091940528EC2E9D80019E
:103BE0002F9D100D11240E511C4FD8011596DC90FD
:103BF0000097E9F585E090E00E94873A8C016D2DF1
:103C00000E945412109394050093930582E58093CB
:103C1000D10582E48093D2051092D30588EC8E9D65
:103C2000F0018F9DF00D1124EE51FC4F83818093A4
:103C3000D40581E08093D505E0919305F09194053A
:103C400083810E94F10B21E0892B09F020E0209371
:103C5000D60587E08093D305E1EDF5E027ED35E06B
:103C600080E09191890F2E173F07D9F7C2CCFC0154
:103C700022816D2DDD0C770B2617170639F20E9475
:103C8000233B85E090E00E94873A6C01D8011596AD
:103C90006C910E945412D0929405C0929305B6CFB5
:103CA000809185059091860548EC4E9D90014F9D31
:103CB000300D1124F901EE51FC4F5F011581009781
:103CC00009F0C1C085E090E00E94873A6C01612F45
:103CD000C6010E94DF11E12FF0E0EE0FFF1FE25955
:103CE000FE4F8181D60113968C9313978081149691
:103CF0008C93D0928605C0928505C0908505D090A2
:103D0000860560E0F60183810E94480CD601139677
:103D10008C910E94810E9C01205D32401216130688
:103D20000CF0A5C04BE0429FC001439F900D1124B1
:103D300066E070E00E94593A00919401109195015B
:103D4000060F171F013EB1E01B070CF099C00032AF
:103D5000EEEF1E070CF497C0C801C196833691059B
:103D600008F494C060E0D60114968C910E94480C2F
:103D7000F60184810E94810E9C01205D3240121662
:103D800013060CF086C045EF4203C001439F900D1F
:103D9000112466E070E00E94593A8091960190915A
:103DA0009701680F791F613E51E075070CF07EC0E6
:103DB00060328EEF78070CF47CC0CB01C19683365D
:103DC000910508F479C082E58093D10582E480935F
:103DD000D20588EC8E9DF0018F9DF00D1124EE51DF
:103DE000FC4F83818093D40581E08093D50517FD36
:103DF00066C08093D60517FF03C011950195110980
:103E00001093D7050093D80581E077FD82E0809379
:103E1000D90577FF03C07195619571097093DA0533
:103E20006093DB058CE08093D305E1EDF5E02CEDAC
:103E300035E080E09191890F2E173F07D9F78093E5
:103E4000DC058CE0CBCDFC012281612F110F770BBB
:103E50002617170609F451CF0E94233B85E090E016
:103E60000E94873A6C01D50115961C9130CF47E02E
:103E7000429FC001439F900D11246AE070E05ACF29
:103E800000EE11E06FCF00E21EEF6CCF10E000E01B
:103E900069CFC90153E0880F991F5A95E1F7A9012D
:103EA000481B590BCA016AE070E075CF60EE71E003
:103EB0008ACF60E27EEF87CF70E060E084CF82E05F
:103EC00098CF809183059091840548EC4E9D900198
:103ED0004F9D300D1124D901AE51BC4F5D01159697
:103EE0001C91009709F063C085E090E00E94873A3A
:103EF0006C01612FC6010E94DF11E12FF0E0EE0F8F
:103F0000FF1FE259FE4F8081D60113968C931397C1
:103F1000818114968C93D0928405C092830582E5AA
:103F20008093D10582E48093D2051092D30588EC6A
:103F30008E9DF0018F9DF00D1124EE51FC4F838179
:103F40008093D40581E08093D505E0908305F090BF
:103F5000840560E0F70184810E94480CD701149623
:103F60008C910E94810E0FEF13E0F801E81BF90B12
:103F7000CF019093D60560E0D70114968C910E94F2
:103F8000480CF70184810E94810E081B190B0093D5
:103F9000D70588E08093D305E1EDF5E028ED35E025
:103FA00080E09191890F2E173F07D9F7D9CAFC01FC
:103FB0002281612F110F770B2617170609F4AFCF57
:103FC0000E94233B85E090E00E94873A6C01D50176
:103FD00015961C918ECF809181059091820528ECD9
:103FE0002E9D80012F9D100D11240E511C4FD801C4
:103FF0001596DC900097F1F584E090E00E94873AF6
:104000008C016D2D0E94EF111093820500938105A4
:1040100082E58093D10582E48093D2051092D30586
:1040200088EC8E9DF0018F9DF00D1124EE51FC4F18
:1040300083818093D40581E08093D505009181052B
:1040400010918205C8010E9499139093D605C8016A
:104050000E9499138093D70588E08093D305E1ED02
:10406000F5E028ED35E080E09191890F2E173F07AC
:10407000D9F776CAFC0122816D2DDD0C770B26174E
:10408000170631F20E94233B84E090E00E94873AB9
:104090006C01D80115966C910E94EF11D0928205A7
:1040A000C0928105B5CF80917F059091800528EC65
:1040B0002E9D80012F9D100D11240E511C4FF801D3
:1040C000D5800097F1F584E090E00E94873A8C015A
:1040D0006D2D0E94EF111093800500937F0582E5FE
:1040E0008093D10582E48093D2051092D30588ECA9
:1040F0008E9DF0018F9DF00D1124EE51FC4F8381B8
:104100008093D40581E08093D50500917F051091BF
:104110008005C8010E941C119093D605C8010E9419
:104120001C118093D70588E08093D305E1EDF5E07D
:1041300028ED35E080E09191890F2E173F07D9F7E0
:104140000FCADC0112962C916D2DDD0C770B261712
:10415000170629F20E94233B84E090E00E94873AF0
:104160006C01F80165810E94EF11D0928005C09228
:104170007F05B5CF80917D0590917E0528EC2E9D21
:1041800080012F9D100D11240E511C4FD801159642
:10419000DC900097F1F584E090E00E94873A8C0172
:1041A0006D2D0E94EF1110937E0500937D0582E531
:1041B0008093D10582E48093D2051092D30588ECD8
:1041C0008E9DF0018F9DF00D1124EE51FC4F8381E7
:1041D0008093D40581E08093D50500917D051091F1
:1041E0007E05C8010E941C119093D605C8010E944B
:1041F0001C118093D70588E08093D305E1EDF5E0AD
:1042000028ED35E080E09191890F2E173F07D9F70F
:10421000A7C9FC0122816D2DDD0C770B261717062F
:1042200031F20E94233B84E090E00E94873A6C01C7
:10423000D80115966C910E94EF11D0927E05C09224
:104240007D05B5CF28EC2E9DC0012F9D900D11242A
:10425000FC01EE51FC4F6F0185810E941D100D97EE
:1042600009F0BECB00918D0510918E05D6011596F3
:104270008C910115110509F081C00E941D100D9748
:1042800001F58BE090E00E94873A8C01F601658190
:104290000E940312D80116961C9216978BEE90E09E
:1042A0001A969C938E93199781E090E018969C93B0
:1042B0008E93179710938E0500938D05C8010E9469
:1042C000381928EC2E9DC0012F9D900D11249C01C2
:1042D0002E513C4F5901D9011696DC90B1E0DB120A
:1042E00074C008E911E02AE931E04CE951E06EE9D7
:1042F00071E080918D0590918E050E94971982E55D
:104300008093D10582E48093D205F5018381809367
:10431000D405D092D505D092D60580919E0190917A
:104320009F019093D7058093D80580919C0190912F
:104330009D019093D9058093DA0580919A0190911F
:104340009B019093DB058093DC058091980190910F
:1043500099019093DD058093DE058FE08093D3056E
:10436000E1EDF5E02FED35E080E09191890F2E171A
:104370003F07D9F78093DF058FE030CBF8019281BA
:10438000282F082E000C330B9217130609F499CF2F
:104390000E941D100D9709F094CFC8010E94233B85
:1043A0008BE090E00E94873A8C01D60115966C91C3
:1043B0000E940312F80116828BEE90E092878187AB
:1043C00081E090E09087878375CFF2E0DF1208CB21
:1043D00060908D0570908E0536E0932ED12CC12C07
:1043E000B12CA12C8E010F5F1F4F9E012A5F3F4F02
:1043F000AE01485F5F4FBE01665F7F4FC3010E9401
:10440000971989819A81A816B90608F45C01C80E2B
:10441000D91E9A949110E6CFCA18DB08C60196956A
:1044200087959695879590939B0180939A0192E545
:104430009093D10592E49093D20598EC9E9DF00163
:104440009F9DF00D1124EE51FC4F93819093D40564
:1044500091E09093D50592E09093D6059D2D969589
:1044600096959093D7058093D80589E08093D305DE
:10447000E1EDF5E029ED35E080E09191890F2E170F
:104480003F07D9F78093D90589E0A8CACF93DF9376
:10449000EC01862F90E09987888723E0629FC00116
:1044A00011240E94873A9B878A87892B21F488E709
:1044B00091E00E94AC3B90E080E0488559859A01EC
:1044C000220F331F240F351F8217930738F4EA8514
:1044D000FB85E80FF91F10820196EFCFDF91CF9196
:1044E00008951F93CF93DF93EC01162F0E94DF11E5
:1044F000E12FF0E0EE0FFF1FE259FE4F8181282FE0
:1045000030E0F901E255FF4FE491EF83F901E656FF
:10451000FF4FE491F0E0EE0FFF1FEA57FF4F2591A8
:1045200034913C832B8361E00E94480C64E0CE010F
:10453000DF91CF911F910C9446228F929F92AF9260
:10454000BF92CF92DF92EF92FF920F931F93CF9380
:10455000DF93CDB7DEB764970FB6F894DEBF0FBE1A
:10456000CDBFE82EF12C28EC829FF0011124EE51F2
:10457000FC4FE481E150E03208F009C60E2E000C39
:10458000FF0BEB53FD4D0C946D3AE5221223C72827
:104590004F237523C728C728C728C728C728C72877
:1045A000C728C728C728C728B523FD234124C0240E
:1045B000D924A2248C24C728A325E8254826C4266C
:1045C0009F27C728FD288A28642982E58093D10582
:1045D00082E48093D20588E08093D30588EC8E9D99
:1045E000F0018F9DF00D1124EE51FC4F83818093DB
:1045F000D4058AE08093D50581E08093D60582E0DA
:104600008093D705E1EDF5E028ED35E080E091916C
:10461000890F2E173F07D9F78093D80588E00E94AD
:104620009400B5C582E58093D10582E48093D205DC
:104630001092D30588EC8E9DF0018F9DF00D112412
:10464000EE51FC4F83818093D4058581823019F12E
:1046500024F4813041F0E4E00CC08330F1F0843088
:10466000D1F784E001C081E00E941D108093D50540
:10467000E5E081E08E0F8093D305A1EDB5E020E069
:1046800090E03D91930F2F5FE213FBCFF0E0EF52EC
:10469000FA4F9083C4CF82E0E7CF83E0E5CF82E595
:1046A0008093D10582E48093D20588EC8E9DF00141
:1046B0008F9DF00D1124EE51FC4F83818093D40522
:1046C00081E08093D5058093D60587E08093D3055C
:1046D000E1EDF5E080E09191890F35E0E73DF307EA
:1046E000D1F78093D70587E09ACF82E58093D105F3
:1046F00082E48093D2051092D30588EC8E9DF00160
:104700008F9DF00D1124EE51FC4F83818093D405D1
:1047100081E00E941D108093D50582E00E941D104B
:104720008093D60583E00E941D108093D70584E016
:104730000E941D108093D8051092D9051092DA05B9
:104740001092DB051092DC058DE08093D305E1ED3E
:10475000F5E02DED35E080E09191890F2E173F07B0
:10476000D9F78093DD058DE05ACF88EC8E9DF0015E
:104770008F9DF00D1124EE51FC4F85818C3FA1F1EE
:10478000882339F08B3F81F400852781468161E0E1
:104790002FC020854781668185EB95E00E94B81186
:1047A00085EB95E00E94631182E58093D10582E458
:1047B0008093D20588EC8E9DF0018F9DF00D112421
:1047C000EE51FC4F83818093D40591E09093D50501
:1047D00096E09093D3059BE9980F9093D605882394
:1047E00009F4D5C486E01BCF00852781468160E0AF
:1047F00085EB95E00E949711D3CF88EC8E9D8001C8
:104800008F9D100D11240E511C4FD80115968C91BF
:1048100015978F3F61F1882361F08E3F29F6169638
:104820006C91062E000C770B880B990B0E94FC0CE8
:10483000BBCFF8012781022E000C330B440B550B24
:104840006681062E000C770B880B990B0E94710E67
:10485000D80116968C9116978111A6CF17968C9138
:104860008111A2CF1092B2051092C6059DCFF8011A
:104870006681062E000C770B880B990B0E94E30DC6
:1048800093CF88EC8E9D80018F9D100D11240E51C9
:104890001C4FF80185810E941D10029709F084CFFA
:1048A0008091B3059091B405009709F580E190E0FF
:1048B0000E94873A6C01D80115966C91C6010E943E
:1048C0001F12D092B405C092B30588EC8E9DF00102
:1048D0008F9DF00D1124EE51FC4F2085478166819C
:1048E0008091B3059091B4050E943E175DCFFC0105
:1048F0004281D80115962C91022E000C330B4217E1
:10490000130619F30E94233B80E190E00E94873A4E
:104910006C01F8016581D2CF88EC8E9DF0018F9DEE
:10492000F00D1124EE51FC4F8581893F09F03CCFF9
:104930008681882321F081E08093730535CF109222
:10494000730532CF88EC8E9DF0018F9DF00D112400
:10495000EE51FC4F8681882369F0813071F010920E
:104960007705109278051092790510927A051092C9
:1049700076051ACF1092C705F2CF8093C705EFCF07
:1049800088EC8E9DF0018F9DF00D1124EE51FC4FAF
:1049900085818A3F09F008CF40858185542F482FB3
:1049A00070E060E0968187810E948E0C0E94840CEA
:1049B000FBCE88EC8E9D80018F9D100D11240E5131
:1049C0001C4FD80115968C910E941D10039709F079
:1049D000EBCE80919D0590919E05009709F09CC0BB
:1049E00086E090E00E94873A6C01F8016581C6017B
:1049F0000E94D118D0929E05C0929D05C0909D0541
:104A0000D0909E0588EC8E9DF0018F9DF00D1124B5
:104A1000E851FC4F43E120818181322F282FC901C9
:104A20009695879585759575220F331F2A7A3A7A60
:104A3000822B932B9C0136952795369527952373CA
:104A40003373880F991F880F991F8C7C9C7C282BAF
:104A5000392BC90174E0969587957A95E1F78F70A7
:104A60009F70A4E0220F331FAA95E1F7207F307FCB
:104A7000822B932B982789279827880F991F880FB7
:104A8000991F5FEF540F21E030E02C0F3D1F240FE2
:104A9000311DD9018C934250A1E0B0E0AC0FBD1F95
:104AA000A50FB11D9C9332964F3F09F0B4CFC601BC
:104AB0000E94641567EEC6010E944D1560E0C601B4
:104AC0000E944D158E010F5F1F4F5E01B5E1AB0EC9
:104AD000B11CF80121918F0130E0C90195958795AE
:104AE000959587958373220F331F220F331F2C7CDC
:104AF000822B90E0BC01759567956575880F991FAD
:104B00008A7A682BC6010E944D15A016B10609F7D6
:104B1000C6010E94E71348CEDC0112964C91F801C1
:104B20002581022E000C330B4217130609F466CFC1
:104B30000E94233B86E090E00E94873A6C01D801F6
:104B400015966C9154CF88EC8E9DF0018F9DF00DE1
:104B50001124EE51FC4F85818093B205968190938C
:104B6000C60580858093C10591111ECE0091C205B6
:104B70001091C305D80112962C91082E000C990BA8
:104B80002817190609F010CE20E040E060E0C801C7
:104B90000E94B811C8010E94631120E040E060E06B
:104BA00085EB95E00E94B81185EB95E00E946311BA
:104BB0000115110541F0F801828593850E94233B80
:104BC000C8010E94233B1092C3051092C205ECCD90
:104BD00088EC8E9D80018F9D100D11240E511C4F6D
:104BE000D80115968C910E941D10059709F0DCCD17
:104BF0008091C4059091C505009761F585E090E02E
:104C00000E94873A6C01F8016581C6010E94341246
:104C1000D092C505C092C40583EA8093B00087E0B6
:104C20008093B10088EC8E9DF0018F9DF00D1124D2
:104C3000EE51FC4F8681813019F1823029F18111CA
:104C4000B3CD408567818091C4059091C5050E94D0
:104C50005A11AACDDC0112964C91F8012581022E41
:104C6000000C330B42171306E9F20E94233B85E048
:104C700090E00E94873A6C01D80115966C91C5CFDF
:104C800087810E947B0B90CD87810E945B0B8CCD2E
:104C900088EC8E9D80018F9D100D11240E511C4FAC
:104CA000F80185810E941D10099709F07DCD809142
:104CB000950590919605009709F046C086E090E032
:104CC0000E94873A6C01D80115966C910E940312DC
:104CD000F6011582D0929605C092950588EC8E9DBE
:104CE000F0018F9DF00D1124EE51FC4F8681813033
:104CF000D1F18230D1F0811157CD27818091950576
:104D00009091960540E027FF05C0332721950CF4CC
:104D1000309541E061E00E941A1788EC8E9DF00109
:104D20008F9DF00D1124EE51FC4F2085809195054B
:104D30009091960540E027FF05C0332721950CF49C
:104D4000309541E062E01DC0DC0112964C91F80103
:104D50002581022E000C330B4217130609F4BECF37
:104D60000E94233BABCF27818091950590919605BA
:104D700040E027FF05C0332721950CF4309541E032
:104D800061E00E941A1710CD88EC8E9D80018F9DE6
:104D9000100D11240E511C4FD80115968C910E94B4
:104DA0001D100C9709F000CDC0908F05D090900594
:104DB000C114D10409F0ADC0F80185810E941D1015
:104DC0000C97E1F486E090E00E94873A6C01D801EC
:104DD00015966C910E94031281E0F6018583D092B2
:104DE0009005C0928F0567E7C6010E94B11764E77E
:104DF00080918F05909190050E94B117EAE7F2E04B
:104E000088E4DF011D928A95E9F788EC8E9D900178
:104E10008F9D300D11242E513C4F90E080E0FC011D
:104E2000E25BFF4FE20FF31F4081042E000C550B95
:104E3000FC01EE0FFF1FE658FD4F518340830196A2
:104E40008834910561F7EAEEF1E088E4DF011D9214
:104E50008A95E9F790E080E0F901E80FF91F4681B3
:104E6000042E000C550BFC01EE0FFF1FE651FE4F08
:104E70005183408301968834910571F7C0908F0566
:104E8000D09090054AEC51E06AED71E08AEE91E035
:104E90000E94A5004AEA51E06AEB71E08AE792E0DD
:104EA0000E94A50020E04DEF67E7C6010E9462174F
:104EB00000E110E02AED31E040E067E7C6010E9422
:104EC0007A1720E04DEF64E7C6010E9462172AEBD3
:104ED00031E040E064E7C6010E947A1721E04DEF1F
:104EE00067E7C6010E9462172AEC31E040E067E7FD
:104EF000C6010E947A1721E04DEF64E7C6010E94C7
:104F000062172AEA31E040E064E7C6010E947A179E
:104F10004BCCD80115968C91F6019281282F082E42
:104F2000000C330B9217130609F468CF0E941D1072
:104F30000C9709F063CFC6010E94233B43CF88EC56
:104F40008E9D80018F9D100D11240E511C4FF80174
:104F500085810E941D100B9709F026CCC090910509
:104F6000D0909205C114D10409F0B6C083E290E05C
:104F70000E94873A6C01D80115966C91C6010E9477
:104F80007412D0929205C0929105009191051091F2
:104F9000920588EC8E9DF0018F9DF00D1124EE514D
:104FA000FC4FD680D80192962C9192978D2D0D2C86
:104FB000000C990B2817190659F19296DC928AEA8F
:104FC0008093A00182E08093A10181E08093A201FF
:104FD000D092A30186E58D258093A40120EAA22E1C
:104FE00021E0B22E35EA832E31E0932EF501619156
:104FF0005F01C8010E9471108A149B04B9F7D8019F
:105000009296DC9262E370E080E090E00E94EB0F09
:1050100088EC8E9DF0018F9DF00D1124EE51FC4F18
:10502000808597812AEA2093A0019093A10121E035
:105030002093A2018093A301892794E58927809377
:10504000A40180EAC82E81E0D82E95EAA92E91E02D
:10505000B92EF60161916F01C8010E947110AC1464
:10506000BD04B9F762E370E080E090E00E94EB0FCE
:10507000C8010E9406110115110559F080E691E062
:10508000D8018D939C93C8010E940611C8010E940B
:10509000233B109292051092910588EC8E9D800121
:1050A0008F9D100D11240E511C4FD8011596EC91B7
:1050B000EE0FFF0BE259FE4F60E080810E94480C2A
:1050C000D8011596EC91EE0FFF0BE259FE4F60E010
:1050D00081810E94480C68CBF60121A1D801159668
:1050E0008C91082E000C990B2817190609F44DCF46
:1050F00080E691E091838083C6010E940611C6017B
:105100000E94233B83E290E00E94873A6C01F80101
:10511000658134CF88EC8E9D80018F9D100D112408
:105120000E511C4FF80185810E941D10439709F014
:105130003BCBC090C205D090C305C114D104D1F5BA
:105140008CE090E00E94873A6C01D80115966C9132
:10515000C6010E947122D092C305C092C205C090C0
:10516000C205D090C30588EC8E9DF0018F9DF00D97
:105170001124EE51FC4F2185408567818681811184
:1051800033C0C6010E94B811C6010E946311649623
:105190000FB6F894DEBF0FBECDBFDF91CF911F9148
:1051A0000F91FF90EF90DF90CF90BF90AF909F90C6
:1051B0008F900895F6012281D80115968C91082EC2
:1051C000000C990B2817190651F2828593850E94CD
:1051D000233BC6010E94233B8CE090E00E94873A6B
:1051E0006C01F8016581B4CF8150022F242F462F26
:1051F000682FC6010E949711C7CF88EC8E9D800151
:105200008F9D100D11240E511C4FD80115968C91B5
:105210000E941D10429709F0C7CA8091890590919C
:105220008A05009709F042C086E090E00E94873A24
:105230006C01F80165810E940312D60115961C923B
:10524000D0928A05C0928905C6010E94231988EC74
:105250008E9D80018F9D100D11240E511C4FF80161
:10526000468161E08091890590918A050E94F81835
:10527000D80117964C9162E08091890590918A053A
:105280000E94F818F801408563E0809189059091AB
:105290008A050E94F818D80119964C9164E0809113
:1052A000890590918A050E94F81871CFFC0142810E
:1052B000D80115962C91022E000C330B42171306C1
:1052C00031F20E94233BB0CF88EC8E9D80018F9DF0
:1052D000100D11240E511C4FF80185810E941D10E4
:1052E000499709F061CA80917B0590917C05D801AE
:1052F0001596DC900097D1F585E090E00E94873A02
:105300008C016D2D0E94341210937C0500937B0557
:1053100061E0F80183810E94480C61E0D801149695
:105320008C910E94480C00917B0510917C0588ECC3
:105330008E9DF0018F9DF00D1124EE51FC4FE68003
:10534000E094F12C878161E0811130C0F801838104
:105350000E94480C60E0D80114968C910E94480C81
:10536000B701F80183810E94860D11CFFC012281D3
:105370006D2DDD0C770B26171706A9F20E94233B33
:1053800085E090E00E94873A6C01D80115966C91F7
:105390000E943412D0927C05C0927B0561E0F60138
:1053A00083810E94480C61E0D601B9CFD8011496E0
:1053B0008C910E94480C60E0F80183810E94480CA7
:1053C000B701D80114968C91CECF1F920F920FB6D1
:1053D0000F9211242F933F938F939F93AF93BF937B
:1053E0008091DA039091DB03A091DC03B091DD039F
:1053F0003091D90323E0230F2D3758F50196A11DD5
:10540000B11D2093D9038093DA039093DB03A0931B
:10541000DC03B093DD038091DE039091DF03A09164
:10542000E003B091E1030196A11DB11D8093DE035D
:105430009093DF03A093E003B093E103BF91AF919A
:105440009F918F913F912F910F900FBE0F901F90C2
:10545000189526E8230F0296A11DB11DD2CF1F92E9
:105460000F920FB60F9211242F933F934F935F9398
:105470006F937F938F939F93AF93BF93EF93FF931C
:10548000E091D703F091D803309749F0A685B7850E
:105490008585968D91FF14C09C918923A1F4FF917D
:1054A000EF91BF91AF919F918F917F916F915F919C
:1054B0004F913F912F910F900FBE0F901F90189515
:1054C0009C91892361F7A389B4899C9185898095F2
:1054D00089238C93868997890197F1F7608D718D67
:1054E000A685B785558538E020E0CB010197F1F717
:1054F000822F90E095958795282F4C91452309F0B0
:105500002068315091F7868D81FD20958091D503DB
:1055100090E001968F7399273091D603381799F050
:10552000A091D503B0E0AB56BC4F2C938093D5032C
:10553000828D938D0197F1F7A389B4898C91958918
:10554000892B8C93ACCF868D8160868FF1CF1F9293
:105550000F920FB60F9211242F933F938F939F9327
:10556000EF93FF938091940387FF1FC010928500F3
:1055700010928400809194038F5F809394038091B4
:10558000940387FF04C0809194038C30ACF0809129
:10559000840090918500049680349C4990F180911C
:1055A00084009091850004962EC08091940387FF1B
:1055B000E1CF80919403DECF20918400309185006B
:1055C000E09194038E2FEE0F990BFC01EE0FFF1F5D
:1055D000E80FF91FE059FC4F81819281820F931FE0
:1055E000909389008093880080919403FF91EF91BC
:1055F0009F918F913F912F910F900FBE0F901F9011
:10560000189580E49CE990938900809388008FEF3F
:1056100080939403EBCF1F920F920FB60F92112439
:105620002F933F938F939F93AF93BF93EF93FF93EA
:105630009091C60080910B0381111BC0923561F4DB
:10564000E0910A0338ECE39FF0011124EE51FC4F86
:10565000908381E080930B03FF91EF91BF91AF9115
:105660009F918F913F912F910F900FBE0F901F90A0
:105670001895813081F4923459F4E0910A0388EC52
:10568000E89FF0011124EE51FC4F918382E0E2CFBC
:1056900010920B03E1CF20910A0338EC239FF00115
:1056A0001124EE51FC4FDF01A80FB11D9C938F5FB9
:1056B00080930B039281891710F4883C68F2109252
:1056C0000B0380917205222331F010920A0382604D
:1056D00080937205C1CF91E090930A038160F8CF67
:1056E000CF92DF92EF92FF920F931F93E82FF92F43
:1056F00005C0015011092109310961F190819623FA
:105700009417B9F305C0015011092109310911F1AC
:10571000908196239413F7CFC12CD12CE12CF12C3E
:105720000AC08FEFC81AD80AE80AF80A0C151D0536
:105730002E053F0579F080818623841791F36C2D27
:105740007D2D8E2D9F2D1F910F91FF90EF90DF905B
:10575000CF90089560E070E080E090E01F910F919D
:10576000FF90EF90DF90CF900895CF93DF93CDB768
:10577000DEB728970FB6F894DEBF0FBECDBF789482
:1057800084B5826084BD84B5816084BD85B5826046
:1057900085BD85B5816085BD80916E0081608093F7
:1057A0006E00109281008091810082608093810060
:1057B0008091810081608093810080918000816070
:1057C000809380008091B10084608093B1008091CB
:1057D000B00081608093B00080917A0084608093F3
:1057E0007A0080917A00826080937A0080917A00BA
:1057F000816080937A0080917A00806880937A003B
:105800001092C10060E088E00E94480C8091C000C6
:1058100082608093C0001092C50080E18093C40034
:105820008091C10080688093C1008091C100806137
:105830008093C1008091C10088608093C1008091F5
:10584000C20084608093C2008091C2008260809315
:10585000C2006CE271E080E090E00E94EB0F0E94D9
:10586000840C20E040E060E085EB95E00E94B811F8
:10587000E0EBF0E0E491E093BC05ECE9F0E0E491CA
:10588000F0E0EE0FFF1FEA57FF4F85919491909340
:10589000B9058093B80561E082E00E94480C20E0E1
:1058A00040E060E085EB95E00E94B81185EB95E063
:1058B0000E9463116CE271E080E090E00E94EB0FC7
:1058C00020E040E06EE185EB95E00E94B81185EBA9
:1058D00095E00E9463116CE271E080E090E00E942C
:1058E000EB0F20E04EE160E085EB95E00E94B811FF
:1058F00085EB95E00E9463116CE271E080E090E03E
:105900000E94EB0F2EE140E060E085EB95E00E9405
:10591000B81185EB95E00E9463116CE271E080E0C4
:1059200090E00E94EB0F44EF51E060E070E084EF04
:1059300091E00E948E0C61E085E00E94480C61E0DD
:1059400086E00E94480C61E089E00E94480C61E01A
:105950008AE00E94480C8DEA809380008BE080935F
:105960008100109289001092880010928B00109292
:105970008A0064EF71E080E090E00E94EB0F82E526
:105980000E948D0082E40E948D0086E00E948D00BE
:1059900080E00E948D0083E00E948D008DE90E94CE
:1059A0008D0088E19FE00FB6F894A8958093600081
:1059B0000FBE90936000A895E0E02E2EE0E03E2E12
:1059C000A89580917205482F417080FF03C18E7F9A
:1059D000809372058091E40350E040E08150990B80
:1059E000252F30E0281739073CF42E513C4FD901C0
:1059F0002C91420F5F5FF4CF8E519C4FFC01808150
:105A00004813CBC08091E603813A08F0C2C080E021
:105A10000E949D2288E00E94F10B019719F481E019
:105A20008093750588E00E94F10B892B49F48091E1
:105A30007505882329F081E080937405109275051F
:105A400080917405882321F110927405809173056B
:105A50008823F1F082E50E948D0082E40E948D008F
:105A600088E00E948D0080E00E948D0081E00E940D
:105A70008D0089EF0E948D0081E00E948D0087E9F2
:105A80000E948D0087E90E948D0087E90E948D00A9
:105A90008091C705882309F468C0809177059091AB
:105AA0007805A0917905B0917A050196A11DB11DE7
:105AB0008093770590937805A0937905B0937A0544
:105AC000883E9340A105B10508F447C000917605D2
:105AD00010927705109278051092790510927A0548
