:100000000C947A000C94A2000C94A2000C94BD24D1
:100010000C94BD240C94BD240C94A2000C94A2005A
:100020000C94A2000C94A2000C94A2000C94352510
:100030000C94A2000C94A2000C94A2000C94A200B8
:100040000C9473240C94A2000C9499250C94A20097
:100050000C94A2000C94A2000C94A2000C94A20098
:100060000C94A2000C94A200084AD73B3BCE016E30
:1000700084BCBFFDC12F3D6C74319ABD56833DDAFF
:100080003D00C77F11BED9E4BB4C3E916BAAAABE0E
:10009000000000803F0000000000240027002A002C
:1000A0000000000800020100000304070000000037
:1000B0000000000000000000250028002B000000C8
:1000C000000023002600290004040404040404049E
:1000D00002020202020203030303030301020408F3
:1000E00010204080010204081020010204081020A2
:1000F000BE2C032D11241FBECFEFD8E0DEBFCDBF35
:1001000011E0A0E0B1E0EEE5F6E602C005900D9248
:10011000A435B107D9F725E0A4E5B1E001C01D92EF
:10012000AB3FB207E1F710E0C9E7D0E004C0219788
:10013000FE010E94B831C837D107C9F70E94432693
:100140000C9422330C9400009091C00095FFFCCFDA
:100150008093C60008950F931F93CF93C82F09E291
:1001600015E0F80181918F010E94A400C150C9F7E8
:10017000CF911F910F910895AF92BF92CF92DF92CE
:10018000EF92FF920F931F93CF93DF93DC0128E050
:1001900030E081E0AA24AA94B12C0FE010E043E201
:1001A000E42EF12C57EDC52ED12C9C911196ED919A
:1001B000FC911297592F5095462F4823A1F1F8949E
:1001C0004281452342834181492B4183E7012197A5
:1001D000F1F74281942B92837894F6013197F1F7ED
:1001E000880F2150310909F7F8941196ED91FC918F
:1001F000129791818C918095892381831196ED913D
:10020000FC91129792818C918095892382837894B6
:10021000DF91CF911F910F91FF90EF90DF90CF90E2
:10022000BF90AF900895F894428145234283418165
:10023000492B4183E5012197F1F74281942B928369
:100240007894F801CBCF682F70E090E080E00E94B6
:100250009C2F2CE53FE842EA5FE30E94F42E0E94C7
:100260006D2F862F653B40F4611104C087E08093B9
:10027000B3000895643B11F486E2F9CF66E00E9472
:100280009831885FF4CF682F70E090E080E00E94A2
:100290009C2F2CE53FE842EA5FE30E94F42E0E9487
:1002A0006D2F862F653B40F4611104C087E0809379
:1002B000B4000895643B11F486E2F9CF66E00E9431
:1002C0009831885FF4CFAF92BF92CF92DF92EF92D6
:1002D000FF920F931F93CF93DF936C017B018B01F0
:1002E000040F151FEB015E01AE18BF08C017D10740
:1002F00059F06991D601ED91FC910190F081E02DCA
:10030000C6010995892B79F7C501DF91CF911F911E
:100310000F91FF90EF90DF90CF90BF90AF90089536
:10032000833081F028F4813099F08230A9F008956B
:100330008730A9F08830C9F08430B1F48091800012
:100340008F7D03C0809180008F7780938000089517
:1003500084B58F7784BD089584B58F7DFBCF809160
:10036000B0008F778093B00008958091B0008F7DAA
:10037000F9CFCF93DF93282F30E0F901E056FF4FFC
:100380008491F901E452FF4FD491F901E853FF4FF2
:10039000C491CC23A1F081110E949001EC2FF0E0D8
:1003A000EE0FFF1FE254FF4FA591B491EC91ED23A6
:1003B00081E090E009F480E0DF91CF91089580E042
:1003C00090E0FACF1F93CF93DF93282F30E0F9010D
:1003D000E056FF4F8491F901E452FF4FD491F901A7
:1003E000E853FF4FC491CC23A9F0162F81110E942E
:1003F0009001EC2FF0E0EE0FFF1FEC54FF4FA591A2
:10040000B4918FB7F894EC91111108C0D095DE2308
:10041000DC938FBFDF91CF911F910895DE2BF8CF32
:10042000CF93DF9390E0FC01E452FF4F2491885377
:100430009F4FFC0184918823C9F090E0880F991F99
:10044000FC01EA56FF4FA591B491FC01EC54FF4F1B
:10045000C591D49161110DC09FB7F8948C912095EE
:1004600082238C938881282328839FBFDF91CF919B
:100470000895623051F49FB7F8943C91822F809593
:1004800083238C93E8812E2BEFCF8FB7F894EC91D8
:100490002E2B2C938FBFEACF4F925F926F927F9259
:1004A0008F929F92AF92BF92CF92DF92EF92FF9284
:1004B0000F931F93CF93DF934A015B019C0150E0A0
:1004C00040E060E472E48FE090E00E94AD2D6901AD
:1004D00061E0809128050E941002A8EEB3E0A5011A
:1004E00094010E94CC2D2B013C01E601D7FC219602
:1004F000D595C7958E01000F111F000F111F0550D4
:1005000011090D2C000CEE08FF08812C912C5401D0
:1005100084149504A604B704E0F461E080912805F2
:100520000E94E201C230D10518F0C8010197F1F72D
:1005300060E0809128050E94E201C230D10518F0E8
:10054000C8010197F1F7A8958C0C9D1CAE1CBF1C2F
:10055000DFCFDF91CF911F910F91FF90EF90DF9050
:10056000CF90BF90AF909F908F907F906F905F9053
:100570004F900895CF92DF92EF92FF926C392FEF58
:100580007207820792070CF443C0B62FA72FF82FEB
:10059000E92F653671058105910524F0B4E6A0E0E8
:1005A000F0E0E0E097FD38C02B2F3A2F4F2F5E2F61
:1005B00057FF07C050954095309521953F4F4F4FBD
:1005C0005F4FAFEFB0E00E94CC2D24E630E040E07A
:1005D00050E00E94AD2D69017A0160E0C114D104A0
:1005E000E104F10409F061E089E00E94100260E09A
:1005F0008AE00E941002D0928900C0928800109276
:100600008B0010928A00FF90EF90DF90CF900895BA
:10061000BCE9AFEFFFEFEFEF2B2F3A2F4F2F5E2FFD
:1006200057FF07C050954095309521953F4F4F4F4C
:100630005F4FAFEFB0E00E94CC2D24E630E040E009
:1006400050E00E94AD2D69017A0160E0C114D1042F
:10065000E104F10409F061E08AE00E94100260E028
:1006600089E00E941002D0928B00C0928A00109202
:10067000890010928800C0922005D0922105E09256
:100680002205F0922305BFCF1F93CF93DF93182F3E
:10069000EB0161E00E941002209739F460E0812FA5
:1006A000DF91CF911F910C94E201CF3FD10511F45E
:1006B00061E0F5CFE12FF0E0E056FF4FE491E33049
:1006C00031F140F4E130B1F0E230E1F0C038D10571
:1006D0007CF7E4CFE73029F1E83059F1E430B1F7A5
:1006E00080918000806280938000D0938B00C093C3
:1006F0008A0004C084B5806884BDC7BDDF91CF91F6
:100700001F91089584B5806284BDC8BDF7CF8091E4
:100710008000806880938000D0938900C093880017
:10072000EDCF8091B00080688093B000C093B3009B
:10073000E5CF8091B00080628093B000C093B40098
:10074000DDCFCF92DF92EF92FF920F931F93CF9363
:10075000DF936C392FEF7207820792070CF44EC0BB
:10076000B62FA72FF82FE92F653671058105910562
:1007700024F0B4E6A0E0F0E0E0E097FD43C02B2FCA
:100780003A2F4F2F5E2F57FF07C050954095309559
:1007900021953F4F4F4F5F4FAFEFB0E00E94CC2D00
:1007A00024E630E040E050E00E94AD2D69017A017E
:1007B0008901D42FCF2D60E0C114D104E104F104EC
:1007C00009F061E086E00E94100260E085E00E948E
:1007D0001002B60186E00E944403009324051093A2
:1007E0002505D0932605C0932705DF91CF911F9152
:1007F0000F91FF90EF90DF90CF900895BCE9AFEF9D
:10080000FFEFEFEF2B2F3A2F4F2F5E2F57FF07C031
:1008100050954095309521953F4F4F4F5F4FAFEF2B
:10082000B0E00E94CC2D24E630E040E050E00E9491
:10083000AD2D69017A018901D42FCF2D60E0C1145B
:10084000D104E104F10409F061E085E00E941002A6
:1008500060E086E00E941002B60185E0BCCFCF9236
:10086000DF92EF92FF9269017A010E94A103C70112
:10087000B601FF90EF90DF90CF900C94BA028E30CB
:1008800008F08E508770806480937C0080917A009D
:10089000806480937A0080917A0086FDFCCF8091FD
:1008A0007800909179000895BF92CF92DF92EF92F5
:1008B000FF920F931F93CF93DF933AE0B32EC12C97
:1008C000D12C7601CFEFD3E010E000E084E10E946C
:1008D0003F040817190708F48C018C179D0708F4CA
:1008E000EC01C80ED91EE11CF11CBA94B110EECF78
:1008F000D701C601801B910BA109B1098C1B9D0B6F
:10090000A109B10923E0B695A795979587952A95F2
:10091000D1F7883F23E09207A105B10508F0A6C0F2
:10092000893E23E09207A105B10508F0ABC08B3CDE
:1009300023E09207A105B10508F0A7C0833A23E0A0
:100940009207A105B10508F0A3C0853823E09207FE
:10095000A105B10508F09FC08C3623E09207A105E0
:10096000B10508F09BC0813223E09207A105B105D3
:1009700008F097C08F3F22E09207A105B10508F06B
:1009800093C0813D22E09207A105B10508F08FC018
:100990008F3922E09207A105B10508F08BC08D3692
:1009A00022E09207A105B10508F087C08F3422E04C
:1009B0009207A105B10508F083C0833122E09207B8
:1009C000A105B10508F07FC0853F21E09207A10590
:1009D000B10508F07BC0813E21E09207A105B10579
:1009E00008F077C0823D21E09207A105B105D8F556
:1009F000873A21E09207A105B10508F06DC086395C
:100A000021E09207A105B10508F069C08C3721E00B
:100A10009207A105B10508F065C08A3521E092076B
:100A2000A105B10500F5823321E09207A105B105CA
:100A300008F05BC08F3021E09207A105B10508F0F6
:100A400057C0803D9105A105B10508F054C0853A15
:100A50009105A105B10508F051C08A379105A1059E
:100A6000B10508F04EC08FEF90E002C090E080E04A
:100A7000DF91CF911F910F91FF90EF90DF90CF907A
:100A8000BF9008958FE090E0F3CF83E190E0F0CF46
:100A90008CE090E0EDCF8AE090E0EACF85E090E056
:100AA000E7CF89E090E0E4CF8BE090E0E1CF8DE00C
:100AB00090E0DECF82E090E0DBCF80E190E0D8CF25
:100AC0008EE090E0D5CF88E090E0D2CF83E090E058
:100AD000CFCF84E190E0CCCF87E190E0C9CF85E132
:100AE00090E0C6CF87E090E0C3CF82E190E0C0CF36
:100AF00086E090E0BDCF84E090E0BACF89E190E05D
:100B0000B7CF88E190E0B4CF3FB7F8948091380335
:100B100090913903A0913A03B0913B0326B5A89B6D
:100B200005C02F3F19F00196A11DB11D3FBFBA2F7F
:100B3000A92F982F8827BC01CD01620F711D811D3F
:100B4000911D42E0660F771F881F991F4A95D1F7C4
:100B500008958F929F92AF92BF92CF92DF92EF92C1
:100B6000FF924B015C010E9484056B017C010E9495
:100B700084056C197D098E099F09683E73408105C3
:100B80009105A8F321E0821A9108A108B10888EE26
:100B9000C80E83E0D81EE11CF11C81149104A1044D
:100BA000B10429F7FF90EF90DF90CF90BF90AF9006
:100BB0009F908F900895823039F120F461E0813068
:100BC00031F00895833061F060E08430D1F787E040
:100BD0000E94E20160E08DE00E94E20160E009C055
:100BE00060E087E00E94E20160E08DE00E94E201A7
:100BF00061E08CE00E94E20169E170E080E090E059
:100C00000E94A9050C94540461E087E00E94E2016F
:100C100061E0E1CF2FB7F894609134037091350310
:100C200080913603909137032FBF089520913103AF
:100C3000309132032817390771F490913003809175
:100C40002F03981741F0E0913003F0E0E151FD4FA0
:100C5000808190E008958FEF9FEF08950895EF92BF
:100C6000FF920F931F93CF93DF93DC015C96ED907F
:100C7000FC905D97E114F10479F481E090E0139623
:100C80009C938E93129790E080E0DF91CF911F911B
:100C90000F91FF90EF9008955196ED91FC9152972E
:100CA00050968C915097982F90950FB75E962C91F7
:100CB0005E97122F127021FD6095F8942081112308
:100CC00019F1282B2083E7012197F1F728E0462F1F
:100CD00050E0308160FF1AC0382B3083E701219744
:100CE000F1F7BA0175956795215089F7112381F0C5
:100CF0008081892380830FBF5C968D919C910197A1
:100D0000F1F781E090E0C1CF2923DCCF3923E5CF93
:100D10009081892BEFCF2091310330913203281736
:100D2000390771F480912F032091300390E0805CAB
:100D30009F4F821B910960E470E00E94A4310895E6
:100D400090E080E00895209131033091320328171C
:100D50003907B9F49091300380912F03981789F0E7
:100D6000E0913003F0E0E151FD4F808120913003AC
:100D700030E02F5F3F4F2F7333272093300390E0F5
:100D800008958FEF9FEF0895E0913103F0913203C2
:100D9000E817F90769F4A389B4899C91858980953E
:100DA00089238C93109232031092310381E00895CD
:100DB00080E00895DC0113966C93139770E0FB01BB
:100DC000E452FF4FE4911696EC931697FB01E8531B
:100DD000FF4FE491F0E0EE0FFF1FE254FF4F8591CB
:100DE000949118969C938E9317970895AF92BF9203
:100DF000CF92DF92EF92FF920F931F93CF93DF93E7
:100E00005C010AE010E0C12CD12C7601D0E0C0E0FA
:100E100060E0F50183810E941002F50183810E9448
:100E20003F04C817D90708F4EC01C80ED91EE11C0D
:100E3000F11C0150110961F7D701C6018C1B9D0BF4
:100E4000A109B10923E0B695A795979587952A95AD
:100E5000D1F7DF91CF911F910F91FF90EF90DF902D
:100E6000CF90BF90AF900895FC01A381B48197818A
:100E7000408551859A01220F331F240F351F72853B
:100E800083856FB7F8944C91592F50955423492B73
:100E9000E72FF82FCF01820F931FE817F90781F092
:100EA000219138E04C9300C027FF5C93220F00C0D3
:100EB00000C000C008F45C9300C03A9599F7EDCFEC
:100EC0006FBF789461E070E080E090E00C94A90539
:100ED0000F93FC018085918568171906C0F4962F41
:100EE000990F690F70E0A285B385A60FB71F2C93E9
:100EF000A285B385A60FB71F11964C938285938563
:100F0000680F791FFB01028381E00F91089580E053
:100F1000FCCFCF92DF92EF92FF920F931F93CF936C
:100F2000DF937C01162FD42EC22ED0E0C0E0F70153
:100F300080859185C817D90748F40C2D2D2D412F98
:100F40006C2FC7010E9468072196F1CF81E0DF91E5
:100F5000CF911F910F91FF90EF90DF90CF90089568
:100F6000DC01E62FF0E0EE0FFF1FE25DFE4F808117
:100F70008C93818111968C93119712966C9308959E
:100F80000F931F93CF938C01C62F0E94B007EC2FB5
:100F9000F0E0EE0FFF1FE25DFE4F8181F8018383D9
:100FA000CF911F910F9108950F931F93CF938C01B1
:100FB000C62F0E94B007EC2FF0E0EE0FFF1FE25D9E
:100FC000FE4F8181D80113968C93139780811496DC
:100FD0008C93149715961C92CF911F910F910895A1
:100FE0000F931F93CF938C01C62F0E94D407EC2F31
:100FF000F0E0EE0FFF1FE25DFE4F8081F801868377
:101000001582CF911F910F9108950F931F93CF9346
:101010008C01C62F0E94B007EC2FF0E0EE0FFF1FEF
:10102000E25DFE4F8081D80113968C9313979181D6
:1010300014969C9361E00E94100261E0F8018481A3
:10104000CF911F910F910C9410021F93CF93DF93B8
:10105000EC01162F0E94B007E12FF0E0EE0FFF1F0A
:10106000E25DFE4F81818B8380818C838B8160E088
:101070000E9410028C8161E00E9410028C8160E06D
:10108000DF91CF911F910C94E201FC0190810180CE
:10109000F281E02DF8948181292F2095822381838C
:1010A00078943DE743E050E0315029F1DA0111979F
:1010B000F1F780818923C1F3F894828182238283AE
:1010C0008181892B81837894ABE7B7E01197F1F7A1
:1010D000F894818182238183A3E1B1E01197F1F734
:1010E0008081982381E009F080E07894E3E6F6E0DF
:1010F0003197F1F7089580E008950F931F93CF93F0
:10110000DF93EC01162F4F960E94B007E12FF0E01D
:10111000EE0FFF1FE25DFE4F118100811B821A82DC
:1011200088EE93E0A0E0B0E08C839D83AE83BF8324
:1011300080E291E0998388831F8A1E8A198E188E17
:101140001B8E1A8E1D8E1C8E6E8D6E7F6D7F6E8F28
:101150006695617081E06827812F0E94E20161E05D
:10116000812F0E941002812F90E0FC01E452FF4F7A
:10117000E491E88BFC01E853FF4FE491F0E0EE0FBF
:10118000FF1FEC54FF4F859194919A8B898B60E0FF
:10119000802F0E9410028E8D81FD04C061E0802F9F
:1011A0000E94E2010C87802F90E0FC01E452FF4F87
:1011B000E491ED87FC01E853FF4FE491F0E0EE0F7E
:1011C000FF1FE254FF4F859194919F878E8780E2A5
:1011D00091E09983888383E08AA31B8E1A8E198EEF
:1011E000188E1F8A1E8A85E690E09D8F8C8F0631AF
:1011F000E0F581E290E09F8B8E8B83E690E0998F03
:10120000888F82E490E09B8F8A8F9091680084E0C1
:10121000083048F021E00E3008F420E081E001C001
:10122000880F2A95EAF7892B809368009C852DE624
:1012300030E0983050F02BE630E09E3030F02CE675
:1012400030E0963110F030E020E03C8B2B8B292FE2
:1012500030E0983078F581E001C0880F9A95EAF780
:101260008D8B8C8D9D8D0197F1F78A8D9B8D892BB0
:10127000E1F08091310390913203C817D907A9F0AA
:10128000009711F00E94C4068E8D8E7F8E8F109273
:101290002F0310923003D0933203C0933103EB89B4
:1012A000FC8980819D89892B8083DF91CF911F915B
:1012B0000F9108959E3040F42850310981E001C01B
:1012C000880F2A95EAF7CCCF2E503109F7CF0F932C
:1012D0001F93CF93DF93EC018B810E94B9018C01A6
:1012E0008C810E94B901AC0121E030E0012B11F4A6
:1012F00030E020E0220F331F81E0452B09F480E02D
:10130000822BDF91CF911F910F9108951F93CF935F
:10131000DF93EC01162F0E94B007E12FF0E0EE0FF3
:10132000FF1FE25DFE4F80818B8381818C838B81E7
:1013300060E00E9410028C8160E0DF91CF911F91EC
:101340000C941002CF93DF93EC0160E08B810E943C
:1013500010028B810E943F0420E034E0A901481B69
:10136000590BCA01DF91CF910895AF92BF92CF92EE
:10137000DF92EF92FF920F931F93CF93DF935C0165
:101380000AE010E0C12CD12C7601D0E0C0E0C5010C
:101390000E94A209C817D90708F4EC01C80ED91E8B
:1013A000E11CF11C0150110991F7D701C6018C1BFA
:1013B0009D0BA109B10923E0B695A795979587954F
:1013C0002A95D1F7DF91CF911F910F91FF90EF9068
:1013D000DF90CF90BF90AF90089590E080E00895A7
:1013E000CF93DF93EC0161E08B810E9410028D812D
:1013F0008130C1F487E592E00197F1F700C0000069
:1014000060E08C810E94E20160E08B810E94E20139
:1014100061E08C810E94E20161E08B81DF91CF91DC
:101420000C94E20160E08C810E94E2019AE19A95BD
:10143000F1F700C060E08B810E94E2018AE18A95A9
:10144000F1F700C061E08C810E94E2019AE19A9577
:10145000F1F700C061E08B810E94E2018AE18A9588
:10146000F1F700C0DF91CF9108951F93CF93DF93E1
:10147000EC01162F61E08B810E9410028D8181307A
:10148000D9F487E592E00197F1F700C0000060E031
:10149000111161E08B810E94E20161E08C810E9468
:1014A000E20160E08C810E94E20161E08B81DF91CA
:1014B000CF911F910C94E2018B8160E0111161E0EA
:1014C0000E94E20161E08C810E94E2019AE19A951A
:1014D000F1F700C060E08C810E94E2018AE18A9508
:1014E000F1F700C0E2CF1F93CF93DF93EC0160E0F0
:1014F0008B810E9410028D818130F1F487E592E0AA
:101500000197F1F700C0000061E08B810E94E201C9
:1015100061E08C810E94E2018B810E94B90111E09F
:10152000892B09F410E060E08C810E94E201812F98
:10153000DF91CF911F91089561E08B810E94E201BC
:101540009AE19A95F1F700C061E08C810E94E20176
:101550008AE18A95F1F700C08B810E94B90111E000
:10156000892B09F410E060E08C810E94E2019AE18D
:101570009A95F1F700C0DBCF0F931F93CF93DF93C2
:101580008C0160E0FC0183810E941002F8018581DA
:10159000D8E0813009F587E592E00197F1F700C0C6
:1015A0000000D8E061E0F80184810E94E201CC0FE4
:1015B000F80183810E94B901892B09F0C16060E0C4
:1015C000F80184810E94E201D15061F78C2FDF91F4
:1015D000CF911F910F91089561E0F80184810E94DD
:1015E000E201CC0FF80183810E94B901892B09F037
:1015F000C160FAE1FA95F1F700C060E0F80184817A
:101600000E94E201FAE1FA95F1F700C0D15021F70A
:10161000DDCF0F931F93CF93DF93EC01162F61E083
:101620008C810E94100261E08B810E9410028D81EA
:10163000813019F108E08B8161E017FF60E00E94C2
:10164000E2018AE18A95F1F700C0110F61E08C8117
:101650000E94E2019AE19A95F1F700C060E08C8166
:101660000E94E2018AE18A95F1F700C0015019F762
:10167000DF91CF911F910F91089587E592E0019737
:10168000F1F700C0000008E08B8161E017FF60E027
:101690000E94E201110F61E08C810E94E20160E092
:1016A0008C810E94E201015079F7E2CFCF93DF9362
:1016B000EC018FE193E00197F1F700C00000CE014B
:1016C0000E94090B87EC90E00197F1F700C0000041
:1016D000CE01DF91CF910C94730ACF93DF93EC018D
:1016E00061E08C810E94100261E08B810E941002F7
:1016F0008D818130C1F487E592E00197F1F700C058
:10170000000061E08B810E94E20161E08C810E9417
:10171000E20160E08B810E94E20160E08C81DF9158
:10172000CF910C94E20161E08B810E94E2019AE189
:101730009A95F1F700C061E08C810E94E2018AE194
:101740008A95F1F700C060E08B810E94E2019AE186
:101750009A95F1F700C060E08C810E94E2018AE175
:101760008A95F1F700C0DF91CF9108950F931F93F1
:10177000CF93DF93EC01162F0E946D0B62E5CE0133
:101780000E94090BCE010E94730A612F6068CE018E
:101790000E94090BCE010E94730ACE010E946D0BBC
:1017A00063E5CE010E94090BCE010E94730ACE01AF
:1017B0000E94BC0A182F60E0CE010E94350ACE01BB
:1017C0000E94BC0A082F61E0CE010E94350ACE01BA
:1017D0000E94F009902F812FDF91CF911F910F91DF
:1017E00008950F931F93CF93DF93EC01162F042FCF
:1017F0000E946D0B62E5CE010E94090BCE010E9492
:10180000730A612F6068CE010E94090BCE010E940D
:10181000730A602FCE010E94090BCE010E94730A49
:10182000CE010E94F009802FDF91CF911F910F917F
:1018300008951F93CF93DF93EC01162F0E946D0B39
:10184000612F660FCE010E94090B80EA8A95F1F79D
:10185000CE01DF91CF911F910C94730A4F925F924A
:101860006F927F929F92AF92BF92CF92DF92EF9250
:10187000FF920F931F93CF93DF93CDB7DEB72897D7
:101880000FB6F894DEBF0FBECDBF7C01CE0101962E
:101890006C015E0199E0A90EB11C992493940E94F9
:1018A0000A06F701408451846284738464197509BF
:1018B00086099709613171058105910508F09782C4
:1018C000F7018781882309F4B5C00E940A06F70151
:1018D0006087718782879387178260E4C7010E94BF
:1018E000190C62EAC7010E94560B62EAC7010E9406
:1018F000560B62EAC7010E94560B61E0C7010E94C5
:10190000560BC7010E94F009F701868160E00E9432
:101910001002F701868190E0FC01E452FF4F6491D0
:10192000FC01E853FF4FE491F0E0EE0FFF1FE2549B
:10193000FF4F8591949100E712E620E030E040E00F
:101940000E94FE25412C512C320161157105810543
:101950009105B1F02B013C01FFEF4F1A5F0A6F0AAE
:101960007F0A2FE072228CE2481681E0580661045B
:10197000710430F09CE2491A91E0590A610871083B
:10198000C301B2010E949E2FF70164877587868785
:101990009787141415041604170434F084EA482EAB
:1019A00088E3582E612C712CC301B2010E949E2F36
:1019B00020E030E048E652E40E94F42EF601619304
:1019C0007193819391936F0162E170E080E090E008
:1019D0000E94A905AC14BD0409F061CFC980DA806A
:1019E000EB80FC807D809E80AF80B884272D392DD0
:1019F000A501B601C7010E94CD3087FF03C0C72CE7
:101A0000D92C7501B601C70128960FB6F894DEBF30
:101A10000FBECDBFDF91CF911F910F91FF90EF903F
:101A2000DF90CF90BF90AF909F907F906F905F902E
:101A30004F90089564857585868597850E94662FE9
:101A40002B013C01A6CFFF920F931F93CF93DF93FF
:101A5000EC01F62E042F122F60E50E94190C63EAA8
:101A6000CE010E94560B6F2DCE010E94560B602FA7
:101A7000CE010E94560B612FCE010E94560BCE0163
:101A8000DF91CF911F910F91FF900C94F009CF92AD
:101A9000DF92FF920F931F93CF93DF9300D000D07C
:101AA000CDB7DEB78C0161E70E94190C60EBC8016D
:101AB0000E94560BC8010E94F0096AE070E080E0C5
:101AC00090E00E94A905C8010E946D0B63EEC80159
:101AD0000E94090BC8010E94730A34E0F32ECE0164
:101AE00001966C01FA94C801FF2051F00E94BC0AD3
:101AF000F60181936F0160E0C8010E94350AF2CFC0
:101B00000E94BC0AF82E8C8361E0C8010E94350A4D
:101B1000C8010E94F00989818A3AD9F4FBEBFF12CF
:101B200018C08A8190E0982F88272B81820F911D01
:101B3000F80197838683868197810F900F900F908D
:101B40000F90DF91CF911F910F91FF90DF90CF9079
:101B5000089581E090E0ECCFCF93DF93EC010E94F9
:101B6000D40781E08D83CE010E946D0B67EECE011C
:101B70000E94560B60E8CE010E94560B64EACE012B
:101B80000E94560B6AE9CE010E94560B61E8CE0115
:101B90000E94560B63E8CE010E94560BCE01DF91E6
:101BA000CF910C94F0090F931F93CF93DF93EC0127
:101BB000062F142F0E946D0BFE01EE5BFF4F60811C
:101BC000660FCE010E94090BCE010E94730A602F9E
:101BD000CE010E94090BCE010E94730A612FCE0133
:101BE0000E94090BCE010E94730ACE01DF91CF91B2
:101BF0001F910F910C94F0090F931F93CF93DF93D4
:101C00008C01D62FC42F0E946D0B63E36D0F660FFE
:101C1000C8010E94090BC8010E94730AC7FF11C0C6
:101C2000CF77EC2FF0E0E55FFE4F60816068C80180
:101C30000E94090BC801DF91CF911F910F910C9465
:101C4000F009EC2FF0E0E55FFE4F6081F0CFCF931D
:101C5000DF93EC010E946D0B68E4CE010E94090B3A
:101C6000CE010E94730A61E3CE010E94090BCE01EE
:101C7000DF91CF910C94F0090F931F93CF93DF93D3
:101C8000EC010E946D0B62E5CE010E94090BCE01B2
:101C90000E94730A62E9CE010E94090BCE010E94E4
:101CA000730ACE010E946D0B63E5CE010E94090B01
:101CB000CE010E94730ACE010E94BC0A182F61E077
:101CC000CE010E94350ACE010E94F009143419F0A9
:101CD00080E0103159F581E08E8319850A85412F06
:101CE00061E0CE010E94F10B19870A871F810885E8
:101CF0008E81811103C0CE010E943C0E412F6FE006
:101D0000CE010E94F10B1F83088741E060E0CE0105
:101D10000E94F10B63E070E080E090E00E94A90572
:101D200043E060E0CE010E94F10B81E0DF91CF91B2
:101D30001F910F910895AF92BF92CF92DF92EF92D1
:101D4000FF920F931F93CF93DF93EC015B016A0126
:101D500079018E81811103C0CE010E943C0E64E1A5
:101D6000CE010E94B60BF8019183808366E1CE011B
:101D70000E94B60BF5019183808368E1CE010E9439
:101D8000B60BF601918380836AE1CE010E94B60B07
:101D9000F7019183808389859A85853D9105A1F11D
:101DA00080F40097D9F1803C910599F1DF91CF91B2
:101DB0001F910F91FF90EF90DF90CF90BF90AF9069
:101DC0000895863F9105D9F08F3F910541F08B3EF4
:101DD000910561F762E370E080E090E004C063E0A9
:101DE00070E080E090E0DF91CF911F910F91FF9024
:101DF000EF90DF90CF90BF90AF900C94A90568E171
:101E000070E080E090E0EFCF65E670E080E090E089
:101E1000EACF6AE970E080E090E0E5CF6CEB72E039
:101E200080E090E0E0CFCF92DF92EF92FF920F93AD
:101E30001F93CF93DF93EC01162F7A01022F0E949C
:101E40006D0B6E0182E4C80ED11CF6016081660F35
:101E5000CE010E94090BCE010E94730A612FCE01B0
:101E60000E94090BCE010E94730ACE010E94F00964
:101E7000F0E5FA95F1F7CE010E946D0BF601608155
:101E8000660F6160CE010E94090BCE010E94730AA9
:101E90000150102F6701115058F0CE010E94BC0A6A
:101EA000F60181936F0160E0CE010E94350AF3CF05
:101EB0000E0D1F2D111DCE010E94BC0AF80180835A
:101EC00061E0CE010E94350ACE01DF91CF911F91D2
:101ED0000F91FF90EF90DF90CF900C94F0094F920C
:101EE0005F926F927F928F929F92AF92BF92CF92AA
:101EF000DF92EF92FF920F931F93CF93DF9300D067
:101F000000D000D0CDB7DEB79E838D8380E090E017
:101F1000A3E8B2E4ED81FE8186839783A087B18731
:101F2000128613861486158616861786108A118ADD
:101F3000128A138A148A158A168A178A108E118EAD
:101F4000128E138E148E158E168E178E10A211A25D
:101F500013A212A215A214A217A216A210A611A6CD
:101F600012A613A614A615A616A617A610AA11AA9D
:101F700012AA13AA64E670E080E090E00E94A9052E
:101F800040E06BE68D819E810E94D30D6EE170E092
:101F900080E090E00E94A90541E06AE18D819E8188
:101FA0000E94D30D48E06BE18D819E810E94D30D8C
:101FB00062E370E080E090E00E94A90504EF11E088
:101FC00019821A821B821C82812C912C5401412C73
:101FD000512C3201ED80FE80F4E3EF0EF11C26E07F
:101FE000A70163E48D819E810E94130FED81FE8124
:101FF00084A995A9982789279827092E000CAA0B50
:10200000BB0B480E591E6A1E7B1E86A997A99827EE
:1020100089279827092E000CAA0BBB0B880E991E46
:10202000AA1EBB1E80AD91AD982789279827092E3F
:10203000000CAA0BBB0B29813A814B815C81280FD4
:10204000391F4A1F5B1F29833A834B835C83A89502
:102050000150110921F684EFC82EDD24D394E12C20
:10206000F12CC301B201A70196010E94AD2DCA0156
:10207000B9010E949E2FED81FE8160A771A782A702
:1020800093A7C501B401A70196010E94AD2DCA0115
:10209000B9010E949E2FED81FE8164A775A786A7D6
:1020A00097A769817A818B819C81A70196010E9403
:1020B000AD2DCA01B9010E949E2FED81FE8160AB5A
:1020C00071AB82AB93AB26960FB6F894DEBF0FBE12
:1020D000CDBFDF91CF911F910F91FF90EF90DF90D7
:1020E000CF90BF90AF909F908F907F906F905F90B8
:1020F0004F900895CF93DF93EC01862F90E099875E
:10210000888723E0629FC00111240E94D2319B87FF
:102110008A87892B21F488E391E00E94F73290E0CE
:1021200080E0488559859A01220F331F240F351FFF
:102130008217930738F4EA85FB85E80FF91F1082B0
:102140000196EFCFDF91CF9108951F93CF93DF9347
:10215000EC01162F0E94B007E12FF0E0EE0FFF1FF9
:10216000E25DFE4F8181282F30E0F901E452FF4FFC
:10217000E491EF83F901E853FF4FE491F0E0EE0FB3
:10218000FF1FEC54FF4F259134913C832B8361E07A
:102190000E94100264E0CE01DF91CF911F910C9458
:1021A0007A108F929F92AF92BF92CF92DF92EF926E
:1021B000FF920F931F93CF93DF93CDB7DEB7649752
:1021C0000FB6F894DEBF0FBECDBFE82EF12C28EC81
:1021D000829FF0011124E45CFC4FE481E150E03285
:1021E00008F060C60E2E000CFF0BE750FF4E0C945B
:1021F000B8311911571152179411BA1152175217B9
:102200005217521752175217521752175217521786
:10221000FA11421286121A133B13FC12E6125217DD
:10222000031412146F145217EB1452174616D415D8
:10223000BF1682E58093290582E480932A0588E011
:1022400080932B0588EC8E9DF0018F9DF00D11245D
:10225000E45CFC4F838180932C0582E080932D0504
:1022600081E080932E058AE080932F05E9E2F5E076
:1022700020E335E080E09191890F2E173F07D9F7D1
:102280008093300588E064960FB6F894DEBF0FBEE9
:10229000CDBFDF91CF911F910F91FF90EF90DF9015
:1022A000CF90BF90AF909F908F900C94AB0082E541
:1022B0008093290582E480932A0510922B0588ECEF
:1022C0008E9DF0018F9DF00D1124E45CFC4F838105
:1022D00080932C058581823019F124F4813041F0FE
:1022E000E4E00CC08330F1F08430D1F784E001C029
:1022F00081E00E94DB0580932D05E5E081E08E0FF3
:1023000080932B05A9E2B5E020E090E03D91930F8A
:102310002F5FE213FBCFF0E0E75DFA4F9083B3CF7E
:1023200082E0E7CF83E0E5CF82E58093290582E470
:1023300080932A0588EC8E9DF0018F9DF00D11246D
:10234000E45CFC4F838180932C0581E080932D0514
:1023500080932E0587E080932B05E9E2F5E080E08D
:102360009191890F35E0EF32F307D1F780932F0574
:1023700087E089CF82E58093290582E480932A054E
:1023800010922B0588EC8E9DF0018F9DF00D11248D
:10239000E45CFC4F838180932C0581E00E94DB0587
:1023A00080932D0582E00E94DB0580932E0583E05B
:1023B0000E94DB0580932F0584E00E94DB0580935B
:1023C00030051092310510923205109233051092AB
:1023D00034058DE080932B05E9E2F5E025E335E057
:1023E00080E09191890F2E173F07D9F7809335052B
:1023F0008DE049CF88EC8E9DF0018F9DF00D11246A
:10240000E45CFC4F85818C3FA1F1882339F08B3F40
:1024100081F400852781468161E02FC020854781B6
:1024200066818FE095E00E9489078FE095E00E9429
:10243000340782E58093290582E480932A0588EC9D
:102440008E9DF0018F9DF00D1124E45CFC4F838183
:1024500080932C0591E090932D0596E090932B05A9
:102460009BE9980F90932E05882309F41BC586E0FD
:102470000ACF00852781468160E08FE095E00E94C9
:102480006807D3CF88EC8E9D80018F9D100D11249D
:10249000045C1C4FD80115968C9115978F3F61F104
:1024A000882361F08E3F29F616966C91062E000C5B
:1024B000770B880B990B0E94BA02BBCFF8012781DA
:1024C000022E000C330B440B550B6681062E000CBC
:1024D000770B880B990B0E942F04D80116968C91CC
:1024E00016978111A6CF17968C918111A2CF1092C9
:1024F0001B0510921E059DCFF8016681062E000C6B
:10250000770B880B990B0E94A10393CF88EC8E9DCB
:1025100080018F9D100D1124045C1C4FF8018581F2
:102520000E94DB05029709F084CF80910B05909102
:102530000C050097B1F580E190E00E94D2316C016A
:10254000D80115966C91C6010E94F007D0920C0537
:10255000C0920B0588EC8E9DF0018F9DF00D11242B
:10256000E45CFC4FD084C780B68000910B051091CD
:102570000C0560E4C8010E94190C61EAC8010E94C0
:10258000560B6B2DC8010E94560B6C2DC8010E9482
:10259000560B6D2DC8010E94560BC8010E94F00910
:1025A00048CFFC014281D80115962C91022E000CD7
:1025B000330B4217130671F20E946E3280E190E0F5
:1025C0000E94D2316C01F8016581BDCF88EC8E9DEF
:1025D000F0018F9DF00D1124E45CFC4F8581893F53
:1025E00009F027CF8681882321F081E08093CD04F4
:1025F00020CF1092CD041DCF88EC8E9DF0018F9DD1
:10260000F00D1124E45CFC4F8681882369F0813051
:1026100071F01092D1041092D2041092D30410924F
:10262000D4041092D00405CF10921F05F2CF8093EE
:102630001F05EFCF88EC8E9DF0018F9DF00D1124CA
:10264000E45CFC4F85818A3F09F0F3CE40858185AB
:10265000542F482F70E060E0968187810E944C02E1
:1026600061E0809128050E94100260E080912805B9
:102670000E94E201DECE88EC8E9D80018F9D100DC0
:102680001124045C1C4FD80115968C910E94DB0527
:10269000039709F0CECE8091FB049091FC04009743
:1026A00009F09AC086E090E00E94D2316C01F801F6
:1026B0006581C6010E94AC0DD092FC04C092FB045F
:1026C000C090FB04D090FC0488EC8E9DF0018F9D9F
:1026D000F00D1124EE5BFC4F43E120818181322F0C
:1026E000282FC9019695879585759575220F331FFB
:1026F0002A7A3A7A822B932B9C0136952795369528
:10270000279523733373880F991F880F991F8C7C2B
:102710009C7C282B392BC90154E0969587955A95B6
:10272000E1F78F709F7064E0220F331F6A95E1F725
:10273000207F307F822B932B982789279827880F1B
:10274000991F880F991F5FEF540F21E030E02C0F85
:102750003D1F240F311DD9018C934250A1E0B0E000
:10276000AC0FBD1FA50FB11D9C9332964F3F09F0D2
:10277000B4CFC6010E946D0B67EEC6010E94560BD6
:1027800060E0C6010E94560B8E010F5F1F4F5E0175
:10279000B5E1AB0EB11CF80121918F0130E0C90108
:1027A00095958795959587958373220F331F220FF3
:1027B000331F2C7C822B90E0BC0175956795657565
:1027C000880F991F8A7A682BC6010E94560BA016A3
:1027D000B10609F7C601E2CEDC0112964C91F80170
:1027E0002581022E000C330B4217130609F468CF23
:1027F0000E946E3286E090E00E94D2316C01D801D6
:1028000015966C9156CF88EC8E9DF0018F9DF00D42
:102810001124E45CFC4F858180931B0586818093A5
:102820001E0507CE88EC8E9D80018F9D100D112412
:10283000045C1C4FD80115968C910E94DB0505970E
:1028400009F0F7CD8091F1049091F204009759F5C9
:1028500085E090E00E94D2316C01F8016581C601EB
:102860000E940508D092F204C092F10483EA80939A
:10287000B00087E08093B10088EC8E9DF0018F9DC1
:10288000F00D1124E45CFC4F8681813011F182301F
:1028900021F18111CECD108587810E944301812FC6
:1028A0000E942301C6CDDC0112964C91F8012581CE
:1028B000022E000C330B42171306F1F20E946E3207
:1028C00085E090E00E94D2316C01D80115966C91A0
:1028D000C6CF87810E944301ACCD8781E1CF88ECD0
:1028E0008E9D80018F9D100D1124045C1C4FF801FA
:1028F00085810E94DB05099709F09BCD8091F30447
:102900009091F404009709F048C086E090E00E949E
:10291000D2316C01D80115966C910E94D407F60152
:102920001582D092F404C092F30488EC8E9DF001DD
:102930008F9DF00D1124E45CFC4F86818130E1F124
:102940008230D1F0811175CD27818091F30490916F
:10295000F40440E027FF05C0332721950CF430959F
:1029600041E061E00E94230D88EC8E9DF0018F9D77
:10297000F00D1124E45CFC4F20858091F3049091CC
:10298000F40440E027FF05C0332721950CF430956F
:1029900041E062E00E94230D4CCDDC0112964C9187
:1029A000F8012581022E000C330B4217130609F49F
:1029B000BCCF0E946E32A9CF27818091F304909101
:1029C000F40440E027FF05C0332721950CF430952F
:1029D00041E061E0DFCF88EC8E9D80018F9D100D7E
:1029E0001124045C1C4FD80115968C910E94DB05C4
:1029F0000B9709F01ECDC090ED04D090EE04C114E9
:102A0000D10409F0B1C083E290E00E94D2316C01A0
:102A1000F8016581C6010E947D08D092EE04C09243
:102A2000ED040091ED041091EE0488EC8E9DF00110
:102A30008F9DF00D1124E45CFC4FD680F80122A19B
:102A40008D2D0D2C000C990B2817190649F1D2A2D7
:102A50008AEA8093BE0282E08093BF0281E0809385
:102A6000C002D092C10286E58D258093C2022EEB72
:102A7000A22E22E0B22E33EC832E32E0932ED5012B
:102A80006D915D01C8010E942F068A149B04B9F75D
:102A9000F801D2A262E370E080E090E00E94A90514
:102AA00088EC8E9DF0018F9DF00D1124E45CFC4FAD
:102AB000808597812AEA2093BE029093BF0221E08D
:102AC0002093C0028093C102892794E589278093CF
:102AD000C2028EEBC82E82E0D82E93ECA92E92E093
:102AE000B92ED6016D916D01C8010E942F06AC145C
:102AF000BD04B9F762E370E080E090E00E94A905B0
:102B0000C8010E94C4060115110559F080E291E048
:102B1000F80191838083C8010E94C406C8010E9405
:102B20006E321092EE041092ED0488EC8E9D8001BE
:102B30008F9D100D1124045C1C4FD8011596EC914B
:102B4000EE0FFF0BE25DFE4F60E080810E941002FD
:102B5000D8011596EC91EE0FFF0BE25DFE4F60E0A1
:102B600081810E94100265CCD60191962C9191979B
:102B7000F8018581082E000C990B2817190609F415
:102B800050CF80E291E08D939C93C6010E94C406D1
:102B9000C6010E946E3283E290E00E94D2316C0145
:102BA000D80115966C9136CF88EC8E9D80018F9D53
:102BB000100D1124045C1C4FF80185810E94DB0577
:102BC000439709F036CCC090E504D090E604C114D8
:102BD000D104C9F58CE090E00E94D2316C01D8019B
:102BE00015966C91C6010E94A510D092E604C09281
:102BF000E504C090E504D090E60488EC8E9DF001D9
:102C00008F9DF00D1124E45CFC4F21854085678188
:102C10008681811132C0C6010E948907C60164966F
:102C20000FB6F894DEBF0FBECDBFDF91CF911F91DD
:102C30000F91FF90EF90DF90CF90BF90AF909F905B
:102C40008F900C943407F6012281D80115968C914F
:102C5000082E000C990B2817190659F282859385C6
:102C60000E946E32C6010E946E328CE090E00E949B
:102C7000D2316C01F8016581B5CF8150022F242F2C
:102C8000462F682FC6010E946807C8CF88EC8E9D2A
:102C900080018F9D100D1124045C1C4FD8011596E6
:102CA0008C910E94DB05429709F0C3CB8091E3042D
:102CB0009091E404009709F053C086E090E00E94F0
:102CC000D2316C01F80165810E94D407D6011596B6
:102CD0001C92D092E404C092E304C6010E94270E25
:102CE00088EC8E9D80018F9D100D1124045C1C4F7B
:102CF000F801468161E08091E3049091E4040E9430
:102D0000FC0DD80117964C9162E08091E3049091FC
:102D1000E4040E94FC0DF801408563E08091E30427
:102D20009091E4040E94FC0DD80119964C9164E046
:102D30008091E3049091E40464960FB6F894DEBFAA
:102D40000FBECDBFDF91CF911F910F91FF90EF90FC
:102D5000DF90CF90BF90AF909F908F900C94FC0D20
:102D6000FC014281D80115962C91022E000C330BE8
:102D70004217130609F4B4CF0E946E329ECF88EC3E
:102D80008E9D80018F9D100D1124045C1C4FF80155
:102D900085810E94DB05499709F04BCB8091D504D2
:102DA0009091D604D8011596DC90009709F04BC09D
:102DB00085E090E00E94D2318C016D2D0E940508C3
:102DC0001093D6040093D50461E0F80183810E943A
:102DD000100261E0D80114968C910E9410020091BB
:102DE000D5041091D60488EC8E9DF0018F9DF00DD6
:102DF0001124E45CFC4FE680E094F12C878161E0D3
:102E0000811141C0F80183810E94100260E0D80165
:102E100014968C910E941002B701F8018381649688
:102E20000FB6F894DEBF0FBECDBFDF91CF911F91DB
:102E30000F91FF90EF90DF90CF90BF90AF909F9059
:102E40008F900C944403FC0122816D2DDD0C770BD7
:102E50002617170621F20E946E3285E090E00E944C
:102E6000D2316C01D80115966C910E940508D09260
:102E7000D604C092D50461E0F60183810E9410025D
:102E800061E0D601A8CFD80114968C910E9410025F
:102E900060E0F80183810E941002B701D801149606
:102EA0008C91BDCF64960FB6F894DEBF0FBECDBF38
:102EB000DF91CF911F910F91FF90EF90DF90CF9016
:102EC000BF90AF909F908F9008952F923F924F9216
:102ED0005F926F927F928F929F92AF92BF92CF92AA
:102EE000DF92EF92FF920F931F93CF93DF93CDB7B3
:102EF000DEB76A970FB6F894DEBF0FBECDBF282E9F
:102F0000312C28EC829FF0011124E45CFC4FE48119
:102F1000E15AE23108F0BAC2F0E0EF56F84E0C94F4
:102F2000B831A317211856189718F818701AD81A1C
:102F30003F1BC41CA61BC31F3F20461A9721AB2270
:102F40003623A023092488EC829D8001839D100DE7
:102F50001124045C1C4FD80115968C910E94DB054E
:102F6000029709F093C280910B0590910C05009790
:102F700009F050C080E190E00E94D2317C01F8015C
:102F80006581C7010E94F007F0920C05E0920B05E5
:102F900080910B0590910C050E942E0C20E030E0F2
:102FA00040E251E40E94DA300E94662F9B0142E524
:102FB0004093290542E440932A0548EC429DF001E4
:102FC000439DF00D1124E45CFC4F438140932C059C
:102FD00041E040932D05AB0177FF02C041505F4FA8
:102FE00050932E05C90160E071E00E94A4318093E6
:102FF0002F0588E080932B05E9E2F5E020E335E03A
:1030000080E09191890F2E173F07D9F78093300503
:1030100088E03AC2DC0112964C91F8012581022E1B
:10302000000C330B4217130609F4B2CF0E946E3224
:1030300080E190E00E94D2317C01D80115966C911C
:10304000A0CF88EC829DF001839DF00D1124E45CFB
:10305000FC4F8581893F09F019C282E580932905DB
:1030600082E480932A0510922B05838180932C059E
:1030700011E010932D0588E00E94B901019799F4A1
:1030800010922E0587E080932B05E9E2F5E02FE210
:1030900035E080E09191890F2E173F07D9F7809393
:1030A0002F0587E0F1C110932E05ECCF88EC829DAF
:1030B0008001839D100D1124045C1C4FF801858153
:1030C0008D3F09F0E3C185E10E943F0422E3AC019A
:1030D000249FC001259F900D112422E520932905EE
:1030E00022E420932A05D80113962C9120932C05D5
:1030F00021E020932D056FEF73E00E94A431CB01F6
:1031000060E071E00E94A431982F990F890F80939D
:103110002E0587E080932B05E9E2F5E02FE235E00C
:1031200080E09191890F2E173F07D9F7B8CF809192
:103130001C0590911D0528EC229D8001239D100DFA
:103140001124045C1C4FF801F5800097C1F585E05F
:1031500090E00E94D2318C016F2D0E94860910935D
:103160001D0500931C0582E58093290582E4809368
:103170002A0510922B0588EC829DF001839DF00DAD
:103180001124E45CFC4F838180932C0581E08093C3
:103190002D0580911C0590911D050E946709809363
:1031A0002E0587E080932B05E9E2F5E02FE235E07C
:1031B00080E09191890F2E173F07D9F770CFDC017E
:1031C00012962C916F2DFF0C770B2617170659F2CC
:1031D0000E946E3285E090E00E94D2317C01F801BD
:1031E00065810E948609F0921D05E0921C05BBCF07
:1031F00088EC829D8001839D100D1124045C1C4F7E
:10320000D80115968C910E94DB05069709F03EC106
:103210008091F9049091FA04009709F050C186E07A
:1032200090E00E94D2317C01F8011581612F0E944B
:10323000B007E12FF0E0EE0FFF1FE25DFE4F81814E
:10324000D70115968C93F092FA04E092F90400915C
:10325000F9041091FA04FE0131962F0185E0DF0197
:103260001D928A95E9F761E0F80185810E941002BC
:1032700061E0D80115968C910E94E2016AEF70E03E
:1032800080E090E00E94A90560E0F80185810E943D
:10329000E20164E170E080E090E00E94A90561E055
:1032A000D80115968C910E94E2018BE990E001977C
:1032B000F1F760E0F80185810E94E20183E290E08D
:1032C0000197F1F70E940A066B017C0162E0D801C8
:1032D00015968C910E941002F80185810E94B90117
:1032E000019789F00E940A066C197D098E099F09D1
:1032F000653071058105910578F3D80113961C920C
:10330000139714961C920E940A066B017C0162E0DE
:10331000F80185810E941002D80115968C910E94B7
:10332000B901892B59F00E940A066C197D098E0992
:103330009F09653071058105910570F3712C612C31
:103340000E940A066B017C0162E0F80185810E94FF
:103350001002D80115968C910E94B901892B59F45D
:103360000E940A066C197D098E099F096530710556
:103370008105910570F30E9484056B017C010E9418
:103380000A064B015C0162E0F80185810E9410028F
:10339000D80115968C910E94B901019759F40E94A9
:1033A0000A06681979098A099B0965307105810542
:1033B000910570F30E948405F30123E0F595E795EC
:1033C0002A95E1F7E40DF51D2081220FAB01BC0128
:1033D0004C195D096E097F09493251056105710576
:1033E00008F47CC0822F81608083BFEF6B1A7B0A58
:1033F000E8E26E16710409F0A3CF59814B816D810B
:103400008A81850F9927991F9C01240F311D8C817A
:10341000820F932F911D99276817190631F4D8014F
:1034200013965C93139714964C9382E58093290529
:1034300082E480932A0588EC829DF001839DF00D43
:103440001124E45CFC4F838180932C0581E0809300
:103450002D05F801838180932E0510922F0584811C
:1034600080933005109231058AE080932B05E9E2C4
:10347000F5E022E335E080E09191890F2E173F07B8
:10348000D9F7809332058AE00E94AB006A960FB6A6
:10349000F894DEBF0FBECDBFDF91CF911F910F918A
:1034A000FF90EF90DF90CF90BF90AF909F908F9064
:1034B0007F906F905F904F903F902F900895FC0108
:1034C0004281D80115962C91022E000C330B421725
:1034D000130609F4BCCE0E946E32A1CE208385CFA4
:1034E0008091F7049091F80428EC229D8001239D9F
:1034F000100D1124045C1C4FD8011596FC90009708
:10350000F1F584E090E00E94D2318C016F2D0E9491
:10351000C0071093F8040093F70482E5809329050F
:1035200082E480932A0510922B0588EC829DF0019D
:10353000839DF00D1124E45CFC4F838180932C0566
:1035400081E080932D050091F7041091F804C801E3
:103550000E94B50990932E05C8010E94B509809379
:103560002F0588E080932B05E9E2F5E020E335E0C4
:1035700080E09191890F2E173F07D9F747CDFC01C5
:1035800022816F2DFF0C770B2617170631F20E9450
:103590006E3284E090E00E94D2317C01D801159611
:1035A0006C910E94C007F092F804E092F704B5CF46
:1035B0008091F5049091F60428EC229D8001239DD2
:1035C000100D1124045C1C4FF801F5800097F1F5F3
:1035D00084E090E00E94D2318C016F2D0E94C007E0
:1035E0001093F6040093F50482E58093290582E4A4
:1035F00080932A0510922B0588EC829DF001839D13
:10360000F00D1124E45CFC4F838180932C0581E054
:1036100080932D050091F5041091F604C8010E94D5
:10362000F60690932E05C8010E94F60680932F059A
:1036300088E080932B05E9E2F5E020E335E080E0C7
:103640009191890F2E173F07D9F7E0CCDC01129634
:103650002C916F2DFF0C770B2617170629F20E946D
:103660006E3284E090E00E94D2317C01F8016581E5
:103670000E94C007F092F604E092F504B5CF809165
:10368000EF049091F00428EC229D8001239D100D01
:103690001124045C1C4FD8011596FC900097E9F5A5
:1036A00085E090E00E94D2318C016F2D0E942508A8
:1036B0001093F0040093EF0482E58093290582E4DF
:1036C00080932A0510922B0588EC829DF001839D42
:1036D000F00D1124E45CFC4F838180932C0581E084
:1036E00080932D05E091EF04F091F00483810E9416
:1036F000B90121E0892B09F020E020932E0587E015
:1037000080932B05E9E2F5E02FE235E080E091912E
:10371000890F2E173F07D9F7C2CCFC0122816F2DEC
:10372000FF0C770B2617170639F20E946E3285E0E0
:1037300090E00E94D2317C01D80115966C910E94D4
:103740002508F092F004E092EF04B6CF28EC229D19
:10375000C001239D900D1124FC01E45CFC4F7F010E
:1037600085810E94DB050D9709F090CE0091E90458
:103770001091EA04D70115968C910115110509F0F5
:103780007DC00E94DB050D9701F58BE090E00E9463
:10379000D2318C01F70165810E94D407D8011696B9
:1037A0001C9216978BEE90E01A969C938E93199725
:1037B00081E090E018969C938E9317971093EA04FB
:1037C0000093E904C8010E943C0E28EC229DC00130
:1037D000239D900D11249C01245C3C4F6901D9016B
:1037E0001696FC90B1E0FB1270C08E010F5E1F4F69
:1037F0009E012F5F3F4FAE01435F5F4FBE01615F90
:103800007F4F8091E9049091EA040E949B0E82E52B
:103810008093290582E480932A05F60183818093B1
:103820002C05F0922D05F0922E058F8598899093A6
:103830002F05809330058D859E859093310580936B
:10384000320589819A819093330580933405898963
:103850009A8990933505809336058FE080932B05E8
:10386000E9E2F5E027E335E080E09191890F2E173A
:103870003F07D9F7809337058FE006CEF801928194
:10388000282F082E000C330B9217130609F49DCF36
:103890000E94DB050D9709F098CFC8010E946E3297
:1038A0008BE090E00E94D2318C01D70115966C918B
:1038B0000E94D407F80116828BEE90E092878187F0
:1038C00081E090E09087878379CFF2E0FF12DECD30
:1038D0008090E9049090EA0416E0B12EF12CE12CDE
:1038E000D12CC12C8E010F5F1F4F9E01235F3F4FD4
:1038F000AE01415F5F4FBE016F5E7F4FC4010E940A
:103900009B0E89819A81C816D90608F46C01E80ECD
:10391000F91EBA94B110E6CFEC18FD08C7019695D0
:103920008795969587959A83898392E59093290543
:1039300092E490932A0598EC929DF001939DF00DEE
:103940001124E45CFC4F938190932C0591E09093BB
:103950002D0592E090932E059F2D96959695909328
:103960002F058093300589E080932B05E9E2F5E08F
:1039700021E335E080E09191890F2E173F07D9F7B9
:103980008093310589E080CD88EC829D8001839D04
:10399000100D1124045C1C4FD80115968C910E94C7
:1039A000DB050E9709F072CDE090E704F090E80493
:1039B000E114F10409F087C2F80185810E94DB055A
:1039C0000E97D1F484E490E00E94D2317C01D801BA
:1039D00015966C910E94D40781E0F7018583EE5B18
:1039E000FF4F88E690E091838083F092E804E092B4
:1039F000E704C7010E946F0F0091E7041091E804EB
:103A0000A8014C5C5F4F2EE06BE3C8010E94130FCE
:103A1000D801D4966D907C90D5977624672476242F
:103A200093967C926E929297D696ED90FC90D79753
:103A30009E2C8F2C95969C928E929497D896AD90B2
:103A4000BC90D997BA24AB24BA249796BC92AE9274
:103A500096971696CD90DD90ED90FC901997DC9698
:103A60006D917C91762767277627072E000C880BAF
:103A7000990B0E949E2FF80120A531A542A553A5C0
:103A80000E94102EA70196010E94F42ED80156968E
:103A90006D937D938D939C935997DE966D917C9158
:103AA000762767277627072E000C880B990B0E9434
:103AB0009E2FF80124A535A546A557A50E94102ED6
:103AC000A70196010E94F42ED8015A966D937D931A
:103AD0008D939C935D97F801E05CFF4F608171814D
:103AE000762767277627072E000C880B990B0E94F4
:103AF0009E2FF80120A931A942A953A90E94102E96
:103B0000A70196010E94F42ED8015E966D937D93D5
:103B10008D939C939197B401990C880B990B0E94FB
:103B20009E2F6B017C01B501BB0C880B990B0E9489
:103B30009E2F9B01AC010E94DA304B015C01A70172
:103B40009601C701B6010E94DA30A50194010E94D6
:103B5000112E0E944D316B8B7C8B8D8B9E8BB30114
:103B6000770C880B990B0E949E2F2B013C012B890F
:103B70003C894D895E890E94902E20E030E044E32C
:103B800053E40E94DA302AED3FE049E450E40E9419
:103B9000F42E6B8B7C8B8D8B9E8BA3019201C301CA
:103BA000B2010E94DA30A50194010E94112E0E94F8
:103BB0004D319B01AC01C701B6010E94902E20E05F
:103BC00030E044E353E40E94DA302AED3FE049E478
:103BD00050E40E94F42E6F8B788F898F9A8F0E9409
:103BE0000A06C090B402D090B502E090B602F09000
:103BF000B7026C197D098E099F090E949C2F20E055
:103C000030E04AE754E40E94F42E6B017C010E94EC
:103C10000A066093B4027093B5028093B602909343
:103C2000B702F80186A197A1181619060CF061C118
:103C3000228D338D448D558DC701B6010E94DA3037
:103C40009B01AC01D8011A966D917D918D919C914B
:103C50001D970E94102EF8016287738784879587CD
:103C600026893789408D518DC701B6010E94DA300F
:103C70009B01AC01D8011E966D917D918D919C9117
:103C800051970E94112EF80166877787808B918B60
:103C9000F801268D378D40A151A1C701B6010E94C0
:103CA000DA30D80152962D913D914D915C91559706
:103CB0000E94112E2B013C0120E030E044EB53E444
:103CC0000E94F42E0E94D92F20E030E044EB53E410
:103CD0000E94DA309B01AC01C301B2010E94102E98
:103CE000F801628B738B848B958B20E030E040E091
:103CF0005FE3C701B6010E94112E9B01AC0160E099
:103D000070E080E09FE30E94F42E6B017C01AC0127
:103D10009B0160E070E080E89FE30E94102E4B0161
:103D20005C01D8011A962D913D914D915C911D97A2
:103D3000C701B6010E94DA302B013C01A5019401B4
:103D40006B897C898D899E890E94DA309B01AC0148
:103D5000C301B2010E94112EF80162877387848724
:103D600095872685378540895189C701B6010E940C
:103D7000DA306B017C01A50194016F89788D898D02
:103D80009A8D0E94DA309B01AC01C701B6010E94F6
:103D9000112ED8011E966D937D938D939C93519710
:103DA00082E58093290582E480932A0510922B05F1
:103DB00088EC829DF001839DF00D1124E45CFC4FA2
:103DC000838180932C0581E080932D05768070920D
:103DD0002E05E6E0781265C00091E7041091E80432
:103DE000F8016285738584859585905820E030E0E0
:103DF00048EC52E40E94DA300E94662F4B015C01CD
:103E0000D8011E966D917D918D919C9151979058FE
:103E100020E030E048EC52E40E94DA300E94662F45
:103E20006B017C0120E030E048EC52E4F80162894B
:103E30007389848995890E94DA300E94662F18144C
:103E400019041A041B040CF487C0B094A094909435
:103E50008094811C911CA11CB11C10922F05909282
:103E60003005809231051C141D041E041F040CF43F
:103E700076C0F094E094D094C094C11CD11CE11C95
:103E8000F11C10923205D0923305C092340597FD93
:103E90006AC021E02093350570933605609337059D
:103EA000EFE081E08E0F80932B05A9E2B5E020E0E2
:103EB00090E03D91930F2F5FE213FBCFF0E0E75DC1
:103EC000FA4F9083E1CAD80115968C91F70192813F
:103ED000282F082E000C330B9217130609F48CCDF3
:103EE0000E94DB050E9709F087CDC7010E946E3254
:103EF00069CD228D338D448D558DC701B6010E9449
:103F0000DA309B01AC01F801628573858485958563
:103F10000E94112ED8011A966D937D938D939C93D8
:103F20001D9756962D913D914D915C915997C701E2
:103F3000B6010E94DA309B01AC01F80166857785F5
:103F4000808991890E94102ED8011E966D937D93D1
:103F50008D939C9351979CCE70922F0580CF21E03A
:103F60002093320590CF9B01AC0188279927DC0173
:103F7000821B930BA40BB50B10923505909336055D
:103F8000809337058DCF8091BC029091BD0248ECA3
:103F9000429D9001439D300D1124A901445C5C4F6A
:103FA0007A01DA0115961C91009709F046C088E065
:103FB00090E00E94D2317C01612F0E94D40781E001
:103FC000F701858317821682F092BD02E092BC024F
:103FD00082E58093290582E480932A0510922B05BF
:103FE00088EC829DF001839DF00D1124E45CFC4F70
:103FF000838180932C0581E080932D058091BC0204
:104000009091BD020E94470D90932E058091BC02B5
:104010009091BD020E94470D80932F0588E0809308
:104020002B05E9E2F5E020E335E080E09191890F8E
:104030002E173F07D9F70C940618DC0112962C9125
:10404000612F110F770B2617170611F20E946E329F
:1040500088E090E00E94D2318C01F70165810E94D6
:10406000D40781E0D80115968C93159717961C926A
:104070001E9216971093BD020093BC02A9CF8091A7
:10408000E1049091E20448EC429D9001439D300D83
:104090001124F901E45CFC4F6F011581009709F0D0
:1040A0009BC089E090E00E94D2317C01612FC70162
:1040B0000E94B007E12FF0E0EE0FFF1FE25DFE4F20
:1040C0008081D70114968C931497818115968C93D7
:1040D000F092E204E092E1040091E1041091E20424
:1040E00088EC829DF001839DF00D1124E45CFC4F6F
:1040F0008681813009F084C0F8016481C8010E9482
:10410000DA067801B6E0EB0EF11CC7010E94450803
:1041100081117DC060E070E0CB0120E030E048EC30
:1041200052E40E94DA306B017C0182E5809329051C
:1041300082E480932A0588EC829DF001839DF00D36
:104140001124E45CFC4F838180932C0511E01093D3
:104150002D0520E030E0A901C701B6010E94CD3055
:1041600087FDDAC010932E0520E030E0A901C701D9
:10417000B6010E94CD3018160CF0D1C0C701B601AF
:104180000E94662F9B0177FF02C021503F4F309362
:104190002F0520E030E0A901C701B6010E94CD3013
:1041A00018160CF0C0C0C701B6010E94662FCB01E3
:1041B00060E071E00E94A4318093300589E0809333
:1041C0002B05E9E2F5E021E335E080E09191890FEC
:1041D0002E173F07D9F7D4CBFC012281612F110F95
:1041E000770B2617170609F477CF0E946E3289E005
:1041F00090E00E94D2317C01D60115961C9156CFD9
:10420000823009F07ECFD80115966C9177CF6CEC97
:10421000C7010E94BC0064E4C7010E94BC000E9468
:104220000A064B015C01F3E2CF2ED12CF801868106
:104230000780F085E02D2181982F9095922391831E
:10424000D6011197F1F79081892309F458C0C7016D
:104250000E9445086CECC7010E94BC006EEBC701D0
:104260000E94BC009E012F5F3F4F39016E0136E076
:10427000C30ED11C47E050E063E270E0EFECEE2E9D
:10428000F12C88E090E0A12C99249394D801169603
:10429000BC9016971796ED91FC91F89421812B29EB
:1042A000218332818B2C809438213283DA0111975B
:1042B000F1F7218128212183DB011197F1F720817A
:1042C0007894F7013197F1F7B22209F0A928990CF7
:1042D0000197E1F6F301A1923F01CE16DF0689F6C0
:1042E00069817A81072E000C880B990B0E949E2F02
:1042F00020E030E040E85DE30E94DA300ECF0E941B
:104300000A06681979098A099B0961397140810592
:10431000910508F48BCFFECE10922E0525CFC70154
:10432000B60190582DCFC701B60190583ECF80916D
:10433000DF049091E00448EC429D9001439D300DD4
:104340001124A901445C5C4F6A01DA0115961C91A5
:10435000009709F0C2C085E090E00E94D2317C0154
:10436000612FC7010E94B007E12FF0E0EE0FFF1FA1
:10437000E25DFE4F8181D70113968C931397808164
:1043800014968C93F092E004E092DF04E090DF0456
:10439000F090E00460E0F70183810E941002D701F1
:1043A00013968C910E943F049C01205D32401216AE
:1043B00013060CF0A6C04BE0429FC001439F900D36
:1043C000112466E070E00E94A4310091B8021091BF
:1043D000B902060F171F013EB1E01B070CF09AC08F
:1043E0000032EEEF1E070CF498C0C801C196833668
:1043F000910508F495C060E0D70114968C910E9455
:104400001002F70184810E943F049C01205D32402C
:10441000121613060CF087C045EF4203C001439FFC
:10442000900D112466E070E00E94A4318091BA02E0
:104430009091BB02680F791F613E51E075070CF047
:104440007FC060328EEF78070CF47DC0CB01C1963F
:104450008336910508F47AC082E58093290582E4C9
:1044600080932A0588EC829DF001839DF00D112434
:10447000E45CFC4F838180932C0581E080932D05C3
:1044800017FD67C080932E0517FF03C01195019596
:10449000110910932F050093300581E077FD82E02C
:1044A0008093310577FF03C0719561957109709311
:1044B0003205609333058CE080932B05E9E2F5E04B
:1044C00024E335E080E09191890F2E173F07D9F75B
:1044D000809334058CE00C94441AFC012281612FF6
:1044E000110F770B2617170609F450CF0E946E3272
:1044F00085E090E00E94D2317C01D60115961C9196
:104500002FCF47E0429FC001439F900D11246AE0E6
:1045100070E059CF00EE11E06ECF00E21EEF6BCFDE
:1045200010E000E068CFC90143E0880F991F4A9569
:10453000E1F7A901481B590BCA016AE070E074CF8A
:1045400060EE71E089CF60E27EEF86CF70E060E0E0
:1045500083CF82E097CF8091DD049091DE0448EC18
:10456000429D9001439D300D1124D901A45CBC4FA4
:104570006D0115961C91009709F064C085E090E0EC
:104580000E94D2317C01612FC7010E94B007E12F48
:10459000F0E0EE0FFF1FE25DFE4F8081D701139622
:1045A0008C931397818114968C93F092DE04E092A1
:1045B000DD0482E58093290582E480932A05109228
:1045C0002B0588EC829DF001839DF00D1124E45CA5
:1045D000FC4F838180932C0581E080932D05E09032
:1045E000DD04F090DE0460E0F70184810E94100297
:1045F000D70114968C910E943F040FEF13E0F8014D
:10460000E81BF90BCF0190932E0560E0D7011496BB
:104610008C910E941002F70184810E943F04081BC4
:10462000190B00932F0588E080932B05E9E2F5E054
:1046300020E335E080E09191890F2E173F07D9F7ED
:104640000C940618FC012281612F110F770B26179D
:10465000170609F4AECF0E946E3285E090E00E940A
:10466000D2317C01D60115961C918DCF8091DB044F
:104670009091DC0428EC229D8001239D100D1124D3
:10468000045C1C4FD8011596FC90009709F03FC0C0
:1046900084E090E00E94D2318C016F2D0E94C0070F
:1046A0001093DC040093DB0482E58093290582E407
:1046B00080932A0510922B0588EC829DF001839D42
:1046C000F00D1124E45CFC4F838180932C0581E084
:1046D00080932D050091DB041091DC04C8010E9439
:1046E000A20990932E05C8010E94A20980932F056C
:1046F00088E080932B05E9E2F5E020E335E080E0F7
:104700009191890F2E173F07D9F70C940618FC01D9
:1047100022816F2DFF0C770B2617170629F20E94B6
:104720006E3284E090E00E94D2317C01D80115966F
:104730006C910E94C007F092DC04E092DB04B4CFDD
:104740008091D9049091DA0428EC229D8001239D68
:10475000100D1124045C1C4FF801F580009709F03E
:104760003FC084E090E00E94D2318C016F2D0E9406
:10477000C0071093DA040093D90482E580932905D9
:1047800082E480932A0510922B0588EC829DF0012B
:10479000839DF00D1124E45CFC4F838180932C05F4
:1047A00081E080932D050091D9041091DA04C801AD
:1047B0000E94F60690932E05C8010E94F60680938B
:1047C0002F0588E080932B05E9E2F5E020E335E052
:1047D00080E09191890F2E173F07D9F70C940618A6
:1047E000DC0112962C916F2DFF0C770B2617170604
:1047F00021F20E946E3284E090E00E94D2317C016E
:10480000F80165810E94C007F092DA04E092D904B1
:10481000B4CF8091D7049091D80428EC229D8001D8
:10482000239D100D1124045C1C4FD8011596FC909B
:10483000009709F03FC084E090E00E94D2318C01E3
:104840006F2D0E94C0071093D8040093D70482E50F
:104850008093290582E480932A0510922B0588EC29
:10486000829DF001839DF00D1124E45CFC4F838157
:1048700080932C0581E080932D050091D704109141
:10488000D804C8010E94F60690932E05C8010E9424
:10489000F60680932F0588E080932B05E9E2F5E08A
:1048A00020E335E080E09191890F2E173F07D9F77B
:1048B0000C940618FC0122816F2DFF0C770B261734
:1048C000170629F20E946E3284E090E00E94D231F5
:1048D0007C01D80115966C910E94C007F092D80413
:1048E000E092D704B4CF1F920F920FB60F9211240B
:1048F0002F933F938F939F93AF93BF9380913403F4
:1049000090913503A0913603B09137033091330372
:1049100023E0230F2D3758F50196A11DB11D2093DB
:1049200033038093340390933503A0933603B093FD
:1049300037038091380390913903A0913A03B091E5
:104940003B030196A11DB11D809338039093390359
:10495000A0933A03B0933B03BF91AF919F918F9186
:104960003F912F910F900FBE0F901F90189526E842
:10497000230F0296A11DB11DD2CF1F920F920FB629
:104980000F9211242F933F934F935F936F937F93D5
:104990008F939F93AF93BF93EF93FF93E091310376
:1049A000F0913203309749F0A685B7858585968DBD
:1049B00091FF14C09C918923A1F4FF91EF91BF91C5
:1049C000AF919F918F917F916F915F914F913F91A7
:1049D0002F910F900FBE0F901F9018959C918923D7
:1049E00061F7A389B4899C918589809589238C93EB
:1049F000868997890197F1F7608D718DA685B785B6
:104A0000558538E020E0CB010197F1F7822F90E047
:104A100095958795282F4C91452309F020683150B2
:104A200091F7868D81FD209580912F0390E001966E
:104A30008F73992730913003381799F0A0912F0385
:104A4000B0E0A151BD4F2C9380932F03828D938DA5
:104A50000197F1F7A389B4898C919589892B8C935F
:104A6000ACCF868D8160868FF1CF1F920F920FB6EB
:104A70000F9211242F933F938F939F93EF93FF9364
:104A80008091EE0287FF1FC0109285001092840073
:104A90008091EE028F5F8093EE028091EE0287FF9D
:104AA00004C08091EE028C30ACF080918400909133
:104AB0008500049680349C4990F180918400909107
:104AC000850004962EC08091EE0287FFE1CF809191
:104AD000EE02DECF2091840030918500E091EE025D
:104AE0008E2FEE0F990BFC01EE0FFF1FE80FF91F41
:104AF000E653FD4F81819281820F931F909389002D
:104B0000809388008091EE02FF91EF919F918F91A9
:104B10003F912F910F900FBE0F901F90189580E43A
:104B20009CE990938900809388008FEF8093EE0238
:104B3000EBCF1F920F920FB60F9211242F933F933A
:104B40008F939F93AF93BF93EF93FF939091C60082
:104B50008091C90281111BC0923561F4E091C802B5
:104B600038ECE39FF0011124E45CFC4F908381E07A
:104B70008093C902FF91EF91BF91AF919F918F9167
:104B80003F912F910F900FBE0F901F90189581307D
:104B900081F4923459F4E091C80288ECE89FF00166
:104BA0001124E45CFC4F918382E0E2CF1092C902B1
:104BB000E1CF2091C80238EC239FF0011124E45C7E
:104BC000FC4FDF01A80FB11D9C938F5F8093C9023A
:104BD0009281891710F4883C68F21092C902809182
:104BE000CC04222331F01092C80282608093CC045E
:104BF000C1CF91E09093C8028160F8CFCF92DF924D
:104C0000EF92FF920F931F93E82FF92F05C00150E9
:104C100011092109310961F1908196239417B9F3A3
:104C200005C0015011092109310911F19081962324
:104C30009413F7CFC12CD12CE12CF12C0AC08FEFAB
:104C4000C81AD80AE80AF80A0C151D052E053F05F2
:104C500079F080818623841791F36C2D7D2D8E2D24
:104C60009F2D1F910F91FF90EF90DF90CF900895AF
:104C700060E070E080E090E01F910F91FF90EF9076
:104C8000DF90CF900895CF93DF9300D000D0CDB7C1
:104C9000DEB7789484B5826084BD84B5816084BDBC
:104CA00085B5826085BD85B5816085BD80916E00CA
:104CB000816080936E0010928100809181008260FB
:104CC0008093810080918100816080938100809138
:104CD00080008160809380008091B1008460809327
:104CE000B1008091B00081608093B00080917A0023
:104CF000846080937A0080917A00826080937A0049
:104D000080917A00816080937A0080917A00806837
:104D100080937A001092C10060E088E00E94100247
:104D20008091C00082608093C0001092C50080E135
:104D30008093C4008091C10080688093C1008091FD
:104D4000C10080618093C1008091C1008860809320
:104D5000C1008091C20084608093C2008091C20033
:104D600082608093C2006CE271E080E090E00E947B
:104D7000A90561E0809128050E94100260E0809101
:104D800028050E94E20120E040E060E08FE095E02D
:104D90000E948907EEEDF0E0E491E0931605EAEC5D
:104DA000F0E0E491F0E0EE0FFF1FEC54FF4F85912F
:104DB0009491909313058093120561E082E00E9424
:104DC000100220E040E060E08FE095E00E9489075B
:104DD0008FE095E00E9434076CE271E080E090E0A3
:104DE0000E94A90520E040E06EE18FE095E00E947E
:104DF00089078FE095E00E9434076CE271E080E063
:104E000090E00E94A90520E04EE160E08FE095E08F
:104E10000E9489078FE095E00E9434076CE271E000
:104E200080E090E00E94A9052EE140E060E08FE084
:104E300095E00E9489078FE095E00E9434076CE2BC
:104E400071E080E090E00E94A90544EF51E060E04D
:104E500070E084EF91E00E944C0261E085E00E94E6
:104E6000100261E086E00E94100261E089E00E9489
:104E7000100261E08AE00E9410028DEA80938000B7
:104E80008BE080938100109289001092880010922C
:104E90008B0010928A0064EF71E080E090E00E9445
:104EA000A90582E50E94A40082E40E94A40086E095
:104EB0000E94A40080E00E94A40083E00E94A4005D
:104EC0008DE90E94A40088E19FE00FB6F894A895B0
:104ED000809360000FBE90936000A89538EC832EFD
:104EE000912CA12CB12C40E2242E41E0342E50E52F
:104EF000652E53EC752EA8958091CC04482F4170F7
:104F000080FF03C18E7F8093CC0480913E0350E0EC
:104F100040E08150990B252F30E0281739073CF4E9
:104F2000245C3C4FD9012C91420F5F5FF4CF845C2D
:104F30009C4FFC0180814813CBC080914003813A93
:104F400008F0C2C080E00E94D11088E00E94B90140
:104F5000019719F481E08093CF0488E00E94B901A1
:104F6000892B49F48091CF04882329F081E0809334
:104F7000CE041092CF048091CE04882321F11092A8
:104F8000CE048091CD048823F1F082E50E94A40034
:104F900082E40E94A40088E00E94A40080E00E94B5
:104FA000A40081E00E94A40089EF0E94A40081E097
:104FB0000E94A40087E90E94A40087E90E94A4003F
:104FC00087E90E94A40080911F05882309F46AC024
:104FD0008091D1049091D204A091D304B091D404D3
:104FE0000196A11DB11D8093D1049093D204A0938A
:104FF000D304B093D404883E9340A105B10508F4CE
:1050000049C02091D0042A831092D1041092D20476
:105010001092D3041092D40485E10E943F04BC0195
:1050200090E080E00E949C2F20E030E040E75CE3CD
:105030000E94DA306B017C0120E030E040E050E477
:105040000E94CD30181634F52AE939E949ED50E4CB
:10505000C701B6010E94EF2E87FF1CC082E50E94A7
:10506000A40082E40E94A40088E00E94A40080E0E2
:105070000E94A40082E00E94A4008DEF0E94A40080
:1050800081E00E94A4008CE90E94A4003A813F5F65
:105090003093D0048091D0048A3020F01092D00454
:1050A00010921F0580911E05813009F461C208F439
:1050B00069C0823009F459C3E0E0F0E0EF2B09F455
:1050C0001ACF0E94000017CF80E00E9465173DCFE5
:1050D00082E50E94A40082E40E94A40087E00E946E
:1050E000A40080913F030E94A400809140030E948D
:1050F000A40080E00E94A40080913F0390914003AF
:10510000890F86560E94A40020CF81FF1ECF8D7F7D
:105110008093CC048091060450E08150990B252F98
:1051200030E0281739073CF42C5F3B4FD9012C9114
:10513000420F5F5FF4CF8C5F9B4FFC01808148136F
:1051400008C080910804813A10F481E0FCCE81E02F
:10515000BCCF82E50E94A40082E40E94A40087E004
:105160000E94A400809107040E94A400809108047A
:105170000E94A40080E00E94A40080910704909106
:105180000804BECF0E940A0600910505109106058D
:105190002091070530910805601B710B820B930B62
:1051A000613273408105910508F486CF81E0C82EF5
:1051B00085E0D82E9DEFE92E94E0F92E0EE211E065
:1051C0001A82512C5394852D0E94DB05482EF6013E
:1051D00081936F0181110BC060E0D80112968C9110
:1051E0000E94100260E0F80183810E941002D70142
:1051F000EC914E1609F486C0E250E83108F044C044
:10520000F0E0EB5FF64D0C94B8311D2929293529C2
:10521000CD294729562965297429DD29E929052A37
:10522000132A212A4429542A4429462A2F2A622A49
:10523000702A7E2A8C2A9A2AAA2A80910B0590919C
:105240000C05009731F00E946E3210920C051092FE
:105250000B058091FB049091FC04009731F00E94B3
:105260006E321092FC041092FB0480911C05909108
:105270001D05009719F4B1E0BA8344C00E946E3254
:1052800010921D0510921C05E1E0EA833BC080915D
:10529000F9049091FA04009771F30E946E32109213
:1052A000FA041092F904F1E0FA832CC08091F7041B
:1052B0009091F8040097F9F20E946E321092F8046F
:1052C0001092F70421E02A831DC08091F50490918B
:1052D000F604009781F20E946E321092F60410924A
:1052E000F50431E03A830EC08091F3049091F40408
:1052F000009709F20E946E321092F4041092F304A7
:1053000081E08A83D7014D927D010E5F1F4FB4E08B
:105310005B1258CFEA81EE23A9F182E5809329053B
:1053200082E480932A0510922C05F5E0F0932D0578
:105330008091FD0480932E058091FE0480932F05BB
:105340008091FF04809330058091000580933105A2
:1053500010923205109233051092340510923505E3
:105360002EE020932B05E9E2F5E081913981380F99
:10537000398385E0E633F807C1F7309336058EE0D0
:105380000E94AB000E940A06609305057093060513
:1053900080930705909308058FCE8091F10490913A
:1053A000F204009709F467CF0E946E321092F20463
:1053B0001092F10491E09A83A5CF8091EF0490912F
:1053C000F004009731F00E946E321092F0041092B7
:1053D000EF04A091ED04B091EE04BC83AB83109771
:1053E00009F449CFCD010E94C406EB81FC813182D2
:1053F0002082CF010E94C4068B819C810E946E3264
:105400001092EE041092ED044ECF8091EB04909137
:10541000EC04009709F42FCF0E946E321092EC0436
:105420001092EB044FCF8091E9049091EA04009729
:1054300009F421CF0E946E321092EA041092E9041E
:1054400050CF8091E7049091E804009709F413CFBE
:105450000E946E321092E8041092E70451CFA0919E
:10546000E504B091E604BC83AB83109709F403CF45
:105470001A968D919C910E946E328B819C810E9424
:105480006E321092E6041092E504F5CE8091E304AA
:105490009091E404009709F4EECE0E946E321092CF
:1054A000E4041092E304F0CE8091E1049091E204D0
:1054B000009709F4E0CE0E946E321092E20410923E
:1054C000E104F1CE8091DF049091E004009709F4AB
:1054D000D2CE0E946E321092E0041092DF04F2CE1F
:1054E0008091DD049091DE04009709F4C4CE0E94FF
:1054F0006E321092DE041092DD04F3CE8091DB0454
:105500009091DC04009709F4B6CE0E946E3210929E
:10551000DC041092DB04F4CE8091D9049091DA047B
:10552000009709F4A8CE0E946E321092DA0410920D
:10553000D90440CF8091D7049091D804009709F402
:105540009ACE0E946E321092D8041092D704A1E035
:10555000AA83D8CE8091D5049091D604009709F4FF
:105560008ACE0E946E321092D6041092D50483CE59
:1055700080910B0590910C0510911B05009709F087
:1055800062C080E190E00E94D2319C838B83612FC6
:105590000E94F007AB81BC81B0930C05A0930B0572
:1055A00080910B0590910C050E942E0C6B017C01E3
:1055B00020E030E048E452E40E94CD3018160CF0B0
:1055C0005EC010920A05109209058091090581308C
:1055D00009F494C008F47CC0823009F06DCD20E05D
:1055E00042E360E08FE095E00E9489078FE095E05C
:1055F0000E94340726EA3FEF4FEF5FEF66EA7FEF46
:105600008FEF9FEF0E942F0460E971E080E090E04F
:105610000E94A905A8950E94552DA50194010E94FC
:10562000AD2D653608F498C022E630E040E050E049
:105630006EE97FEF8FEF9FEF0E942F046AE872E020
:1056400080E090E07CC0FC014281212F012E000C03
:10565000330B4217130609F4A3CF0E946E3280E188
:1056600090E00E94D2319C838B83612F0E94F007CF
:105670002B813C8130930C0520930B0591CF309109
:105680000A053A8320E030E048EB51E4C701B60157
:105690000E94CD3087FD15C020E030E048E452E4A0
:1056A000C701B6010E94EF2E18165CF08A818111A5
:1056B00004C081E080930A0588CF81E080930905CA
:1056C000F9CF9A819923A9F382E09130B9F7F2CF0B
:1056D00027E330E040E050E067E370E080E090E0F6
:1056E0000E942F0422E340E060E08FE095E00E94FA
:1056F00089078FE095E00E943407DECC20E040E08F
:1057000062E38FE095E00E9489078FE095E00E94B8
:1057100034070E94552DA50194010E94AD2D6536D8
:1057200090F022E630E040E050E06EE97FEF8FEF4E
:105730009FEF0E942F046CE271E080E090E00E94F5
:10574000A905A895B9CC2EE93FEF4FEF5FEF62E6D0
:1057500070E080E090E0EDCF2EE93FEF4FEF5FEF9C
:1057600062E670E080E090E067CF80911C05909148
:105770001D0510911B05009709F073C085E090E0AE
:105780000E94D2319C838B83612F0E948609AB815A
:10579000BC81B0931D05A0931C0580911C059091C0
:1057A0001D050E946709813009F494C008F475C092
:1057B000823009F4A9C0833009F07ECC80910001C9
:1057C000A0910D05B0910E051196BC83AB838A3074
:1057D00009F0B0C02EEC3FEF4FEF5FEF6EEC7FEFC4
:1057E0008FEF9FEF0E942F04EB81FC81F0930E0559
:1057F000E0930D0580910D0590910E058035934C39
:1058000008F45ACC70920E0560920D0520E030E04D
:10581000A90160E070E0CB010E942F0420E040E08D
:1058200060E08FE095E00E9489078FE095E00E949C
:10583000340764EF71E080E090E00E94A90520E069
:1058400040E060E58FE095E00E9489078FE095E0F9
:105850000E94340764EF71E080E090E00E94A905A7
:105860002BCCFC014281212F012E000C330B42175F
:10587000130609F492CF0E946E3285E090E00E94F8
:10588000D2319C838B83612F0E9486092B813C81BE
:1058900030931D0520931C0580CF2AE230E040E0C4
:1058A00050E06AE270E080E090E00E942F043AE06D
:1058B0003093000120E048EC60E08FE095E00E942A
:1058C00089078FE095E00E94340710920E05109230
:1058D0000D05F2CB2AE230E040E050E06AE270E0F1
:1058E00080E090E00E942F0480910001823018F047
:1058F00081508093000100E020E048EC60E08FE000
:1059000095E00E946807DDCF2AE230E040E050E0F9
:105910006AE270E080E090E00E942F048091000134
:10592000843118F48F5F8093000100E020E048ECA0
:1059300061E0E5CF8A3088F42DE230E040E050E0CD
:1059400066EA7FEF8FEF9FEF0E942F042B813C814F
:1059500030930E0520930D054DCF26EA3FEF4FEF14
:105960005FEF6DE270E080E090E00E942F048B8199
:105970009C8190930E0580930D053CCFAFE0B5E080
:105980001C9211961C92119712961C921297ECED94
:10599000F0E0E4911796EC931797E8ECF0E0E491CF
:1059A000F0E0EE0FFF1FEC54FF4F85919491149699
:1059B0009C938E93139761E080E00E94100262E056
:1059C0008FE095E00E947A1084E08093280560E0E3
:1059D00084E10E94100261E08CE00E94100261E00C
:1059E0008DE00E94100261E087E00E94100260E0FA
:1059F0008CE00E94E20160E08DE00E94E20160E044
:105A000087E00C94E2018091190590911A050C949D
:105A10006E328F929F92AF92BF92CF92DF92EF92AF
:105A2000FF92CF93DF93EC01688179818A819B811A
:105A3000611571058105910521F464E279ED8BE52D
:105A400097E02DE133EF41E050E00E94AD2D490198
:105A50005A019B01AC01A7EAB1E40E94CC2D6B0175
:105A60007C01ACEEB4EFA50194010E94DA2DC60EC4
:105A7000D71EE81EF91EF7FE06C081E0C81AD1083D
:105A8000E10880E8F80AC882D982EA82FB82C7016D
:105A9000B6019F77DF91CF91FF90EF90DF90CF908D
:105AA000BF90AF909F908F9008958F929F92AF92EA
:105AB000BF92CF92DF92EF92FF92609101017091BD
:105AC0000201809103019091040161157105810526
:105AD000910521F464E279ED8BE597E02DE133EF58
