:100000000C9487000C94AF000C94AF000C94C621A4
:100010000C94C6210C94C6210C94AF000C94AF0034
:100020000C94AF000C94AF000C94AF000C945622CB
:100030000C94AF000C94AF000C94AF000C94AF0084
:100040000C947C210C94AF000C94822C0C94AF0087
:100050000C94AF000C94AF000C94AF000C94AF0064
:100060000C94AF000C94AF00D72FE32FEF2F353057
:10007000FD2F0B301930273043304F3072307F3036
:100080008C30084AD73B3BCE016E84BCBFFDC12FEC
:100090003D6C74319ABD56833DDA3D00C77F11BE79
:1000A000D9E4BB4C3E916BAAAABE000000803F0081
:1000B0000000000800020100000304070000000027
:1000C0000000000000000000250028002B000000B8
:1000D0000000240027002A00000000002300260062
:1000E00029000404040404040404020202020202BB
:1000F00003030303030301020408102040800102EC
:10010000040810200102040810200336963511243B
:100110001FBECFEFD8E0DEBFCDBF11E0A0E0B1E061
:10012000EAEAF8E702C005900D92A639B107D9F7BF
:1001300026E0A6E9B1E001C01D92AA38B207E1F7B6
:1001400010E0C6E8D0E004C02197FE010E94CC3A3E
:10015000C538D107C9F70E94332D0C94483C0C9444
:1001600000002F923F924F925F926F927F928F92F8
:100170009F92AF92BF92CF92DF92EF92FF920F9336
:100180001F93CF93DF93CDB7DEB7AA970FB6F8943E
:10019000DEBF0FBECDBFE82EF12C28EC829F800180
:1001A00011240A531D4FD80114968C918A3109F4F9
:1001B0009FC308F062C0823109F488C108F047C0CB
:1001C000843009F4E2C040F4813009F487C0823001
:1001D00009F4A4C00C94660F803109F4FCC008F047
:1001E00023C1853011F00C94660F82E58093B5052C
:1001F00082E48093B6051092B705D80113968C91CE
:100200008093B80581E00E94D1288093B90582E0EF
:100210000E94D1288093BA0583E00E94D128809360
:10022000BB0584E00E94D1288093BC051092BD05D7
:100230001092BE051092BF051092C0058DE080930C
:10024000B705E5EBF5E090E08CE08E0FBBC08531A3
:1002500009F4AEC140F4833109F4C1C1843109F419
:10026000E5C10C94660F883109F4BDC208F0C4C220
:10027000863109F482C10C94660F853A09F497C659
:1002800090F4813A09F457C540F48B3109F4AAC3BC
:100290008C3109F459C40C94660F833A09F4ECC507
:1002A00008F4BBC522C6883A11F40C94100A48F42D
:1002B000863A09F4DFC7873A11F40C949E090C942E
:1002C000660F8A3A11F40C946E0A10F40C948F0B9A
:1002D0008B3A11F40C94C50E0C94660F92E5909332
:1002E000B50592E49093B60598E09093B705F801B0
:1002F00093819093B80592E09093B9058093BA05E5
:1003000086E08093BB05E5EBF5E090E087E08E0F9B
:100310002191920F8E13FCCF0C94370F82E58093BE
:10032000B50582E48093B6051092B705D8011396FF
:100330008C9113978093B80515968C91823059F063
:1003400024F4813089F481E009C0833031F08430B5
:1003500059F484E003C082E001C083E00E94D12808
:100360008093B905E5E001C0E4E081E08E0F809361
:10037000B70545EB55E0DA0190E02D91920F2A2F59
:10038000241B2E17D0F30C94C00E82E58093B50584
:1003900082E48093B605F80183818093B80581E0FB
:1003A0008093B9058093BA0587E08093B705E5EBA4
:1003B000F5E090E086E08E0F2191920F8E13FCCF36
:1003C0000C946A0A2191920F8E13FCCF9093C10571
:1003D0008DE00C94640FF80185818C3FD1F0882367
:1003E00089F08B3F11F00C943B0F88EC8E9DF0014F
:1003F0008F9DF00D1124EA53FD4F208547816681C2
:1004000081E00CC020854781668180E00E945B2CE2
:1004100007C0F80120854781668180E00E94342C66
:100420000E94FB2B0C943B0FD80115968C918F3FAB
:1004300009F440C08823B1F08E3F11F00C943B0FBB
:1004400088EC8E9DF0018F9DF00D1124EA53FD4F35
:100450006681062E000C770B880B990B0E94D02A20
:100460000C943B0F88EC8E9D80018F9D100D112404
:100470000A531D4FF8012781022E000C330B440B49
:10048000550B6681062E000C770B880B990B0E948A
:10049000E12BD80116968C9181110C943B0FF80139
:1004A000878181110C943B0F10927504109278048F
:1004B0000C943B0FD80116966C91062E000C770B0E
:1004C000880B990B0E945A2B0C943B0FF8018581E5
:1004D0000E94D128029711F00C943B0F8091730475
:1004E00090917404009749F480E190E00E94E63A0C
:1004F0005C01D80115966C9115C0FC01428150E059
:10050000D80115962C91022E000C330B421753077D
:1005100081F00E947B3B80E190E00E94E63A5C0122
:10052000F8016581C5010E945925B0927404A0921A
:10053000730488EC8E9DF0018F9DF00D1124EA5319
:10054000FD4FB084A78096800091730410917404CD
:1005500060E4C8010E94C72461EAC8010E946724C0
:10056000692DC8010E9467246A2DC8010E94672472
:100570006B2DC8010E94672431C1D80115968C915A
:10058000893F11F00C943B0F88EC8E9DF0018F9DFC
:10059000F00D1124EA53FD4F8681882329F081E074
:1005A000809357040C943B0F109257040C943B0F0C
:1005B000F8018681882329F0813029F48093790419
:1005C00002C0109279041092590410925A041092A9
:1005D0005B0410925C04109258040C943B0FD801F9
:1005E00016962C91169717968C91179718969C91A2
:1005F000189719964C91199715963C913A3F11F01E
:100600000C943B0F50E0592B60E070E090E0922B8F
:100610000E94612A61E0809173050E945F2060E082
:10062000809173050E94D50F0C943B0FF8018581D2
:100630000E94D128039711F00C943B0F8091710414
:10064000909172040097B1F486E090E00E94E63A3F
:100650008C0188EC8E9DF0018F9DF00D1124EA53E2
:10066000FD4F6581C8010E94F72610937204009324
:10067000710424C0DC0112964C9150E028EC2E9DB0
:1006800080012F9D100D11240A531D4FF801258163
:10069000022E000C330B4217530781F00E947B3B64
:1006A00086E090E00E94E63A5C01D80115966C91D4
:1006B0000E94F726B0927204A092710488EC8E9D7D
:1006C000A0018F9D500D112444535D4F0091710482
:1006D0001091720480E090E073E162E1FA01E80FAA
:1006E000F91F208130E0322F2227E1812E2BD90102
:1006F000AA7ABA7AB695A79525753575220F331F54
:100700002A2B3B2BD901AC7CBC7CFD01F695E795EF
:10071000F695E79523733373D901AA0FBB1FAA0F70
:10072000BB1FAE2BBF2B9D01207F307FF90134E032
:10073000F695E7953A95E1F79D012F703F70A4E09B
:10074000220F331FAA95E1F72E2B3F2B32272327A9
:100750003227220F331F220F331FE72FE81BA1E0A0
:10076000B0E0AC0FBD1FAE0FB11DFD012083262FE1
:10077000281BE1E0F0E0EC0FFD1FE20FF11D3083DC
:1007800002968431910509F0A9CFC8010E947E2408
:1007900067EEC8010E94672460E0C8010E946724D8
:1007A000FE0131965F01E4E19E2E9A0CD5016D9118
:1007B0005D01962F9373B4E09B9FC00111246C7C64
:1007C00066956695862B682F6575660F8A7A86957D
:1007D000682BC8010E9467249A10E8CFC8010E94C4
:1007E000F8220C943B0FF801858180937504868173
:1007F000809378040C943B0FD80115968C910E943D
:10080000D128059711F00C943B0F809167049091CB
:1008100068040097B1F485E090E00E94E63A8C010C
:1008200088EC8E9DF0018F9DF00D1124EA53FD4F51
:100830006581C8010E946E251093680400936704C7
:1008400023C0FC01428150E028EC2E9D80012F9DA9
:10085000100D11240A531D4FD80115962C91022E0C
:10086000000C330B42175307A9F00E947B3B85E035
:1008700090E00E94E63A5C01F80165810E946E25D5
:10088000B0926804A092670483EA8093B00087E086
:100890008093B10088EC8E9DF0018F9DF00D1124A6
:1008A000EA53FD4F8681813089F08230C1F0811199
:1008B0000C943B0FB0840091670410916804678129
:1008C000C8010E94C9336B2DC8010EC06781809199
:1008D0006704909168040E94C9330C943B0F6781B0
:1008E00080916704909168040E94AA330C943B0F96
:1008F000D80115968C910E94D128099711F00C947B
:100900003B0F8091690490916A04009771F0FC019B
:10091000428150E0D80115962C91022E000C330B29
:100920004217530791F00E947B3B86E090E00E94C3
:10093000E63A5C01F80165810E944825D5011596CB
:100940001C92B0926A04A092690488EC8E9DF0011A
:100950008F9DF00D1124EA53FD4F86818130F9F00F
:10096000823081F181110C943B0F278180916904C1
:1009700090916A0427FF06C0332721950CF4309527
:1009800041E001C040E061E00E94D83588EC8E9DD6
:10099000F0018F9DF00D1124EA53FD4F13C0278104
:1009A0008091690490916A0427FF06C0332721953E
:1009B0000CF4309541E001C040E061E00E94D83580
:1009C0000C943B0F20858091690490916A0427FD67
:1009D00003C040E062E0F2CF332721950CF430955C
:1009E00041E0F8CFF80185810E94D1280C9711F0E1
:1009F0000C943B0FE0916104F0916204D8011596CC
:100A00008C91309729F40E94D1280C97E9F513C0F6
:100A1000228130E0482F082E000C550B2417350793
:100A200099F10E94D1280C9779F5809161049091F9
:100A300062040E947B3B86E090E00E94E63A8C01D3
:100A400088EC8E9DF0018F9DF00D1124EA53FD4F2F
:100A50006581C8010E94482581E0F80185831093D3
:100A600062040093610467E7C8010E94993264E759
:100A700080916104909162040E9499328091610496
:100A8000909162040E94222A88E4E6E3F2E0DF010A
:100A90001D928A95E9F788EC8E9D90018F9D300D0F
:100AA00011242A533D4F80E090E0FC01E25BFF4FB0
:100AB000E20FF31F4081042E000C550BFC01EE0FDA
:100AC000FF1FEA5CFD4F51834083019688349105F6
:100AD00061F788E4E6EAF1E0DF011D928A95E9F723
:100AE00080E090E0F901E80FF91F4681042E000C28
:100AF000550BFC01EE0FFF1FEA55FE4F518340835B
:100B000001968834910571F724E735E044E855E013
:100B100066EA71E080916104909162040E94051080
:100B200024E935E044EA55E066E372E0809161042F
:100B3000909162040E94051080916104909162047A
:100B40000E94222A0C943B0FF80185810E94D12833
:100B50000B9711F00C943B0F009163041091640407
:100B60000115110579F483E290E00E94E63A8C01C8
:100B700088EC8E9DF0018F9DF00D1124EA53FD4FFE
:100B8000658128C0D80191962C91919730E048EC6E
:100B90004E9DC0014F9D900D1124FC01EA53FD4F65
:100BA0005F018581082E000C990B28173907C9F0C1
:100BB0008FE091E08D939C93C8010E944022C80170
:100BC0000E947B3B83E290E00E94E63A8C01D501D3
:100BD00015966C91C8010E948725109364040093B8
:100BE0006304A0906304B090640488EC8E9DF001CF
:100BF0008F9DF00D1124EA53FD4F1681F50182A15E
:100C000090E0212F012E000C330B8217930731F156
:100C100012A38AEA8093960182E08093970181E093
:100C2000809398011093990186E5812780939A011A
:100C300056E9852E51E0952E05E0080DD4016D9101
:100C40004D01C5010E94A81F0811F8CFF50112A39C
:100C500062E370E080E090E00E94362188EC8E9D97
:100C6000F0018F9DF00D1124EA53FD4F90853781DF
:100C7000A0906304B09064048AEA80939601309354
:100C8000970121E0209398019093990183272827C9
:100C90009227909590939A0106E911E045E0942EF1
:100CA000900ED8016D918D01C5010E94A81F901270
:100CB000F8CF62E370E080E090E00E9436218091FE
:100CC0006304909164040E94402200916304109197
:100CD00064040115110559F08FE091E0F80191834A
:100CE0008083C8010E944022C8010E947B3B109271
:100CF00064041092630488EC8E9D80018F9D100D1A
:100D000011240A531D4FD8011596EC91EE0FFF0BDD
:100D1000E15DFE4F60E080810E945F20D801159662
:100D2000EC91EE0FFF0BE15DFE4F60E081810E94D0
:100D30005F200C943B0FF80185810E94D128029717
:100D400011F00C94660F80917304909174040097D5
:100D500049F480E190E00E94E63A5C01D8011596E2
:100D60006C9115C0FC01428150E0D80115962C9180
:100D7000022E000C330B4217530781F00E947B3B7D
:100D800080E190E00E94E63A5C01F8016581C501CE
:100D90000E945925B0927404A09273048091730448
:100DA000909174040E942A2920E030E040E251E44E
:100DB0000E94EE390E947A389B0142E54093B505C6
:100DC00042E44093B60548EC4E9DF0014F9DF00D76
:100DD0001124EA53FD4F43814093B80541E040930D
:100DE000B905AB0177FF02C041505F4F5093BA0580
:100DF000C90160E071E00E94B83A8093BB0588E0C9
:100E00008093B705E5EBF5E090E087E08E0F219148
:100E1000920F8E13FCCF0C94370FD80115968C913E
:100E20001597893F11F00C94660F82E58093B50504
:100E300082E48093B6051092B70513968C91809347
:100E4000B80581E08093B90588E00E94AC0F019756
:100E500019F41092BA0503C081E08093BA0587E0C7
:100E60008093B705E5EBF5E090E086E08E0F2191E9
:100E7000920F8E13FCCF2EC3F80185818D3F11F0A8
:100E80000C94660F85E10E94FA2022E3AC01249FB6
:100E9000C001259F900D112422E52093B50522E481
:100EA0002093B605D80113962C912093B80521E024
:100EB0002093B9056FEF73E00E94B83ACB0160E070
:100EC00071E00E94B83A982F990F890F8093BA0564
:100ED00087E08093B705E5EBF5E090E086E08E0FC4
:100EE0002191920F8E13FCCFF5C2809176049091E0
:100EF0007704009771F485E090E00E94E63A5C0187
:100F0000F80165810E949426B0927704A09276043D
:100F100023C0DC0112964C9150E0F8012581022E8D
:100F2000000C330B42175307B9F00E947B3B85E05E
:100F300090E00E94E63A8C0188EC8E9DF0018F9D36
:100F4000F00D1124EA53FD4F6581C8010E949426DB
:100F5000109377040093760482E58093B50582E4CC
:100F60008093B6051092B70588EC8E9DF0018F9D99
:100F7000F00D1124EA53FD4F83818093B80581E081
:100F80008093B90580917604909177040E9475262C
:100F90008093BA0587E08093B705E5EBF5E090E034
:100FA00086E08E0F2191920F8E13FCCF93C2D80151
:100FB00015968C910E94D128069709F087C78091D9
:100FC0006F0490917004009771F0DC0112964C91BF
:100FD00050E0F8012581022E000C330B4217530715
:100FE000F9F00E947B3B86E090E00E94E63ADC014B
:100FF000F8019581E92FF0E0EE0FFF1FE15DFE4F54
:1010000080818C93818111968C93119712969C9379
:10101000129715968C931597B0937004A0936F0454
:1010200000916F04109170049E012F5F3F4F4901A2
:1010300085E0D9011D928A95E9F761E0F801858183
:101040000E945F2061E0D80115968C910E94D50F17
:101050006AEF70E080E090E00E94362160E0F801E5
:1010600085810E94D50F64E170E080E090E00E94ED
:10107000362161E0D80115968C910E94D50F8BE93D
:1010800090E00197F1F760E0F80185810E94D50FAB
:1010900083E290E00197F1F70E9470212B013C015F
:1010A00062E0D80115968C910E945F20D8011596B8
:1010B0008C910E94AC0F019779F00E947021DC01A5
:1010C000CB0184199509A609B7090597A105B105B2
:1010D00068F3F801138214820E9470212B013C01F5
:1010E00062E0F80185810E945F20D80115968C91FD
:1010F0000E94AC0F892B61F00E947021DC01CB01B2
:1011000084199509A609B7090597A105B10568F3E2
:10111000A12CB12C0E9470212B013C0162E0F8014E
:1011200085810E945F20F80185810E94AC0F892B88
:1011300061F40E947021DC01CB0184199509A60994
:10114000B7090597A105B10570F30E9411212B0184
:101150003C010E9470216B8F7C8F8D8F9E8F62E08F
:10116000D80115968C910E945F20D80115968C911C
:101170000E94AC0F019781F40E947021DC01CB0129
:101180002B8D3C8D4D8D5E8D821B930BA40BB50B6F
:101190000597A105B10548F30E941121DC01CB019F
:1011A00084199509A609B709F50123E0F595E79596
:1011B0002A95E1F78997A105B10530F0E80DF91DF1
:1011C0008081880F816004C0E80DF91D8081880F3F
:1011D0008083BFEFAB1ABB0AE8E2AE16B10409F098
:1011E00099CF59814B812D8130E08A8190E0850F24
:1011F000911D840F911D6C81860F911D99272817D1
:10120000390731F4D80113965C93139714964C93D5
:1012100082E58093B50582E48093B60588EC8E9DC7
:10122000F0018F9DF00D1124EA53FD4F83818093CF
:10123000B80581E08093B905E0916F04F0917004E6
:1012400083818093BA051092BB0584818093BC058D
:101250001092BD058AE08093B705E5EBF5E090E0DC
:1012600089E08E0F2191920F8E13FCCF9093BE05D3
:101270008AE02AC680916D0490916E04009771F007
:10128000DC0112964C9150E0F8012581022E000CF1
:10129000330B42175307F9F00E947B3B84E090E048
:1012A0000E94E63ADC01F8019581E92FF0E0EE0FAB
:1012B000FF1FE15DFE4F80818C93818111968C939D
:1012C000119712969C93129713968C931397B09341
:1012D0006E04A0936D0482E58093B50582E480934B
:1012E000B6051092B70588EC8E9DF0018F9DF00D2C
:1012F0001124EA53FD4F83818093B80581E08093E8
:10130000B90580916D0490916E040E94AE26909371
:10131000BA0580916D0490916E040E94AE26809370
:10132000BB0588E08093B705E5EBF5E090E087E04A
:101330008E0F2191920F8E13FCCF99C580916B0473
:1013400090916C04009739F484E090E00E94E63AB2
:10135000DC01F8011BC0DC0112964C9150E0F80151
:101360002581022E000C330B4217530731F10E94E6
:101370007B3B84E090E00E94E63ADC0188EC8E9DA5
:10138000F0018F9DF00D1124EA53FD4F9581E92F57
:10139000F0E0EE0FFF1FE15DFE4F80818C938181B5
:1013A00011968C93119712969C93129713968C9387
:1013B0001397B0936C04A0936B0482E58093B505FA
:1013C00082E48093B6051092B70588EC8E9DF001FB
:1013D0008F9DF00D1124EA53FD4F83818093B80552
:1013E00081E08093B90580916B0490916C040E9418
:1013F000BA229093BA0580916B0490916C040E947C
:10140000BA228093BB0588E08093B705E5EBF5E051
:1014100090E087E08E0F2191920F8E13FCCF27C5AD
:101420008091650490916604009749F485E090E00E
:101430000E94E63A5C01D80115966C9115C0FC013A
:10144000428150E0D80115962C91022E000C330BEE
:101450004217530781F00E947B3B85E090E00E9499
:10146000E63A5C01F8016581C5010E94711FB092E6
:101470006604A092650482E58093B50582E48093BA
:10148000B6051092B70588EC8E9DF0018F9DF00D8A
:101490001124EA53FD4F83818093B80581E0809346
:1014A000B905E0916504F091660483810E94AC0F58
:1014B00021E0892B09F020E02093BA0587E0809392
:1014C000B705E5EBF5E090E086E08E0F2191920FF5
:1014D0008E13FCCF9093BB0587E0F6C4D801159618
:1014E0008C910E94D1280D9709F0F0C4E0915F041F
:1014F000F0916004309749F5F80185810E94D12868
:101500000D9709F05AC08BE090E00E94E63A8C01FA
:1015100088EC8E9DF0018F9DF00D1124EA53FD4F54
:101520006581C8010E944825D80116961C9216971D
:101530008BEE90E01A969C938E93199781E090E041
:1015400018969C938E93179731C0D80115968C915D
:10155000228130E0482F082E000C550B2417350748
:1015600061F10E94D1280D9741F580915F0490911F
:1015700060040E947B3B8BE090E00E94E63A8C0185
:1015800088EC8E9DF0018F9DF00D1124EA53FD4FE4
:101590006581C8010E944825F80116828BEE90E013
:1015A0009287818781E090E0908787831093600421
:1015B00000935F04C8010E947B2728EC2E9DC00188
:1015C0002F9D900D11249C012A533D4F4901D901B3
:1015D0001696BC90B1E0BB1248C08E01075E1F4F4B
:1015E0009E012F5F3F4FAE014B5E5F4FBE01695EB4
:1015F0007F4F80915F04909160040E941E3582E5C8
:101600008093B50582E48093B605F40183818093CD
:10161000B805B092B905B092BA058F89988D9093AC
:10162000BB058093BC058D899E899093BD058093F1
:10163000BE0589819A819093BF058093C005898DED
:101640009A8D9093C1058093C2058FE08093B70572
:10165000E5EBF5E090E08EE08E0F2191920F8E1376
:10166000FCCF9093C3058FE02FC4F2E0BF122EC4CD
:1016700040905F045090600476E0772EA12CB12C4E
:10168000812C912C8E010F5F1F4F9E012B5E3F4FCF
:10169000AE01495E5F4FBE01675E7F4FC2010E948F
:1016A0001E3589819A818816990608F44C01A80E86
:1016B000B91E7A947110E6CFA818B908B694A79409
:1016C000B694A794BA82A98282E58093B50582E494
:1016D0008093B60588EC8E9DF0018F9DF00D11244E
:1016E000EA53FD4F83818093B80581E08093B9056B
:1016F00082E08093BA05B092BB05A092BC0589E058
:101700008093B705E5EBF5E090E088E08E0F21913E
:10171000920F8E13FCCF9093BD0589E0D5C3D801FD
:1017200015968C910E94D1280E9709F0CFC3E091B5
:101730005D04F0915E0428EC2E9DC0012F9D900D5C
:1017400011243097C1F4FC01EA53FD4F5F018581FC
:101750000E94D1280E9709F043C084E490E00E94D3
:10176000E63A8C01D50115966C910E94482581E0DE
:10177000F801858328C09C012A533D4F5901D901A6
:1017800015968C91228130E0482F082E000C550BC5
:101790002417350729F10E94D1280E9709F5809169
:1017A0005D0490915E040E947B3B84E490E00E9483
:1017B000E63A8C01F50165810E94482581E0D80157
:1017C00015968C93F801EE5BFF4F88E690E09183CD
:1017D000808310935E0400935D04C8010E94193455
:1017E00000915D0410915E04A8014C5C5F4F2EE0F7
:1017F0006BE3C8010E941E27F80144A8512C542C09
:10180000442485A96201C82AD3A2C2A2A6A8B12CE9
:10181000BA2CAA2487A9A82AB5A2A4A260AC712CCC
:10182000762C662481AD682A77A266A2268037804E
:101830004084518464AD70E0762F662785AD682BB7
:10184000072E000C880B990B0E94B238D80198968D
:101850002D913D914D915C919B970E942437A2015F
:1018600091010E940838F801668B778B808F918FE9
:1018700066AD70E0762F662787AD682B072E000CCB
:10188000880B990B0E94B238D8019C962D913D91FE
:101890004D915C919F970E942437A20191010E9473
:1018A0000838F801628F738F848F958FE05CFF4F4B
:1018B000608170E0762F662731968081682B072E35
:1018C000000C880B990B0E94B238D801D0962D914C
:1018D0003D914D915C91D3970E942437A2019101D3
:1018E0000E940838F801668F778F80A391A3B50115
:1018F000BB0C880B990B0E94B2384B015C01B30101
:10190000770C880B990B0E94B2389B01AC010E94A6
:10191000EE396B8F7C8F8D8F9E8FA5019401C50151
:10192000B4010E94EE392B8D3C8D4D8D5E8D0E9451
:1019300025370E94613A9B01AC01B601DD0C880B92
:10194000990B2FA338A749A75AA70E94B2382B0199
:101950003C012FA138A549A55AA50E94A43720E033
:1019600030E044E353E40E94EE392AED3FE049E4DD
:1019700050E40E9408386F8F78A389A39AA3A3012B
:101980009201C301B2010E94EE392B8D3C8D4D8D29
:101990005E8D0E9425370E94613A9B01AC01C50112
:1019A000B4010E94A43720E030E044E353E40E94F5
:1019B000EE392AED3FE049E450E40E9408386B8F8D
:1019C0007C8F8D8F9E8F0E9470218090A0019090BF
:1019D000A101A090A201B090A301681979098A0918
:1019E0009B090E94B03820E030E04AE754E40E94AE
:1019F00008384B015C010E9470216093A001709334
:101A0000A1018093A2019093A301D80196968D9194
:101A10009C91979718161906ACF55A962D913D9101
:101A20004D915C915D97C501B4010E94EE399B0117
:101A3000AC01F80162857385848595850E94243701
:101A4000D8011A966D937D938D939C931D9756960E
:101A50002D913D914D915C915997C501B4010E9422
:101A6000EE399B01AC01F801668577858089918903
:101A70000E942537D8011E966D937D938D939C937C
:101A8000519731C0F801228D338D448D558DC5019C
:101A9000B4010E94EE399B01AC01D8011A966D91F8
:101AA0007D918D919C911D970E942537F801628749
:101AB00073878487958726893789408D518DC50125
:101AC000B4010E94EE399B01AC01D8011E966D91C4
:101AD0007D918D919C9151970E942437F8016687E2
:101AE0007787808B918BD8015E962D913D914D919A
:101AF0005C919197C501B4010E94EE39F8012289E9
:101B00003389448955890E9425372B013C0120E007
:101B100030E044EB53E40E9408380E94ED3820E0A6
:101B200030E044EB53E40E94EE399B01AC01C30169
:101B3000B2010E942437D80152966D937D938D9304
:101B40009C93559720E030E040E05FE3C501B4018D
:101B50000E9425379B01AC0160E070E080E09FE3CC
:101B60000E9408384B015C019B01AC0160E070E011
:101B700080E89FE30E9424372B013C01F801228575
:101B8000338544855585C501B4010E94EE396BA3A8
:101B90007CA38DA39EA3A30192016F8D78A189A13F
:101BA0009AA10E94EE399B01AC016BA17CA18DA191
:101BB0009EA10E942537D8011A966D937D938D932F
:101BC0009C931D971E962D913D914D915C9151973F
:101BD000C501B4010E94EE394B015C01A3019201E1
:101BE0006B8D7C8D8D8D9E8D0E94EE399B01AC019D
:101BF000C501B4010E942537F80166877787808B7D
:101C0000918B82E58093B50582E48093B6051092AE
:101C1000B70588EC8E9DF0018F9DF00D1124EA53DD
:101C2000FD4F83818093B80581E08093B90586815B
:101C30008093BA05813009F094C000915D04109141
:101C40005E04F80182859385A485B585BC01CD012C
:101C5000905820E030E048EC52E40E94EE390E94B7
:101C60007A382B013C01F80186859785A089B189D6
:101C7000BC01CD01905820E030E048EC52E40E94D5
:101C8000EE390E947A384B015C0120E030E048ECEC
:101C900052E4D80152966D917D918D919C9155970A
:101CA0000E94EE390E947A38920114141504160429
:101CB00017044CF057FE04C0222733272419350996
:101CC0001092BB0509C057FE04C0222733272419F0
:101CD000350941E04093BB052901330F66087708B9
:101CE0005092BC052093BD059401181419041A04E0
:101CF0001B044CF097FE04C022273327281939090A
:101D00001092BE0509C097FE04C022273327281968
:101D1000390941E04093BE054901330FAA08BB08C9
:101D20009092BF052093C00597FD08C021E0209345
:101D3000C1057093C2056093C30511C09B0177FF75
:101D400004C022273327261B370B1092C105C90177
:101D5000330FAA0BBB0B9093C2052093C305EFE092
:101D600001C0E6E081E08E0F8093B70545EB55E0BA
:101D7000DA0190E02D91920F2A2F241B2E17D0F319
:101D8000F0E0EB54FA4F90839FC08091A4019091B2
:101D9000A501009779F488E090E00E94E63A8C0172
:101DA00088EC8E9DF0018F9DF00D1124EA53FD4FBC
:101DB00065811FC0DC0112964C9150E068EC6E9D6D
:101DC00090016F9D300D1124F901EA53FD4F5F0121
:101DD0002581022E000C330B42175307B1F00E94ED
:101DE0007B3B88E090E00E94E63A8C01D501159695
:101DF0006C91C8010E94482581E0F8018583178213
:101E000016821093A5010093A40182E58093B50585
:101E100082E48093B6051092B70588EC8E9DF001A0
:101E20008F9DF00D1124EA53FD4F83818093B805F7
:101E300081E08093B9058091A4019091A5010E9451
:101E4000E2249093BA058091A4019091A5010E948B
:101E5000E2248093BB0588E08093B705E5EBF5E0CD
:101E600090E087E08E0F2191920F8E13FCCF90931C
:101E7000BC0588E029C090E082E58093B50582E446
:101E80008093B60588EC8E9DF0018F9DF00D112496
:101E9000EA53FD4F83818093B80581E08093B905B3
:101EA00086E08093B70525EB35E0F9018E2F821B84
:101EB000853018F48191980FF9CF9093BA058091ED
:101EC000B805882319F086E00E94BE28AA960FB6AE
:101ED000F894DEBF0FBECDBFDF91CF911F910F9160
:101EE000FF90EF90DF90CF90BF90AF909F908F903A
:101EF0007F906F905F904F903F902F900895CF927A
:101F0000DF92EF92FF920F931F93CF93DF936C01B9
:101F10007A018B01C0E0D0E0CE15DF0589F0D80151
:101F20006D918D01D601ED91FC910190F081E02D34
:101F3000C6010995892B11F47E0102C02196ECCFD0
:101F4000C701DF91CF911F910F91FF90EF90DF902C
:101F5000CF9008950E94133CCF93DF93282F30E059
:101F6000F901E055FF4F8491F901EA50FF4FD491F8
:101F7000F901EE51FF4FC491CC2391F081110E94E1
:101F80003620EC2FF0E0EE0FFF1FE852FF4FA59137
:101F9000B491EC91ED2381E090E021F480E002C067
:101FA00080E090E0DF91CF9108951F93CF93DF936E
:101FB000282F30E0F901E055FF4F8491F901EA50F4
:101FC000FF4FD491F901EE51FF4FC491CC23C9F0DA
:101FD000162F81110E943620EC2FF0E0EE0FFF1F2C
:101FE000EC53FF4FA591B4918FB7F894111105C030
:101FF0009C91ED2FE095E92302C0EC91ED2BEC9341
:102000008FBFDF91CF911F9108952F923F924F92F2
:102010005F926F927F928F929F92AF92BF92CF9278
:10202000DF92EF92FF920F931F93CF93DF93CDB781
:10203000DEB7C451D1400FB6F894DEBF0FBECDBF9E
:10204000FB011A012901A280B38064817581468158
:10205000578120853185350181E06822772473011D
:1020600083E0EE0CFF1C8A95E1F74B0191E0892299
:10207000992496E0880C991C9A95E1F73701682815
:102080007928C080D180A7E0CA22DD2443018C28B2
:102090009D286A01B1E0CB22DD24DC2CCC24DD0CB0
:1020A000C828D928790181E0E822FF24FE2CEE24FB
:1020B000F29470EFF722EC28FD28A1FA992790F905
:1020C000CD5EDE4F9883C351D140CC5EDE4F188287
:1020D000C451D140CD5EDE4FC880D980C351D140BC
:1020E000A4E0CC0CDD1CAA95E1F7EC28FD28A2FAAF
:1020F000AA27A0F9B0E015E0AA0FBB1F1A95E1F7D7
:10210000EA2AFB2A61FB882780F990E09695982FB0
:10211000882797958795E82AF92A62FB662760F950
:10212000162F00E0E02AF12A41FB882780F9880F6A
:10213000880F8A831982A981BA81EA2AFB2A42FB85
:10214000442740F9440F440F440F4C831B828B817A
:102150009C81E82AF92A21FB882780F98295880F3B
:10216000807E8E831D82AD81BE81EA2AFB2A22FBFE
:10217000222720F92295220F220F207C28871F82F8
:102180008F819885E82AF92AD101EC921196FC9268
:10219000C684D78440895189228933898489958965
:1021A0008A0101701127780156E0EE0CFF1C5A9548
:1021B000E1F7D601A170BB2763E0AA0FBB1F6A95A8
:1021C000E1F787010A2B1B2BD901A170BB27BA2F7E
:1021D000AA27BB0FA02BB12BBC0161707727762FEC
:1021E00066277295707F6A2B7B2BC1FABB27B0F9EB
:1021F000B9871A8609851A8594E0000F111F9A95F0
:10220000E1F7602B712BC2FAAA27A0F9AB871C86D5
:102210000B851C8535E0000F111F3A95E1F7602B07
:10222000712B41FBBB27B0F9BD871E860D851E852E
:102230001695102F002717950795602B712B42FBE1
:10224000442740F9488B1F86AF85B8896A2B7B2BC2
:1022500021FB992790F9990F990F9A8B198AA989CF
:10226000BA896A2B7B2B22FB222720F9220F220F0F
:10227000220F2C8B1B8AAB89BC896A2B7B2B81FBA1
:10228000992790F99295990F907E9E8B1D8AAD8922
:10229000BE896A2B7B2B82FB882780F98295880F69
:1022A000880F807C888F1F8A2F89388D262B372BAB
:1022B000D10112962C93129713963C9384859585A1
:1022C000E28CF38C648D758D468D578D2285338518
:1022D000DC01A170BB278D01000F111F81FBBB2703
:1022E000B0F9B98F1A8EA98DBA8D0A2B1B2B847069
:1022F0009927802B912BD701A170BB2713E0AA0F40
:10230000BB1F1A95E1F78A2B9B2BDB01A170BB2722
:1023100006E0AA0FBB1F0A95E1F7A82BB92BCA014B
:1023200081709927982F8827990F8A2B9B2B8901D9
:1023300001701127102F00271295107F082B192BE1
:10234000E1FABB27B0F9BB8F1C8E8B8D9C8DA4E06E
:10235000880F991FAA95E1F7082B192BE2FA882715
:1023600080F98D8F1E8E8D8D9E8DB5E0880F991F03
:10237000BA95E1F7082B192B61FB992790F99F8FEC
:1023800018A28F8D98A19695982F88279795879555
:10239000802B912B62FB662760F96AA319A2A9A181
:1023A000BAA18A2B9B2B41FB332730F9330F330F14
:1023B0003CA31BA2ABA1BCA18A2B9B2B42FB4427B5
:1023C00040F9440F440F440F4EA31DA2ADA1BEA17E
:1023D0008A2B9B2B21FB332730F93295330F307E2C
:1023E00038A71FA2AFA1B8A58A2B9B2B22FB2227BF
:1023F00020F92295220F220F207C2AA719A6A9A531
:10240000BAA58A2B9B2BD10114968C931497159601
:102410009C93608D718D06A117A140A551A522A5A1
:1024200033A5868997897801B1E0EB22FF24670103
:10243000A3E0CC0CDD1CAA95E1F7DB01A170BB2762
:10244000AA0FBB1F7601EA2AFB2ADA01A170BB277B
:1024500056E0AA0FBB1F5A95E1F7EA2AFB2AD901D9
:10246000A170BB27BA2FAA27BB0F6D01CE28DF288A
:102470007C01A1E0EA22FF24FE2CEE24F294A0EFDE
:10248000FA22EC28FD2861FBBB27B0F9BBA71CA6EC
:10249000CBA4DCA4CC0CDD1CCC0CDD1CEC28FD2872
:1024A00062FB662760F96795662767956EA71DA68C
:1024B000ADA5BEA5EA2AFB2A01FBBB27B0F9BFA741
:1024C00018AA6FA578A914E0660F771F1A95E1F78F
:1024D000E62AF72A02FB662760F969AB1AAA69A9FE
:1024E0007AA905E0660F771F0A95E1F7E62AF72A31
:1024F00041FB772770F97BAB1CAA6BA97CA9769569
:10250000762F6627779567956E297F2942FB4427AA
:1025100040F94EAB1DAAADA9BEA96A2B7B2B21FBAE
:10252000992790F9990F990F98AF1FAAAFA9B8AD45
:102530006A2B7B2B22FB222720F9220F220F220F4E
:102540002AAF19AEA9ADBAAD6A2B7B2B81FB9927B7
:1025500090F99295990F907E9CAF1BAEABADBCAD40
:102560006A2B7B2B82FB882780F98295880F880F46
:10257000807C8EAF1DAE2DAD3EAD262B372BD1010D
:1025800016962C93169717963C93C4A0D5A044A9F1
:1025900055A920A131A182A193A18A01017011271F
:1025A000780156E0EE0CFF1C5A95E1F7D601A170B8
:1025B000BB27AA0FBB1F87010A2B1B2BD901A170B8
:1025C000BB27BA2FAA27BB0FA02BB12BBC01617070
:1025D0007727762F66277295707F6A2B7B2BC1FA3F
:1025E000BB27B0F9BFAF21961FAE219721960EAD44
:1025F0001FAD2197000F111F000F111F602B712BB2
:10260000C2FAAA27A0F92296AFAF229723961FAE4F
:10261000239723960EAD1FAD239733E0000F111FB4
:102620003A95E1F7602B712B41FBBB27B0F924965B
:10263000BFAF249725961FAE259725960EAD1FADEB
:1026400025971695102F002717950795602B712B4E
:1026500042FB442740F927964FAF279726961FAE97
:1026600026972796AEADBFAD27976A2B7B2B21FB14
:10267000992790F9990F990F29969FAF2997289636
:102680001FAE28972996AEADBFAD29976A2B7B2B3D
:1026900022FB222720F9220F220F220F2B962FAF89
:1026A0002B972A961FAE2A972B96AEADBFAD2B97D0
:1026B0006A2B7B2B81FB992790F99295990F907E3D
:1026C0002D969FAF2D972C961FAE2C972D96AEADC5
:1026D000BFAD2D976A2B7B2B82FB882780F98295D3
:1026E000880F880F807C2F968FAF2F972E961FAE66
:1026F0002E972F962EAD3FAD2F97262B372BD1013E
:1027000018962C93189719963C93C2A8D3A8A0A802
:10271000B1A8CF01805C9F4FDC014D915C9124A555
:1027200035A586A597A5C1FABB27B0F96096BFAFBE
:10273000609761961FAE6197B60161707727A4E03C
:10274000660F771FAA95E1F76196EEACFFAC619733
:10275000E62AF72AB50161707727660F771F6E2981
:102760007F298A010170112756E0000F111F5A9529
:10277000E1F7602B712B890101701127102F0027C1
:10278000110F062B172BBC0161707727762F662758
:102790007295707F062B172BC2FA662760F9629636
:1027A0006FAF629763961FAE639763966EAD7FAD12
:1027B000639795E0660F771F9A95E1F7062B172B25
:1027C000A1FA772770F964967FAF649765961FAE7C
:1027D000659765966EAD7FAD6597660F771F660F3F
:1027E000771F062B172BA2FAAA27A0F96696AFAF80
:1027F000669767961FAE679767966EAD7FAD6797D2
:1028000053E0660F771F5A95E1F7062B172B41FB14
:10281000BB27B0F96896BFAF689769961FAE6997F6
:1028200069966EAD7FAD69977695762F6627779519
:102830006795602B712B42FB442740F96B964FAF95
:102840006B976A961FAE6A976B96AEADBFAD6B97EE
:102850006A2B7B2B21FB992790F9990F990F6D9685
:102860009FAF6D976C961FAE6C976D96AEADBFAD7A
:102870006D976A2B7B2B22FB222720F9220F220F38
:10288000220F6F962FAF6F976E961FAE6E976F9653
:10289000AEADBFAD6F976A2B7B2B81FB992790F96B
:1028A0009295990F907EA1969FAFA197A0961FAE8B
:1028B000A097A196AEADBFADA1976A2B7B2B82FBF3
:1028C000882780F98295880F880F807CA3968FAF28
:1028D000A397A2961FAEA297A3968EAD9FADA39786
:1028E000682B792BD1011A966C931A971B967C93BF
:1028F00004AD15AD66AD77AD46A957A920AD31AD94
:1029000082AD93AD7B01B1E0EB22FF246701B4E01F
:10291000CC0CDD1CBA95E1F7D801A170BB27AA0F3A
:10292000BB1F7601EA2AFB2ADA01A170BB2756E019
:10293000AA0FBB1F5A95E1F7EA2AFB2AD901A17019
:10294000BB27BA2FAA27BB0F6D01CE28DF287C0139
:10295000A1E0EA22FF24FE2CEE24F294A0EFFA225A
:10296000EC28FD2801FBBB27B0F9A496BFAFA497C4
:10297000A5961FAEA597A596CEACDFACA597CC0CBF
:10298000DD1CCC0CDD1CEC28FD2802FBAA27A0F9DD
:10299000A696AFAFA697A7961FAEA797A7960EAD20
:1029A0001FADA79793E0000F111F9A95E1F70E292D
:1029B0001F2961FBBB27B0F9A896BFAFA897A996BE
:1029C0001FAEA997A996EEACFFACA99735E0EE0C27
:1029D000FF1C3A95E1F70E291F2962FB662760F973
:1029E000679566276795AB966FAFAB97AA961FAEB4
:1029F000AA97AB96AEADBFADAB970A2B1B2B41FB95
:102A0000BB27B0F9AC96BFAFAC97AD961FAEAD97F4
:102A1000AD966EAD7FADAD977695762F662777959F
:102A20006795602B712B42FB442740F9AF964FAF5F
:102A3000AF97AE961FAEAE97AF96AEADBFADAF97A8
:102A40006A2B7B2B21FB992790F9990F990FE1961F
:102A50009FAFE197E0961FAEE097E196AEADBFADB8
:102A6000E1976A2B7B2B22FB222720F9220F220FD2
:102A7000220FE3962FAFE397E2961FAEE297E3961D
:102A8000AEADBFADE3976A2B7B2B81FB992790F905
:102A90009295990F907EE5969FAFE597E4961FAECD
:102AA000E497E596AEADBFADE5976A2B7B2B82FB35
:102AB000882780F98295880F880F807CE7968FAFF2
:102AC000E797E6961FAEE697E7962EAD3FADE79700
:102AD000262B372BD1011C962C931C971D963C93CB
:102AE000DF01A85BBF4FCD90DC9011971296AD909F
:102AF000BC90CF018C5B9F4FDC012D913C910296E5
:102B0000DC018D919C91850101701127780164E0B1
:102B1000EE0CFF1C6A95E1F7B60161707727660F2E
:102B2000771F8701062B172BB90161707727762F46
:102B30006627770F602B712BAC0141705527542FFE
:102B400044275295507F462B572BC1FABB27B0F92B
:102B5000E896BFAFE897E9961FAEE997E9966EADA4
:102B60007FADE997660F771F660F771F462B572BB0
:102B7000C2FA662760F9EA966FAFEA97EB961FAE46
:102B8000EB97EB966EAD7FADEB9793E0660F771FFB
:102B90009A95E1F7462B572BA1FA772770F9EC9617
:102BA0007FAFEC97ED961FAEED97ED966EAD7FADD6
:102BB000ED9735E0660F771F3A95E1F7462B572BD7
:102BC000A2FAAA27A0F9EE96AFAFEE97EF961FAE46
:102BD000EF97EF966EAD7FADEF97A6E0660F771F8C
:102BE000AA95E1F7642B752B21FB992790F9990F92
:102BF000990FC058DF4F9883C058D040C158DF4F5D
:102C00001882CF57D040C158DF4FA881B981CF5724
:102C1000D0406A2B7B2B22FB222720F9220F220F88
:102C2000220FCE57DF4F2883C258D040CF57DF4FF7
:102C30001882C158D040CF57DF4FA881B981C15801
:102C4000D0406A2B7B2B81FB992790F99295990FA5
:102C5000907ECC57DF4F9883C458D040CD57DF4F7C
:102C60001882C358D040CD57DF4FA881B981C358CF
:102C7000D0406A2B7B2B82FB882780F98295880FB6
:102C8000880F807CCA57DF4F8883C658D040CB5707
:102C9000DF4F1882C558D040CB57DF4F88819981CC
:102CA000C558D040682B792BD1011E966C931E9786
:102CB0001F967C93DF01AC5ABF4F0D911C91119769
:102CC0001296CD90DC90119754976D917C9111974D
:102CD0001E964D915C91119712962D913C91D601C3
:102CE000A170BB277D01B4E0EE0CFF1CBA95E1F7A3
:102CF000D801A170BB27AA0FBB1FAE29BF29CB01EA
:102D00009695982F88279795879599278A2B9B2B9F
:102D100061FBBB27B0F9C957DF4FB883C758D04014
:102D2000C857DF4F1882C858D040C957DF4FA88115
:102D3000B981C758D0408A2B9B2B7A01B1E0EB2296
:102D4000FF24FE2CEE24FF0C8E299F297901A1E09F
:102D5000EA22FF24FE2CEE24F294B0EFFB228E290F
:102D60009F2901FBBB27B0F9C757DF4FB883C9586C
:102D7000D040C657DF4F1882CA58D040C757DF4FE0
:102D8000E880F980C958D040EE0CFF1CEE0CFF1C07
:102D90008E299F2902FBAA27A0F9C557DF4FA883D8
:102DA000CB58D040C457DF4F1882CC58D040C557BD
:102DB000DF4FE880F980CB58D04003E0EE0CFF1CD9
:102DC0000A95E1F78E299F29C1FABB27B0F9C357AD
:102DD000DF4FB883CD58D040C257DF4F1882CE584E
:102DE000D040C357DF4FE880F980CD58D04035E060
:102DF000EE0CFF1C3A95E1F78E299F29C2FAAA270B
:102E0000A0F9C157DF4FA883CF58D040C057DF4F3C
:102E10001882C059D040C157DF4FE880F980CF58A1
:102E2000D04056E0EE0CFF1C5A95E1F7E82AF92A4B
:102E300062FB662760F9CE56DF4F6883C259D040E7
:102E4000CF56DF4F1882C159D040CF56DF4F88810F
:102E50009981C159D040E82AF92A41FB882780F995
:102E6000880F880FCC56DF4F8883C459D040CD5689
:102E7000DF4F1882C359D040CD56DF4FA881B981AA
:102E8000C359D040EA2AFB2A42FB442740F9440FA9
:102E9000440F440FCA56DF4F4883C659D040CB5623
:102EA000DF4F1882C559D040CB56DF4F88819981BA
:102EB000C559D040E82AF92A21FB882780F9829554
:102EC000880F807EC856DF4F8883C859D040C956C6
:102ED000DF4F1882C759D040C956DF4FA881B9814A
:102EE000C759D040EA2AFB2A22FB222720F9229543
:102EF000220F220F207CC656DF4F2883CA59D040AC
:102F0000C756DF4F1882C959D040C756DF4F888156
:102F10009981C959D040E82AF92AD201EC92119638
:102F2000FC92DF01A05ABF4F0D911C911197129690
:102F3000AD90BC90119754974D915C9111971E964E
:102F40002D913C91119712968D919C917501B1E054
:102F5000EB22FF24670164E0CC0CDD1C6A95E1F7ED
:102F6000D801A170BB27AA0FBB1F7601EA2AFB2A52
:102F7000DA01B695BA2FAA27B795A795BB27AE2930
:102F8000BF29B90161707727762F6627770F6A2BE3
:102F90007B2BDC01A170BB27BA2FAA27B295B07F8B
:102FA0006A2B7B2B01FBAA27A0F9C556DF4FA8830C
:102FB000CB59D040C456DF4F1882CC59D040C556AB
:102FC000DF4FE880F980CB59D040EE0CFF1CEE0CAF
:102FD000FF1C6E297F2902FBBB27B0F9C356DF4FC8
:102FE000B883CD59D040C256DF4F1882CE59D04059
:102FF000C356DF4F08811981CD59D040B3E0000F8F
:10300000111FBA95E1F7602B712BA1FAAA27A0F93D
:10301000C156DF4FA883CF59D040C056DF4F18822A
:10302000C05AD040C156DF4F08811981CF59D040D6
:1030300095E0000F111F9A95E1F7602B712BA2FA12
:10304000BB27B0F9CF55DF4FB883C15AD040CE551A
:10305000DF4F1882C25AD040CF55DF4F0881198107
:10306000C15AD04036E0000F111F3A95E1F7062B08
:10307000172B41FB992790F9CC55DF4F9883C45A01
:10308000D040CD55DF4F1882C35AD040CD55DF4FC9
:10309000A881B981C35AD0400A2B1B2B42FB44277D
:1030A00040F9479544274795CA55DF4F4883C65A8C
:1030B000D040CB55DF4F1882C55AD040CB55DF4F9B
:1030C000A881B981C55AD0400A2B1B2B21FB992717
:1030D00090F9990F990FC855DF4F9883C85AD0407F
:1030E000C955DF4F1882C75AD040C955DF4FA88154
:1030F000B981C75AD0400A2B1B2B22FB222720F96B
:10310000220F220F220FC655DF4F2883CA5AD04004
:10311000C755DF4F1882C95AD040C755DF4FA88125
:10312000B981C95AD0400A2B1B2B81FB992790F9F2
:103130009295990F907EC455DF4F9883CC5AD0401A
:10314000C555DF4F1882CB5AD040C555DF4FA881F7
:10315000B981CB5AD0400A2B1B2B82FB882780F9E0
:103160008295880F880F807CC255DF4F8883CE5AA6
:10317000D040C355DF4F1882CD5AD040C355DF4FE2
:1031800028813981CD5AD040202B312BD201129683
:103190002C93129713963C93DF01A459BF4FCD9007
:1031A000DC9011979097AD90BC90CF01865A9F4FBD
:1031B000DC012D913C914096DC018D919C91850123
:1031C00001701127780144E0EE0CFF1C4A95E1F7ED
:1031D000B60161707727660F771F8701062B172BC3
:1031E000B9017695762F6627779567957727602BB7
:1031F000712BAC0141705527542F44275295507FB5
:10320000462B572BC1FABB27B0F9C155DF4FB88306
:10321000CF5AD040C055DF4F1882C05BD040C15557
:10322000DF4F68817981CF5AD040660F771F660FD4
:10323000771F462B572BC2FA662760F9CF54DF4F12
:103240006883C15BD040CE54DF4F1882C25BD04050
:10325000CF54DF4F68817981C15BD04003E0660FB6
:10326000771F0A95E1F7462B572BA1FA772770F9BC
:10327000CD54DF4F7883C35BD040CC54DF4F1882EE
:10328000C45BD040CD54DF4F68817981C35BD040AF
:1032900095E0660F771F9A95E1F7462B572BA2FA18
:1032A000AA27A0F9CB54DF4FA883C55BD040CA54EE
:1032B000DF4F1882C65BD040CB54DF4F68817981E5
:1032C000C55BD04036E0660F771F3A95E1F7642B77
:1032D000752B21FB992790F9C854DF4F9883C85B61
:1032E000D040C954DF4F1882C75BD040C954DF4F6C
:1032F000A881B981C75BD0406A2B7B2B22FB222798
:1033000020F9220FC654DF4F2883CA5BD040C75430
:10331000DF4F1882C95BD040C754DF4FA881B98105
:10332000C95BD0406A2B7B2B81FB992790F9929542
:10333000990F907EC454DF4F9883CC5BD040C55426
:10334000DF4F1882CB5BD040C554DF4FA881B981D5
:10335000CB5BD0406A2B7B2B82FB882780F9829540
:10336000880F880F807CC254DF4F8883CE5BD040AB
:10337000C354DF4F1882CD5BD040C354DF4F8881E8
:103380009981CD5BD040682B792BD20114966C9338
:10339000149715967C93DF01A858BF4F0D911C918F
:1033A00011979097AD90BC9011971E966D917C915E
:1033B000119712964D915C9111971E962D913C910B
:1033C0007501B1E0EB22FF246701A4E0CC0CDD1C09
:1033D000AA95E1F7D801A170BB27AA0FBB1F760100
:1033E000EA2AFB2ADB01B695BA2FAA27B795A7953B
:1033F000BB27AE29BF29CA0181709927982F88273A
:10340000990F990F8A2B9B2B41FBAA27A0F9C15436
:10341000DF4FA883CF5BD040C054DF4F1882C05C21
:10342000D040C154DF4FA881B981CF5BD0408A2BF7
:103430009B2BD901A170BB27BA2FAA27B295B07FC9
:103440008A2B9B2B01FBBB27B0F9CF53DF4FB883EF
:10345000C15CD040CE53DF4F1882C25CD040CF5306
:10346000DF4FE880F980C15CD040EE0CFF1CEE0C11
:10347000FF1C8E299F2902FBAA27A0F9CD53DF4FFD
:10348000A883C35CD040CC53DF4F1882C45CD040CB
:10349000CD53DF4F08811981C35CD040B3E0000FEA
:1034A000111FBA95E1F7802B912BA1FABB27B0F938
:1034B000CB53DF4FB883C55CD040CA53DF4F18826F
:1034C000C65CD040CB53DF4F08811981C55CD0402A
:1034D00035E0000F111F3A95E1F7802B912BA2FAEE
:1034E000AA27A0F9C953DF4FA883C75CD040C853AF
:1034F000DF4F1882C85CD040C953DF4F0881198163
:10350000C75CD04056E0000F111F5A95E1F7082B19
:10351000192B61FB882780F9C653DF4F8883CA5C6B
:10352000D040C753DF4F1882C95CD040C753DF4F2C
:1035300088819981C95CD040082B192B62FB6627D2
:1035400060F9660FC453DF4F6883CC5CD040C5532D
:10355000DF4F1882CB5CD040C553DF4FA881B981C3
:10356000CB5CD0400A2B1B2B42FB442740F9440F75
:10357000440F440FC253DF4F4883CE5CD040C35347
:10358000DF4F1882CD5CD040C353DF4F88819981D3
:10359000CD5CD040082B192B21FB882780F9829520
:1035A000880F807EC053DF4F8883C05DD040C153F9
:1035B000DF4F1882CF5CD040C153DF4FA881B98163
:1035C000CF5CD0400A2B1B2B22FB222720F922950F
:1035D000220F220F207CCE52DF4F2883C25DD040C5
:1035E000CF52DF4F1882C15DD040CF52DF4F2881CC
:1035F0003981C15DD040202B312BD20116962C93FE
:10360000169717963C93DF01AC57BF4F0D911C9155
:1036100011979097AD90BC9011971E964D915C912B
:10362000119712962D913C9111971E968D919C9118
:103630007501B1E0EB22FF24670164E0CC0CDD1CD6
:103640006A95E1F7D801A170BB27AA0FBB1F7601CD
:10365000EA2AFB2ADA01B695BA2FAA27B795A795C9
:10366000BB27AE29BF29B90161707727762F66275E
:10367000770F770F6A2B7B2BDC01A170BB27BA2F4A
:10368000AA27B295B07F6A2B7B2B01FBAA27A0F952
:10369000CD52DF4FA883C35DD040CC52DF4F18829C
:1036A000C45DD040CD52DF4FE880F980C35DD0408B
:1036B000EE0CFF1CEE0CFF1C6E297F2902FBBB27C2
:1036C000B0F9CB52DF4FB883C55DD040CA52DF4F4F
:1036D0001882C65DD040CB52DF4F08811981C55D8D
:1036E000D040B3E0000F111FBA95E1F7602B712BAA
:1036F000A1FAAA27A0F9C952DF4FA883C75DD0401D
:10370000C852DF4F1882C85DD040C952DF4F0881D0
:103710001981C75DD04095E0000F111F9A95E1F720
:10372000602B712BA2FABB27B0F9C752DF4FB883C9
:10373000C95DD040C652DF4F1882CA5DD040C75223
:10374000DF4F08811981C95DD04036E0000F111F9D
:103750003A95E1F7062B172B41FB992790F9C452B4
:10376000DF4F9883CC5DD040C552DF4F1882CB5DD0
:10377000D040C552DF4FA881B981CB5DD0400A2B24
:103780001B2B42FB442740F9440FC252DF4F4883B2
:10379000CE5DD040C352DF4F1882CD5DD040C352C2
:1037A000DF4FA881B981CD5DD0400A2B1B2B21FBB7
:1037B000992790F9990F990F990FC052DF4F98836D
:1037C000C05ED040C152DF4F1882CF5DD040C152A1
:1037D000DF4FA881B981CF5DD0400A2B1B2B22FB84
:1037E000222720F9279522272795CE51DF4F2883BE
:1037F000C25ED040CF51DF4F1882C15ED040CF5162
:10380000DF4FA881B981C15ED0400A2B1B2B81FB01
:10381000992790F99295990F907ECC51DF4F98831C
:10382000C45ED040CD51DF4F1882C35ED040CD5131
:10383000DF4FA881B981C35ED0400A2B1B2B82FBCE
:10384000882780F98295880F880F807CCA51DF4FC6
:103850008883C65ED040CB51DF4F1882C55ED04012
:10386000CB51DF4F28813981C55ED040202B312BD1
:10387000D20118962C93189719963C93DF01A25900
:10388000BF4FCD90DC9011971296AD90BC90CF01B8
:1038900082589F4FDC012D913C910296DC018D9165
:1038A0009C91850101701127780144E0EE0CFF1C0A
:1038B0004A95E1F7B60161707727660F771F870198
:1038C000062B172BB9017695762F66277795679586
:1038D0007727602B712BAC0141705527542F44275B
:1038E000550F550F462B572BC1FABB27B0F9C951BD
:1038F000DF4FB883C75ED040C851DF4F1882C85E23
:10390000D040C951DF4F68817981C75ED040660FD2
:10391000771F660F771F462B572BC2FA662760F971
:10392000C751DF4F6883C95ED040C651DF4F188250
:10393000CA5ED040C751DF4F68817981C95ED040EF
:1039400003E0660F771F0A95E1F7462B572BA1FA84
:10395000772770F9C551DF4F7883CB5ED040C451D3
:10396000DF4F1882CC5ED040C551DF4F688179812E
:10397000CB5ED04095E0660F771F9A95E1F7462B16
:10398000572BA2FAAA27A0F9C351DF4FA883CD5E17
:10399000D040C251DF4F1882CE5ED040C351DF4FBE
:1039A00068817981CD5ED04036E0660F771F3A9509
:1039B000E1F7642B752B21FB992790F9C051DF4F5C
:1039C0009883C05FD040C151DF4F1882CF5ED04096
:1039D000C151DF4FA881B981CF5ED0406A2B7B2BCC
:1039E00022FB222720F9220FCE50DF4F2883C25F0F
:1039F000D040CF50DF4F1882C15FD040CF50DF4F53
:103A0000A881B981C15FD0406A2B7B2B81FB9927AC
:103A100090F9990F990F990FCC50DF4F9883C45F9D
:103A2000D040CD50DF4F1882C35FD040CD50DF4F24
:103A3000A881B981C35FD0406A2B7B2B82FB88278A
:103A400080F98295807FCA50DF4F8883C65FD0405F
:103A5000CB50DF4F1882C55FD040CB50DF4F8881FD
:103A60009981C55FD040682B792BD2011A966C934F
:103A70001A971B967C93DF01A658BF4F0D911C919E
:103A800011971296AD90BC9011971E964D915C9136
:103A9000119712962D913C91119712968D919C91B0
:103AA0007501B1E0EB22FF24670164E0CC0CDD1C62
:103AB0006A95E1F7D801A170BB27AA0FBB1F760159
:103AC000EA2AFB2ADA01B695BA2FAA27B795A79555
:103AD000BB27AE29BF29B90161707727762F6627EA
:103AE000770F770F6A2B7B2BDC01A170BB27BA2FD6
:103AF000AA27B295BB0FB07E6A2B7B2B81FBAA272E
:103B0000A0F9C950DF4FA883C75FD040C850DF4F2E
:103B10001882C85FD040C950DF4FA881B981C75F04
:103B2000D0406A2B7B2B01FBBB27B0F9C750DF4F7E
:103B3000B883C95FD040C650DF4F1882CA5FD040FB
:103B4000C750DF4FE880F980C95FD040EE0CFF1C02
:103B5000EE0CFF1C6E297F2902FBAA27A0F9C55095
:103B6000DF4FA883CB5FD040C450DF4F1882CC5FBB
:103B7000D040C550DF4F08811981CB5FD040B3E002
:103B8000000F111FBA95E1F7602B712BA1FABB272B
:103B9000B0F9C350DF4FB883CD5FD040C250DF4F84
:103BA0001882CE5FD040C350DF4F08811981CD5FAE
:103BB000D04095E0000F111F9A95E1F7602B712B13
:103BC000A2FAAA27A0F9C150DF4FA883CF5FD04047
:103BD000C050DF4F1882C050D140C150DF4F088124
:103BE0001981CF5FD04036E0000F111F3A95E1F701
:103BF000602B712B41FB992790F9CE5FDE4F9883A4
:103C0000C250D140CF5FDE4F1882C150D140CF5F4C
:103C1000DE4FA881B981C150D1406A2B7B2B42FB7A
:103C2000442740F9440FCC5FDE4F4883C450D14055
:103C3000CD5FDE4F1882C350D140CD5FDE4FA881EB
:103C4000B981C350D1406A2B7B2B21FB992790F976
:103C5000990F990F990FCA5FDE4F9883C650D140D4
:103C6000CB5FDE4F1882C550D140CB5FDE4FA881BD
:103C7000B981C550D1406A2B7B2B22FB222720F92A
:103C80002295207FC85FDE4F2883C850D140C95F8E
:103C9000DE4F1882C750D140C95FDE4FA881B9817D
:103CA000C750D1406A2B7B2B82FB882780F98295F5
:103CB000880F880F807CC65FDE4F8883CA50D14052
:103CC000C75FDE4F1882C950D140C75FDE4F888181
:103CD0009981C950D140682B792BD2011C966C93E5
:103CE0001C971D967C93DF01AA57BF4F6D917C9165
:103CF000E857FF4F40815181CA0181709927FC012B
:103D000054E0EE0FFF1F5A95E1F79B012170332716
:103D1000C901880F991F8E2B9F2B61FBBB27B0F920
:103D2000C55FDE4FB883CB50D140C45FDE4F1882F1
:103D3000CC50D140C55FDE4F28813981CB50D14076
:103D4000220F331F220F331F822B932B62FBEE2790
:103D5000E0F9C35FDE4FE883CD50D140C25FDE4F54
:103D60001882CE50D140C35FDE4F28813981CD50BB
:103D7000D140F3E0220F331FFA95E1F7822B932B0A
:103D800041FBFF27F0F9C15FDE4FF883CF50D140F0
:103D9000C05FDE4F1882C051D140C15FDE4F288125
:103DA0003981CF50D140A5E0220F331FAA95E1F70A
:103DB000822B932B42FB222720F9CF5EDE4F2883F4
:103DC000C151D140CE5EDE4F1882C251D140CF5E8C
:103DD000DE4F28813981C151D140B6E0220F331F17
:103DE000BA95E1F7822B932BD2011E968C931E97E6
:103DF0001F961C92CC5EDE4F0FB6F894DEBF0FBE4E
:103E0000CDBFDF91CF911F910F91FF90EF90DF9089
:103E1000CF90BF90AF909F908F907F906F905F906A
:103E20004F903F902F900895AF92BF92DF92EF9204
:103E3000FF920F931F93CF93DF931F92CDB7DEB7FF
:103E40005C01D62E790149830E947E246D2D660F78
:103E5000C5010E941524C5010E947F234981642F5A
:103E6000C5010E941524C5010E947F230E0D1F1D50
:103E7000E016F10651F0F70161917F01C5010E9442
:103E80001524C5010E947F23F3CFC5010F90DF9158
:103E9000CF911F910F91FF90EF90DF90BF90AF9067
:103EA0000C94F8220F931F93CF93DF9300D0CDB7DC
:103EB000DEB78C012A8349830E94C7244981642F7D
:103EC000C8010E9467242A81622FC8010E946724CA
:103ED000C8010F900F90DF91CF911F910F910C941B
:103EE000F822CF93DF93EC01E62FF0E0EE0FFF1FF7
:103EF000E15DFE4F80818883918199836A839B83F2
:103F00008C838B8160E00E945F208C8161E00E9445
:103F10005F208C8160E0DF91CF910C94D50F2091D0
:103F2000F2043091F3042817390771F49091F104E9
:103F30008091F004981741F0E091F104F0E0E75E21
:103F4000FA4F808190E008958FEF9FEF08950895D4
:103F50001F93CF93DF93DC015C962D913C915D978D
:103F60002115310539F481E090E013969C938E93EE
:103F700012973DC05196ED91FC91529750969C91AD
:103F80005097892F80951FB75E964C915E9741FBA5
:103F9000772770F941FD6095F8944081772311F0FF
:103FA000492B01C048234083E9012197F1F748E0FC
:103FB000508160FF02C0592B01C058235083E90192
:103FC0002197F1F76695415099F7772321F0908179
:103FD0008923808303C08081982B90831FBF5C96C8
:103FE0008D919C915D970197F1F721E030E0C90137
:103FF000DF91CF911F9108952091F2043091F30445
:104000002817390771F48091F0042091F10490E0B1
:10401000805C9F4F821B910960E470E00E94B83A77
:10402000089580E090E008952091F2043091F30427
:1040300028173907B9F49091F1048091F00498178A
:1040400089F0E091F104F0E0E75EFA4F8081209181
:10405000F10430E02F5F3F4F2F7333272093F1049B
:1040600090E008958FEF9FEF08950895833081F0D9
:1040700028F4813099F08230A1F008958730A9F0BA
:104080008830B9F08430D1F4809180008F7D03C0F6
:10409000809180008F7780938000089584B58F771A
:1040A00002C084B58F7D84BD08958091B0008F7764
:1040B00003C08091B0008F7D8093B0000895CF93AE
:1040C000DF9390E0FC01EA50FF4F2491FC01EE5198
:1040D000FF4F8491882361F190E0880F991FFC01C4
:1040E000E253FF4FC591D491FC01EC53FF4FA591D2
:1040F000B491611109C09FB7F894888120958223FB
:104100008883EC912E230BC0623061F49FB7F89442
:104110003881822F809583238883EC912E2B2C93DA
:104120009FBF06C08FB7F894E8812E2B28838FBFDE
:10413000DF91CF9108951F93CF93DF93182FEB0159
:1041400061E00E945F20209711F460E004C0CF3F3F
:10415000D10539F461E0812FDF91CF911F910C944B
:10416000D50FE12FF0E0E055FF4FE491E330F9F097
:1041700048F4E130B9F0E230A1F584B5806284BD45
:10418000C8BD34C0E730E9F0E83019F1E43049F552
:1041900080918000806280938000D0938B00C093D8
:1041A0008A0024C084B5806884BDC7BD1FC08091CB
:1041B0008000806880938000D0938900C09388003D
:1041C00015C08091B00080688093B000C093B300A8
:1041D0000DC08091B00080628093B000C093B400A5
:1041E00005C0C038D1050CF0B5CFAFCFDF91CF916E
:1041F0001F9108958E3008F08E50877080648093F0
:104200007C0080917A00806480937A0080917A00AB
:1042100086FDFCCF809178002091790090E0922B70
:1042200008953FB7F89480915E0590915F05A09145
:104230006005B091610526B5A89B05C02F3F19F018
:104240000196A11DB11D3FBFBA2FA92F982F882716
:10425000820F911DA11DB11DBC01CD0142E0660F71
:10426000771F881F991F4A95D1F708958F929F92C3
:10427000AF92BF92CF92DF92EF92FF926B017C01DF
:104280000E9411214B015C01C114D104E104F1042D
:10429000F1F00E941121DC01CB0188199909AA09CA
:1042A000BB09883E9340A105B10570F321E0C21A15
:1042B000D108E108F10888EE880E83E0981EA11C61
:1042C000B11CC114D104E104F10419F7DDCFFF9052
:1042D000EF90DF90CF90BF90AF909F908F90089518
:1042E0002FB7F89460915A0570915B0580915C0539
:1042F00090915D052FBF08951F920F920FB60F92F8
:1043000011242F933F938F939F93AF93BF938091EB
:104310005A0590915B05A0915C05B0915D053091C7
:10432000590523E0230F2D3720F40196A11DB11D5F
:1043300005C026E8230F0296A11DB11D2093590543
:1043400080935A0590935B05A0935C05B0935D053F
:1043500080915E0590915F05A0916005B091610527
:104360000196A11DB11D80935E0590935F05A093FA
:104370006005B0936105BF91AF919F918F913F917F
:104380002F910F900FBE0F901F9018951F920F92B4
:104390000FB60F9211242F933F934F935F936F9318
:1043A0007F938F939F93AF93BF93EF93FF93E0918E
:1043B000F204F091F304309709F451C0968DA6856C
:1043C000B785858591FF04C09C91892329F447C056
:1043D0009C91892309F043C0A389B4899C91858964
:1043E000809589238C93868997890197F1F7608D51
:1043F000718DA685B785558538E020E0CB01019702
:10440000F1F7822F90E095958795282F4C914523C1
:1044100009F02068315091F7868D81FD20958091BB
:10442000F00490E001968F7399273091F1043817CA
:1044300049F0A091F004B0E0A75EBA4F2C938093AE
:10444000F00403C0868D8160868F828D938D0197E5
:10445000F1F7A389B4899C918589892B8C93FF916D
:10446000EF91BF91AF919F918F917F916F915F91EC
:104470004F913F912F910F900FBE0F901F90189565
:10448000E091F204F091F304E817F90769F4A389C5
:10449000B4899C918589809589238C931092F3042B
:1044A0001092F20481E0089580E008951F920F9227
:1044B0000FB60F9211242F933F938F939F93EF93F7
:1044C000FF938091180587FF05C010928500109218
:1044D000840005C08091180587FD809118058091A2
:1044E00018058F5F809318058091180587FF20C0FD
:1044F000809118058C30E4F420918400309185007F
:1045000080911805082E000C990BFC01EE0FFF1F7F
:104510008E0F9F1FFC01EC50FB4F81819281820F17
:10452000931F90938900809388008091180517C08D
:104530008091840090918500049680349C4918F401
:1045400080E49CE905C080918400909185000496E8
:1045500090938900809388008FEF80931805FF91D6
:10456000EF919F918F913F912F910F900FBE0F90E0
:104570001F901895AF92BF92CF92DF92EF92FF9269
:104580000F931F93CF93DF935C010AE010E0C12CDF
:10459000D12C7601C0E0D0E060E0F50183810E947B
:1045A0005F20F50183810E94FA20C817D90708F41B
:1045B000EC01C80ED91EE11CF11C0150110961F774
:1045C000D701C6018C1B9D0BA109B10923E0B6954B
:1045D000A795979587952A95D1F7DF91CF911F9150
:1045E0000F91FF90EF90DF90CF90BF90AF90089524
:1045F000CF93DF93EC0161E08B810E945F208D817E
:104600008130C1F487E592E00197F1F700C0000026
:1046100060E08C810E94D50F60E08B810E94D50FF5
:1046200061E08C810E94D50F61E08B81DF91CF9199
:104630000C94D50F60E08C810E94D50F9AE19A9579
:10464000F1F700C060E08B810E94D50F8AE18A9566
:10465000F1F700C061E08C810E94D50F9AE19A9534
:10466000F1F700C061E08B810E94D50F8AE18A9545
:10467000F1F700C0DF91CF9108951F93CF93DF939F
:10468000EC01162F61E08B810E945F208D818130CB
:10469000B9F487E592E00197F1F700C0000011112D
:1046A00002C060E001C061E08B810E94D50F61E033
:1046B0008C810E94D50F60E08C810E94D50F18C0BC
:1046C000111102C060E001C061E08B810E94D50F32
:1046D00061E08C810E94D50F9AE19A95F1F700C0B4
:1046E00060E08C810E94D50F8AE18A95F1F700C0C5
:1046F00061E08B81DF91CF911F910C94D50F1F93B7
:10470000CF93DF93EC0160E08B810E945F208D816D
:104710008130D1F487E592E00197F1F700C0000005
:1047200061E08B810E94D50F61E08C810E94D50FE2
:104730008B810E94AC0F11E0892B09F410E060E03E
:104740008C810E94D50F1FC061E08B810E94D50F24
:104750009AE19A95F1F700C061E08C810E94D50F33
:104760008AE18A95F1F700C08B810E94AC0F11E0BD
:10477000892B09F410E060E08C810E94D50F9AE14A
:104780009A95F1F700C0812FDF91CF911F91089585
:104790000F931F93CF93DF938C0160E0FC01838123
:1047A0000E945F20F80185818130E1F487E592E085
:1047B0000197F1F700C00000D8E061E0F8018481C2
:1047C0000E94D50FCC0FF80183810E94AC0F892B7A
:1047D00009F0C16060E0F80184810E94D50FD150DA
:1047E00061F71DC0D8E061E0F80184810E94D50F17
:1047F000CC0FF80183810E94AC0F892B09F0C160B6
:10480000FAE1FA95F1F700C060E0F80184810E94B6
:10481000D50FFAE1FA95F1F700C0D15021F78C2FAE
:10482000DF91CF911F910F9108950F931F93CF9315
:10483000DF93EC01162F61E08C810E945F2061E024
:104840008B810E945F208D818130D9F487E592E0D1
:104850000197F1F700C0000008E017FF02C061E017
:1048600001C060E08B810E94D50F110F61E08C8147
:104870000E94D50F60E08C810E94D50F015069F72E
:1048800020C008E017FF02C061E001C060E08B813A
:104890000E94D50F9AE19A95F1F700C0110F61E0DF
:1048A0008C810E94D50F8AE18A95F1F700C060E003
:1048B0008C810E94D50F9AE19A95F1F700C00150C2
:1048C00009F780E0DF91CF911F910F910895CF9369
:1048D000DF93EC018FE193E00197F1F700C0000056
:1048E000CE010E94152487EC90E00197F1F700C0FB
:1048F0000000CE01DF91CF910C947F23CF93DF9303
:10490000EC0161E08C810E945F2061E08B810E945C
:104910005F208D818130C1F487E592E00197F1F746
:1049200000C0000061E08B810E94D50F61E08C81A6
:104930000E94D50F60E08B810E94D50F60E08C81D2
:10494000DF91CF910C94D50F61E08B810E94D50F40
:104950009AE19A95F1F700C061E08C810E94D50F31
:104960008AE18A95F1F700C060E08B810E94D50F43
:104970009AE19A95F1F700C060E08C810E94D50F12
:104980008AE18A95F1F700C0DF91CF9108950F93E6
:104990001F93CF93DF931F92CDB7DEB78C0169834E
:1049A0000E947E246981660FC8010E94152480EA56
:1049B0008A95F1F7C8010F90DF91CF911F910F9168
:1049C0000C947F23DF92EF92FF920F931F93CF936C
:1049D000DF9300D000D0CDB7DEB78C0161E70E9435
:1049E000C72460EBC8010E946724C8010E94F82216
:1049F0006AE070E080E090E00E943621C8010E94E9
:104A00007E2463EEC8010E941524C8010E947F2302
:104A1000CE0101967C0133E0D32ED80EC801DE14FE
:104A200051F00E94C823F70181937F0160E0C80123
:104A30000E943D23F3CF0E94C8238C8361E0C8010C
:104A40000E943D23C8010E94F82289818A3A71F4AC
:104A50008C818B3B59F48A8190E0982F88272B8199
:104A6000820F911DF8019783868303C0F801178296
:104A70001682F801868197810F900F900F900F900A
:104A8000DF91CF911F910F91FF90EF90DF900895EC
:104A9000FC01A62FB0E0AA0FBB1FA15DBE4F8C91F9
:104AA000808311969C919183628393838483158282
:104AB00008950F931F93CF938C01C62F0E94482512
:104AC000EC2FF0E0EE0FFF1FE15DFE4F8081F8015B
:104AD00086831582CF911F910F910895CF93DF9315
:104AE000EC01E62FF0E0EE0FFF1FE15DFE4F80814D
:104AF0008883918199836A838B839C8361E00E9480
:104B00005F2061E08C81DF91CF910C945F200F9347
:104B10001F93CF93DF93EC01E62FF0E0EE0FFF1F22
:104B2000E15DFE4F00810F8F118118A369A31B82E5
:104B30001A8288EE93E0A0E0B0E08C839D83AE8380
:104B4000BF838FE091E0998388831F8A1E8A198E24
:104B5000188E1B8E1A8E1D8E1C8E6E8D6E7F6D7F35
:104B60006E8F6695617081E06827812F0E94D50F56
:104B700061E0812F0E945F20212F30E0F901EA508F
:104B8000FF4FE491E88BF901EE51FF4FE491F0E023
:104B9000EE0FFF1FEC53FF4F859194919A8B898BF9
:104BA00060E0802F0E945F208E8D81FD04C061E057
:104BB000802F0E94D50F0C87202F30E0F901EA509A
:104BC000FF4FE491ED87F901EE51FF4FE491F0E0E2
:104BD000EE0FFF1FE852FF4F859194919F878E87BC
:104BE00081E291E09983888383E08AA31B8E1A8EE9
:104BF000198E188E1F8A1E8A85E690E09D8F8C8FF5
:104C0000063108F04DC081E290E09F8B8E8B83E6E9
:104C100090E0998F888F82E490E09B8F8A8F9091AB
:104C20006800083050F021E00E3008F420E081E008
:104C300001C0880F2A95EAF701C084E0892B809390
:104C400068009C85983038F09E3040F0963148F0EE
:104C500020E030E008C02DE630E005C02BE630E073
:104C600002C02CE630E03C8B2B8B983030F481E096
:104C700001C0880F9A95EAF70EC0292F30E09E30C8
:104C800018F42850310902C02E50310981E001C0CA
:104C9000880F2A95EAF78D8B8C8D9D8D0197F1F702
:104CA0008A8D9B8D892BE1F08091F2049091F30421
:104CB0008C179D07A9F0009711F00E9440228E8D5D
:104CC0008E7F8E8F1092F0041092F104D093F30433
:104CD000C093F204EB89FC8990818D89892B8083B4
:104CE000DF91CF911F910F9108950F931F93CF9351
:104CF000DF93EC018B810E94AC0F8C018C810E94B0
:104D0000AC0FAC0121E030E0012B11F420E030E0E9
:104D1000220F331F81E0452B09F480E0822BDF91C5
:104D2000CF911F910F910895CF93DF93EC01E62F60
:104D3000F0E0EE0FFF1FE15DFE4F908198838181CF
:104D400089836A839B838C838B8160E00E945F20D0
:104D50008C8160E0DF91CF910C945F208F929F92C5
:104D6000AF92BF92CF92DF92EF92FF920F931F9379
:104D7000CF93DF935C010AE010E0C12CD12C7601C7
:104D8000C0E0D0E0812C34E0932E60E0F501838117
:104D90000E945F20F50183810E94FA209401281B64
:104DA000390BC901C217D30708F4E901C80ED91E8F
:104DB000E11CF11C0150110941F7D701C6018C1B00
:104DC0009D0BA109B10923E0B695A7959795879505
:104DD0002A95D1F7DF91CF911F910F91FF90EF901E
:104DE000DF90CF90BF90AF909F908F900895CF931A
:104DF000DF93EC010E94482581E08D83CE010E9463
:104E00007E2467EECE010E94672460E8CE010E94F6
:104E1000672464EACE010E9467246AE9CE010E94F9
:104E2000672461E8CE010E94672463E8CE010E94F6
:104E30006724CE01DF91CF910C94F822CF92DF92BC
:104E4000EF92FF920F931F93CF93DF93EC01E62E27
:104E50008A01F22E0E947E246E0182E4C80ED11CCB
:104E6000F6018081682F660FCE010E941524CE01C5
:104E70000E947F236E2DCE010E941524CE010E9438
:104E80007F23CE010E94F822F0E5FA95F1F7CE01DA
:104E90000E947E24F6016081660F6160CE010E944F
:104EA0001524CE010E947F23FA94EF2C6801EE2096
:104EB00061F0CE010E94C823F60181936F0160E08A
:104EC000CE010E943D23EA94F2CF0F0D111DCE01B9
:104ED0000E94C823F801808361E0CE010E943D2337
:104EE000CE01DF91CF911F910F91FF90EF90DF9056
:104EF000CF900C94F8220F931F93CF93DF93EC0184
:104F00000E947E2462E5CE010E941524CE010E94FB
:104F10007F2362E9CE010E941524CE010E947F23E7
:104F2000CE010E947E2463E5CE010E941524CE01AD
:104F30000E947F23CE010E94C823182F61E0CE017A
:104F40000E943D23CE010E94F822143411F010314A
:104F500061F581E08E8319850A85412F61E0CE01DC
:104F60000E94022919870A871F8108858E81811175
:104F700003C0CE010E947B27412F6FE0CE010E942B
:104F800002291F83088741E060E0CE010E940229C8
:104F900063E070E080E090E00E94362143E060E052
:104FA000CE010E94022981E001C080E0DF91CF9113
:104FB0001F910F910895BF92CF92DF92EF92FF92CF
:104FC0000F931F93CF93DF933AE0B32EC12CD12CD4
:104FD0007601CFEFD3E000E010E084E10E94FA20F8
:104FE0000817190708F48C018C179D0708F4EC01C9
:104FF000C80ED91EE11CF11CBA94B110EECFD70136
:10500000C601801B910BA109B1098C1B9D0BA10945
:10501000B10923E0B695A795979587952A95D1F77D
:10502000863D23E09207A105B10508F06AC0833AE6
:1050300023E09207A105B10508F066C0853823E09A
:105040009207A105B10508F062C08C3623E09207F3
:10505000A105B10508F05EC0813223E09207A105E9
:10506000B10508F05AC08F3F22E09207A105B105B3
:1050700008F056C0813D22E09207A105B10508F075
:1050800052C08F3922E09207A105B10508F04EC049
:105090008D3622E09207A105B10508F056C08F3485
:1050A00022E09207A105B10508F043C0833122E058
:1050B0009207A105B10508F03FC08B3E21E09207A1
:1050C000A105B105E0F5873A21E09207A105B105F8
:1050D000E0F58C3721E09207A105B10598F5823300
:1050E00021E09207A105B10580F58F3021E09207FC
:1050F000A105B10568F5803D9105A105B10558F5FB
:1051000024C080E090E029C08CE090E026C08AE0D6
:1051100090E023C085E090E020C089E090E01DC0D1
:105120008BE090E01AC08DE090E017C082E090E044
:1051300014C08EE090E011C088E090E00EC083E0E3
:1051400090E00BC087E090E008C08FEF90E005C0D2
:1051500086E090E002C084E090E0DF91CF911F9163
:105160000F91FF90EF90DF90CF90BF9008959091B6
:10517000C00095FFFCCF8093C60008950F931F9346
:10518000CF93C82F05EB15E0CC2339F0F8018191BE
:105190008F010E94B728C150F7CFCF911F910F9177
:1051A00008958230D1F018F4813089F00895833069
:1051B00021F0843031F560E00BC060E087E00E94B0
:1051C000D50F60E08DE00E94D50F61E00FC061E077
:1051D00087E00E94D50F60E005C061E087E00E9493
:1051E000D50F61E08DE00E94D50F60E08CE00E9459
:1051F000D50F69E170E080E090E00E9436210C94C8
:10520000DB2708950F931F93CF93DF93EC01162FA5
:10521000042F0E947E2462E5CE010E941524CE0157
:105220000E947F23612F6068CE010E941524CE0169
:105230000E947F23602FCE010E941524CE010E9480
:105240007F23CE010E94F822802FDF91CF911F9102
:105250000F9108954F925F926F927F929F92AF92BB
:10526000BF92CF92DF92EF92FF920F931F93CF9353
:10527000DF93CDB7DEB728970FB6F894DEBF0FBE29
:10528000CDBF7C01CE0101966C015E0199E0A90EB3
:10529000B11C992493940E947021F7014084518499
:1052A00062847384DC01CB0184199509A609B709CE
:1052B0004197A105B10508F09782F70187818823FE
:1052C00009F466C00E947021F701608771878287A8
:1052D0009387178260E4C7010E94C72462EAC7016E
:1052E0000E94672462EAC7010E94672462EAC7013C
:1052F0000E94672461E0C7010E946724C7010E94E1
:10530000F822F701868160E00E945F20F701268184
:1053100030E0F901EA50FF4F6491F901EE51FF4F7F
:10532000E491F0E0EE0FFF1FE852FF4F859194915A
:1053300000E712E620E030E040E00E94EE2C61152C
:1053400071058105910551F02B013C01FFEF4F1ACA
:105350005F0A6F0A7F0A2FE0722203C0412C512C92
:1053600032018CE2481681E058066104710430F085
:105370009CE2491A91E0590A61087108C301B2011F
:105380000E94B238F701648775878687978709C0BE
:10539000F70164857585868597850E947A382B018B
:1053A0003C01411451046104710431F484EA482E33
:1053B00088E3582E612C712CC301B2010E94B238CF
:1053C00020E030E048E652E40E940838F60161939C
:1053D0007193819391936F016CE170E080E090E0B4
:1053E0000E943621CA14DB0409F055CFC980DA8047
:1053F000EB80FC807D809E80AF80B884272D392D86
:10540000A501B601C7010E94E13987FF03C0C72C7F
:10541000D92C7501B601C70128960FB6F894DEBFE6
:105420000FBECDBFDF91CF911F910F91FF90EF90F5
:10543000DF90CF90BF90AF909F907F906F905F90E4
:105440004F9008950F931F93CF93DF93EC0120E0CB
:105450004DEF67E70E94521F00E110E024E835E0BD
:1054600040E067E7CE010E94141F20E04DEF64E7A3
:10547000CE010E94521F24EA35E040E064E7CE01ED
:105480000E94141F21E04DEF67E7CE010E94521FDA
:1054900024E735E040E067E7CE010E94141F21E0D9
:1054A0004DEF64E7CE010E94521F24E935E040E051
:1054B00064E7CE010E94141FDF91CF911F910F91DD
:1054C00008954F925F926F927F928F929F92AF92C8
:1054D000BF92CF92DF92EF92FF920F931F93CF93E1
:1054E000DF934A015B019C0140E050E060E472E41C
:1054F0008FE090E00E94C13669017A0161E08091FD
:1055000073050E945F20A8EEB3E0A50194010E94FC
:10551000E0362B013C01E601D7FC2196D595C795D5
:105520008E01000F111F000F111F055011090D2CC6
:10553000000CEE08FF08812C912C54018414950472
:10554000A604B704E0F461E0809173050E94D50FD2
:10555000C230D10518F0C8010197F1F760E08091E1
:1055600073050E94D50FC230D10518F0C80101970C
:10557000F1F7A8958C0C9D1CAE1CBF1CDFCFDF91F2
:10558000CF911F910F91FF90EF90DF90CF90BF9040
:10559000AF909F908F907F906F905F904F90089505
:1055A000CF93DF9300D000D0CDB7DEB76C392FEFAB
:1055B0007207820792070CF448C09B01AC01653664
:1055C00071058105910524F024E630E040E050E0CB
:1055D00057FD3FC0AFEFB0E00E94E03624E630E078
:1055E00040E050E00E94C1362115310541055105CA
:1055F00069F460E089E029833A834B835C830E94ED
:105600005F2029813A814B815C810CC061E089E097
:1056100029833A834B835C830E945F205C814B81AA
:105620003A81298160E08AE029833A834B835C8355
:105630000E945F2029813A8130938900209388005D
:1056400010928B0010928A002EC02CE93FEF4FEF92
:105650005FEFA1E0BFEF0E94EE3624E630E040E0CD
:1056600050E00E94C13661E08AE029833A834B838F
:105670005C830E945F2060E089E00E945F202981B6
:105680003A814B815C8130938B0020938A00109289
:1056900089001092880020936B0530936C0540932D
:1056A0006D0550936E050F900F900F900F90DF9146
:1056B000CF910895EF92FF920F931F93CF93DF93B3
:1056C00000D000D0CDB7DEB76C392FEF720782075C
:1056D00092070CF459C09B01AC0165367105810538
:1056E000910524F024E630E040E050E057FD50C042
:1056F000AFEFB0E00E94E03624E630E040E050E05A
:105700000E94C136F22EE32E8A0121153105410592
:10571000510569F460E086E029833A834B835C831A
:105720000E945F2029813A814B815C810CC061E03D
:1057300086E029833A834B835C830E945F205C81EF
:105740004B813A81298160E085E029833A834B834C
:105750005C830E945F2029813A81B90186E00E9422
:105760009B20F0926F05E0927005009371051093F5
:1057700072050F900F900F900F90DF91CF911F91B6
:105780000F91FF90EF9008952CE93FEF4FEF5FEFFF
:10579000A1E0BFEF0E94EE3624E630E040E050E0AA
:1057A0000E94C136F22EE32E8A0161E085E00E945C
:1057B0005F2060E086E00E945F206F2D7E2D85E0F7
:1057C000CECFCF93DF9300D000D0CDB7DEB7298303
:1057D0003A834B835C830E945A2B29813A814B8107
:1057E0005C81CA01B9010F900F900F900F90DF916B
:1057F000CF910C94D02AA0916205B09163052091BD
:1058000066058091670590916805AC01440F551FAE
:10581000840F951F7091690560916A055FB7F894D0
:105820004C91322F30953423242BE72FF62F8E0FF7
:105830009F1FE817F90781F0419168E02C9300C0A1
:1058400047FF3C93440F00C000C000C008F43C93E5
:1058500000C06A9599F7EDCF5FBF789461E070E082
:1058600080E090E00C943621A82FB0E0E09167052D
:10587000F0916805AE17BF07E0F4982F990F890FD4
:1058800090E0E0916905F0916A05E80FF91F408307
:10589000E0916905F0916A05E80FF91F6183409175
:1058A000690550916A05FA01E80FF91F228381E02A
:1058B000089580E00895FF920F931F93CF93DF9395
:1058C000162F042FF22E811113C0C0E0D0E080917A
:1058D000670590916805C817D90740F42F2D402F10
:1058E000612F8C2F0E94342C2196F1CF81E004C0CF
:1058F00081500E94342C80E0DF91CF911F910F9155
:10590000FF9008951F920F920FB60F9211242F93BC
:105910003F934F935F938F939F93EF93FF93909158
:10592000C60080917F0681110EC0923509F046C0F5
:10593000E0917E0658ECE59FF0011124EA53FD4FFB
:10594000908381E00EC0813091F4923469F4E0914B
:105950007E0688ECE89FF0011124EA53FD4F918305
:1059600082E080937F062AC010927F0627C0409174
:105970007E0658EC459F90011124F901E80FF11DB6
:10598000EA53FD4F90838F5F80937F06F901EA53BE
:10599000FD4F9281891710F4883C80F010927F06A9
:1059A00080915604442321F010927E06826004C048
:1059B00091E090937E06816080935604FF91EF9171
:1059C0009F918F915F914F913F912F910F900FBEBB
:1059D0000F901F90189580E090E00895CF92DF928D
:1059E000EF92FF920F931F93E82FF92F05C00150FC
:1059F00011092109310961F1908196239417B9F3B6
:105A000005C0015011092109310911F19081962336
:105A10009413F7CFC12CD12CE12CF12C0AC08FEFBD
:105A2000C81AD80AE80AF80A0C151D052E053F0504
:105A300079F080818623841791F36C2D7D2D8E2D36
:105A40009F2D1F910F91FF90EF90DF90CF900895C1
:105A500060E070E080E090E01F910F91FF90EF9088
:105A6000DF90CF900895CF93DF9300D01F92CDB7F2
:105A7000DEB7789484B5826084BD84B5816084BDCE
:105A800085B5826085BD85B5816085BD80916E00DC
:105A9000816080936E00109281008091810082600D
:105AA000809381008091810081608093810080914A
:105AB00080008160809380008091B1008460809339
:105AC000B1008091B00081608093B00080917A0035
:105AD000846080937A0080917A00826080937A005B
