:100000000C94AD000C94D5000C94D5000C947C2578
:100010000C947C250C947C250C94D5000C94D50074
:100020000C94D5000C94D5000C94D5000C940C269F
:100030000C94D5000C94D5000C94D5000C94D500EC
:100040000C94832B0C94D5000C94EC2A0C94D500C2
:100050000C94D5000C94D5000C94D5000C94D500CC
:100060000C94D5000C94D50003012D01F1076C010F
:100070009201F107F107F107F107F107F107F10725
:10008000F107F107F107D101FC013A02CC02F302BA
:10009000AF029902F107B703C6033104B0048F051C
:1000A000F107DF0686064507CB2ED72EE32E292F34
:1000B000F12EFF2E0D2F1B2F372F432F622F702F66
:1000C0007E2F1B30B42F1B30A62F8E2FC22FD22F86
:1000D000E12FEE2FFD2F0C303408B008E2081E0986
:1000E0008B09F30A680BDD0B3C0F3C0F3C0F3C0FF8
:1000F0003C0F520C2D0DC20D370EAC0E000000004F
:10010000240027002A0000000000250028002B0002
:1001100000000008000201000003040700000000C6
:100120000000000000000000230026002900040455
:10013000040404040404020202020202030303038F
:10014000030301020408102040800102040810206B
:100150000102040810209D33973311241FBECFEFF6
:10016000D8E0DEBFCDBF11E0A0E0B1E0EAEAF0E701
:1001700002C005900D92A439B107D9F726E0A4E991
:10018000B1E001C01D92A739B207E1F710E0CCEA57
:10019000D0E004C02197FE010E94D836CB3AD107A7
:1001A000C9F70E94122C0C9448380C9400008F92CE
:1001B0009F92AF92BF92CF92DF92EF92FF920F93F6
:1001C0001F93CF93DF93CDB7DEB764970FB6F89444
:1001D000DEBF0FBECDBFE82EF12C28EC829FF001D0
:1001E0001124E250FD4FE4818E2FEE0F990BAA0BE4
:1001F000BB0BFC013197E032F10508F0F2C6EC5C74
:10020000FF4F0C94D83682E58093500582E48093AA
:10021000510588E08093520588EC8E9DF0018F9DFA
:10022000F00D1124E250FD4F8381809353058AE045
:100230008093540581E08093550580935605E0E551
:10024000F5E027E535E080E09191890F2E173F0713
:10025000D9F78093570588E03CC082E5809350052C
:1002600082E4809351051092520588EC8E9DF00136
:100270008F9DF00D1124E250FD4F83818093530533
:100280008581823059F024F4813089F481E009C0FD
:10029000833031F0843059F484E003C082E001C03F
:1002A00083E00E94842380935405E5E001C0E4E0EC
:1002B00081E08E0F80935205A0E5B5E020E090E04C
:1002C0003D91930F2F5FE213FBCFF0E0E05BFA4F1D
:1002D00090830E94941F85C682E58093500582E436
:1002E0008093510588EC8E9DF0018F9DF00D1124B7
:1002F000E250FD4F83818093530581E08093540544
:100300008093550587E080935205E0E5F5E080E0B5
:100310009191890F95E0E635F907D1F7809356055D
:1003200087E0D7CF82E58093500582E48093510522
:100330001092520588EC8E9DF0018F9DF00D1124D6
:10034000E250FD4F83818093530581E00E94842316
:100350008093540582E00E9484238093550583E0B6
:100360000E9484238093560584E00E948423809316
:100370005705109258051092590510925A0510927F
:100380005B058DE080935205E0E5F5E080E091911A
:10039000890FA5E0EC35FA07D1F780935C058DE075
:1003A00098CF88EC8E9DF0018F9DF00D1124E250C6
:1003B000FD4F85818C3F99F0882341F08B3F09F0F8
:1003C000E9C500852781468161E00DC00085278150
:1003D000468160E089EB94E00E940B1F08C0008515
:1003E0002781468160E089EB94E00E94A62889EB92
:1003F00094E00E94D81ECEC588EC8E9D80018F9D12
:10040000100D112402501D4FF80185818F3F49F1D5
:10041000882369F08E3F09F0BDC5F8016681062E7C
:10042000000C770B880B990B0E94BF20B3C5278166
:10043000022E000C330B440B550B6681062E000C6C
:10044000770B880B990B0E94F021F80186818111AE
:10045000A1C5878181119EC51092C5041092C80460
:1004600099C56681062E000C770B880B990B0E94AC
:10047000852190C588EC8E9D80018F9D100D1124E3
:1004800002501D4FD80115968C910E94842302972B
:1004900009F080C58091B7049091B804009741F4A9
:1004A00080E190E00E94F2366C01F801658116C08F
:1004B000DC0112964C9150E0F8012581022E000CCF
:1004C000330B4217530789F00E948A3780E190E08E
:1004D0000E94F2366C01D80115966C91C6010E94FB
:1004E0003328D092B804C092B70488EC8E9DF001F6
:1004F0008F9DF00D1124E250FD4FD084C780B6804F
:100500000091B7041091B80460E4C8010E94022869
:1005100061EAC8010E94A2276B2DC8010E94A22790
:100520006C2DC8010E94A2276D2DC8010E94A22730
:100530001AC188EC8E9DF0018F9DF00D1124E250C0
:10054000FD4F8581893F09F025C58681882321F0EB
:1005500081E080938F041EC510928F041BC588EC28
:100560008E9DF0018F9DF00D1124E250FD4F86818C
:10057000882329F0813029F48093C90402C01092A5
:10058000C904109291041092920410929304109254
:10059000940410929004FEC488EC8E9DF0018F9D0F
:1005A000F00D1124E250FD4F85818A3F09F0F2C41D
:1005B000408550E0542F44278185482B60E070E04F
:1005C000868190E0982F88272781822B0E945020D7
:1005D00061E080914E050E94142060E080914E05FC
:1005E0000E94E51FD7C488EC8E9D80018F9D100D61
:1005F000112402501D4FF80185810E948423039726
:1006000009F0C8C48091B5049091B604009749F4EC
:1006100086E090E00E94F2366C01D80115966C914C
:1006200015C0FC01428150E0D80115962C91022E94
:10063000000C330B4217530781F00E948A3786E083
:1006400090E00E94F2366C01F8016581C6010E94BB
:100650009B2AD092B604C092B5040091B5041091C3
:10066000B60488EC8E9DF0018F9DF00D1124EC5F97
:10067000FC4F63E1808190E0982F88272181822BB5
:10068000AC014A7A5A7A5695479585759575880FC3
:10069000991F482B592B9A012C7C3C7C3695279529
:1006A0003695279543735373440F551F440F551FB9
:1006B000242B352BC901807F907FB4E096958795D8
:1006C000BA95E1F72F703F7044E0220F331F4A952F
:1006D000E1F7822B932B982789279827880F991F5A
:1006E000880F991F2FEF260FA1E0B0E0AC0FBD1FC0
:1006F000A60FB11D8C936250A1E0B0E0AC0FBD1FFE
:10070000A20FB11D9C9332966F3F09F0B3CFC80181
:100710000E94B92767EEC8010E94A22760E0C801C5
:100720000E94A227CE0101965C016E0195E1C90EDF
:10073000D11CD5019D915D01892F8C7C682F669518
:1007400066959373B4E09B9FC0011124862B682F9C
:100750006A7A66958575880F682BC8010E94A22762
:10076000CA14DB0431F7C8010E94C22613C488EC06
:100770008E9DF0018F9DF00D1124E250FD4F85817B
:100780008093C50486818093C80404C488EC8E9D40
:1007900080018F9D100D112402501D4FF80185819D
:1007A0000E948423059709F0F5C38091AB049091D2
:1007B000AC04009749F485E090E00E94F2366C01A9
:1007C000D80115966C9115C0FC01428150E0D8010A
:1007D00015962C91022E000C330B42175307B1F0E3
:1007E0000E948A3785E090E00E94F2366C01F801A1
:1007F0006581C6010E948628D092AC04C092AB04E9
:1008000083EA8093B00087E08093B10088EC8E9DEE
:10081000F0018F9DF00D1124E250FD4F8681813053
:1008200081F08230B1F08111B5C3D0840091AB0466
:100830001091AC046781C8010E9467286D2DC80122
:100840000DC067818091AB049091AC040E94672831
:10085000A1C367818091AB049091AC040E944828A9
:1008600099C388EC8E9D80018F9D100D112402503C
:100870001D4FD80115968C910E948423099709F089
:1008800089C38091AD049091AE04009771F0FC0192
:10089000428150E0D80115962C91022E000C330BAA
:1008A0004217530791F00E948A3786E090E00E9439
:1008B000F2366C01F80165810E941728D601159661
:1008C0001C92D092AE04C092AD0488EC8E9DF001D3
:1008D0008F9DF00D1124E250FD4F86818130F1F0A3
:1008E000823061F1811156C327818091AD049091CE
:1008F000AE0427FF06C0332721950CF4309541E064
:1009000001C040E061E00E94733388EC8E9DF001ED
:100910008F9DF00D1124E250FD4F10C02781809172
:10092000AD049091AE0427FF06C0332721950CF447
:10093000309541E001C040E061E00FC0208580912A
:10094000AD049091AE0427FF06C0332721950CF427
:10095000309541E001C040E062E00E9473331AC369
:1009600088EC8E9D80018F9D100D112402501D4F2B
:10097000F80185810E9484230C9709F00BC3E09154
:10098000A504F091A604D80115968C91309729F40E
:100990000E9484230C9781F513C0228130E0482FF8
:1009A000082E000C550B2417350731F10E948423C3
:1009B0000C9711F58091A5049091A6040E948A37A6
:1009C00086E090E00E94F2366C01F80165810E9499
:1009D000172881E0D60115968C93D092A604C09278
:1009E000A50467E7C6010E94573264E78091A50419
:1009F0009091A6040E94573288E4EEE6F2E0DF010F
:100A00001D928A95E9F788EC8E9D90018F9D300D9F
:100A1000112422503D4F80E090E0FC01E25BFF4F4B
:100A2000E20FF31F4081042E000C550BFC01EE0F6A
:100A3000FF1FE259FD4F5183408301968834910591
:100A400061F788E4EEEDF1E0DF011D928A95E9F7A8
:100A500080E090E0F901E80FF91F4681042E000CB8
:100A6000550BFC01EE0FFF1FE252FE4F51834083F6
:100A700001968834910571F72EEB31E04EEC51E090
:100A80006EED71E08091A5049091A6040E94540F30
:100A90002EE931E04EEA51E06EE672E08091A50465
:100AA0009091A6040E94540FC090A504D090A60473
:100AB00020E04DEF67E7C6010E94C01E00E110E094
:100AC0002EEC31E040E067E7C6010E94891E20E07D
:100AD0004DEF64E7C6010E94C01E2EEA31E040E0FF
:100AE00064E7C6010E94891E21E04DEF67E7C60159
:100AF0000E94C01E2EEB31E040E067E7C6010E9475
:100B0000891E21E04DEF64E7C6010E94C01E2EE958
:100B100031E040E064E7C6010E94891E3BC288ECD8
:100B20008E9D80018F9D100D112402501D4FF801E4
:100B300085810E9484230B9709F02CC2C090A704E2
:100B4000D090A804C114D10449F483E290E00E943B
:100B5000F2366C01D80115966C911DC0F60121A1E9
:100B600030E0D80115968C91082E000C990B2817AF
:100B70003907C1F08FE091E091838083C6010E9424
:100B8000F625C6010E948A3783E290E00E94F23681
:100B90006C01F8016581C6010E942529D092A80444
:100BA000C092A704C090A704D090A80488EC8E9DA2
:100BB000F0018F9DF00D1124E250FD4F1681D601FA
:100BC00092968C91929790E0212F012E000C330B7E
:100BD0008217930759F192961C938AEA80939401A5
:100BE00082E08093950181E08093960110939701B4
:100BF00086E581278093980124E9A22E21E0B22E78
:100C000039E9832E31E0932EF50161915F01C60130
:100C10000E94F0248A149B04B9F7D60192961C9383
:100C200062E370E080E090E00E944A2388EC8E9DB1
:100C3000F0018F9DF00D1124E250FD4F208587813A
:100C40000091A7041091A8049AEA909394018093CC
:100C5000950191E090939601209397019BEA892753
:100C6000822780958093980184E9C82E81E0D82E50
:100C700099E9A92E91E0B92EF60161916F01C801A1
:100C80000E94F024AC14BD04B9F762E370E080E088
:100C900090E00E944A238091A7049091A8040E94AA
:100CA000F6250091A7041091A8040115110559F02B
:100CB0008FE091E0D8018D939C93C8010E94F625A6
:100CC000C8010E948A371092A8041092A70488ECE9
:100CD0008E9D80018F9D100D112402501D4FD80153
:100CE0001596EC91EE0FFF0BE35EFE4F60E0808106
:100CF0000E941420D8011596EC91EE0FFF0BE35ED5
:100D0000FE4F60E081810E94142044C188EC8E9DDA
:100D100080018F9D100D112402501D4FF801858117
:100D20000E948423439709F035C1C090A304D0905A
:100D3000A404C114D10449F48CE090E00E94F2367E
:100D40006C01D80115966C911AC0F601228130E031
:100D5000D80115968C91082E000C990B281739078D
:100D6000A9F0828593850E948A37C6010E948A373E
:100D70008CE090E00E94F2366C01F8016581C601BA
:100D80000E94D928D092A404C092A30488EC8E9D1E
:100D9000F0018F9DF00D1124E250FD4F018520855B
:100DA000478166818091A3049091A4040E940B1F47
:100DB0008091A3049091A4040E94D81E12C188ECD3
:100DC0008E9D80018F9D100D112402501D4FD80162
:100DD00015968C910E948423429709F0DBC0809184
:100DE000A1049091A204009771F0FC01428150E0AF
:100DF000D80115962C91022E000C330B4217530785
:100E0000A9F00E948A3786E090E00E94F2366C01D9
:100E1000F80165810E941728D60115961C92D09280
:100E2000A204C092A104C6010E94A71F88EC8E9D57
:100E300080018F9D100D112402501D4FF801468135
:100E400061E08091A1049091A2040E94C22AD8017D
:100E500017964C9162E08091A1049091A2040E94A7
:100E6000C22AF801408563E08091A1049091A20418
:100E70000E94C22AD80119964C9164E08091A10485
:100E80009091A2040E94C22AACC088EC8E9D800181
:100E90008F9D100D112402501D4FF80185810E9475
:100EA0008423499709F076C0809195049091960427
:100EB0000097C1F485E090E00E94F2366C01D80101
:100EC00015966C910E948628D0929604C092950443
:100ED00061E0F60183810E94142061E0D60114963E
:100EE0008C9124C0FC01428150E0D80115962C91D0
:100EF000022E000C330B42175307D1F00E948A37A1
:100F000085E090E00E94F2366C01F80165810E9454
:100F10008628D0929604C092950461E0D60113967B
:100F20008C910E94142061E0F60184810E941420BB
:100F3000009195041091960488EC8E9DF0018F9D90
:100F4000F00D1124E250FD4FE680E0948781F12CF2
:100F500061E081110FC0D80113968C910E9414207A
:100F600060E0F80184810E941420B701D801139633
:100F70008C910DC0F80184810E94142060E0D8019A
:100F800013968C910E941420B701F80184810E946D
:100F9000262127C082E58093500582E48093510585
:100FA00088EC8E9DF0018F9DF00D1124E250FD4FD5
:100FB00093819093530581E08093540586E080935C
:100FC0005205E0E5F5E025E535E080E04191840F4C
:100FD0002E173F07D9F780935505992311F086E026
:100FE00078C964960FB6F894DEBF0FBECDBFDF910F
:100FF000CF911F910F91FF90EF90DF90CF90BF9016
:10100000AF909F908F90089580E090E008952F9288
:101010003F924F925F926F927F928F929F92AF9288
:10102000BF92CF92DF92EF92FF920F931F93CF93D5
:10103000DF9300D000D01F92CDB7DEB7082F10E0AD
:1010400028EC829FF0011124E250FD4FE4818E2FA5
:1010500090E0FC01E15AF109E231F10508F00CC71A
:10106000E459FF4F0C94D83628EC209FC001219FF3
:10107000900D1124AC0142505D4F7A01DA011596B2
:101080008C910E948423029709F0F6C68091B704E0
:101090009091B804009741F480E190E00E94F2360C
:1010A0006C01F701658116C0DC0112964C9150E08D
:1010B000F7012581022E000C330B4217530789F0EC
:1010C0000E948A3780E190E00E94F2366C01D701DD
:1010D00015966C91C6010E943328D092B804C09234
:1010E000B7048091B7049091B8040E94B52320E022
:1010F00030E040E251E40E944B360E945E359B0195
:1011000042E54093500542E44093510548EC409F2E
:10111000F001419FF00D1124E250FD4F43814093B7
:10112000530541E040935405AB0177FF02C04150A5
:101130005F4F50935505C90160E071E00E94C436CD
:101140008093560588E080935205E0E5F5E027E5B9
:1011500035E080E09191890F2E173F07D9F770C6CF
:1011600088EC809FF001819FF00D1124E250FD4F2B
:101170008581893F09F080C682E58093500582E42D
:10118000809351051092520583818093530511E09D
:101190001093540588E00E94BC1F019719F4109227
:1011A000550502C01093550587E080935205E0E590
:1011B000F5E026E535E080E09191890F2E173F0795
:1011C000D9F76CC328EC209FC001219F900D1124FA
:1011D0008C0102501D4FF80185818D3F09F04CC6EE
:1011E00085E10E94002222E3AC01249FC001259FDB
:1011F000900D112422E52093500522E420935105FF
:10120000D80113962C912093530521E02093540587
:101210006FEF73E00E94C436862F880F680F6093CB
:10122000550587E080935205E0E5F5E080E0919177
:10123000890FB5E0E635FB07D1F730C38091C604CE
:101240009091C7040097B1F485E090E00E94F236D7
:101250007C0188EC809FF001819FF00D1124E25009
:10126000FD4F6581C7010E94342AF092C704E092C5
:10127000C60425C0FC01428150E068EC609F9001EB
:10128000619F300D1124B90162507D4F7B01DB015C
:1012900015962C91022E000C330B4217530779F050
:1012A0000E948A3785E090E00E94F2366C01F701D7
:1012B00065810E94342AD092C704C092C60482E598
:1012C0008093500582E4809351051092520588EC7A
:1012D000809FF001819FF00D1124E250FD4F83812A
:1012E0008093530581E0809354058091C6049091CA
:1012F000C7040E94152A8093550587E08093520504
:10130000E0E5F5E026E535E080E09191890F2E17C4
:101310003F07D9F7C3C228EC209FC001219F900D41
:1013200011249C0122503D4F7901D90115968C91D1
:101330000E948423069709F09FC58091B304909181
:10134000B404009771F0FC01428150E0D70115967A
:101350002C91022E000C330B42175307D1F00E9440
:101360008A3786E090E00E94F2366C01F701F58042
:101370006F2D0E94C928EF2DF0E0EE0FFF1FE35EF6
:10138000FE4F8181D60115968C93D092B404C09201
:10139000B304E090B304F090B404FE0131961F0151
:1013A00085E0DF011D928A95E9F761E0F70185810B
:1013B0000E94142061E0D70115968C910E94E51FD0
:1013C0006AEF70E080E090E00E944A2360E0F7015D
:1013D00085810E94E51F64E170E080E090E00E945A
:1013E0004A2361E0D70115968C910E94E51F8BE995
:1013F00090E00197F1F760E0F70185810E94E51F19
:1014000083E290E00197F1F70E94772B4B015C019A
:1014100062E0D70115968C910E941420F701858116
:101420000E94BC1F019791F00E94772BDC01CB0139
:1014300088199909AA09BB090597A105B10570F397
:10144000D70113961C92139714961C920E94772B27
:101450004B015C0162E0F70185810E941420D701F5
:1014600015968C910E94BC1F892B19F4C12CD12C8C
:1014700053C00E94772BDC01CB0188199909AA0976
:10148000BB090597A105B10550F3F0CF0E94772B5A
:10149000DC01CB0188199909AA09BB090597A105A7
:1014A000B10538F4D70115968C910E94BC1F892B89
:1014B00069F30E94522B4B015C010E94772B2B0198
:1014C0003C0162E0F70185810E941420D701159646
:1014D0008C910E94BC1F019749F10E94522BDC01A4
:1014E000CB0188199909AA09BB09F60123E0F595F2
:1014F000E7952A95E1F78997A105B10520F1E20D5D
:10150000F31D8081880F81608083BFEFCB1ADB0AD7
:10151000E8E2CE16D104E1F00E94772B4B015C018A
:1015200062E0F70185810E941420BCCF0E94772BD6
:10153000DC01CB0184199509A609B7090597A10516
:10154000B10520F2CACFE20DF31D8081880FDCCFF8
:1015500059814B812D8130E06A81852F90E0860F83
:10156000911D840F911D6C81860F911D992728175D
:10157000390731F4D70113965C93139714964C9363
:1015800082E58093500582E48093510588EC809F2A
:10159000F001819FF00D1124E250FD4F8381809373
:1015A000530581E080935405E091B304F091B404B5
:1015B0008381809355051092560584818093570549
:1015C000109258058AE080935205E0E5F5E029E5A0
:1015D00035E080E09191890F2E173F07D9F780936E
:1015E00059058AE030C48091B1049091B20400970B
:1015F000B1F484E090E00E94F2367C0188EC809F98
:10160000F001819FF00D1124E250FD4F6581C7016B
:101610000E94AE26F092B204E092B10425C0FC0113
:10162000428150E068EC609F9001619F300D112471
:10163000B90162507D4F7B01DB0115962C91022E82
:10164000000C330B4217530779F00E948A3784E06D
:1016500090E00E94F2366C01F70165810E94AE268F
:10166000D092B204C092B10482E58093500582E426
:10167000809351051092520588EC809FF001819F64
:10168000F00D1124E250FD4F83818093530581E0DA
:10169000809354058091B1049091B2040E94632A12
:1016A000909355058091B1049091B2040E94632AF1
:1016B0008093560588E080935205E0E5F5E027E544
:1016C00035E080E09191890F2E173F07D9F7B8C315
:1016D0008091AF049091B0040097B1F484E090E061
:1016E0000E94F2367C0188EC809FF001819FF00D12
:1016F0001124E250FD4F6581C7010E94AE26F09291
:10170000B004E092AF0425C0DC0112964C9150E089
:1017100068EC609F9001619F300D1124F901E25047
:10172000FD4F7F012581022E000C330B421753071A
:1017300081F00E948A3784E090E00E94F2366C01CA
:10174000D70115966C910E94AE26D092B004C0923B
:10175000AF0482E58093500582E480935105109296
:10176000520588EC809FF001819FF00D1124E2501A
:10177000FD4F83818093530581E0809354058091D0
:10178000AF049091B0040E9470269093550580910B
:10179000AF049091B0040E9470268093560588E0B3
:1017A00080935205E0E5F5E027E535E080E0919192
:1017B000890F2E173F07D9F743C38091A904909151
:1017C000AA040097B1F485E090E00E94F2367C0113
:1017D00088EC809FF001819FF00D1124E250FD4FB5
:1017E0006581C7010E940529F092AA04E092A9042C
:1017F00025C0FC01428150E068EC609F9001619F30
:10180000300D1124B90162507D4F7B01DB0115962B
:101810002C91022E000C330B4217530779F00E94D3
:101820008A3785E090E00E94F2366C01F70165810D
:101830000E940529D092AA04C092A90482E580934F
:10184000500582E4809351051092520588EC809FE8
:10185000F001819FF00D1124E250FD4F83818093B0
:10186000530581E080935405E091A904F091AA0406
:1018700083810E94BC1F21E0892B09F020E0209386
:10188000550587E080935205E0E5F5E026E535E073
:1018900080E09191890F2E173F07D9F78093560565
:1018A00087E0D1C280919F049091A004009771F4C9
:1018B00085E090E00E94F2366C0188EC809FF00198
:1018C000819FF00D1124E250FD4F1EC0FC014281AA
:1018D00050E068EC609F9001619F300D1124B901C8
:1018E00062507D4F7B01DB0115962C91022E000C7E
:1018F000330B42175307F9F00E948A3785E090E0D6
:101900000E94F2366C01F701F5806F2DC6010E942E
:10191000C928EF2DF0E0EE0FFF1FE35EFE4F81813F
:10192000D60113968C931397808114968C93D09242
:10193000A004C0929F04E0909F04F090A00460E097
:10194000F70183810E941420D70113968C910E9485
:1019500000229C01205D3240121613064CF44AE02E
:10196000429FC001439F900D112466E070E008C0C3
:1019700047E0429FC001439F900D11246AE070E050
:101980000E94C4367B01C0909F04D090A00460E008
:10199000F60184810E941420D60114968C910E9435
:1019A00000229C01205D3240121613064CF446EFD3
:1019B0004203C001439F900D112466E070E008C00F
:1019C00049EF4203C001439F900D11246AE070E08B
:1019D0000E94C43682E58093500582E480935105CD
:1019E00088EC809FF001819FF00D1124E250FD4FA3
:1019F00083818093530581E080935405F7FC82E056
:101A000080935505C701F7FE03C091958195910913
:101A1000909356058093570577FD02C081E001C081
:101A200082E08093580577FF03C071956195710935
:101A30007093590560935A058CE080935205E0E558
:101A4000F5E02BE535E080E09191890F2E173F07F7
:101A5000D9F780935B058CE0F6C180919D0490914D
:101A60009E04009771F485E090E00E94F2366C01CC
:101A700088EC809FF001819FF00D1124E250FD4F12
:101A80001EC0FC01428150E068EC609F9001619FA4
:101A9000300D1124B90162507D4F7B01DB01159699
:101AA0002C91022E000C330B42175307F9F00E94C1
:101AB0008A3785E090E00E94F2366C01F701F580EC
:101AC0006F2DC6010E94C928EF2DF0E0EE0FFF1F19
:101AD000E35EFE4F8081D60113968C93139781812C
:101AE00014968C93D0929E04C0929D0482E58093BC
:101AF000500582E4809351051092520588EC809F36
:101B0000F001819FF00D1124E250FD4F83818093FD
:101B1000530581E08093540500919D0410919E042B
:101B200060E0F80184810E941420D80114968C9101
:101B30000E9400220FEF13E0F801E81BF90BCF0120
:101B400090935505E0909D04F0909E0460E0D701CD
:101B500014968C910E941420F70184810E94002227
:101B6000081B190B0093560588E080935205E0E5A9
:101B7000F5E027E535E080E09191890F2E173F07CA
:101B8000D9F75EC180919B0490919C040097B1F4B9
:101B900084E090E00E94F2367C0188EC809FF001A6
:101BA000819FF00D1124E250FD4F6581C7010E9415
:101BB000AE26F0929C04E0929B0425C0DC011296B4
:101BC0004C9150E068EC609F9001619F300D1124B2
:101BD000F901E250FD4F7F012581022E000C330BED
:101BE0004217530781F00E948A3784E090E00E94F8
:101BF000F2366C01D70115966C910E94AE26D092F8
:101C00009C04C0929B0482E58093500582E48093FB
:101C100051051092520588EC809FF001819FF00DD4
:101C20001124E250FD4F83818093530581E080931E
:101C3000540580919B0490919C040E94502A90939B
:101C4000550580919B0490919C040E94502A80939A
:101C5000560588E080935205E0E5F5E027E535E09C
:101C600080E09191890F2E173F07D9F7E9C0809145
:101C7000990490919A040097B1F484E090E00E9456
:101C8000F2367C0188EC809FF001819FF00D1124D9
:101C9000E250FD4F6581C7010E94AE26F0929A0482
:101CA000E092990425C0FC01428150E068EC609FFD
:101CB0009001619F300D1124B90162507D4F7B016D
:101CC000DB0115962C91022E000C330B42175307A3
:101CD00079F00E948A3784E090E00E94F2366C012D
:101CE000F70165810E94AE26D0929A04C0929904B1
:101CF00082E58093500582E480935105109252054D
:101D000088EC809FF001819FF00D1124E250FD4F7F
:101D100083818093530581E08093540580919904D9
:101D200090919A040E947026909355058091990491
:101D300090919A040E9470268093560588E08093C3
:101D40005205E0E5F5E027E535E080E09191890F67
:101D50002E173F07D9F774C080919704909198048B
:101D60000097B1F484E090E00E94F2367C0188ECA8
:101D7000809FF001819FF00D1124E250FD4F65819D
:101D8000C7010E94AE26F0929804E092970425C005
:101D9000DC0112964C9150E068EC609F9001619FCD
:101DA000300D1124F901E250FD4F7F012581022EF3
:101DB000000C330B4217530781F00E948A3784E0EE
:101DC00090E00E94F2366C01D70115966C910E944A
:101DD000AE26D0929804C092970482E58093500575
:101DE00082E4809351051092520588EC809FF001A7
:101DF000819FF00D1124E250FD4F838180935305A4
:101E000081E08093540580919704909198040E94FA
:101E100070269093550580919704909198040E94A4
:101E200070268093560588E080935205E0E5F5E042
:101E300027E535E080E09191890F2E173F07D9F70C
:101E40008093570588E00F900F900F900F900F90A0
:101E5000DF91CF911F910F91FF90EF90DF90CF9086
:101E6000BF90AF909F908F907F906F905F904F90BA
:101E70003F902F900C94941F0F900F900F900F9005
:101E80000F90DF91CF911F910F91FF90EF90DF9016
:101E9000CF90BF90AF909F908F907F906F905F900A
:101EA0004F903F902F9008952F923F924F925F92C4
:101EB0006F927F928F929F92AF92BF92CF92DF925A
:101EC000EF92FF920F931F93CF93DF93CDB7DEB7BF
:101ED000C451D1400FB6F894DEBF0FBECDBFFB0199
:101EE0001A012901A280B3806481758146815781DE
:101EF00020853185350101E060227724730183E07C
:101F0000EE0CFF1C8A95E1F74B0111E08122992428
:101F100096E0880C991C9A95E1F737016828792892
:101F2000C080D18087E0C822DD2443018C289D2811
:101F30006A0191E0C922DD24DC2CCC24DD0CC82808
:101F4000D9287901A1E0EA22FF24FE2CEE24F294A4
:101F500070EFF722EC28FD28A1FABB27B0F9CD5E7F
:101F6000DE4FB883C351D140CC5EDE4F1882C451DE
:101F7000D140CD5EDE4F08811981C351D140A4E02C
:101F8000000F111FAA95E1F7E02AF12AA2FAAA2769
:101F9000A0F9B0E015E0AA0FBB1F1A95E1F7EA2AF5
:101FA000FB2A61FB882780F990E09695982F882777
:101FB00097958795E82AF92A62FB662760F9162F1C
:101FC00000E0E02AF12A41FB882780F9880F880F7A
:101FD0008A83198289819A81E82AF92A42FB442757
:101FE00040F9440F440F440F4C831B82AB81BC81EA
:101FF000EA2AFB2A21FB882780F98295880F807EB8
:102000008E831D820D811E81E02AF12A22FB222768
:1020100020F92295220F220F207C28871F828F8192
:102020009885E82AF92AD101EC921196FC92E6846F
:10203000F784FA82E9824089518922893389848927
:102040009589870101701127780163E0EE0CFF1C70
:102050006A95E1F7DA01A170BB2776E0AA0FBB1FF2
:102060007A95E1F787010A2B1B2BD901A170BB27B9
:10207000BA2FAA27BB0FA02BB12BBC016170772709
:10208000762F66277295707F6A2B7B2B09810695C8
:10209000017009871A86A985BA8514E0AA0FBB1FAB
:1020A0001A95E1F76A2B7B2B198112FB112710F986
:1020B0001B871C86AB85BC8505E0AA0FBB1F0A9554
:1020C000E1F76A2B7B2B41FBAA27A0F9AD871E867F
:1020D000AD85BE85B695BA2FAA27B795A795A62B2D
:1020E000B72B42FB442740F9488B1F86EF84F888C2
:1020F000AE29BF2921FB992790F9990F990F9A8B47
:10210000198A09891A89A02BB12B22FB222720F9D1
:10211000220F220F220F2C8B1B8AEB88FC88AE2902
:10212000BF2981FB992790F99295990F907E9E8BFC
:102130001D8A0D891E89A02BB12B82FB882780F96F
:102140008295880F880F807C888F1F8A2F89388D11
:102150002A2B3B2BD10112962C93129713963C936A
:1021600084859585E28CF38CFA82E982648D758D85
:10217000468D578D22853385DC01A170BB27AA0FC0
:10218000BB1F81FBFF24F0F8F98E1A8E098D1A8D82
:10219000A02BB12B847099278A2B9B2BA981BA8104
:1021A000A170BB2703E0AA0FBB1F0A95E1F78A2B9A
:1021B0009B2BDB01A170BB2776E0AA0FBB1F7A9592
:1021C000E1F7A82BB92BCA0181709927982F88278E
:1021D000990F8A2B9B2B890101701127102F002743
:1021E0001295107F082B192B8981869581708B8F12
:1021F0001C8E8B8D9C8D54E0880F991F5A95E1F7AA
:10220000082B192BE2FA992790F99D8F1E8E8D8D40
:102210009E8D75E0880F991F7A95E1F7082B192B91
:1022200061FBAA27A0F9AF8F18A28F8D98A1969570
:10223000982F882797958795802B912B62FB66278F
:1022400060F96AA319A2E9A0FAA08E299F2941FB8F
:10225000332730F9330F330F3CA31BA20BA11CA172
:10226000802B912B42FB442740F9440F440F440F2D
:102270004EA31DA2ADA1BEA18A2B9B2B21FB332710
:1022800030F93295330F307E38A71FA2EFA0F8A4A3
:102290008E299F2922FB222720F92295220F220F27
:1022A000207C2AA719A609A51AA5802B912BD1015C
:1022B00014968C93149715969C93608D718D06A13E
:1022C00017A140A551A522A533A5868997897B0131
:1022D000B1E0EB22FF246701CC0CDD1CD801A1701A
:1022E000BB2713E0AA0FBB1F1A95E1F77D01EC286D
:1022F000FD28DA01A170BB2756E0AA0FBB1F5A9533
:10230000E1F7AE29BF29BA83A983D901A170BB2700
:10231000BA2FAA27BB0FC980DA80CA2ADB2A7C0120
:10232000B1E0EB22FF245701BA2CAA24B294A0EF0B
:10233000BA22D601AA29BB2961FBEE24E0F8EBA65C
:102340001CA6EBA4FCA4EE0CFF1CEE0CFF1CAE299B
:10235000BF2962FB662760F96795662767956EA7B8
:102360001DA6EDA4FEA4AE29BF2901FBFF24F0F8B1
:10237000FFA618AAEFA4F8A894E0EE0CFF1C9A950B
:10238000E1F7AE29BF2902FBFF24F0F8F9AA1AAA47
:1023900009A91AA935E0000F111F3A95E1F7A02B02
:1023A000B12B41FB112710F91BAB1CAAEBA8FCA811
:1023B000F694FE2CEE24F794E794AE29BF2942FB55
:1023C000442740F94EAB1DAA0DA91EA9A02BB12B85
:1023D00021FB992790F9990F990F98AF1FAAEFA8A1
:1023E000F8ACAE29BF2922FB222720F9220F220FA9
:1023F000220F2AAF19AE09AD1AADA02BB12B81FB6C
:10240000992790F99295990F907E9CAF1BAEEBACFB
:10241000FCACAE29BF2982FB882780F98295880F02
:10242000880F807C8EAF1DAE2DAD3EAD2A2B3B2B91
:10243000D10116962C93169717963C93E4A0F5A01D
:10244000FA82E98244A955A920A131A182A193A1D0
:102450008701017011277801EE0CFF1CDA01A170D1
:10246000BB2776E0AA0FBB1F7A95E1F787010A2BFD
:102470001B2BD901A170BB27BA2FAA27BB0FA02BFA
:10248000B12BBC0161707727762F66277295707F1C
:102490006A2B7B2B0981069501700FAF21961FAE29
:1024A00021972196AEADBFAD2197AA0FBB1FAA0FF2
:1024B000BB1F6A2B7B2B198112FB112710F9229667
:1024C0001FAF229723961FAE23972396AEADBFADC5
:1024D000239703E0AA0FBB1F0A95E1F76A2B7B2B1A
:1024E00041FBAA27A0F92496AFAF249725961FAEEB
:1024F00025972596AEADBFAD2597B695BA2FAA27DD
:10250000B795A795A62BB72B42FB442740F92796F2
:102510004FAF279726961FAE26972796EEACFFACB7
:102520002797AE29BF2921FB992790F9990F990F79
:1025300029969FAF299728961FAE289729960EAD0A
:102540001FAD2997A02BB12B22FB222720F9220FA8
:10255000220F220F2B962FAF2B972A961FAE2A976A
:102560002B96EEACFFAC2B97AE29BF2981FB9927A8
:1025700090F99295990F907E2D969FAF2D972C965E
:102580001FAE2C972D960EAD1FAD2D97A02BB12B06
:1025900082FB882780F98295880F880F807C2F9690
:1025A0008FAF2F972E961FAE2E972F962EAD3FAD45
:1025B0002F972A2B3B2BD10118962C9318971996FD
:1025C0003C93C2A8D3A8A0A8B1A8CF01805C9F4F1C
:1025D000DC014D915C9124A535A586A597A5B60192
:1025E00061707727A4E0660F771FAA95E1F7C1FA1B
:1025F000BB27B0F96096BFAF609761961FAE619739
:102600006196EEACFFAC6197E62AF72AB5016170DE
:102610007727660F771F6E297F298A01017011279E
:1026200056E0000F111F5A95E1F7602B712B8901BD
:1026300001701127102F0027110F062B172BBC013B
:1026400061707727762F66277295707F062B172B80
:10265000C2FAEE24E0F86296EFAE629763961FAE80
:10266000639763966EAD7FAD639795E0660F771FB6
:102670009A95E1F7062B172BA1FAFF24F0F8649640
:10268000FFAE649765961FAE659765966EAD7FAD9C
:102690006597660F771F660F771F062B172BA2FA19
:1026A000662760F966966FAF669767961FAE679765
:1026B00067966EAD7FAD679753E0660F771F5A95AB
:1026C000E1F7062B172B41FB772770F968967FAF50
:1026D000689769961FAE699769966EAD7FAD6997E9
:1026E0007695762F662777956795602B712B42FB41
:1026F000442740F96B964FAF6B976A961FAE6A9767
:102700006B96AEADBFAD6B976A2B7B2B21FB9927E8
:1027100090F9990F990F6D969FAF6D976C961FAEBC
:102720006C976D96EEACFFAC6D976E297F2922FBFE
:10273000222720F9220F220F220F6F962FAF6F97BB
:102740006E961FAE6E976F960EAD1FAD6F97602B96
:10275000712B81FB992790F99295990F907EA19604
:102760009FAFA197A0961FAEA097A196AEADBFADAB
:10277000A1976A2B7B2B82FB882780F98295880F93
:10278000880F807CA3968FAFA397A2961FAEA297C7
:10279000A396EEACFFACA3976E297F29D1011A96C0
:1027A0006C931A971B967C9304AD15AD66AD77AD0F
:1027B00046A957A920AD31AD82AD93AD7801B1E006
:1027C000EB22FF246701CC0CDD1CDB01A170BB27D1
:1027D00014E0AA0FBB1F1A95E1F77D01EC28FD2834
:1027E000DA01A170BB2756E0AA0FBB1F5A95E1F78B
:1027F000AE29BF29BA83A983D901A170BB27BA2FFB
:10280000AA27BB0FC980DA80CA2ADB2A7C01B1E083
:10281000EB22FF245701BA2CAA24B294A0EFBA22CB
:10282000D601AA29BB2901FBEE24E0F8A496EFAE5D
:10283000A497A5961FAEA597A596EEACFFACA5975D
:10284000EE0CFF1CEE0CFF1CAE29BF2902FBFF247F
:10285000F0F8A696FFAEA697A7961FAEA797A796E5
:102860000EAD1FADA79793E0000F111F9A95E1F7EA
:10287000A02BB12B61FB112710F9A8961FAFA897C9
:10288000A9961FAEA997A996EEACFFACA99735E023
:10289000EE0CFF1C3A95E1F7EA2AFB2A62FB662759
:1028A00060F9679566276795AB966FAFAB97AA9669
:1028B0001FAEAA97AB960EAD1FADAB97E02AF12ADB
:1028C00041FB112710F9AC961FAFAC97AD961FAE28
:1028D000AD97AD96AEADBFADAD97B695BA2FAA2761
:1028E000B795A795EA2AFB2A42FB442740F9AF9601
:1028F0004FAFAF97AE961FAEAE97AF96AEADBFAD32
:10290000AF97EA2AFB2A21FB992790F9990F990F93
:10291000E1969FAFE197E0961FAEE097E1960EAD8E
:102920001FADE197E02AF12A22FB222720F9220F8E
:10293000220F220FE3962FAFE397E2961FAEE297A6
:10294000E396AEADBFADE397EA2AFB2A81FB992758
:1029500090F99295990F907EE5969FAFE597E49652
:102960001FAEE497E5960EAD1FADE597E02AF12A7C
:1029700082FB882780F98295880F880F807CE796F4
:102980008FAFE797E6961FAEE697E7968EAD9FADC1
:10299000E797E82AF92AD1011C96EC921C971D961C
:1029A000FC92DF01A85BBF4FCD90DC90119712968F
:1029B000AD90BC90CF018C5B9F4FDC012D913C9181
:1029C0000296DC018D919C9186010170112778019E
:1029D000EE0CFF1CB50161707727A4E0660F771F2E
:1029E000AA95E1F78701062B172BB90161707727AC
:1029F000762F6627770F602B712BAC01417055271E
:102A0000542F44275295507F462B572BC1FABB2792
:102A1000B0F9E896BFAFE897E9961FAEE997E99657
:102A20006EAD7FADE997660F771F660F771F462B58
:102A3000572BC2FAEE24E0F8EA96EFAEEA97EB964F
:102A40001FAEEB97EB966EAD7FADEB9793E0660F05
:102A5000771F9A95E1F7462B572BA1FAFF24F0F840
:102A6000EC96FFAEEC97ED961FAEED97ED966EAD42
:102A70007FADED9735E0660F771F3A95E1F7462B6E
:102A8000572BA2FA002700F9EE960FAFEE97EF96BC
:102A90001FAEEF97EF966EAD7FADEF97A6E0660F96
:102AA000771FAA95E1F7642B752B21FB992790F9E5
:102AB000990F990FC058DF4F9883C058D040C15824
:102AC000DF4F1882CF57D040C158DF4FA881B9815E
:102AD000CF57D0406A2B7B2B22FB222720F9220FD5
:102AE000220F220FCE57DF4F2883C258D040CF5736
:102AF000DF4F1882C158D040CF57DF4FE880F980B0
:102B0000C158D0406E297F2981FB992790F9929571
:102B1000990F907ECC57DF4F9883C458D040CD5743
:102B2000DF4F1882C358D040CD57DF4F088119813D
:102B3000C358D040602B712B82FB882780F9829587
:102B4000880F880F807CCA57DF4F8883C658D040D3
:102B5000CB57DF4F1882C558D040CB57DF4F888105
:102B60009981C558D040682B792BD1011E966C9362
:102B70001E971F967C93DF01AC5ABF4F0D911C919D
:102B800011971296ED90FC901197FA82E982549772
:102B90006D917C9111971E964D915C9111971296B3
:102BA0002D913C91D801A170BB277D01EE0CFF1C3B
:102BB000A981BA81A170BB2714E0AA0FBB1F1A9587
:102BC000E1F7AE29BF29CB019695982F88279795D5
:102BD000879599278A2B9B2B61FBFF24F0F8C95717
:102BE000DF4FF882C758D040C857DF4F1882C85807
:102BF000D040C957DF4FA881B981C758D0408A2B30
:102C00009B2B7A01B1E0EB22FF24FE2CEE24FF0C7B
:102C10008E299F297901A1E0EA22FF24FE2CEE24CF
:102C2000F294B0EFFB228E299F2901FBBB27B0F95C
:102C3000C757DF4FB883C958D040C657DF4F1882F7
:102C4000CA58D040C757DF4FE880F980C958D040F4
:102C5000EE0CFF1CEE0CFF1C8E299F2902FBEE24BC
:102C6000E0F8C557DF4FE882CB58D040C457DF4F5C
:102C70001882CC58D040C557DF4FE880F980CB5838
:102C8000D04003E0EE0CFF1C0A95E1F78E299F2946
:102C9000098106950170C357DF4F0883CD58D04096
:102CA000C257DF4F1882CE58D040C357DF4FE8805D
:102CB000F980CD58D04035E0EE0CFF1C3A95E1F795
:102CC0008E299F29198112FB112710F9C157DF4F57
:102CD0001883CF58D040C057DF4F1882C059D0401A
:102CE000C157DF4FE880F980CF58D04056E0EE0C56
:102CF000FF1C5A95E1F7E82AF92A62FB662760F97A
:102D0000CE56DF4F6883C259D040CF56DF4F18826E
:102D1000C159D040CF56DF4F88819981C159D040E9
:102D2000E82AF92A41FB882780F9880F880FCC56BA
:102D3000DF4F8883C459D040CD56DF4F1882C35926
:102D4000D040CD56DF4FA881B981C359D040EA2A7F
:102D5000FB2A42FB442740F9440F440F440FCA5654
:102D6000DF4F4883C659D040CB56DF4F1882C55934
:102D7000D040CB56DF4F08811981C559D040E02A99
:102D8000F12A21FB882780F98295880F807EC8561A
:102D9000DF4F8883C859D040C956DF4F1882C759C2
:102DA000D040C956DF4F88819981C759D040E82A61
:102DB000F92A22FB222720F92295220F220F207CBC
:102DC000C656DF4F2883CA59D040C756DF4F1882F6
:102DD000C959D040C756DF4FA881B981C959D040E1
:102DE000EA2AFB2AD201EC921196FC92DF01A05A4A
:102DF000BF4F0D911C9111971296ED90FC90119779
:102E0000FA82E98254974D915C9111971E962D910B
:102E10003C91119712968D919C91780161E0E62288
:102E2000FF246701CC0CDD1CA981BA81A170BB27EE
:102E300074E0AA0FBB1F7A95E1F77601EA2AFB2A14
:102E4000DA01B695BA2FAA27B795A795BB27AE2961
:102E5000BF29B90161707727762F6627770F6A2B14
:102E60007B2BDC01A170BB27BA2FAA27B295B07FBC
:102E70006A2B7B2B01FBAA27A0F9C556DF4FA8833D
:102E8000CB59D040C456DF4F1882CC59D040C556DC
:102E9000DF4FA881B981CB59D040AA0FBB1FAA0F21
:102EA000BB1F6A2B7B2B02FBBB27B0F9C356DF4F3E
:102EB000B883CD59D040C256DF4F1882CE59D0408A
:102EC000C356DF4FA881B981CD59D04003E0AA0F86
:102ED000BB1F0A95E1F76A2B7B2B098106950170D0
:102EE000C156DF4F0883CF59D040C056DF4F1882FC
:102EF000C05AD040C156DF4FA881B981CF59D040C8
:102F000095E0AA0FBB1F9A95E1F76A2B7B2B1981DD
:102F100012FB112710F9CF55DF4F1883C15AD0404B
:102F2000CE55DF4F1882C25AD040CF55DF4FA8810F
:102F3000B981C15AD04036E0AA0FBB1F3A95E1F7DC
:102F4000A62BB72B41FB992790F9CC55DF4F9883DF
:102F5000C45AD040CD55DF4F1882C35AD040CD550A
:102F6000DF4FE880F980C35AD040AE29BF2942FB29
:102F7000442740F9479544274795CA55DF4F488372
:102F8000C65AD040CB55DF4F1882C55AD040CB55DA
:102F9000DF4F08811981C55AD040A02BB12B21FBEE
:102FA000992790F9990F990FC855DF4F9883C85A00
:102FB000D040C955DF4F1882C75AD040C955DF4F9E
:102FC000E880F980C75AD040AE29BF2922FB2227CA
:102FD00020F9220F220F220FC655DF4F2883CA5A2D
:102FE000D040C755DF4F1882C95AD040C755DF4F70
:102FF00008811981C95AD040A02BB12B81FB992798
:1030000090F99295990F907EC455DF4F9883CC5AD2
:10301000D040C555DF4F1882CB5AD040C555DF4F41
:10302000E880F980CB5AD040AE29BF2982FB88279F
:1030300080F98295880F880F807CC255DF4F888386
:10304000CE5AD040C355DF4F1882CD5AD040C35519
:10305000DF4F28813981CD5AD0402A2B3B2BD2011A
:1030600012962C93129713963C93DF01A459BF4FED
:10307000CD90DC9011979097AD90BC90CF01865A7F
:103080009F4FDC012D913C914096DC018D919C91EC
:103090008601017011277801EE0CFF1CB5016170EB
:1030A000772754E0660F771F5A95E1F78701062BC3
:1030B000172BB9017695762F662777956795772731
:1030C000602B712BAC0141705527542F442752952A
:1030D000507F462B572BC1FABB27B0F9C155DF4FA4
:1030E000B883CF5AD040C055DF4F1882C05BD04064
:1030F000C155DF4F68817981CF5AD040660F771F65
:10310000660F771F462B572BC2FAEE24E0F8CF54F8
:10311000DF4FE882C15BD040CE54DF4F1882C25BE4
:10312000D040CF54DF4F68817981C15BD04003E04C
:10313000660F771F0A95E1F7462B572BA1FAFF245C
:10314000F0F8CD54DF4FF882C35BD040CC54DF4F52
:103150001882C45BD040CD54DF4F68817981C35B56
:10316000D04095E0660F771F9A95E1F7462B572BD5
:10317000A2FA002700F9CB54DF4F0883C55BD0408B
:10318000CA54DF4F1882C65BD040CB54DF4F6881F2
:103190007981C55BD04036E0660F771F3A95E1F73D
:1031A000642B752B21FB992790F9C854DF4F988326
:1031B000C85BD040C954DF4F1882C75BD040C954A8
:1031C000DF4FA881B981C75BD0406A2B7B2B22FBE4
:1031D000222720F9220FC654DF4F2883CA5BD04034
:1031E000C754DF4F1882C95BD040C754DF4FE88017
:1031F000F980C95BD0406E297F2981FB992790F91E
:103200009295990F907EC454DF4F9883CC5BD04049
:10321000C554DF4F1882CB5BD040C554DF4F0881C7
:103220001981CB5BD040602B712B82FB882780F902
:103230008295880F880F807CC254DF4F8883CE5BD5
:10324000D040C354DF4F1882CD5BD040C354DF4F12
:1032500088819981CD5BD040682B792BD20114965F
:103260006C93149715967C93DF01A858BF4F0D916E
:103270001C9111979097ED90FC901197FA82E9823A
:103280001E966D917C91119712964D915C911197BC
:103290001E962D913C91780181E0E822FF24670180
:1032A000CC0CDD1CA981BA81A170BB2714E0AA0F48
:1032B000BB1F1A95E1F77601EA2AFB2ADB01B695D6
:1032C000BA2FAA27B795A795BB27AE29BF29CA0150
:1032D00081709927982F8827990F990F8A2B9B2BFC
:1032E00041FBAA27A0F9C154DF4FA883CF5BD04090
:1032F000C054DF4F1882C05CD040C154DF4FE8801B
:10330000F980CF5BD0408E299F29D901A170BB27BE
:10331000BA2FAA27B295B07F8A2B9B2B01FBFF24E3
:10332000F0F8CF53DF4FF882C15CD040CE53DF4F6F
:103330001882C25CD040CF53DF4FA881B981C15CF5
:10334000D040AA0FBB1FAA0FBB1F8A2B9B2B02FBCF
:10335000AA27A0F9CD53DF4FA883C35CD040CC533C
:10336000DF4F1882C45CD040CD53DF4FA881B981B4
:10337000C35CD04003E0AA0FBB1F0A95E1F78A2B7C
:103380009B2BB981B695B170CB53DF4FB883C55C29
:10339000D040CA53DF4F1882C65CD040CB53DF4FBA
:1033A000A881B981C55CD04035E0AA0FBB1F3A9512
:1033B000E1F78A2B9B2BE980E2FAEE24E0F8C9536F
:1033C000DF4FE882C75CD040C853DF4F1882C85C2B
:1033D000D040C953DF4FA881B981C75CD04056E0C7
:1033E000AA0FBB1F5A95E1F7A82BB92B61FB8827C1
:1033F00080F9C653DF4F8883CA5CD040C753DF4F84
:103400001882C95CD040C753DF4F08811981C95C5D
:10341000D040A02BB12B62FB662760F9660FC45326
:10342000DF4F6883CC5CD040C553DF4F1882CB5C44
:10343000D040C553DF4F88819981CB5CD040A82B09
:10344000B92B42FB442740F9440F440F440FC253A9
:10345000DF4F4883CE5CD040C353DF4F1882CD5C32
:10346000D040C353DF4FE880F980CD5CD040AE2917
:10347000BF2921FB882780F98295880F807EC05361
:10348000DF4F8883C05DD040C153DF4F1882CF5CCF
:10349000D040C153DF4F08811981CF5CD040A02BB1
:1034A000B12B22FB222720F92295220F220F207C0C
:1034B000CE52DF4F2883C25DD040CF52DF4F1882FB
:1034C000C15DD040CF52DF4F28813981C15DD040EE
:1034D0002A2B3B2BD20116962C93169717963C93CA
:1034E000DF01AC57BF4F0D911C9111979097ED9054
:1034F000FC901197FA82E9821E964D915C9111978A
:1035000012962D913C9111971E968D919C91780168
:1035100061E0E622FF246701CC0CDD1CA981BA81A1
:10352000A170BB2774E0AA0FBB1F7A95E1F7760163
:10353000EA2AFB2ADA01B695BA2FAA27B795A795EA
:10354000BB27AE29BF29B90161707727762F66277F
:10355000770F770F6A2B7B2BDC01A170BB27BA2F6B
:10356000AA27B295B07F6A2B7B2B01FBAA27A0F973
:10357000CD52DF4FA883C35DD040CC52DF4F1882BD
:10358000C45DD040CD52DF4FA881B981C35DD0402A
:10359000AA0FBB1FAA0FBB1F6A2B7B2B02FBBB27EB
:1035A000B0F9CB52DF4FB883C55DD040CA52DF4F70
:1035B0001882C65DD040CB52DF4FA881B981C55D6E
:1035C000D04003E0AA0FBB1F0A95E1F76A2B7B2BC3
:1035D000098106950170C952DF4F0883C75DD0404D
:1035E000C852DF4F1882C85DD040C952DF4FA88152
:1035F000B981C75DD04095E0AA0FBB1F9A95E1F74E
:103600006A2B7B2B198112FB112710F9C752DF4F50
:103610001883C95DD040C652DF4F1882CA5DD040C2
:10362000C752DF4FA881B981C95DD04036E0AA0FEB
:10363000BB1F3A95E1F7A62BB72B41FB992790F9D1
:10364000C452DF4F9883CC5DD040C552DF4F188203
:10365000CB5DD040C552DF4FE880F980CB5DD040D4
:10366000AE29BF2942FB442740F9440FC252DF4F25
:103670004883CE5DD040C352DF4F1882CD5DD0402D
:10368000C352DF4F08811981CD5DD040A02BB12BF3
:1036900021FB992790F9990F990F990FC052DF4F8D
:1036A0009883C05ED040C152DF4F1882CF5DD040BA
:1036B000C152DF4FE880F980CF5DD040AE29BF29ED
:1036C00022FB222720F9279522272795CE51DF4F6D
:1036D0002883C25ED040CF51DF4F1882C15ED040F8
:1036E000CF51DF4F08811981C15ED040A02BB12B93
:1036F00081FB992790F99295990F907ECC51DF4FDD
:103700009883C45ED040CD51DF4F1882C35ED04055
:10371000CD51DF4FE880F980C35ED040AE29BF298C
:1037200082FB882780F98295880F880F807CCA5198
:10373000DF4F8883C65ED040CB51DF4F1882C55E15
:10374000D040CB51DF4F28813981C55ED0402A2B34
:103750003B2BD20118962C93189719963C93DF01B6
:10376000A259BF4FCD90DC9011971296AD90BC90AE
:10377000CF0182589F4FDC012D913C910296DC01D4
:103780008D919C918601017011277801EE0CFF1C30
:10379000B5016170772754E0660F771F5A95E1F7FE
:1037A0008701062B172BB9017695762F662777951B
:1037B00067957727602B712BAC0141705527542FEB
:1037C0004427550F550F462B572BC1FABB27B0F98D
:1037D000C951DF4FB883C75ED040C851DF4F188250
:1037E000C85ED040C951DF4F68817981C75ED04043
:1037F000660F771F660F771F462B572BC2FAEE24F2
:10380000E0F8C751DF4FE882C95ED040C651DF4FB4
:103810001882CA5ED040C751DF4F68817981C95E86
:10382000D04003E0660F771F0A95E1F7462B572B30
:10383000A1FAFF24F0F8C551DF4FF882CB5ED040EB
:10384000C451DF4F1882CC5ED040C551DF4F688134
:103850007981CB5ED04095E0660F771F9A95E1F7AE
:10386000462B572BA2FA002700F9C351DF4F0883DC
:10387000CD5ED040C251DF4F1882CE5ED040C351E2
:10388000DF4F68817981CD5ED04036E0660F771FCB
:103890003A95E1F7642B752B21FB992790F9C051DC
:1038A000DF4F9883C05FD040C151DF4F1882CF5E99
:1038B000D040C151DF4FA881B981CF5ED0406A2B83
:1038C0007B2B22FB222720F9220FCE50DF4F2883AB
:1038D000C25FD040CF50DF4F1882C15FD040CF5081
:1038E000DF4FE880F980C15FD0406E297F2981FBDE
:1038F000992790F9990F990F990FCC50DF4F988322
:10390000C45FD040CD50DF4F1882C35FD040CD5050
:10391000DF4F08811981C35FD040602B712B82FB80
:10392000882780F98295807FCA50DF4F8883C65FE1
:10393000D040CB50DF4F1882C55FD040CB50DF4F17
:1039400088819981C55FD040682B792BD2011A9666
:103950006C931A971B967C93DF01A658BF4F0D916D
:103960001C9111971296ED90FC901197FA82E982C2
:103970001E964D915C91119712962D913C91119745
:1039800012968D919C91780161E0E622FF246701F7
:10399000CC0CDD1CA981BA81A170BB2774E0AA0FF1
:1039A000BB1F7A95E1F77601EA2AFB2ADA01B69580
:1039B000BA2FAA27B795A795BB27AE29BF29B9016A
:1039C00061707727762F6627770F770F6A2B7B2B0F
:1039D000DC01A170BB27BA2FAA27B295BB0FB07E1E
:1039E0006A2B7B2B81FBAA27A0F9C950DF4FA88344
:1039F000C75FD040C850DF4F1882C85FD040C95061
:103A0000DF4FE880F980C75FD0406E297F2901FB36
:103A1000FF24F0F8C750DF4FF882C95FD040C6508E
:103A2000DF4F1882CA5FD040C750DF4FA881B981ED
:103A3000C95FD040AA0FBB1FAA0FBB1F6A2B7B2BED
:103A400002FBAA27A0F9C550DF4FA883CB5FD04067
:103A5000C450DF4F1882CC5FD040C550DF4FA881E3
:103A6000B981CB5FD04003E0AA0FBB1F0A95E1F7F5
:103A70006A2B7B2BB981B695B170C350DF4FB883E9
:103A8000CD5FD040C250DF4F1882CE5FD040C350D0
:103A9000DF4FA881B981CD5FD04095E0AA0FBB1F51
:103AA0009A95E1F76A2B7B2BE980E2FAEE24E0F8A5
:103AB000C150DF4FE882CF5FD040C050DF4F188247
:103AC000C050D140C150DF4FA881B981CF5FD040F5
:103AD00036E0AA0FBB1F3A95E1F76A2B7B2B41FB1F
:103AE000992790F9CE5FDE4F9883C250D140CF5FC7
:103AF000DE4F1882C150D140CF5FDE4F088119815F
:103B0000C150D140602B712B42FB442740F9440F38
:103B1000CC5FDE4F4883C450D140CD5FDE4F18826A
:103B2000C350D140CD5FDE4FA881B981C350D14091
:103B30006A2B7B2B21FB992790F9990F990F990FED
:103B4000CA5FDE4F9883C650D140CB5FDE4F1882EC
:103B5000C550D140CB5FDE4FE880F980C550D140E1
:103B60006E297F2922FB222720F92295207FC85F1A
:103B7000DE4F2883C850D140C95FDE4F1882C7503E
:103B8000D140C95FDE4F08811981C750D140602BF9
:103B9000712B82FB882780F98295880F880F807CA3
:103BA000C65FDE4F8883CA50D140C75FDE4F1882A0
:103BB000C950D140C75FDE4F88819981C950D1403B
:103BC000682B792BD2011C966C931C971D967C93C5
:103BD000DF01AA57BF4F6D917C91E857FF4F40819D
:103BE0005181CB0181709927FC01EE0FFF1F9A01D3
:103BF00021703327C901A4E0880F991FAA95E1F726
:103C00008E2B9F2B61FBBB27B0F9C55FDE4FB883BE
:103C1000CB50D140C45FDE4F1882CC50D140C55F3D
:103C2000DE4F28813981CB50D140220F331F220F24
:103C3000331F822B932B62FBEE27E0F9C35FDE4F2D
:103C4000E883CD50D140C25FDE4F1882CE50D140C4
:103C5000C35FDE4F28813981CD50D14013E0220F60
:103C6000331F1A95E1F7822B932B41FBFF27F0F9C5
:103C7000C15FDE4FF883CF50D140C05FDE4F188266
:103C8000C051D140C15FDE4F28813981CF50D14032
:103C900005E0220F331F0A95E1F7822B932B42FB9D
:103CA000EE24E0F8CF5EDE4FE882C151D140CE5E17
:103CB000DE4F1882C251D140CF5EDE4F288139815C
:103CC000C151D14046E0220F331F4A95E1F7822BC4
:103CD000932BD2011E968C931E971F961C92CC5E3E
:103CE000DE4F0FB6F894DEBF0FBECDBFDF91CF9190
:103CF0001F910F91FF90EF90DF90CF90BF90AF900A
:103D00009F908F907F906F905F904F903F902F90FB
:103D10000895CF92DF92EF92FF920F931F93CF936C
:103D2000DF93EC01D62EC42E79010E94B9276D2DA8
:103D3000660FCE010E945027CE010E9407276C2DEE
:103D4000CE010E945027CE010E9407270E0D1F1D95
:103D5000E016F10651F0F70161917F01CE010E945A
:103D60005027CE010E940727F3CFCE01DF91CF91DC
:103D70001F910F91FF90EF90DF90CF900C94C2268F
:103D80000F931F93CF93DF93EC01042F122F0E9408
:103D90000228602FCE010E94A227612FCE010E942F
:103DA000A227CE01DF91CF911F910F910C94C226D3
:103DB000FC01A381B481478120853185C901880F29
:103DC000991F280F391F728563855FB7F8948C910E
:103DD000942F90959823842BE72FF62F2E0F3F1FBB
:103DE000E217F30781F0419168E08C9300C047FF30
:103DF0009C93440F00C000C000C008F49C9300C016
:103E00006A9599F7EDCF5FBF789461E070E080E04C
:103E100090E00C944A23CF92DF92EF92FF920F939F
:103E20001F93CF93DF937C01142FD22EC02E6111EC
:103E300011C0C0E0D0E0F70180859185C817D9078F
:103E400070F40C2D2D2D412F6C2FC7010E94A62838
:103E50002196F1CF61500E94A62880E001C081E048
:103E6000DF91CF911F910F91FF90EF90DF90CF9056
:103E70000895833081F028F4813099F08230A1F0E8
:103E800008958730A9F08830B9F08430D1F480915A
:103E900080008F7D03C0809180008F7780938000A9
:103EA000089584B58F7702C084B58F7D84BD089551
:103EB0008091B0008F7703C08091B0008F7D809398
:103EC000B0000895CF93DF93EC01862F90E099879F
:103ED000888723E0629FC00111240E94F2369B87ED
:103EE0008A87892B21F488E791E00E94183880E0C6
:103EF00090E028853985A901440F551F240F351FEF
:103F00008217930738F4EA85FB85E80FF91F1082C2
:103F10000196EFCFDF91CF9108959091C00095FF6A
:103F2000FCCF8093C60008950F931F93CF93C82FA3
:103F300000E515E0CC2339F0F80181918F010E9452
:103F40008D1FC150F7CFCF911F910F910895CF933F
:103F5000DF93EC010E94B92768E4CE010E9450274C
:103F6000CE010E94072761E3CE010E945027CE01B7
:103F7000DF91CF910C94C226CF93DF93282F30E0AE
:103F8000F901E05FFE4F8491F901EE5BFE4FD491A1
:103F9000F901E25DFE4FC491CC2391F081110E94A2
:103FA000391FEC2FF0E0EE0FFF1FEC5DFE4FA591E7
:103FB000B491EC91ED2381E090E021F480E002C027
:103FC00080E090E0DF91CF9108951F93CF93DF932E
:103FD000282F30E0F901E05FFE4F8491F901EE5B9C
:103FE000FE4FD491F901E25DFE4FC491CC23C1F0A4
:103FF000162F81110E94391FEC2FF0E0EE0FFF1FEA
:10400000EA5FFE4FA591B4919FB7F894111104C0D7
:104010008C91D095D82302C0EC91DE2BDC939FBF0E
:10402000DF91CF911F910895CF93DF9390E0FC0132
:10403000EE5BFE4F2491FC01E25DFE4F84918823EC
:1040400061F190E0880F991FFC01E450FF4FC5918A
:10405000D491FC01EA5FFE4FA591B491611109C0B2
:104060009FB7F8948881209582238883EC912E2332
:104070000BC0623061F49FB7F8948881322F30957D
:1040800083238883EC912E2B2C939FBF06C08FB780
:10409000F894E8812E2B28838FBFDF91CF9108956C
:1040A0004F925F926F927F928F929F92AF92BF9248
:1040B000CF92DF92EF92FF920F931F93CF93DF93F4
:1040C0004A015B019C0140E050E060E472E48FE053
:1040D00090E00E94843469017A0161E080914E058C
:1040E0000E941420A8EEB3E0A50194010E94A3341D
:1040F0002B013C01E601D7FC2196D595C7958E0191
:10410000000F111F000F111F055011090D2C000C7D
:10411000EE08FF08812C912C540184149504A60408
:10412000B704E0F461E080914E050E94E51FC230C3
:10413000D10518F0C8010197F1F760E080914E05B4
:104140000E94E51FC230D10518F0C8010197F1F7B0
:10415000A8958C0C9D1CAE1CBF1CDFCFDF91CF91AE
:104160001F910F91FF90EF90DF90CF90BF90AF9095
:104170009F908F907F906F905F904F900895CF9217
:10418000DF92EF92FF926C392FEF7207820792074E
:1041900084F19B01AC01653671058105910524F020
:1041A00024E630E040E050E057FD27C0AFEFB0E03C
:1041B0000E94A33424E630E040E050E00E948434C2
:1041C00069017A01232B242B252B11F460E001C017
:1041D00061E089E00E94142060E08AE00E941420DF
:1041E000D0928900C092880010928B0010928A00B1
:1041F00028C02CE93FEF4FEF5FEFA1E0BFEF0E9437
:10420000B13424E630E040E050E00E94843469019B
:104210007A0161E08AE00E94142060E089E00E9457
:104220001420D0928B00C0928A00109289001092C4
:104230008800C0924605D0924705E0924805F0926A
:104240004905FF90EF90DF90CF9008951F93CF9393
:10425000DF93182FEB0161E00E941420209711F4E6
:1042600060E004C0CF3FD10539F461E0812FDF91D8
:10427000CF911F910C94E51FE12FF0E0E05FFE4F1E
:10428000E491E330F9F048F4E130B9F0E230A1F51F
:1042900084B5806284BDC8BD34C0E730E9F0E83041
:1042A00019F1E43049F580918000806280938000AC
:1042B000D0938B00C0938A0024C084B5806884BDED
:1042C000C7BD1FC080918000806880938000D0931C
:1042D0008900C093880015C08091B00080688093E9
:1042E000B000C093B3000DC08091B0008062809395
:1042F000B000C093B40005C0C038D1050CF0B5CFF4
:10430000AFCFDF91CF911F910895CF92DF92EF92BF
:10431000FF920F931F93CF93DF936C392FEF7207A8
:10432000820792070CF43FC09B01AC016536710512
:104330008105910524F024E630E040E050E057FD8F
:1043400036C0AFEFB0E00E94A33424E630E040E096
:1043500050E00E94843469017A01D22FCD2D87016B
:10436000232B242B252B11F460E001C061E086E0B3
:104370000E94142060E085E00E941420B60186E0CF
:104380000E942621D0934A05C0934B0500934C050B
:1043900010934D05DF91CF911F910F91FF90EF90FA
:1043A000DF90CF9008952CE93FEF4FEF5FEFA1E052
:1043B000BFEF0E94B13424E630E040E050E00E94BC
:1043C0008434D22FC32F8A0161E085E00E9414203B
:1043D00060E086E00E9414206D2F7C2F85E0D0CF16
:1043E000CF92DF92EF92FF9269017A010E948521BC
:1043F000C701B601FF90EF90DF90CF900C94BF20E3
:104400008E3008F08E508770806480937C0080919D
:104410007A00806480937A0080917A0086FDFCCFD8
:10442000809178002091790090E0922B0895BF92BE
:10443000CF92DF92EF92FF920F931F93CF93DF9370
:104440003AE0B32EC12CD12C7601CFEFD3E000E0BF
:1044500010E084E10E9400220817190708F48C017B
:104460008C179D0708F4EC01C80ED91EE11CF11C45
:10447000BA94B110EECFD701C601801B910BA109F0
:10448000B1098C1B9D0BA109B10923E0B695A79535
:10449000979587952A95D1F7883F23E09207A10544
:1044A000B10508F0A6C0893E23E09207A105B10539
:1044B00008F0A2C08B3C23E09207A105B10508F0EB
:1044C0009EC0833A23E09207A105B10508F09AC087
:1044D000853823E09207A105B10508F096C08C3617
:1044E00023E09207A105B10508F092C0813223E0D4
:1044F0009207A105B10508F08EC08F3F22E0920718
:10450000A105B10508F08AC0813D22E09207A1050E
:10451000B10508F086C08F3922E09207A105B105E8
:1045200008F082C08D3622E09207A105B10508F09F
:104530007EC08F3422E09207A105B10508F07AC051
:10454000833122E09207A105B10508F076C0853FCE
:1045500021E09207A105B10508F072C0813E21E07B
:104560009207A105B10508F06EC0823D21E09207D7
:10457000A105B10508F073C0873A21E09207A105B3
:10458000B10508F063C0863921E09207A105B105A5
:1045900008F05FC08C3721E09207A105B10508F053
:1045A0005BC08A3521E09207A105B10508F057C02C
:1045B000823321E09207A105B10508F053C08F3086
:1045C00021E09207A105B10508F04FC0803D91059B
:1045D000A105B10508F04CC0853A9105A105B105CA
:1045E00008F049C08A379105A105B10508F046C019
:1045F00036C080E090E044C08FE090E041C083E1AD
:1046000090E03EC08CE090E03BC08AE090E038C093
:1046100085E090E035C089E090E032C08BE090E02A
:104620002FC08DE090E02CC082E090E029C080E1B6
:1046300090E026C08EE090E023C088E090E020C0AB
:1046400083E090E01DC084E190E01AC087E190E033
:1046500017C085E190E014C087E090E011C08FEFB3
:1046600090E00EC082E190E00BC086E090E008C0D0
:1046700084E090E005C089E190E002C088E190E02C
:10468000DF91CF911F910F91FF90EF90DF90CF902E
:10469000BF9008958F929F92AF92BF92CF92DF9278
:1046A000EF92FF926B017C010E94522B4B015C0147
:1046B000C114D104E104F104F1F00E94522BDC0199
:1046C000CB0188199909AA09BB09883E9340A10525
:1046D000B10570F321E0C21AD108E108F10888EEB3
:1046E000880E83E0981EA11CB11CC114D104E10402
:1046F000F10419F7DDCFFF90EF90DF90CF90BF90DE
:10470000AF909F908F9008958230D1F018F481304F
:1047100089F00895833021F0843031F560E00BC0DA
:1047200060E087E00E94E51F60E08DE00E94E51FE9
:1047300061E00FC061E087E00E94E51F60E005C016
:1047400061E087E00E94E51F61E08DE00E94E51FC7
:1047500060E08CE00E94E51F69E170E080E090E09D
:104760000E944A230C94172208954F925F926F92F1
:104770007F929F92AF92BF92CF92DF92EF92FF9281
:104780000F931F93CF93DF93CDB7DEB728970FB664
:10479000F894DEBF0FBECDBF7C01CE0101966C0147
:1047A0005E0199E0A90EB11C992493940E94772B85
:1047B000F7014084518462847384DC01CB01841945
:1047C0009509A609B7094197A105B10508F0978297
:1047D000F7018781882309F466C00E94772BF701CF
:1047E0006087718782879387178260E4C7010E9480
:1047F000022862EAC7010E94A22762EAC7010E945A
:10480000A22762EAC7010E94A22761E0C7010E94B5
:10481000A227C7010E94C226F701868160E00E949C
:104820001420F701868190E0FC01EE5BFE4F64915D
:10483000FC01E25DFE4FE491F0E0EE0FFF1FEC5D46
:10484000FE4F8591949100E712E620E030E040E0D1
:104850000E94CD2B611571058105910551F02B0149
:104860003C01FFEF4F1A5F0A6F0A7F0A2FE07222A6
:1048700003C0412C512C32018CE2481681E05806CD
:104880006104710430F09CE2491A91E0590A610810
:104890007108C301B2010E949635F70164877587DC
:1048A0008687978709C0F701648575858685978512
:1048B0000E945E352B013C011414150416041704E4
:1048C00034F084EA482E88E3582E612C712CC30101
:1048D000B2010E94963520E030E048E652E40E94A2
:1048E000EC34F60161937193819391936F0162E1CE
:1048F00070E080E090E00E944A23AC14BD0409F00F
:1049000055CFC980DA80EB80FC807D809E80AF80AF
:10491000B884272D392DA501B601C7010E9446365E
:1049200087FF03C0C72CD92C7501B601C701289693
:104930000FB6F894DEBF0FBECDBFDF91CF911F91B0
:104940000F91FF90EF90DF90CF90BF90AF909F902E
:104950007F906F905F904F900895CF92DF92EF928B
:10496000FF920F931F93CF93DF936C017A018B011A
:10497000C0E0D0E0CE15DF0581F0D8016D918D014A
:10498000D601ED91FC910190F081E02DC6010995D1
:10499000892B11F02196EECF7E01C701DF91CF91D7
:1049A0001F910F91FF90EF90DF90CF90089520918D
:1049B0001B0630911C062817390771F490911A06CE
:1049C00080911906981741F0E0911A06F0E0EE5B2D
:1049D000F94F808190E008958FEF9FEF089508953B
:1049E0001F93CF93DF93DC015C968D919C915D9733
:1049F000009739F421E030E013963C932E93129700
:104A00003BC05196ED91FC91529750962C91509746
:104A1000322F30951FB75E964C915E97742F72704F
:104A200041FD6095F8944081772311F0422B01C03D
:104A300043234083EC012197F1F748E0508160FF68
:104A400002C0522B01C053235083EC012197F1F790
:104A50006695415099F78081772319F083238083ED
:104A600002C0282B20831FBF5C968D919C915D977F
:104A70000197F1F781E090E0DF91CF911F910895C8
:104A800020911B0630911C062817390771F480917C
:104A9000190620911A0690E0805C9F4F821B9109B5
:104AA00060E470E00E94C436089580E090E00895CC
:104AB00020911B0630911C0628173907B9F49091F4
:104AC0001A0680911906981789F0E0911A06F0E00D
:104AD000EE5BF94F808120911A0630E02F5F3F4F47
:104AE0002F73332720931A0690E008958FEF9FEFDE
:104AF000089508950E9413381F920F920FB60F92D7
:104B000011242F933F934F935F936F937F938F93D2
:104B10009F93AF93BF93EF93FF93E0911B06F091A8
:104B20001C06309709F451C0968DA685B7858585FA
:104B300091FF04C09C91892329F447C09C9189234B
:104B400009F043C0A389B4899C9185898095892304
:104B50008C93868997890197F1F7608D718DA68571
:104B6000B785558538E020E0CB010197F1F7822F1A
:104B700090E095958795282F4C91452309F0206862
:104B8000315091F7868D81FD20958091190690E036
:104B900001968F73992730911A06381749F0A09122
:104BA0001906B0E0AE5BB94F2C938093190603C091
:104BB000868D8160868F828D938D0197F1F7A38911
:104BC000B4899C918589892B8C93FF91EF91BF913A
:104BD000AF919F918F917F916F915F914F913F9195
:104BE0002F910F900FBE0F901F901895E0911B060C
:104BF000F0911C06E817F90769F4A389B4899C9120
:104C00008589809589238C9310921C0610921B062F
:104C100081E0089580E008951F920F920FB60F92E1
:104C200011242F933F938F939F93EF93FF93809142
:104C3000410687FF05C0109285001092840005C0D0
:104C40008091410687FD80914106809141068F5FEA
:104C5000809341068091410687FF20C080914106E4
:104C60008C30E4F4209184003091850080914106DD
:104C7000082E000C990BFC01EE0FFF1F8E0F9F1FDB
:104C8000FC01E35EF94F81819281820F931F909323
:104C90008900809388008091410617C0809184002C
:104CA00090918500049680349C4918F480E49CE936
:104CB00005C08091840090918500049690938900AE
:104CC000809388008FEF80934106FF91EF919F9131
:104CD0008F913F912F910F900FBE0F901F901895BD
:104CE000AF92BF92CF92DF92EF92FF920F931F93FA
:104CF000CF93DF935C010AE010E0C12CD12C760148
:104D0000C0E0D0E060E0F50183810E941420F5014D
:104D100083810E940022C817D90708F4EC01C80E4D
:104D2000D91EE11CF11C0150110961F7D701C60120
:104D30008C1B9D0BA109B10923E0B695A79597950A
:104D400087952A95D1F7DF91CF911F910F91FF9011
:104D5000EF90DF90CF90BF90AF9008950F931F9387
:104D6000CF938C01C62F0E94C928EC2FF0E0EE0FE4
:104D7000FF1FE35EFE4F8181F8018383CF911F9176
:104D80000F910895CF93DF93EC0161E08B810E9436
:104D900014208D818130C1F487E592E00197F1F70D
:104DA00000C0000060E08C810E94E51F60E08B8104
:104DB0000E94E51F61E08C810E94E51F61E08B810C
:104DC000DF91CF910C94E51F60E08C810E94E51F7C
:104DD0009AE19A95F1F700C060E08B810E94E51F8F
:104DE0008AE18A95F1F700C061E08C810E94E51F9D
:104DF0009AE19A95F1F700C061E08B810E94E51F6E
:104E00008AE18A95F1F700C0DF91CF9108951F9351
:104E1000CF93DF93EC0160E08B810E9414208D81A1
:104E20008130D1F487E592E00197F1F700C00000EE
:104E300061E08B810E94E51F61E08C810E94E51F8B
:104E40008B810E94BC1F11E0892B09F410E060E007
:104E50008C810E94E51F1FC061E08B810E94E51FCD
:104E60009AE19A95F1F700C061E08C810E94E51FFC
:104E70008AE18A95F1F700C08B810E94BC1F11E086
:104E8000892B09F410E060E08C810E94E51F9AE113
:104E90009A95F1F700C0812FDF91CF911F9108956E
:104EA0000F931F93CF93DF93EC01162F61E08C815A
:104EB0000E94142061E08B810E9414208D8181303A
:104EC000D9F487E592E00197F1F700C0000008E00F
:104ED00017FF02C061E001C060E08B810E94E51F06
:104EE000110F61E08C810E94E51F60E08C810E94BF
:104EF000E51F015069F720C008E017FF02C061E01C
:104F000001C060E08B810E94E51F9AE19A95F1F75C
:104F100000C0110F61E08C810E94E51F8AE18A9533
:104F2000F1F700C060E08C810E94E51F9AE19A953C
:104F3000F1F700C0015009F780E0DF91CF911F9198
:104F40000F910895CF93DF93EC018FE193E00197E8
:104F5000F1F700C00000CE010E94502787EC90E0DE
:104F60000197F1F700C00000CE01DF91CF910C94C2
:104F70000727CF93DF93EC0161E08C810E9414201E
:104F800061E08B810E9414208D818130C1F487E51E
:104F900092E00197F1F700C0000061E08B810E9470
:104FA000E51F61E08C810E94E51F60E08B810E941B
:104FB000E51F60E08C81DF91CF910C94E51F61E0EB
:104FC0008B810E94E51F9AE19A95F1F700C061E09C
:104FD0008C810E94E51F8AE18A95F1F700C060E0AC
:104FE0008B810E94E51F9AE19A95F1F700C060E07D
:104FF0008C810E94E51F8AE18A95F1F700C0DF915C
:10500000CF9108951F93CF93DF93EC01162F0E9449
:10501000B927612F660FCE010E94502780EA8A953A
:10502000F1F7CE01DF91CF911F910C9407270F93D9
:105030001F93CF938C01C62F0E94C928EC2FF0E05C
:10504000EE0FFF1FE35EFE4F8181D80113968C9314
:105050001397808114968C93149715961C92CF9178
:105060001F910F9108950F931F93CF938C01C62F1B
:105070000E941728EC2FF0E0EE0FFF1FE35EFE4FBB
:105080008081F80186831582CF911F910F91089539
:1050900070E080E090E00E9494352CE53FE842EA21
:1050A0005FE30E94EC340E946535862F653B30F447
:1050B000611102C087E008C0643B11F486E204C0BD
:1050C00066E00E94B836885F8093B300089570E070
:1050D00080E090E00E9494352CE53FE842EA5FE3EF
:1050E0000E94EC340E946535862F653B30F46111D7
:1050F00002C087E008C0643B11F486E204C066E0A9
:105100000E94B836885F8093B40008950F931F9370
:10511000CF938C01C62F0E94C928EC2FF0E0EE0F30
:10512000FF1FE35EFE4F8081D80113968C93139787
:10513000918114969C9361E00E94142061E0F80133
:105140008481CF911F910F910C9414200F93FC0137
:10515000A62FB0E080859185A817B907B8F4862FEF
:10516000880F680F70E0A285B385A60FB71F2C9338
:10517000A285B385A60FB71F11964C9382859385A0
:10518000FC01E60FF71F028381E001C080E00F9170
:105190000895DC01E62FF0E0EE0FFF1FE35EFE4F07
:1051A00080818C93818111968C93119712966C93C8
:1051B00008951F93CF93DF93EC01162F0E94C92807
:1051C000E12FF0E0EE0FFF1FE35EFE4F8181282FFD
:1051D00030E0F901EE5BFE4FE491EF83F901E25D0F
:1051E000FE4FE491F0E0EE0FFF1FEA5FFE4F2591C6
:1051F00034913C832B8361E00E94142064E0CE0153
:10520000DF91CF911F910C94621F1F93CF93DF9377
:10521000EC01162F0E94C928E12FF0E0EE0FFF1FCE
:10522000E35EFE4F81818B8380818C838B8160E084
:105230000E9414208C8161E00E9414208C8160E027
:10524000DF91CF911F910C94E51F0F931F93CF9384
:10525000DF93EC01162F4F960E94C928E12FF0E052
:10526000EE0FFF1FE35EFE4F118100811B821A8249
:1052700088EE93E0A0E0B0E08C839D83AE83BF8393
:105280008FE091E0998388831F8A1E8A198E188E79
:105290001B8E1A8E1D8E1C8E6E8D6E7F6D7F6E8F97
:1052A0006695617081E06827812F0E94E51F61E0AB
:1052B000812F0E941420812F90E0FC01EE5BFE4FB5
:1052C000E491E88BFC01E25DFE4FE491F0E0EE0F2B
:1052D000FF1FEA5FFE4F859194919A8B898B60E066
:1052E000802F0E9414208E8D81FD04C061E0802FEC
:1052F0000E94E51F0C87802F90E0FC01EE5BFE4FC3
:10530000E491ED87FC01E25DFE4FE491F0E0EE0FE9
:10531000FF1FEC5DFE4F859194919F878E878FE0F4
:1053200091E09983888383E08AA31B8E1A8E198E5D
:10533000188E1F8A1E8A85E690E09D8F8C8F06311D
:1053400008F04EC081E290E09F8B8E8B83E690E068
:10535000998F888F82E490E09B8F8A8F30916800CC
:10536000083058F021E00E3008F420E091E0892F59
:1053700001C0880F2A95EAF701C084E0832B80934F
:1053800068009C85983038F09E3040F0963148F0A7
:1053900020E030E008C02DE630E005C02BE630E02C
:1053A00002C02CE630E03C8B2B8B983030F481E04F
:1053B00001C0880F9A95EAF70EC0292F30E09E3081
:1053C00018F42850310902C02E50310981E001C083
:1053D000880F2A95EAF78D8B8C8D9D8D0197F1F7BB
:1053E0008A8D9B8D892BE1F080911B0690911C0684
:1053F000C817D907A9F0009711F00E94F6258E8DE5
:105400008E7F8E8F1092190610921A06D0931C066A
:10541000C0931B06EB89FC8990818D89892B808341
:10542000DF91CF911F910F9108950F931F93CF9309
:10543000DF93EC018B810E94BC1F8C018C810E9448
:10544000BC1FAC0121E030E0012B11F420E030E082
:10545000220F331F81E0452B09F480E0822BDF917E
:10546000CF911F910F9108951F93CF93DF93EC017C
:10547000162F0E94C928E12FF0E0EE0FFF1FE35E18
:10548000FE4F80818B8381818C838B8160E00E94C1
:1054900014208C8160E0DF91CF911F910C94142037
:1054A000CF93DF93EC0160E08B810E9414208B810D
:1054B0000E94002220E034E0A901481B590BCA01D8
:1054C000DF91CF910895AF92BF92CF92DF92EF928A
:1054D000FF920F931F93CF93DF935C010AE010E0DC
:1054E000C12CD12C7601C0E0D0E0C5010E94502A29
:1054F000C817D90708F4EC01C80ED91EE11CF11C2D
:105500000150110991F7D701C6018C1B9D0BA10910
:10551000B10923E0B695A795979587952A95D1F778
:10552000DF91CF911F910F91FF90EF90DF90CF907F
:10553000BF90AF900895CF93DF93EC010E9417289E
:1055400081E08D83CE010E94B92767EECE010E94D3
:10555000A22760E8CE010E94A22764EACE010E9441
:10556000A2276AE9CE010E94A22761E8CE010E942B
:10557000A22763E8CE010E94A227CE01DF91CF913E
:105580000C94C2260F931F93CF93DF938C01D62FD9
:10559000C42F0E94B9276D2F660F6A59C8010E9457
:1055A0005027C8010E940727EC2FC7FF07C0EF77DD
:1055B000F0E0E959FE4F6081606804C0F0E0E9590D
:1055C000FE4F6081C8010E945027C801DF91CF9132
:1055D0001F910F910C94C2261F920F920FB60F923B
:1055E00011242F933F938F939F93AF93BF93EF9388
:1055F000FF939091C6008091830681110EC0923571
:1056000009F043C0E091820638ECE39FF0011124D9
:10561000E250FD4F908381E00EC0813091F49234CE
:1056200069F4E091820688ECE89FF0011124E250D1
:10563000FD4F918382E08093830627C010928306FA
:1056400024C02091820638EC239FF0011124E250FF
:10565000FD4FDF01A80FB11D9C938F5F80938306E0
:105660009281891710F4883C80F010928306809113
:105670008E04222321F010928206826004C091E001
:1056800090938206816080938E04FF91EF91BF9189
:10569000AF919F918F913F912F910F900FBE0F90DF
:1056A0001F9018953FB7F8948091890690918A06CB
:1056B000A0918B06B0918C0626B5A89B05C02F3F04
:1056C00019F00196A11DB11D3FBFBA2FA92F982F28
:1056D0008827820F911DA11DB11DBC01CD0142E0A3
:1056E000660F771F881F991F4A95D1F708952FB726
:1056F000F894609185067091860680918706909156
:1057000088062FBF08951F920F920FB60F92112493
:105710002F933F938F939F93AF93BF938091850671
:1057200090918606A0918706B091880630918406F4
:1057300023E0230F2D3720F40196A11DB11D05C0D4
:1057400026E8230F0296A11DB11D209384068093A5
:10575000850690938606A0938706B093880680916D
:10576000890690918A06A0918B06B0918C060196CD
:10577000A11DB11D8093890690938A06A0938B0684
:10578000B0938C06BF91AF919F918F913F912F91D4
:105790000F900FBE0F901F901895CF92DF92EF924F
:1057A000FF920F931F93E82FF92F05C001501109A5
:1057B0002109310961F1908196239417B9F305C04D
:1057C000015011092109310911F190819623941397
:1057D000F7CFC12CD12CE12CF12C0AC08FEFC81AC5
:1057E000D80AE80AF80A0C151D052E053F0579F0C0
:1057F00080818623841791F36C2D7D2D8E2D9F2D16
:105800001F910F91FF90EF90DF90CF90089560E08F
:1058100070E080E090E01F910F91FF90EF90DF909B
:10582000CF900895CF93DF9300D01F92CDB7DEB70E
:10583000789484B5826084BD84B5816084BD85B56B
:10584000826085BD85B5816085BD80916E00816077
:1058500080936E001092810080918100826080931D
:10586000810080918100816080938100809180001F
:105870008160809380008091B10084608093B1004A
:105880008091B00081608093B00080917A00846044
:1058900080937A0080917A00826080937A00809170
:1058A0007A00816080937A0080917A00806880938A
:1058B0007A001092C10060E088E00E94142080917C
:1058C000C00082608093C0001092C50080E1809388
:1058D000C4008091C10080688093C1008091C100A4
:1058E00080618093C1008091C10088608093C10075
:1058F0008091C20084608093C2008091C200826067
:105900008093C2006CE271E080E090E00E944A2344
:1059100061E080914E050E94142060E080914E0568
:105920000E94E51F00E020E040E060E089EB94E0A9
:105930000E940B1FE4E4F1E0E491E093C004E0E393
:10594000F1E0E491F0E0EE0FFF1FEA5FFE4F85917A
:1059500094919093BD048093BC0461E082E00E9426
:10596000142020E040E060E089EB94E00E940B1FEF
:1059700089EB94E00E94D81E6CE271E080E090E038
:105980000E944A2320E04EE160E089EB94E00E940F
:105990000B1F89EB94E00E94D81E6CE271E080E05E
:1059A00090E00E944A232EE140E060E089EB94E021
:1059B0000E940B1F89EB94E00E94D81E6CE271E0FC
:1059C00080E090E00E944A230EE120E040E060E0A9
:1059D00089EB94E00E940B1F89EB94E00E94D81E93
:1059E0006CE271E080E090E00E944A2344EF51E0D5
:1059F00060E070E084EF91E00E94502061E085E07B
:105A00000E94142061E086E00E94142061E089E099
:105A10000E94142061E08AE00E9414208DEA8093A5
:105A200080008BE0809381001092890010928800A2
:105A300010928B0010928A0064EF71E080E090E099
:105A40000E944A2382E50E948D1F82E40E948D1FDE
:105A500086E00E948D1F80E00E948D1F83E00E94DF
:105A60008D1F8DE90E948D1F9FE088E10FB6F8948D
:105A7000A895809360000FBE90936000A89538ECC5
:105A8000832E912CA12CB12C40E0242E40E0342E0A
:105A900050E5652E53EC752EA89580918E0480FFFD
:105AA0003CC08E7F80938E048091000350E040E0E4
:105AB00090E00197252F30E0281739073CF4F901D1
:105AC000E250FD4F2081420F5F5FF4CFFC01E250B6
:105AD000FD4F8081481308C080910203813A10F481
