:100000000C94AB000C94D3000C94D3000C94A52456
:100010000C94A5240C94A5240C94D3000C94D30028
:100020000C94D3000C94D3000C94D3000C9435257D
:100030000C94D3000C94D3000C94D3000C94D300F4
:100040000C94C52A0C94D3000C942E2A0C94D30043
:100050000C94D3000C94D3000C94D3000C94D300D4
:100060000C94D3000C94D30001012B016A076A01A0
:1000700090016A076A076A076A076A076A076A07D8
:100080006A076A076A07CF01FA013802CA02F10259
:10009000AD0297026A07B503C4032F04AE048D05B1
:1000A0006A07DD0684060D2E192E252E6B2E332EA3
:1000B000412E4F2E5D2E792E852EA42EB12EBE2ED2
:1000C0004C2FF12E4C2FE42ECB2E002F0F2F1E2F56
:1000D0002E2F3E2FAD071D084F088A08F608500A3C
:1000E000C40A380B750E750E750E750E750EAC0BB9
:1000F0007C0CFE0C720DE60D0000000024002700B1
:100100002A0000000000250028002B000000000845
:1001100000020100000304070000000000000000CE
:100120000000000023002600290004040404040445
:100130000404020202020202030303030303010296
:100140000408102040800102040810200102040865
:100150001020CE32C83211241FBECFEFD8E0DEBF50
:10016000CDBF11E0A0E0B1E0ECE0FFE602C00590F9
:100170000D92A439B107D9F726E0A4E9B1E001C096
:100180001D92A539B207E1F710E0CAEAD0E004C039
:100190002197FE010E940936C93AD107C9F70E948A
:1001A000542B0C9479370C9400008F929F92AF924D
:1001B000BF92CF92DF92EF92FF920F931F93CF9354
:1001C000DF93CDB7DEB764970FB6F894DEBF0FBEEE
:1001D000CDBFE82EF12C28EC829FF0011124E250D3
:1001E000FD4FE4818E2FEE0F990BAA0BBB0BFC0188
:1001F0003197EF31F10508F06DC6EC5CFF4F0C94C0
:10020000093682E580934E0582E480934F0588E0AD
:100210008093500588EC8E9DF0018F9DF00D112488
:10022000E250FD4F8381809351058AE0809352050F
:1002300081E08093530580935405EEE4F5E025E5D5
:1002400035E080E09191890F2E173F07D9F7809311
:10025000550588E03CC082E580934E0582E480939A
:100260004F051092500588EC8E9DF0018F9DF00D8A
:100270001124E250FD4F83818093510585818230A6
:1002800059F024F4813089F481E009C0833031F0E1
:10029000843059F484E003C082E001C083E00E940E
:1002A000AD2280935205E5E001C0E4E081E08E0FCD
:1002B00080935005AEE4B5E020E090E03D91930FCF
:1002C0002F5FE213FBCFF0E0E25BFA4F90830E94D6
:1002D000CD1E00C682E580934E0582E480934F05D3
:1002E00088EC8E9DF0018F9DF00D1124E250FD4FA2
:1002F00083818093510581E080935205809353055B
:1003000087E080935005EEE4F5E080E09191890F5D
:1003100095E0E435F907D1F78093540587E0D7CF0E
:1003200082E580934E0582E480934F05109250053C
:1003300088EC8E9DF0018F9DF00D1124E250FD4F51
:1003400083818093510581E00E94AD228093520504
:1003500082E00E94AD228093530583E00E94AD228B
:100360008093540584E00E94AD228093550510923D
:1003700056051092570510925805109259058DE0B8
:1003800080935005EEE4F5E080E09191890FA5E0BF
:10039000EA35FA07D1F780935A058DE098CF88ECBB
:1003A0008E9DF0018F9DF00D1124E250FD4F85814F
:1003B0008C3F99F0882341F08B3F09F064C500859C
:1003C0002781468161E00DC000852781468160E07C
:1003D00087EB94E00E94441E08C000852781468177
:1003E00060E087EB94E00E94CF2787EB94E00E94C7
:1003F000111E49C588EC8E9D80018F9D100D112422
:1004000002501D4FF80185818F3F49F1882369F023
:100410008E3F09F038C5F8016681062E000C770B77
:10042000880B990B0E94F81F2EC52781022E000C05
:10043000330B440B550B6681062E000C770B880B93
:10044000990B0E942921F801868181111CC58781A1
:10045000811119C51092C3041092C60414C5668197
:10046000062E000C770B880B990B0E94BE200BC543
:1004700088EC8E9D80018F9D100D112402501D4F20
:10048000D80115968C910E94AD22029709F0FBC409
:100490008091B5049091B604009741F480E190E01A
:1004A0000E9423366C01F801658116C0DC011296AA
:1004B0004C9150E0F8012581022E000C330B4217BD
:1004C000530789F00E94BB3680E190E00E942336FA
:1004D0006C01D80115966C91C6010E945C27D092E0
:1004E000B604C092B50488EC8E9DF0018F9DF00D8E
:1004F0001124E250FD4FD084C780B6800091B5042E
:100500001091B60460E4C8010E942B2761EAC8017B
:100510000E94CB266B2DC8010E94CB266C2DC801F2
:100520000E94CB266D2DC8010E94CB261AC188ECF3
:100530008E9DF0018F9DF00D1124E250FD4F8581BD
:10054000893F09F0A0C48681882321F081E080934F
:100550008F0499C410928F0496C488EC8E9DF0018C
:100560008F9DF00D1124E250FD4F8681882329F0E4
:10057000813029F48093C70402C01092C7041092FE
:100580009104109292041092930410929404109289
:10059000900479C488EC8E9DF0018F9DF00D11249C
:1005A000E250FD4F85818A3F09F06DC4408550E0DF
:1005B000542F44278185482B60E070E0868190E0CD
:1005C000982F88272781822B0E94891F61E08091C4
:1005D0004C050E944D1F60E080914C050E941E1F3B
:1005E00052C488EC8E9D80018F9D100D1124025005
:1005F0001D4FF80185810E94AD22039709F043C485
:100600008091B3049091B404009749F486E090E09F
:100610000E9423366C01D80115966C9115C0FC011F
:10062000428150E0D80115962C91022E000C330B1C
:100630004217530781F00E94BB3686E090E00E948B
:1006400023366C01F8016581C6010E94C429D0924D
:10065000B404C092B3040091B3041091B40488ECC4
:100660008E9DF0018F9DF00D1124EC5FFC4F63E136
:10067000808190E0982F88272181822BAC014A7AD3
:100680005A7A5695479585759575880F991F482B09
:10069000592B9A012C7C3C7C3695279536952795CD
:1006A00043735373440F551F440F551F242B352B91
:1006B000C901807F907FB4E096958795BA95E1F760
:1006C0002F703F7044E0220F331F4A95E1F7822BD1
:1006D000932B982789279827880F991F880F991F90
:1006E0002FEF260FA1E0B0E0AC0FBD1FA60FB11D8C
:1006F0008C936250A1E0B0E0AC0FBD1FA20FB11D02
:100700009C9332966F3F09F0B3CFC8010E94E22656
:1007100067EEC8010E94CB2660E0C8010E94CB268C
:10072000CE0101965C016E0195E1C90ED11CD50187
:100730009D915D01892F8C7C682F669566959373DA
:10074000B4E09B9FC0011124862B682F6A7A6695BE
:100750008575880F682BC8010E94CB26CA14DB045C
:1007600031F7C8010E94EB258EC388EC8E9DF00105
:100770008F9DF00D1124E250FD4F85818093C304BD
:1007800086818093C6047FC388EC8E9D80018F9DF7
:10079000100D112402501D4FF80185810E94AD22D9
:1007A000059709F070C38091A9049091AA0400975D
:1007B00049F485E090E00E9423366C01D80115963B
:1007C0006C9115C0FC01428150E0D80115962C9126
:1007D000022E000C330B42175307B1F00E94BB36B8
:1007E00085E090E00E9423366C01F8016581C60126
:1007F0000E94AF27D092AA04C092A90483EA8093F2
:10080000B00087E08093B10088EC8E9DF0018F9D51
:10081000F00D1124E250FD4F8681813081F082304D
:10082000B1F0811130C3D0840091A9041091AA04C1
:100830006781C8010E9490276D2DC8010DC0678196
:100840008091A9049091AA040E9490271CC36781FB
:100850008091A9049091AA040E94712714C388EC86
:100860008E9D80018F9D100D112402501D4FD801C7
:1008700015968C910E94AD22099709F004C38091CE
:10088000AB049091AC04009771F0FC01428150E000
:10089000D80115962C91022E000C330B42175307EA
:1008A00091F00E94BB3686E090E00E9423366C01F6
:1008B000F80165810E944027D60115961C92D092BE
:1008C000AC04C092AB0488EC8E9DF0018F9DF00DBE
:1008D0001124E250FD4F86818130F1F0823061F1C8
:1008E0008111D1C227818091AB049091AC0427FF84
:1008F00006C0332721950CF4309541E001C040E05B
:1009000061E00E94A43288EC8E9DF0018F9DF00D75
:100910001124E250FD4F10C027818091AB049091CB
:10092000AC0427FF06C0332721950CF4309541E035
:1009300001C040E061E00FC020858091AB04909140
:10094000AC0427FF06C0332721950CF4309541E015
:1009500001C040E062E00E94A43295C288EC8E9D06
:1009600080018F9D100D112402501D4FF8018581CB
:100970000E94AD220C9709F086C2E091A304F09189
:10098000A404D80115968C91309729F40E94AD22C9
:100990000C9781F513C0228130E0482F082E000CFF
:1009A000550B2417350731F10E94AD220C9711F534
:1009B0008091A3049091A4040E94BB3686E090E04D
:1009C0000E9423366C01F80165810E94402781E076
:1009D000D60115968C93D092A404C092A30467E725
:1009E000C6010E94883164E78091A3049091A40419
:1009F0000E94883188E4EEE6F2E0DF011D928A95DC
:100A0000E9F788EC8E9D90018F9D300D11242250C6
:100A10003D4F80E090E0FC01E25BFF4FE20FF31FEF
:100A20004081042E000C550BFC01EE0FFF1FE25914
:100A3000FD4F5183408301968834910561F788E426
:100A4000EEEDF1E0DF011D928A95E9F780E090E09C
:100A5000F901E80FF91F4681042E000C550BFC012B
:100A6000EE0FFF1FE252FE4F518340830196883400
:100A7000910571F72EEB31E04EEC51E06EED71E037
:100A80008091A3049091A4040E948D0E2EE931E080
:100A90004EEA51E06EE672E08091A3049091A404C6
:100AA0000E948D0EC090A304D090A40420E04DEFCE
:100AB00067E7C6010E94F91D00E110E02EEC31E06D
:100AC00040E067E7C6010E94C21D20E04DEF64E7E9
:100AD000C6010E94F91D2EEA31E040E064E7C6013C
:100AE0000E94C21D21E04DEF67E7C6010E94F91D7B
:100AF0002EEB31E040E067E7C6010E94C21D21E015
:100B00004DEF64E7C6010E94F91D2EE931E040E097
:100B100064E7C6010E94C21DB6C188EC8E9D8001AB
:100B20008F9D100D112402501D4FF80185810E94E8
:100B3000AD220B9709F0A7C1C090A504D090A604E0
:100B4000C114D10449F483E290E00E9423366C0181
:100B5000D80115966C911DC0F60121A130E0D80195
:100B600015968C91082E000C990B28173907C1F0A7
:100B70008FE091E091838083C6010E941F25C6010A
:100B80000E94BB3683E290E00E9423366C01F8019C
:100B90006581C6010E944E28D092A604C092A50489
:100BA000C090A504D090A60488EC8E9DF0018F9D86
:100BB000F00D1124E250FD4F1681D60192968C91D2
:100BC000929790E0212F012E000C330B8217930790
:100BD00059F192961C938AEA8093940182E0809363
:100BE000950181E0809396011093970186E5812716
:100BF0008093980124E9A22E21E0B22E39E9832EB8
:100C000031E0932EF50161915F01C6010E94192424
:100C10008A149B04B9F7D60192961C9362E370E0A4
:100C200080E090E00E94732288EC8E9DF0018F9D01
:100C3000F00D1124E250FD4F208587810091A5041D
:100C40001091A6049AEA909394018093950191E003
:100C500090939601209397019BEA8927822780959C
:100C60008093980184E9C82E81E0D82E99E9A92EB5
:100C700091E0B92EF60161916F01C8010E9419241B
:100C8000AC14BD04B9F762E370E080E090E00E942C
:100C900073228091A5049091A6040E941F250091C3
:100CA000A5041091A6040115110559F08FE091E0FB
:100CB000D8018D939C93C8010E941F25C8010E94F2
:100CC000BB361092A6041092A50488EC8E9D80017C
:100CD0008F9D100D112402501D4FD8011596EC91D7
:100CE000EE0FFF0BE35EFE4F60E080810E944D1F20
:100CF000D8011596EC91EE0FFF0BE35EFE4F60E01E
:100D000081810E944D1FBFC088EC8E9D80018F9D08
:100D1000100D112402501D4FF80185810E94AD2253
:100D2000439709F0B0C0C090A104D090A204C114B0
:100D3000D10449F48CE090E00E9423366C01D80184
:100D400015966C911AC0F601228130E0D8011596F3
:100D50008C91082E000C990B28173907A9F0828571
:100D600093850E94BB36C6010E94BB368CE090E0A2
:100D70000E9423366C01F8016581C6010E94022899
:100D8000D092A204C092A10488EC8E9DF0018F9DA8
:100D9000F00D1124E250FD4F0185208547816681C9
:100DA0008091A1049091A2040E94441E8091A1040C
:100DB0009091A2040E94111E8DC088EC8E9D80012E
:100DC0008F9D100D112402501D4FD80115968C9146
:100DD0000E94AD22429709F056C080919F049091E5
:100DE000A004009771F0FC01428150E0D8011596F3
:100DF0002C91022E000C330B42175307A9F00E94CE
:100E0000BB3686E090E00E9423366C01F8016581D4
:100E10000E944027D60115961C92D092A004C09241
:100E20009F04C6010E94E01E88EC8E9D80018F9D6C
:100E3000100D112402501D4FF801468161E0809190
:100E40009F049091A0040E94042AD80117964C9107
:100E500062E080919F049091A0040E94042AF8010E
:100E6000408563E080919F049091A0040E94042A31
:100E7000D80119964C9164E080919F049091A00450
:100E80000E94042A27C082E580934E0582E4809365
:100E90004F0588EC8E9DF0018F9DF00D1124E250DE
:100EA000FD4F93819093510581E08093520586E038
:100EB00080935005EEE4F5E023E535E080E04191D4
:100EC000840F2E173F07D9F780935305992311F00C
:100ED00086E0FDC964960FB6F894DEBF0FBECDBFA5
:100EE000DF91CF911F910F91FF90EF90DF90CF9006
:100EF000BF90AF909F908F90089580E090E008950C
:100F00002F923F924F925F926F927F928F929F9219
:100F1000AF92BF92CF92DF92EF92FF920F931F9307
:100F2000CF93DF9300D000D01F92CDB7DEB7082F4C
:100F300010E028EC829FF0011124E250FD4FE48183
:100F40008E2F90E0FC01E15AF109E231F10508F041
:100F5000CCC6E659FF4F0C94093628EC209FC001FF
:100F6000219F900D1124AC0142505D4F7A01FA018E
:100F700085810E94AD22029709F0B7C68091B50421
:100F80009091B604009769F0FC01428150E0F701AE
:100F90002581022E000C330B4217530779F00E9473
:100FA000BB3680E190E00E9423366C01F701658139
:100FB0000E945C27D092B604C092B5048091B5041B
:100FC0009091B6040E94DE2220E030E040E251E43D
:100FD0000E947C350E948F349B0142E540934E0570
:100FE00042E440934F0548EC409FF001419FF00DD3
:100FF0001124E250FD4F43814093510541E040935D
:101000005205AB0177FF02C041505F4F509353052B
:10101000C90160E071E00E94F5358093540588E0D5
:1010200080935005EEE4F5E025E535E080E0919110
:10103000890F2E173F07D9F73CC688EC809FF00137
:10104000819FF00D1124E250FD4F8581893F09F009
:101050004CC682E580934E0582E480934F05109242
:10106000500583818093510511E01093520588E06B
:101070000E94F51E019719F41092530502C01093B7
:10108000530587E080935005EEE4F5E024E535E074
:1010900080E09191890F2E173F07D9F759C328ECAB
:1010A000209FC001219F900D11248C0102501D4FE3
:1010B000F80185818D3F09F018C685E10E9439212C
:1010C00022E3AC01249FC001259F900D112422E54D
:1010D00020934E0522E420934F05F80123812093AD
:1010E000510521E0209352056FEF73E00E94F53522
:1010F000862F880F680F6093530587E08093500513
:10110000EEE4F5E080E09191890F25E0E435F20707
:10111000D1F71EC38091C4049091C5040097B1F427
:1011200085E090E00E9423367C0188EC809FF001EE
:10113000819FF00D1124E250FD4F6581C7010E948F
:101140005D29F092C504E092C40424C0FC014281F0
:1011500050E068EC609F9001619F300D1124B9014F
:1011600062507D4F7B01FB012581022E000C330B69
:101170004217530779F00E94BB3685E090E00E9449
:1011800023366C01F70165810E945D29D092C50468
:10119000C092C40482E580934E0582E480934F059B
:1011A0001092500588EC809FF001819FF00D112472
:1011B000E250FD4F83818093510581E08093520579
:1011C0008091C4049091C5040E943E2980935305E8
:1011D00087E080935005EEE4F5E024E535E080E01B
:1011E0009191890F2E173F07D9F7B2C228EC209FA3
:1011F000C001219F900D11249C0122503D4F790187
:10120000F90185810E94AD22069709F06EC5809193
:10121000B1049091B204009769F0FC01428150E062
:10122000F7012581022E000C330B42175307C9F03A
:101230000E94BB3686E090E00E9423366C01F701E5
:10124000F5806F2D0E94F227EF2DF0E0EE0FFF1FCB
:10125000E35EFE4F8181F6018583D092B204C09295
:10126000B104E090B104F090B2049E012F5F3F4FB3
:10127000190185E0F90111928A95E9F761E0F7011A
:1012800085810E944D1F61E0F70185810E941E1F2C
:101290006AEF70E080E090E00E94732260E0F70166
:1012A00085810E941E1F64E170E080E090E00E9452
:1012B000732261E0F70185810E941E1F8BE990E097
:1012C0000197F1F760E0F70185810E941E1F83E21C
:1012D00090E00197F1F70E94B92A4B015C0162E0AE
:1012E000F70185810E944D1FF70185810E94F51E3F
:1012F000019779F00E94B92ADC01CB01881999097C
:10130000AA09BB090597A105B10570F3F70113827E
:1013100014820E94B92A4B015C0162E0F7018581C9
:101320000E944D1FF70185810E94F51E892B19F43B
:10133000C12CD12C51C00E94B92ADC01CB018819E3
:101340009909AA09BB090597A105B10558F3F0CF82
:101350000E94B92ADC01CB0188199909AA09BB09A5
:101360000597A105B10530F4F70185810E94F51EAE
:10137000892B71F30E94942A4B015C010E94B92AC7
:101380002B013C0162E0F70185810E944D1FF701AE
:1013900085810E94F51E019749F10E94942ADC0183
:1013A000CB0188199909AA09BB09F60123E0F59533
:1013B000E7952A95E1F78997A105B10520F1E20D9E
:1013C000F31D8081880F81608083FFEFCF1ADF0AD1
:1013D00028E2C216D104E1F00E94B92A4B015C0157
:1013E00062E0F70185810E944D1FBECF0E94B92A9D
:1013F000DC01CB0184199509A609B7090597A10558
:10140000B10528F2CACFE20DF31D8081880FDCCF31
:1014100059814B812D8130E06A81852F90E0860FC4
:10142000911D840F911D6C81860F911D992728179E
:10143000390719F4F7015383448382E580934E05FD
:1014400082E480934F0588EC809FF001819FF00D2E
:101450001124E250FD4F83818093510581E08093F8
:101460005205E091B104F091B20483818093530559
:1014700010925405848180935505109256058AE098
:1014800080935005EEE4F5E027E535E080E09191AA
:10149000890F2E173F07D9F7809357058AE00CC4B0
:1014A0008091AF049091B0040097B1F484E090E093
:1014B0000E9423367C0188EC809FF001819FF00D13
:1014C0001124E250FD4F6581C7010E94D725F0929B
:1014D000B004E092AF0424C0FC01428150E068EC0B
:1014E000609F9001619F300D1124B90162507D4FC2
:1014F0007B01FB012581022E000C330B42175307A1
:1015000079F00E94BB3684E090E00E9423366C01A3
:10151000F70165810E94D725D092B004C092AF0434
:1015200082E580934E0582E480934F05109250052A
:1015300088EC809FF001819FF00D1124E250FD4F57
:1015400083818093510581E0809352058091AF049F
:101550009091B0040E948C29909353058091AF0420
:101560009091B0040E948C298093540588E0809368
:101570005005EEE4F5E025E535E080E09191890F36
:101580002E173F07D9F795C38091AD049091AE0413
:101590000097B1F484E090E00E9423367C0188EC4F
:1015A000809FF001819FF00D1124E250FD4F658175
:1015B000C7010E94D725F092AE04E092AD0424C08A
:1015C000FC01428150E068EC609F9001619F300D0A
:1015D0001124B90162507D4F7B01FB012581022E50
:1015E000000C330B4217530779F00E94BB3684E09E
:1015F00090E00E9423366C01F70165810E94D72597
:10160000D092AE04C092AD0482E580934E0582E490
:1016100080934F051092500588EC809FF001819FC8
:10162000F00D1124E250FD4F83818093510581E03C
:10163000809352058091AD049091AE040E9499254B
:10164000909353058091AD049091AE040E9499252A
:101650008093540588E080935005EEE4F5E025E59D
:1016600035E080E09191890F2E173F07D9F721C30C
:101670008091A7049091A8040097B1F485E090E0D0
:101680000E9423367C0188EC809FF001819FF00D41
:101690001124E250FD4F6581C7010E942E28F0926F
:1016A000A804E092A70424C0FC01428150E068EC49
:1016B000609F9001619F300D1124B90162507D4FF0
:1016C0007B01FB012581022E000C330B42175307CF
:1016D00079F00E94BB3685E090E00E9423366C01D1
:1016E000F70165810E942E28D092A804C092A70419
:1016F00082E580934E0582E480934F051092500559
:1017000088EC809FF001819FF00D1124E250FD4F85
:1017100083818093510581E080935205E091A70475
:10172000F091A80483810E94F51E21E0892B09F025
:1017300020E02093530587E080935005EEE4F5E028
:1017400024E535E080E09191890F2E173F07D9F706
:101750008093540587E0B0C280919D0490919E04CF
:101760000097B1F485E090E00E9423367C0188EC7C
:10177000809FF001819FF00D1124E250FD4F6581A3
:10178000C7010E94EB29F0929E04E0929D0424C0C0
:10179000FC01428150E068EC609F9001619F300D38
:1017A0001124B90162507D4F7B01FB012581022E7E
:1017B000000C330B4217530779F00E94BB3685E0CB
:1017C00090E00E9423366C01F70165810E94EB29AD
:1017D000D0929E04C0929D04E0909D04F0909E04DF
:1017E00060E0F70183810E944D1FF70183810E9411
:1017F00039219C01205D3240121613064CF446EF4D
:101800004203C001439F900D112466E070E008C0C0
:1018100049EF4203C001439F900D11246AE070E03C
:101820000E94F5357B01C0909D04D0909E0460E03D
:10183000F60184810E944D1FF60184810E943921A6
:101840009C01205D3240121613064CF446EF420311
:10185000C001439F900D112466E070E008C049EF7D
:101860004203C001439F900D11246AE070E00E9482
:10187000F53582E580934E0582E480934F0588EC30
:10188000809FF001819FF00D1124E250FD4F838174
:101890008093510581E080935205F7FC82E08093AC
:1018A0005305C701F7FE03C0919581959109909367
:1018B00054058093550577FD02C081E001C082E0A8
:1018C0008093560577FF03C07195619571097093F8
:1018D0005705609358058CE080935005EEE4F5E0E1
:1018E00029E535E080E09191890F2E173F07D9F760
:1018F000809359058CE0E0C180919B0490919C04F9
:101900000097B1F485E090E00E9423367C0188ECDA
:10191000809FF001819FF00D1124E250FD4F658101
:10192000C7010E94EB29F0929C04E0929B0424C022
:10193000FC01428150E068EC609F9001619F300D96
:101940001124B90162507D4F7B01FB012581022EDC
:10195000000C330B4217530779F00E94BB3685E029
:1019600090E00E9423366C01F70165810E94EB290B
:10197000D0929C04C0929B0482E580934E0582E441
:1019800080934F051092500588EC809FF001819F55
:10199000F00D1124E250FD4F83818093510581E0C9
:1019A0008093520500919B0410919C0460E0F80123
:1019B00084810E944D1FF80184810E9439219093F7
:1019C000530500919B0410919C0460E0F801848110
:1019D0000E944D1FF80184810E9439218093540593
:1019E00088E080935005EEE4F5E025E535E080E001
:1019F0009191890F2E173F07D9F75BC18091990408
:101A000090919A040097B1F484E090E00E9423360C
:101A10007C0188EC809FF001819FF00D1124E25041
:101A2000FD4F6581C7010E94D725F0929A04E0928C
:101A3000990424C0FC01428150E068EC609F900151
:101A4000619F300D1124B90162507D4F7B01FB0174
:101A50002581022E000C330B4217530779F00E94A8
:101A6000BB3684E090E00E9423366C01F70165816B
:101A70000E94D725D0929A04C092990482E580935F
:101A80004E0582E480934F051092500588EC809FAC
:101A9000F001819FF00D1124E250FD4F838180936E
:101AA000510581E0809352058091990490919A04A8
:101AB0000E947929909353058091990490919A04FA
:101AC0000E9479298093540588E080935005EEE4C4
:101AD000F5E025E535E080E09191890F2E173F076D
:101AE000D9F7E7C080919704909198040097B1F4DA
:101AF00084E090E00E9423367C0188EC809FF00116
:101B0000819FF00D1124E250FD4F6581C7010E94B5
:101B1000D725F0929804E092970424C0FC014281FA
:101B200050E068EC609F9001619F300D1124B90175
:101B300062507D4F7B01FB012581022E000C330B8F
:101B40004217530779F00E94BB3684E090E00E9470
:101B500023366C01F70165810E94D725D092980445
:101B6000C092970482E580934E0582E480934F05EE
:101B70001092500588EC809FF001819FF00D112498
:101B8000E250FD4F83818093510581E0809352059F
:101B900080919704909198040E9499259093530501
:101BA00080919704909198040E9499258093540500
:101BB00088E080935005EEE4F5E025E535E080E02F
:101BC0009191890F2E173F07D9F773C08091950423
:101BD000909196040097B1F484E090E00E9423363F
:101BE0007C0188EC809FF001819FF00D1124E25070
:101BF000FD4F6581C7010E94D725F0929604E092BF
:101C0000950424C0FC01428150E068EC609F900183
:101C1000619F300D1124B90162507D4F7B01FB01A2
:101C20002581022E000C330B4217530779F00E94D6
:101C3000BB3684E090E00E9423366C01F701658199
:101C40000E94D725D0929604C092950482E5809395
:101C50004E0582E480934F051092500588EC809FDA
:101C6000F001819FF00D1124E250FD4F838180939C
:101C7000510581E0809352058091950490919604DE
:101C80000E94992590935305809195049091960414
:101C90000E9499258093540588E080935005EEE4D6
:101CA000F5E025E535E080E09191890F2E173F079B
:101CB000D9F78093550588E00F900F900F900F9003
:101CC0000F90DF91CF911F910F91FF90EF90DF90D8
:101CD000CF90BF90AF909F908F907F906F905F90CC
:101CE0004F903F902F900C94CD1E0F900F900F901F
:101CF0000F900F90DF91CF911F910F91FF90EF9078
:101D0000DF90CF90BF90AF909F908F907F906F901B
:101D10005F904F903F902F9008952F923F924F9257
:101D20005F926F927F928F929F92AF92BF92CF926B
:101D3000DF92EF92FF920F931F93CF93DF93CDB774
:101D4000DEB7C451D1400FB6F894DEBF0FBECDBF91
:101D5000FB011A012901A280B3806481758146814B
:101D6000578120853185350101E060227724730198
:101D700083E0EE0CFF1C8A95E1F74B0111E0812214
:101D8000992496E0880C991C9A95E1F73701682808
:101D90007928C080D18087E0C822DD2443018C28C7
:101DA0009D286A0191E0C922DD24DC2CCC24DD0CC5
:101DB000C828D9287901A1E0EA22FF24FE2CEE24CC
:101DC000F29470EFF722EC28FD28A1FABB27B0F9B6
:101DD000CD5EDE4FB883C351D140CC5EDE4F18825A
:101DE000C451D140CD5EDE4F08811981C351D1402D
:101DF000A4E0000F111FAA95E1F7E02AF12AA2FA48
:101E0000AA27A0F9B0E015E0AA0FBB1F1A95E1F7C9
:101E1000EA2AFB2A61FB882780F990E09695982FA3
:101E2000882797958795E82AF92A62FB662760F943
:101E3000162F00E0E02AF12A41FB882780F9880F5D
:101E4000880F8A83198289819A81E82AF92A42FBBC
:101E5000442740F9440F440F440F4C831B82AB814D
:101E6000BC81EA2AFB2A21FB882780F98295880F0A
:101E7000807E8E831D820D811E81E02AF12A22FB45
:101E8000222720F92295220F220F207C28871F82EB
:101E90008F819885E82AF92AD101EC921196FC925B
:101EA000E684F784FA82E98240895189228933895C
:101EB00084899589870101701127780163E0EE0C10
:101EC000FF1C6A95E1F7DA01A170BB2776E0AA0F43
:101ED000BB1F7A95E1F787010A2B1B2BD901A17053
:101EE000BB27BA2FAA27BB0FA02BB12BBC01617057
:101EF0007727762F66277295707F6A2B7B2B098157
:101F00000695017009871A86A985BA8514E0AA0F7B
:101F1000BB1F1A95E1F76A2B7B2B198112FB112746
:101F200010F91B871C86AB85BC8505E0AA0FBB1F7B
:101F30000A95E1F76A2B7B2B41FBAA27A0F9AD8715
:101F40001E86AD85BE85B695BA2FAA27B795A795EB
:101F5000A62BB72B42FB442740F9488B1F86EF8402
:101F6000F888AE29BF2921FB992790F9990F990F7D
:101F70009A8B198A09891A89A02BB12B22FB222757
:101F800020F9220F220F220F2C8B1B8AEB88FC8852
:101F9000AE29BF2981FB992790F99295990F907EE0
:101FA0009E8B1D8A0D891E89A02BB12B82FB882751
:101FB00080F98295880F880F807C888F1F8A2F89EF
:101FC000388D2A2B3B2BD10112962C931297139606
:101FD0003C9384859585E28CF38CFA82E982648D4A
:101FE000758D468D578D22853385DC01A170BB2709
:101FF000AA0FBB1F81FBFF24F0F8F98E1A8E098D02
:102000001A8DA02BB12B847099278A2B9B2BA98129
:10201000BA81A170BB2703E0AA0FBB1F0A95E1F7A5
:102020008A2B9B2BDB01A170BB2776E0AA0FBB1F7D
:102030007A95E1F7A82BB92BCA0181709927982FBF
:102040008827990F8A2B9B2B890101701127102F4C
:1020500000271295107F082B192B89818695817096
:102060008B8F1C8E8B8D9C8D54E0880F991F5A95F9
:10207000E1F7082B192BE2FA992790F99D8F1E8E14
:102080008D8D9E8D75E0880F991F7A95E1F7082B4D
:10209000192B61FBAA27A0F9AF8F18A28F8D98A1E9
:1020A0009695982F882797958795802B912B62FB83
:1020B000662760F96AA319A2E9A0FAA08E299F29D0
:1020C00041FB332730F9330F330F3CA31BA20BA185
:1020D0001CA1802B912B42FB442740F9440F440F55
:1020E000440F4EA31DA2ADA1BEA18A2B9B2B21FBA9
:1020F000332730F93295330F307E38A71FA2EFA077
:10210000F8A48E299F2922FB222720F92295220F4D
:10211000220F207C2AA719A609A51AA5802B912B8E
:10212000D10114968C93149715969C93608D718DA4
:1021300006A117A140A551A522A533A58689978997
:102140007B01B1E0EB22FF246701CC0CDD1CD80140
:10215000A170BB2713E0AA0FBB1F1A95E1F77D0101
:10216000EC28FD28DA01A170BB2756E0AA0FBB1F9F
:102170005A95E1F7AE29BF29BA83A983D901A17085
:10218000BB27BA2FAA27BB0FC980DA80CA2ADB2A4D
:102190007C01B1E0EB22FF245701BA2CAA24B294AF
:1021A000A0EFBA22D601AA29BB2961FBEE24E0F8F0
:1021B000EBA61CA6EBA4FCA4EE0CFF1CEE0CFF1C73
:1021C000AE29BF2962FB662760F967956627679588
:1021D0006EA71DA6EDA4FEA4AE29BF2901FBFF2416
:1021E000F0F8FFA618AAEFA4F8A894E0EE0CFF1CE4
:1021F0009A95E1F7AE29BF2902FBFF24F0F8F9AA6E
:102200001AAA09A91AA935E0000F111F3A95E1F79A
:10221000A02BB12B41FB112710F91BAB1CAAEBA87B
:10222000FCA8F694FE2CEE24F794E794AE29BF297F
:1022300042FB442740F94EAB1DAA0DA91EA9A02BB5
:10224000B12B21FB992790F9990F990F98AF1FAAED
:10225000EFA8F8ACAE29BF2922FB222720F9220FD4
:10226000220F220F2AAF19AE09AD1AADA02BB12B48
:1022700081FB992790F99295990F907E9CAF1BAEA8
:10228000EBACFCACAE29BF2982FB882780F9829594
:10229000880F880F807C8EAF1DAE2DAD3EAD2A2BF2
:1022A0003B2BD10116962C93169717963C93E4A0DE
:1022B000F5A0FA82E98244A955A920A131A182A101
:1022C00093A18701017011277801EE0CFF1CDA0140
:1022D000A170BB2776E0AA0FBB1F7A95E1F78701B3
:1022E0000A2B1B2BD901A170BB27BA2FAA27BB0F22
:1022F000A02BB12BBC0161707727762F66277295D2
:10230000707F6A2B7B2B0981069501700FAF219698
:102310001FAE21972196AEADBFAD2197AA0FBB1F6F
:10232000AA0FBB1F6A2B7B2B198112FB112710F9F7
:1023300022961FAF229723961FAE23972396AEAD0A
:10234000BFAD239703E0AA0FBB1F0A95E1F76A2BE5
:102350007B2B41FBAA27A0F92496AFAF24972596A3
:102360001FAE25972596AEADBFAD2597B695BA2F72
:10237000AA27B795A795A62BB72B42FB442740F970
:1023800027964FAF279726961FAE26972796EEAC37
:10239000FFAC2797AE29BF2921FB992790F9990F08
:1023A000990F29969FAF299728961FAE28972996AF
:1023B0000EAD1FAD2997A02BB12B22FB222720F9B0
:1023C000220F220F220F2B962FAF2B972A961FAE8C
:1023D0002A972B96EEACFFAC2B97AE29BF2981FB39
:1023E000992790F99295990F907E2D969FAF2D97F2
:1023F0002C961FAE2C972D960EAD1FAD2D97A02BB2
:10240000B12B82FB882780F98295880F880F807C0A
:102410002F968FAF2F972E961FAE2E972F962EADFD
:102420003FAD2F972A2B3B2BD10118962C93189751
:1024300019963C93C2A8D3A8A0A8B1A8CF01805CEC
:102440009F4FDC014D915C9124A535A586A597A5EC
:10245000B60161707727A4E0660F771FAA95E1F7B0
:10246000C1FABB27B0F96096BFAF609761961FAE07
:1024700061976196EEACFFAC6197E62AF72AB50149
:1024800061707727660F771F6E297F298A01017097
:10249000112756E0000F111F5A95E1F7602B712BA1
:1024A000890101701127102F0027110F062B172B00
:1024B000BC0161707727762F66277295707F062B97
:1024C000172BC2FAEE24E0F86296EFAE629763969D
:1024D0001FAE639763966EAD7FAD639795E0660F11
:1024E000771F9A95E1F7062B172BA1FAFF24F0F836
:1024F0006496FFAE649765961FAE659765966EAD60
:102500007FAD6597660F771F660F771F062B172B1A
:10251000A2FA662760F966966FAF669767961FAE58
:10252000679767966EAD7FAD679753E0660F771F2D
:102530005A95E1F7062B172B41FB772770F9689620
:102540007FAF689769961FAE699769966EAD7FAD4C
:1025500069977695762F662777956795602B712B0F
:1025600042FB442740F96B964FAF6B976A961FAEBC
:102570006A976B96AEADBFAD6B976A2B7B2B21FB39
:10258000992790F9990F990F6D969FAF6D976C965B
:102590001FAE6C976D96EEACFFAC6D976E297F29E0
:1025A00022FB222720F9220F220F220F6F962FAF36
:1025B0006F976E961FAE6E976F960EAD1FAD6F97AD
:1025C000602B712B81FB992790F99295990F907E42
:1025D000A1969FAFA197A0961FAEA097A196AEAD72
:1025E000BFADA1976A2B7B2B82FB882780F9829550
:1025F000880F880F807CA3968FAFA397A2961FAEFB
:10260000A297A396EEACFFACA3976E297F29D101C8
:102610001A966C931A971B967C9304AD15AD66AD14
:1026200077AD46A957A920AD31AD82AD93AD780104
:10263000B1E0EB22FF246701CC0CDD1CDB01A170B3
:10264000BB2714E0AA0FBB1F1A95E1F77D01EC2808
:10265000FD28DA01A170BB2756E0AA0FBB1F5A95CF
:10266000E1F7AE29BF29BA83A983D901A170BB279D
:10267000BA2FAA27BB0FC980DA80CA2ADB2A7C01BD
:10268000B1E0EB22FF245701BA2CAA24B294A0EFA8
:10269000BA22D601AA29BB2901FBEE24E0F8A496B0
:1026A000EFAEA497A5961FAEA597A596EEACFFAC8E
:1026B000A597EE0CFF1CEE0CFF1CAE29BF2902FBF8
:1026C000FF24F0F8A696FFAEA697A7961FAEA79791
:1026D000A7960EAD1FADA79793E0000F111F9A9517
:1026E000E1F7A02BB12B61FB112710F9A8961FAFC2
:1026F000A897A9961FAEA997A996EEACFFACA9978B
:1027000035E0EE0CFF1C3A95E1F7EA2AFB2A62FB62
:10271000662760F9679566276795AB966FAFAB97AD
:10272000AA961FAEAA97AB960EAD1FADAB97E02A47
:10273000F12A41FB112710F9AC961FAFAC97AD966B
:102740001FAEAD97AD96AEADBFADAD97B695BA2FF6
:10275000AA27B795A795EA2AFB2A42FB442740F906
:10276000AF964FAFAF97AE961FAEAE97AF96AEADEA
:10277000BFADAF97EA2AFB2A21FB992790F9990F61
:10278000990FE1969FAFE197E0961FAEE097E19633
:102790000EAD1FADE197E02AF12A22FB222720F996
:1027A000220F220F220FE3962FAFE397E2961FAE80
:1027B000E297E396AEADBFADE397EA2AFB2A81FB31
:1027C000992790F99295990F907EE5969FAFE5979E
:1027D000E4961FAEE497E5960EAD1FADE597E02AAF
:1027E000F12A82FB882780F98295880F880F807CE8
:1027F000E7968FAFE797E6961FAEE697E7968EAD22
:102800009FADE797E82AF92AD1011C96EC921C9714
:102810001D96FC92DF01A85BBF4FCD90DC90119715
:102820001296AD90BC90CF018C5B9F4FDC012D9137
:102830003C910296DC018D919C91860101701127DB
:102840007801EE0CFF1CB50161707727A4E0660FDC
:10285000771FAA95E1F78701062B172BB901617045
:102860007727762F6627770F602B712BAC0141708D
:102870005527542F44275295507F462B572BC1FA8A
:10288000BB27B0F9E896BFAFE897E9961FAEE99786
:10289000E9966EAD7FADE997660F771F660F771FDC
:1028A000462B572BC2FAEE24E0F8EA96EFAEEA97F1
:1028B000EB961FAEEB97EB966EAD7FADEB9793E08B
:1028C000660F771F9A95E1F7462B572BA1FAFF2445
:1028D000F0F8EC96FFAEEC97ED961FAEED97ED9607
:1028E0006EAD7FADED9735E0660F771F3A95E1F756
:1028F000462B572BA2FA002700F9EE960FAFEE9762
:10290000EF961FAEEF97EF966EAD7FADEF97A6E017
:10291000660F771FAA95E1F7642B752B21FB99278A
:1029200090F9990F990FC058DF4F9883C058D04045
:10293000C158DF4F1882CF57D040C158DF4FA88110
:10294000B981CF57D0406A2B7B2B22FB222720F95D
:10295000220F220F220FCE57DF4F2883C258D040BC
:10296000CF57DF4F1882C158D040CF57DF4FE88094
:10297000F980C158D0406E297F2981FB992790F9B1
:102980009295990F907ECC57DF4F9883C458D040D2
:10299000CD57DF4F1882C358D040CD57DF4F088145
:1029A0001981C358D040602B712B82FB882780F996
:1029B0008295880F880F807CCA57DF4F8883C6585E
:1029C000D040CB57DF4F1882C558D040CB57DF4F90
:1029D00088819981C558D040682B792BD1011E96EA
:1029E0006C931E971F967C93DF01AC5ABF4F0D91DD
:1029F0001C9111971296ED90FC901197FA82E98242
:102A000054976D917C9111971E964D915C91119701
:102A100012962D913C91D801A170BB277D01EE0C3F
:102A2000FF1CA981BA81A170BB2714E0AA0FBB1FAC
:102A30001A95E1F7AE29BF29CB019695982F8827E3
:102A40009795879599278A2B9B2B61FBFF24F0F89C
:102A5000C957DF4FF882C758D040C857DF4F188298
:102A6000C858D040C957DF4FA881B981C758D04056
:102A70008A2B9B2B7A01B1E0EB22FF24FE2CEE2463
:102A8000FF0C8E299F297901A1E0EA22FF24FE2C68
:102A9000EE24F294B0EFFB228E299F2901FBBB2785
:102AA000B0F9C757DF4FB883C958D040C657DF4F7A
:102AB0001882CA58D040C757DF4FE880F980C958FC
:102AC000D040EE0CFF1CEE0CFF1C8E299F2902FB50
:102AD000EE24E0F8C557DF4FE882CB58D040C4570A
:102AE000DF4F1882CC58D040C557DF4FE880F980BF
:102AF000CB58D04003E0EE0CFF1C0A95E1F78E297D
:102B00009F29098106950170C357DF4F0883CD586F
:102B1000D040C257DF4F1882CE58D040C357DF4F46
:102B2000E880F980CD58D04035E0EE0CFF1C3A9596
:102B3000E1F78E299F29198112FB112710F9C1573E
:102B4000DF4F1883CF58D040C057DF4F1882C0598D
:102B5000D040C157DF4FE880F980CF58D04056E0D1
:102B6000EE0CFF1C5A95E1F7E82AF92A62FB66276A
:102B700060F9CE56DF4F6883C259D040CF56DF4F41
:102B80001882C159D040CF56DF4F88819981C159F1
:102B9000D040E82AF92A41FB882780F9880F880F5E
:102BA000CC56DF4F8883C459D040CD56DF4F1882B2
:102BB000C359D040CD56DF4FA881B981C359D04009
:102BC000EA2AFB2A42FB442740F9440F440F440FF2
:102BD000CA56DF4F4883C659D040CB56DF4F1882C4
:102BE000C559D040CB56DF4F08811981C559D04017
:102BF000E02AF12A21FB882780F98295880F807EC0
:102C0000C856DF4F8883C859D040C956DF4F188255
:102C1000C759D040C956DF4F88819981C759D040E4
:102C2000E82AF92A22FB222720F92295220F220FD7
:102C3000207CC656DF4F2883CA59D040C756DF4F85
:102C40001882C959D040C756DF4FA881B981C959E8
:102C5000D040EA2AFB2AD201EC921196FC92DF01C5
:102C6000A05ABF4F0D911C9111971296ED90FC90B8
:102C70001197FA82E98254974D915C9111971E96B3
:102C80002D913C91119712968D919C91780161E064
:102C9000E622FF246701CC0CDD1CA981BA81A1705A
:102CA000BB2774E0AA0FBB1F7A95E1F77601EA2AE9
:102CB000FB2ADA01B695BA2FAA27B795A795BB27A5
:102CC000AE29BF29B90161707727762F6627770F64
:102CD0006A2B7B2BDC01A170BB27BA2FAA27B295E8
:102CE000B07F6A2B7B2B01FBAA27A0F9C556DF4FCB
:102CF000A883CB59D040C456DF4F1882CC59D0405E
:102D0000C556DF4FA881B981CB59D040AA0FBB1F50
:102D1000AA0FBB1F6A2B7B2B02FBBB27B0F9C35644
:102D2000DF4FB883CD59D040C256DF4F1882CE59FD
:102D3000D040C356DF4FA881B981CD59D04003E0C0
:102D4000AA0FBB1F0A95E1F76A2B7B2B0981069519
:102D50000170C156DF4F0883CF59D040C056DF4FB6
:102D60001882C05AD040C156DF4FA881B981CF59CF
:102D7000D04095E0AA0FBB1F9A95E1F76A2B7B2BF9
:102D8000198112FB112710F9CF55DF4F1883C15A53
:102D9000D040CE55DF4F1882C25AD040CF55DF4FBA
:102DA000A881B981C15AD04036E0AA0FBB1F3A951D
:102DB000E1F7A62BB72B41FB992790F9CC55DF4FB4
:102DC0009883C45AD040CD55DF4F1882C35AD040A3
:102DD000CD55DF4FE880F980C35AD040AE29BF29D6
:102DE00042FB442740F9479544274795CA55DF4F92
:102DF0004883C65AD040CB55DF4F1882C55AD040C1
:102E0000CB55DF4F08811981C55AD040A02BB12B7B
:102E100021FB992790F9990F990FC855DF4F988397
:102E2000C85AD040C955DF4F1882C75AD040C9553B
:102E3000DF4FE880F980C75AD040AE29BF2922FB76
:102E4000222720F9220F220F220FC655DF4F288399
:102E5000CA5AD040C755DF4F1882C95AD040C7550B
:102E6000DF4F08811981C95AD040A02BB12B81FBBB
:102E7000992790F99295990F907EC455DF4F9883CA
:102E8000CC5AD040C555DF4F1882CB5AD040C555DB
:102E9000DF4FE880F980CB5AD040AE29BF2982FBB2
:102EA000882780F98295880F880F807CC255DF4F74
:102EB0008883CE5AD040C355DF4F1882CD5AD040B8
:102EC000C355DF4F28813981CD5AD0402A2B3B2B67
:102ED000D20112962C93129713963C93DF01A459BA
:102EE000BF4FCD90DC9011979097AD90BC90CF01E3
:102EF000865A9F4FDC012D913C914096DC018D91CB
:102F00009C918601017011277801EE0CFF1CB50120
:102F10006170772754E0660F771F5A95E1F78701B4
:102F2000062B172BB9017695762F6627779567952F
:102F30007727602B712BAC0141705527542F442704
:102F40005295507F462B572BC1FABB27B0F9C1557C
:102F5000DF4FB883CF5AD040C055DF4F1882C05BD7
:102F6000D040C155DF4F68817981CF5AD040660F7C
:102F7000771F660F771F462B572BC2FAEE24E0F817
:102F8000CF54DF4FE882C15BD040CE54DF4F188270
:102F9000C25BD040CF54DF4F68817981C15BD040A4
:102FA00003E0660F771F0A95E1F7462B572BA1FA2E
:102FB000FF24F0F8CD54DF4FF882C35BD040CC54EF
:102FC000DF4F1882C45BD040CD54DF4F68817981D8
:102FD000C35BD04095E0660F771F9A95E1F7462BCB
:102FE000572BA2FA002700F9CB54DF4F0883C55BAB
:102FF000D040CA54DF4F1882C65BD040CB54DF4F5D
:1030000068817981C55BD04036E0660F771F3A95BD
:10301000E1F7642B752B21FB992790F9C854DF4FFA
:103020009883C85BD040C954DF4F1882C75BD0403B
:10303000C954DF4FA881B981C75BD0406A2B7B2B75
:1030400022FB222720F9220FC654DF4F2883CA5BB8
:10305000D040C754DF4F1882C95BD040C754DF4F00
:10306000E880F980C95BD0406E297F2981FB9927D0
:1030700090F99295990F907EC454DF4F9883CC5B62
:10308000D040C554DF4F1882CB5BD040C554DF4FD2
:1030900008811981CB5BD040602B712B82FB882784
:1030A00080F98295880F880F807CC254DF4F888317
:1030B000CE5BD040C354DF4F1882CD5BD040C354A9
:1030C000DF4F88819981CD5BD040682B792BD2016D
:1030D00014966C93149715967C93DF01A858BF4FF4
:1030E0000D911C9111979097ED90FC901197FA8299
:1030F000E9821E966D917C91119712964D915C918B
:1031000011971E962D913C91780181E0E822FF24D1
:103110006701CC0CDD1CA981BA81A170BB2714E02A
:10312000AA0FBB1F1A95E1F77601EA2AFB2ADB01F9
:10313000B695BA2FAA27B795A795BB27AE29BF2961
:10314000CA0181709927982F8827990F990F8A2B88
:103150009B2B41FBAA27A0F9C154DF4FA883CF5B6B
:10316000D040C054DF4F1882C05CD040C154DF4F04
:10317000E880F980CF5BD0408E299F29D901A170CA
:10318000BB27BA2FAA27B295B07F8A2B9B2B01FBB6
:10319000FF24F0F8CF53DF4FF882C15CD040CE530C
:1031A000DF4F1882C25CD040CF53DF4FA881B98176
:1031B000C15CD040AA0FBB1FAA0FBB1F8A2B9B2B41
:1031C00002FBAA27A0F9CD53DF4FA883C35CD040F0
:1031D000CC53DF4F1882C45CD040CD53DF4FA88161
:1031E000B981C35CD04003E0AA0FBB1F0A95E1F789
:1031F0008A2B9B2BB981B695B170CB53DF4FB88327
:10320000C55CD040CA53DF4F1882C65CD040CB5358
:10321000DF4FA881B981C55CD04035E0AA0FBB1F44
:103220003A95E1F78A2B9B2BE980E2FAEE24E0F84D
:10323000C953DF4FE882C75CD040C853DF4F1882C4
:10324000C85CD040C953DF4FA881B981C75CD0406A
:1032500056E0AA0FBB1F5A95E1F7A82BB92B61FBCB
:10326000882780F9C653DF4F8883CA5CD040C75394
:10327000DF4F1882C95CD040C753DF4F08811981E6
:10328000C95CD040A02BB12B62FB662760F9660FAA
:10329000C453DF4F6883CC5CD040C553DF4F1882E6
:1032A000CB5CD040C553DF4F88819981CB5CD04047
:1032B000A82BB92B42FB442740F9440F440F440F7D
:1032C000C253DF4F4883CE5CD040C353DF4F1882D8
:1032D000CD5CD040C353DF4FE880F980CD5CD04057
:1032E000AE29BF2921FB882780F98295880F807E2F
:1032F000C053DF4F8883C05DD040C153DF4F188279
:10330000CF5CD040C153DF4F08811981CF5CD040E2
:10331000A02BB12B22FB222720F92295220F220F6E
:10332000207CCE52DF4F2883C25DD040CF52DF4F8A
:103330001882C15DD040CF52DF4F28813981C15DF5
:10334000D0402A2B3B2BD20116962C93169717961A
:103350003C93DF01AC57BF4F0D911C911197909793
:10336000ED90FC901197FA82E9821E964D915C9146
:10337000119712962D913C9111971E968D919C91CB
:10338000780161E0E622FF246701CC0CDD1CA981F5
:10339000BA81A170BB2774E0AA0FBB1F7A95E1F731
:1033A0007601EA2AFB2ADA01B695BA2FAA27B79541
:1033B000A795BB27AE29BF29B90161707727762F62
:1033C0006627770F770F6A2B7B2BDC01A170BB2759
:1033D000BA2FAA27B295B07F6A2B7B2B01FBAA27B5
:1033E000A0F9CD52DF4FA883C35DD040CC52DF4F50
:1033F0001882C45DD040CD52DF4FA881B981C35D32
:10340000D040AA0FBB1FAA0FBB1F6A2B7B2B02FB4E
:10341000BB27B0F9CB52DF4FB883C55DD040CA524D
:10342000DF4F1882C65DD040CB52DF4FA881B981F3
:10343000C55DD04003E0AA0FBB1F0A95E1F76A2BD8
:103440007B2B098106950170C952DF4F0883C75D48
:10345000D040C852DF4F1882C85DD040C952DF4FFC
:10346000A881B981C75DD04095E0AA0FBB1F9A958E
:10347000E1F76A2B7B2B198112FB112710F9C75238
:10348000DF4F1883C95DD040C652DF4F1882CA5D36
:10349000D040C752DF4FA881B981C95DD04036E026
:1034A000AA0FBB1F3A95E1F7A62BB72B41FB992733
:1034B00090F9C452DF4F9883CC5DD040C552DF4FA6
:1034C0001882CB5DD040C552DF4FE880F980CB5DDC
:1034D000D040AE29BF2942FB442740F9440FC252D5
:1034E000DF4F4883CE5DD040C352DF4F1882CD5DA1
:1034F000D040C352DF4F08811981CD5DD040A02B51
:10350000B12B21FB992790F9990F990F990FC05270
:10351000DF4F9883C05ED040C152DF4F1882CF5D2D
:10352000D040C152DF4FE880F980CF5DD040AE2956
:10353000BF2922FB222720F9279522272795CE5144
:10354000DF4F2883C25ED040CF51DF4F1882C15E6B
:10355000D040CF51DF4F08811981C15ED040A02BF0
:10356000B12B81FB992790F99295990F907ECC51C0
:10357000DF4F9883C45ED040CD51DF4F1882C35EC9
:10358000D040CD51DF4FE880F980C35ED040AE29F6
:10359000BF2982FB882780F98295880F880F807C5D
:1035A000CA51DF4F8883C65ED040CB51DF4F1882AF
:1035B000C55ED040CB51DF4F28813981C55ED040F8
:1035C0002A2B3B2BD20118962C93189719963C93D3
:1035D000DF01A259BF4FCD90DC9011971296AD90AC
:1035E000BC90CF0182589F4FDC012D913C910296F7
:1035F000DC018D919C918601017011277801EE0C00
:10360000FF1CB5016170772754E0660F771F5A954C
:10361000E1F78701062B172BB9017695762F6627E0
:10362000779567957727602B712BAC0141705527F3
:10363000542F4427550F550F462B572BC1FABB2744
:10364000B0F9C951DF4FB883C75ED040C851DF4FD2
:103650001882C85ED040C951DF4F68817981C75E4A
:10366000D040660F771F660F771F462B572BC2FA85
:10367000EE24E0F8C751DF4FE882C95ED040C65162
:10368000DF4F1882CA5ED040C751DF4F6881798111
:10369000C95ED04003E0660F771F0A95E1F7462B1D
:1036A000572BA1FAFF24F0F8C551DF4FF882CB5E0B
:1036B000D040C451DF4F1882CC5ED040C551DF4F9F
:1036C00068817981CB5ED04095E0660F771F9A952F
:1036D000E1F7462B572BA2FA002700F9C351DF4F21
:1036E0000883CD5ED040C251DF4F1882CE5ED040FD
:1036F000C351DF4F68817981CD5ED04036E0660FDF
:10370000771F3A95E1F7642B752B21FB992790F9E8
:10371000C051DF4F9883C05FD040C151DF4F188246
:10372000CF5ED040C151DF4FA881B981CF5ED0407C
:103730006A2B7B2B22FB222720F9220FCE50DF4F52
:103740002883C25FD040CF50DF4F1882C15FD04086
:10375000CF50DF4FE880F980C15FD0406E297F29CC
:1037600081FB992790F9990F990F990FCC50DF4F52
:103770009883C45FD040CD50DF4F1882C35FD040E4
:10378000CD50DF4F08811981C35FD040602B712B72
:1037900082FB882780F98295807FCA50DF4F88831B
:1037A000C65FD040CB50DF4F1882C55FD040CB50B2
:1037B000DF4F88819981C55FD040682B792BD2017A
:1037C0001A966C931A971B967C93DF01A658BF4FED
:1037D0000D911C9111971296ED90FC901197FA8221
:1037E000E9821E964D915C91119712962D913C9114
:1037F000119712968D919C91780161E0E622FF2449
:103800006701CC0CDD1CA981BA81A170BB2774E0D3
:10381000AA0FBB1F7A95E1F77601EA2AFB2ADA01A3
:10382000B695BA2FAA27B795A795BB27AE29BF296A
:10383000B90161707727762F6627770F770F6A2B8C
:103840007B2BDC01A170BB27BA2FAA27B295BB0F37
:10385000B07E6A2B7B2B81FBAA27A0F9C950DF4FD2
:10386000A883C75FD040C850DF4F1882C85FD040E0
:10387000C950DF4FE880F980C75FD0406E297F29AB
:1038800001FBFF24F0F8C750DF4FF882C95FD0403A
:10389000C650DF4F1882CA5FD040C750DF4FA881A3
:1038A000B981C95FD040AA0FBB1FAA0FBB1F6A2BEB
:1038B0007B2B02FBAA27A0F9C550DF4FA883CB5F63
:1038C000D040C450DF4F1882CC5FD040C550DF4F8E
:1038D000A881B981CB5FD04003E0AA0FBB1F0A9536
:1038E000E1F76A2B7B2BB981B695B170C350DF4FDE
:1038F000B883CD5FD040C250DF4F1882CE5FD0403A
:10390000C350DF4FA881B981CD5FD04095E0AA0FA9
:10391000BB1F9A95E1F76A2B7B2BE980E2FAEE2434
:10392000E0F8C150DF4FE882CF5FD040C050DF4F9A
:103930001882C050D140C150DF4FA881B981CF5FFC
:10394000D04036E0AA0FBB1F3A95E1F76A2B7B2BDC
:1039500041FB992790F9CE5FDE4F9883C250D1404A
:10396000CF5FDE4F1882C150D140CF5FDE4F08815C
:103970001981C150D140602B712B42FB442740F983
:10398000440FCC5FDE4F4883C450D140CD5FDE4F43
:103990001882C350D140CD5FDE4FA881B981C3509A
:1039A000D1406A2B7B2B21FB992790F9990F990F16
:1039B000990FCA5FDE4F9883C650D140CB5FDE4F70
:1039C0001882C550D140CB5FDE4FE880F980C550EA
:1039D000D1406E297F2922FB222720F92295207FC2
:1039E000C85FDE4F2883C850D140C95FDE4F1882C0
:1039F000C750D140C95FDE4F08811981C750D140FF
:103A0000602B712B82FB882780F98295880F880FA5
:103A1000807CC65FDE4F8883CA50D140C75FDE4FCF
:103A20001882C950D140C75FDE4F88819981C95043
:103A3000D140682B792BD2011C966C931C971D9654
:103A40007C93DF01AA57BF4F6D917C91E857FF4FE0
:103A500040815181CB0181709927FC01EE0FFF1F3E
:103A60009A0121703327C901A4E0880F991FAA95F4
:103A7000E1F78E2B9F2B61FBBB27B0F9C55FDE4FB3
:103A8000B883CB50D140C45FDE4F1882CC50D140B8
:103A9000C55FDE4F28813981CB50D140220F331FC3
:103AA000220F331F822B932B62FBEE27E0F9C35FBB
:103AB000DE4FE883CD50D140C25FDE4F1882CE503A
:103AC000D140C35FDE4F28813981CD50D14013E012
:103AD000220F331F1A95E1F7822B932B41FBFF270F
:103AE000F0F9C15FDE4FF883CF50D140C05FDE4FA9
:103AF0001882C051D140C15FDE4F28813981CF503B
:103B0000D14005E0220F331F0A95E1F7822B932B5A
:103B100042FBEE24E0F8CF5EDE4FE882C151D14097
:103B2000CE5EDE4F1882C251D140CF5EDE4F28817B
:103B30003981C151D14046E0220F331F4A95E1F748
:103B4000822B932BD2011E968C931E971F961C924C
:103B5000CC5EDE4F0FB6F894DEBF0FBECDBFDF9157
:103B6000CF911F910F91FF90EF90DF90CF90BF907A
:103B7000AF909F908F907F906F905F904F903F900D
:103B80002F900895CF92DF92EF92FF920F931F93A1
:103B9000CF93DF93EC01D62EC42E79010E94E2264A
:103BA0006D2D660FCE010E947926CE010E9430262F
:103BB0006C2DCE010E947926CE010E9430260E0D7A
:103BC0001F1DE016F10651F0F70161917F01CE0152
:103BD0000E947926CE010E943026F3CFCE01DF91DC
:103BE000CF911F910F91FF90EF90DF90CF900C94A9
:103BF000EB250F931F93CF93DF93EC01042F122F2C
:103C00000E942B27602FCE010E94CB26612FCE0170
:103C10000E94CB26CE01DF91CF911F910F910C9482
:103C2000EB25FC01A381B481478120853185C90141
:103C3000880F991F280F391F728563855FB7F89425
:103C40008C91942F90959823842BE72FF62F2E0F8D
:103C50003F1FE217F30781F0419168E08C9300C0A9
:103C600047FF9C93440F00C000C000C008F49C9321
:103C700000C06A9599F7EDCF5FBF789461E070E07E
:103C800080E090E00C947322CF92DF92EF92FF924B
:103C90000F931F93CF93DF937C01142FD22EC02E4E
:103CA000611111C0C0E0D0E0F70180859185C8178F
:103CB000D90770F40C2D2D2D412F6C2FC7010E94B8
:103CC000CF272196F1CF61500E94CF2780E001C01D
:103CD00081E0DF91CF911F910F91FF90EF90DF90E6
:103CE000CF900895833081F028F4813099F08230AC
:103CF000A1F008958730A9F08830B9F08430D1F46C
:103D0000809180008F7D03C0809180008F778093A9
:103D10008000089584B58F7702C084B58F7D84BDFF
:103D200008958091B0008F7703C08091B0008F7D9F
:103D30008093B0000895CF93DF93EC01862F90E03D
:103D40009987888723E0629FC00111240E9423364F
:103D50009B878A87892B21F488E791E00E94493765
:103D600080E090E028853985A901440F551F240F74
:103D7000351F8217930738F4EA85FB85E80FF91F92
:103D800010820196EFCFDF91CF9108959091C000FE
:103D900095FFFCCF8093C60008950F931F93CF9398
:103DA000C82F0EE415E0CC2339F0F80181918F0182
:103DB0000E94C61EC150F7CFCF911F910F91089559
:103DC000CF93DF93EC010E94E22668E4CE010E94CB
:103DD0007926CE010E94302661E3CE010E94792629
:103DE000CE01DF91CF910C94EB25CF93DF93282F59
:103DF00030E0F901E45FFE4F8491F901E25CFE4F8F
:103E0000D491F901E65DFE4FC491CC2391F081116C
:103E10000E94721EEC2FF0E0EE0FFF1FE05EFE4FDF
:103E2000A591B491EC91ED2381E090E021F480E044
:103E300002C080E090E0DF91CF9108951F93CF936F
:103E4000DF93282F30E0F901E45FFE4F8491F90100
:103E5000E25CFE4FD491F901E65DFE4FC491CC23A4
:103E6000C1F0162F81110E94721EEC2FF0E0EE0FB0
:103E7000FF1FEE5FFE4FA591B4919FB7F89411110B
:103E800004C08C91D095D82302C0EC91DE2BDC933A
:103E90009FBFDF91CF911F910895CF93DF9390E063
:103EA000FC01E25CFE4F2491FC01E65DFE4F849133
:103EB000882361F190E0880F991FFC01E850FF4FC3
:103EC000C591D491FC01EE5FFE4FA591B4916111B3
:103ED00009C09FB7F8948881209582238883EC914C
:103EE0002E230BC0623061F49FB7F8948881322F83
:103EF000309583238883EC912E2B2C939FBF06C093
:103F00008FB7F894E8812E2B28838FBFDF91CF9154
:103F100008954F925F926F927F928F929F92AF928D
:103F2000BF92CF92DF92EF92FF920F931F93CF93A6
:103F3000DF934A015B019C0140E050E060E472E4E1
:103F40008FE090E00E94B53369017A0161E08091D1
:103F50004C050E944D1FA8EEB3E0A50194010E94FC
:103F6000D4332B013C01E601D7FC2196D595C795AA
:103F70008E01000F111F000F111F055011090D2C8C
:103F8000000CEE08FF08812C912C54018414950438
:103F9000A604B704E0F461E080914C050E941E1F66
:103FA000C230D10518F0C8010197F1F760E08091A7
:103FB0004C050E941E1FC230D10518F0C8010197A0
:103FC000F1F7A8958C0C9D1CAE1CBF1CDFCFDF91B8
:103FD000CF911F910F91FF90EF90DF90CF90BF9006
:103FE000AF909F908F907F906F905F904F900895CB
:103FF000CF92DF92EF92FF926C392FEF7207820718
:10400000920784F19B01AC0165367105810591052C
:1040100024F024E630E040E050E057FD27C0AFEF49
:10402000B0E00E94D43324E630E040E050E00E944B
:10403000B53369017A01232B242B252B11F460E081
:1040400001C061E089E00E944D1F60E08AE00E94AB
:104050004D1FD0928900C092880010928B00109260
:104060008A0028C02CE93FEF4FEF5FEFA1E0BFEFE0
:104070000E94E23324E630E040E050E00E94B53395
:1040800069017A0161E08AE00E944D1F60E089E0E9
:104090000E944D1FD0928B00C0928A00109289001E
:1040A00010928800C0924405D0924505E0924605E2
:1040B000F0924705FF90EF90DF90CF9008951F9307
:1040C000CF93DF93182FEB0161E00E944D1F2097E3
:1040D00011F460E004C0CF3FD10539F461E0812FD5
:1040E000DF91CF911F910C941E1FE12FF0E0E45F50
:1040F000FE4FE491E330F9F048F4E130B9F0E230FA
:10410000A1F584B5806284BDC8BD34C0E730E9F054
:10411000E83019F1E43049F58091800080628093A5
:104120008000D0938B00C0938A0024C084B580683F
:1041300084BDC7BD1FC080918000806880938000CF
:10414000D0938900C093880015C08091B00080682A
:104150008093B000C093B3000DC08091B000806226
:104160008093B000C093B40005C0C038D1050CF0F6
:10417000B5CFAFCFDF91CF911F910895CF92DF924E
:10418000EF92FF920F931F93CF93DF936C392FEF32
:104190007207820792070CF43FC09B01AC016536A1
:1041A00071058105910524F024E630E040E050E0FF
:1041B00057FD36C0AFEFB0E00E94D43324E630E0C4
:1041C00040E050E00E94B53369017A01D22FCD2D35
:1041D0008701232B242B252B11F460E001C061E023
:1041E00086E00E944D1F60E085E00E944D1FB601F1
:1041F00086E00E945F20D0934805C0934905009354
:104200004A0510934B05DF91CF911F910F91FF90BD
:10421000EF90DF90CF9008952CE93FEF4FEF5FEFE5
:10422000A1E0BFEF0E94E23324E630E040E050E03E
:104230000E94B533D22FC32F8A0161E085E00E942E
:104240004D1F60E086E00E944D1F6D2F7C2F85E0A2
:10425000D0CFCF92DF92EF92FF9269017A010E9454
:10426000BE20C701B601FF90EF90DF90CF900C9475
:10427000F81F8E3008F08E508770806480937C0029
:1042800080917A00806480937A0080917A0086FD24
:10429000FCCF809178002091790090E0922B0895D6
:1042A000BF92CF92DF92EF92FF920F931F93CF9323
:1042B000DF933AE0B32EC12CD12C7601CFEFD3E0BF
:1042C00000E010E084E10E9439210817190708F482
:1042D0008C018C179D0708F4EC01C80ED91EE11C57
:1042E000F11CBA94B110EECFD701C601801B910B1F
:1042F000A109B1098C1B9D0BA109B10923E0B69559
:10430000A795979587952A95D1F7833F23E0920744
:10431000A105B10508F09CC08B3C23E09207A105E4
:10432000B10508F098C0833A23E09207A105B105D2
:1043300008F094C0853823E09207A105B10508F084
:1043400090C08C3623E09207A105B10508F08CC01F
:10435000813223E09207A105B10508F088C08F3FA4
:1043600022E09207A105B10508F084C0813D22E05A
:104370009207A105B10508F080C08F3922E09207AD
:10438000A105B10508F07CC08D3622E09207A10599
:10439000B10508F078C08F3422E09207A105B1057D
:1043A00008F074C0833122E09207A105B10508F03E
:1043B00070C0853F21E09207A105B10508F06CC0EF
:1043C000813E21E09207A105B10508F068C0823D59
:1043D00021E09207A105B10508F06DC0873A21E000
:1043E0009207A105B10508F05DC0863921E092076A
:1043F000A105B10508F059C08C3721E09207A1054D
:10440000B10508F055C08A3521E09207A105B10534
:1044100008F051C0823321E09207A105B10508F0F0
:104420004DC08F3021E09207A105B10508F049C0C9
:10443000803D9105A105B10508F046C08A57910954
:10444000A109B1098B97A105B10508F440C033C09B
:1044500080E090E03EC083E190E03BC08CE090E0E3
:1044600038C08AE090E035C085E090E032C089E055
:1044700090E02FC08BE090E02CC08DE090E029C050
:1044800082E090E026C080E190E023C08EE090E0E2
:1044900020C088E090E01DC083E090E01AC084E175
:1044A00090E017C087E190E014C085E190E011C072
:1044B00087E090E00EC08FEF90E00BC082E190E0CB
:1044C00008C086E090E005C084E090E002C088E18A
:1044D00090E0DF91CF911F910F91FF90EF90DF90CF
:1044E000CF90BF9008958F929F92AF92BF92CF923C
:1044F000DF92EF92FF926B017C010E94942A4B01A4
:104500005C01C114D104E104F104F1F00E94942A89
:10451000DC01CB0188199909AA09BB09883E93409F
:10452000A105B10570F321E0C21AD108E108F10834
:1045300088EE880E83E0981EA11CB11CC114D10422
:10454000E104F10419F7DDCFFF90EF90DF90CF90F9
:10455000BF90AF909F908F9008958230D1F018F463
:10456000813089F00895833021F0843031F560E0A6
:104570000BC060E087E00E941E1F60E08DE00E949B
:104580001E1F61E00FC061E087E00E941E1F60E017
:1045900005C061E087E00E941E1F61E08DE00E947F
:1045A0001E1F60E08CE00E941E1F69E170E080E049
:1045B00090E00E9473220C94502108954F925F92D4
:1045C0006F927F929F92AF92BF92CF92DF92EF92C3
:1045D000FF920F931F93CF93DF93CDB7DEB728974A
:1045E0000FB6F894DEBF0FBECDBF7C01CE010196A1
:1045F0006C015E0199E0A90EB11C992493940E946C
:10460000B92AF7014084518462847384DC01CB01B0
:1046100084199509A609B7094197A105B10508F0C4
:104620009782F7018781882309F466C00E94B92A1E
:10463000F7016087718782879387178260E4C701DB
:104640000E942B2762EAC7010E94CB2662EAC701BB
:104650000E94CB2662EAC7010E94CB2661E0C70117
:104660000E94CB26C7010E94EB25F701868160E0FE
:104670000E944D1FF701868190E0FC01E25CFE4F35
:104680006491FC01E65DFE4FE491F0E0EE0FFF1F48
:10469000E05EFE4F8591949100E712E620E030E065
:1046A00040E00E940F2B611571058105910551F0C5
:1046B0002B013C01FFEF4F1A5F0A6F0A7F0A2FE0C0
:1046C000722203C0412C512C32018CE2481681E049
:1046D00058066104710430F09CE2491A91E0590ACD
:1046E00061087108C301B2010E94C734F7016487F1
:1046F00075878687978709C0F701648575858685E4
:1047000097850E948F342B013C0114141504160464
:10471000170434F084EA482E88E3582E612C712C5B
:10472000C301B2010E94C73420E030E048E652E401
:104730000E941D34F60161937193819391936F01EF
:1047400062E170E080E090E00E947322AC14BD044E
:1047500009F055CFC980DA80EB80FC807D809E8097
:10476000AF80B884272D392DA501B601C7010E945D
:10477000773587FF03C0C72CD92C7501B601C70157
:1047800028960FB6F894DEBF0FBECDBFDF91CF9154
:104790001F910F91FF90EF90DF90CF90BF90AF905F
:1047A0009F907F906F905F904F900895CF92DF928F
:1047B000EF92FF920F931F93CF93DF936C017A01D7
:1047C0008B01C0E0D0E0CE15DF0581F0D8016D91FE
:1047D0008D01D601ED91FC910190F081E02DC60193
:1047E0000995892B11F02196EECF7E01C701DF914B
:1047F000CF911F910F91FF90EF90DF90CF90089590
:104800002091190630911A062817390771F49091F2
:10481000180680911706981741F0E0911806F0E00D
:10482000E05CF94F808190E008958FEF9FEF08954D
:1048300008951F93CF93DF93DC015C968D919C913B
:104840005D97009739F421E030E013963C932E9366
:1048500012973BC05196ED91FC91529750962C9136
:104860005097322F30951FB75E964C915E97742FFC
:10487000727041FD6095F8944081772311F0422BCE
:1048800001C043234083EC012197F1F748E05081B8
:1048900060FF02C0522B01C053235083EC012197CB
:1048A000F1F76695415099F78081772319F08323BA
:1048B000808302C0282B20831FBF5C968D919C9122
:1048C0005D970197F1F781E090E0DF91CF911F9123
:1048D00008952091190630911A062817390771F4A6
:1048E000809117062091180690E0805C9F4F821BF4
:1048F000910960E470E00E94F535089580E090E051
:1049000008952091190630911A0628173907B9F42D
:104910009091180680911706981789F0E091180673
:10492000F0E0E05CF94F80812091180630E02F5FC5
:104930003F4F2F7333272093180690E008958FEF91
:104940009FEF089508950E9444371F920F920FB66B
:104950000F9211242F933F934F935F936F937F9305
:104960008F939F93AF93BF93EF93FF93E0911906BB
:10497000F0911A06309709F451C0968DA685B78537
:10498000858591FF04C09C91892329F447C09C919F
:10499000892309F043C0A389B4899C9185898095B6
:1049A00089238C93868997890197F1F7608D718DA2
:1049B000A685B785558538E020E0CB010197F1F752
:1049C000822F90E095958795282F4C91452309F0EB
:1049D0002068315091F7868D81FD209580911706D2
:1049E00090E001968F73992730911806381749F097
:1049F000A0911706B0E0A05CB94F2C9380931706E6
:104A000003C0868D8160868F828D938D0197F1F72B
:104A1000A389B4899C918589892B8C93FF91EF910F
:104A2000BF91AF919F918F917F916F915F914F91C6
:104A30003F912F910F900FBE0F901F901895E0910E
:104A40001906F0911A06E817F90769F4A389B489E1
:104A50009C918589809589238C9310921A061092D7
:104A6000190681E0089580E008951F920F920FB615
:104A70000F9211242F933F938F939F93EF93FF9364
:104A800080913F0687FF05C0109285001092840038
:104A900005C080913F0687FD80913F0680913F06CB
:104AA0008F5F80933F0680913F0687FF20C08091F3
:104AB0003F068C30E4F42091840030918500809191
:104AC0003F06082E000C990BFC01EE0FFF1F8E0F06
:104AD0009F1FFC01E55EF94F81819281820F931F38
:104AE000909389008093880080913F0617C0809141
:104AF000840090918500049680349C4918F480E4E9
:104B00009CE905C080918400909185000496909363
:104B10008900809388008FEF80933F06FF91EF918B
:104B20009F918F913F912F910F900FBE0F901F90EB
:104B30001895AF92BF92CF92DF92EF92FF920F93B0
:104B40001F93CF93DF935C010AE010E0C12CD12CBE
:104B50007601C0E0D0E060E0F50183810E944D1F46
:104B6000F50183810E943921C817D90708F4EC01A7
:104B7000C80ED91EE11CF11C0150110961F7D701C3
:104B8000C6018C1B9D0BA109B10923E0B695A79521
:104B9000979587952A95D1F7DF91CF911F910F9126
:104BA000FF90EF90DF90CF90BF90AF9008950F935C
:104BB0001F93CF938C01C62F0E94F227EC2FF0E0B9
:104BC000EE0FFF1FE35EFE4F8181F8018383CF91DB
:104BD0001F910F910895CF93DF93EC0161E08B81DA
:104BE0000E944D1F8D818130C1F487E592E00197CD
:104BF000F1F700C0000060E08C810E941E1F60E0A1
:104C00008B810E941E1F61E08C810E941E1F61E04B
:104C10008B81DF91CF910C941E1F60E08C810E94EC
:104C20001E1F9AE19A95F1F700C060E08B810E9407
:104C30001E1F8AE18A95F1F700C061E08C810E9415
:104C40001E1F9AE19A95F1F700C061E08B810E94E6
:104C50001E1F8AE18A95F1F700C0DF91CF91089578
:104C60001F93CF93DF93EC0160E08B810E944D1F77
:104C70008D818130D1F487E592E00197F1F700C092
:104C8000000061E08B810E941E1F61E08C810E9408
:104C90001E1F8B810E94F51E11E0892B09F410E084
:104CA00060E08C810E941E1F1FC061E08B810E940A
:104CB0001E1F9AE19A95F1F700C061E08C810E9475
:104CC0001E1F8AE18A95F1F700C08B810E94F51EB4
:104CD00011E0892B09F410E060E08C810E941E1F16
:104CE0009AE19A95F1F700C0812FDF91CF911F9142
:104CF00008950F931F93CF93DF93EC01162F61E07C
:104D00008C810E944D1F61E08B810E944D1F8D811F
:104D10008130D9F487E592E00197F1F700C00000F7
:104D200008E017FF02C061E001C060E08B810E94D3
:104D30001E1F110F61E08C810E941E1F60E08C819C
:104D40000E941E1F015069F720C008E017FF02C033
:104D500061E001C060E08B810E941E1F9AE19A957C
:104D6000F1F700C0110F61E08C810E941E1F8AE1E3
:104D70008A95F1F700C060E08C810E941E1F9AE1C5
:104D80009A95F1F700C0015009F780E0DF91CF91CB
:104D90001F910F910895CF93DF93EC018FE193E082
:104DA0000197F1F700C00000CE010E94792687EC40
:104DB00090E00197F1F700C00000CE01DF91CF91A4
:104DC0000C943026CF93DF93EC0161E08C810E943C
:104DD0004D1F61E08B810E944D1F8D818130C1F498
:104DE00087E592E00197F1F700C0000061E08B8158
:104DF0000E941E1F61E08C810E941E1F60E08B815B
:104E00000E941E1F60E08C81DF91CF910C941E1FC9
:104E100061E08B810E941E1F9AE19A95F1F700C014
:104E200061E08C810E941E1F8AE18A95F1F700C023
:104E300060E08B810E941E1F9AE19A95F1F700C0F5
:104E400060E08C810E941E1F8AE18A95F1F700C004
:104E5000DF91CF9108951F93CF93DF93EC01162F2D
:104E60000E94E226612F660FCE010E94792680EA19
:104E70008A95F1F7CE01DF91CF911F910C943026E6
:104E80000F931F93CF938C01C62F0E94F227EC2F14
:104E9000F0E0EE0FFF1FE35EFE4F8181D801139615
:104EA0008C931397808114968C93149715961C926B
:104EB000CF911F910F9108950F931F93CF938C0162
:104EC000C62F0E944027EC2FF0E0EE0FFF1FE35E9D
:104ED000FE4F8081F80186831582CF911F910F913B
:104EE000089570E080E090E00E94C5342CE53FE832
:104EF00042EA5FE30E941D340E949634862F653B90
:104F000030F4611102C087E008C0643B11F486E20E
:104F100004C066E00E94E935885F8093B30008957D
:104F200070E080E090E00E94C5342CE53FE842EA62
:104F30005FE30E941D340E949634862F653B30F457
:104F4000611102C087E008C0643B11F486E204C02E
:104F500066E00E94E935885F8093B40008950F935E
:104F60001F93CF938C01C62F0E94F227EC2FF0E005
:104F7000EE0FFF1FE35EFE4F8081D80113968C93E6
:104F80001397918114969C9361E00E944D1F61E0FC
:104F9000F8018481CF911F910F910C944D1F0F93B5
:104FA000FC01A62FB0E080859185A817B907B8F459
:104FB000862F880F680F70E0A285B385A60FB71FF4
:104FC0002C93A285B385A60FB71F11964C938285AB
:104FD0009385FC01E60FF71F028381E001C080E0AA
:104FE0000F910895DC01E62FF0E0EE0FFF1FE35E66
:104FF000FE4F80818C93818111968C93119712962C
:105000006C9308951F93CF93DF93EC01162F0E94AA
:10501000F227E12FF0E0EE0FFF1FE35EFE4F8181EC
:10502000282F30E0F901E25CFE4FE491EF83F901B3
:10503000E65DFE4FE491F0E0EE0FFF1FEE5FFE4FE6
:10504000259134913C832B8361E00E944D1F64E0E5
:10505000CE01DF91CF911F910C949B1E1F93CF9394
:10506000DF93EC01162F0E94F227E12FF0E0EE0F04
:10507000FF1FE35EFE4F81818B8380818C838B8158
:1050800060E00E944D1F8C8161E00E944D1F8C8169
:1050900060E0DF91CF911F910C941E1F0F931F931F
:1050A000CF93DF93EC01162F4F960E94F227E12F4A
:1050B000F0E0EE0FFF1FE35EFE4F118100811B82C7
:1050C0001A8288EE93E0A0E0B0E08C839D83AE83EB
:1050D000BF838FE091E0998388831F8A1E8A198E8F
:1050E000188E1B8E1A8E1D8E1C8E6E8D6E7F6D7FA0
:1050F0006E8F6695617081E06827812F0E941E1F68
:1051000061E0812F0E944D1F812F90E0FC01E25C45
:10511000FE4FE491E88BFC01E65DFE4FE491F0E088
:10512000EE0FFF1FEE5FFE4F859194919A8B898B56
:1051300060E0802F0E944D1F8E8D81FD04C061E0D4
:10514000802F0E941E1F0C87802F90E0FC01E25CE4
:10515000FE4FE491ED87FC01E65DFE4FE491F0E047
:10516000EE0FFF1FE05EFE4F859194919F878E8723
:105170008FE091E09983888383E08AA31B8E1A8E47
:10518000198E188E1F8A1E8A85E690E09D8F8C8F5F
:10519000063108F04EC081E290E09F8B8E8B83E653
:1051A00090E0998F888F82E490E09B8F8A8F309176
:1051B0006800083058F021E00E3008F420E091E05B
:1051C000892F01C0880F2A95EAF701C084E0832B5C
:1051D000809368009C85983038F09E3040F096317E
:1051E00048F020E030E008C02DE630E005C02BE6B6
:1051F00030E002C02CE630E03C8B2B8B983030F452
:1052000081E001C0880F9A95EAF70EC0292F30E09F
:105210009E3018F42850310902C02E50310981E027
:1052200001C0880F2A95EAF78D8B8C8D9D8D019793
:10523000F1F78A8D9B8D892BE1F080911906909171
:105240001A06C817D907A9F0009711F00E941F2568
:105250008E8D8E7F8E8F1092170610921806D09327
:105260001A06C0931906EB89FC8990818D89892BD8
:105270008083DF91CF911F910F9108950F931F931A
:10528000CF93DF93EC018B810E94F51E8C018C8102
:105290000E94F51EAC0121E030E0012B11F420E06A
:1052A00030E0220F331F81E0452B09F480E0822B90
:1052B000DF91CF911F910F9108951F93CF93DF93AB
:1052C000EC01162F0E94F227E12FF0E0EE0FFF1FF6
:1052D000E35EFE4F80818B8381818C838B8160E0D4
:1052E0000E944D1F8C8160E0DF91CF911F910C9443
:1052F0004D1FCF93DF93EC0160E08B810E944D1F27
:105300008B810E94392120E034E0A901481B590B10
:10531000CA01DF91CF910895AF92BF92CF92DF92F1
:10532000EF92FF920F931F93CF93DF935C010AE0FC
:1053300010E0C12CD12C7601C0E0D0E0C5010E9464
:105340007929C817D90708F4EC01C80ED91EE11C49
:10535000F11C0150110991F7D701C6018C1B9D0B5F
:10536000A109B10923E0B695A795979587952A9548
:10537000D1F7DF91CF911F910F91FF90EF90DF90C8
:10538000CF90BF90AF900895CF93DF93EC010E9430
:10539000402781E08D83CE010E94E22667EECE0198
:1053A0000E94CB2660E8CE010E94CB2664EACE01A3
:1053B0000E94CB266AE9CE010E94CB2661E8CE018D
:1053C0000E94CB2663E8CE010E94CB26CE01DF915E
:1053D000CF910C94EB250F931F93CF938C01C62F85
:1053E0000E94F227EC2FF0E0EE0FFF1FE35EFE4F6E
:1053F0008081D80113968C931397818114968C9396
:10540000CF911F910F9108950F931F93CF93DF9327
:105410008C01D62FC42F0E94E2266D2F660F6A5989
:10542000C8010E947926C8010E943026EC2FC7FFD0
:1054300007C0EF77F0E0E959FE4F6081606804C073
:10544000F0E0E959FE4F6081C8010E947926C80149
:10545000DF91CF911F910F910C94EB251F920F922A
:105460000FB60F9211242F933F938F939F93AF9377
:10547000BF93EF93FF939091C600809181068111B5
:105480000EC0923509F043C0E091800638ECE39FEE
:10549000F0011124E250FD4F908381E00EC0813075
:1054A00091F4923469F4E091800688ECE89FF00171
:1054B0001124E250FD4F918382E08093810627C042
:1054C0001092810624C02091800638EC239FF001C1
:1054D0001124E250FD4FDF01A80FB11D9C938F5F97
:1054E000809381069281891710F4883C80F0109295
:1054F000810680918E04222321F010928006826022
:1055000004C091E090938006816080938E04FF91A7
:10551000EF91BF91AF919F918F913F912F910F90FC
:105520000FBE0F901F9018953FB7F8948091870693
:1055300090918806A0918906B0918A0626B5A89B0D
:1055400005C02F3F19F00196A11DB11D3FBFBA2F15
:10555000A92F982F8827820F911DA11DB11DBC0175
:10556000CD0142E0660F771F881F991F4A95D1F73A
:1055700008952FB7F8946091830670918406809106
:105580008506909186062FBF08951F920F920FB641
:105590000F9211242F933F938F939F93AF93BF93B9
:1055A0008091830690918406A0918506B09186062D
:1055B0003091820623E0230F2D3720F40196A11DA0
:1055C000B11D05C026E8230F0296A11DB11D209331
:1055D00082068093830690938406A0938506B093F9
:1055E00086068091870690918806A0918906B091E1
:1055F0008A060196A11DB11D8093870690938806A7
:10560000A0938906B0938A06BF91AF919F918F9125
:105610003F912F910F900FBE0F901F901895CF9232
:10562000DF92EF92FF920F931F93E82FF92F05C09F
:10563000015011092109310961F1908196239417D4
:10564000B9F305C0015011092109310911F1908107
:1056500096239413F7CFC12CD12CE12CF12C0AC046
:105660008FEFC81AD80AE80AF80A0C151D052E058E
:105670003F0579F080818623841791F36C2D7D2D71
:105680008E2D9F2D1F910F91FF90EF90DF90CF9067
:10569000089560E070E080E090E01F910F91FF902E
:1056A000EF90DF90CF900895CF93DF9300D01F92BB
:1056B000CDB7DEB7789484B5826084BD84B581604F
:1056C00084BD85B5826085BD85B5816085BD8091CD
:1056D0006E00816080936E00109281008091810045
:1056E000826080938100809181008160809381003D
:1056F000809180008160809380008091B1008460FF
:105700008093B1008091B00081608093B00080915F
:105710007A00846080937A0080917A00826080931E
:105720007A0080917A00816080937A0080917A007B
:10573000806880937A001092C10060E088E00E9447
:105740004D1F8091C00082608093C0001092C50000
:1057500080E18093C4008091C10080688093C10083
:105760008091C10080618093C1008091C1008860F8
:105770008093C1008091C20084608093C2008091B8
:10578000C20082608093C2006CE271E080E090E031
:105790000E94732261E080914C050E944D1F60E0E1
:1057A00080914C050E941E1F00E020E040E060E078
:1057B00087EB94E00E94441EE0E4F1E0E491E09382
:1057C000BE04ECE2F1E0E491F0E0EE0FFF1FEE5FCB
:1057D000FE4F859194919093BB048093BA0461E04D
:1057E00082E00E944D1F20E040E060E087EB94E003
:1057F0000E94441E87EB94E00E94111E6CE271E04F
:1058000080E090E00E94732220E04EE160E087EBB0
:1058100094E00E94441E87EB94E00E94111E6CE20B
:1058200071E080E090E00E9473222EE140E060E0B1
:1058300087EB94E00E94441E87EB94E00E94111EC7
:105840006CE271E080E090E00E9473220EE120E0C3
:1058500040E060E087EB94E00E94441E87EB94E018
:105860000E94111E6CE271E080E090E00E947322C1
:1058700044EF51E060E070E084EF91E00E94891F06
:1058800061E085E00E944D1F61E086E00E944D1FAF
:1058900061E089E00E944D1F61E08AE00E944D1F97
:1058A0008DEA809380008BE08093810010928900C4
:1058B0001092880010928B0010928A0064EF71E0C1
:1058C00080E090E00E94732282E50E94C61E82E47E
:1058D0000E94C61E86E00E94C61E80E00E94C61E70
:1058E00083E00E94C61E8DE90E94C61E9FE088E1EB
:1058F0000FB6F894A895809360000FBE9093600057
:10590000A89538EC832E912CA12CB12C40E0242EAC
:1059100040E0342E50E5652E53EC752EA89580910D
:105920008E0480FF3CC08E7F80938E0480910003A4
:1059300050E040E090E00197252F30E0281739072C
:105940003CF4F901E250FD4F2081420F5F5FF4CF3C
:10595000FC01E250FD4F8081481308C08091020392
:10596000813A10F480E03DC080E03FC082E50E94B3
:10597000C61E82E40E94C61E87E00E94C61E809159
:1059800001030E94C61E809102030E94C61E80E091
:105990000E94C61E909101038091020341C081FFC5
:1059A00043C08D7F80938E048091C80350E040E017
:1059B00090E00197252F30E0281739073CF4F901D2
:1059C000EA53FC4F2081420F5F5FF4CFFC01EA53A2
:1059D000FC4F808148130CC08091CA03813A20F4A7
:1059E00081E00E94D50020C081E00E9480071CC099
:1059F00082E50E94C61E82E40E94C61E87E00E94C5
:105A0000C61E8091C9030E94C61E8091CA030E94CF
:105A1000C61E80E00E94C61E9091C9038091CA03F1
:105A2000890F86560E94C61E88E00E94F51E0197C7
:105A300019F481E08093C90488E00E94F51E892B47
:105A400021F48091C90481115DC48091C804882328
:105A500021F11092C80480918F048823F1F082E52F
:105A60000E94C61E82E40E94C61E88E00E94C61ED6
:105A700080E00E94C61E81E00E94C61E89EF0E943F
:105A8000C61E81E00E94C61E87E90E94C61E87E9E5
:105A90000E94C61E87E90E94C61E8091C704882303
:105AA00009F469C08091910490919204A0919304AB
:105AB000B09194040196A11DB11D883E23E0920788
:105AC000A105B10548F48093910490939204A093AA
:105AD0009304B093940447C01092910410929204DE
