:100000000C9463000C948B000C948B000C942B27A5
:100010000C942B270C942B270C948B000C948B00A6
:100020000C948B000C948B000C948B000C94A327E5
:100030000C948B000C948B000C948B000C948B0014
:100040000C94E1260C948B000C9407280C948B00E4
:100050000C948B000C948B000C948B000C948B00F4
:100060000C948B000C948B000000000024002700EF
:100070002A0000000008000201000003040700003D
:1000800000000000000000000000250028002B00F8
:1000900000000000230026002900040404040404D6
:1000A0000404020202020202030303030303010227
:1000B00004081020408001020408102001020408F6
:1000C00010202C2F712F11241FBECFEFD8E0DEBFE0
:1000D000CDBF11E0A0E0B1E0ECECF7E602C0059086
:1000E0000D92A439B107D9F726E0A4E9B1E001C027
:1000F0001D92A939B207E1F710E0C2E6D0E004C0D2
:100100002197FE010E946F32C136D107C9F70E94C4
:10011000B1280C94D9330C9400009091C00095FF45
:10012000FCCF8093C60008950F931F93CF93C82FE1
:1001300007EC15E0F80181918F010E948D00C150FC
:10014000C9F7CF911F910F9108952F923F924F922F
:100150005F926F927F928F929F92AF92BF92CF9257
:10016000DF92EF92FF920F931F93CF93DF93CDB760
:10017000DEB7C05AD1090FB6F894DEBF0FBECDBFAF
:10018000FC01C156DF4F79836883CF59D0404A01C3
:100190004281538184819581E680E982F084FA82EC
:1001A0005A0123E0AA0CBB1C2A95E1F708E0A02223
:1001B000BB246C0136E0CC0CDD1C3A95E1F710E471
:1001C000C122DD24AC28BD2860817181677077274A
:1001D0006A297B29BE2DBB0FA0E0AA27B2706A2B2B
:1001E0007B2BF294A0EFFA22E12CEE2420E1F22204
:1001F0006E297F295A01B3E0AA0CBB1CBA95E1F71E
:1002000030E1A322BB246A297B295A0113E0AA0CFE
:10021000BB1C1A95E1F740E2A422BB24A62AB72A08
:10022000AC0106E0440F551F0A95E1F740785527C9
:10023000A42AB52A26E0880F991F2A95E1F7882776
:100240009170A82AB92A1981110F00E000271470B3
:10025000A02AB12A3981330F20E022273870A22A40
:10026000B32A7A80729430EF7322612C662450E2B4
:100270007522A628B7285A80529440EF5422412C68
:10028000442460E45622A428B528C156DF4FA88133
:10029000B981CF59D040AC921196BC922685378552
:1002A00080899189A289B489B90153E0660F771FCB
:1002B0005A95E1F768707727AC0116E0440F551F97
:1002C0001A95E1F740745527462B572B3A2E330CDD
:1002D000212C222402E03022242A352A1B2F1295B9
:1002E000107F1C831B824B815C8144275071242A20
:1002F000352AB90103E0660F771F0A95E1F76071AF
:100300007727262A372AB90123E0660F771F2A9517
:10031000E1F760727727622973291C0136E0220C0D
:10032000331C3A95E1F720E822223324622973290D
:1003300046E0880F991F4A95E1F788279170682B4E
:10034000792B3A2F330F3E831D822D803E8022244D
:1003500044E034226229732938871F822F80388431
:10036000222458E03522622973291A8719862984A4
:100370003A84222490E23922622973291C871B8641
:100380002B843C842224A0E43A2262297329C1569A
:10039000DF4FA881B981CF59D04012966C93129744
:1003A00013967C9344855585228D338D848D958D50
:1003B000A68DB285BA01660F771F6270772741FB61
:1003C000EE24E0F8ED861E860D851E85602B712BD0
:1003D00044705527462B572BB90103E0660F771F52
:1003E0000A95E1F768707727462B572BBC0116E07A
:1003F000660F771F1A95E1F760747727462B572B06
:100400001A2F110F188B1F866F85788966277270D7
:10041000642B752B4B2F4295407F4A8B198A498953
:100420005A8944275071642B752B890143E0000FD2
:10043000111F4A95E1F700711127602B712B89017B
:1004400053E0000F111F5A95E1F700721127062B98
:10045000172BBC0126E0660F771F2A95E1F760781D
:100460007727062B172B36E0880F991F3A95E1F76F
:1004700088279170082B192B5A2F550F5C8B1B8ADC
:100480006B897C8966277470062B172B5E8B1D8AFF
:100490006D897E8966277870062B172B6B2F6295E6
:1004A000607F688F1F8A6F89788D66277072062B30
:1004B000172BB295B07FBA8F198E698D7A8D66270A
:1004C0007074062B172BC156DF4FA881B981CF5905
:1004D000D04014960C93149715961C93408D518D13
:1004E00026A137A180A591A502A51689DA01AA0F38
:1004F000BB1FA270BB27BA01769567957695679565
:100500007727669577956627A62BB72B690163E059
:10051000CC0CDD1C6A95E1F768E0C622DD24AC292D
:10052000BD296C0176E0CC0CDD1C7A95E1F770E416
:10053000C722DD24AC29BD29E02EEE0CEC8E1B8EEB
:10054000CB8CDC8CCC2462E0D622AC29BD29712F67
:100550007295707F7E8F1D8ECD8CDE8CCC2460E1F9
:10056000D622BD016C297D29DA01AA0FBB1FA47018
:10057000BB27A62BB72BB90153E0660F771F5A95FF
:10058000E1F7607177276A2B7B2BD90123E0AA0F53
:10059000BB1F2A95E1F7A072BB27A62BB72BBC0186
:1005A00036E0660F771F3A95E1F7607877276A2B78
:1005B0007B2B46E0880F991F4A95E1F788279170B9
:1005C000AB01482B592BE8A21F8E6F8D78A16627AF
:1005D0007470462B572BEAA219A269A17AA166274B
:1005E0007870462B572B812F8295807F8CA31BA27E
:1005F0006BA17CA166277072462B572B8EA31DA280
:100600006DA17EA166277074642B752BC156DF4FD8
:10061000A881B981CF59D04016966C93169717963A
:100620007C9324A135A184A995A9A0A1B2A1A90177
:10063000440F551F42705527BC0116E0660F771F07
:100640001A95E1F760747727642B752BEA2EEE0C70
:10065000E8A61FA24FA158A544275270462B572B3E
:10066000FB2EF29400EFF022FAA619A669A57AA54E
:1006700066277071462B572B8901000F111F0470DC
:100680001127402B512B8901000F111F08701127D2
:10069000042B152BAC0126E0440F551F2A95E1F7DA
:1006A00040785527042B152B36E0880F991F3A9573
:1006B000E1F788279170082B192BECA61BA64BA5F8
:1006C0005CA544275470042B152BEEA61DA64DA542
:1006D0005EA544275870042B152BF8AA1FA64FA51A
:1006E00058A944275072042B152BFAAA19AA49A914
:1006F0005AA944275074042B152BC156DF4FA881EB
:10070000B981CF59D04018960C93189719961C931D
:1007100042A953A920A931A9BF01605C7F4FDB0129
:100720008D919C9104A516A5BA01A4E0660F771FD0
:10073000AA95E1F76071772741FBBB27B0F9BBAB06
:100740001CAAEBA8FCA86E297F297901EE0CFF1CDE
:10075000A2E0EA22FF246E297F297C01A6E0EE0CAC
:10076000FF1CAA95E1F7B0E4EB22FF246E297F2954
:10077000E02EEE0CEEAA1DAAEDA8FEA8EE24A2E043
:10078000FA226E297F29B12FB295B07FB8AF1FAA88
:10079000EFA8F8ACEE24A0E1FA226E297F297A01B5
:1007A000B3E0EE0CFF1CBA95E1F7B0E2EB22FF24B8
:1007B000E62AF72AB901660F771F647077276E293A
:1007C0007F29D901AA0FBB1FA870BB27A62BB72B67
:1007D000BC0126E0660F771F2A95E1F7607877273E
:1007E0006A2B7B2B36E0880F991F3A95E1F7882713
:1007F0009170AB01482B592BE02EEE0CEAAE19AEEE
:1008000069AD7AAD66277470462B572BECAE1BAEE4
:100810006BAD7CAD66277870462B572BF12EF2948A
:1008200060EFF622FEAE1DAE6DAD7EAD6627707236
:10083000462B572B2196FFAE21971FAE21966EAD0A
:100840007FAD219766277074642B752BC156DF4FDF
:10085000A881B981CF59D0401A966C931A971B96EC
:100860007C9344AD55AD26AD37AD86A997A900ADB3
:1008700012ADDA01AA0FBB1F7D0162E0E622FF2460
:10088000B901A4E0660F771FAA95E1F76071772799
:100890006E297F297901F694E794F694E794FF2472
:1008A000E694F794EE246E297F297C01B6E0EE0CE5
:1008B000FF1CBA95E1F7A0E4EA22FF246E297F2904
:1008C000B02FBB0F2396BFAF239722961FAE229760
:1008D0002396EEACFFAC2397EE24A2E0FA22E62AA0
:1008E000F72AB12FB295B07F2596BFAF25972496F2
:1008F0001FAE249725966EAD7FAD25976627707144
:100900006701C62AD72A7A01EE0CFF1C64E0E622B2
:10091000FF24EC28FD28440F551F48705527E42A72
:10092000F52AA4E0220F331FAA95E1F7207233279E
:10093000E22AF32AAC0126E0440F551F2A95E1F77D
:10094000407855274E295F2936E0880F991F3A9540
:10095000E1F788279170BA01682B792B802F880FD7
:1009600027968FAF279726961FAE269727964EADD0
:100970005FAD279744275470642B752B29968FAF52
:10098000299728961FAE289729964EAD5FAD2997D7
:1009900044275870642B752B2B96BFAF2B972A9644
:1009A0001FAE2A972B964EAD5FAD2B974427507202
:1009B000642B752B2D96BFAF2D972C961FAE2C97C1
:1009C0002D964EAD5FAD2D9744275074462B572B77
:1009D000C156DF4FA881B981CF59D0401C964C93A6
:1009E0001C971D965C939F01285B3F4FD9012D9169
:1009F0003C91AF01465B5F4FDA018D919C91BF0145
:100A00006C5B7F4FDB01FC9044505109DA01EC90A4
:100A1000A901440F551F42705527BC01A4E0660F81
:100A2000771FAA95E1F760717727642B752BBF2D8F
:100A3000BB0F2F96BFAF2F972E961FAE2E972F96D8
:100A40004EAD5FAD2F9744275270462B572B0E2D7E
:100A50000295007F61960FAF619760961FAE609719
:100A600061966EAD7FAD619766277071462B572BEF
:100A70008901000F111F04701127402B512B890190
:100A8000000F111F08701127042B152BAC01A4E0D7
:100A9000440F551FAA95E1F740725527042B152BDB
:100AA00024E0880F991F2A95E1F780749927082B75
:100AB000192B6396BFAF639762961FAE62976396DA
:100AC0004EAD5FAD639744275470042B152B65968C
:100AD000BFAF659764961FAE649765964EAD5FADE8
:100AE000659744275870042B152B3E2D3295307F87
:100AF00067963FAF679766961FAE669767964EAD4F
:100B00005FAD679744275072042B152B69963FAF52
:100B1000699768961FAE689769964EAD5FAD699705
:100B200044275074042B152BC156DF4FA881B9817F
:100B3000CF59D0401E960C931E971F961C93DF0131
:100B4000AC5ABF4F4D915C91119712962D913C91EB
:100B5000119754978D919C9111971E96EC90EA8273
:100B60001296FC90F982DA01AA0FBB1FA270BB2774
:100B7000B90114E0660F771F1A95E1F760717727C6
:100B80006A2B7B2BDC01B695BA2FAA27B795A795C0
:100B9000BB276A2B7B2B81FB002700F96A960FAFDE
:100BA0006A976B961FAE6B976B96AEADBFAD6B97AA
:100BB0006A2B7B2BEE0C6D96EFAE6D976C961FAE8D
:100BC0006C976D96AEADBFAD6D97AA27B2706A2BCC
:100BD0007B2BF294A0EFFA226F96FFAE6F976E9682
:100BE0001FAE6E976F96AEADBFAD6F97AA27B0716F
:100BF0006A2B7B2B8A01000F111F04701127602BB9
:100C0000712B8A01000F111F08701127062B172B5B
:100C1000B90154E0660F771F5A95E1F760727727A4
:100C2000062B172B64E0220F331F6A95E1F720741F
:100C30003327022B132B76E0880F991F7A95E1F763
:100C400088279170082B192BA196EFAEA197A0963B
:100C50001FAEA097A1966EAD7FADA1976627747069
:100C6000062B172BA396EFAEA397A2961FAEA297C3
:100C7000A3966EAD7FADA39766277870062B172BD2
:100C8000F980F294A0EFFA22A596FFAEA597A4965C
:100C90001FAEA497A5966EAD7FADA597662770721F
:100CA000602B712BA796FFAEA797A6961FAEA697AF
:100CB000A7960EAD1FADA79700271074602B712B60
:100CC000D4016C9311967C93DF01A05ABF4F4D91D4
:100CD0005C91119712962D913C91119754978D919B
:100CE0009C9111971E96EC90EA821296FC90F982E4
:100CF000DA01AA0FBB1FA270BB27B90104E0660F7F
:100D0000771F0A95E1F7607177276A2B7B2BDC014F
:100D1000B695BA2FAA27B795A795BB276A2B7B2B29
:100D2000DC01B695A795B695A795BB27A695B7956F
:100D3000AA276A2B7B2BEE0CA996EFAEA997A89653
:100D40001FAEA897A996AEADBFADA997AA27B2705E
:100D5000A62BB72BF29400EFF022AB96FFAEAB9729
:100D6000AA961FAEAA97AB966EAD7FADAB976627DE
:100D70007071A62BB72B8A01000F111F0470112769
:100D8000A02BB12B8A01000F111F087011270A2B0D
:100D90001B2BD90144E0AA0FBB1F4A95E1F7A072B3
:100DA000BB270A2B1B2B54E0220F331F5A95E1F768
:100DB00020743327022B132BDC01B695A795BA2F8D
:100DC000AA27AA27B1700A2B1B2BAD96EFAEAD97C1
:100DD000AC961FAEAC97AD96AEADBFADAD97AA27A2
:100DE000B4700A2B1B2BAF96EFAEAF97AE961FAE2B
:100DF000AE97AF96AEADBFADAF97AA27B8700A2B2E
:100E00001B2BE196FFAEE197E0961FAEE097E196CF
:100E1000AEADBFADE197AA27B072A02BB12BE39680
:100E2000FFAEE397E2961FAEE297E3960EAD1FADDD
:100E3000E397002710740A2B1B2BD40112960C93F6
:100E4000129713961C93DF01A459BF4F4D915C91EB
:100E5000119790972D913C9111971E968D919C9191
:100E6000119750961C917A01EE0CFF1CB70162702D
:100E70007727D90104E0AA0FBB1F0A95E1F7A071FB
:100E8000BB276A2B7B2B7C836B83BC017695762FEB
:100E90006627779567957727AB81BC816A2B7B2B7B
:100EA000B12FB295B07FE596BFAFE597E4961FAE40
:100EB000E497E596AEADBFADE597AA27B0716A2B72
:100EC0007B2B7A01EE0CFF1CD701A470BB27A62B4D
:100ED000B72BA70148705527A42BB52BBC83AB8338
:100EE000790104E0EE0CFF1C0A95E1F7B0E2EB2279
:100EF000FF244B815C81E42AF52A44E0220F331F52
:100F00004A95E1F720743327E22AF32A6C01D6943C
:100F1000C794DC2CCC24CC2451E0D522EC28FD282D
:100F20009695982F88279795879588279270E82A15
:100F3000F92A612F6295607FE7966FAFE797E69693
:100F40001FAEE697E7968EAD9FADE7978827907224
:100F5000E82AF92AE9966FAFE997E8961FAEE89775
:100F6000E9968EAD9FADE99788279074E82AF92A13
:100F7000D4011496EC9214971596FC92DF01A858B0
:100F8000BF4F6D917C91119790974D915C91119706
:100F90001E962D913C91119712960C911E961C91C4
:100FA0007B01EE0CFF1CC70182709927DA01A29524
:100FB000B295B07FBA27A07FBA27A071BB278A2B32
:100FC0009B2B9C838B83C9019695982F8827979597
:100FD00087959927AB81BC818A2B9B2BB02FBB0FA8
:100FE000BB0FEB96BFAFEB97EA961FAEEA97EB9677
:100FF000AEADBFADEB97AA27B4708A2B9B2B01FB3C
:10100000EE24E0F8EC96EFAEEC97ED961FAEED9780
:10101000ED96AEADBFADED978A2B9B2BB12FB29560
:10102000B07FEF96BFAFEF97EE961FAEEE97EF96BD
:10103000AEADBFADEF97AA27B0718A2B9B2B7B017A
:10104000EE0CFF1CD701A470BB27A82BB92BB7014E
:1010500068707727A62BB72BBC83AB837A0184E01B
:10106000EE0CFF1C8A95E1F7B0E2EB22FF246B81C6
:101070007C81E62AF72A94E0440F551F9A95E1F700
:1010800040745527E42AF52A6901D694C794DC2CCC
:10109000CC24CC2471E0D722EC28FD283695322FC1
:1010A00022273795279522273270E22AF32A000F4C
:1010B000C058DF4F0883C058D040C158DF4F188256
:1010C000CF57D040C158DF4F28813981CF57D0400A
:1010D00022273870E22AF32A812F8295807FCE570B
:1010E000DF4F8883C258D040CF57DF4F1882C15896
:1010F000D040CF57DF4F28813981C158D0402227B7
:101100003072E22AF32ACC57DF4F8883C458D0408C
:10111000CD57DF4F1882C358D040CD57DF4F2881BD
:101120003981C358D04022273074E22AF32AD401EF
:101130001696EC9216971796FC92DF01AC57BF4FAC
:10114000CD90DC909F012C593F4FD9016D917C913E
:10115000225F3F4FD9012D913C91AF014C585F4F19
:10116000DA018D919C918F010E571F4FD8011C9170
:10117000D601AA0FBB1F7D0102E0E022FF24AB01D4
:10118000A4E0440F551FAA95E1F7407155274E2959
:101190005F297901F694FE2CEE24F794E794FF245E
:1011A0004E295F297C01FE2CEE24FF0CFF0CEE245F
:1011B000A4E0FA224E295F297C01F694E794F69484
:1011C000E794FF24E694F794EE24E42AF52AB12F5D
:1011D000B295B07FCA57DF4FB883C658D040CB57BF
:1011E000DF4F1882C558D040CB57DF4F4881598117
:1011F000C558D040442750715701A42AB52A76011A
:10120000EE0CFF1C04E0E022FF24EA28FB28D601B4
:10121000AA0FBB1FA870BB27EA2AFB2A6B0154E068
:10122000CC0CDD1C5A95E1F740E2C422DD24CE2827
:10123000DF28A4E0660F771FAA95E1F7607477278F
:10124000C62AD72A5901B694A794BA2CAA24AA244C
:1012500051E0B522CA28DB283695322F2227379550
:10126000279522273270C22AD32A982F8827990FD0
:10127000990F88279870C82AD92A612F6295607FB4
:10128000C857DF4F6883C858D040C957DF4F18820E
:10129000C758D040C957DF4F88819981C758D0407F
:1012A00088279072C82AD92AC657DF4F6883CA5840
:1012B000D040C757DF4F1882C958D040C757DF4FBB
:1012C00088819981C958D04088279074C82AD92A22
:1012D000D4011896CC9218971996DC92DF01A25986
:1012E000BF4F4D915C91119712962D913C911197A2
:1012F0001E968D919C91119712961C917A01EE0C7D
:10130000FF1CB70162707727D90104E0AA0FBB1F49
:101310000A95E1F7A071BB276A2B7B2B7C836B833B
:10132000BC017695762F6627779567957727AB81F1
:10133000BC816A2B7B2BB12FBB0FBB0FC457DF4F78
:10134000B883CC58D040C557DF4F1882CB58D04017
:10135000C557DF4FA881B981CB58D040AA27B470B8
:101360006A2B7B2B7A01EE0CFF1CD701A470BB27E4
:10137000A62BB72BA70148705527A42BB52BBC83F0
:10138000AB83790104E0EE0CFF1C0A95E1F7B0E2B3
:10139000EB22FF244B815C81E42AF52A44E0220FF2
:1013A000331F4A95E1F720743327E22AF32A6C01B0
:1013B000D694C794DC2CCC24CC2451E0D522EC2844
:1013C000FD289695982F882797958795882792705E
:1013D000E82AF92A612F660F660FC257DF4F68832C
:1013E000CE58D040C357DF4F1882CD58D040C35796
:1013F000DF4F88819981CD58D04088279870E82A9E
:10140000F92AC057DF4F6883C059D040C157DF4F1A
:101410001882CF58D040C157DF4F88819981CF586B
:10142000D04088279071E82AF92AD4011A96EC92C4
:101430001A971B96FC92DF01A658BF4F2D913C9145
:10144000119712968D919C9111971E964D915C91DA
:10145000119712960C9112961C917901EE0CFF1CBB
:10146000B70162707727DC01A295B295B07FBA27E9
:10147000A07FBA27A071BB276A2B7B2B7C836B8351
:10148000BA017695762F6627779567957727AB8192
:10149000BC816A2B7B2BB02FBB0FBB0FCE56DF4F0F
:1014A000B883C259D040CF56DF4F1882C159D040BF
:1014B000CF56DF4FA881B981C159D040AA27B47057
:1014C0006A2B7B2BE12EE294EE0CB0EEEB22CC5695
:1014D000DF4FE882C459D040CD56DF4F1882C35940
:1014E000D040CD56DF4FA881B981C359D040AA273B
:1014F000B072A62BB72B11FBFF24F0F8CB56DF4FB1
:10150000F882C559D040CA56DF4F1882C659D0401C
:10151000CB56DF4FE880F980C559D040AE29BF29AE
:10152000B901660F771F64707727A62BB72B790157
:10153000EE0CFF1C9701287033272A2B3B2BDC0174
:1015400064E0AA0FBB1F6A95E1F7A072BB272A2BA4
:101550003B2B74E0880F991F7A95E1F780749927E7
:10156000822B932BDA01B695A795BA2FAA27AA2723
:10157000B1708A2B9B2B5695542F4427579547952E
:1015800044275270482B592B302F330F330FC85636
:10159000DF4F3883C859D040C956DF4F1882C7592A
:1015A000D040C956DF4F88819981C759D0408827DC
:1015B0009870482B592BC656DF4F3883CA59D040F4
:1015C000C756DF4F1882C959D040C756DF4F8881B0
:1015D0009981C959D04088279071482B592B129571
:1015E000107FC456DF4F1883CC59D040C556DF4F0B
:1015F0001882CB59D040C556DF4F88819981CB598D
:10160000D04088279074482B592BD4011C964C93BA
:101610001C971D965C93DF01AA57BF4F4D915C91BB
:10162000E857FF4F20813181CA01880F991F8270CE
:101630009927B901E4E0660F771FEA95E1F7607139
:101640007727862BBA01660F771F64707727862B62
:10165000440F551F48705527842BA901B4E0440F4F
:10166000551FBA95E1F740725527842B14E0220FDD
:10167000331F1A95E1F720743327822BF4018687F4
:101680001786C056DF4F0FB6F894DEBF0FBECDBF32
:10169000DF91CF911F910F91FF90EF90DF90CF904E
:1016A000BF90AF909F908F907F906F905F904F9082
:1016B0003F902F900895682F70E090E080E00E94A6
:1016C0002B312CE53FE842EA5FE30E9483300E9421
:1016D000FC30862F653B40F4611104C087E08093A5
:1016E000B3000895643B11F486E2F9CF66E00E94EE
:1016F0004F32885FF4CF682F70E090E080E00E9466
:101700002B312CE53FE842EA5FE30E9483300E94E0
:10171000FC30862F653B40F4611104C087E0809364
:10172000B4000895643B11F486E2F9CF66E00E94AC
:101730004F32885FF4CFAF92BF92CF92DF92EF9299
:10174000FF920F931F93CF93DF936C017B018B016B
:10175000040F151FEB015E01AE18BF08C017D107BB
:1017600059F06991D601ED91FC910190F081E02D45
:10177000C6010995892B79F7C501DF91CF911F919A
:101780000F91FF90EF90DF90CF90BF90AF900895B2
:10179000833081F028F4813099F08230A9F00895E7
:1017A0008730A9F08830C9F08430B1F4809180008E
:1017B0008F7D03C0809180008F7780938000089593
:1017C00084B58F7784BD089584B58F7DFBCF8091DC
:1017D000B0008F778093B00008958091B0008F7D26
:1017E000F9CFCF93DF93282F30E0F901EE58FF4F68
:1017F0008491F901E255FF4FD491F901E656FF4F6C
:10180000C491CC23A1F081110E94C80BEC2FF0E011
:10181000EE0FFF1FE057FF4FA591B491EC91ED2320
:1018200081E090E009F480E0DF91CF91089580E0BD
:1018300090E0FACF1F93CF93DF93282F30E0F90188
:10184000EE58FF4F8491F901E255FF4FD491F90111
:10185000E656FF4FC491CC23A9F0162F81110E94A8
:10186000C80BEC2FF0E0EE0FFF1FEA57FF4FA591DA
:10187000B4918FB7F894EC91111108C0D095DE2384
:10188000DC938FBFDF91CF911F910895DE2BF8CFAE
:10189000CF93DF9390E0FC01E255FF4F24918656F1
:1018A0009F4FFC0184918823C9F090E0880F991F15
:1018B000FC01E859FF4FA591B491FC01EA57FF4F95
:1018C000C591D49161110DC09FB7F8948C9120956A
:1018D00082238C938881282328839FBFDF91CF9117
:1018E0000895623051F49FB7F8943C91822F80950F
:1018F00083238C93E8812E2BEFCF8FB7F894EC9154
:101900002E2B2C938FBFEACF4F925F926F927F92D4
:101910008F929F92AF92BF92CF92DF92EF92FF92FF
:101920000F931F93CF93DF934A015B019C0150E01B
:1019300040E060E472E48FE090E00E941B306901B7
:1019400061E08091C6050E94480CA8EEB3E0A501B5
:1019500094010E943A302B013C01E601D7FC21960C
:10196000D595C7958E01000F111F000F111F05504F
:1019700011090D2C000CEE08FF08812C912C54014C
:1019800084149504A604B704E0F461E08091C605D0
:101990000E941A0CC230D10518F0C8010197F1F766
:1019A00060E08091C6050E941A0CC230D10518F083
:1019B000C8010197F1F7A8958C0C9D1CAE1CBF1CAB
:1019C000DFCFDF91CF911F910F91FF90EF90DF90CC
:1019D000CF90BF90AF909F908F907F906F905F90CF
:1019E0004F900895CF92DF92EF92FF926C392FEFD4
:1019F0007207820792070CF443C0B62FA72FF82F67
:101A0000E92F653671058105910524F0B4E6A0E063
:101A1000F0E0E0E097FD38C02B2F3A2F4F2F5E2FDC
:101A200057FF07C050954095309521953F4F4F4F38
:101A30005F4FAFEFB0E00E943A3024E630E040E084
:101A400050E00E941B3069017A0160E0C114D104AA
:101A5000E104F10409F061E089E00E94480C60E0D3
:101A60008AE00E94480CD0928900C09288001092AF
:101A70008B0010928A00FF90EF90DF90CF90089536
:101A8000BCE9AFEFFFEFEFEF2B2F3A2F4F2F5E2F79
:101A900057FF07C050954095309521953F4F4F4FC8
:101AA0005F4FAFEFB0E00E943A3024E630E040E014
:101AB00050E00E941B3069017A0160E0C114D1043A
:101AC000E104F10409F061E08AE00E94480C60E062
:101AD00089E00E94480CD0928B00C0928A0010923C
:101AE000890010928800C092BE05D092BF05E09296
:101AF000C005F092C105BFCF1F93CF93DF93182F7E
:101B0000EB0161E00E94480C209739F460E0812FDE
:101B1000DF91CF911F910C941A0CCF3FD10511F496
:101B200061E0F5CFE12FF0E0EE58FF4FE491E330B4
:101B300031F140F4E130B1F0E230E1F0C038D105EC
:101B40007CF7E4CFE73029F1E83059F1E430B1F720
:101B500080918000806280938000D0938B00C0933E
:101B60008A0004C084B5806884BDC7BDDF91CF9171
:101B70001F91089584B5806284BDC8BDF7CF809160
:101B80008000806880938000D0938900C093880093
:101B9000EDCF8091B00080688093B000C093B30017
:101BA000E5CF8091B00080628093B000C093B40014
:101BB000DDCFCF92DF92EF92FF920F931F93CF93DF
:101BC000DF936C392FEF7207820792070CF44EC037
:101BD000B62FA72FF82FE92F6536710581059105DE
:101BE00024F0B4E6A0E0F0E0E0E097FD43C02B2F46
:101BF0003A2F4F2F5E2F57FF07C0509540953095D5
:101C000021953F4F4F4F5F4FAFEFB0E00E943A300A
:101C100024E630E040E050E00E941B3069017A0188
:101C20008901D42FCF2D60E0C114D104E104F10467
:101C300009F061E086E00E94480C60E085E00E94C7
:101C4000480CB60186E00E947C0D0093C2051093FB
:101C5000C305D093C405C093C505DF91CF911F91F3
:101C60000F91FF90EF90DF90CF900895BCE9AFEF18
:101C7000FFEFEFEF2B2F3A2F4F2F5E2F57FF07C0AD
:101C800050954095309521953F4F4F4F5F4FAFEFA7
:101C9000B0E00E943A3024E630E040E050E00E949C
:101CA0001B3069017A018901D42FCF2D60E0C11466
:101CB000D104E104F10409F061E085E00E94480CE0
:101CC00060E086E00E94480CB60185E0BCCFCF9270
:101CD000DF92EF92FF9269017A010E94D90DC7014C
:101CE000B601FF90EF90DF90CF900C94F20C8E3005
:101CF00008F08E508770806480937C0080917A0019
:101D0000806480937A0080917A0086FDFCCF809178
:101D10007800909179000895BF92CF92DF92EF9270
:101D2000FF920F931F93CF93DF933AE0B32EC12C12
:101D3000D12C7601CFEFD3E010E000E084E10E94E7
:101D4000770E0817190708F48C018C179D0708F403
:101D5000EC01C80ED91EE11CF11CBA94B110EECFF3
:101D6000D701C601801B910BA109B1098C1B9D0BEA
:101D7000A109B10923E0B695A795979587952A956E
:101D8000D1F7883F23E09207A105B10508F0A6C06E
:101D9000893E23E09207A105B10508F0ABC08B3C5A
:101DA00023E09207A105B10508F0A7C0833A23E01C
:101DB0009207A105B10508F0A3C0853823E092077A
:101DC000A105B10508F09FC08C3623E09207A1055C
:101DD000B10508F09BC0813223E09207A105B1054F
:101DE00008F097C08F3F22E09207A105B10508F0E7
:101DF00093C0813D22E09207A105B10508F08FC094
:101E00008F3922E09207A105B10508F08BC08D360D
:101E100022E09207A105B10508F087C08F3422E0C7
:101E20009207A105B10508F083C0833122E0920733
:101E3000A105B10508F07FC0853F21E09207A1050B
:101E4000B10508F07BC0813E21E09207A105B105F4
:101E500008F077C0823D21E09207A105B105D8F5D1
:101E6000873A21E09207A105B10508F06DC08639D7
:101E700021E09207A105B10508F069C08C3721E087
:101E80009207A105B10508F065C08A3521E09207E7
:101E9000A105B10500F5823321E09207A105B10546
:101EA00008F05BC08F3021E09207A105B10508F072
:101EB00057C0803D9105A105B10508F054C0853A91
:101EC0009105A105B10508F051C08A379105A1051A
:101ED000B10508F04EC08FEF90E002C090E080E0C6
:101EE000DF91CF911F910F91FF90EF90DF90CF90F6
:101EF000BF9008958FE090E0F3CF83E190E0F0CFC2
:101F00008CE090E0EDCF8AE090E0EACF85E090E0D1
:101F1000E7CF89E090E0E4CF8BE090E0E1CF8DE087
:101F200090E0DECF82E090E0DBCF80E190E0D8CFA0
:101F30008EE090E0D5CF88E090E0D2CF83E090E0D3
:101F4000CFCF84E190E0CCCF87E190E0C9CF85E1AD
:101F500090E0C6CF87E090E0C3CF82E190E0C0CFB1
:101F600086E090E0BDCF84E090E0BACF89E190E0D8
:101F7000B7CF88E190E0B4CF3FB7F8948091D60313
:101F80009091D703A091D803B091D90326B5A89B0F
:101F900005C02F3F19F00196A11DB11D3FBFBA2FFB
:101FA000A92F982F8827BC01CD01620F711D811DBB
:101FB000911D42E0660F771F881F991F4A95D1F740
:101FC00008958F929F92AF92BF92CF92DF92EF923D
:101FD000FF924B015C010E94BC0F6B017C010E94CF
:101FE000BC0F6C197D098E099F09683E73408105FD
:101FF0009105A8F321E0821A9108A108B10888EEA2
:10200000C80E83E0D81EE11CF11C81149104A104C8
:10201000B10429F7FF90EF90DF90CF90BF90AF9081
:102020009F908F900895823039F120F461E08130E3
:1020300031F00895833061F060E08430D1F787E0BB
:102040000E941A0C60E08DE00E941A0C60E009C04A
:1020500060E087E00E941A0C60E08DE00E941A0C9C
:1020600061E08CE00E941A0C69E170E080E090E091
:102070000E94E10F0C948C0E61E087E00E941A0C24
:1020800061E0E1CF2FB7F8946091D2037091D30350
:102090008091D4039091D5032FBF08952091CF0351
:1020A0003091D0032817390771F49091CE038091B5
:1020B000CD03981741F0E091CE03F0E0E357FC4FD9
:1020C000808190E008958FEF9FEF08950895EF923B
:1020D000FF920F931F93CF93DF93DC015C96ED90FB
:1020E000FC905D97E114F10479F481E090E013969F
:1020F0009C938E93129790E080E0DF91CF911F9197
:102100000F91FF90EF9008955196ED91FC915297A9
:1021100050968C915097982F90950FB75E962C9172
:102120005E97122F127021FD6095F8942081112383
:1021300019F1282B2083E7012197F1F728E0462F9A
:1021400050E0308160FF1AC0382B3083E7012197BF
:10215000F1F7BA0175956795215089F7112381F040
:102160008081892380830FBF5C968D919C9101971C
:10217000F1F781E090E0C1CF2923DCCF3923E5CF0F
:102180009081892BEFCF2091CF033091D003281776
:10219000390771F48091CD032091CE0390E0805CEB
:1021A0009F4F821B910960E470E00E945B320895AA
:1021B00090E080E008952091CF033091D00328175C
:1021C0003907B9F49091CE038091CD03981789F027
:1021D000E091CE03F0E0E357FC4F80812091CE03E5
:1021E00030E02F5F3F4F2F7333272093CE0390E0D3
:1021F00008958FEF9FEF0895E091CF03F091D00302
:10220000E817F90769F4A389B4899C9185898095B9
:1022100089238C931092D0031092CF0381E008950C
:1022200080E00895AF92BF92CF92DF92EF92FF923B
:102230000F931F93CF93DF935C010AE010E0C12C52
:10224000D12C7601D0E0C0E060E0F50183810E94EE
:10225000480CF50183810E94770EC817D90708F44E
:10226000EC01C80ED91EE11CF11C0150110961F7E7
:10227000D701C6018C1B9D0BA109B10923E0B695BE
:10228000A795979587952A95D1F7DF91CF911F91C3
:102290000F91FF90EF90DF90CF90BF90AF90089597
:1022A000FC01A381B4819781408551859A01220F59
:1022B000331F240F351F728583856FB7F8944C91B7
:1022C000592F50955423492BE72FF82FCF01820F18
:1022D000931FE817F90781F0219138E04C9300C073
:1022E00027FF5C93220F00C000C000C008F45C937D
:1022F00000C03A9599F7EDCF6FBF789461E070E038
:1023000080E090E00C94E10F0F93FC0180859185B3
:1023100068171906C0F4962F990F690F70E0A2850F
:10232000B385A60FB71F2C93A285B385A60FB71F41
:1023300011964C9382859385680F791FFB01028368
:1023400081E00F91089580E0FCCFCF92DF92EF9271
:10235000FF920F931F93CF93DF937C01162FD42E00
:10236000C22ED0E0C0E0F70180859185C817D9075B
:1023700048F40C2D2D2D412F6C2FC7010E94841184
:102380002196F1CF81E0DF91CF911F910F91FF90C6
:10239000EF90DF90CF900895DC01E62FF0E0EE0F94
:1023A000FF1FE259FE4F80818C93818111968C939F
:1023B000119712966C9308950F931F93CF938C01EE
:1023C000C62F0E94CC11EC2FF0E0EE0FFF1FE25958
:1023D000FE4F8181F8018383CF911F910F91089562
:1023E0000F931F93CF938C01C62F0E94CC11EC2F1B
:1023F000F0E0EE0FFF1FE259FE4F8181D8011396E6
:102400008C931397808114968C93149715961C9235
:10241000CF911F910F9108950F931F93CF938C012C
:10242000C62F0E94F011EC2FF0E0EE0FFF1FE259D3
:10243000FE4F8081F80186831582CF911F910F9105
:1024400008950F931F93CF938C01C62F0E94CC1138
:10245000EC2FF0E0EE0FFF1FE259FE4F8081D80114
:1024600013968C931397918114969C9361E00E942C
:10247000480C61E0F8018481CF911F910F910C9479
:10248000480C1F93CF93DF93EC01162F0E94CC11C1
:10249000E12FF0E0EE0FFF1FE259FE4F81818B83A9
:1024A00080818C838B8160E00E94480C8C8161E08C
:1024B0000E94480C8C8160E0DF91CF911F910C94B9
:1024C0001A0C0F931F93CF93DF93EC01162F4F96A7
:1024D0000E94CC11E12FF0E0EE0FFF1FE259FE4FFA
:1024E000118100811B821A8288EE93E0A0E0B0E0A7
:1024F0008C839D83AE83BF8380E691E0998388833C
:102500001F8A1E8A198E188E1B8E1A8E1D8E1C8E87
:102510006E8D6E7F6D7F6E8F6695617081E068272E
:10252000812F0E941A0C61E0812F0E94480C812F9C
:1025300090E0FC01E255FF4FE491E88BFC01E65688
:10254000FF4FE491F0E0EE0FFF1FEA57FF4F859138
:1025500094919A8B898B60E0802F0E94480C8E8D1D
:1025600081FD04C061E0802F0E941A0C0C87802F2F
:1025700090E0FC01E255FF4FE491ED87FC01E65647
:10258000FF4FE491F0E0EE0FFF1FE057FF4F859102
:1025900094919F878E8780E691E09983888383E07A
:1025A0008AA31B8E1A8E198E188E1F8A1E8A85E6A4
:1025B00090E09D8F8C8F0631E0F581E290E09F8B5B
:1025C0008E8B83E690E0998F888F82E490E09B8FDA
:1025D0008A8F9091680084E0083048F021E00E3046
:1025E00008F420E081E001C0880F2A95EAF7892BE2
:1025F000809368009C852DE630E0983050F02BE603
:1026000030E09E3030F02CE630E0963110F030E0D3
:1026100020E03C8B2B8B292F30E0983078F581E03F
:1026200001C0880F9A95EAF78D8B8C8D9D8D01974F
:10263000F1F78A8D9B8D892BE1F08091CF039091EA
:10264000D003C817D907A9F0009711F00E94FC1019
:102650008E8D8E7F8E8F1092CD031092CE03D093ED
:10266000D003C093CF03EB89FC8980819D89892B9E
:102670008083DF91CF911F910F9108959E3040F498
:102680002850310981E001C0880F2A95EAF7CCCFA4
:102690002E503109F7CF0F931F93CF93DF93EC01A7
:1026A0008B810E94F10B8C018C810E94F10BAC019B
:1026B00021E030E0012B11F430E020E0220F331F45
:1026C00081E0452B09F480E0822BDF91CF911F91AF
:1026D0000F9108951F93CF93DF93EC01162F0E9463
:1026E000CC11E12FF0E0EE0FFF1FE259FE4F808189
:1026F0008B8381818C838B8160E00E94480C8C816C
:1027000060E0DF91CF911F910C94480CCF93DF9341
:10271000EC0160E08B810E94480C8B810E94770E57
:1027200020E034E0A901481B590BCA01DF91CF9189
:102730000895AF92BF92CF92DF92EF92FF920F93E4
:102740001F93CF93DF935C010AE010E0C12CD12CE2
:102750007601D0E0C0E0C5010E948613C817D907F2
:1027600008F4EC01C80ED91EE11CF11C015011093E
:1027700091F7D701C6018C1B9D0BA109B10923E07C
:10278000B695A795979587952A95D1F7DF91CF9123
:102790001F910F91FF90EF90DF90CF90BF90AF907F
:1027A000089590E080E00895CF93DF93EC0161E01D
:1027B0008B810E94480C8D818130C1F487E592E0C5
:1027C0000197F1F700C0000060E08C810E941A0CB4
:1027D00060E08B810E941A0C61E08C810E941A0CCF
:1027E00061E08B81DF91CF910C941A0C60E08C81B9
:1027F0000E941A0C9AE19A95F1F700C060E08B8173
:102800000E941A0C8AE18A95F1F700C061E08C8180
:102810000E941A0C9AE19A95F1F700C061E08B8151
:102820000E941A0C8AE18A95F1F700C0DF91CF91DE
:1028300008951F93CF93DF93EC0160E08B810E949A
:10284000480C8D818130F1F487E592E00197F1F732
:1028500000C0000061E08B810E941A0C61E08C8155
:102860000E941A0C8B810E94F10B11E0892B09F454
:1028700010E060E08C810E941A0C812FDF91CF91D3
:102880001F91089561E08B810E941A0C9AE19A953C
:10289000F1F700C061E08C810E941A0C8AE18A95F0
:1028A000F1F700C08B810E94F10B11E0892B09F434
:1028B00010E060E08C810E941A0C9AE19A95F1F781
:1028C00000C0DBCF0F931F93CF93DF93EC01162F44
:1028D00061E08C810E94480C61E08B810E94480C71
:1028E0008D81813019F108E08B8161E017FF60E094
:1028F0000E941A0C8AE18A95F1F700C0110F61E07D
:102900008C810E941A0C9AE19A95F1F700C060E060
:102910008C810E941A0C8AE18A95F1F700C001505F
:1029200019F7DF91CF911F910F91089587E592E0FC
:102930000197F1F700C0000008E08B8161E017FF0C
:1029400060E00E941A0C110F61E08C810E941A0C49
:1029500060E08C810E941A0C015079F7E2CFCF938E
:10296000DF93EC018FE193E00197F1F700C00000E5
:10297000CE010E94621487EC90E00197F1F700C04D
:102980000000CE01DF91CF910C941914CF93DF9307
:10299000EC0161E08C810E94480C61E08B810E9417
:1029A000480C8D818130C1F487E592E00197F1F701
:1029B00000C0000061E08B810E941A0C61E08C81F4
:1029C0000E941A0C60E08B810E941A0C60E08C81DE
:1029D000DF91CF910C941A0C61E08B810E941A0C4C
:1029E0009AE19A95F1F700C061E08C810E941A0C7F
:1029F0008AE18A95F1F700C060E08B810E941A0C91
:102A00009AE19A95F1F700C060E08C810E941A0C5F
:102A10008AE18A95F1F700C0DF91CF9108951F9365
:102A2000CF93DF93EC01162F0E94C614612F660F1F
:102A3000CE010E94621480EA8A95F1F7CE01DF91FF
:102A4000CF911F910C9419144F925F926F927F92C5
:102A50009F92AF92BF92CF92DF92EF92FF920F932D
:102A60001F93CF93DF93CDB7DEB728970FB6F894B7
:102A7000DEBF0FBECDBF7C01CE0101966C015E01B1
:102A800099E0A90EB11C992493940E944210F70179
:102A90004084518462847384641975098609970996
:102AA000613171058105910508F09782F7018781F1
:102AB000882309F4B5C00E944210F701608771872E
:102AC00082879387178260E4C7010E940F1562EA2C
:102AD000C7010E94AF1462EAC7010E94AF1462EA04
:102AE000C7010E94AF1461E0C7010E94AF14C70183
:102AF0000E94D413F701868160E00E94480CF70120
:102B0000868190E0FC01E255FF4F6491FC01E6569E
:102B1000FF4FE491F0E0EE0FFF1FE057FF4F85916C
:102B2000949100E712E620E030E040E00E946C283B
:102B3000412C512C32016115710581059105B1F0CF
:102B40002B013C01FFEF4F1A5F0A6F0A7F0A2FE04B
:102B500072228CE2481681E058066104710430F05C
:102B60009CE2491A91E0590A61087108C301B20157
:102B70000E942D31F7016487758786879787141423
:102B800015041604170434F084EA482E88E3582EFE
:102B9000612C712CC301B2010E942D3120E030E084
:102BA00048E652E40E948330F60161937193819369
:102BB00091936F0162E170E080E090E00E94E10F8C
:102BC000AC14BD0409F061CFC980DA80EB80FC80D1
:102BD0007D809E80AF80B884272D392DA501B60158
:102BE000C7010E94DD3187FF03C0C72CD92C7501B6
:102BF000B601C70128960FB6F894DEBF0FBECDBF51
:102C0000DF91CF911F910F91FF90EF90DF90CF90C8
:102C1000BF90AF909F907F906F905F904F9008957E
:102C200064857585868597850E94F5302B013C016A
:102C3000A6CF2F923F924F925F926F927F928F9288
:102C40009F92AF92BF92CF92DF92EF92FF920F933B
:102C50001F93CF93DF9300D000D01F92CDB7DEB784
:102C6000082F10E028EC829FF0011124E652FC4F5F
:102C7000E481E15AE23108F012C7F0E0EE5BF94E70
:102C80000C946F325416D41609174B17AD17371919
:102C9000A119091A4F1D4F1D4F1D4F1D4F1D721AAF
:102CA000891B131C7D1CE51C28EC209FC001219F63
:102CB000900D1124AC0146525C4F7A01DA01159651
:102CC0008C910E941310029709F0E9C68091A90522
:102CD0009091AA05009709F050C080E190E00E9411
:102CE00089326C01F7016581C6010E940C12D092F5
:102CF000AA05C092A9058091A9059091AA050E94F4
:102D0000241520E030E040E251E40E94E2310E94CC
:102D1000F5309B0142E54093C70542E44093C80566
:102D200048EC409FF001419FF00D1124E652FC4F0A
:102D300043814093CA0541E04093CB05AB0177FF47
:102D400002C041505F4F5093CC05C90160E071E073
:102D50000E945B328093CD0588E08093C905E7EC43
:102D6000F5E02EEC35E080E09191890F2E173F07BA
:102D7000D9F78093CE0588E03FC2DC0112964C91D2
:102D8000F7012581022E000C330B4217130609F4BC
:102D9000B2CF0E94253380E190E00E9489326C011D
:102DA000D70115966C91A0CF88EC809FF001819F90
:102DB000F00D1124E652FC4F8581893F09F06FC662
:102DC00082E58093C70582E48093C8051092C90507
:102DD00083818093CA0511E01093CB0588E00E949F
:102DE000F10B019799F41092CC0587E08093C90507
:102DF000E7ECF5E02DEC35E080E09191890F2E179E
:102E00003F07D9F78093CD0587E0F6C11093CC0535
:102E1000ECCF28EC209FC001219F900D11248C0144
:102E200006521C4FF80185818D3F09F038C685E1B7
:102E30000E94770E22E3AC01249FC001259F900DD4
:102E4000112422E52093C70522E42093C805D80168
:102E500013962C912093CA0521E02093CB056FEFA8
:102E600073E00E945B32CB0160E071E00E945B3254
:102E7000982F990F890F8093CC0587E08093C9051F
:102E8000E7ECF5E02DEC35E080E09191890F2E170D
:102E90003F07D9F7B7CF8091BA059091BB0548ECB1
:102EA000409F9001419F300D1124F901E652FC4FE3
:102EB0007F01D5800097C1F585E090E00E948932BE
:102EC0007C016D2D0E946A13F092BB05E092BA0559
:102ED00082E58093C70582E48093C8051092C905F6
:102EE00088EC809FF001819FF00D1124E652FC4F89
:102EF00083818093CA0581E08093CB058091BA05D8
:102F00009091BB050E944B138093CC0587E0809382
:102F1000C905E7ECF5E02DEC35E080E09191890FF3
:102F20002E173F07D9F76ECFDC0112962C916D2D2D
:102F3000DD0C770B2617170659F20E94253385E022
:102F400090E00E9489326C01F70165810E946A134A
:102F5000D092BB05C092BA05BBCF28EC209FC00120
:102F6000219F900D11249C0126523C4F5901D901FB
:102F700015968C910E941310069709F090C58091C8
:102F8000970590919805F501F580009709F04DC1DE
:102F900086E090E00E9489326C016F2D0E94CC1176
:102FA000EF2DF0E0EE0FFF1FE259FE4F8181D601B9
:102FB00015968C93D0929805C0929705E09097054E
:102FC000F09098059E012F5F3F4F190185E0D901D0
:102FD0001D928A95E9F761E0F70185810E94480C0E
:102FE00061E0D70115968C910E941A0C6AEF70E08F
:102FF00080E090E00E94E10F60E0F70185810E948F
:103000001A0C64E170E080E090E00E94E10F61E062
:10301000D70115968C910E941A0C8BE990E00197CC
:10302000F1F760E0F70185810E941A0C83E290E0DD
:103030000197F1F70E9442104B015C0162E0D70159
:1030400015968C910E94480CF70185810E94F10B26
:10305000019789F00E944210681979098A099B0931
:10306000653071058105910578F3D70113961C929F
:10307000139714961C920E9442104B015C0162E06F
:10308000F70185810E94480CD70115968C910E940A
:10309000F10B892B59F00E944210681979098A09AD
:1030A0009B09653071058105910570F3D12CC12C08
:1030B0000E9442104B015C0162E0F70185810E9491
:1030C000480CD70115968C910E94F10B892B59F46D
:1030D0000E944210681979098A099B0965307105B7
:1030E0008105910570F30E94BC0F4B015C010E94A9
:1030F00042102B013C0162E0F70185810E94480CDF
:10310000D70115968C910E94F10B019759F40E94FA
:1031100042106419750986099709653071058105A2
:10312000910570F30E94BC0FF601A3E0F595E795B9
:10313000AA95E1F7E20DF31D2081220FAB01BC013E
:10314000481959096A097B09493251056105710518
:1031500008F48BC0822F81608083BFEFCB1ADB0A1B
:10316000E8E2CE16D10409F0A3CF59814B816D81DD
:103170008A81850F9927991F9C01240F311D8C810D
:10318000820F932F911D99276817190631F4D701E3
:1031900013965C93139714964C9382E58093C7051E
:1031A00082E48093C80588EC809FF001819FF00D38
:1031B0001124E652FC4F83818093CA0581E08093FD
:1031C000CB05F70183818093CC051092CD058481D6
:1031D0008093CE051092CF058AE08093C905E7EC75
:1031E000F5E020ED35E080E09191890F2E173F0743
:1031F000D9F78093D0058AE00F900F900F900F9031
:103200000F90DF91CF911F910F91FF90EF90DF9082
:10321000CF90BF90AF909F908F907F906F905F9076
:103220004F903F902F900C949400FC0122816F2DC1
:10323000FF0C770B2617170609F4C0CE0E94253322
:1032400086E090E00E9489326C01D5011596FC90D1
:103250006F2D0E94CC11EF2DF0E0EE0FFF1FE25911
:10326000FE4F8181F6018583A5CE208376CF8091A4
:1032700095059091960548EC409F9001419F300D37
:103280001124A90146525C4F7A01DA011596DC90AF
:103290000097F1F584E090E00E9489327C016D2D69
:1032A0000E94DC11F0929605E092950582E58093EC
:1032B000C70582E48093C8051092C90588EC809FF9
:1032C000F001819FF00D1124E652FC4F8381809321
:1032D000CA0581E08093CB05009195051091960574
:1032E000C8010E9499139093CC05C8010E949913BC
:1032F0008093CD0588E08093C905E7ECF5E02EECDE
:1033000035E080E09191890F2E173F07D9F731CD35
:10331000FC0122816D2DDD0C770B2617170631F28B
:103320000E94253384E090E00E9489326C01D7012D
:1033300015966C910E94DC11D0929605C09295056D
:10334000B5CF809193059091940548EC409F9001F2
:10335000419F300D1124F901E652FC4F7F01D580C9
:103360000097F1F584E090E00E9489327C016D2D98
:103370000E94DC11F0929405E092930582E580931F
:10338000C70582E48093C8051092C90588EC809F28
:10339000F001819FF00D1124E652FC4F8381809350
:1033A000CA0581E08093CB050091930510919405A7
:1033B000C8010E9412119093CC05C8010E941211FD
:1033C0008093CD0588E08093C905E7ECF5E02EEC0D
:1033D00035E080E09191890F2E173F07D9F7C9CCCE
:1033E000DC0112962C916D2DDD0C770B261717063C
:1033F00029F20E94253384E090E00E9489326C011A
:10340000F70165810E94DC11D0929405C09293056A
:10341000B5CF80918D0590918E0548EC409F90012D
:10342000419F300D1124A90146525C4F7A01DA0107
:103430001596DC900097E9F585E090E00E948932CE
:103440007C016D2D0E944112F0928E05E0928D0557
:1034500082E58093C70582E48093C8051092C90570
:1034600088EC809FF001819FF00D1124E652FC4F03
:1034700083818093CA0581E08093CB05E0918D051F
:10348000F0918E0583810E94F10B21E0892B09F0D8
:1034900020E02093CC0587E08093C905E7ECF5E0B8
:1034A0002DEC35E080E09191890F2E173F07D9F779
:1034B000A9CCFC0122816D2DDD0C770B2617170698
:1034C00039F20E94253385E090E00E9489326C0138
:1034D000D70115966C910E944112D0928E05C09230
:1034E0008D05B6CF80917D0590917E0548EC409F7B
:1034F0009001419F300D1124F901E652FC4F5F010C
:10350000F580009709F0C3C085E090E00E94893201
:103510006C016F2DC6010E94CC11EF2DF0E0EE0F73
:10352000FF1FE259FE4F8181D60113968C931397AA
:10353000808114968C93D0927E05C0927D05C090B8
:103540007D05D0907E0560E0F60183810E94480CE5
:10355000D60113968C910E94770E9C01205D32401B
:10356000121613060CF0A7C04BE0429FC001439F08
:10357000900D112466E070E00E945B32E0909401AF
:10358000F0909501E60EF71EB1EEEB16B1E0FB06EA
:103590000CF09AC0E0E2EE16EEEFFE060CF499C0D5
:1035A000C701C1968336910508F498C060E0D60142
:1035B00014968C910E94480CF60184810E94770E2B
:1035C0009C01205D3240121613060CF08AC045EFB4
:1035D0004203C001439F900D112466E070E00E94F9
:1035E0005B328091960190919701680F791F613E3F
:1035F00051E075070CF082C060328EEF78070CF452
:1036000080C0CB01C1968336910508F47DC082E568
:103610008093C70582E48093C80588EC809FF00101
:10362000819FF00D1124E652FC4F83818093CA05DF
:1036300081E08093CB05F7FC6AC08093CC05F7FE50
:1036400003C0F194E194F108F092CD05E092CE052B
:1036500081E077FD82E08093CF0577FF03C071950D
:10366000619571097093D0056093D1058CE08093CA
:10367000C905E7ECF5E022ED35E080E09191890F96
:103680002E173F07D9F78093D2058CE0B5CDFC010A
:1036900022816F2DFF0C770B2617170609F44FCFE9
:1036A0000E94253385E090E00E9489326C01D501AB
:1036B0001596FC902ECF47E0429FC001439F900D8E
:1036C00011246AE070E058CF60EEE62EFF24F394F8
:1036D0006DCF50E2E52E5EEFF52E68CFF12CE12C98
:1036E00065CFC90143E0880F991F4A95E1F7A90109
:1036F000481B590BCA016AE070E071CF60EE71E0BF
:1037000086CF60E27EEF83CF70E060E080CF82E022
:1037100094CF80917B0590917C0548EC409F90016F
:10372000419F300D1124D901A652BC4F5D01159661
:10373000FC90009709F063C085E090E00E94893218
:103740006C016F2DC6010E94CC11EF2DF0E0EE0F41
:10375000FF1FE259FE4F8081D60113968C93139779
:10376000818114968C93D0927C05C0927B0582E572
:103770008093C70582E48093C8051092C90588EC40
:10378000809FF001819FF00D1124E652FC4F838150
:103790008093CA0581E08093CB05E0907B05F09093
:1037A0007C0560E0F70184810E94480CD7011496E3
:1037B0008C910E94770E0FEF13E0F801E81BF90BD4
:1037C000CF019093CC0560E0D70114968C910E94B4
:1037D000480CF70184810E94770E081B190B009397
:1037E000CD0588E08093C905E7ECF5E02EEC35E0E7
:1037F00080E09191890F2E173F07D9F7BACAFC01D3
:1038000022816F2DFF0C770B2617170609F4AFCF17
:103810000E94253385E090E00E9489326C01D50139
:103820001596FC908ECF8091790590917A0548ECA1
:10383000409F9001419F300D1124A90146525C4FD9
:103840007A01DA011596DC900097F1F584E090E0BA
:103850000E9489327C016D2D0E94DC11F0927A0564
:10386000E092790582E58093C70582E48093C805DC
:103870001092C90588EC809FF001819FF00D112402
:10388000E652FC4F83818093CA0581E08093CB058B
:103890000091790510917A05C8010E9486139093D2
:1038A000CC05C8010E9486138093CD0588E08093E3
:1038B000C905E7ECF5E02EEC35E080E09191890F49
:1038C0002E173F07D9F755CAFC0122816D2DDD0C5B
:1038D000770B2617170631F20E94253384E090E01B
:1038E0000E9489326C01D70115966C910E94DC11FF
:1038F000D0927A05C0927905B5CF809177059091E5
:10390000780548EC409F9001419F300D1124F9014A
:10391000E652FC4F7F01D5800097F1F584E090E0FE
:103920000E9489327C016D2D0E94DC11F092780595
:10393000E092770582E58093C70582E48093C8050D
:103940001092C90588EC809FF001819FF00D112431
:10395000E652FC4F83818093CA0581E08093CB05BA
:103960000091770510917805C8010E94121190937B
:10397000CC05C8010E9412118093CD0588E0809388
:10398000C905E7ECF5E02EEC35E080E09191890F78
:103990002E173F07D9F7EDC9DC0112962C916D2D3A
:1039A000DD0C770B2617170629F20E94253384E0D9
:1039B00090E00E9489326C01F70165810E94DC1160
:1039C000D0927805C0927705B5CF8091750590911A
:1039D000760548EC409F9001419F300D1124A901CC
:1039E00046525C4F7A01DA011596DC900097F1F5AA
:1039F00084E090E00E9489327C016D2D0E94DC11F0
:103A0000F0927605E092750582E58093C70582E421
:103A10008093C8051092C90588EC809FF001819FB2
:103A2000F00D1124E652FC4F83818093CA0581E09A
:103A30008093CB050091750510917605C8010E9411
:103A400012119093CC05C8010E9412118093CD05EC
:103A500088E08093C905E7ECF5E02EEC35E080E0E6
:103A60009191890F2E173F07D9F783C9FC01228155
:103A70006D2DDD0C770B2617170631F20E942533CA
:103A800084E090E00E9489326C01D70115966C9118
:103A90000E94DC11D0927605C0927505B5CF0F90CB
:103AA0000F900F900F900F90DF91CF911F910F917A
:103AB000FF90EF90DF90CF90BF90AF909F908F904E
:103AC0007F906F905F904F903F902F900895FF925E
:103AD0000F931F93CF93DF93EC01F62E042F122F39
:103AE00060E50E940F1563EACE010E94AF146F2DAE
:103AF000CE010E94AF14602FCE010E94AF14612F3F
:103B0000CE010E94AF14CE01DF91CF911F910F9192
:103B1000FF900C94D4130F931F93CF93DF93EC017A
:103B2000042F122F0E940F15602FCE010E94AF1498
:103B3000612FCE010E94AF14CE01DF91CF911F9172
:103B40000F910C94D413CF92DF92EF92FF920F93C8
:103B50001F93CF93DF93EC01D62EC42E79010E94E0
:103B6000C6146D2D660FCE010E946214CE010E9414
:103B700019146C2DCE010E946214CE010E941914FA
:103B80000E0D1F1DE016F10651F0F70161917F0146
:103B9000CE010E946214CE010E941914F3CFCE010F
:103BA000DF91CF911F910F91FF90EF90DF90CF9019
:103BB0000C94D4138F929F92AF92BF92CF92DF92C8
:103BC000FF920F931F93CF93DF93EC01F62E2BE020
:103BD0004DEF0E948B1D20E04AE06F2DCE010E9428
:103BE0008B1D20E141E06F2DCE010E948B1D24EE44
:103BF0004DE06F2DCE010E948B1D21E04EE06F2D18
:103C0000CE010E948B1D24E444E16F2DCE010E9461
:103C10008B1D24E845E16F2DCE010E948B1D29E903
:103C20004FE06F2DCE010E948B1D20E04DEF6F2DD8
:103C3000CE010E948B1D24E0822E23E0922EF401FF
:103C4000119283E0E43AF807D9F70FE910E024E095
:103C500033E040E06F2DCE010E94A31D21E04DEF27
:103C60006F2DCE010E948B1DE4E0F3E0119293E0F2
:103C7000E43AF907D9F70FE910E024E033E040E037
:103C80006F2DCE010E94A31D2DE04DEF6F2DCE01B3
:103C90000E948B1DECE1F1E0A4E0B3E081918D93F3
:103CA00081E0EC35F807D1F70FE310E024E033E0D2
:103CB00040E06F2DCE010E94A31D2BE04DEF6F2D34
:103CC000CE010E948B1D21E04AE06F2DCE010E94A3
:103CD0008B1D2BE04DEF6F2DCE010E948B1D20E040
:103CE0004AE06F2DCE010E948B1D20E04DEF6F2D1D
:103CF000CE010E948B1D94E0A92E93E0B92EF50110
:103D000011925F01F4E1AF16F3E0BF06C1F70FE0D7
:103D100010E024E033E040E06F2DCE010E94A31DAF
:103D200084E0C82E83E0D82E85E5F60181936F01EB
:103D3000F4E8CF16F3E0DF06C1F70FE710E024E068
:103D400033E040E26F2DCE010E94A31D2BE04DEF2A
:103D50006F2DCE010E948B1D21E04AE06F2DCE0118
:103D60000E948B1D2BE04DEF6F2DCE010E948B1D0D
:103D700020E04AE06F2DCE010E948B1D21E04DEF27
:103D80006F2DCE010E948B1DE4E0F3E01192AE1680
:103D9000BF06E1F70FE010E024E033E040E06F2DD4
:103DA000CE010E94A31D85E5F40181934F01CE163B
:103DB000DF06D1F70FE710E024E033E040E26F2D9B
:103DC000CE010E94A31D2BE04DEF6F2DCE010E946E
:103DD0008B1D21E04AE06F2DCE01DF91CF911F9125
:103DE0000F91FF90DF90CF90BF90AF909F908F90FA
:103DF0000C948B1DCF93DF93EC010E94F01181E0B6
:103E00008D83CE010E94C61467EECE010E94AF14CE
:103E100060E8CE010E94AF1464EACE010E94AF14A4
:103E20006AE9CE010E94AF1461E8CE010E94AF148E
:103E300063E8CE010E94AF14CE01DF91CF910C94C4
:103E4000D4130F931F93CF93DF938C01D62FC42FDE
:103E50000E94C61463E36D0F660FC8010E946214CE
:103E6000C8010E941914C7FF11C0CF77EC2FF0E0F2
:103E7000E55FFE4F60816068C8010E946214C8015E
:103E8000DF91CF911F910F910C94D413EC2FF0E0A0
:103E9000E55FFE4F6081F0CFCF93DF93EC010E948E
:103EA000C61468E4CE010E946214CE010E94191467
:103EB00061E3CE010E946214CE01DF91CF910C9498
:103EC000D413CF93DF93EC01862F90E099878887F6
:103ED00023E0629FC00111240E9489329B878A8758
:103EE000892B21F488E791E00E94AE3390E080E0D6
:103EF000488559859A01220F331F240F351F8217D9
:103F0000930738F4EA85FB85E80FF91F10820196C4
:103F1000EFCFDF91CF9108951F93CF93DF93EC0103
:103F2000162F0E94CC11E12FF0E0EE0FFF1FE25997
:103F3000FE4F8181282F30E0F901E255FF4FE491D7
:103F4000EF83F901E656FF4FE491F0E0EE0FFF1F1B
:103F5000EA57FF4F259134913C832B8361E00E9407
:103F6000480C64E0CE01DF91CF911F910C94611F4A
:103F70008F929F92AF92BF92CF92DF92EF92FF9279
:103F80000F931F93CF93DF93CDB7DEB764970FB630
:103F9000F894DEBF0FBECDBFE82EF12C28EC829F37
:103FA000F0011124E652FC4FE481E150E03208F0C8
:103FB000EAC50E2E000CFF0BE052F04E0C946F324F
:103FC00000202C20C32569208F20C325C325C325AD
:103FD000C325C325C325C325C325C325C325CF209A
:103FE00017215B21EF211022D121BB21C325D8222B
:103FF000E7224423C0239B24C325F9258625602678
:1040000082E58093C70582E48093C80588E08093A9
:10401000C90588EC8E9DF0018F9DF00D1124E652AC
:10402000FC4F83818093CA058AE08093CB0581E0B1
:104030008093CC058093CD05E7ECF5E02EEC35E0E0
:1040400080E09191890F2E173F07D9F78093CE0515
:1040500088E00E94940097C582E58093C70582E4BA
:104060008093C8051092C90588EC8E9DF0018F9D44
:10407000F00D1124E652FC4F83818093CA0585819F
:10408000823019F124F4813041F0E4E00CC0833037
:10409000F1F08430D1F784E001C081E00E94131078
:1040A0008093CB05E5E081E08E0F8093C905A7ECF6
:1040B000B5E020E090E03D91930F2F5FE213FBCF3E
:1040C000F0E0E953FA4F9083C4CF82E0E7CF83E07A
:1040D000E5CF82E58093C70582E48093C80588EC2C
:1040E0008E9DF0018F9DF00D1124E652FC4F8381CF
:1040F0008093CA0581E08093CB058093CC0587E04F
:104100008093C905E7ECF5E080E09191890F35E0F7
:10411000ED3CF307D1F78093CD0587E09ACF82E598
:104120008093C70582E48093C8051092C90588EC86
:104130008E9DF0018F9DF00D1124E652FC4F83817E
:104140008093CA0581E00E9413108093CB0582E022
:104150000E9413108093CC0583E00E94131080937B
:10416000CD0584E00E9413108093CE051092CF05F8
:104170001092D0051092D1051092D2058DE0809357
:10418000C905E7ECF5E023ED35E080E09191890F7A
:104190002E173F07D9F78093D3058DE05ACF88ECCF
:1041A0008E9DF0018F9DF00D1124E652FC4F85810C
:1041B0008C3FA1F1882339F08B3F81F40085278162
:1041C000468161E02FC02085478166818DEA95E0B8
:1041D0000E94A5118DEA95E00E94501182E580931E
:1041E000C70582E48093C80588EC8E9DF0018F9D01
:1041F000F00D1124E652FC4F83818093CA0591E0B3
:104200009093CB0596E09093C9059BE9980F909306
:10421000CC05882309F4B7C486E01BCF008527812D
:10422000468160E08DEA95E00E948411D3CF88EC4E
:104230008E9D80018F9D100D112406521C4FD801B8
:1042400015968C9115978F3F61F1882361F08E3F11
:1042500029F616966C91062E000C770B880B990B9D
:104260000E94F20CBBCFF8012781022E000C330B09
:10427000440B550B6681062E000C770B880B990BAF
:104280000E94670ED80116968C9116978111A6CFC1
:1042900017968C918111A2CF1092B9051092BC058E
:1042A0009DCFF8016681062E000C770B880B990BC9
:1042B0000E94D90D93CF88EC8E9D80018F9D100DAB
:1042C000112406521C4FF80185810E941310029799
:1042D00009F084CF8091A9059091AA050097B1F5C6
:1042E00080E190E00E9489326C01D80115966C91B2
:1042F000C6010E940C12D092AA05C092A90588ECB2
:104300008E9DF0018F9DF00D1124E652FC4FD0845C
:10431000C780B6800091A9051091AA0560E4C80184
:104320000E940F1561EAC8010E94AF146B2DC801ED
:104330000E94AF146C2DC8010E94AF146D2DC801EE
:104340000E94AF14C8010E94D41348CFFC014281DF
:10435000D80115962C91022E000C330B4217130630
:1043600071F20E94253380E190E00E9489326C0155
:10437000F8016581BDCF88EC8E9DF0018F9DF00D19
:104380001124E652FC4F8581893F09F027CF8681B1
:10439000882321F081E080936B0520CF10926B057C
:1043A0001DCF88EC8E9DF0018F9DF00D1124E652FB
:1043B000FC4F8681882369F0813071F010926F057F
:1043C00010927005109271051092720510926E0590
:1043D00005CF1092BD05F2CF8093BD05EFCF88ECDD
:1043E0008E9DF0018F9DF00D1124E652FC4F8581CA
:1043F0008A3F09F0F3CE40858185542F482F70E025
:1044000060E0968187810E94840C61E08091C605FE
:104410000E94480C60E08091C6050E941A0CDECE16
:1044200088EC8E9D80018F9D100D112406521C4F2B
:10443000D80115968C910E941310039709F0CECEE7
:104440008091990590919A05009709F09AC086E0AD
:1044500090E00E9489326C01F8016581C6010E94DA
:10446000FA1ED0929A05C0929905C0909905D090F5
:104470009A0588EC8E9DF0018F9DF00D1124E0527D
:10448000FC4F43E120818181322F282FC90196956D
:10449000879585759575220F331F2A7A3A7A822B74
:1044A000932B9C0136952795369527952373337367
:1044B000880F991F880F991F8C7C9C7C282B392B87
:1044C000C90174E0969587957A95E1F78F709F7092
:1044D000A4E0220F331FAA95E1F7207F307F822BC3
:1044E000932B982789279827880F991F880F991F42
:1044F0005FEF540F21E030E02C0F3D1F240F311DE2
:10450000D9018C934250A1E0B0E0AC0FBD1FA50FC4
:10451000B11D9C9332964F3F09F0B4CFC6010E9463
:10452000C61467EEC6010E94AF1460E0C6010E9487
:10453000AF148E010F5F1F4F5E01B5E1AB0EB11CD2
:10454000F80121918F0130E0C901959587959595E6
:1045500087958373220F331F220F331F2C7C822BEE
:1045600090E0BC01759567956575880F991F8A7AEB
:10457000682BC6010E94AF14A016B10609F7C60148
:10458000E2CEDC0112964C91F8012581022E000C3E
:10459000330B4217130609F468CF0E94253386E0D7
:1045A00090E00E9489326C01D80115966C9156CF2B
:1045B00088EC8E9DF0018F9DF00D1124E652FC4F8A
:1045C00085818093B90586818093BC0507CE88ECF0
:1045D0008E9D80018F9D100D112406521C4FD80115
:1045E00015968C910E941310059709F0F7CD8091D4
:1045F0008F0590919005009759F585E090E00E9415
:1046000089326C01F8016581C6010E942112D092A5
:104610009005C0928F0583EA8093B00087E0809375
:10462000B10088EC8E9DF0018F9DF00D1124E652B3
:10463000FC4F8681813011F1823021F18111CECD84
:10464000108587810E947B0B812F0E945B0BC6CD5A
:10465000DC0112964C91F8012581022E000C330BDF
:1046600042171306F1F20E94253385E090E00E9484
:1046700089326C01D80115966C91C6CF87810E9452
:104680007B0BACCD8781E1CF88EC8E9D80018F9D27
:10469000100D112406521C4FF80185810E94131041
:1046A000099709F09BCD8091910590919205009713
:1046B00009F046C086E090E00E9489326C01D80182
:1046C00015966C910E94F011F6011582D092920518
:1046D000C092910588EC8E9DF0018F9DF00D112404
:1046E000E652FC4F86818130D1F18230D1F08111C8
:1046F00075CD2781809191059091920540E027FF2B
:1047000005C0332721950CF4309541E061E00E940B
:10471000671D88EC8E9DF0018F9DF00D1124E652EF
:10472000FC4F2085809191059091920540E027FFF4
:1047300005C0332721950CF4309541E062E01DC09F
:10474000DC0112964C91F8012581022E000C330BEE
:104750004217130609F4BECF0E942533ABCF278141
:10476000809191059091920540E027FF05C0332785
:1047700021950CF4309541E061E00E94671D2ECD3B
:1047800088EC8E9D80018F9D100D112406521C4FC8
:10479000D80115968C910E9413100C9709F01ECD2C
:1047A000C0908905D0908A05C114D10409F0ADC02C
:1047B000F80185810E9413100C97E1F486E090E0E7
:1047C0000E9489326C01D80115966C910E94F011FB
:1047D00081E0F6018583D0928A05C092890567E75A
:1047E000C6010E94DA1D64E78091890590918A05CF
:1047F0000E94DA1DE2E7F2E088E4DF011D928A956B
:10480000E9F788EC8E9D90018F9D300D1124265282
:104810003C4F90E080E0FC01E25BFF4FE20FF31FB2
:104820004081042E000C550BFC01EE0FFF1FEE58CB
:10483000FD4F5183408301968834910561F7E2EE84
:10484000F1E088E4DF011D928A95E9F790E080E0CD
:10485000F901E80FF91F4681042E000C550BFC01ED
:10486000EE0FFF1FEE51FE4F5183408301968834B7
:10487000910571F7C0908905D0908A0542EC51E00E
:1048800062ED71E082EE91E00E94A50042EA51E003
:1048900062EB71E082E792E00E94A50020E04DEF1C
:1048A00067E7C6010E948B1D00E110E022ED31E0B8
:1048B00040E067E7C6010E94A31D20E04DEF64E7DA
:1048C000C6010E948B1D22EB31E040E064E7C60187
:1048D0000E94A31D21E04DEF67E7C6010E948B1DDA
:1048E00022EC31E040E067E7C6010E94A31D21E011
:1048F0004DEF64E7C6010E948B1D22EA31E040E0E3
:1049000064E7C6010E94A31D69CCD80115968C915D
:10491000F6019281282F082E000C330B92171306F4
:1049200009F468CF0E9413100C9709F063CFC601F9
:104930000E94253343CF88EC8E9D80018F9D100D02
:10494000112406521C4FF80185810E9413100B9709
:1049500009F044CCC0908B05D0908C05C114D104D3
:1049600009F0B6C083E290E00E9489326C01D80160
:1049700015966C91C6010E946112D0928C05C0926E
:104980008B0500918B0510918C0588EC8E9DF001B4
:104990008F9DF00D1124E652FC4FD680D8019296DF
:1049A0002C9192978D2D0D2C000C990B2817190620
:1049B00059F19296DC928AEA8093980182E0809382
:1049C000990181E080939A01D0929B0186E58D2523
:1049D00080939C0128E9A22E21E0B22E3DE9832E8E
:1049E00031E0932EF50161915F01C8010E946710CB
:1049F0008A149B04B9F7D8019296DC9262E370E0C6
:104A000080E090E00E94E10F88EC8E9DF0018F9D88
:104A1000F00D1124E652FC4F808597812AEA2093FD
:104A200098019093990121E020939A0180939B0132
:104A3000892794E5892780939C0188E9C82E81E025
:104A4000D82E9DE9A92E91E0B92EF60161916F0152
:104A5000C8010E946710AC14BD04B9F762E370E0AE
:104A600080E090E00E94E10FC8010E94FC10011557
:104A7000110559F080E691E0D8018D939C93C8010F
:104A80000E94FC10C8010E94253310928C051092E0
:104A90008B0588EC8E9D80018F9D100D1124065290
:104AA0001C4FD8011596EC91EE0FFF0BE259FE4F0B
:104AB00060E080810E94480CD8011596EC91EE0FC1
:104AC000FF0BE259FE4F60E081810E94480C86CBCB
:104AD000F60121A1D80115968C91082E000C990B96
:104AE0002817190609F44DCF80E691E09183808361
:104AF000C6010E94FC10C6010E94253383E290E0AB
:104B00000E9489326C01F801658134CF88EC8E9D5A
:104B100080018F9D100D112406521C4FF8018581D4
:104B20000E941310439709F059CBC0908305D09091
:104B30008405C114D104D1F58CE090E00E94893243
:104B40006C01D80115966C91C6010E948C1FD09201
:104B50008405C0928305C0908305D090840588ECBD
:104B60008E9DF0018F9DF00D1124E652FC4F2185A2
:104B7000408567818681811133C0C6010E94A511DD
:104B8000C6010E94501164960FB6F894DEBF0FBEA6
:104B9000CDBFDF91CF911F910F91FF90EF90DF90EC
:104BA000CF90BF90AF909F908F900895F601228193
:104BB000D80115968C91082E000C990B2817190610
:104BC00051F2828593850E942533C6010E942533C8
:104BD0008CE090E00E9489326C01F8016581B4CFCD
:104BE0008150022F242F462F682FC6010E94841166
:104BF000C7CF88EC8E9D80018F9D100D1124065229
:104C00001C4FD80115968C910E941310429709F001
:104C1000E5CA8091810590918205009709F042C014
:104C200086E090E00E9489326C01F80165810E9463
:104C3000F011D60115961C92D0928205C092810582
:104C4000C6010E944C1F88EC8E9D80018F9D100D27
:104C5000112406521C4FF801468161E080918105C4
:104C6000909182050E94211FD80117964C9162E015
:104C700080918105909182050E94211FF801408555
:104C800063E080918105909182050E94211FD801E7
:104C900019964C9164E080918105909182050E9463
:104CA000211F71CFFC014281D80115962C91022E53
:104CB000000C330B4217130631F20E942533B0CF9C
:104CC00088EC8E9D80018F9D100D112406521C4F83
:104CD000F80185810E941310499709F07FCA8091DD
:104CE000730590917405D8011596DC900097D1F565
:104CF00085E090E00E9489328C016D2D0E94211286
:104D0000109374050093730561E0F80183810E949C
:104D1000480C61E0D80114968C910E94480C0091D7
:104D200073051091740588EC8E9DF0018F9DF00D38
:104D30001124E652FC4FE680E094F12C878161E07B
:104D4000811130C0F80183810E94480C60E0D801D5
:104D500014968C910E94480CB701F80183810E943F
:104D60007C0D11CFFC0122816D2DDD0C770B2617F8
:104D70001706A9F20E94253385E090E00E9489324F
:104D80006C01D80115966C910E942112D092740585
:104D9000C092730561E0F60183810E94480C61E0D6
:104DA000D601B9CFD80114968C910E94480C60E0CE
:104DB000F80183810E94480CB701D80114968C91A8
:104DC000CECF1F920F920FB60F9211242F933F93C5
:104DD0008F939F93AF93BF938091D2039091D3030E
:104DE000A091D403B091D5033091D10323E0230FD8
:104DF0002D3758F50196A11DB11D2093D103809345
:104E0000D2039093D303A093D403B093D50380919E
:104E1000D6039091D703A091D803B091D9030196FE
:104E2000A11DB11D8093D6039093D703A093D803FF
:104E3000B093D903BF91AF919F918F913F912F91E3
:104E40000F900FBE0F901F90189526E8230F029623
:104E5000A11DB11DD2CF1F920F920FB60F92112438
:104E60002F933F934F935F936F937F938F939F9372
:104E7000AF93BF93EF93FF93E091CF03F091D003F3
:104E8000309749F0A685B7858585968D91FF14C02A
:104E90009C918923A1F4FF91EF91BF91AF919F91D4
:104EA0008F917F916F915F914F913F912F910F90D3
:104EB0000FBE0F901F9018959C91892361F7A389CD
:104EC000B4899C918589809589238C93868997895B
:104ED0000197F1F7608D718DA685B785558538E00E
:104EE00020E0CB010197F1F7822F90E0959587950F
:104EF000282F4C91452309F02068315091F7868D79
:104F000081FD20958091CD0390E001968F739927C4
:104F10003091CE03381799F0A091CD03B0E0A3579C
:104F2000BC4F2C938093CD03828D938D0197F1F725
:104F3000A389B4898C919589892B8C93ACCF868D6C
:104F40008160868FF1CF1F920F920FB60F921124BE
:104F50002F933F938F939F93EF93FF9380918C03B5
:104F600087FF1FC0109285001092840080918C03EF
:104F70008F5F80938C0380918C0387FF04C08091A6
:104F80008C038C30ACF08091840090918500049665
:104F900080349C4990F18091840090918500049622
:104FA0002EC080918C0387FFE1CF80918C03DECFF0
:104FB0002091840030918500E0918C038E2FEE0FBC
:104FC000990BFC01EE0FFF1FE80FF91FE859FC4F8A
:104FD00081819281820F931F909389008093880032
:104FE00080918C03FF91EF919F918F913F912F9131
:104FF0000F900FBE0F901F90189580E49CE990933E
:105000008900809388008FEF80938C03EBCF1F92F1
:105010000F920FB60F9211242F933F938F939F936C
:10502000AF93BF93EF93FF939091C60080910303DA
:1050300081111BC0923561F4E091020338ECE39FCB
:10504000F0011124E652FC4F908381E0809303032A
:10505000FF91EF91BF91AF919F918F913F912F91D0
:105060000F900FBE0F901F901895813081F49234ED
:1050700059F4E091020388ECE89FF0011124E65214
:10508000FC4F918382E0E2CF10920303E1CF2091A5
:10509000020338EC239FF0011124E652FC4FDF019C
:1050A000A80FB11D9C938F5F809303039281891792
:1050B00010F4883C68F21092030380916A05222361
:1050C00031F010920203826080936A05C1CF91E0B3
:1050D000909302038160F8CFCF92DF92EF92FF921C
:1050E0000F931F93E82FF92F05C0015011092109D3
:1050F000310961F1908196239417B9F305C00150ED
:1051000011092109310911F1908196239413F7CFE8
:10511000C12CD12CE12CF12C0AC08FEFC81AD80A6F
:10512000E80AF80A0C151D052E053F0579F0808167
:105130008623841791F36C2D7D2D8E2D9F2D1F912D
:105140000F91FF90EF90DF90CF90089560E070E0B6
:1051500080E090E01F910F91FF90EF90DF90CF9053
:105160000895CF93DF9300D000D0CDB7DEB7789409
:1051700084B5826084BD84B5816084BD85B582605C
:1051800085BD85B5816085BD80916E00816080930D
:105190006E00109281008091810082608093810076
:1051A0008091810081608093810080918000816086
:1051B000809380008091B10084608093B1008091E1
:1051C000B00081608093B00080917A008460809309
:1051D0007A0080917A00826080937A0080917A00D0
:1051E000816080937A0080917A00806880937A0051
:1051F0001092C10060E088E00E94480C8091C000DD
:1052000082608093C0001092C50080E18093C4004A
:105210008091C10080688093C1008091C10080614D
:105220008093C1008091C10088608093C10080910B
:10523000C20084608093C2008091C200826080932B
:10524000C2006CE271E080E090E00E94E10F61E05A
:105250008091C6050E94480C60E08091C6050E94BE
:105260001A0C20E040E060E08DEA95E00E94A51174
:10527000E0EBF0E0E491E093B405ECE9F0E0E491D8
:10528000F0E0EE0FFF1FEA57FF4F85919491909346
:10529000B1058093B00561E082E00E94480C20E0F7
:1052A00040E060E08DEA95E00E94A5118DEA95E06E
:1052B0000E9450116CE271E080E090E00E94E10FEA
:1052C00020E040E06EE18DEA95E00E94A5118DEAB4
:1052D00095E00E9450116CE271E080E090E00E9445
:1052E000E10F20E04EE160E08DEA95E00E94A5111B
:1052F0008DEA95E00E9450116CE271E080E090E050
:105300000E94E10F2EE140E060E08DEA95E00E940E
:10531000A5118DEA95E00E9450116CE271E080E0E9
:1053200090E00E94E10F44EF51E060E070E084EF14
:1053300091E00E94840C61E085E00E94480C61E0ED
:1053400086E00E94480C61E089E00E94480C61E020
:105350008AE00E94480C8DEA809380008BE0809365
:105360008100109289001092880010928B00109298
:105370008A0064EF71E080E090E00E94E10F82E536
:105380000E948D0082E40E948D0086E00E948D00C4
:1053900080E00E948D0083E00E948D008DE90E94D4
:1053A0008D0088E19FE00FB6F894A8958093600087
:1053B0000FBE90936000A89538EC832E912CA12C01
:1053C000B12C40E6242E41E0342E50E5652E53ECFE
:1053D000752EA89580916A05482F417080FF03C102
:1053E0008E7F80936A058091DC0350E040E081501D
:1053F000990B252F30E0281739073CF426523C4FF3
:10540000D9012C91420F5F5FF4CF86529C4FFC0173
:1054100080814813CBC08091DE03813A08F0C2C07E
:1054200080E00E94B81F88E00E94F10B019719F4F8
:1054300081E080936D0588E00E94F10B892B49F48F
:1054400080916D05882329F081E080936C0510928E
:105450006D0580916C05882321F110926C05809177
:105460006B058823F1F082E50E948D0082E40E94A2
:105470008D0088E00E948D0080E00E948D0081E018
:105480000E948D0089EF0E948D0081E00E948D00B6
:1054900087E90E948D0087E90E948D0087E90E94BC
:1054A0008D008091BD05882309F46AC080916F0545
:1054B00090917005A0917105B09172050196A11DA2
:1054C000B11D80936F0590937005A0937105B09303
:1054D0007205883E9340A105B10508F449C02091AA
:1054E0006E052A8310926F05109270051092710557
:1054F0001092720585E10E94770EBC0190E080E079
:105500000E942B3120E030E040E75CE30E94E23172
:105510006B017C0120E030E040E050E40E94DD318E
:10552000181634F52AE939E949ED50E4C701B60106
:105530000E947E3087FF1CC082E50E948D0082E4BD
:105540000E948D0088E00E948D0080E00E948D0006
:1055500082E00E948D008DEF0E948D0081E00E940C
:105560008D008CE90E948D003A813F5F30936E057B
:1055700080916E058A3020F010926E051092BD0564
:105580008091BC05813009F461C208F469C08230A1
:1055900009F459C3E0E0F0E0EF2B09F41ACF0E94C0
:1055A000000017CF80E00E9419163DCF82E50E94CF
:1055B0008D0082E40E948D0087E00E948D00809122
:1055C000DD030E948D008091DE030E948D0080E04B
:1055D0000E948D008091DD039091DE03890F865635
:1055E0000E948D0020CF81FF1ECF8D7F80936A05A2
:1055F0008091A40450E08150990B252F30E02817AA
:1056000039073CF42E553B4FD9012C91420F5F5F77
:10561000F4CF8E559B4FFC018081481308C08091C8
:10562000A604813A10F481E0FCCE81E0BCCF82E593
:105630000E948D0082E40E948D0087E00E948D0010
:105640008091A5040E948D008091A6040E948D0087
:1056500080E00E948D008091A5049091A604BECFA9
:105660000E9442100091A3051091A4052091A50568
:105670003091A605601B710B820B930B6132734056
:105680008105910508F486CF8FE9C82E85E0D82ED4
:105690009BE9E92E95E0F92E0EE611E01A82512CD5
:1056A0005394852D0E941310482EF60181936F01AB
:1056B00081110BC060E0D80112968C910E94480CB9
:1056C00060E0F80183810E94480CD701EC914E16EE
:1056D00009F486C0E250E83108F044C0F0E0ED582B
:1056E000F44D0C946F328B2B972BA32B3B2CB52BAB
:1056F000C42BD32BE22B4B2C572C732C812C8F2CAF
:10570000B22BC22CB22BB42C9D2CD02CDE2CEC2C2A
:10571000FA2C082D182D8091A9059091AA050097C3
:1057200031F00E9425331092AA051092A9058091AC
:10573000990590919A05009731F00E9425331092B7
:105740009A05109299058091BA059091BB05009732
:1057500019F4B1E0BA8344C00E9425331092BB050E
:105760001092BA05E1E0EA833BC0809197059091E1
:105770009805009771F30E942533109298051092B6
:105780009705F1E0FA832CC08091950590919605DC
:105790000097F9F20E942533109296051092950514
:1057A00021E02A831DC08091930590919405009774
:1057B00081F20E942533109294051092930531E0F6
:1057C0003A830EC08091910590919205009709F25D
:1057D0000E942533109292051092910581E08A83F0
:1057E000D7014D927D010E5F1F4FB4E05B1258CF81
:1057F000EA81EE23A9F182E58093C70582E48093D4
:10580000C8051092CA05F5E0F093CB0580919B0581
:105810008093CC0580919C058093CD0580919D055A
:105820008093CE0580919E058093CF051092D00580
:105830001092D1051092D2051092D3052EE020933C
:10584000C905E7ECF5E081913981380F398385E0AE
:10585000E43DF807C1F73093D4058EE00E94940030
:105860000E9442106093A3057093A4058093A50540
:105870009093A6058FCE80918F059091900500970B
:1058800009F467CF0E9425331092900510928F057E
:1058900091E09A83A5CF80918D0590918E05009718
:1058A00031F00E94253310928E0510928D05A09143
:1058B0008B05B0918C05BC83AB83109709F449CF5D
:1058C000CD010E94FC10EB81FC8131822082CF014E
:1058D0000E94FC108B819C810E94253310928C05C4
:1058E00010928B054ECF8091890590918A05009783
:1058F00009F42FCF0E94253310928A051092890552
:105900004FCF8091870590918805009709F421CFAA
:105910000E942533109288051092870550CF809100
:10592000850590918605009709F413CF0E942533D1
:10593000109286051092850551CFA0918305B091F4
:105940008405BC83AB83109709F403CF1A968D911D
:105950009C910E9425338B819C810E94253310925B
:10596000840510928305F5CE809181059091820582
:10597000009709F4EECE0E94253310928205109212
:105980008105F0CE80917F0590918005009709F404
:10599000E0CE0E9425331092800510927F05F1CE53
:1059A00080917D0590917E05009709F4D2CE0E94EA
:1059B000253310927E0510927D05F2CE80917B05F5
:1059C00090917C05009709F4C4CE0E942533109273
:1059D0007C0510927B05F3CE8091790590917A0534
:1059E000009709F4B6CE0E94253310927A051092E2
:1059F0007905F4CE8091770590917805009709F4A8
:105A0000A8CE0E942533109278051092770540CFDA
:105A10008091750590917605009709F49ACE0E94C1
:105A200025331092760510927505A1E0AA83D8CE91
:105A30008091730590917405009709F48ACE0E94B5
:105A40002533109274051092730583CE8091A905B9
:105A50009091AA051091B905009709F062C080E104
:105A600090E00E9489329C838B83612F0E940C12EC
:105A7000AB81BC81B093AA05A093A9058091A9052B
:105A80009091AA050E9424156B017C0120E030E072
:105A900048E452E40E94DD3118160CF05EC010920A
:105AA000A8051092A7058091A705813009F494C03C
:105AB00008F47CC0823009F06DCD20E042E360E064
:105AC0008DEA95E00E94A5118DEA95E00E945011A3
:105AD00026EA3FEF4FEF5FEF66EA7FEF8FEF9FEF32
